{
	"security/Cross-Chain Security/SimpleBridge.sol": {
		"SimpleBridge": {
			"abi": [
				{
					"inputs": [
						{
							"internalType": "address[]",
							"name": "_validators",
							"type": "address[]"
						},
						{
							"internalType": "uint256",
							"name": "_requiredSignatures",
							"type": "uint256"
						}
					],
					"stateMutability": "nonpayable",
					"type": "constructor"
				},
				{
					"anonymous": false,
					"inputs": [
						{
							"indexed": false,
							"internalType": "address",
							"name": "from",
							"type": "address"
						},
						{
							"indexed": false,
							"internalType": "address",
							"name": "to",
							"type": "address"
						},
						{
							"indexed": false,
							"internalType": "uint256",
							"name": "amount",
							"type": "uint256"
						},
						{
							"indexed": false,
							"internalType": "uint256",
							"name": "nonce",
							"type": "uint256"
						}
					],
					"name": "BridgeTransfer",
					"type": "event"
				},
				{
					"inputs": [
						{
							"internalType": "string",
							"name": "",
							"type": "string"
						}
					],
					"name": "processedTransactions",
					"outputs": [
						{
							"internalType": "bool",
							"name": "",
							"type": "bool"
						}
					],
					"stateMutability": "view",
					"type": "function"
				},
				{
					"inputs": [],
					"name": "requiredSignatures",
					"outputs": [
						{
							"internalType": "uint256",
							"name": "",
							"type": "uint256"
						}
					],
					"stateMutability": "view",
					"type": "function"
				},
				{
					"inputs": [
						{
							"internalType": "uint256",
							"name": "",
							"type": "uint256"
						}
					],
					"name": "validators",
					"outputs": [
						{
							"internalType": "address",
							"name": "",
							"type": "address"
						}
					],
					"stateMutability": "view",
					"type": "function"
				}
			],
			"devdoc": {
				"kind": "dev",
				"methods": {},
				"version": 1
			},
			"evm": {
				"assembly": "    /* \"security/Cross-Chain Security/SimpleBridge.sol\":61:1630  contract SimpleBridge{... */\n  mstore(0x40, 0x80)\n    /* \"security/Cross-Chain Security/SimpleBridge.sol\":311:475  constructor(address[] memory _validators, uint256 _requiredSignatures){... */\n  callvalue\n  dup1\n  iszero\n  tag_1\n  jumpi\n  0x00\n  dup1\n  revert\ntag_1:\n  pop\n  mload(0x40)\n  sub(codesize, bytecodeSize)\n  dup1\n  bytecodeSize\n  dup4\n  codecopy\n  dup2\n  dup2\n  add\n  0x40\n  mstore\n  dup2\n  add\n  swap1\n  tag_2\n  swap2\n  swap1\n  tag_3\n  jump\t// in\ntag_2:\n    /* \"security/Cross-Chain Security/SimpleBridge.sol\":405:416  _validators */\n  dup2\n    /* \"security/Cross-Chain Security/SimpleBridge.sol\":392:402  validators */\n  0x01\n    /* \"security/Cross-Chain Security/SimpleBridge.sol\":392:416  validators = _validators */\n  swap1\n  dup1\n  mload\n  swap1\n  0x20\n  add\n  swap1\n  tag_6\n  swap3\n  swap2\n  swap1\n  tag_7\n  jump\t// in\ntag_6:\n  pop\n    /* \"security/Cross-Chain Security/SimpleBridge.sol\":448:467  _requiredSignatures */\n  dup1\n    /* \"security/Cross-Chain Security/SimpleBridge.sol\":427:445  requiredSignatures */\n  0x02\n    /* \"security/Cross-Chain Security/SimpleBridge.sol\":427:467  requiredSignatures = _requiredSignatures */\n  dup2\n  swap1\n  sstore\n  pop\n    /* \"security/Cross-Chain Security/SimpleBridge.sol\":311:475  constructor(address[] memory _validators, uint256 _requiredSignatures){... */\n  pop\n  pop\n    /* \"security/Cross-Chain Security/SimpleBridge.sol\":61:1630  contract SimpleBridge{... */\n  jump(tag_8)\ntag_7:\n  dup3\n  dup1\n  sload\n  dup3\n  dup3\n  sstore\n  swap1\n  0x00\n  mstore\n  keccak256(0x00, 0x20)\n  swap1\n  dup2\n  add\n  swap3\n  dup3\n  iszero\n  tag_9\n  jumpi\n  swap2\n  0x20\n  mul\n  dup3\n  add\ntag_10:\n  dup3\n  dup2\n  gt\n  iszero\n  tag_11\n  jumpi\n  dup3\n  mload\n  dup3\n  exp(0x0100, 0x00)\n  dup2\n  sload\n  dup2\n  0xffffffffffffffffffffffffffffffffffffffff\n  mul\n  not\n  and\n  swap1\n  dup4\n  0xffffffffffffffffffffffffffffffffffffffff\n  and\n  mul\n  or\n  swap1\n  sstore\n  pop\n  swap2\n  0x20\n  add\n  swap2\n  swap1\n  0x01\n  add\n  swap1\n  jump(tag_10)\ntag_11:\ntag_9:\n  pop\n  swap1\n  pop\n  tag_12\n  swap2\n  swap1\n  tag_13\n  jump\t// in\ntag_12:\n  pop\n  swap1\n  jump\t// out\ntag_13:\ntag_14:\n  dup1\n  dup3\n  gt\n  iszero\n  tag_15\n  jumpi\n  0x00\n  dup2\n  0x00\n  swap1\n  sstore\n  pop\n  0x01\n  add\n  jump(tag_14)\ntag_15:\n  pop\n  swap1\n  jump\t// out\n    /* \"#utility.yul\":7:82   */\ntag_16:\n    /* \"#utility.yul\":40:46   */\n  0x00\n    /* \"#utility.yul\":73:75   */\n  0x40\n    /* \"#utility.yul\":67:76   */\n  mload\n    /* \"#utility.yul\":57:76   */\n  swap1\n  pop\n    /* \"#utility.yul\":7:82   */\n  swap1\n  jump\t// out\n    /* \"#utility.yul\":88:205   */\ntag_17:\n    /* \"#utility.yul\":197:198   */\n  0x00\n    /* \"#utility.yul\":194:195   */\n  dup1\n    /* \"#utility.yul\":187:199   */\n  revert\n    /* \"#utility.yul\":211:328   */\ntag_18:\n    /* \"#utility.yul\":320:321   */\n  0x00\n    /* \"#utility.yul\":317:318   */\n  dup1\n    /* \"#utility.yul\":310:322   */\n  revert\n    /* \"#utility.yul\":334:451   */\ntag_19:\n    /* \"#utility.yul\":443:444   */\n  0x00\n    /* \"#utility.yul\":440:441   */\n  dup1\n    /* \"#utility.yul\":433:445   */\n  revert\n    /* \"#utility.yul\":457:559   */\ntag_20:\n    /* \"#utility.yul\":498:504   */\n  0x00\n    /* \"#utility.yul\":549:551   */\n  0x1f\n    /* \"#utility.yul\":545:552   */\n  not\n    /* \"#utility.yul\":540:542   */\n  0x1f\n    /* \"#utility.yul\":533:538   */\n  dup4\n    /* \"#utility.yul\":529:543   */\n  add\n    /* \"#utility.yul\":525:553   */\n  and\n    /* \"#utility.yul\":515:553   */\n  swap1\n  pop\n    /* \"#utility.yul\":457:559   */\n  swap2\n  swap1\n  pop\n  jump\t// out\n    /* \"#utility.yul\":565:745   */\ntag_21:\n    /* \"#utility.yul\":613:690   */\n  0x4e487b7100000000000000000000000000000000000000000000000000000000\n    /* \"#utility.yul\":610:611   */\n  0x00\n    /* \"#utility.yul\":603:691   */\n  mstore\n    /* \"#utility.yul\":710:714   */\n  0x41\n    /* \"#utility.yul\":707:708   */\n  0x04\n    /* \"#utility.yul\":700:715   */\n  mstore\n    /* \"#utility.yul\":734:738   */\n  0x24\n    /* \"#utility.yul\":731:732   */\n  0x00\n    /* \"#utility.yul\":724:739   */\n  revert\n    /* \"#utility.yul\":751:1032   */\ntag_22:\n    /* \"#utility.yul\":834:861   */\n  tag_43\n    /* \"#utility.yul\":856:860   */\n  dup3\n    /* \"#utility.yul\":834:861   */\n  tag_20\n  jump\t// in\ntag_43:\n    /* \"#utility.yul\":826:832   */\n  dup2\n    /* \"#utility.yul\":822:862   */\n  add\n    /* \"#utility.yul\":964:970   */\n  dup2\n    /* \"#utility.yul\":952:962   */\n  dup2\n    /* \"#utility.yul\":949:971   */\n  lt\n    /* \"#utility.yul\":928:946   */\n  0xffffffffffffffff\n    /* \"#utility.yul\":916:926   */\n  dup3\n    /* \"#utility.yul\":913:947   */\n  gt\n    /* \"#utility.yul\":910:972   */\n  or\n    /* \"#utility.yul\":907:995   */\n  iszero\n  tag_44\n  jumpi\n    /* \"#utility.yul\":975:993   */\n  tag_45\n  tag_21\n  jump\t// in\ntag_45:\n    /* \"#utility.yul\":907:995   */\ntag_44:\n    /* \"#utility.yul\":1015:1025   */\n  dup1\n    /* \"#utility.yul\":1011:1013   */\n  0x40\n    /* \"#utility.yul\":1004:1026   */\n  mstore\n    /* \"#utility.yul\":794:1032   */\n  pop\n    /* \"#utility.yul\":751:1032   */\n  pop\n  pop\n  jump\t// out\n    /* \"#utility.yul\":1038:1167   */\ntag_23:\n    /* \"#utility.yul\":1072:1078   */\n  0x00\n    /* \"#utility.yul\":1099:1119   */\n  tag_47\n  tag_16\n  jump\t// in\ntag_47:\n    /* \"#utility.yul\":1089:1119   */\n  swap1\n  pop\n    /* \"#utility.yul\":1128:1161   */\n  tag_48\n    /* \"#utility.yul\":1156:1160   */\n  dup3\n    /* \"#utility.yul\":1148:1154   */\n  dup3\n    /* \"#utility.yul\":1128:1161   */\n  tag_22\n  jump\t// in\ntag_48:\n    /* \"#utility.yul\":1038:1167   */\n  swap2\n  swap1\n  pop\n  jump\t// out\n    /* \"#utility.yul\":1173:1484   */\ntag_24:\n    /* \"#utility.yul\":1250:1254   */\n  0x00\n    /* \"#utility.yul\":1340:1358   */\n  0xffffffffffffffff\n    /* \"#utility.yul\":1332:1338   */\n  dup3\n    /* \"#utility.yul\":1329:1359   */\n  gt\n    /* \"#utility.yul\":1326:1382   */\n  iszero\n  tag_50\n  jumpi\n    /* \"#utility.yul\":1362:1380   */\n  tag_51\n  tag_21\n  jump\t// in\ntag_51:\n    /* \"#utility.yul\":1326:1382   */\ntag_50:\n    /* \"#utility.yul\":1412:1416   */\n  0x20\n    /* \"#utility.yul\":1404:1410   */\n  dup3\n    /* \"#utility.yul\":1400:1417   */\n  mul\n    /* \"#utility.yul\":1392:1417   */\n  swap1\n  pop\n    /* \"#utility.yul\":1472:1476   */\n  0x20\n    /* \"#utility.yul\":1466:1470   */\n  dup2\n    /* \"#utility.yul\":1462:1477   */\n  add\n    /* \"#utility.yul\":1454:1477   */\n  swap1\n  pop\n    /* \"#utility.yul\":1173:1484   */\n  swap2\n  swap1\n  pop\n  jump\t// out\n    /* \"#utility.yul\":1490:1607   */\ntag_25:\n    /* \"#utility.yul\":1599:1600   */\n  0x00\n    /* \"#utility.yul\":1596:1597   */\n  dup1\n    /* \"#utility.yul\":1589:1601   */\n  revert\n    /* \"#utility.yul\":1613:1739   */\ntag_26:\n    /* \"#utility.yul\":1650:1657   */\n  0x00\n    /* \"#utility.yul\":1690:1732   */\n  0xffffffffffffffffffffffffffffffffffffffff\n    /* \"#utility.yul\":1683:1688   */\n  dup3\n    /* \"#utility.yul\":1679:1733   */\n  and\n    /* \"#utility.yul\":1668:1733   */\n  swap1\n  pop\n    /* \"#utility.yul\":1613:1739   */\n  swap2\n  swap1\n  pop\n  jump\t// out\n    /* \"#utility.yul\":1745:1841   */\ntag_27:\n    /* \"#utility.yul\":1782:1789   */\n  0x00\n    /* \"#utility.yul\":1811:1835   */\n  tag_55\n    /* \"#utility.yul\":1829:1834   */\n  dup3\n    /* \"#utility.yul\":1811:1835   */\n  tag_26\n  jump\t// in\ntag_55:\n    /* \"#utility.yul\":1800:1835   */\n  swap1\n  pop\n    /* \"#utility.yul\":1745:1841   */\n  swap2\n  swap1\n  pop\n  jump\t// out\n    /* \"#utility.yul\":1847:1969   */\ntag_28:\n    /* \"#utility.yul\":1920:1944   */\n  tag_57\n    /* \"#utility.yul\":1938:1943   */\n  dup2\n    /* \"#utility.yul\":1920:1944   */\n  tag_27\n  jump\t// in\ntag_57:\n    /* \"#utility.yul\":1913:1918   */\n  dup2\n    /* \"#utility.yul\":1910:1945   */\n  eq\n    /* \"#utility.yul\":1900:1963   */\n  tag_58\n  jumpi\n    /* \"#utility.yul\":1959:1960   */\n  0x00\n    /* \"#utility.yul\":1956:1957   */\n  dup1\n    /* \"#utility.yul\":1949:1961   */\n  revert\n    /* \"#utility.yul\":1900:1963   */\ntag_58:\n    /* \"#utility.yul\":1847:1969   */\n  pop\n  jump\t// out\n    /* \"#utility.yul\":1975:2118   */\ntag_29:\n    /* \"#utility.yul\":2032:2037   */\n  0x00\n    /* \"#utility.yul\":2063:2069   */\n  dup2\n    /* \"#utility.yul\":2057:2070   */\n  mload\n    /* \"#utility.yul\":2048:2070   */\n  swap1\n  pop\n    /* \"#utility.yul\":2079:2112   */\n  tag_60\n    /* \"#utility.yul\":2106:2111   */\n  dup2\n    /* \"#utility.yul\":2079:2112   */\n  tag_28\n  jump\t// in\ntag_60:\n    /* \"#utility.yul\":1975:2118   */\n  swap3\n  swap2\n  pop\n  pop\n  jump\t// out\n    /* \"#utility.yul\":2141:2873   */\ntag_30:\n    /* \"#utility.yul\":2248:2253   */\n  0x00\n    /* \"#utility.yul\":2273:2354   */\n  tag_62\n    /* \"#utility.yul\":2289:2353   */\n  tag_63\n    /* \"#utility.yul\":2346:2352   */\n  dup5\n    /* \"#utility.yul\":2289:2353   */\n  tag_24\n  jump\t// in\ntag_63:\n    /* \"#utility.yul\":2273:2354   */\n  tag_23\n  jump\t// in\ntag_62:\n    /* \"#utility.yul\":2264:2354   */\n  swap1\n  pop\n    /* \"#utility.yul\":2374:2379   */\n  dup1\n    /* \"#utility.yul\":2403:2409   */\n  dup4\n    /* \"#utility.yul\":2396:2401   */\n  dup3\n    /* \"#utility.yul\":2389:2410   */\n  mstore\n    /* \"#utility.yul\":2437:2441   */\n  0x20\n    /* \"#utility.yul\":2430:2435   */\n  dup3\n    /* \"#utility.yul\":2426:2442   */\n  add\n    /* \"#utility.yul\":2419:2442   */\n  swap1\n  pop\n    /* \"#utility.yul\":2490:2494   */\n  0x20\n    /* \"#utility.yul\":2482:2488   */\n  dup5\n    /* \"#utility.yul\":2478:2495   */\n  mul\n    /* \"#utility.yul\":2470:2476   */\n  dup4\n    /* \"#utility.yul\":2466:2496   */\n  add\n    /* \"#utility.yul\":2519:2522   */\n  dup6\n    /* \"#utility.yul\":2511:2517   */\n  dup2\n    /* \"#utility.yul\":2508:2523   */\n  gt\n    /* \"#utility.yul\":2505:2627   */\n  iszero\n  tag_64\n  jumpi\n    /* \"#utility.yul\":2538:2617   */\n  tag_65\n  tag_25\n  jump\t// in\ntag_65:\n    /* \"#utility.yul\":2505:2627   */\ntag_64:\n    /* \"#utility.yul\":2653:2659   */\n  dup4\n    /* \"#utility.yul\":2636:2867   */\ntag_66:\n    /* \"#utility.yul\":2670:2676   */\n  dup2\n    /* \"#utility.yul\":2665:2668   */\n  dup2\n    /* \"#utility.yul\":2662:2677   */\n  lt\n    /* \"#utility.yul\":2636:2867   */\n  iszero\n  tag_68\n  jumpi\n    /* \"#utility.yul\":2745:2748   */\n  dup1\n    /* \"#utility.yul\":2774:2822   */\n  tag_69\n    /* \"#utility.yul\":2818:2821   */\n  dup9\n    /* \"#utility.yul\":2806:2816   */\n  dup3\n    /* \"#utility.yul\":2774:2822   */\n  tag_29\n  jump\t// in\ntag_69:\n    /* \"#utility.yul\":2769:2772   */\n  dup5\n    /* \"#utility.yul\":2762:2823   */\n  mstore\n    /* \"#utility.yul\":2852:2856   */\n  0x20\n    /* \"#utility.yul\":2847:2850   */\n  dup5\n    /* \"#utility.yul\":2843:2857   */\n  add\n    /* \"#utility.yul\":2836:2857   */\n  swap4\n  pop\n    /* \"#utility.yul\":2712:2867   */\n  pop\n    /* \"#utility.yul\":2696:2700   */\n  0x20\n    /* \"#utility.yul\":2691:2694   */\n  dup2\n    /* \"#utility.yul\":2687:2701   */\n  add\n    /* \"#utility.yul\":2680:2701   */\n  swap1\n  pop\n    /* \"#utility.yul\":2636:2867   */\n  jump(tag_66)\ntag_68:\n    /* \"#utility.yul\":2640:2661   */\n  pop\n    /* \"#utility.yul\":2254:2873   */\n  pop\n  pop\n    /* \"#utility.yul\":2141:2873   */\n  swap4\n  swap3\n  pop\n  pop\n  pop\n  jump\t// out\n    /* \"#utility.yul\":2896:3281   */\ntag_31:\n    /* \"#utility.yul\":2978:2983   */\n  0x00\n    /* \"#utility.yul\":3027:3030   */\n  dup3\n    /* \"#utility.yul\":3020:3024   */\n  0x1f\n    /* \"#utility.yul\":3012:3018   */\n  dup4\n    /* \"#utility.yul\":3008:3025   */\n  add\n    /* \"#utility.yul\":3004:3031   */\n  slt\n    /* \"#utility.yul\":2994:3116   */\n  tag_71\n  jumpi\n    /* \"#utility.yul\":3035:3114   */\n  tag_72\n  tag_19\n  jump\t// in\ntag_72:\n    /* \"#utility.yul\":2994:3116   */\ntag_71:\n    /* \"#utility.yul\":3145:3151   */\n  dup2\n    /* \"#utility.yul\":3139:3152   */\n  mload\n    /* \"#utility.yul\":3170:3275   */\n  tag_73\n    /* \"#utility.yul\":3271:3274   */\n  dup5\n    /* \"#utility.yul\":3263:3269   */\n  dup3\n    /* \"#utility.yul\":3256:3260   */\n  0x20\n    /* \"#utility.yul\":3248:3254   */\n  dup7\n    /* \"#utility.yul\":3244:3261   */\n  add\n    /* \"#utility.yul\":3170:3275   */\n  tag_30\n  jump\t// in\ntag_73:\n    /* \"#utility.yul\":3161:3275   */\n  swap2\n  pop\n    /* \"#utility.yul\":2984:3281   */\n  pop\n    /* \"#utility.yul\":2896:3281   */\n  swap3\n  swap2\n  pop\n  pop\n  jump\t// out\n    /* \"#utility.yul\":3287:3364   */\ntag_32:\n    /* \"#utility.yul\":3324:3331   */\n  0x00\n    /* \"#utility.yul\":3353:3358   */\n  dup2\n    /* \"#utility.yul\":3342:3358   */\n  swap1\n  pop\n    /* \"#utility.yul\":3287:3364   */\n  swap2\n  swap1\n  pop\n  jump\t// out\n    /* \"#utility.yul\":3370:3492   */\ntag_33:\n    /* \"#utility.yul\":3443:3467   */\n  tag_76\n    /* \"#utility.yul\":3461:3466   */\n  dup2\n    /* \"#utility.yul\":3443:3467   */\n  tag_32\n  jump\t// in\ntag_76:\n    /* \"#utility.yul\":3436:3441   */\n  dup2\n    /* \"#utility.yul\":3433:3468   */\n  eq\n    /* \"#utility.yul\":3423:3486   */\n  tag_77\n  jumpi\n    /* \"#utility.yul\":3482:3483   */\n  0x00\n    /* \"#utility.yul\":3479:3480   */\n  dup1\n    /* \"#utility.yul\":3472:3484   */\n  revert\n    /* \"#utility.yul\":3423:3486   */\ntag_77:\n    /* \"#utility.yul\":3370:3492   */\n  pop\n  jump\t// out\n    /* \"#utility.yul\":3498:3641   */\ntag_34:\n    /* \"#utility.yul\":3555:3560   */\n  0x00\n    /* \"#utility.yul\":3586:3592   */\n  dup2\n    /* \"#utility.yul\":3580:3593   */\n  mload\n    /* \"#utility.yul\":3571:3593   */\n  swap1\n  pop\n    /* \"#utility.yul\":3602:3635   */\n  tag_79\n    /* \"#utility.yul\":3629:3634   */\n  dup2\n    /* \"#utility.yul\":3602:3635   */\n  tag_33\n  jump\t// in\ntag_79:\n    /* \"#utility.yul\":3498:3641   */\n  swap3\n  swap2\n  pop\n  pop\n  jump\t// out\n    /* \"#utility.yul\":3647:4357   */\ntag_3:\n    /* \"#utility.yul\":3751:3757   */\n  0x00\n    /* \"#utility.yul\":3759:3765   */\n  dup1\n    /* \"#utility.yul\":3808:3810   */\n  0x40\n    /* \"#utility.yul\":3796:3805   */\n  dup4\n    /* \"#utility.yul\":3787:3794   */\n  dup6\n    /* \"#utility.yul\":3783:3806   */\n  sub\n    /* \"#utility.yul\":3779:3811   */\n  slt\n    /* \"#utility.yul\":3776:3895   */\n  iszero\n  tag_81\n  jumpi\n    /* \"#utility.yul\":3814:3893   */\n  tag_82\n  tag_17\n  jump\t// in\ntag_82:\n    /* \"#utility.yul\":3776:3895   */\ntag_81:\n    /* \"#utility.yul\":3955:3956   */\n  0x00\n    /* \"#utility.yul\":3944:3953   */\n  dup4\n    /* \"#utility.yul\":3940:3957   */\n  add\n    /* \"#utility.yul\":3934:3958   */\n  mload\n    /* \"#utility.yul\":3985:4003   */\n  0xffffffffffffffff\n    /* \"#utility.yul\":3977:3983   */\n  dup2\n    /* \"#utility.yul\":3974:4004   */\n  gt\n    /* \"#utility.yul\":3971:4088   */\n  iszero\n  tag_83\n  jumpi\n    /* \"#utility.yul\":4007:4086   */\n  tag_84\n  tag_18\n  jump\t// in\ntag_84:\n    /* \"#utility.yul\":3971:4088   */\ntag_83:\n    /* \"#utility.yul\":4112:4201   */\n  tag_85\n    /* \"#utility.yul\":4193:4200   */\n  dup6\n    /* \"#utility.yul\":4184:4190   */\n  dup3\n    /* \"#utility.yul\":4173:4182   */\n  dup7\n    /* \"#utility.yul\":4169:4191   */\n  add\n    /* \"#utility.yul\":4112:4201   */\n  tag_31\n  jump\t// in\ntag_85:\n    /* \"#utility.yul\":4102:4201   */\n  swap3\n  pop\n    /* \"#utility.yul\":3905:4211   */\n  pop\n    /* \"#utility.yul\":4250:4252   */\n  0x20\n    /* \"#utility.yul\":4276:4340   */\n  tag_86\n    /* \"#utility.yul\":4332:4339   */\n  dup6\n    /* \"#utility.yul\":4323:4329   */\n  dup3\n    /* \"#utility.yul\":4312:4321   */\n  dup7\n    /* \"#utility.yul\":4308:4330   */\n  add\n    /* \"#utility.yul\":4276:4340   */\n  tag_34\n  jump\t// in\ntag_86:\n    /* \"#utility.yul\":4266:4340   */\n  swap2\n  pop\n    /* \"#utility.yul\":4221:4350   */\n  pop\n    /* \"#utility.yul\":3647:4357   */\n  swap3\n  pop\n  swap3\n  swap1\n  pop\n  jump\t// out\n    /* \"security/Cross-Chain Security/SimpleBridge.sol\":61:1630  contract SimpleBridge{... */\ntag_8:\n  dataSize(sub_0)\n  dup1\n  dataOffset(sub_0)\n  0x00\n  codecopy\n  0x00\n  return\nstop\n\nsub_0: assembly {\n        /* \"security/Cross-Chain Security/SimpleBridge.sol\":61:1630  contract SimpleBridge{... */\n      mstore(0x40, 0x80)\n      callvalue\n      dup1\n      iszero\n      tag_1\n      jumpi\n      0x00\n      dup1\n      revert\n    tag_1:\n      pop\n      jumpi(tag_2, lt(calldatasize, 0x04))\n      shr(0xe0, calldataload(0x00))\n      dup1\n      0x35aa2e44\n      eq\n      tag_3\n      jumpi\n      dup1\n      0x8d068043\n      eq\n      tag_4\n      jumpi\n      dup1\n      0x9ea32844\n      eq\n      tag_5\n      jumpi\n    tag_2:\n      0x00\n      dup1\n      revert\n        /* \"security/Cross-Chain Security/SimpleBridge.sol\":148:175  address[] public validators */\n    tag_3:\n      tag_6\n      0x04\n      dup1\n      calldatasize\n      sub\n      dup2\n      add\n      swap1\n      tag_7\n      swap2\n      swap1\n      tag_8\n      jump\t// in\n    tag_7:\n      tag_9\n      jump\t// in\n    tag_6:\n      mload(0x40)\n      tag_10\n      swap2\n      swap1\n      tag_11\n      jump\t// in\n    tag_10:\n      mload(0x40)\n      dup1\n      swap2\n      sub\n      swap1\n      return\n        /* \"security/Cross-Chain Security/SimpleBridge.sol\":182:215  uint256 public requiredSignatures */\n    tag_4:\n      tag_12\n      tag_13\n      jump\t// in\n    tag_12:\n      mload(0x40)\n      tag_14\n      swap2\n      swap1\n      tag_15\n      jump\t// in\n    tag_14:\n      mload(0x40)\n      dup1\n      swap2\n      sub\n      swap1\n      return\n        /* \"security/Cross-Chain Security/SimpleBridge.sol\":89:141  mapping(string => bool) public processedTransactions */\n    tag_5:\n      tag_16\n      0x04\n      dup1\n      calldatasize\n      sub\n      dup2\n      add\n      swap1\n      tag_17\n      swap2\n      swap1\n      tag_18\n      jump\t// in\n    tag_17:\n      tag_19\n      jump\t// in\n    tag_16:\n      mload(0x40)\n      tag_20\n      swap2\n      swap1\n      tag_21\n      jump\t// in\n    tag_20:\n      mload(0x40)\n      dup1\n      swap2\n      sub\n      swap1\n      return\n        /* \"security/Cross-Chain Security/SimpleBridge.sol\":148:175  address[] public validators */\n    tag_9:\n      0x01\n      dup2\n      dup2\n      sload\n      dup2\n      lt\n      tag_22\n      jumpi\n      0x00\n      dup1\n      revert\n    tag_22:\n      swap1\n      0x00\n      mstore\n      keccak256(0x00, 0x20)\n      add\n      0x00\n      swap2\n      pop\n      sload\n      swap1\n      0x0100\n      exp\n      swap1\n      div\n      0xffffffffffffffffffffffffffffffffffffffff\n      and\n      dup2\n      jump\t// out\n        /* \"security/Cross-Chain Security/SimpleBridge.sol\":182:215  uint256 public requiredSignatures */\n    tag_13:\n      sload(0x02)\n      dup2\n      jump\t// out\n        /* \"security/Cross-Chain Security/SimpleBridge.sol\":89:141  mapping(string => bool) public processedTransactions */\n    tag_19:\n      0x00\n      dup2\n      dup1\n      mload\n      0x20\n      dup2\n      add\n      dup3\n      add\n      dup1\n      mload\n      dup5\n      dup3\n      mstore\n      0x20\n      dup4\n      add\n      0x20\n      dup6\n      add\n      keccak256\n      dup2\n      dup4\n      mstore\n      dup1\n      swap6\n      pop\n      pop\n      pop\n      pop\n      pop\n      pop\n      0x00\n      swap2\n      pop\n      sload\n      swap1\n      0x0100\n      exp\n      swap1\n      div\n      0xff\n      and\n      dup2\n      jump\t// out\n        /* \"#utility.yul\":7:82   */\n    tag_24:\n        /* \"#utility.yul\":40:46   */\n      0x00\n        /* \"#utility.yul\":73:75   */\n      0x40\n        /* \"#utility.yul\":67:76   */\n      mload\n        /* \"#utility.yul\":57:76   */\n      swap1\n      pop\n        /* \"#utility.yul\":7:82   */\n      swap1\n      jump\t// out\n        /* \"#utility.yul\":88:205   */\n    tag_25:\n        /* \"#utility.yul\":197:198   */\n      0x00\n        /* \"#utility.yul\":194:195   */\n      dup1\n        /* \"#utility.yul\":187:199   */\n      revert\n        /* \"#utility.yul\":211:328   */\n    tag_26:\n        /* \"#utility.yul\":320:321   */\n      0x00\n        /* \"#utility.yul\":317:318   */\n      dup1\n        /* \"#utility.yul\":310:322   */\n      revert\n        /* \"#utility.yul\":334:411   */\n    tag_27:\n        /* \"#utility.yul\":371:378   */\n      0x00\n        /* \"#utility.yul\":400:405   */\n      dup2\n        /* \"#utility.yul\":389:405   */\n      swap1\n      pop\n        /* \"#utility.yul\":334:411   */\n      swap2\n      swap1\n      pop\n      jump\t// out\n        /* \"#utility.yul\":417:539   */\n    tag_28:\n        /* \"#utility.yul\":490:514   */\n      tag_52\n        /* \"#utility.yul\":508:513   */\n      dup2\n        /* \"#utility.yul\":490:514   */\n      tag_27\n      jump\t// in\n    tag_52:\n        /* \"#utility.yul\":483:488   */\n      dup2\n        /* \"#utility.yul\":480:515   */\n      eq\n        /* \"#utility.yul\":470:533   */\n      tag_53\n      jumpi\n        /* \"#utility.yul\":529:530   */\n      0x00\n        /* \"#utility.yul\":526:527   */\n      dup1\n        /* \"#utility.yul\":519:531   */\n      revert\n        /* \"#utility.yul\":470:533   */\n    tag_53:\n        /* \"#utility.yul\":417:539   */\n      pop\n      jump\t// out\n        /* \"#utility.yul\":545:684   */\n    tag_29:\n        /* \"#utility.yul\":591:596   */\n      0x00\n        /* \"#utility.yul\":629:635   */\n      dup2\n        /* \"#utility.yul\":616:636   */\n      calldataload\n        /* \"#utility.yul\":607:636   */\n      swap1\n      pop\n        /* \"#utility.yul\":645:678   */\n      tag_55\n        /* \"#utility.yul\":672:677   */\n      dup2\n        /* \"#utility.yul\":645:678   */\n      tag_28\n      jump\t// in\n    tag_55:\n        /* \"#utility.yul\":545:684   */\n      swap3\n      swap2\n      pop\n      pop\n      jump\t// out\n        /* \"#utility.yul\":690:1019   */\n    tag_8:\n        /* \"#utility.yul\":749:755   */\n      0x00\n        /* \"#utility.yul\":798:800   */\n      0x20\n        /* \"#utility.yul\":786:795   */\n      dup3\n        /* \"#utility.yul\":777:784   */\n      dup5\n        /* \"#utility.yul\":773:796   */\n      sub\n        /* \"#utility.yul\":769:801   */\n      slt\n        /* \"#utility.yul\":766:885   */\n      iszero\n      tag_57\n      jumpi\n        /* \"#utility.yul\":804:883   */\n      tag_58\n      tag_25\n      jump\t// in\n    tag_58:\n        /* \"#utility.yul\":766:885   */\n    tag_57:\n        /* \"#utility.yul\":924:925   */\n      0x00\n        /* \"#utility.yul\":949:1002   */\n      tag_59\n        /* \"#utility.yul\":994:1001   */\n      dup5\n        /* \"#utility.yul\":985:991   */\n      dup3\n        /* \"#utility.yul\":974:983   */\n      dup6\n        /* \"#utility.yul\":970:992   */\n      add\n        /* \"#utility.yul\":949:1002   */\n      tag_29\n      jump\t// in\n    tag_59:\n        /* \"#utility.yul\":939:1002   */\n      swap2\n      pop\n        /* \"#utility.yul\":895:1012   */\n      pop\n        /* \"#utility.yul\":690:1019   */\n      swap3\n      swap2\n      pop\n      pop\n      jump\t// out\n        /* \"#utility.yul\":1025:1151   */\n    tag_30:\n        /* \"#utility.yul\":1062:1069   */\n      0x00\n        /* \"#utility.yul\":1102:1144   */\n      0xffffffffffffffffffffffffffffffffffffffff\n        /* \"#utility.yul\":1095:1100   */\n      dup3\n        /* \"#utility.yul\":1091:1145   */\n      and\n        /* \"#utility.yul\":1080:1145   */\n      swap1\n      pop\n        /* \"#utility.yul\":1025:1151   */\n      swap2\n      swap1\n      pop\n      jump\t// out\n        /* \"#utility.yul\":1157:1253   */\n    tag_31:\n        /* \"#utility.yul\":1194:1201   */\n      0x00\n        /* \"#utility.yul\":1223:1247   */\n      tag_62\n        /* \"#utility.yul\":1241:1246   */\n      dup3\n        /* \"#utility.yul\":1223:1247   */\n      tag_30\n      jump\t// in\n    tag_62:\n        /* \"#utility.yul\":1212:1247   */\n      swap1\n      pop\n        /* \"#utility.yul\":1157:1253   */\n      swap2\n      swap1\n      pop\n      jump\t// out\n        /* \"#utility.yul\":1259:1377   */\n    tag_32:\n        /* \"#utility.yul\":1346:1370   */\n      tag_64\n        /* \"#utility.yul\":1364:1369   */\n      dup2\n        /* \"#utility.yul\":1346:1370   */\n      tag_31\n      jump\t// in\n    tag_64:\n        /* \"#utility.yul\":1341:1344   */\n      dup3\n        /* \"#utility.yul\":1334:1371   */\n      mstore\n        /* \"#utility.yul\":1259:1377   */\n      pop\n      pop\n      jump\t// out\n        /* \"#utility.yul\":1383:1605   */\n    tag_11:\n        /* \"#utility.yul\":1476:1480   */\n      0x00\n        /* \"#utility.yul\":1514:1516   */\n      0x20\n        /* \"#utility.yul\":1503:1512   */\n      dup3\n        /* \"#utility.yul\":1499:1517   */\n      add\n        /* \"#utility.yul\":1491:1517   */\n      swap1\n      pop\n        /* \"#utility.yul\":1527:1598   */\n      tag_66\n        /* \"#utility.yul\":1595:1596   */\n      0x00\n        /* \"#utility.yul\":1584:1593   */\n      dup4\n        /* \"#utility.yul\":1580:1597   */\n      add\n        /* \"#utility.yul\":1571:1577   */\n      dup5\n        /* \"#utility.yul\":1527:1598   */\n      tag_32\n      jump\t// in\n    tag_66:\n        /* \"#utility.yul\":1383:1605   */\n      swap3\n      swap2\n      pop\n      pop\n      jump\t// out\n        /* \"#utility.yul\":1611:1729   */\n    tag_33:\n        /* \"#utility.yul\":1698:1722   */\n      tag_68\n        /* \"#utility.yul\":1716:1721   */\n      dup2\n        /* \"#utility.yul\":1698:1722   */\n      tag_27\n      jump\t// in\n    tag_68:\n        /* \"#utility.yul\":1693:1696   */\n      dup3\n        /* \"#utility.yul\":1686:1723   */\n      mstore\n        /* \"#utility.yul\":1611:1729   */\n      pop\n      pop\n      jump\t// out\n        /* \"#utility.yul\":1735:1957   */\n    tag_15:\n        /* \"#utility.yul\":1828:1832   */\n      0x00\n        /* \"#utility.yul\":1866:1868   */\n      0x20\n        /* \"#utility.yul\":1855:1864   */\n      dup3\n        /* \"#utility.yul\":1851:1869   */\n      add\n        /* \"#utility.yul\":1843:1869   */\n      swap1\n      pop\n        /* \"#utility.yul\":1879:1950   */\n      tag_70\n        /* \"#utility.yul\":1947:1948   */\n      0x00\n        /* \"#utility.yul\":1936:1945   */\n      dup4\n        /* \"#utility.yul\":1932:1949   */\n      add\n        /* \"#utility.yul\":1923:1929   */\n      dup5\n        /* \"#utility.yul\":1879:1950   */\n      tag_33\n      jump\t// in\n    tag_70:\n        /* \"#utility.yul\":1735:1957   */\n      swap3\n      swap2\n      pop\n      pop\n      jump\t// out\n        /* \"#utility.yul\":1963:2080   */\n    tag_34:\n        /* \"#utility.yul\":2072:2073   */\n      0x00\n        /* \"#utility.yul\":2069:2070   */\n      dup1\n        /* \"#utility.yul\":2062:2074   */\n      revert\n        /* \"#utility.yul\":2086:2203   */\n    tag_35:\n        /* \"#utility.yul\":2195:2196   */\n      0x00\n        /* \"#utility.yul\":2192:2193   */\n      dup1\n        /* \"#utility.yul\":2185:2197   */\n      revert\n        /* \"#utility.yul\":2209:2311   */\n    tag_36:\n        /* \"#utility.yul\":2250:2256   */\n      0x00\n        /* \"#utility.yul\":2301:2303   */\n      0x1f\n        /* \"#utility.yul\":2297:2304   */\n      not\n        /* \"#utility.yul\":2292:2294   */\n      0x1f\n        /* \"#utility.yul\":2285:2290   */\n      dup4\n        /* \"#utility.yul\":2281:2295   */\n      add\n        /* \"#utility.yul\":2277:2305   */\n      and\n        /* \"#utility.yul\":2267:2305   */\n      swap1\n      pop\n        /* \"#utility.yul\":2209:2311   */\n      swap2\n      swap1\n      pop\n      jump\t// out\n        /* \"#utility.yul\":2317:2497   */\n    tag_37:\n        /* \"#utility.yul\":2365:2442   */\n      0x4e487b7100000000000000000000000000000000000000000000000000000000\n        /* \"#utility.yul\":2362:2363   */\n      0x00\n        /* \"#utility.yul\":2355:2443   */\n      mstore\n        /* \"#utility.yul\":2462:2466   */\n      0x41\n        /* \"#utility.yul\":2459:2460   */\n      0x04\n        /* \"#utility.yul\":2452:2467   */\n      mstore\n        /* \"#utility.yul\":2486:2490   */\n      0x24\n        /* \"#utility.yul\":2483:2484   */\n      0x00\n        /* \"#utility.yul\":2476:2491   */\n      revert\n        /* \"#utility.yul\":2503:2784   */\n    tag_38:\n        /* \"#utility.yul\":2586:2613   */\n      tag_76\n        /* \"#utility.yul\":2608:2612   */\n      dup3\n        /* \"#utility.yul\":2586:2613   */\n      tag_36\n      jump\t// in\n    tag_76:\n        /* \"#utility.yul\":2578:2584   */\n      dup2\n        /* \"#utility.yul\":2574:2614   */\n      add\n        /* \"#utility.yul\":2716:2722   */\n      dup2\n        /* \"#utility.yul\":2704:2714   */\n      dup2\n        /* \"#utility.yul\":2701:2723   */\n      lt\n        /* \"#utility.yul\":2680:2698   */\n      0xffffffffffffffff\n        /* \"#utility.yul\":2668:2678   */\n      dup3\n        /* \"#utility.yul\":2665:2699   */\n      gt\n        /* \"#utility.yul\":2662:2724   */\n      or\n        /* \"#utility.yul\":2659:2747   */\n      iszero\n      tag_77\n      jumpi\n        /* \"#utility.yul\":2727:2745   */\n      tag_78\n      tag_37\n      jump\t// in\n    tag_78:\n        /* \"#utility.yul\":2659:2747   */\n    tag_77:\n        /* \"#utility.yul\":2767:2777   */\n      dup1\n        /* \"#utility.yul\":2763:2765   */\n      0x40\n        /* \"#utility.yul\":2756:2778   */\n      mstore\n        /* \"#utility.yul\":2546:2784   */\n      pop\n        /* \"#utility.yul\":2503:2784   */\n      pop\n      pop\n      jump\t// out\n        /* \"#utility.yul\":2790:2919   */\n    tag_39:\n        /* \"#utility.yul\":2824:2830   */\n      0x00\n        /* \"#utility.yul\":2851:2871   */\n      tag_80\n      tag_24\n      jump\t// in\n    tag_80:\n        /* \"#utility.yul\":2841:2871   */\n      swap1\n      pop\n        /* \"#utility.yul\":2880:2913   */\n      tag_81\n        /* \"#utility.yul\":2908:2912   */\n      dup3\n        /* \"#utility.yul\":2900:2906   */\n      dup3\n        /* \"#utility.yul\":2880:2913   */\n      tag_38\n      jump\t// in\n    tag_81:\n        /* \"#utility.yul\":2790:2919   */\n      swap2\n      swap1\n      pop\n      jump\t// out\n        /* \"#utility.yul\":2925:3233   */\n    tag_40:\n        /* \"#utility.yul\":2987:2991   */\n      0x00\n        /* \"#utility.yul\":3077:3095   */\n      0xffffffffffffffff\n        /* \"#utility.yul\":3069:3075   */\n      dup3\n        /* \"#utility.yul\":3066:3096   */\n      gt\n        /* \"#utility.yul\":3063:3119   */\n      iszero\n      tag_83\n      jumpi\n        /* \"#utility.yul\":3099:3117   */\n      tag_84\n      tag_37\n      jump\t// in\n    tag_84:\n        /* \"#utility.yul\":3063:3119   */\n    tag_83:\n        /* \"#utility.yul\":3137:3166   */\n      tag_85\n        /* \"#utility.yul\":3159:3165   */\n      dup3\n        /* \"#utility.yul\":3137:3166   */\n      tag_36\n      jump\t// in\n    tag_85:\n        /* \"#utility.yul\":3129:3166   */\n      swap1\n      pop\n        /* \"#utility.yul\":3221:3225   */\n      0x20\n        /* \"#utility.yul\":3215:3219   */\n      dup2\n        /* \"#utility.yul\":3211:3226   */\n      add\n        /* \"#utility.yul\":3203:3226   */\n      swap1\n      pop\n        /* \"#utility.yul\":2925:3233   */\n      swap2\n      swap1\n      pop\n      jump\t// out\n        /* \"#utility.yul\":3239:3387   */\n    tag_41:\n        /* \"#utility.yul\":3337:3343   */\n      dup3\n        /* \"#utility.yul\":3332:3335   */\n      dup2\n        /* \"#utility.yul\":3327:3330   */\n      dup4\n        /* \"#utility.yul\":3314:3344   */\n      calldatacopy\n        /* \"#utility.yul\":3378:3379   */\n      0x00\n        /* \"#utility.yul\":3369:3375   */\n      dup4\n        /* \"#utility.yul\":3364:3367   */\n      dup4\n        /* \"#utility.yul\":3360:3376   */\n      add\n        /* \"#utility.yul\":3353:3380   */\n      mstore\n        /* \"#utility.yul\":3239:3387   */\n      pop\n      pop\n      pop\n      jump\t// out\n        /* \"#utility.yul\":3393:3818   */\n    tag_42:\n        /* \"#utility.yul\":3471:3476   */\n      0x00\n        /* \"#utility.yul\":3496:3562   */\n      tag_88\n        /* \"#utility.yul\":3512:3561   */\n      tag_89\n        /* \"#utility.yul\":3554:3560   */\n      dup5\n        /* \"#utility.yul\":3512:3561   */\n      tag_40\n      jump\t// in\n    tag_89:\n        /* \"#utility.yul\":3496:3562   */\n      tag_39\n      jump\t// in\n    tag_88:\n        /* \"#utility.yul\":3487:3562   */\n      swap1\n      pop\n        /* \"#utility.yul\":3585:3591   */\n      dup3\n        /* \"#utility.yul\":3578:3583   */\n      dup2\n        /* \"#utility.yul\":3571:3592   */\n      mstore\n        /* \"#utility.yul\":3623:3627   */\n      0x20\n        /* \"#utility.yul\":3616:3621   */\n      dup2\n        /* \"#utility.yul\":3612:3628   */\n      add\n        /* \"#utility.yul\":3661:3664   */\n      dup5\n        /* \"#utility.yul\":3652:3658   */\n      dup5\n        /* \"#utility.yul\":3647:3650   */\n      dup5\n        /* \"#utility.yul\":3643:3659   */\n      add\n        /* \"#utility.yul\":3640:3665   */\n      gt\n        /* \"#utility.yul\":3637:3749   */\n      iszero\n      tag_90\n      jumpi\n        /* \"#utility.yul\":3668:3747   */\n      tag_91\n      tag_35\n      jump\t// in\n    tag_91:\n        /* \"#utility.yul\":3637:3749   */\n    tag_90:\n        /* \"#utility.yul\":3758:3812   */\n      tag_92\n        /* \"#utility.yul\":3805:3811   */\n      dup5\n        /* \"#utility.yul\":3800:3803   */\n      dup3\n        /* \"#utility.yul\":3795:3798   */\n      dup6\n        /* \"#utility.yul\":3758:3812   */\n      tag_41\n      jump\t// in\n    tag_92:\n        /* \"#utility.yul\":3477:3818   */\n      pop\n        /* \"#utility.yul\":3393:3818   */\n      swap4\n      swap3\n      pop\n      pop\n      pop\n      jump\t// out\n        /* \"#utility.yul\":3838:4178   */\n    tag_43:\n        /* \"#utility.yul\":3894:3899   */\n      0x00\n        /* \"#utility.yul\":3943:3946   */\n      dup3\n        /* \"#utility.yul\":3936:3940   */\n      0x1f\n        /* \"#utility.yul\":3928:3934   */\n      dup4\n        /* \"#utility.yul\":3924:3941   */\n      add\n        /* \"#utility.yul\":3920:3947   */\n      slt\n        /* \"#utility.yul\":3910:4032   */\n      tag_94\n      jumpi\n        /* \"#utility.yul\":3951:4030   */\n      tag_95\n      tag_34\n      jump\t// in\n    tag_95:\n        /* \"#utility.yul\":3910:4032   */\n    tag_94:\n        /* \"#utility.yul\":4068:4074   */\n      dup2\n        /* \"#utility.yul\":4055:4075   */\n      calldataload\n        /* \"#utility.yul\":4093:4172   */\n      tag_96\n        /* \"#utility.yul\":4168:4171   */\n      dup5\n        /* \"#utility.yul\":4160:4166   */\n      dup3\n        /* \"#utility.yul\":4153:4157   */\n      0x20\n        /* \"#utility.yul\":4145:4151   */\n      dup7\n        /* \"#utility.yul\":4141:4158   */\n      add\n        /* \"#utility.yul\":4093:4172   */\n      tag_42\n      jump\t// in\n    tag_96:\n        /* \"#utility.yul\":4084:4172   */\n      swap2\n      pop\n        /* \"#utility.yul\":3900:4178   */\n      pop\n        /* \"#utility.yul\":3838:4178   */\n      swap3\n      swap2\n      pop\n      pop\n      jump\t// out\n        /* \"#utility.yul\":4184:4693   */\n    tag_18:\n        /* \"#utility.yul\":4253:4259   */\n      0x00\n        /* \"#utility.yul\":4302:4304   */\n      0x20\n        /* \"#utility.yul\":4290:4299   */\n      dup3\n        /* \"#utility.yul\":4281:4288   */\n      dup5\n        /* \"#utility.yul\":4277:4300   */\n      sub\n        /* \"#utility.yul\":4273:4305   */\n      slt\n        /* \"#utility.yul\":4270:4389   */\n      iszero\n      tag_98\n      jumpi\n        /* \"#utility.yul\":4308:4387   */\n      tag_99\n      tag_25\n      jump\t// in\n    tag_99:\n        /* \"#utility.yul\":4270:4389   */\n    tag_98:\n        /* \"#utility.yul\":4456:4457   */\n      0x00\n        /* \"#utility.yul\":4445:4454   */\n      dup3\n        /* \"#utility.yul\":4441:4458   */\n      add\n        /* \"#utility.yul\":4428:4459   */\n      calldataload\n        /* \"#utility.yul\":4486:4504   */\n      0xffffffffffffffff\n        /* \"#utility.yul\":4478:4484   */\n      dup2\n        /* \"#utility.yul\":4475:4505   */\n      gt\n        /* \"#utility.yul\":4472:4589   */\n      iszero\n      tag_100\n      jumpi\n        /* \"#utility.yul\":4508:4587   */\n      tag_101\n      tag_26\n      jump\t// in\n    tag_101:\n        /* \"#utility.yul\":4472:4589   */\n    tag_100:\n        /* \"#utility.yul\":4613:4676   */\n      tag_102\n        /* \"#utility.yul\":4668:4675   */\n      dup5\n        /* \"#utility.yul\":4659:4665   */\n      dup3\n        /* \"#utility.yul\":4648:4657   */\n      dup6\n        /* \"#utility.yul\":4644:4666   */\n      add\n        /* \"#utility.yul\":4613:4676   */\n      tag_43\n      jump\t// in\n    tag_102:\n        /* \"#utility.yul\":4603:4676   */\n      swap2\n      pop\n        /* \"#utility.yul\":4399:4686   */\n      pop\n        /* \"#utility.yul\":4184:4693   */\n      swap3\n      swap2\n      pop\n      pop\n      jump\t// out\n        /* \"#utility.yul\":4699:4789   */\n    tag_44:\n        /* \"#utility.yul\":4733:4740   */\n      0x00\n        /* \"#utility.yul\":4776:4781   */\n      dup2\n        /* \"#utility.yul\":4769:4782   */\n      iszero\n        /* \"#utility.yul\":4762:4783   */\n      iszero\n        /* \"#utility.yul\":4751:4783   */\n      swap1\n      pop\n        /* \"#utility.yul\":4699:4789   */\n      swap2\n      swap1\n      pop\n      jump\t// out\n        /* \"#utility.yul\":4795:4904   */\n    tag_45:\n        /* \"#utility.yul\":4876:4897   */\n      tag_105\n        /* \"#utility.yul\":4891:4896   */\n      dup2\n        /* \"#utility.yul\":4876:4897   */\n      tag_44\n      jump\t// in\n    tag_105:\n        /* \"#utility.yul\":4871:4874   */\n      dup3\n        /* \"#utility.yul\":4864:4898   */\n      mstore\n        /* \"#utility.yul\":4795:4904   */\n      pop\n      pop\n      jump\t// out\n        /* \"#utility.yul\":4910:5120   */\n    tag_21:\n        /* \"#utility.yul\":4997:5001   */\n      0x00\n        /* \"#utility.yul\":5035:5037   */\n      0x20\n        /* \"#utility.yul\":5024:5033   */\n      dup3\n        /* \"#utility.yul\":5020:5038   */\n      add\n        /* \"#utility.yul\":5012:5038   */\n      swap1\n      pop\n        /* \"#utility.yul\":5048:5113   */\n      tag_107\n        /* \"#utility.yul\":5110:5111   */\n      0x00\n        /* \"#utility.yul\":5099:5108   */\n      dup4\n        /* \"#utility.yul\":5095:5112   */\n      add\n        /* \"#utility.yul\":5086:5092   */\n      dup5\n        /* \"#utility.yul\":5048:5113   */\n      tag_45\n      jump\t// in\n    tag_107:\n        /* \"#utility.yul\":4910:5120   */\n      swap3\n      swap2\n      pop\n      pop\n      jump\t// out\n\n    auxdata: 0xa2646970667358221220cdc48fc0208ee8fde4470eedb301e2d9f9ac49fd2f45a7c76dbe4fbb014d159a64736f6c634300081a0033\n}\n",
				"bytecode": {
					"linkReferences": {},
					"object": "608060405234801561000f575f80fd5b5060405161075e38038061075e833981810160405281019061003191906102e6565b8160019080519060200190610047929190610056565b50806002819055505050610340565b828054828255905f5260205f209081019282156100cc579160200282015b828111156100cb578251825f6101000a81548173ffffffffffffffffffffffffffffffffffffffff021916908373ffffffffffffffffffffffffffffffffffffffff16021790555091602001919060010190610074565b5b5090506100d991906100dd565b5090565b5b808211156100f4575f815f9055506001016100de565b5090565b5f604051905090565b5f80fd5b5f80fd5b5f80fd5b5f601f19601f8301169050919050565b7f4e487b71000000000000000000000000000000000000000000000000000000005f52604160045260245ffd5b6101538261010d565b810181811067ffffffffffffffff821117156101725761017161011d565b5b80604052505050565b5f6101846100f8565b9050610190828261014a565b919050565b5f67ffffffffffffffff8211156101af576101ae61011d565b5b602082029050602081019050919050565b5f80fd5b5f73ffffffffffffffffffffffffffffffffffffffff82169050919050565b5f6101ed826101c4565b9050919050565b6101fd816101e3565b8114610207575f80fd5b50565b5f81519050610218816101f4565b92915050565b5f61023061022b84610195565b61017b565b90508083825260208201905060208402830185811115610253576102526101c0565b5b835b8181101561027c5780610268888261020a565b845260208401935050602081019050610255565b5050509392505050565b5f82601f83011261029a57610299610109565b5b81516102aa84826020860161021e565b91505092915050565b5f819050919050565b6102c5816102b3565b81146102cf575f80fd5b50565b5f815190506102e0816102bc565b92915050565b5f80604083850312156102fc576102fb610101565b5b5f83015167ffffffffffffffff81111561031957610318610105565b5b61032585828601610286565b9250506020610336858286016102d2565b9150509250929050565b6104118061034d5f395ff3fe608060405234801561000f575f80fd5b506004361061003f575f3560e01c806335aa2e44146100435780638d068043146100735780639ea3284414610091575b5f80fd5b61005d6004803603810190610058919061017a565b6100c1565b60405161006a91906101e4565b60405180910390f35b61007b6100fc565b604051610088919061020c565b60405180910390f35b6100ab60048036038101906100a69190610361565b610102565b6040516100b891906103c2565b60405180910390f35b600181815481106100d0575f80fd5b905f5260205f20015f915054906101000a900473ffffffffffffffffffffffffffffffffffffffff1681565b60025481565b5f818051602081018201805184825260208301602085012081835280955050505050505f915054906101000a900460ff1681565b5f604051905090565b5f80fd5b5f80fd5b5f819050919050565b61015981610147565b8114610163575f80fd5b50565b5f8135905061017481610150565b92915050565b5f6020828403121561018f5761018e61013f565b5b5f61019c84828501610166565b91505092915050565b5f73ffffffffffffffffffffffffffffffffffffffff82169050919050565b5f6101ce826101a5565b9050919050565b6101de816101c4565b82525050565b5f6020820190506101f75f8301846101d5565b92915050565b61020681610147565b82525050565b5f60208201905061021f5f8301846101fd565b92915050565b5f80fd5b5f80fd5b5f601f19601f8301169050919050565b7f4e487b71000000000000000000000000000000000000000000000000000000005f52604160045260245ffd5b6102738261022d565b810181811067ffffffffffffffff821117156102925761029161023d565b5b80604052505050565b5f6102a4610136565b90506102b0828261026a565b919050565b5f67ffffffffffffffff8211156102cf576102ce61023d565b5b6102d88261022d565b9050602081019050919050565b828183375f83830152505050565b5f610305610300846102b5565b61029b565b90508281526020810184848401111561032157610320610229565b5b61032c8482856102e5565b509392505050565b5f82601f83011261034857610347610225565b5b81356103588482602086016102f3565b91505092915050565b5f602082840312156103765761037561013f565b5b5f82013567ffffffffffffffff81111561039357610392610143565b5b61039f84828501610334565b91505092915050565b5f8115159050919050565b6103bc816103a8565b82525050565b5f6020820190506103d55f8301846103b3565b9291505056fea2646970667358221220cdc48fc0208ee8fde4470eedb301e2d9f9ac49fd2f45a7c76dbe4fbb014d159a64736f6c634300081a0033",
					"opcodes": "PUSH1 0x80 PUSH1 0x40 MSTORE CALLVALUE DUP1 ISZERO PUSH2 0xF JUMPI PUSH0 DUP1 REVERT JUMPDEST POP PUSH1 0x40 MLOAD PUSH2 0x75E CODESIZE SUB DUP1 PUSH2 0x75E DUP4 CODECOPY DUP2 DUP2 ADD PUSH1 0x40 MSTORE DUP2 ADD SWAP1 PUSH2 0x31 SWAP2 SWAP1 PUSH2 0x2E6 JUMP JUMPDEST DUP2 PUSH1 0x1 SWAP1 DUP1 MLOAD SWAP1 PUSH1 0x20 ADD SWAP1 PUSH2 0x47 SWAP3 SWAP2 SWAP1 PUSH2 0x56 JUMP JUMPDEST POP DUP1 PUSH1 0x2 DUP2 SWAP1 SSTORE POP POP POP PUSH2 0x340 JUMP JUMPDEST DUP3 DUP1 SLOAD DUP3 DUP3 SSTORE SWAP1 PUSH0 MSTORE PUSH1 0x20 PUSH0 KECCAK256 SWAP1 DUP2 ADD SWAP3 DUP3 ISZERO PUSH2 0xCC JUMPI SWAP2 PUSH1 0x20 MUL DUP3 ADD JUMPDEST DUP3 DUP2 GT ISZERO PUSH2 0xCB JUMPI DUP3 MLOAD DUP3 PUSH0 PUSH2 0x100 EXP DUP2 SLOAD DUP2 PUSH20 0xFFFFFFFFFFFFFFFFFFFFFFFFFFFFFFFFFFFFFFFF MUL NOT AND SWAP1 DUP4 PUSH20 0xFFFFFFFFFFFFFFFFFFFFFFFFFFFFFFFFFFFFFFFF AND MUL OR SWAP1 SSTORE POP SWAP2 PUSH1 0x20 ADD SWAP2 SWAP1 PUSH1 0x1 ADD SWAP1 PUSH2 0x74 JUMP JUMPDEST JUMPDEST POP SWAP1 POP PUSH2 0xD9 SWAP2 SWAP1 PUSH2 0xDD JUMP JUMPDEST POP SWAP1 JUMP JUMPDEST JUMPDEST DUP1 DUP3 GT ISZERO PUSH2 0xF4 JUMPI PUSH0 DUP2 PUSH0 SWAP1 SSTORE POP PUSH1 0x1 ADD PUSH2 0xDE JUMP JUMPDEST POP SWAP1 JUMP JUMPDEST PUSH0 PUSH1 0x40 MLOAD SWAP1 POP SWAP1 JUMP JUMPDEST PUSH0 DUP1 REVERT JUMPDEST PUSH0 DUP1 REVERT JUMPDEST PUSH0 DUP1 REVERT JUMPDEST PUSH0 PUSH1 0x1F NOT PUSH1 0x1F DUP4 ADD AND SWAP1 POP SWAP2 SWAP1 POP JUMP JUMPDEST PUSH32 0x4E487B7100000000000000000000000000000000000000000000000000000000 PUSH0 MSTORE PUSH1 0x41 PUSH1 0x4 MSTORE PUSH1 0x24 PUSH0 REVERT JUMPDEST PUSH2 0x153 DUP3 PUSH2 0x10D JUMP JUMPDEST DUP2 ADD DUP2 DUP2 LT PUSH8 0xFFFFFFFFFFFFFFFF DUP3 GT OR ISZERO PUSH2 0x172 JUMPI PUSH2 0x171 PUSH2 0x11D JUMP JUMPDEST JUMPDEST DUP1 PUSH1 0x40 MSTORE POP POP POP JUMP JUMPDEST PUSH0 PUSH2 0x184 PUSH2 0xF8 JUMP JUMPDEST SWAP1 POP PUSH2 0x190 DUP3 DUP3 PUSH2 0x14A JUMP JUMPDEST SWAP2 SWAP1 POP JUMP JUMPDEST PUSH0 PUSH8 0xFFFFFFFFFFFFFFFF DUP3 GT ISZERO PUSH2 0x1AF JUMPI PUSH2 0x1AE PUSH2 0x11D JUMP JUMPDEST JUMPDEST PUSH1 0x20 DUP3 MUL SWAP1 POP PUSH1 0x20 DUP2 ADD SWAP1 POP SWAP2 SWAP1 POP JUMP JUMPDEST PUSH0 DUP1 REVERT JUMPDEST PUSH0 PUSH20 0xFFFFFFFFFFFFFFFFFFFFFFFFFFFFFFFFFFFFFFFF DUP3 AND SWAP1 POP SWAP2 SWAP1 POP JUMP JUMPDEST PUSH0 PUSH2 0x1ED DUP3 PUSH2 0x1C4 JUMP JUMPDEST SWAP1 POP SWAP2 SWAP1 POP JUMP JUMPDEST PUSH2 0x1FD DUP2 PUSH2 0x1E3 JUMP JUMPDEST DUP2 EQ PUSH2 0x207 JUMPI PUSH0 DUP1 REVERT JUMPDEST POP JUMP JUMPDEST PUSH0 DUP2 MLOAD SWAP1 POP PUSH2 0x218 DUP2 PUSH2 0x1F4 JUMP JUMPDEST SWAP3 SWAP2 POP POP JUMP JUMPDEST PUSH0 PUSH2 0x230 PUSH2 0x22B DUP5 PUSH2 0x195 JUMP JUMPDEST PUSH2 0x17B JUMP JUMPDEST SWAP1 POP DUP1 DUP4 DUP3 MSTORE PUSH1 0x20 DUP3 ADD SWAP1 POP PUSH1 0x20 DUP5 MUL DUP4 ADD DUP6 DUP2 GT ISZERO PUSH2 0x253 JUMPI PUSH2 0x252 PUSH2 0x1C0 JUMP JUMPDEST JUMPDEST DUP4 JUMPDEST DUP2 DUP2 LT ISZERO PUSH2 0x27C JUMPI DUP1 PUSH2 0x268 DUP9 DUP3 PUSH2 0x20A JUMP JUMPDEST DUP5 MSTORE PUSH1 0x20 DUP5 ADD SWAP4 POP POP PUSH1 0x20 DUP2 ADD SWAP1 POP PUSH2 0x255 JUMP JUMPDEST POP POP POP SWAP4 SWAP3 POP POP POP JUMP JUMPDEST PUSH0 DUP3 PUSH1 0x1F DUP4 ADD SLT PUSH2 0x29A JUMPI PUSH2 0x299 PUSH2 0x109 JUMP JUMPDEST JUMPDEST DUP2 MLOAD PUSH2 0x2AA DUP5 DUP3 PUSH1 0x20 DUP7 ADD PUSH2 0x21E JUMP JUMPDEST SWAP2 POP POP SWAP3 SWAP2 POP POP JUMP JUMPDEST PUSH0 DUP2 SWAP1 POP SWAP2 SWAP1 POP JUMP JUMPDEST PUSH2 0x2C5 DUP2 PUSH2 0x2B3 JUMP JUMPDEST DUP2 EQ PUSH2 0x2CF JUMPI PUSH0 DUP1 REVERT JUMPDEST POP JUMP JUMPDEST PUSH0 DUP2 MLOAD SWAP1 POP PUSH2 0x2E0 DUP2 PUSH2 0x2BC JUMP JUMPDEST SWAP3 SWAP2 POP POP JUMP JUMPDEST PUSH0 DUP1 PUSH1 0x40 DUP4 DUP6 SUB SLT ISZERO PUSH2 0x2FC JUMPI PUSH2 0x2FB PUSH2 0x101 JUMP JUMPDEST JUMPDEST PUSH0 DUP4 ADD MLOAD PUSH8 0xFFFFFFFFFFFFFFFF DUP2 GT ISZERO PUSH2 0x319 JUMPI PUSH2 0x318 PUSH2 0x105 JUMP JUMPDEST JUMPDEST PUSH2 0x325 DUP6 DUP3 DUP7 ADD PUSH2 0x286 JUMP JUMPDEST SWAP3 POP POP PUSH1 0x20 PUSH2 0x336 DUP6 DUP3 DUP7 ADD PUSH2 0x2D2 JUMP JUMPDEST SWAP2 POP POP SWAP3 POP SWAP3 SWAP1 POP JUMP JUMPDEST PUSH2 0x411 DUP1 PUSH2 0x34D PUSH0 CODECOPY PUSH0 RETURN INVALID PUSH1 0x80 PUSH1 0x40 MSTORE CALLVALUE DUP1 ISZERO PUSH2 0xF JUMPI PUSH0 DUP1 REVERT JUMPDEST POP PUSH1 0x4 CALLDATASIZE LT PUSH2 0x3F JUMPI PUSH0 CALLDATALOAD PUSH1 0xE0 SHR DUP1 PUSH4 0x35AA2E44 EQ PUSH2 0x43 JUMPI DUP1 PUSH4 0x8D068043 EQ PUSH2 0x73 JUMPI DUP1 PUSH4 0x9EA32844 EQ PUSH2 0x91 JUMPI JUMPDEST PUSH0 DUP1 REVERT JUMPDEST PUSH2 0x5D PUSH1 0x4 DUP1 CALLDATASIZE SUB DUP2 ADD SWAP1 PUSH2 0x58 SWAP2 SWAP1 PUSH2 0x17A JUMP JUMPDEST PUSH2 0xC1 JUMP JUMPDEST PUSH1 0x40 MLOAD PUSH2 0x6A SWAP2 SWAP1 PUSH2 0x1E4 JUMP JUMPDEST PUSH1 0x40 MLOAD DUP1 SWAP2 SUB SWAP1 RETURN JUMPDEST PUSH2 0x7B PUSH2 0xFC JUMP JUMPDEST PUSH1 0x40 MLOAD PUSH2 0x88 SWAP2 SWAP1 PUSH2 0x20C JUMP JUMPDEST PUSH1 0x40 MLOAD DUP1 SWAP2 SUB SWAP1 RETURN JUMPDEST PUSH2 0xAB PUSH1 0x4 DUP1 CALLDATASIZE SUB DUP2 ADD SWAP1 PUSH2 0xA6 SWAP2 SWAP1 PUSH2 0x361 JUMP JUMPDEST PUSH2 0x102 JUMP JUMPDEST PUSH1 0x40 MLOAD PUSH2 0xB8 SWAP2 SWAP1 PUSH2 0x3C2 JUMP JUMPDEST PUSH1 0x40 MLOAD DUP1 SWAP2 SUB SWAP1 RETURN JUMPDEST PUSH1 0x1 DUP2 DUP2 SLOAD DUP2 LT PUSH2 0xD0 JUMPI PUSH0 DUP1 REVERT JUMPDEST SWAP1 PUSH0 MSTORE PUSH1 0x20 PUSH0 KECCAK256 ADD PUSH0 SWAP2 POP SLOAD SWAP1 PUSH2 0x100 EXP SWAP1 DIV PUSH20 0xFFFFFFFFFFFFFFFFFFFFFFFFFFFFFFFFFFFFFFFF AND DUP2 JUMP JUMPDEST PUSH1 0x2 SLOAD DUP2 JUMP JUMPDEST PUSH0 DUP2 DUP1 MLOAD PUSH1 0x20 DUP2 ADD DUP3 ADD DUP1 MLOAD DUP5 DUP3 MSTORE PUSH1 0x20 DUP4 ADD PUSH1 0x20 DUP6 ADD KECCAK256 DUP2 DUP4 MSTORE DUP1 SWAP6 POP POP POP POP POP POP PUSH0 SWAP2 POP SLOAD SWAP1 PUSH2 0x100 EXP SWAP1 DIV PUSH1 0xFF AND DUP2 JUMP JUMPDEST PUSH0 PUSH1 0x40 MLOAD SWAP1 POP SWAP1 JUMP JUMPDEST PUSH0 DUP1 REVERT JUMPDEST PUSH0 DUP1 REVERT JUMPDEST PUSH0 DUP2 SWAP1 POP SWAP2 SWAP1 POP JUMP JUMPDEST PUSH2 0x159 DUP2 PUSH2 0x147 JUMP JUMPDEST DUP2 EQ PUSH2 0x163 JUMPI PUSH0 DUP1 REVERT JUMPDEST POP JUMP JUMPDEST PUSH0 DUP2 CALLDATALOAD SWAP1 POP PUSH2 0x174 DUP2 PUSH2 0x150 JUMP JUMPDEST SWAP3 SWAP2 POP POP JUMP JUMPDEST PUSH0 PUSH1 0x20 DUP3 DUP5 SUB SLT ISZERO PUSH2 0x18F JUMPI PUSH2 0x18E PUSH2 0x13F JUMP JUMPDEST JUMPDEST PUSH0 PUSH2 0x19C DUP5 DUP3 DUP6 ADD PUSH2 0x166 JUMP JUMPDEST SWAP2 POP POP SWAP3 SWAP2 POP POP JUMP JUMPDEST PUSH0 PUSH20 0xFFFFFFFFFFFFFFFFFFFFFFFFFFFFFFFFFFFFFFFF DUP3 AND SWAP1 POP SWAP2 SWAP1 POP JUMP JUMPDEST PUSH0 PUSH2 0x1CE DUP3 PUSH2 0x1A5 JUMP JUMPDEST SWAP1 POP SWAP2 SWAP1 POP JUMP JUMPDEST PUSH2 0x1DE DUP2 PUSH2 0x1C4 JUMP JUMPDEST DUP3 MSTORE POP POP JUMP JUMPDEST PUSH0 PUSH1 0x20 DUP3 ADD SWAP1 POP PUSH2 0x1F7 PUSH0 DUP4 ADD DUP5 PUSH2 0x1D5 JUMP JUMPDEST SWAP3 SWAP2 POP POP JUMP JUMPDEST PUSH2 0x206 DUP2 PUSH2 0x147 JUMP JUMPDEST DUP3 MSTORE POP POP JUMP JUMPDEST PUSH0 PUSH1 0x20 DUP3 ADD SWAP1 POP PUSH2 0x21F PUSH0 DUP4 ADD DUP5 PUSH2 0x1FD JUMP JUMPDEST SWAP3 SWAP2 POP POP JUMP JUMPDEST PUSH0 DUP1 REVERT JUMPDEST PUSH0 DUP1 REVERT JUMPDEST PUSH0 PUSH1 0x1F NOT PUSH1 0x1F DUP4 ADD AND SWAP1 POP SWAP2 SWAP1 POP JUMP JUMPDEST PUSH32 0x4E487B7100000000000000000000000000000000000000000000000000000000 PUSH0 MSTORE PUSH1 0x41 PUSH1 0x4 MSTORE PUSH1 0x24 PUSH0 REVERT JUMPDEST PUSH2 0x273 DUP3 PUSH2 0x22D JUMP JUMPDEST DUP2 ADD DUP2 DUP2 LT PUSH8 0xFFFFFFFFFFFFFFFF DUP3 GT OR ISZERO PUSH2 0x292 JUMPI PUSH2 0x291 PUSH2 0x23D JUMP JUMPDEST JUMPDEST DUP1 PUSH1 0x40 MSTORE POP POP POP JUMP JUMPDEST PUSH0 PUSH2 0x2A4 PUSH2 0x136 JUMP JUMPDEST SWAP1 POP PUSH2 0x2B0 DUP3 DUP3 PUSH2 0x26A JUMP JUMPDEST SWAP2 SWAP1 POP JUMP JUMPDEST PUSH0 PUSH8 0xFFFFFFFFFFFFFFFF DUP3 GT ISZERO PUSH2 0x2CF JUMPI PUSH2 0x2CE PUSH2 0x23D JUMP JUMPDEST JUMPDEST PUSH2 0x2D8 DUP3 PUSH2 0x22D JUMP JUMPDEST SWAP1 POP PUSH1 0x20 DUP2 ADD SWAP1 POP SWAP2 SWAP1 POP JUMP JUMPDEST DUP3 DUP2 DUP4 CALLDATACOPY PUSH0 DUP4 DUP4 ADD MSTORE POP POP POP JUMP JUMPDEST PUSH0 PUSH2 0x305 PUSH2 0x300 DUP5 PUSH2 0x2B5 JUMP JUMPDEST PUSH2 0x29B JUMP JUMPDEST SWAP1 POP DUP3 DUP2 MSTORE PUSH1 0x20 DUP2 ADD DUP5 DUP5 DUP5 ADD GT ISZERO PUSH2 0x321 JUMPI PUSH2 0x320 PUSH2 0x229 JUMP JUMPDEST JUMPDEST PUSH2 0x32C DUP5 DUP3 DUP6 PUSH2 0x2E5 JUMP JUMPDEST POP SWAP4 SWAP3 POP POP POP JUMP JUMPDEST PUSH0 DUP3 PUSH1 0x1F DUP4 ADD SLT PUSH2 0x348 JUMPI PUSH2 0x347 PUSH2 0x225 JUMP JUMPDEST JUMPDEST DUP2 CALLDATALOAD PUSH2 0x358 DUP5 DUP3 PUSH1 0x20 DUP7 ADD PUSH2 0x2F3 JUMP JUMPDEST SWAP2 POP POP SWAP3 SWAP2 POP POP JUMP JUMPDEST PUSH0 PUSH1 0x20 DUP3 DUP5 SUB SLT ISZERO PUSH2 0x376 JUMPI PUSH2 0x375 PUSH2 0x13F JUMP JUMPDEST JUMPDEST PUSH0 DUP3 ADD CALLDATALOAD PUSH8 0xFFFFFFFFFFFFFFFF DUP2 GT ISZERO PUSH2 0x393 JUMPI PUSH2 0x392 PUSH2 0x143 JUMP JUMPDEST JUMPDEST PUSH2 0x39F DUP5 DUP3 DUP6 ADD PUSH2 0x334 JUMP JUMPDEST SWAP2 POP POP SWAP3 SWAP2 POP POP JUMP JUMPDEST PUSH0 DUP2 ISZERO ISZERO SWAP1 POP SWAP2 SWAP1 POP JUMP JUMPDEST PUSH2 0x3BC DUP2 PUSH2 0x3A8 JUMP JUMPDEST DUP3 MSTORE POP POP JUMP JUMPDEST PUSH0 PUSH1 0x20 DUP3 ADD SWAP1 POP PUSH2 0x3D5 PUSH0 DUP4 ADD DUP5 PUSH2 0x3B3 JUMP JUMPDEST SWAP3 SWAP2 POP POP JUMP INVALID LOG2 PUSH5 0x6970667358 0x22 SLT KECCAK256 0xCD 0xC4 DUP16 0xC0 KECCAK256 DUP15 0xE8 REVERT 0xE4 SELFBALANCE 0xE 0xED 0xB3 ADD 0xE2 0xD9 0xF9 0xAC BLOBHASH REVERT 0x2F GASLIMIT 0xA7 0xC7 PUSH14 0xBE4FBB014D159A64736F6C634300 ADDMOD BYTE STOP CALLER "
				},
				"gasEstimates": {
					"creation": {
						"codeDepositCost": "208200",
						"executionCost": "infinite",
						"totalCost": "infinite"
					},
					"external": {
						"processedTransactions(string)": "infinite",
						"requiredSignatures()": "2425",
						"validators(uint256)": "4922"
					},
					"internal": {
						"isValidator(address)": "infinite",
						"recoverSigner(bytes32,bytes32)": "infinite",
						"transferCrossChain(address,uint256,uint256,bytes32[] memory)": "infinite"
					}
				},
				"methodIdentifiers": {
					"processedTransactions(string)": "9ea32844",
					"requiredSignatures()": "8d068043",
					"validators(uint256)": "35aa2e44"
				}
			},
			"storageLayout": {
				"storage": [
					{
						"astId": 5,
						"contract": "security/Cross-Chain Security/SimpleBridge.sol:SimpleBridge",
						"label": "processedTransactions",
						"offset": 0,
						"slot": "0",
						"type": "t_mapping(t_string_memory_ptr,t_bool)"
					},
					{
						"astId": 8,
						"contract": "security/Cross-Chain Security/SimpleBridge.sol:SimpleBridge",
						"label": "validators",
						"offset": 0,
						"slot": "1",
						"type": "t_array(t_address)dyn_storage"
					},
					{
						"astId": 10,
						"contract": "security/Cross-Chain Security/SimpleBridge.sol:SimpleBridge",
						"label": "requiredSignatures",
						"offset": 0,
						"slot": "2",
						"type": "t_uint256"
					}
				],
				"types": {
					"t_address": {
						"encoding": "inplace",
						"label": "address",
						"numberOfBytes": "20"
					},
					"t_array(t_address)dyn_storage": {
						"base": "t_address",
						"encoding": "dynamic_array",
						"label": "address[]",
						"numberOfBytes": "32"
					},
					"t_bool": {
						"encoding": "inplace",
						"label": "bool",
						"numberOfBytes": "1"
					},
					"t_mapping(t_string_memory_ptr,t_bool)": {
						"encoding": "mapping",
						"key": "t_string_memory_ptr",
						"label": "mapping(string => bool)",
						"numberOfBytes": "32",
						"value": "t_bool"
					},
					"t_string_memory_ptr": {
						"encoding": "bytes",
						"label": "string",
						"numberOfBytes": "32"
					},
					"t_uint256": {
						"encoding": "inplace",
						"label": "uint256",
						"numberOfBytes": "32"
					}
				}
			},
			"userdoc": {
				"kind": "user",
				"methods": {},
				"version": 1
			}
		}
	}
}