{
	"data": {
		"bytecode": {
			"linkReferences": {},
			"object": "6080604052348015600e575f80fd5b506103d98061001c5f395ff3fe608060405234801561000f575f80fd5b506004361061003f575f3560e01c80633fa4f24514610043578063d09de08a14610061578063fe4b84df1461006b575b5f80fd5b61004b610087565b6040516100589190610263565b60405180910390f35b61006961008c565b005b610085600480360381019061008091906102aa565b6100a6565b005b5f5481565b60015f8082825461009d9190610302565b92505081905550565b5f6100af610224565b90505f815f0160089054906101000a900460ff161590505f825f015f9054906101000a900467ffffffffffffffff1690505f808267ffffffffffffffff161480156100f75750825b90505f60018367ffffffffffffffff1614801561012a57505f3073ffffffffffffffffffffffffffffffffffffffff163b145b905081158015610138575080155b1561016f576040517ff92ee8a900000000000000000000000000000000000000000000000000000000815260040160405180910390fd5b6001855f015f6101000a81548167ffffffffffffffff021916908367ffffffffffffffff16021790555083156101bc576001855f0160086101000a81548160ff0219169083151502179055505b855f81905550831561021c575f855f0160086101000a81548160ff0219169083151502179055507fc7f505b2f371ae2175ee4913f4499e1f2633a7b5936321eed1cdaeb6115181d26001604051610213919061038a565b60405180910390a15b505050505050565b5f7ff0c57e16840df040f15088dc2f81fe391c3923bec73e23a9662efc9c229c6a00905090565b5f819050919050565b61025d8161024b565b82525050565b5f6020820190506102765f830184610254565b92915050565b5f80fd5b6102898161024b565b8114610293575f80fd5b50565b5f813590506102a481610280565b92915050565b5f602082840312156102bf576102be61027c565b5b5f6102cc84828501610296565b91505092915050565b7f4e487b71000000000000000000000000000000000000000000000000000000005f52601160045260245ffd5b5f61030c8261024b565b91506103178361024b565b925082820190508082111561032f5761032e6102d5565b5b92915050565b5f819050919050565b5f67ffffffffffffffff82169050919050565b5f819050919050565b5f61037461036f61036a84610335565b610351565b61033e565b9050919050565b6103848161035a565b82525050565b5f60208201905061039d5f83018461037b565b9291505056fea2646970667358221220558d71ce8e91f3031d545a81df26179e6a418c7196ec401e1c87912b70af40bd64736f6c634300081a0033",
			"opcodes": "PUSH1 0x80 PUSH1 0x40 MSTORE CALLVALUE DUP1 ISZERO PUSH1 0xE JUMPI PUSH0 DUP1 REVERT JUMPDEST POP PUSH2 0x3D9 DUP1 PUSH2 0x1C PUSH0 CODECOPY PUSH0 RETURN INVALID PUSH1 0x80 PUSH1 0x40 MSTORE CALLVALUE DUP1 ISZERO PUSH2 0xF JUMPI PUSH0 DUP1 REVERT JUMPDEST POP PUSH1 0x4 CALLDATASIZE LT PUSH2 0x3F JUMPI PUSH0 CALLDATALOAD PUSH1 0xE0 SHR DUP1 PUSH4 0x3FA4F245 EQ PUSH2 0x43 JUMPI DUP1 PUSH4 0xD09DE08A EQ PUSH2 0x61 JUMPI DUP1 PUSH4 0xFE4B84DF EQ PUSH2 0x6B JUMPI JUMPDEST PUSH0 DUP1 REVERT JUMPDEST PUSH2 0x4B PUSH2 0x87 JUMP JUMPDEST PUSH1 0x40 MLOAD PUSH2 0x58 SWAP2 SWAP1 PUSH2 0x263 JUMP JUMPDEST PUSH1 0x40 MLOAD DUP1 SWAP2 SUB SWAP1 RETURN JUMPDEST PUSH2 0x69 PUSH2 0x8C JUMP JUMPDEST STOP JUMPDEST PUSH2 0x85 PUSH1 0x4 DUP1 CALLDATASIZE SUB DUP2 ADD SWAP1 PUSH2 0x80 SWAP2 SWAP1 PUSH2 0x2AA JUMP JUMPDEST PUSH2 0xA6 JUMP JUMPDEST STOP JUMPDEST PUSH0 SLOAD DUP2 JUMP JUMPDEST PUSH1 0x1 PUSH0 DUP1 DUP3 DUP3 SLOAD PUSH2 0x9D SWAP2 SWAP1 PUSH2 0x302 JUMP JUMPDEST SWAP3 POP POP DUP2 SWAP1 SSTORE POP JUMP JUMPDEST PUSH0 PUSH2 0xAF PUSH2 0x224 JUMP JUMPDEST SWAP1 POP PUSH0 DUP2 PUSH0 ADD PUSH1 0x8 SWAP1 SLOAD SWAP1 PUSH2 0x100 EXP SWAP1 DIV PUSH1 0xFF AND ISZERO SWAP1 POP PUSH0 DUP3 PUSH0 ADD PUSH0 SWAP1 SLOAD SWAP1 PUSH2 0x100 EXP SWAP1 DIV PUSH8 0xFFFFFFFFFFFFFFFF AND SWAP1 POP PUSH0 DUP1 DUP3 PUSH8 0xFFFFFFFFFFFFFFFF AND EQ DUP1 ISZERO PUSH2 0xF7 JUMPI POP DUP3 JUMPDEST SWAP1 POP PUSH0 PUSH1 0x1 DUP4 PUSH8 0xFFFFFFFFFFFFFFFF AND EQ DUP1 ISZERO PUSH2 0x12A JUMPI POP PUSH0 ADDRESS PUSH20 0xFFFFFFFFFFFFFFFFFFFFFFFFFFFFFFFFFFFFFFFF AND EXTCODESIZE EQ JUMPDEST SWAP1 POP DUP2 ISZERO DUP1 ISZERO PUSH2 0x138 JUMPI POP DUP1 ISZERO JUMPDEST ISZERO PUSH2 0x16F JUMPI PUSH1 0x40 MLOAD PUSH32 0xF92EE8A900000000000000000000000000000000000000000000000000000000 DUP2 MSTORE PUSH1 0x4 ADD PUSH1 0x40 MLOAD DUP1 SWAP2 SUB SWAP1 REVERT JUMPDEST PUSH1 0x1 DUP6 PUSH0 ADD PUSH0 PUSH2 0x100 EXP DUP2 SLOAD DUP2 PUSH8 0xFFFFFFFFFFFFFFFF MUL NOT AND SWAP1 DUP4 PUSH8 0xFFFFFFFFFFFFFFFF AND MUL OR SWAP1 SSTORE POP DUP4 ISZERO PUSH2 0x1BC JUMPI PUSH1 0x1 DUP6 PUSH0 ADD PUSH1 0x8 PUSH2 0x100 EXP DUP2 SLOAD DUP2 PUSH1 0xFF MUL NOT AND SWAP1 DUP4 ISZERO ISZERO MUL OR SWAP1 SSTORE POP JUMPDEST DUP6 PUSH0 DUP2 SWAP1 SSTORE POP DUP4 ISZERO PUSH2 0x21C JUMPI PUSH0 DUP6 PUSH0 ADD PUSH1 0x8 PUSH2 0x100 EXP DUP2 SLOAD DUP2 PUSH1 0xFF MUL NOT AND SWAP1 DUP4 ISZERO ISZERO MUL OR SWAP1 SSTORE POP PUSH32 0xC7F505B2F371AE2175EE4913F4499E1F2633A7B5936321EED1CDAEB6115181D2 PUSH1 0x1 PUSH1 0x40 MLOAD PUSH2 0x213 SWAP2 SWAP1 PUSH2 0x38A JUMP JUMPDEST PUSH1 0x40 MLOAD DUP1 SWAP2 SUB SWAP1 LOG1 JUMPDEST POP POP POP POP POP POP JUMP JUMPDEST PUSH0 PUSH32 0xF0C57E16840DF040F15088DC2F81FE391C3923BEC73E23A9662EFC9C229C6A00 SWAP1 POP SWAP1 JUMP JUMPDEST PUSH0 DUP2 SWAP1 POP SWAP2 SWAP1 POP JUMP JUMPDEST PUSH2 0x25D DUP2 PUSH2 0x24B JUMP JUMPDEST DUP3 MSTORE POP POP JUMP JUMPDEST PUSH0 PUSH1 0x20 DUP3 ADD SWAP1 POP PUSH2 0x276 PUSH0 DUP4 ADD DUP5 PUSH2 0x254 JUMP JUMPDEST SWAP3 SWAP2 POP POP JUMP JUMPDEST PUSH0 DUP1 REVERT JUMPDEST PUSH2 0x289 DUP2 PUSH2 0x24B JUMP JUMPDEST DUP2 EQ PUSH2 0x293 JUMPI PUSH0 DUP1 REVERT JUMPDEST POP JUMP JUMPDEST PUSH0 DUP2 CALLDATALOAD SWAP1 POP PUSH2 0x2A4 DUP2 PUSH2 0x280 JUMP JUMPDEST SWAP3 SWAP2 POP POP JUMP JUMPDEST PUSH0 PUSH1 0x20 DUP3 DUP5 SUB SLT ISZERO PUSH2 0x2BF JUMPI PUSH2 0x2BE PUSH2 0x27C JUMP JUMPDEST JUMPDEST PUSH0 PUSH2 0x2CC DUP5 DUP3 DUP6 ADD PUSH2 0x296 JUMP JUMPDEST SWAP2 POP POP SWAP3 SWAP2 POP POP JUMP JUMPDEST PUSH32 0x4E487B7100000000000000000000000000000000000000000000000000000000 PUSH0 MSTORE PUSH1 0x11 PUSH1 0x4 MSTORE PUSH1 0x24 PUSH0 REVERT JUMPDEST PUSH0 PUSH2 0x30C DUP3 PUSH2 0x24B JUMP JUMPDEST SWAP2 POP PUSH2 0x317 DUP4 PUSH2 0x24B JUMP JUMPDEST SWAP3 POP DUP3 DUP3 ADD SWAP1 POP DUP1 DUP3 GT ISZERO PUSH2 0x32F JUMPI PUSH2 0x32E PUSH2 0x2D5 JUMP JUMPDEST JUMPDEST SWAP3 SWAP2 POP POP JUMP JUMPDEST PUSH0 DUP2 SWAP1 POP SWAP2 SWAP1 POP JUMP JUMPDEST PUSH0 PUSH8 0xFFFFFFFFFFFFFFFF DUP3 AND SWAP1 POP SWAP2 SWAP1 POP JUMP JUMPDEST PUSH0 DUP2 SWAP1 POP SWAP2 SWAP1 POP JUMP JUMPDEST PUSH0 PUSH2 0x374 PUSH2 0x36F PUSH2 0x36A DUP5 PUSH2 0x335 JUMP JUMPDEST PUSH2 0x351 JUMP JUMPDEST PUSH2 0x33E JUMP JUMPDEST SWAP1 POP SWAP2 SWAP1 POP JUMP JUMPDEST PUSH2 0x384 DUP2 PUSH2 0x35A JUMP JUMPDEST DUP3 MSTORE POP POP JUMP JUMPDEST PUSH0 PUSH1 0x20 DUP3 ADD SWAP1 POP PUSH2 0x39D PUSH0 DUP4 ADD DUP5 PUSH2 0x37B JUMP JUMPDEST SWAP3 SWAP2 POP POP JUMP INVALID LOG2 PUSH5 0x6970667358 0x22 SLT KECCAK256 SSTORE DUP14 PUSH18 0xCE8E91F3031D545A81DF26179E6A418C7196 0xEC BLOCKHASH 0x1E SHR DUP8 SWAP2 0x2B PUSH17 0xAF40BD64736F6C634300081A0033000000 "
		},
		"gasEstimates": {
			"creation": {
				"codeDepositCost": "197000",
				"executionCost": "236",
				"totalCost": "197236"
			},
			"external": {
				"increment()": "infinite",
				"initialize(uint256)": "103973",
				"value()": "2402"
			}
		},
		"methodIdentifiers": {
			"increment()": "d09de08a",
			"initialize(uint256)": "fe4b84df",
			"value()": "3fa4f245"
		}
	},
	"abi": [
		{
			"inputs": [],
			"name": "InvalidInitialization",
			"type": "error"
		},
		{
			"inputs": [],
			"name": "NotInitializing",
			"type": "error"
		},
		{
			"anonymous": false,
			"inputs": [
				{
					"indexed": false,
					"internalType": "uint64",
					"name": "version",
					"type": "uint64"
				}
			],
			"name": "Initialized",
			"type": "event"
		},
		{
			"inputs": [],
			"name": "increment",
			"outputs": [],
			"stateMutability": "nonpayable",
			"type": "function"
		},
		{
			"inputs": [
				{
					"internalType": "uint256",
					"name": "_value",
					"type": "uint256"
				}
			],
			"name": "initialize",
			"outputs": [],
			"stateMutability": "nonpayable",
			"type": "function"
		},
		{
			"inputs": [],
			"name": "value",
			"outputs": [
				{
					"internalType": "uint256",
					"name": "",
					"type": "uint256"
				}
			],
			"stateMutability": "view",
			"type": "function"
		}
	]
}