{
	"contracts/StateMachinePatter.sol": {
		"Escrow": {
			"abi": [
				{
					"inputs": [
						{
							"internalType": "address",
							"name": "_buyer",
							"type": "address"
						},
						{
							"internalType": "address",
							"name": "_seller",
							"type": "address"
						}
					],
					"stateMutability": "nonpayable",
					"type": "constructor"
				},
				{
					"inputs": [],
					"name": "buyer",
					"outputs": [
						{
							"internalType": "address",
							"name": "",
							"type": "address"
						}
					],
					"stateMutability": "view",
					"type": "function"
				},
				{
					"inputs": [],
					"name": "confirmDelivery",
					"outputs": [],
					"stateMutability": "nonpayable",
					"type": "function"
				},
				{
					"inputs": [],
					"name": "currentState",
					"outputs": [
						{
							"internalType": "enum Escrow.State",
							"name": "",
							"type": "uint8"
						}
					],
					"stateMutability": "view",
					"type": "function"
				},
				{
					"inputs": [],
					"name": "deposit",
					"outputs": [],
					"stateMutability": "payable",
					"type": "function"
				},
				{
					"inputs": [],
					"name": "seller",
					"outputs": [
						{
							"internalType": "address",
							"name": "",
							"type": "address"
						}
					],
					"stateMutability": "view",
					"type": "function"
				}
			],
			"devdoc": {
				"kind": "dev",
				"methods": {},
				"version": 1
			},
			"evm": {
				"assembly": "    /* \"contracts/StateMachinePatter.sol\":63:966  contract Escrow{... */\n  mstore(0x40, 0x80)\n    /* \"contracts/StateMachinePatter.sol\":225:368  constructor(address _buyer, address _seller){... */\n  callvalue\n  dup1\n  iszero\n  tag_1\n  jumpi\n  0x00\n  dup1\n  revert\ntag_1:\n  pop\n  mload(0x40)\n  sub(codesize, bytecodeSize)\n  dup1\n  bytecodeSize\n  dup4\n  codecopy\n  dup2\n  dup2\n  add\n  0x40\n  mstore\n  dup2\n  add\n  swap1\n  tag_2\n  swap2\n  swap1\n  tag_3\n  jump\t// in\ntag_2:\n    /* \"contracts/StateMachinePatter.sol\":288:294  _buyer */\n  dup2\n    /* \"contracts/StateMachinePatter.sol\":280:285  buyer */\n  0x00\n  0x01\n    /* \"contracts/StateMachinePatter.sol\":280:294  buyer = _buyer */\n  0x0100\n  exp\n  dup2\n  sload\n  dup2\n  0xffffffffffffffffffffffffffffffffffffffff\n  mul\n  not\n  and\n  swap1\n  dup4\n  0xffffffffffffffffffffffffffffffffffffffff\n  and\n  mul\n  or\n  swap1\n  sstore\n  pop\n    /* \"contracts/StateMachinePatter.sol\":314:321  _seller */\n  dup1\n    /* \"contracts/StateMachinePatter.sol\":305:311  seller */\n  0x01\n  0x00\n    /* \"contracts/StateMachinePatter.sol\":305:321  seller = _seller */\n  0x0100\n  exp\n  dup2\n  sload\n  dup2\n  0xffffffffffffffffffffffffffffffffffffffff\n  mul\n  not\n  and\n  swap1\n  dup4\n  0xffffffffffffffffffffffffffffffffffffffff\n  and\n  mul\n  or\n  swap1\n  sstore\n  pop\n    /* \"contracts/StateMachinePatter.sol\":347:360  State.PENDING */\n  0x00\n    /* \"contracts/StateMachinePatter.sol\":332:344  currentState */\n  dup1\n  0x00\n    /* \"contracts/StateMachinePatter.sol\":332:360  currentState = State.PENDING */\n  0x0100\n  exp\n  dup2\n  sload\n  dup2\n  0xff\n  mul\n  not\n  and\n  swap1\n  dup4\n  0x02\n  dup2\n  gt\n  iszero\n  tag_6\n  jumpi\n  tag_7\n  tag_8\n  jump\t// in\ntag_7:\ntag_6:\n  mul\n  or\n  swap1\n  sstore\n  pop\n    /* \"contracts/StateMachinePatter.sol\":225:368  constructor(address _buyer, address _seller){... */\n  pop\n  pop\n    /* \"contracts/StateMachinePatter.sol\":63:966  contract Escrow{... */\n  jump(tag_9)\n    /* \"#utility.yul\":88:205   */\ntag_11:\n    /* \"#utility.yul\":197:198   */\n  0x00\n    /* \"#utility.yul\":194:195   */\n  dup1\n    /* \"#utility.yul\":187:199   */\n  revert\n    /* \"#utility.yul\":334:460   */\ntag_13:\n    /* \"#utility.yul\":371:378   */\n  0x00\n    /* \"#utility.yul\":411:453   */\n  0xffffffffffffffffffffffffffffffffffffffff\n    /* \"#utility.yul\":404:409   */\n  dup3\n    /* \"#utility.yul\":400:454   */\n  and\n    /* \"#utility.yul\":389:454   */\n  swap1\n  pop\n    /* \"#utility.yul\":334:460   */\n  swap2\n  swap1\n  pop\n  jump\t// out\n    /* \"#utility.yul\":466:562   */\ntag_14:\n    /* \"#utility.yul\":503:510   */\n  0x00\n    /* \"#utility.yul\":532:556   */\n  tag_23\n    /* \"#utility.yul\":550:555   */\n  dup3\n    /* \"#utility.yul\":532:556   */\n  tag_13\n  jump\t// in\ntag_23:\n    /* \"#utility.yul\":521:556   */\n  swap1\n  pop\n    /* \"#utility.yul\":466:562   */\n  swap2\n  swap1\n  pop\n  jump\t// out\n    /* \"#utility.yul\":568:690   */\ntag_15:\n    /* \"#utility.yul\":641:665   */\n  tag_25\n    /* \"#utility.yul\":659:664   */\n  dup2\n    /* \"#utility.yul\":641:665   */\n  tag_14\n  jump\t// in\ntag_25:\n    /* \"#utility.yul\":634:639   */\n  dup2\n    /* \"#utility.yul\":631:666   */\n  eq\n    /* \"#utility.yul\":621:684   */\n  tag_26\n  jumpi\n    /* \"#utility.yul\":680:681   */\n  0x00\n    /* \"#utility.yul\":677:678   */\n  dup1\n    /* \"#utility.yul\":670:682   */\n  revert\n    /* \"#utility.yul\":621:684   */\ntag_26:\n    /* \"#utility.yul\":568:690   */\n  pop\n  jump\t// out\n    /* \"#utility.yul\":696:839   */\ntag_16:\n    /* \"#utility.yul\":753:758   */\n  0x00\n    /* \"#utility.yul\":784:790   */\n  dup2\n    /* \"#utility.yul\":778:791   */\n  mload\n    /* \"#utility.yul\":769:791   */\n  swap1\n  pop\n    /* \"#utility.yul\":800:833   */\n  tag_28\n    /* \"#utility.yul\":827:832   */\n  dup2\n    /* \"#utility.yul\":800:833   */\n  tag_15\n  jump\t// in\ntag_28:\n    /* \"#utility.yul\":696:839   */\n  swap3\n  swap2\n  pop\n  pop\n  jump\t// out\n    /* \"#utility.yul\":845:1352   */\ntag_3:\n    /* \"#utility.yul\":924:930   */\n  0x00\n    /* \"#utility.yul\":932:938   */\n  dup1\n    /* \"#utility.yul\":981:983   */\n  0x40\n    /* \"#utility.yul\":969:978   */\n  dup4\n    /* \"#utility.yul\":960:967   */\n  dup6\n    /* \"#utility.yul\":956:979   */\n  sub\n    /* \"#utility.yul\":952:984   */\n  slt\n    /* \"#utility.yul\":949:1068   */\n  iszero\n  tag_30\n  jumpi\n    /* \"#utility.yul\":987:1066   */\n  tag_31\n  tag_11\n  jump\t// in\ntag_31:\n    /* \"#utility.yul\":949:1068   */\ntag_30:\n    /* \"#utility.yul\":1107:1108   */\n  0x00\n    /* \"#utility.yul\":1132:1196   */\n  tag_32\n    /* \"#utility.yul\":1188:1195   */\n  dup6\n    /* \"#utility.yul\":1179:1185   */\n  dup3\n    /* \"#utility.yul\":1168:1177   */\n  dup7\n    /* \"#utility.yul\":1164:1186   */\n  add\n    /* \"#utility.yul\":1132:1196   */\n  tag_16\n  jump\t// in\ntag_32:\n    /* \"#utility.yul\":1122:1196   */\n  swap3\n  pop\n    /* \"#utility.yul\":1078:1206   */\n  pop\n    /* \"#utility.yul\":1245:1247   */\n  0x20\n    /* \"#utility.yul\":1271:1335   */\n  tag_33\n    /* \"#utility.yul\":1327:1334   */\n  dup6\n    /* \"#utility.yul\":1318:1324   */\n  dup3\n    /* \"#utility.yul\":1307:1316   */\n  dup7\n    /* \"#utility.yul\":1303:1325   */\n  add\n    /* \"#utility.yul\":1271:1335   */\n  tag_16\n  jump\t// in\ntag_33:\n    /* \"#utility.yul\":1261:1335   */\n  swap2\n  pop\n    /* \"#utility.yul\":1216:1345   */\n  pop\n    /* \"#utility.yul\":845:1352   */\n  swap3\n  pop\n  swap3\n  swap1\n  pop\n  jump\t// out\n    /* \"#utility.yul\":1358:1538   */\ntag_8:\n    /* \"#utility.yul\":1406:1483   */\n  0x4e487b7100000000000000000000000000000000000000000000000000000000\n    /* \"#utility.yul\":1403:1404   */\n  0x00\n    /* \"#utility.yul\":1396:1484   */\n  mstore\n    /* \"#utility.yul\":1503:1507   */\n  0x21\n    /* \"#utility.yul\":1500:1501   */\n  0x04\n    /* \"#utility.yul\":1493:1508   */\n  mstore\n    /* \"#utility.yul\":1527:1531   */\n  0x24\n    /* \"#utility.yul\":1524:1525   */\n  0x00\n    /* \"#utility.yul\":1517:1532   */\n  revert\n    /* \"contracts/StateMachinePatter.sol\":63:966  contract Escrow{... */\ntag_9:\n  dataSize(sub_0)\n  dup1\n  dataOffset(sub_0)\n  0x00\n  codecopy\n  0x00\n  return\nstop\n\nsub_0: assembly {\n        /* \"contracts/StateMachinePatter.sol\":63:966  contract Escrow{... */\n      mstore(0x40, 0x80)\n      jumpi(tag_1, lt(calldatasize, 0x04))\n      shr(0xe0, calldataload(0x00))\n      dup1\n      0x08551a53\n      eq\n      tag_2\n      jumpi\n      dup1\n      0x0c3f6acf\n      eq\n      tag_3\n      jumpi\n      dup1\n      0x5e10177b\n      eq\n      tag_4\n      jumpi\n      dup1\n      0x7150d8ae\n      eq\n      tag_5\n      jumpi\n      dup1\n      0xd0e30db0\n      eq\n      tag_6\n      jumpi\n    tag_1:\n      0x00\n      dup1\n      revert\n        /* \"contracts/StateMachinePatter.sol\":195:216  address public seller */\n    tag_2:\n      callvalue\n      dup1\n      iszero\n      tag_7\n      jumpi\n      0x00\n      dup1\n      revert\n    tag_7:\n      pop\n      tag_8\n      tag_9\n      jump\t// in\n    tag_8:\n      mload(0x40)\n      tag_10\n      swap2\n      swap1\n      tag_11\n      jump\t// in\n    tag_10:\n      mload(0x40)\n      dup1\n      swap2\n      sub\n      swap1\n      return\n        /* \"contracts/StateMachinePatter.sol\":134:159  State public currentState */\n    tag_3:\n      callvalue\n      dup1\n      iszero\n      tag_12\n      jumpi\n      0x00\n      dup1\n      revert\n    tag_12:\n      pop\n      tag_13\n      tag_14\n      jump\t// in\n    tag_13:\n      mload(0x40)\n      tag_15\n      swap2\n      swap1\n      tag_16\n      jump\t// in\n    tag_15:\n      mload(0x40)\n      dup1\n      swap2\n      sub\n      swap1\n      return\n        /* \"contracts/StateMachinePatter.sol\":609:963  function confirmDelivery() public {... */\n    tag_4:\n      callvalue\n      dup1\n      iszero\n      tag_17\n      jumpi\n      0x00\n      dup1\n      revert\n    tag_17:\n      pop\n      tag_18\n      tag_19\n      jump\t// in\n    tag_18:\n      stop\n        /* \"contracts/StateMachinePatter.sol\":168:188  address public buyer */\n    tag_5:\n      callvalue\n      dup1\n      iszero\n      tag_20\n      jumpi\n      0x00\n      dup1\n      revert\n    tag_20:\n      pop\n      tag_21\n      tag_22\n      jump\t// in\n    tag_21:\n      mload(0x40)\n      tag_23\n      swap2\n      swap1\n      tag_11\n      jump\t// in\n    tag_23:\n      mload(0x40)\n      dup1\n      swap2\n      sub\n      swap1\n      return\n        /* \"contracts/StateMachinePatter.sol\":376:601  function deposit() public payable{... */\n    tag_6:\n      tag_24\n      tag_25\n      jump\t// in\n    tag_24:\n      stop\n        /* \"contracts/StateMachinePatter.sol\":195:216  address public seller */\n    tag_9:\n      0x01\n      0x00\n      swap1\n      sload\n      swap1\n      0x0100\n      exp\n      swap1\n      div\n      0xffffffffffffffffffffffffffffffffffffffff\n      and\n      dup2\n      jump\t// out\n        /* \"contracts/StateMachinePatter.sol\":134:159  State public currentState */\n    tag_14:\n      0x00\n      dup1\n      sload\n      swap1\n      0x0100\n      exp\n      swap1\n      div\n      0xff\n      and\n      dup2\n      jump\t// out\n        /* \"contracts/StateMachinePatter.sol\":609:963  function confirmDelivery() public {... */\n    tag_19:\n        /* \"contracts/StateMachinePatter.sol\":678:692  State.DELIVERY */\n      0x01\n        /* \"contracts/StateMachinePatter.sol\":662:692  currentState == State.DELIVERY */\n      0x02\n      dup2\n      gt\n      iszero\n      tag_27\n      jumpi\n      tag_28\n      tag_29\n      jump\t// in\n    tag_28:\n    tag_27:\n        /* \"contracts/StateMachinePatter.sol\":662:674  currentState */\n      0x00\n      dup1\n      sload\n      swap1\n      0x0100\n      exp\n      swap1\n      div\n      0xff\n      and\n        /* \"contracts/StateMachinePatter.sol\":662:692  currentState == State.DELIVERY */\n      0x02\n      dup2\n      gt\n      iszero\n      tag_30\n      jumpi\n      tag_31\n      tag_29\n      jump\t// in\n    tag_31:\n    tag_30:\n      eq\n        /* \"contracts/StateMachinePatter.sol\":654:710  require(currentState == State.DELIVERY, \"Invalid State\") */\n      tag_32\n      jumpi\n      mload(0x40)\n      0x08c379a000000000000000000000000000000000000000000000000000000000\n      dup2\n      mstore\n      0x04\n      add\n      tag_33\n      swap1\n      tag_34\n      jump\t// in\n    tag_33:\n      mload(0x40)\n      dup1\n      swap2\n      sub\n      swap1\n      revert\n    tag_32:\n        /* \"contracts/StateMachinePatter.sol\":743:748  buyer */\n      0x00\n      0x01\n      swap1\n      sload\n      swap1\n      0x0100\n      exp\n      swap1\n      div\n      0xffffffffffffffffffffffffffffffffffffffff\n      and\n        /* \"contracts/StateMachinePatter.sol\":729:748  msg.sender == buyer */\n      0xffffffffffffffffffffffffffffffffffffffff\n      and\n        /* \"contracts/StateMachinePatter.sol\":729:739  msg.sender */\n      caller\n        /* \"contracts/StateMachinePatter.sol\":729:748  msg.sender == buyer */\n      0xffffffffffffffffffffffffffffffffffffffff\n      and\n      eq\n        /* \"contracts/StateMachinePatter.sol\":721:786  require(msg.sender == buyer, \"Only buyer can call this function\") */\n      tag_35\n      jumpi\n      mload(0x40)\n      0x08c379a000000000000000000000000000000000000000000000000000000000\n      dup2\n      mstore\n      0x04\n      add\n      tag_36\n      swap1\n      tag_37\n      jump\t// in\n    tag_36:\n      mload(0x40)\n      dup1\n      swap2\n      sub\n      swap1\n      revert\n    tag_35:\n        /* \"contracts/StateMachinePatter.sol\":800:812  bool success */\n      0x00\n        /* \"contracts/StateMachinePatter.sol\":818:824  seller */\n      0x01\n      0x00\n      swap1\n      sload\n      swap1\n      0x0100\n      exp\n      swap1\n      div\n      0xffffffffffffffffffffffffffffffffffffffff\n      and\n        /* \"contracts/StateMachinePatter.sol\":818:829  seller.call */\n      0xffffffffffffffffffffffffffffffffffffffff\n      and\n        /* \"contracts/StateMachinePatter.sol\":837:858  address(this).balance */\n      selfbalance\n        /* \"contracts/StateMachinePatter.sol\":818:863  seller.call{value: address(this).balance}(\"\") */\n      mload(0x40)\n      tag_38\n      swap1\n      tag_39\n      jump\t// in\n    tag_38:\n      0x00\n      mload(0x40)\n      dup1\n      dup4\n      sub\n      dup2\n      dup6\n      dup8\n      gas\n      call\n      swap3\n      pop\n      pop\n      pop\n      returndatasize\n      dup1\n      0x00\n      dup2\n      eq\n      tag_42\n      jumpi\n      mload(0x40)\n      swap2\n      pop\n      and(add(returndatasize, 0x3f), not(0x1f))\n      dup3\n      add\n      0x40\n      mstore\n      returndatasize\n      dup3\n      mstore\n      returndatasize\n      0x00\n      0x20\n      dup5\n      add\n      returndatacopy\n      jump(tag_41)\n    tag_42:\n      0x60\n      swap2\n      pop\n    tag_41:\n      pop\n        /* \"contracts/StateMachinePatter.sol\":799:863  (bool success, ) = seller.call{value: address(this).balance}(\"\") */\n      pop\n      swap1\n      pop\n        /* \"contracts/StateMachinePatter.sol\":882:889  success */\n      dup1\n        /* \"contracts/StateMachinePatter.sol\":874:914  require(success, \"Failed to send ether\") */\n      tag_43\n      jumpi\n      mload(0x40)\n      0x08c379a000000000000000000000000000000000000000000000000000000000\n      dup2\n      mstore\n      0x04\n      add\n      tag_44\n      swap1\n      tag_45\n      jump\t// in\n    tag_44:\n      mload(0x40)\n      dup1\n      swap2\n      sub\n      swap1\n      revert\n    tag_43:\n        /* \"contracts/StateMachinePatter.sol\":940:955  State.COMPLETED */\n      0x02\n        /* \"contracts/StateMachinePatter.sol\":925:937  currentState */\n      0x00\n      dup1\n        /* \"contracts/StateMachinePatter.sol\":925:955  currentState = State.COMPLETED */\n      0x0100\n      exp\n      dup2\n      sload\n      dup2\n      0xff\n      mul\n      not\n      and\n      swap1\n      dup4\n      0x02\n      dup2\n      gt\n      iszero\n      tag_46\n      jumpi\n      tag_47\n      tag_29\n      jump\t// in\n    tag_47:\n    tag_46:\n      mul\n      or\n      swap1\n      sstore\n      pop\n        /* \"contracts/StateMachinePatter.sol\":643:963  {... */\n      pop\n        /* \"contracts/StateMachinePatter.sol\":609:963  function confirmDelivery() public {... */\n      jump\t// out\n        /* \"contracts/StateMachinePatter.sol\":168:188  address public buyer */\n    tag_22:\n      0x00\n      0x01\n      swap1\n      sload\n      swap1\n      0x0100\n      exp\n      swap1\n      div\n      0xffffffffffffffffffffffffffffffffffffffff\n      and\n      dup2\n      jump\t// out\n        /* \"contracts/StateMachinePatter.sol\":376:601  function deposit() public payable{... */\n    tag_25:\n        /* \"contracts/StateMachinePatter.sol\":444:457  State.PENDING */\n      0x00\n        /* \"contracts/StateMachinePatter.sol\":428:457  currentState == State.PENDING */\n      0x02\n      dup2\n      gt\n      iszero\n      tag_49\n      jumpi\n      tag_50\n      tag_29\n      jump\t// in\n    tag_50:\n    tag_49:\n        /* \"contracts/StateMachinePatter.sol\":428:440  currentState */\n      0x00\n      dup1\n      sload\n      swap1\n      0x0100\n      exp\n      swap1\n      div\n      0xff\n      and\n        /* \"contracts/StateMachinePatter.sol\":428:457  currentState == State.PENDING */\n      0x02\n      dup2\n      gt\n      iszero\n      tag_51\n      jumpi\n      tag_52\n      tag_29\n      jump\t// in\n    tag_52:\n    tag_51:\n      eq\n        /* \"contracts/StateMachinePatter.sol\":420:475  require(currentState == State.PENDING, \"Invalid State\") */\n      tag_53\n      jumpi\n      mload(0x40)\n      0x08c379a000000000000000000000000000000000000000000000000000000000\n      dup2\n      mstore\n      0x04\n      add\n      tag_54\n      swap1\n      tag_34\n      jump\t// in\n    tag_54:\n      mload(0x40)\n      dup1\n      swap2\n      sub\n      swap1\n      revert\n    tag_53:\n        /* \"contracts/StateMachinePatter.sol\":508:513  buyer */\n      0x00\n      0x01\n      swap1\n      sload\n      swap1\n      0x0100\n      exp\n      swap1\n      div\n      0xffffffffffffffffffffffffffffffffffffffff\n      and\n        /* \"contracts/StateMachinePatter.sol\":494:513  msg.sender == buyer */\n      0xffffffffffffffffffffffffffffffffffffffff\n      and\n        /* \"contracts/StateMachinePatter.sol\":494:504  msg.sender */\n      caller\n        /* \"contracts/StateMachinePatter.sol\":494:513  msg.sender == buyer */\n      0xffffffffffffffffffffffffffffffffffffffff\n      and\n      eq\n        /* \"contracts/StateMachinePatter.sol\":486:551  require(msg.sender == buyer, \"Only buyer can call this function\") */\n      tag_55\n      jumpi\n      mload(0x40)\n      0x08c379a000000000000000000000000000000000000000000000000000000000\n      dup2\n      mstore\n      0x04\n      add\n      tag_56\n      swap1\n      tag_37\n      jump\t// in\n    tag_56:\n      mload(0x40)\n      dup1\n      swap2\n      sub\n      swap1\n      revert\n    tag_55:\n        /* \"contracts/StateMachinePatter.sol\":579:593  State.DELIVERY */\n      0x01\n        /* \"contracts/StateMachinePatter.sol\":564:576  currentState */\n      0x00\n      dup1\n        /* \"contracts/StateMachinePatter.sol\":564:593  currentState = State.DELIVERY */\n      0x0100\n      exp\n      dup2\n      sload\n      dup2\n      0xff\n      mul\n      not\n      and\n      swap1\n      dup4\n      0x02\n      dup2\n      gt\n      iszero\n      tag_57\n      jumpi\n      tag_58\n      tag_29\n      jump\t// in\n    tag_58:\n    tag_57:\n      mul\n      or\n      swap1\n      sstore\n      pop\n        /* \"contracts/StateMachinePatter.sol\":376:601  function deposit() public payable{... */\n      jump\t// out\n        /* \"#utility.yul\":7:133   */\n    tag_59:\n        /* \"#utility.yul\":44:51   */\n      0x00\n        /* \"#utility.yul\":84:126   */\n      0xffffffffffffffffffffffffffffffffffffffff\n        /* \"#utility.yul\":77:82   */\n      dup3\n        /* \"#utility.yul\":73:127   */\n      and\n        /* \"#utility.yul\":62:127   */\n      swap1\n      pop\n        /* \"#utility.yul\":7:133   */\n      swap2\n      swap1\n      pop\n      jump\t// out\n        /* \"#utility.yul\":139:235   */\n    tag_60:\n        /* \"#utility.yul\":176:183   */\n      0x00\n        /* \"#utility.yul\":205:229   */\n      tag_79\n        /* \"#utility.yul\":223:228   */\n      dup3\n        /* \"#utility.yul\":205:229   */\n      tag_59\n      jump\t// in\n    tag_79:\n        /* \"#utility.yul\":194:229   */\n      swap1\n      pop\n        /* \"#utility.yul\":139:235   */\n      swap2\n      swap1\n      pop\n      jump\t// out\n        /* \"#utility.yul\":241:359   */\n    tag_61:\n        /* \"#utility.yul\":328:352   */\n      tag_81\n        /* \"#utility.yul\":346:351   */\n      dup2\n        /* \"#utility.yul\":328:352   */\n      tag_60\n      jump\t// in\n    tag_81:\n        /* \"#utility.yul\":323:326   */\n      dup3\n        /* \"#utility.yul\":316:353   */\n      mstore\n        /* \"#utility.yul\":241:359   */\n      pop\n      pop\n      jump\t// out\n        /* \"#utility.yul\":365:587   */\n    tag_11:\n        /* \"#utility.yul\":458:462   */\n      0x00\n        /* \"#utility.yul\":496:498   */\n      0x20\n        /* \"#utility.yul\":485:494   */\n      dup3\n        /* \"#utility.yul\":481:499   */\n      add\n        /* \"#utility.yul\":473:499   */\n      swap1\n      pop\n        /* \"#utility.yul\":509:580   */\n      tag_83\n        /* \"#utility.yul\":577:578   */\n      0x00\n        /* \"#utility.yul\":566:575   */\n      dup4\n        /* \"#utility.yul\":562:579   */\n      add\n        /* \"#utility.yul\":553:559   */\n      dup5\n        /* \"#utility.yul\":509:580   */\n      tag_61\n      jump\t// in\n    tag_83:\n        /* \"#utility.yul\":365:587   */\n      swap3\n      swap2\n      pop\n      pop\n      jump\t// out\n        /* \"#utility.yul\":593:773   */\n    tag_29:\n        /* \"#utility.yul\":641:718   */\n      0x4e487b7100000000000000000000000000000000000000000000000000000000\n        /* \"#utility.yul\":638:639   */\n      0x00\n        /* \"#utility.yul\":631:719   */\n      mstore\n        /* \"#utility.yul\":738:742   */\n      0x21\n        /* \"#utility.yul\":735:736   */\n      0x04\n        /* \"#utility.yul\":728:743   */\n      mstore\n        /* \"#utility.yul\":762:766   */\n      0x24\n        /* \"#utility.yul\":759:760   */\n      0x00\n        /* \"#utility.yul\":752:767   */\n      revert\n        /* \"#utility.yul\":779:891   */\n    tag_62:\n        /* \"#utility.yul\":859:860   */\n      0x03\n        /* \"#utility.yul\":852:857   */\n      dup2\n        /* \"#utility.yul\":849:861   */\n      lt\n        /* \"#utility.yul\":839:885   */\n      tag_86\n      jumpi\n        /* \"#utility.yul\":865:883   */\n      tag_87\n      tag_29\n      jump\t// in\n    tag_87:\n        /* \"#utility.yul\":839:885   */\n    tag_86:\n        /* \"#utility.yul\":779:891   */\n      pop\n      jump\t// out\n        /* \"#utility.yul\":897:1022   */\n    tag_63:\n        /* \"#utility.yul\":941:948   */\n      0x00\n        /* \"#utility.yul\":970:975   */\n      dup2\n        /* \"#utility.yul\":959:975   */\n      swap1\n      pop\n        /* \"#utility.yul\":976:1016   */\n      tag_89\n        /* \"#utility.yul\":1010:1015   */\n      dup3\n        /* \"#utility.yul\":976:1016   */\n      tag_62\n      jump\t// in\n    tag_89:\n        /* \"#utility.yul\":897:1022   */\n      swap2\n      swap1\n      pop\n      jump\t// out\n        /* \"#utility.yul\":1028:1153   */\n    tag_64:\n        /* \"#utility.yul\":1083:1092   */\n      0x00\n        /* \"#utility.yul\":1116:1147   */\n      tag_91\n        /* \"#utility.yul\":1141:1146   */\n      dup3\n        /* \"#utility.yul\":1116:1147   */\n      tag_63\n      jump\t// in\n    tag_91:\n        /* \"#utility.yul\":1103:1147   */\n      swap1\n      pop\n        /* \"#utility.yul\":1028:1153   */\n      swap2\n      swap1\n      pop\n      jump\t// out\n        /* \"#utility.yul\":1159:1300   */\n    tag_65:\n        /* \"#utility.yul\":1251:1293   */\n      tag_93\n        /* \"#utility.yul\":1287:1292   */\n      dup2\n        /* \"#utility.yul\":1251:1293   */\n      tag_64\n      jump\t// in\n    tag_93:\n        /* \"#utility.yul\":1246:1249   */\n      dup3\n        /* \"#utility.yul\":1239:1294   */\n      mstore\n        /* \"#utility.yul\":1159:1300   */\n      pop\n      pop\n      jump\t// out\n        /* \"#utility.yul\":1306:1538   */\n    tag_16:\n        /* \"#utility.yul\":1404:1408   */\n      0x00\n        /* \"#utility.yul\":1442:1444   */\n      0x20\n        /* \"#utility.yul\":1431:1440   */\n      dup3\n        /* \"#utility.yul\":1427:1445   */\n      add\n        /* \"#utility.yul\":1419:1445   */\n      swap1\n      pop\n        /* \"#utility.yul\":1455:1531   */\n      tag_95\n        /* \"#utility.yul\":1528:1529   */\n      0x00\n        /* \"#utility.yul\":1517:1526   */\n      dup4\n        /* \"#utility.yul\":1513:1530   */\n      add\n        /* \"#utility.yul\":1504:1510   */\n      dup5\n        /* \"#utility.yul\":1455:1531   */\n      tag_65\n      jump\t// in\n    tag_95:\n        /* \"#utility.yul\":1306:1538   */\n      swap3\n      swap2\n      pop\n      pop\n      jump\t// out\n        /* \"#utility.yul\":1544:1713   */\n    tag_66:\n        /* \"#utility.yul\":1628:1639   */\n      0x00\n        /* \"#utility.yul\":1662:1668   */\n      dup3\n        /* \"#utility.yul\":1657:1660   */\n      dup3\n        /* \"#utility.yul\":1650:1669   */\n      mstore\n        /* \"#utility.yul\":1702:1706   */\n      0x20\n        /* \"#utility.yul\":1697:1700   */\n      dup3\n        /* \"#utility.yul\":1693:1707   */\n      add\n        /* \"#utility.yul\":1678:1707   */\n      swap1\n      pop\n        /* \"#utility.yul\":1544:1713   */\n      swap3\n      swap2\n      pop\n      pop\n      jump\t// out\n        /* \"#utility.yul\":1719:1882   */\n    tag_67:\n        /* \"#utility.yul\":1859:1874   */\n      0x496e76616c696420537461746500000000000000000000000000000000000000\n        /* \"#utility.yul\":1855:1856   */\n      0x00\n        /* \"#utility.yul\":1847:1853   */\n      dup3\n        /* \"#utility.yul\":1843:1857   */\n      add\n        /* \"#utility.yul\":1836:1875   */\n      mstore\n        /* \"#utility.yul\":1719:1882   */\n      pop\n      jump\t// out\n        /* \"#utility.yul\":1888:2254   */\n    tag_68:\n        /* \"#utility.yul\":2030:2033   */\n      0x00\n        /* \"#utility.yul\":2051:2118   */\n      tag_99\n        /* \"#utility.yul\":2115:2117   */\n      0x0d\n        /* \"#utility.yul\":2110:2113   */\n      dup4\n        /* \"#utility.yul\":2051:2118   */\n      tag_66\n      jump\t// in\n    tag_99:\n        /* \"#utility.yul\":2044:2118   */\n      swap2\n      pop\n        /* \"#utility.yul\":2127:2220   */\n      tag_100\n        /* \"#utility.yul\":2216:2219   */\n      dup3\n        /* \"#utility.yul\":2127:2220   */\n      tag_67\n      jump\t// in\n    tag_100:\n        /* \"#utility.yul\":2245:2247   */\n      0x20\n        /* \"#utility.yul\":2240:2243   */\n      dup3\n        /* \"#utility.yul\":2236:2248   */\n      add\n        /* \"#utility.yul\":2229:2248   */\n      swap1\n      pop\n        /* \"#utility.yul\":1888:2254   */\n      swap2\n      swap1\n      pop\n      jump\t// out\n        /* \"#utility.yul\":2260:2679   */\n    tag_34:\n        /* \"#utility.yul\":2426:2430   */\n      0x00\n        /* \"#utility.yul\":2464:2466   */\n      0x20\n        /* \"#utility.yul\":2453:2462   */\n      dup3\n        /* \"#utility.yul\":2449:2467   */\n      add\n        /* \"#utility.yul\":2441:2467   */\n      swap1\n      pop\n        /* \"#utility.yul\":2513:2522   */\n      dup2\n        /* \"#utility.yul\":2507:2511   */\n      dup2\n        /* \"#utility.yul\":2503:2523   */\n      sub\n        /* \"#utility.yul\":2499:2500   */\n      0x00\n        /* \"#utility.yul\":2488:2497   */\n      dup4\n        /* \"#utility.yul\":2484:2501   */\n      add\n        /* \"#utility.yul\":2477:2524   */\n      mstore\n        /* \"#utility.yul\":2541:2672   */\n      tag_102\n        /* \"#utility.yul\":2667:2671   */\n      dup2\n        /* \"#utility.yul\":2541:2672   */\n      tag_68\n      jump\t// in\n    tag_102:\n        /* \"#utility.yul\":2533:2672   */\n      swap1\n      pop\n        /* \"#utility.yul\":2260:2679   */\n      swap2\n      swap1\n      pop\n      jump\t// out\n        /* \"#utility.yul\":2685:2905   */\n    tag_69:\n        /* \"#utility.yul\":2825:2859   */\n      0x4f6e6c792062757965722063616e2063616c6c20746869732066756e6374696f\n        /* \"#utility.yul\":2821:2822   */\n      0x00\n        /* \"#utility.yul\":2813:2819   */\n      dup3\n        /* \"#utility.yul\":2809:2823   */\n      add\n        /* \"#utility.yul\":2802:2860   */\n      mstore\n        /* \"#utility.yul\":2894:2897   */\n      0x6e00000000000000000000000000000000000000000000000000000000000000\n        /* \"#utility.yul\":2889:2891   */\n      0x20\n        /* \"#utility.yul\":2881:2887   */\n      dup3\n        /* \"#utility.yul\":2877:2892   */\n      add\n        /* \"#utility.yul\":2870:2898   */\n      mstore\n        /* \"#utility.yul\":2685:2905   */\n      pop\n      jump\t// out\n        /* \"#utility.yul\":2911:3277   */\n    tag_70:\n        /* \"#utility.yul\":3053:3056   */\n      0x00\n        /* \"#utility.yul\":3074:3141   */\n      tag_105\n        /* \"#utility.yul\":3138:3140   */\n      0x21\n        /* \"#utility.yul\":3133:3136   */\n      dup4\n        /* \"#utility.yul\":3074:3141   */\n      tag_66\n      jump\t// in\n    tag_105:\n        /* \"#utility.yul\":3067:3141   */\n      swap2\n      pop\n        /* \"#utility.yul\":3150:3243   */\n      tag_106\n        /* \"#utility.yul\":3239:3242   */\n      dup3\n        /* \"#utility.yul\":3150:3243   */\n      tag_69\n      jump\t// in\n    tag_106:\n        /* \"#utility.yul\":3268:3270   */\n      0x40\n        /* \"#utility.yul\":3263:3266   */\n      dup3\n        /* \"#utility.yul\":3259:3271   */\n      add\n        /* \"#utility.yul\":3252:3271   */\n      swap1\n      pop\n        /* \"#utility.yul\":2911:3277   */\n      swap2\n      swap1\n      pop\n      jump\t// out\n        /* \"#utility.yul\":3283:3702   */\n    tag_37:\n        /* \"#utility.yul\":3449:3453   */\n      0x00\n        /* \"#utility.yul\":3487:3489   */\n      0x20\n        /* \"#utility.yul\":3476:3485   */\n      dup3\n        /* \"#utility.yul\":3472:3490   */\n      add\n        /* \"#utility.yul\":3464:3490   */\n      swap1\n      pop\n        /* \"#utility.yul\":3536:3545   */\n      dup2\n        /* \"#utility.yul\":3530:3534   */\n      dup2\n        /* \"#utility.yul\":3526:3546   */\n      sub\n        /* \"#utility.yul\":3522:3523   */\n      0x00\n        /* \"#utility.yul\":3511:3520   */\n      dup4\n        /* \"#utility.yul\":3507:3524   */\n      add\n        /* \"#utility.yul\":3500:3547   */\n      mstore\n        /* \"#utility.yul\":3564:3695   */\n      tag_108\n        /* \"#utility.yul\":3690:3694   */\n      dup2\n        /* \"#utility.yul\":3564:3695   */\n      tag_70\n      jump\t// in\n    tag_108:\n        /* \"#utility.yul\":3556:3695   */\n      swap1\n      pop\n        /* \"#utility.yul\":3283:3702   */\n      swap2\n      swap1\n      pop\n      jump\t// out\n        /* \"#utility.yul\":3708:3855   */\n    tag_71:\n        /* \"#utility.yul\":3809:3820   */\n      0x00\n        /* \"#utility.yul\":3846:3849   */\n      dup2\n        /* \"#utility.yul\":3831:3849   */\n      swap1\n      pop\n        /* \"#utility.yul\":3708:3855   */\n      swap3\n      swap2\n      pop\n      pop\n      jump\t// out\n        /* \"#utility.yul\":3861:3975   */\n    tag_72:\n      pop\n      jump\t// out\n        /* \"#utility.yul\":3981:4379   */\n    tag_73:\n        /* \"#utility.yul\":4140:4143   */\n      0x00\n        /* \"#utility.yul\":4161:4244   */\n      tag_112\n        /* \"#utility.yul\":4242:4243   */\n      0x00\n        /* \"#utility.yul\":4237:4240   */\n      dup4\n        /* \"#utility.yul\":4161:4244   */\n      tag_71\n      jump\t// in\n    tag_112:\n        /* \"#utility.yul\":4154:4244   */\n      swap2\n      pop\n        /* \"#utility.yul\":4253:4346   */\n      tag_113\n        /* \"#utility.yul\":4342:4345   */\n      dup3\n        /* \"#utility.yul\":4253:4346   */\n      tag_72\n      jump\t// in\n    tag_113:\n        /* \"#utility.yul\":4371:4372   */\n      0x00\n        /* \"#utility.yul\":4366:4369   */\n      dup3\n        /* \"#utility.yul\":4362:4373   */\n      add\n        /* \"#utility.yul\":4355:4373   */\n      swap1\n      pop\n        /* \"#utility.yul\":3981:4379   */\n      swap2\n      swap1\n      pop\n      jump\t// out\n        /* \"#utility.yul\":4385:4764   */\n    tag_39:\n        /* \"#utility.yul\":4569:4572   */\n      0x00\n        /* \"#utility.yul\":4591:4738   */\n      tag_115\n        /* \"#utility.yul\":4734:4737   */\n      dup3\n        /* \"#utility.yul\":4591:4738   */\n      tag_73\n      jump\t// in\n    tag_115:\n        /* \"#utility.yul\":4584:4738   */\n      swap2\n      pop\n        /* \"#utility.yul\":4755:4758   */\n      dup2\n        /* \"#utility.yul\":4748:4758   */\n      swap1\n      pop\n        /* \"#utility.yul\":4385:4764   */\n      swap2\n      swap1\n      pop\n      jump\t// out\n        /* \"#utility.yul\":4770:4940   */\n    tag_74:\n        /* \"#utility.yul\":4910:4932   */\n      0x4661696c656420746f2073656e64206574686572000000000000000000000000\n        /* \"#utility.yul\":4906:4907   */\n      0x00\n        /* \"#utility.yul\":4898:4904   */\n      dup3\n        /* \"#utility.yul\":4894:4908   */\n      add\n        /* \"#utility.yul\":4887:4933   */\n      mstore\n        /* \"#utility.yul\":4770:4940   */\n      pop\n      jump\t// out\n        /* \"#utility.yul\":4946:5312   */\n    tag_75:\n        /* \"#utility.yul\":5088:5091   */\n      0x00\n        /* \"#utility.yul\":5109:5176   */\n      tag_118\n        /* \"#utility.yul\":5173:5175   */\n      0x14\n        /* \"#utility.yul\":5168:5171   */\n      dup4\n        /* \"#utility.yul\":5109:5176   */\n      tag_66\n      jump\t// in\n    tag_118:\n        /* \"#utility.yul\":5102:5176   */\n      swap2\n      pop\n        /* \"#utility.yul\":5185:5278   */\n      tag_119\n        /* \"#utility.yul\":5274:5277   */\n      dup3\n        /* \"#utility.yul\":5185:5278   */\n      tag_74\n      jump\t// in\n    tag_119:\n        /* \"#utility.yul\":5303:5305   */\n      0x20\n        /* \"#utility.yul\":5298:5301   */\n      dup3\n        /* \"#utility.yul\":5294:5306   */\n      add\n        /* \"#utility.yul\":5287:5306   */\n      swap1\n      pop\n        /* \"#utility.yul\":4946:5312   */\n      swap2\n      swap1\n      pop\n      jump\t// out\n        /* \"#utility.yul\":5318:5737   */\n    tag_45:\n        /* \"#utility.yul\":5484:5488   */\n      0x00\n        /* \"#utility.yul\":5522:5524   */\n      0x20\n        /* \"#utility.yul\":5511:5520   */\n      dup3\n        /* \"#utility.yul\":5507:5525   */\n      add\n        /* \"#utility.yul\":5499:5525   */\n      swap1\n      pop\n        /* \"#utility.yul\":5571:5580   */\n      dup2\n        /* \"#utility.yul\":5565:5569   */\n      dup2\n        /* \"#utility.yul\":5561:5581   */\n      sub\n        /* \"#utility.yul\":5557:5558   */\n      0x00\n        /* \"#utility.yul\":5546:5555   */\n      dup4\n        /* \"#utility.yul\":5542:5559   */\n      add\n        /* \"#utility.yul\":5535:5582   */\n      mstore\n        /* \"#utility.yul\":5599:5730   */\n      tag_121\n        /* \"#utility.yul\":5725:5729   */\n      dup2\n        /* \"#utility.yul\":5599:5730   */\n      tag_75\n      jump\t// in\n    tag_121:\n        /* \"#utility.yul\":5591:5730   */\n      swap1\n      pop\n        /* \"#utility.yul\":5318:5737   */\n      swap2\n      swap1\n      pop\n      jump\t// out\n\n    auxdata: 0xa264697066735822122033390bd69e5cc98f73238b4fb4590d04796c4e99110a13176d35f96e85ed566864736f6c634300081a0033\n}\n",
				"bytecode": {
					"linkReferences": {},
					"object": "608060405234801561000f575f80fd5b506040516108e73803806108e78339818101604052810190610031919061013e565b815f60016101000a81548173ffffffffffffffffffffffffffffffffffffffff021916908373ffffffffffffffffffffffffffffffffffffffff1602179055508060015f6101000a81548173ffffffffffffffffffffffffffffffffffffffff021916908373ffffffffffffffffffffffffffffffffffffffff1602179055505f805f6101000a81548160ff021916908360028111156100d4576100d361017c565b5b021790555050506101a9565b5f80fd5b5f73ffffffffffffffffffffffffffffffffffffffff82169050919050565b5f61010d826100e4565b9050919050565b61011d81610103565b8114610127575f80fd5b50565b5f8151905061013881610114565b92915050565b5f8060408385031215610154576101536100e0565b5b5f6101618582860161012a565b92505060206101728582860161012a565b9150509250929050565b7f4e487b71000000000000000000000000000000000000000000000000000000005f52602160045260245ffd5b610731806101b65f395ff3fe608060405260043610610049575f3560e01c806308551a531461004d5780630c3f6acf146100775780635e10177b146100a15780637150d8ae146100b7578063d0e30db0146100e1575b5f80fd5b348015610058575f80fd5b506100616100eb565b60405161006e91906104a7565b60405180910390f35b348015610082575f80fd5b5061008b610110565b6040516100989190610533565b60405180910390f35b3480156100ac575f80fd5b506100b5610120565b005b3480156100c2575f80fd5b506100cb610317565b6040516100d891906104a7565b60405180910390f35b6100e961033c565b005b60015f9054906101000a900473ffffffffffffffffffffffffffffffffffffffff1681565b5f8054906101000a900460ff1681565b60016002811115610134576101336104c0565b5b5f8054906101000a900460ff166002811115610153576101526104c0565b5b14610193576040517f08c379a000000000000000000000000000000000000000000000000000000000815260040161018a906105a6565b60405180910390fd5b5f60019054906101000a900473ffffffffffffffffffffffffffffffffffffffff1673ffffffffffffffffffffffffffffffffffffffff163373ffffffffffffffffffffffffffffffffffffffff1614610222576040517f08c379a000000000000000000000000000000000000000000000000000000000815260040161021990610634565b60405180910390fd5b5f60015f9054906101000a900473ffffffffffffffffffffffffffffffffffffffff1673ffffffffffffffffffffffffffffffffffffffff16476040516102689061067f565b5f6040518083038185875af1925050503d805f81146102a2576040519150601f19603f3d011682016040523d82523d5f602084013e6102a7565b606091505b50509050806102eb576040517f08c379a00000000000000000000000000000000000000000000000000000000081526004016102e2906106dd565b60405180910390fd5b60025f806101000a81548160ff0219169083600281111561030f5761030e6104c0565b5b021790555050565b5f60019054906101000a900473ffffffffffffffffffffffffffffffffffffffff1681565b5f600281111561034f5761034e6104c0565b5b5f8054906101000a900460ff16600281111561036e5761036d6104c0565b5b146103ae576040517f08c379a00000000000000000000000000000000000000000000000000000000081526004016103a5906105a6565b60405180910390fd5b5f60019054906101000a900473ffffffffffffffffffffffffffffffffffffffff1673ffffffffffffffffffffffffffffffffffffffff163373ffffffffffffffffffffffffffffffffffffffff161461043d576040517f08c379a000000000000000000000000000000000000000000000000000000000815260040161043490610634565b60405180910390fd5b60015f806101000a81548160ff02191690836002811115610461576104606104c0565b5b0217905550565b5f73ffffffffffffffffffffffffffffffffffffffff82169050919050565b5f61049182610468565b9050919050565b6104a181610487565b82525050565b5f6020820190506104ba5f830184610498565b92915050565b7f4e487b71000000000000000000000000000000000000000000000000000000005f52602160045260245ffd5b600381106104fe576104fd6104c0565b5b50565b5f81905061050e826104ed565b919050565b5f61051d82610501565b9050919050565b61052d81610513565b82525050565b5f6020820190506105465f830184610524565b92915050565b5f82825260208201905092915050565b7f496e76616c6964205374617465000000000000000000000000000000000000005f82015250565b5f610590600d8361054c565b915061059b8261055c565b602082019050919050565b5f6020820190508181035f8301526105bd81610584565b9050919050565b7f4f6e6c792062757965722063616e2063616c6c20746869732066756e6374696f5f8201527f6e00000000000000000000000000000000000000000000000000000000000000602082015250565b5f61061e60218361054c565b9150610629826105c4565b604082019050919050565b5f6020820190508181035f83015261064b81610612565b9050919050565b5f81905092915050565b50565b5f61066a5f83610652565b91506106758261065c565b5f82019050919050565b5f6106898261065f565b9150819050919050565b7f4661696c656420746f2073656e642065746865720000000000000000000000005f82015250565b5f6106c760148361054c565b91506106d282610693565b602082019050919050565b5f6020820190508181035f8301526106f4816106bb565b905091905056fea264697066735822122033390bd69e5cc98f73238b4fb4590d04796c4e99110a13176d35f96e85ed566864736f6c634300081a0033",
					"opcodes": "PUSH1 0x80 PUSH1 0x40 MSTORE CALLVALUE DUP1 ISZERO PUSH2 0xF JUMPI PUSH0 DUP1 REVERT JUMPDEST POP PUSH1 0x40 MLOAD PUSH2 0x8E7 CODESIZE SUB DUP1 PUSH2 0x8E7 DUP4 CODECOPY DUP2 DUP2 ADD PUSH1 0x40 MSTORE DUP2 ADD SWAP1 PUSH2 0x31 SWAP2 SWAP1 PUSH2 0x13E JUMP JUMPDEST DUP2 PUSH0 PUSH1 0x1 PUSH2 0x100 EXP DUP2 SLOAD DUP2 PUSH20 0xFFFFFFFFFFFFFFFFFFFFFFFFFFFFFFFFFFFFFFFF MUL NOT AND SWAP1 DUP4 PUSH20 0xFFFFFFFFFFFFFFFFFFFFFFFFFFFFFFFFFFFFFFFF AND MUL OR SWAP1 SSTORE POP DUP1 PUSH1 0x1 PUSH0 PUSH2 0x100 EXP DUP2 SLOAD DUP2 PUSH20 0xFFFFFFFFFFFFFFFFFFFFFFFFFFFFFFFFFFFFFFFF MUL NOT AND SWAP1 DUP4 PUSH20 0xFFFFFFFFFFFFFFFFFFFFFFFFFFFFFFFFFFFFFFFF AND MUL OR SWAP1 SSTORE POP PUSH0 DUP1 PUSH0 PUSH2 0x100 EXP DUP2 SLOAD DUP2 PUSH1 0xFF MUL NOT AND SWAP1 DUP4 PUSH1 0x2 DUP2 GT ISZERO PUSH2 0xD4 JUMPI PUSH2 0xD3 PUSH2 0x17C JUMP JUMPDEST JUMPDEST MUL OR SWAP1 SSTORE POP POP POP PUSH2 0x1A9 JUMP JUMPDEST PUSH0 DUP1 REVERT JUMPDEST PUSH0 PUSH20 0xFFFFFFFFFFFFFFFFFFFFFFFFFFFFFFFFFFFFFFFF DUP3 AND SWAP1 POP SWAP2 SWAP1 POP JUMP JUMPDEST PUSH0 PUSH2 0x10D DUP3 PUSH2 0xE4 JUMP JUMPDEST SWAP1 POP SWAP2 SWAP1 POP JUMP JUMPDEST PUSH2 0x11D DUP2 PUSH2 0x103 JUMP JUMPDEST DUP2 EQ PUSH2 0x127 JUMPI PUSH0 DUP1 REVERT JUMPDEST POP JUMP JUMPDEST PUSH0 DUP2 MLOAD SWAP1 POP PUSH2 0x138 DUP2 PUSH2 0x114 JUMP JUMPDEST SWAP3 SWAP2 POP POP JUMP JUMPDEST PUSH0 DUP1 PUSH1 0x40 DUP4 DUP6 SUB SLT ISZERO PUSH2 0x154 JUMPI PUSH2 0x153 PUSH2 0xE0 JUMP JUMPDEST JUMPDEST PUSH0 PUSH2 0x161 DUP6 DUP3 DUP7 ADD PUSH2 0x12A JUMP JUMPDEST SWAP3 POP POP PUSH1 0x20 PUSH2 0x172 DUP6 DUP3 DUP7 ADD PUSH2 0x12A JUMP JUMPDEST SWAP2 POP POP SWAP3 POP SWAP3 SWAP1 POP JUMP JUMPDEST PUSH32 0x4E487B7100000000000000000000000000000000000000000000000000000000 PUSH0 MSTORE PUSH1 0x21 PUSH1 0x4 MSTORE PUSH1 0x24 PUSH0 REVERT JUMPDEST PUSH2 0x731 DUP1 PUSH2 0x1B6 PUSH0 CODECOPY PUSH0 RETURN INVALID PUSH1 0x80 PUSH1 0x40 MSTORE PUSH1 0x4 CALLDATASIZE LT PUSH2 0x49 JUMPI PUSH0 CALLDATALOAD PUSH1 0xE0 SHR DUP1 PUSH4 0x8551A53 EQ PUSH2 0x4D JUMPI DUP1 PUSH4 0xC3F6ACF EQ PUSH2 0x77 JUMPI DUP1 PUSH4 0x5E10177B EQ PUSH2 0xA1 JUMPI DUP1 PUSH4 0x7150D8AE EQ PUSH2 0xB7 JUMPI DUP1 PUSH4 0xD0E30DB0 EQ PUSH2 0xE1 JUMPI JUMPDEST PUSH0 DUP1 REVERT JUMPDEST CALLVALUE DUP1 ISZERO PUSH2 0x58 JUMPI PUSH0 DUP1 REVERT JUMPDEST POP PUSH2 0x61 PUSH2 0xEB JUMP JUMPDEST PUSH1 0x40 MLOAD PUSH2 0x6E SWAP2 SWAP1 PUSH2 0x4A7 JUMP JUMPDEST PUSH1 0x40 MLOAD DUP1 SWAP2 SUB SWAP1 RETURN JUMPDEST CALLVALUE DUP1 ISZERO PUSH2 0x82 JUMPI PUSH0 DUP1 REVERT JUMPDEST POP PUSH2 0x8B PUSH2 0x110 JUMP JUMPDEST PUSH1 0x40 MLOAD PUSH2 0x98 SWAP2 SWAP1 PUSH2 0x533 JUMP JUMPDEST PUSH1 0x40 MLOAD DUP1 SWAP2 SUB SWAP1 RETURN JUMPDEST CALLVALUE DUP1 ISZERO PUSH2 0xAC JUMPI PUSH0 DUP1 REVERT JUMPDEST POP PUSH2 0xB5 PUSH2 0x120 JUMP JUMPDEST STOP JUMPDEST CALLVALUE DUP1 ISZERO PUSH2 0xC2 JUMPI PUSH0 DUP1 REVERT JUMPDEST POP PUSH2 0xCB PUSH2 0x317 JUMP JUMPDEST PUSH1 0x40 MLOAD PUSH2 0xD8 SWAP2 SWAP1 PUSH2 0x4A7 JUMP JUMPDEST PUSH1 0x40 MLOAD DUP1 SWAP2 SUB SWAP1 RETURN JUMPDEST PUSH2 0xE9 PUSH2 0x33C JUMP JUMPDEST STOP JUMPDEST PUSH1 0x1 PUSH0 SWAP1 SLOAD SWAP1 PUSH2 0x100 EXP SWAP1 DIV PUSH20 0xFFFFFFFFFFFFFFFFFFFFFFFFFFFFFFFFFFFFFFFF AND DUP2 JUMP JUMPDEST PUSH0 DUP1 SLOAD SWAP1 PUSH2 0x100 EXP SWAP1 DIV PUSH1 0xFF AND DUP2 JUMP JUMPDEST PUSH1 0x1 PUSH1 0x2 DUP2 GT ISZERO PUSH2 0x134 JUMPI PUSH2 0x133 PUSH2 0x4C0 JUMP JUMPDEST JUMPDEST PUSH0 DUP1 SLOAD SWAP1 PUSH2 0x100 EXP SWAP1 DIV PUSH1 0xFF AND PUSH1 0x2 DUP2 GT ISZERO PUSH2 0x153 JUMPI PUSH2 0x152 PUSH2 0x4C0 JUMP JUMPDEST JUMPDEST EQ PUSH2 0x193 JUMPI PUSH1 0x40 MLOAD PUSH32 0x8C379A000000000000000000000000000000000000000000000000000000000 DUP2 MSTORE PUSH1 0x4 ADD PUSH2 0x18A SWAP1 PUSH2 0x5A6 JUMP JUMPDEST PUSH1 0x40 MLOAD DUP1 SWAP2 SUB SWAP1 REVERT JUMPDEST PUSH0 PUSH1 0x1 SWAP1 SLOAD SWAP1 PUSH2 0x100 EXP SWAP1 DIV PUSH20 0xFFFFFFFFFFFFFFFFFFFFFFFFFFFFFFFFFFFFFFFF AND PUSH20 0xFFFFFFFFFFFFFFFFFFFFFFFFFFFFFFFFFFFFFFFF AND CALLER PUSH20 0xFFFFFFFFFFFFFFFFFFFFFFFFFFFFFFFFFFFFFFFF AND EQ PUSH2 0x222 JUMPI PUSH1 0x40 MLOAD PUSH32 0x8C379A000000000000000000000000000000000000000000000000000000000 DUP2 MSTORE PUSH1 0x4 ADD PUSH2 0x219 SWAP1 PUSH2 0x634 JUMP JUMPDEST PUSH1 0x40 MLOAD DUP1 SWAP2 SUB SWAP1 REVERT JUMPDEST PUSH0 PUSH1 0x1 PUSH0 SWAP1 SLOAD SWAP1 PUSH2 0x100 EXP SWAP1 DIV PUSH20 0xFFFFFFFFFFFFFFFFFFFFFFFFFFFFFFFFFFFFFFFF AND PUSH20 0xFFFFFFFFFFFFFFFFFFFFFFFFFFFFFFFFFFFFFFFF AND SELFBALANCE PUSH1 0x40 MLOAD PUSH2 0x268 SWAP1 PUSH2 0x67F JUMP JUMPDEST PUSH0 PUSH1 0x40 MLOAD DUP1 DUP4 SUB DUP2 DUP6 DUP8 GAS CALL SWAP3 POP POP POP RETURNDATASIZE DUP1 PUSH0 DUP2 EQ PUSH2 0x2A2 JUMPI PUSH1 0x40 MLOAD SWAP2 POP PUSH1 0x1F NOT PUSH1 0x3F RETURNDATASIZE ADD AND DUP3 ADD PUSH1 0x40 MSTORE RETURNDATASIZE DUP3 MSTORE RETURNDATASIZE PUSH0 PUSH1 0x20 DUP5 ADD RETURNDATACOPY PUSH2 0x2A7 JUMP JUMPDEST PUSH1 0x60 SWAP2 POP JUMPDEST POP POP SWAP1 POP DUP1 PUSH2 0x2EB JUMPI PUSH1 0x40 MLOAD PUSH32 0x8C379A000000000000000000000000000000000000000000000000000000000 DUP2 MSTORE PUSH1 0x4 ADD PUSH2 0x2E2 SWAP1 PUSH2 0x6DD JUMP JUMPDEST PUSH1 0x40 MLOAD DUP1 SWAP2 SUB SWAP1 REVERT JUMPDEST PUSH1 0x2 PUSH0 DUP1 PUSH2 0x100 EXP DUP2 SLOAD DUP2 PUSH1 0xFF MUL NOT AND SWAP1 DUP4 PUSH1 0x2 DUP2 GT ISZERO PUSH2 0x30F JUMPI PUSH2 0x30E PUSH2 0x4C0 JUMP JUMPDEST JUMPDEST MUL OR SWAP1 SSTORE POP POP JUMP JUMPDEST PUSH0 PUSH1 0x1 SWAP1 SLOAD SWAP1 PUSH2 0x100 EXP SWAP1 DIV PUSH20 0xFFFFFFFFFFFFFFFFFFFFFFFFFFFFFFFFFFFFFFFF AND DUP2 JUMP JUMPDEST PUSH0 PUSH1 0x2 DUP2 GT ISZERO PUSH2 0x34F JUMPI PUSH2 0x34E PUSH2 0x4C0 JUMP JUMPDEST JUMPDEST PUSH0 DUP1 SLOAD SWAP1 PUSH2 0x100 EXP SWAP1 DIV PUSH1 0xFF AND PUSH1 0x2 DUP2 GT ISZERO PUSH2 0x36E JUMPI PUSH2 0x36D PUSH2 0x4C0 JUMP JUMPDEST JUMPDEST EQ PUSH2 0x3AE JUMPI PUSH1 0x40 MLOAD PUSH32 0x8C379A000000000000000000000000000000000000000000000000000000000 DUP2 MSTORE PUSH1 0x4 ADD PUSH2 0x3A5 SWAP1 PUSH2 0x5A6 JUMP JUMPDEST PUSH1 0x40 MLOAD DUP1 SWAP2 SUB SWAP1 REVERT JUMPDEST PUSH0 PUSH1 0x1 SWAP1 SLOAD SWAP1 PUSH2 0x100 EXP SWAP1 DIV PUSH20 0xFFFFFFFFFFFFFFFFFFFFFFFFFFFFFFFFFFFFFFFF AND PUSH20 0xFFFFFFFFFFFFFFFFFFFFFFFFFFFFFFFFFFFFFFFF AND CALLER PUSH20 0xFFFFFFFFFFFFFFFFFFFFFFFFFFFFFFFFFFFFFFFF AND EQ PUSH2 0x43D JUMPI PUSH1 0x40 MLOAD PUSH32 0x8C379A000000000000000000000000000000000000000000000000000000000 DUP2 MSTORE PUSH1 0x4 ADD PUSH2 0x434 SWAP1 PUSH2 0x634 JUMP JUMPDEST PUSH1 0x40 MLOAD DUP1 SWAP2 SUB SWAP1 REVERT JUMPDEST PUSH1 0x1 PUSH0 DUP1 PUSH2 0x100 EXP DUP2 SLOAD DUP2 PUSH1 0xFF MUL NOT AND SWAP1 DUP4 PUSH1 0x2 DUP2 GT ISZERO PUSH2 0x461 JUMPI PUSH2 0x460 PUSH2 0x4C0 JUMP JUMPDEST JUMPDEST MUL OR SWAP1 SSTORE POP JUMP JUMPDEST PUSH0 PUSH20 0xFFFFFFFFFFFFFFFFFFFFFFFFFFFFFFFFFFFFFFFF DUP3 AND SWAP1 POP SWAP2 SWAP1 POP JUMP JUMPDEST PUSH0 PUSH2 0x491 DUP3 PUSH2 0x468 JUMP JUMPDEST SWAP1 POP SWAP2 SWAP1 POP JUMP JUMPDEST PUSH2 0x4A1 DUP2 PUSH2 0x487 JUMP JUMPDEST DUP3 MSTORE POP POP JUMP JUMPDEST PUSH0 PUSH1 0x20 DUP3 ADD SWAP1 POP PUSH2 0x4BA PUSH0 DUP4 ADD DUP5 PUSH2 0x498 JUMP JUMPDEST SWAP3 SWAP2 POP POP JUMP JUMPDEST PUSH32 0x4E487B7100000000000000000000000000000000000000000000000000000000 PUSH0 MSTORE PUSH1 0x21 PUSH1 0x4 MSTORE PUSH1 0x24 PUSH0 REVERT JUMPDEST PUSH1 0x3 DUP2 LT PUSH2 0x4FE JUMPI PUSH2 0x4FD PUSH2 0x4C0 JUMP JUMPDEST JUMPDEST POP JUMP JUMPDEST PUSH0 DUP2 SWAP1 POP PUSH2 0x50E DUP3 PUSH2 0x4ED JUMP JUMPDEST SWAP2 SWAP1 POP JUMP JUMPDEST PUSH0 PUSH2 0x51D DUP3 PUSH2 0x501 JUMP JUMPDEST SWAP1 POP SWAP2 SWAP1 POP JUMP JUMPDEST PUSH2 0x52D DUP2 PUSH2 0x513 JUMP JUMPDEST DUP3 MSTORE POP POP JUMP JUMPDEST PUSH0 PUSH1 0x20 DUP3 ADD SWAP1 POP PUSH2 0x546 PUSH0 DUP4 ADD DUP5 PUSH2 0x524 JUMP JUMPDEST SWAP3 SWAP2 POP POP JUMP JUMPDEST PUSH0 DUP3 DUP3 MSTORE PUSH1 0x20 DUP3 ADD SWAP1 POP SWAP3 SWAP2 POP POP JUMP JUMPDEST PUSH32 0x496E76616C696420537461746500000000000000000000000000000000000000 PUSH0 DUP3 ADD MSTORE POP JUMP JUMPDEST PUSH0 PUSH2 0x590 PUSH1 0xD DUP4 PUSH2 0x54C JUMP JUMPDEST SWAP2 POP PUSH2 0x59B DUP3 PUSH2 0x55C JUMP JUMPDEST PUSH1 0x20 DUP3 ADD SWAP1 POP SWAP2 SWAP1 POP JUMP JUMPDEST PUSH0 PUSH1 0x20 DUP3 ADD SWAP1 POP DUP2 DUP2 SUB PUSH0 DUP4 ADD MSTORE PUSH2 0x5BD DUP2 PUSH2 0x584 JUMP JUMPDEST SWAP1 POP SWAP2 SWAP1 POP JUMP JUMPDEST PUSH32 0x4F6E6C792062757965722063616E2063616C6C20746869732066756E6374696F PUSH0 DUP3 ADD MSTORE PUSH32 0x6E00000000000000000000000000000000000000000000000000000000000000 PUSH1 0x20 DUP3 ADD MSTORE POP JUMP JUMPDEST PUSH0 PUSH2 0x61E PUSH1 0x21 DUP4 PUSH2 0x54C JUMP JUMPDEST SWAP2 POP PUSH2 0x629 DUP3 PUSH2 0x5C4 JUMP JUMPDEST PUSH1 0x40 DUP3 ADD SWAP1 POP SWAP2 SWAP1 POP JUMP JUMPDEST PUSH0 PUSH1 0x20 DUP3 ADD SWAP1 POP DUP2 DUP2 SUB PUSH0 DUP4 ADD MSTORE PUSH2 0x64B DUP2 PUSH2 0x612 JUMP JUMPDEST SWAP1 POP SWAP2 SWAP1 POP JUMP JUMPDEST PUSH0 DUP2 SWAP1 POP SWAP3 SWAP2 POP POP JUMP JUMPDEST POP JUMP JUMPDEST PUSH0 PUSH2 0x66A PUSH0 DUP4 PUSH2 0x652 JUMP JUMPDEST SWAP2 POP PUSH2 0x675 DUP3 PUSH2 0x65C JUMP JUMPDEST PUSH0 DUP3 ADD SWAP1 POP SWAP2 SWAP1 POP JUMP JUMPDEST PUSH0 PUSH2 0x689 DUP3 PUSH2 0x65F JUMP JUMPDEST SWAP2 POP DUP2 SWAP1 POP SWAP2 SWAP1 POP JUMP JUMPDEST PUSH32 0x4661696C656420746F2073656E64206574686572000000000000000000000000 PUSH0 DUP3 ADD MSTORE POP JUMP JUMPDEST PUSH0 PUSH2 0x6C7 PUSH1 0x14 DUP4 PUSH2 0x54C JUMP JUMPDEST SWAP2 POP PUSH2 0x6D2 DUP3 PUSH2 0x693 JUMP JUMPDEST PUSH1 0x20 DUP3 ADD SWAP1 POP SWAP2 SWAP1 POP JUMP JUMPDEST PUSH0 PUSH1 0x20 DUP3 ADD SWAP1 POP DUP2 DUP2 SUB PUSH0 DUP4 ADD MSTORE PUSH2 0x6F4 DUP2 PUSH2 0x6BB JUMP JUMPDEST SWAP1 POP SWAP2 SWAP1 POP JUMP INVALID LOG2 PUSH5 0x6970667358 0x22 SLT KECCAK256 CALLER CODECOPY SIGNEXTEND 0xD6 SWAP15 TLOAD 0xC9 DUP16 PUSH20 0x238B4FB4590D04796C4E99110A13176D35F96E85 0xED JUMP PUSH9 0x64736F6C634300081A STOP CALLER "
				},
				"gasEstimates": {
					"creation": {
						"codeDepositCost": "368200",
						"executionCost": "infinite",
						"totalCost": "infinite"
					},
					"external": {
						"buyer()": "2602",
						"confirmDelivery()": "infinite",
						"currentState()": "2551",
						"deposit()": "28896",
						"seller()": "2486"
					}
				},
				"methodIdentifiers": {
					"buyer()": "7150d8ae",
					"confirmDelivery()": "5e10177b",
					"currentState()": "0c3f6acf",
					"deposit()": "d0e30db0",
					"seller()": "08551a53"
				}
			},
			"storageLayout": {
				"storage": [
					{
						"astId": 8,
						"contract": "contracts/StateMachinePatter.sol:Escrow",
						"label": "currentState",
						"offset": 0,
						"slot": "0",
						"type": "t_enum(State)5"
					},
					{
						"astId": 10,
						"contract": "contracts/StateMachinePatter.sol:Escrow",
						"label": "buyer",
						"offset": 1,
						"slot": "0",
						"type": "t_address"
					},
					{
						"astId": 12,
						"contract": "contracts/StateMachinePatter.sol:Escrow",
						"label": "seller",
						"offset": 0,
						"slot": "1",
						"type": "t_address"
					}
				],
				"types": {
					"t_address": {
						"encoding": "inplace",
						"label": "address",
						"numberOfBytes": "20"
					},
					"t_enum(State)5": {
						"encoding": "inplace",
						"label": "enum Escrow.State",
						"numberOfBytes": "1"
					}
				}
			},
			"userdoc": {
				"kind": "user",
				"methods": {},
				"version": 1
			}
		}
	}
}