{
	"contracts/HealthRecords.sol": {
		"HealthRecords": {
			"abi": [
				{
					"inputs": [],
					"name": "AccessControlBadConfirmation",
					"type": "error"
				},
				{
					"inputs": [
						{
							"internalType": "address",
							"name": "account",
							"type": "address"
						},
						{
							"internalType": "bytes32",
							"name": "neededRole",
							"type": "bytes32"
						}
					],
					"name": "AccessControlUnauthorizedAccount",
					"type": "error"
				},
				{
					"inputs": [],
					"name": "InvalidInitialization",
					"type": "error"
				},
				{
					"inputs": [],
					"name": "NotInitializing",
					"type": "error"
				},
				{
					"anonymous": false,
					"inputs": [
						{
							"indexed": true,
							"internalType": "address",
							"name": "patient",
							"type": "address"
						},
						{
							"indexed": true,
							"internalType": "address",
							"name": "hospital",
							"type": "address"
						}
					],
					"name": "ConsentGranted",
					"type": "event"
				},
				{
					"anonymous": false,
					"inputs": [
						{
							"indexed": true,
							"internalType": "address",
							"name": "patient",
							"type": "address"
						},
						{
							"indexed": true,
							"internalType": "address",
							"name": "hospital",
							"type": "address"
						}
					],
					"name": "ConsentRevoked",
					"type": "event"
				},
				{
					"anonymous": false,
					"inputs": [
						{
							"indexed": false,
							"internalType": "address",
							"name": "newImplementation",
							"type": "address"
						}
					],
					"name": "ContractUpgraded",
					"type": "event"
				},
				{
					"anonymous": false,
					"inputs": [
						{
							"indexed": true,
							"internalType": "address",
							"name": "patient",
							"type": "address"
						},
						{
							"indexed": true,
							"internalType": "address",
							"name": "hospital",
							"type": "address"
						},
						{
							"indexed": false,
							"internalType": "uint256",
							"name": "expirationTime",
							"type": "uint256"
						}
					],
					"name": "EmergencyAccessGranted",
					"type": "event"
				},
				{
					"anonymous": false,
					"inputs": [
						{
							"indexed": true,
							"internalType": "address",
							"name": "hospitalAddress",
							"type": "address"
						},
						{
							"indexed": false,
							"internalType": "string",
							"name": "name",
							"type": "string"
						}
					],
					"name": "HospitalRegistered",
					"type": "event"
				},
				{
					"anonymous": false,
					"inputs": [
						{
							"indexed": false,
							"internalType": "uint64",
							"name": "version",
							"type": "uint64"
						}
					],
					"name": "Initialized",
					"type": "event"
				},
				{
					"anonymous": false,
					"inputs": [
						{
							"indexed": true,
							"internalType": "address",
							"name": "patient",
							"type": "address"
						},
						{
							"indexed": false,
							"internalType": "string",
							"name": "dataStandard",
							"type": "string"
						}
					],
					"name": "InteroperableDataImported",
					"type": "event"
				},
				{
					"anonymous": false,
					"inputs": [
						{
							"indexed": true,
							"internalType": "address",
							"name": "patientAddress",
							"type": "address"
						},
						{
							"indexed": false,
							"internalType": "string",
							"name": "name",
							"type": "string"
						}
					],
					"name": "PatientRegistered",
					"type": "event"
				},
				{
					"anonymous": false,
					"inputs": [
						{
							"indexed": false,
							"internalType": "address",
							"name": "account",
							"type": "address"
						}
					],
					"name": "Paused",
					"type": "event"
				},
				{
					"anonymous": false,
					"inputs": [
						{
							"indexed": true,
							"internalType": "address",
							"name": "patient",
							"type": "address"
						},
						{
							"indexed": true,
							"internalType": "uint256",
							"name": "recordId",
							"type": "uint256"
						},
						{
							"indexed": false,
							"internalType": "string",
							"name": "dataType",
							"type": "string"
						}
					],
					"name": "RecordUploaded",
					"type": "event"
				},
				{
					"anonymous": false,
					"inputs": [
						{
							"indexed": true,
							"internalType": "bytes32",
							"name": "role",
							"type": "bytes32"
						},
						{
							"indexed": true,
							"internalType": "bytes32",
							"name": "previousAdminRole",
							"type": "bytes32"
						},
						{
							"indexed": true,
							"internalType": "bytes32",
							"name": "newAdminRole",
							"type": "bytes32"
						}
					],
					"name": "RoleAdminChanged",
					"type": "event"
				},
				{
					"anonymous": false,
					"inputs": [
						{
							"indexed": true,
							"internalType": "bytes32",
							"name": "role",
							"type": "bytes32"
						},
						{
							"indexed": true,
							"internalType": "address",
							"name": "account",
							"type": "address"
						},
						{
							"indexed": true,
							"internalType": "address",
							"name": "sender",
							"type": "address"
						}
					],
					"name": "RoleGranted",
					"type": "event"
				},
				{
					"anonymous": false,
					"inputs": [
						{
							"indexed": true,
							"internalType": "bytes32",
							"name": "role",
							"type": "bytes32"
						},
						{
							"indexed": true,
							"internalType": "address",
							"name": "account",
							"type": "address"
						},
						{
							"indexed": true,
							"internalType": "address",
							"name": "sender",
							"type": "address"
						}
					],
					"name": "RoleRevoked",
					"type": "event"
				},
				{
					"anonymous": false,
					"inputs": [
						{
							"indexed": false,
							"internalType": "address",
							"name": "account",
							"type": "address"
						}
					],
					"name": "Unpaused",
					"type": "event"
				},
				{
					"inputs": [],
					"name": "ADMIN_ROLE",
					"outputs": [
						{
							"internalType": "bytes32",
							"name": "",
							"type": "bytes32"
						}
					],
					"stateMutability": "view",
					"type": "function"
				},
				{
					"inputs": [],
					"name": "DEFAULT_ADMIN_ROLE",
					"outputs": [
						{
							"internalType": "bytes32",
							"name": "",
							"type": "bytes32"
						}
					],
					"stateMutability": "view",
					"type": "function"
				},
				{
					"inputs": [],
					"name": "EMERGENCY_ACCESS_DURATION",
					"outputs": [
						{
							"internalType": "uint256",
							"name": "",
							"type": "uint256"
						}
					],
					"stateMutability": "view",
					"type": "function"
				},
				{
					"inputs": [],
					"name": "HOSPITAL_ROLE",
					"outputs": [
						{
							"internalType": "bytes32",
							"name": "",
							"type": "bytes32"
						}
					],
					"stateMutability": "view",
					"type": "function"
				},
				{
					"inputs": [],
					"name": "PATIENT_ROLE",
					"outputs": [
						{
							"internalType": "bytes32",
							"name": "",
							"type": "bytes32"
						}
					],
					"stateMutability": "view",
					"type": "function"
				},
				{
					"inputs": [
						{
							"internalType": "address",
							"name": "_patientAddress",
							"type": "address"
						}
					],
					"name": "getPatientRecordCount",
					"outputs": [
						{
							"internalType": "uint256",
							"name": "",
							"type": "uint256"
						}
					],
					"stateMutability": "view",
					"type": "function"
				},
				{
					"inputs": [
						{
							"internalType": "address",
							"name": "_patientAddress",
							"type": "address"
						},
						{
							"internalType": "uint256",
							"name": "_recordId",
							"type": "uint256"
						}
					],
					"name": "getRecord",
					"outputs": [
						{
							"internalType": "string",
							"name": "",
							"type": "string"
						},
						{
							"internalType": "string",
							"name": "",
							"type": "string"
						},
						{
							"internalType": "uint256",
							"name": "",
							"type": "uint256"
						},
						{
							"internalType": "address",
							"name": "",
							"type": "address"
						}
					],
					"stateMutability": "view",
					"type": "function"
				},
				{
					"inputs": [
						{
							"internalType": "bytes32",
							"name": "role",
							"type": "bytes32"
						}
					],
					"name": "getRoleAdmin",
					"outputs": [
						{
							"internalType": "bytes32",
							"name": "",
							"type": "bytes32"
						}
					],
					"stateMutability": "view",
					"type": "function"
				},
				{
					"inputs": [
						{
							"internalType": "address",
							"name": "_hospitalAddress",
							"type": "address"
						}
					],
					"name": "grantConsent",
					"outputs": [],
					"stateMutability": "nonpayable",
					"type": "function"
				},
				{
					"inputs": [
						{
							"internalType": "address",
							"name": "_hospitalAddress",
							"type": "address"
						}
					],
					"name": "grantEmergencyAccess",
					"outputs": [],
					"stateMutability": "nonpayable",
					"type": "function"
				},
				{
					"inputs": [
						{
							"internalType": "bytes32",
							"name": "role",
							"type": "bytes32"
						},
						{
							"internalType": "address",
							"name": "account",
							"type": "address"
						}
					],
					"name": "grantRole",
					"outputs": [],
					"stateMutability": "nonpayable",
					"type": "function"
				},
				{
					"inputs": [
						{
							"internalType": "bytes32",
							"name": "role",
							"type": "bytes32"
						},
						{
							"internalType": "address",
							"name": "account",
							"type": "address"
						}
					],
					"name": "hasRole",
					"outputs": [
						{
							"internalType": "bool",
							"name": "",
							"type": "bool"
						}
					],
					"stateMutability": "view",
					"type": "function"
				},
				{
					"inputs": [
						{
							"internalType": "address",
							"name": "",
							"type": "address"
						}
					],
					"name": "hospitals",
					"outputs": [
						{
							"internalType": "string",
							"name": "name",
							"type": "string"
						},
						{
							"internalType": "bool",
							"name": "isActive",
							"type": "bool"
						},
						{
							"internalType": "uint256",
							"name": "registrationDate",
							"type": "uint256"
						}
					],
					"stateMutability": "view",
					"type": "function"
				},
				{
					"inputs": [
						{
							"internalType": "string",
							"name": "_dataStandard",
							"type": "string"
						}
					],
					"name": "importInteroperableData",
					"outputs": [],
					"stateMutability": "nonpayable",
					"type": "function"
				},
				{
					"inputs": [
						{
							"internalType": "address",
							"name": "initialAdmin",
							"type": "address"
						}
					],
					"name": "initialize",
					"outputs": [],
					"stateMutability": "nonpayable",
					"type": "function"
				},
				{
					"inputs": [
						{
							"internalType": "address",
							"name": "_hospitalAddress",
							"type": "address"
						}
					],
					"name": "isEmergencyAccess",
					"outputs": [
						{
							"internalType": "bool",
							"name": "",
							"type": "bool"
						}
					],
					"stateMutability": "view",
					"type": "function"
				},
				{
					"inputs": [
						{
							"internalType": "address",
							"name": "",
							"type": "address"
						}
					],
					"name": "patients",
					"outputs": [
						{
							"internalType": "string",
							"name": "name",
							"type": "string"
						},
						{
							"internalType": "uint256",
							"name": "dateOfBirth",
							"type": "uint256"
						},
						{
							"internalType": "bool",
							"name": "exists",
							"type": "bool"
						},
						{
							"internalType": "address",
							"name": "emergencyContact",
							"type": "address"
						}
					],
					"stateMutability": "view",
					"type": "function"
				},
				{
					"inputs": [],
					"name": "pause",
					"outputs": [],
					"stateMutability": "nonpayable",
					"type": "function"
				},
				{
					"inputs": [],
					"name": "paused",
					"outputs": [
						{
							"internalType": "bool",
							"name": "",
							"type": "bool"
						}
					],
					"stateMutability": "view",
					"type": "function"
				},
				{
					"inputs": [
						{
							"internalType": "address",
							"name": "_hospitalAddress",
							"type": "address"
						},
						{
							"internalType": "string",
							"name": "_name",
							"type": "string"
						}
					],
					"name": "registerHospital",
					"outputs": [],
					"stateMutability": "nonpayable",
					"type": "function"
				},
				{
					"inputs": [
						{
							"internalType": "string",
							"name": "_name",
							"type": "string"
						},
						{
							"internalType": "uint256",
							"name": "_dateOfBirth",
							"type": "uint256"
						},
						{
							"internalType": "string[]",
							"name": "_allergies",
							"type": "string[]"
						},
						{
							"internalType": "address",
							"name": "_emergencyContact",
							"type": "address"
						}
					],
					"name": "registerPatient",
					"outputs": [],
					"stateMutability": "nonpayable",
					"type": "function"
				},
				{
					"inputs": [
						{
							"internalType": "bytes32",
							"name": "role",
							"type": "bytes32"
						},
						{
							"internalType": "address",
							"name": "callerConfirmation",
							"type": "address"
						}
					],
					"name": "renounceRole",
					"outputs": [],
					"stateMutability": "nonpayable",
					"type": "function"
				},
				{
					"inputs": [
						{
							"internalType": "address",
							"name": "_hospitalAddress",
							"type": "address"
						}
					],
					"name": "revokeConsent",
					"outputs": [],
					"stateMutability": "nonpayable",
					"type": "function"
				},
				{
					"inputs": [
						{
							"internalType": "bytes32",
							"name": "role",
							"type": "bytes32"
						},
						{
							"internalType": "address",
							"name": "account",
							"type": "address"
						}
					],
					"name": "revokeRole",
					"outputs": [],
					"stateMutability": "nonpayable",
					"type": "function"
				},
				{
					"inputs": [
						{
							"internalType": "bytes4",
							"name": "interfaceId",
							"type": "bytes4"
						}
					],
					"name": "supportsInterface",
					"outputs": [
						{
							"internalType": "bool",
							"name": "",
							"type": "bool"
						}
					],
					"stateMutability": "view",
					"type": "function"
				},
				{
					"inputs": [],
					"name": "unpause",
					"outputs": [],
					"stateMutability": "nonpayable",
					"type": "function"
				},
				{
					"inputs": [
						{
							"internalType": "address",
							"name": "newImplementation",
							"type": "address"
						}
					],
					"name": "upgradeContract",
					"outputs": [],
					"stateMutability": "nonpayable",
					"type": "function"
				},
				{
					"inputs": [
						{
							"internalType": "address",
							"name": "_patientAddress",
							"type": "address"
						},
						{
							"internalType": "string",
							"name": "_data",
							"type": "string"
						},
						{
							"internalType": "string",
							"name": "_dataType",
							"type": "string"
						}
					],
					"name": "uploadRecord",
					"outputs": [],
					"stateMutability": "nonpayable",
					"type": "function"
				}
			],
			"devdoc": {
				"errors": {
					"AccessControlBadConfirmation()": [
						{
							"details": "The caller of a function is not the expected one. NOTE: Don't confuse with {AccessControlUnauthorizedAccount}."
						}
					],
					"AccessControlUnauthorizedAccount(address,bytes32)": [
						{
							"details": "The `account` is missing a role."
						}
					],
					"InvalidInitialization()": [
						{
							"details": "The contract is already initialized."
						}
					],
					"NotInitializing()": [
						{
							"details": "The contract is not initializing."
						}
					]
				},
				"events": {
					"Initialized(uint64)": {
						"details": "Triggered when the contract has been initialized or reinitialized."
					},
					"Paused(address)": {
						"details": "Emitted when the pause is triggered by `account`."
					},
					"RoleAdminChanged(bytes32,bytes32,bytes32)": {
						"details": "Emitted when `newAdminRole` is set as ``role``'s admin role, replacing `previousAdminRole` `DEFAULT_ADMIN_ROLE` is the starting admin for all roles, despite {RoleAdminChanged} not being emitted signaling this."
					},
					"RoleGranted(bytes32,address,address)": {
						"details": "Emitted when `account` is granted `role`. `sender` is the account that originated the contract call, an admin role bearer except when using {AccessControl-_setupRole}."
					},
					"RoleRevoked(bytes32,address,address)": {
						"details": "Emitted when `account` is revoked `role`. `sender` is the account that originated the contract call:   - if using `revokeRole`, it is the admin role bearer   - if using `renounceRole`, it is the role bearer (i.e. `account`)"
					},
					"Unpaused(address)": {
						"details": "Emitted when the pause is lifted by `account`."
					}
				},
				"kind": "dev",
				"methods": {
					"getRoleAdmin(bytes32)": {
						"details": "Returns the admin role that controls `role`. See {grantRole} and {revokeRole}. To change a role's admin, use {_setRoleAdmin}."
					},
					"grantRole(bytes32,address)": {
						"details": "Grants `role` to `account`. If `account` had not been already granted `role`, emits a {RoleGranted} event. Requirements: - the caller must have ``role``'s admin role. May emit a {RoleGranted} event."
					},
					"hasRole(bytes32,address)": {
						"details": "Returns `true` if `account` has been granted `role`."
					},
					"paused()": {
						"details": "Returns true if the contract is paused, and false otherwise."
					},
					"renounceRole(bytes32,address)": {
						"details": "Revokes `role` from the calling account. Roles are often managed via {grantRole} and {revokeRole}: this function's purpose is to provide a mechanism for accounts to lose their privileges if they are compromised (such as when a trusted device is misplaced). If the calling account had been revoked `role`, emits a {RoleRevoked} event. Requirements: - the caller must be `callerConfirmation`. May emit a {RoleRevoked} event."
					},
					"revokeRole(bytes32,address)": {
						"details": "Revokes `role` from `account`. If `account` had been granted `role`, emits a {RoleRevoked} event. Requirements: - the caller must have ``role``'s admin role. May emit a {RoleRevoked} event."
					},
					"supportsInterface(bytes4)": {
						"details": "See {IERC165-supportsInterface}."
					}
				},
				"version": 1
			},
			"evm": {
				"assembly": "    /* \"contracts/HealthRecords.sol\":389:6824  contract HealthRecords is Initializable, AccessControlUpgradeable, PausableUpgradeable, ReentrancyGuardUpgradeable {... */\n  mstore(0x40, 0x80)\n  callvalue\n  dup1\n  iszero\n  tag_1\n  jumpi\n  0x00\n  dup1\n  revert\ntag_1:\n  pop\n  dataSize(sub_0)\n  dup1\n  dataOffset(sub_0)\n  0x00\n  codecopy\n  0x00\n  return\nstop\n\nsub_0: assembly {\n        /* \"contracts/HealthRecords.sol\":389:6824  contract HealthRecords is Initializable, AccessControlUpgradeable, PausableUpgradeable, ReentrancyGuardUpgradeable {... */\n      mstore(0x40, 0x80)\n      callvalue\n      dup1\n      iszero\n      tag_1\n      jumpi\n      0x00\n      dup1\n      revert\n    tag_1:\n      pop\n      jumpi(tag_2, lt(calldatasize, 0x04))\n      shr(0xe0, calldataload(0x00))\n      dup1\n      0x8456cb59\n      gt\n      tag_31\n      jumpi\n      dup1\n      0xc4d66de8\n      gt\n      tag_32\n      jumpi\n      dup1\n      0xd547741f\n      gt\n      tag_33\n      jumpi\n      dup1\n      0xd547741f\n      eq\n      tag_27\n      jumpi\n      dup1\n      0xeb2c0223\n      eq\n      tag_28\n      jumpi\n      dup1\n      0xf093cf80\n      eq\n      tag_29\n      jumpi\n      dup1\n      0xf6ba6678\n      eq\n      tag_30\n      jumpi\n      jump(tag_2)\n    tag_33:\n      dup1\n      0xc4d66de8\n      eq\n      tag_24\n      jumpi\n      dup1\n      0xcdb8acf0\n      eq\n      tag_25\n      jumpi\n      dup1\n      0xd1a48627\n      eq\n      tag_26\n      jumpi\n      jump(tag_2)\n    tag_32:\n      dup1\n      0xa79861f1\n      gt\n      tag_34\n      jumpi\n      dup1\n      0xa79861f1\n      eq\n      tag_20\n      jumpi\n      dup1\n      0xaabc4280\n      eq\n      tag_21\n      jumpi\n      dup1\n      0xac5cb97d\n      eq\n      tag_22\n      jumpi\n      dup1\n      0xb696a148\n      eq\n      tag_23\n      jumpi\n      jump(tag_2)\n    tag_34:\n      dup1\n      0x8456cb59\n      eq\n      tag_17\n      jumpi\n      dup1\n      0x91d14854\n      eq\n      tag_18\n      jumpi\n      dup1\n      0xa217fddf\n      eq\n      tag_19\n      jumpi\n      jump(tag_2)\n    tag_31:\n      dup1\n      0x38d4ea23\n      gt\n      tag_35\n      jumpi\n      dup1\n      0x3f4ba83a\n      gt\n      tag_36\n      jumpi\n      dup1\n      0x3f4ba83a\n      eq\n      tag_13\n      jumpi\n      dup1\n      0x4fbaa023\n      eq\n      tag_14\n      jumpi\n      dup1\n      0x5c975abb\n      eq\n      tag_15\n      jumpi\n      dup1\n      0x75b238fc\n      eq\n      tag_16\n      jumpi\n      jump(tag_2)\n    tag_36:\n      dup1\n      0x38d4ea23\n      eq\n      tag_10\n      jumpi\n      dup1\n      0x3b0f4ada\n      eq\n      tag_11\n      jumpi\n      dup1\n      0x3b8b20cb\n      eq\n      tag_12\n      jumpi\n      jump(tag_2)\n    tag_35:\n      dup1\n      0x2114ef1f\n      gt\n      tag_37\n      jumpi\n      dup1\n      0x2114ef1f\n      eq\n      tag_6\n      jumpi\n      dup1\n      0x248a9ca3\n      eq\n      tag_7\n      jumpi\n      dup1\n      0x2f2ff15d\n      eq\n      tag_8\n      jumpi\n      dup1\n      0x36568abe\n      eq\n      tag_9\n      jumpi\n      jump(tag_2)\n    tag_37:\n      dup1\n      0x01ffc9a7\n      eq\n      tag_3\n      jumpi\n      dup1\n      0x0869cfbc\n      eq\n      tag_4\n      jumpi\n      dup1\n      0x0a9682ad\n      eq\n      tag_5\n      jumpi\n    tag_2:\n      0x00\n      dup1\n      revert\n        /* \"@openzeppelin/contracts-upgradeable/access/AccessControlUpgradeable.sol\":3443:3645  function supportsInterface(bytes4 interfaceId) public view virtual override returns (bool) {... */\n    tag_3:\n      tag_38\n      0x04\n      dup1\n      calldatasize\n      sub\n      dup2\n      add\n      swap1\n      tag_39\n      swap2\n      swap1\n      tag_40\n      jump\t// in\n    tag_39:\n      tag_41\n      jump\t// in\n    tag_38:\n      mload(0x40)\n      tag_42\n      swap2\n      swap1\n      tag_43\n      jump\t// in\n    tag_42:\n      mload(0x40)\n      dup1\n      swap2\n      sub\n      swap1\n      return\n        /* \"contracts/HealthRecords.sol\":1200:1243  mapping(address => Patient) public patients */\n    tag_4:\n      tag_44\n      0x04\n      dup1\n      calldatasize\n      sub\n      dup2\n      add\n      swap1\n      tag_45\n      swap2\n      swap1\n      tag_46\n      jump\t// in\n    tag_45:\n      tag_47\n      jump\t// in\n    tag_44:\n      mload(0x40)\n      tag_48\n      swap5\n      swap4\n      swap3\n      swap2\n      swap1\n      tag_49\n      jump\t// in\n    tag_48:\n      mload(0x40)\n      dup1\n      swap2\n      sub\n      swap1\n      return\n        /* \"contracts/HealthRecords.sol\":4691:4943  function getPatientRecordCount(address _patientAddress) public view returns (uint256) {... */\n    tag_5:\n      tag_50\n      0x04\n      dup1\n      calldatasize\n      sub\n      dup2\n      add\n      swap1\n      tag_51\n      swap2\n      swap1\n      tag_46\n      jump\t// in\n    tag_51:\n      tag_52\n      jump\t// in\n    tag_50:\n      mload(0x40)\n      tag_53\n      swap2\n      swap1\n      tag_54\n      jump\t// in\n    tag_53:\n      mload(0x40)\n      dup1\n      swap2\n      sub\n      swap1\n      return\n        /* \"contracts/HealthRecords.sol\":1538:1598  uint256 public constant EMERGENCY_ACCESS_DURATION = 24 hours */\n    tag_6:\n      tag_55\n      tag_56\n      jump\t// in\n    tag_55:\n      mload(0x40)\n      tag_57\n      swap2\n      swap1\n      tag_54\n      jump\t// in\n    tag_57:\n      mload(0x40)\n      dup1\n      swap2\n      sub\n      swap1\n      return\n        /* \"@openzeppelin/contracts-upgradeable/access/AccessControlUpgradeable.sol\":4759:4950  function getRoleAdmin(bytes32 role) public view virtual returns (bytes32) {... */\n    tag_7:\n      tag_58\n      0x04\n      dup1\n      calldatasize\n      sub\n      dup2\n      add\n      swap1\n      tag_59\n      swap2\n      swap1\n      tag_60\n      jump\t// in\n    tag_59:\n      tag_61\n      jump\t// in\n    tag_58:\n      mload(0x40)\n      tag_62\n      swap2\n      swap1\n      tag_63\n      jump\t// in\n    tag_62:\n      mload(0x40)\n      dup1\n      swap2\n      sub\n      swap1\n      return\n        /* \"@openzeppelin/contracts-upgradeable/access/AccessControlUpgradeable.sol\":5246:5382  function grantRole(bytes32 role, address account) public virtual onlyRole(getRoleAdmin(role)) {... */\n    tag_8:\n      tag_64\n      0x04\n      dup1\n      calldatasize\n      sub\n      dup2\n      add\n      swap1\n      tag_65\n      swap2\n      swap1\n      tag_66\n      jump\t// in\n    tag_65:\n      tag_67\n      jump\t// in\n    tag_64:\n      stop\n        /* \"@openzeppelin/contracts-upgradeable/access/AccessControlUpgradeable.sol\":6348:6593  function renounceRole(bytes32 role, address callerConfirmation) public virtual {... */\n    tag_9:\n      tag_68\n      0x04\n      dup1\n      calldatasize\n      sub\n      dup2\n      add\n      swap1\n      tag_69\n      swap2\n      swap1\n      tag_66\n      jump\t// in\n    tag_69:\n      tag_70\n      jump\t// in\n    tag_68:\n      stop\n        /* \"contracts/HealthRecords.sol\":3358:4019  function uploadRecord(address _patientAddress, string memory _data, string memory _dataType) public onlyRole(HOSPITAL_ROLE) whenNotPaused nonReentrant {... */\n    tag_10:\n      tag_71\n      0x04\n      dup1\n      calldatasize\n      sub\n      dup2\n      add\n      swap1\n      tag_72\n      swap2\n      swap1\n      tag_73\n      jump\t// in\n    tag_72:\n      tag_74\n      jump\t// in\n    tag_71:\n      stop\n        /* \"contracts/HealthRecords.sol\":5906:6074  function isEmergencyAccess(address _hospitalAddress) public view returns (bool) {... */\n    tag_11:\n      tag_75\n      0x04\n      dup1\n      calldatasize\n      sub\n      dup2\n      add\n      swap1\n      tag_76\n      swap2\n      swap1\n      tag_46\n      jump\t// in\n    tag_76:\n      tag_77\n      jump\t// in\n    tag_75:\n      mload(0x40)\n      tag_78\n      swap2\n      swap1\n      tag_43\n      jump\t// in\n    tag_78:\n      mload(0x40)\n      dup1\n      swap2\n      sub\n      swap1\n      return\n        /* \"contracts/HealthRecords.sol\":2936:3350  function registerPatient(string memory _name, uint256 _dateOfBirth, string[] memory _allergies, address _emergencyContact) public {... */\n    tag_12:\n      tag_79\n      0x04\n      dup1\n      calldatasize\n      sub\n      dup2\n      add\n      swap1\n      tag_80\n      swap2\n      swap1\n      tag_81\n      jump\t// in\n    tag_80:\n      tag_82\n      jump\t// in\n    tag_79:\n      stop\n        /* \"contracts/HealthRecords.sol\":6529:6605  function unpause() public onlyRole(ADMIN_ROLE) {... */\n    tag_13:\n      tag_83\n      tag_84\n      jump\t// in\n    tag_83:\n      stop\n        /* \"contracts/HealthRecords.sol\":2539:2928  function registerHospital(address _hospitalAddress, string memory _name) public onlyRole(ADMIN_ROLE) {... */\n    tag_14:\n      tag_85\n      0x04\n      dup1\n      calldatasize\n      sub\n      dup2\n      add\n      swap1\n      tag_86\n      swap2\n      swap1\n      tag_87\n      jump\t// in\n    tag_86:\n      tag_88\n      jump\t// in\n    tag_85:\n      stop\n        /* \"@openzeppelin/contracts-upgradeable/security/PausableUpgradeable.sol\":1879:1963  function paused() public view virtual returns (bool) {... */\n    tag_15:\n      tag_89\n      tag_90\n      jump\t// in\n    tag_89:\n      mload(0x40)\n      tag_91\n      swap2\n      swap1\n      tag_43\n      jump\t// in\n    tag_91:\n      mload(0x40)\n      dup1\n      swap2\n      sub\n      swap1\n      return\n        /* \"contracts/HealthRecords.sol\":511:571  bytes32 public constant ADMIN_ROLE = keccak256(\"ADMIN_ROLE\") */\n    tag_16:\n      tag_92\n      tag_93\n      jump\t// in\n    tag_92:\n      mload(0x40)\n      tag_94\n      swap2\n      swap1\n      tag_63\n      jump\t// in\n    tag_94:\n      mload(0x40)\n      dup1\n      swap2\n      sub\n      swap1\n      return\n        /* \"contracts/HealthRecords.sol\":6449:6521  function pause() public onlyRole(ADMIN_ROLE) {... */\n    tag_17:\n      tag_95\n      tag_96\n      jump\t// in\n    tag_95:\n      stop\n        /* \"@openzeppelin/contracts-upgradeable/access/AccessControlUpgradeable.sol\":3732:3939  function hasRole(bytes32 role, address account) public view virtual returns (bool) {... */\n    tag_18:\n      tag_97\n      0x04\n      dup1\n      calldatasize\n      sub\n      dup2\n      add\n      swap1\n      tag_98\n      swap2\n      swap1\n      tag_66\n      jump\t// in\n    tag_98:\n      tag_99\n      jump\t// in\n    tag_97:\n      mload(0x40)\n      tag_100\n      swap2\n      swap1\n      tag_43\n      jump\t// in\n    tag_100:\n      mload(0x40)\n      dup1\n      swap2\n      sub\n      swap1\n      return\n        /* \"@openzeppelin/contracts-upgradeable/access/AccessControlUpgradeable.sol\":2317:2366  bytes32 public constant DEFAULT_ADMIN_ROLE = 0x00 */\n    tag_19:\n      tag_101\n      tag_102\n      jump\t// in\n    tag_101:\n      mload(0x40)\n      tag_103\n      swap2\n      swap1\n      tag_63\n      jump\t// in\n    tag_103:\n      mload(0x40)\n      dup1\n      swap2\n      sub\n      swap1\n      return\n        /* \"contracts/HealthRecords.sol\":4951:5255  function grantConsent(address _hospitalAddress) public onlyRole(PATIENT_ROLE) whenNotPaused {... */\n    tag_20:\n      tag_104\n      0x04\n      dup1\n      calldatasize\n      sub\n      dup2\n      add\n      swap1\n      tag_105\n      swap2\n      swap1\n      tag_46\n      jump\t// in\n    tag_105:\n      tag_106\n      jump\t// in\n    tag_104:\n      stop\n        /* \"contracts/HealthRecords.sol\":5495:5898  function grantEmergencyAccess(address _hospitalAddress) public onlyRole(PATIENT_ROLE) whenNotPaused {... */\n    tag_21:\n      tag_107\n      0x04\n      dup1\n      calldatasize\n      sub\n      dup2\n      add\n      swap1\n      tag_108\n      swap2\n      swap1\n      tag_46\n      jump\t// in\n    tag_108:\n      tag_109\n      jump\t// in\n    tag_107:\n      stop\n        /* \"contracts/HealthRecords.sol\":651:715  bytes32 public constant PATIENT_ROLE = keccak256(\"PATIENT_ROLE\") */\n    tag_22:\n      tag_110\n      tag_111\n      jump\t// in\n    tag_110:\n      mload(0x40)\n      tag_112\n      swap2\n      swap1\n      tag_63\n      jump\t// in\n    tag_112:\n      mload(0x40)\n      dup1\n      swap2\n      sub\n      swap1\n      return\n        /* \"contracts/HealthRecords.sol\":6082:6441  function importInteroperableData(string memory _dataStandard) public onlyRole(HOSPITAL_ROLE) whenNotPaused {... */\n    tag_23:\n      tag_113\n      0x04\n      dup1\n      calldatasize\n      sub\n      dup2\n      add\n      swap1\n      tag_114\n      swap2\n      swap1\n      tag_115\n      jump\t// in\n    tag_114:\n      tag_116\n      jump\t// in\n    tag_113:\n      stop\n        /* \"contracts/HealthRecords.sol\":2262:2531  function initialize(address initialAdmin) public initializer {... */\n    tag_24:\n      tag_117\n      0x04\n      dup1\n      calldatasize\n      sub\n      dup2\n      add\n      swap1\n      tag_118\n      swap2\n      swap1\n      tag_46\n      jump\t// in\n    tag_118:\n      tag_119\n      jump\t// in\n    tag_117:\n      stop\n        /* \"contracts/HealthRecords.sol\":4027:4683  function getRecord(address _patientAddress, uint256 _recordId) public view returns (string memory, string memory, uint256, address) {... */\n    tag_25:\n      tag_120\n      0x04\n      dup1\n      calldatasize\n      sub\n      dup2\n      add\n      swap1\n      tag_121\n      swap2\n      swap1\n      tag_122\n      jump\t// in\n    tag_121:\n      tag_123\n      jump\t// in\n    tag_120:\n      mload(0x40)\n      tag_124\n      swap5\n      swap4\n      swap3\n      swap2\n      swap1\n      tag_125\n      jump\t// in\n    tag_124:\n      mload(0x40)\n      dup1\n      swap2\n      sub\n      swap1\n      return\n        /* \"contracts/HealthRecords.sol\":5263:5487  function revokeConsent(address _hospitalAddress) public onlyRole(PATIENT_ROLE) whenNotPaused {... */\n    tag_26:\n      tag_126\n      0x04\n      dup1\n      calldatasize\n      sub\n      dup2\n      add\n      swap1\n      tag_127\n      swap2\n      swap1\n      tag_46\n      jump\t// in\n    tag_127:\n      tag_128\n      jump\t// in\n    tag_126:\n      stop\n        /* \"@openzeppelin/contracts-upgradeable/access/AccessControlUpgradeable.sol\":5662:5800  function revokeRole(bytes32 role, address account) public virtual onlyRole(getRoleAdmin(role)) {... */\n    tag_27:\n      tag_129\n      0x04\n      dup1\n      calldatasize\n      sub\n      dup2\n      add\n      swap1\n      tag_130\n      swap2\n      swap1\n      tag_66\n      jump\t// in\n    tag_130:\n      tag_131\n      jump\t// in\n    tag_129:\n      stop\n        /* \"contracts/HealthRecords.sol\":6613:6821  function upgradeContract(address newImplementation) public onlyRole(ADMIN_ROLE) {... */\n    tag_28:\n      tag_132\n      0x04\n      dup1\n      calldatasize\n      sub\n      dup2\n      add\n      swap1\n      tag_133\n      swap2\n      swap1\n      tag_46\n      jump\t// in\n    tag_133:\n      tag_134\n      jump\t// in\n    tag_132:\n      stop\n        /* \"contracts/HealthRecords.sol\":1148:1193  mapping(address => Hospital) public hospitals */\n    tag_29:\n      tag_135\n      0x04\n      dup1\n      calldatasize\n      sub\n      dup2\n      add\n      swap1\n      tag_136\n      swap2\n      swap1\n      tag_46\n      jump\t// in\n    tag_136:\n      tag_137\n      jump\t// in\n    tag_135:\n      mload(0x40)\n      tag_138\n      swap4\n      swap3\n      swap2\n      swap1\n      tag_139\n      jump\t// in\n    tag_138:\n      mload(0x40)\n      dup1\n      swap2\n      sub\n      swap1\n      return\n        /* \"contracts/HealthRecords.sol\":578:644  bytes32 public constant HOSPITAL_ROLE = keccak256(\"HOSPITAL_ROLE\") */\n    tag_30:\n      tag_140\n      tag_141\n      jump\t// in\n    tag_140:\n      mload(0x40)\n      tag_142\n      swap2\n      swap1\n      tag_63\n      jump\t// in\n    tag_142:\n      mload(0x40)\n      dup1\n      swap2\n      sub\n      swap1\n      return\n        /* \"@openzeppelin/contracts-upgradeable/access/AccessControlUpgradeable.sol\":3443:3645  function supportsInterface(bytes4 interfaceId) public view virtual override returns (bool) {... */\n    tag_41:\n        /* \"@openzeppelin/contracts-upgradeable/access/AccessControlUpgradeable.sol\":3528:3532  bool */\n      0x00\n        /* \"@openzeppelin/contracts-upgradeable/access/AccessControlUpgradeable.sol\":3566:3598  type(IAccessControl).interfaceId */\n      0x7965db0b00000000000000000000000000000000000000000000000000000000\n        /* \"@openzeppelin/contracts-upgradeable/access/AccessControlUpgradeable.sol\":3551:3598  interfaceId == type(IAccessControl).interfaceId */\n      not(0xffffffffffffffffffffffffffffffffffffffffffffffffffffffff)\n      and\n        /* \"@openzeppelin/contracts-upgradeable/access/AccessControlUpgradeable.sol\":3551:3562  interfaceId */\n      dup3\n        /* \"@openzeppelin/contracts-upgradeable/access/AccessControlUpgradeable.sol\":3551:3598  interfaceId == type(IAccessControl).interfaceId */\n      not(0xffffffffffffffffffffffffffffffffffffffffffffffffffffffff)\n      and\n      eq\n        /* \"@openzeppelin/contracts-upgradeable/access/AccessControlUpgradeable.sol\":3551:3638  interfaceId == type(IAccessControl).interfaceId || super.supportsInterface(interfaceId) */\n      dup1\n      tag_144\n      jumpi\n      pop\n        /* \"@openzeppelin/contracts-upgradeable/access/AccessControlUpgradeable.sol\":3602:3638  super.supportsInterface(interfaceId) */\n      tag_145\n        /* \"@openzeppelin/contracts-upgradeable/access/AccessControlUpgradeable.sol\":3626:3637  interfaceId */\n      dup3\n        /* \"@openzeppelin/contracts-upgradeable/access/AccessControlUpgradeable.sol\":3602:3625  super.supportsInterface */\n      tag_146\n        /* \"@openzeppelin/contracts-upgradeable/access/AccessControlUpgradeable.sol\":3602:3638  super.supportsInterface(interfaceId) */\n      jump\t// in\n    tag_145:\n        /* \"@openzeppelin/contracts-upgradeable/access/AccessControlUpgradeable.sol\":3551:3638  interfaceId == type(IAccessControl).interfaceId || super.supportsInterface(interfaceId) */\n    tag_144:\n        /* \"@openzeppelin/contracts-upgradeable/access/AccessControlUpgradeable.sol\":3544:3638  return interfaceId == type(IAccessControl).interfaceId || super.supportsInterface(interfaceId) */\n      swap1\n      pop\n        /* \"@openzeppelin/contracts-upgradeable/access/AccessControlUpgradeable.sol\":3443:3645  function supportsInterface(bytes4 interfaceId) public view virtual override returns (bool) {... */\n      swap2\n      swap1\n      pop\n      jump\t// out\n        /* \"contracts/HealthRecords.sol\":1200:1243  mapping(address => Patient) public patients */\n    tag_47:\n      mstore(0x20, 0x65)\n      dup1\n      0x00\n      mstore\n      keccak256(0x00, 0x40)\n      0x00\n      swap2\n      pop\n      swap1\n      pop\n      dup1\n      0x00\n      add\n      dup1\n      sload\n      tag_147\n      swap1\n      tag_148\n      jump\t// in\n    tag_147:\n      dup1\n      0x1f\n      add\n      0x20\n      dup1\n      swap2\n      div\n      mul\n      0x20\n      add\n      mload(0x40)\n      swap1\n      dup2\n      add\n      0x40\n      mstore\n      dup1\n      swap3\n      swap2\n      swap1\n      dup2\n      dup2\n      mstore\n      0x20\n      add\n      dup3\n      dup1\n      sload\n      tag_149\n      swap1\n      tag_148\n      jump\t// in\n    tag_149:\n      dup1\n      iszero\n      tag_150\n      jumpi\n      dup1\n      0x1f\n      lt\n      tag_151\n      jumpi\n      0x0100\n      dup1\n      dup4\n      sload\n      div\n      mul\n      dup4\n      mstore\n      swap2\n      0x20\n      add\n      swap2\n      jump(tag_150)\n    tag_151:\n      dup3\n      add\n      swap2\n      swap1\n      0x00\n      mstore\n      keccak256(0x00, 0x20)\n      swap1\n    tag_152:\n      dup2\n      sload\n      dup2\n      mstore\n      swap1\n      0x01\n      add\n      swap1\n      0x20\n      add\n      dup1\n      dup4\n      gt\n      tag_152\n      jumpi\n      dup3\n      swap1\n      sub\n      0x1f\n      and\n      dup3\n      add\n      swap2\n    tag_150:\n      pop\n      pop\n      pop\n      pop\n      pop\n      swap1\n      dup1\n      0x01\n      add\n      sload\n      swap1\n      dup1\n      0x02\n      add\n      0x00\n      swap1\n      sload\n      swap1\n      0x0100\n      exp\n      swap1\n      div\n      0xff\n      and\n      swap1\n      dup1\n      0x04\n      add\n      0x00\n      swap1\n      sload\n      swap1\n      0x0100\n      exp\n      swap1\n      div\n      0xffffffffffffffffffffffffffffffffffffffff\n      and\n      swap1\n      pop\n      dup5\n      jump\t// out\n        /* \"contracts/HealthRecords.sol\":4691:4943  function getPatientRecordCount(address _patientAddress) public view returns (uint256) {... */\n    tag_52:\n        /* \"contracts/HealthRecords.sol\":4768:4775  uint256 */\n      0x00\n        /* \"contracts/HealthRecords.sol\":4796:4830  hasRole(HOSPITAL_ROLE, msg.sender) */\n      tag_154\n        /* \"contracts/HealthRecords.sol\":618:644  keccak256(\"HOSPITAL_ROLE\") */\n      0xc8f5b4140cca307cd927e59cbeea8291bffeee228fc677f0fa059aef7b4dd8d5\n        /* \"contracts/HealthRecords.sol\":4819:4829  msg.sender */\n      caller\n        /* \"contracts/HealthRecords.sol\":4796:4803  hasRole */\n      tag_99\n        /* \"contracts/HealthRecords.sol\":4796:4830  hasRole(HOSPITAL_ROLE, msg.sender) */\n      jump\t// in\n    tag_154:\n        /* \"contracts/HealthRecords.sol\":4796:4863  hasRole(HOSPITAL_ROLE, msg.sender) || msg.sender == _patientAddress */\n      dup1\n      tag_155\n      jumpi\n      pop\n        /* \"contracts/HealthRecords.sol\":4848:4863  _patientAddress */\n      dup2\n        /* \"contracts/HealthRecords.sol\":4834:4863  msg.sender == _patientAddress */\n      0xffffffffffffffffffffffffffffffffffffffff\n      and\n        /* \"contracts/HealthRecords.sol\":4834:4844  msg.sender */\n      caller\n        /* \"contracts/HealthRecords.sol\":4834:4863  msg.sender == _patientAddress */\n      0xffffffffffffffffffffffffffffffffffffffff\n      and\n      eq\n        /* \"contracts/HealthRecords.sol\":4796:4863  hasRole(HOSPITAL_ROLE, msg.sender) || msg.sender == _patientAddress */\n    tag_155:\n        /* \"contracts/HealthRecords.sol\":4788:4882  require(hasRole(HOSPITAL_ROLE, msg.sender) || msg.sender == _patientAddress, \"Not authorized\") */\n      tag_156\n      jumpi\n      mload(0x40)\n      0x08c379a000000000000000000000000000000000000000000000000000000000\n      dup2\n      mstore\n      0x04\n      add\n      tag_157\n      swap1\n      tag_158\n      jump\t// in\n    tag_157:\n      mload(0x40)\n      dup1\n      swap2\n      sub\n      swap1\n      revert\n    tag_156:\n        /* \"contracts/HealthRecords.sol\":4900:4918  patientRecordCount */\n      0x67\n        /* \"contracts/HealthRecords.sol\":4900:4935  patientRecordCount[_patientAddress] */\n      0x00\n        /* \"contracts/HealthRecords.sol\":4919:4934  _patientAddress */\n      dup4\n        /* \"contracts/HealthRecords.sol\":4900:4935  patientRecordCount[_patientAddress] */\n      0xffffffffffffffffffffffffffffffffffffffff\n      and\n      0xffffffffffffffffffffffffffffffffffffffff\n      and\n      dup2\n      mstore\n      0x20\n      add\n      swap1\n      dup2\n      mstore\n      0x20\n      add\n      0x00\n      keccak256\n      sload\n        /* \"contracts/HealthRecords.sol\":4893:4935  return patientRecordCount[_patientAddress] */\n      swap1\n      pop\n        /* \"contracts/HealthRecords.sol\":4691:4943  function getPatientRecordCount(address _patientAddress) public view returns (uint256) {... */\n      swap2\n      swap1\n      pop\n      jump\t// out\n        /* \"contracts/HealthRecords.sol\":1538:1598  uint256 public constant EMERGENCY_ACCESS_DURATION = 24 hours */\n    tag_56:\n        /* \"contracts/HealthRecords.sol\":1590:1598  24 hours */\n      0x015180\n        /* \"contracts/HealthRecords.sol\":1538:1598  uint256 public constant EMERGENCY_ACCESS_DURATION = 24 hours */\n      dup2\n      jump\t// out\n        /* \"@openzeppelin/contracts-upgradeable/access/AccessControlUpgradeable.sol\":4759:4950  function getRoleAdmin(bytes32 role) public view virtual returns (bytes32) {... */\n    tag_61:\n        /* \"@openzeppelin/contracts-upgradeable/access/AccessControlUpgradeable.sol\":4824:4831  bytes32 */\n      0x00\n        /* \"@openzeppelin/contracts-upgradeable/access/AccessControlUpgradeable.sol\":4843:4873  AccessControlStorage storage $ */\n      dup1\n        /* \"@openzeppelin/contracts-upgradeable/access/AccessControlUpgradeable.sol\":4876:4902  _getAccessControlStorage() */\n      tag_160\n        /* \"@openzeppelin/contracts-upgradeable/access/AccessControlUpgradeable.sol\":4876:4900  _getAccessControlStorage */\n      tag_161\n        /* \"@openzeppelin/contracts-upgradeable/access/AccessControlUpgradeable.sol\":4876:4902  _getAccessControlStorage() */\n      jump\t// in\n    tag_160:\n        /* \"@openzeppelin/contracts-upgradeable/access/AccessControlUpgradeable.sol\":4843:4902  AccessControlStorage storage $ = _getAccessControlStorage() */\n      swap1\n      pop\n        /* \"@openzeppelin/contracts-upgradeable/access/AccessControlUpgradeable.sol\":4919:4920  $ */\n      dup1\n        /* \"@openzeppelin/contracts-upgradeable/access/AccessControlUpgradeable.sol\":4919:4927  $._roles */\n      0x00\n      add\n        /* \"@openzeppelin/contracts-upgradeable/access/AccessControlUpgradeable.sol\":4919:4933  $._roles[role] */\n      0x00\n        /* \"@openzeppelin/contracts-upgradeable/access/AccessControlUpgradeable.sol\":4928:4932  role */\n      dup5\n        /* \"@openzeppelin/contracts-upgradeable/access/AccessControlUpgradeable.sol\":4919:4933  $._roles[role] */\n      dup2\n      mstore\n      0x20\n      add\n      swap1\n      dup2\n      mstore\n      0x20\n      add\n      0x00\n      keccak256\n        /* \"@openzeppelin/contracts-upgradeable/access/AccessControlUpgradeable.sol\":4919:4943  $._roles[role].adminRole */\n      0x01\n      add\n      sload\n        /* \"@openzeppelin/contracts-upgradeable/access/AccessControlUpgradeable.sol\":4912:4943  return $._roles[role].adminRole */\n      swap2\n      pop\n      pop\n        /* \"@openzeppelin/contracts-upgradeable/access/AccessControlUpgradeable.sol\":4759:4950  function getRoleAdmin(bytes32 role) public view virtual returns (bytes32) {... */\n      swap2\n      swap1\n      pop\n      jump\t// out\n        /* \"@openzeppelin/contracts-upgradeable/access/AccessControlUpgradeable.sol\":5246:5382  function grantRole(bytes32 role, address account) public virtual onlyRole(getRoleAdmin(role)) {... */\n    tag_67:\n        /* \"@openzeppelin/contracts-upgradeable/access/AccessControlUpgradeable.sol\":5320:5338  getRoleAdmin(role) */\n      tag_162\n        /* \"@openzeppelin/contracts-upgradeable/access/AccessControlUpgradeable.sol\":5333:5337  role */\n      dup3\n        /* \"@openzeppelin/contracts-upgradeable/access/AccessControlUpgradeable.sol\":5320:5332  getRoleAdmin */\n      tag_61\n        /* \"@openzeppelin/contracts-upgradeable/access/AccessControlUpgradeable.sol\":5320:5338  getRoleAdmin(role) */\n      jump\t// in\n    tag_162:\n        /* \"@openzeppelin/contracts-upgradeable/access/AccessControlUpgradeable.sol\":3191:3207  _checkRole(role) */\n      tag_164\n        /* \"@openzeppelin/contracts-upgradeable/access/AccessControlUpgradeable.sol\":3202:3206  role */\n      dup2\n        /* \"@openzeppelin/contracts-upgradeable/access/AccessControlUpgradeable.sol\":3191:3201  _checkRole */\n      tag_165\n        /* \"@openzeppelin/contracts-upgradeable/access/AccessControlUpgradeable.sol\":3191:3207  _checkRole(role) */\n      jump\t// in\n    tag_164:\n        /* \"@openzeppelin/contracts-upgradeable/access/AccessControlUpgradeable.sol\":5350:5375  _grantRole(role, account) */\n      tag_167\n        /* \"@openzeppelin/contracts-upgradeable/access/AccessControlUpgradeable.sol\":5361:5365  role */\n      dup4\n        /* \"@openzeppelin/contracts-upgradeable/access/AccessControlUpgradeable.sol\":5367:5374  account */\n      dup4\n        /* \"@openzeppelin/contracts-upgradeable/access/AccessControlUpgradeable.sol\":5350:5360  _grantRole */\n      tag_168\n        /* \"@openzeppelin/contracts-upgradeable/access/AccessControlUpgradeable.sol\":5350:5375  _grantRole(role, account) */\n      jump\t// in\n    tag_167:\n      pop\n        /* \"@openzeppelin/contracts-upgradeable/access/AccessControlUpgradeable.sol\":5246:5382  function grantRole(bytes32 role, address account) public virtual onlyRole(getRoleAdmin(role)) {... */\n      pop\n      pop\n      pop\n      jump\t// out\n        /* \"@openzeppelin/contracts-upgradeable/access/AccessControlUpgradeable.sol\":6348:6593  function renounceRole(bytes32 role, address callerConfirmation) public virtual {... */\n    tag_70:\n        /* \"@openzeppelin/contracts-upgradeable/access/AccessControlUpgradeable.sol\":6463:6475  _msgSender() */\n      tag_170\n        /* \"@openzeppelin/contracts-upgradeable/access/AccessControlUpgradeable.sol\":6463:6473  _msgSender */\n      tag_171\n        /* \"@openzeppelin/contracts-upgradeable/access/AccessControlUpgradeable.sol\":6463:6475  _msgSender() */\n      jump\t// in\n    tag_170:\n        /* \"@openzeppelin/contracts-upgradeable/access/AccessControlUpgradeable.sol\":6441:6475  callerConfirmation != _msgSender() */\n      0xffffffffffffffffffffffffffffffffffffffff\n      and\n        /* \"@openzeppelin/contracts-upgradeable/access/AccessControlUpgradeable.sol\":6441:6459  callerConfirmation */\n      dup2\n        /* \"@openzeppelin/contracts-upgradeable/access/AccessControlUpgradeable.sol\":6441:6475  callerConfirmation != _msgSender() */\n      0xffffffffffffffffffffffffffffffffffffffff\n      and\n      eq\n        /* \"@openzeppelin/contracts-upgradeable/access/AccessControlUpgradeable.sol\":6437:6539  if (callerConfirmation != _msgSender()) {... */\n      tag_172\n      jumpi\n        /* \"@openzeppelin/contracts-upgradeable/access/AccessControlUpgradeable.sol\":6498:6528  AccessControlBadConfirmation() */\n      mload(0x40)\n      0x6697b23200000000000000000000000000000000000000000000000000000000\n      dup2\n      mstore\n      0x04\n      add\n      mload(0x40)\n      dup1\n      swap2\n      sub\n      swap1\n      revert\n        /* \"@openzeppelin/contracts-upgradeable/access/AccessControlUpgradeable.sol\":6437:6539  if (callerConfirmation != _msgSender()) {... */\n    tag_172:\n        /* \"@openzeppelin/contracts-upgradeable/access/AccessControlUpgradeable.sol\":6549:6586  _revokeRole(role, callerConfirmation) */\n      tag_173\n        /* \"@openzeppelin/contracts-upgradeable/access/AccessControlUpgradeable.sol\":6561:6565  role */\n      dup3\n        /* \"@openzeppelin/contracts-upgradeable/access/AccessControlUpgradeable.sol\":6567:6585  callerConfirmation */\n      dup3\n        /* \"@openzeppelin/contracts-upgradeable/access/AccessControlUpgradeable.sol\":6549:6560  _revokeRole */\n      tag_174\n        /* \"@openzeppelin/contracts-upgradeable/access/AccessControlUpgradeable.sol\":6549:6586  _revokeRole(role, callerConfirmation) */\n      jump\t// in\n    tag_173:\n      pop\n        /* \"@openzeppelin/contracts-upgradeable/access/AccessControlUpgradeable.sol\":6348:6593  function renounceRole(bytes32 role, address callerConfirmation) public virtual {... */\n      pop\n      pop\n      jump\t// out\n        /* \"contracts/HealthRecords.sol\":3358:4019  function uploadRecord(address _patientAddress, string memory _data, string memory _dataType) public onlyRole(HOSPITAL_ROLE) whenNotPaused nonReentrant {... */\n    tag_74:\n        /* \"contracts/HealthRecords.sol\":618:644  keccak256(\"HOSPITAL_ROLE\") */\n      0xc8f5b4140cca307cd927e59cbeea8291bffeee228fc677f0fa059aef7b4dd8d5\n        /* \"@openzeppelin/contracts-upgradeable/access/AccessControlUpgradeable.sol\":3191:3207  _checkRole(role) */\n      tag_176\n        /* \"@openzeppelin/contracts-upgradeable/access/AccessControlUpgradeable.sol\":3202:3206  role */\n      dup2\n        /* \"@openzeppelin/contracts-upgradeable/access/AccessControlUpgradeable.sol\":3191:3201  _checkRole */\n      tag_165\n        /* \"@openzeppelin/contracts-upgradeable/access/AccessControlUpgradeable.sol\":3191:3207  _checkRole(role) */\n      jump\t// in\n    tag_176:\n        /* \"@openzeppelin/contracts-upgradeable/security/PausableUpgradeable.sol\":1503:1522  _requireNotPaused() */\n      tag_178\n        /* \"@openzeppelin/contracts-upgradeable/security/PausableUpgradeable.sol\":1503:1520  _requireNotPaused */\n      tag_179\n        /* \"@openzeppelin/contracts-upgradeable/security/PausableUpgradeable.sol\":1503:1522  _requireNotPaused() */\n      jump\t// in\n    tag_178:\n        /* \"@openzeppelin/contracts-upgradeable/security/ReentrancyGuardUpgradeable.sol\":2526:2547  _nonReentrantBefore() */\n      tag_181\n        /* \"@openzeppelin/contracts-upgradeable/security/ReentrancyGuardUpgradeable.sol\":2526:2545  _nonReentrantBefore */\n      tag_182\n        /* \"@openzeppelin/contracts-upgradeable/security/ReentrancyGuardUpgradeable.sol\":2526:2547  _nonReentrantBefore() */\n      jump\t// in\n    tag_181:\n        /* \"contracts/HealthRecords.sol\":3528:3536  patients */\n      0x65\n        /* \"contracts/HealthRecords.sol\":3528:3553  patients[_patientAddress] */\n      0x00\n        /* \"contracts/HealthRecords.sol\":3537:3552  _patientAddress */\n      dup6\n        /* \"contracts/HealthRecords.sol\":3528:3553  patients[_patientAddress] */\n      0xffffffffffffffffffffffffffffffffffffffff\n      and\n      0xffffffffffffffffffffffffffffffffffffffff\n      and\n      dup2\n      mstore\n      0x20\n      add\n      swap1\n      dup2\n      mstore\n      0x20\n      add\n      0x00\n      keccak256\n        /* \"contracts/HealthRecords.sol\":3528:3560  patients[_patientAddress].exists */\n      0x02\n      add\n      0x00\n      swap1\n      sload\n      swap1\n      0x0100\n      exp\n      swap1\n      div\n      0xff\n      and\n        /* \"contracts/HealthRecords.sol\":3520:3587  require(patients[_patientAddress].exists, \"Patient does not exist\") */\n      tag_184\n      jumpi\n      mload(0x40)\n      0x08c379a000000000000000000000000000000000000000000000000000000000\n      dup2\n      mstore\n      0x04\n      add\n      tag_185\n      swap1\n      tag_186\n      jump\t// in\n    tag_185:\n      mload(0x40)\n      dup1\n      swap2\n      sub\n      swap1\n      revert\n    tag_184:\n        /* \"contracts/HealthRecords.sol\":3606:3620  patientConsent */\n      0x68\n        /* \"contracts/HealthRecords.sol\":3606:3637  patientConsent[_patientAddress] */\n      0x00\n        /* \"contracts/HealthRecords.sol\":3621:3636  _patientAddress */\n      dup6\n        /* \"contracts/HealthRecords.sol\":3606:3637  patientConsent[_patientAddress] */\n      0xffffffffffffffffffffffffffffffffffffffff\n      and\n      0xffffffffffffffffffffffffffffffffffffffff\n      and\n      dup2\n      mstore\n      0x20\n      add\n      swap1\n      dup2\n      mstore\n      0x20\n      add\n      0x00\n      keccak256\n        /* \"contracts/HealthRecords.sol\":3606:3649  patientConsent[_patientAddress][msg.sender] */\n      0x00\n        /* \"contracts/HealthRecords.sol\":3638:3648  msg.sender */\n      caller\n        /* \"contracts/HealthRecords.sol\":3606:3649  patientConsent[_patientAddress][msg.sender] */\n      0xffffffffffffffffffffffffffffffffffffffff\n      and\n      0xffffffffffffffffffffffffffffffffffffffff\n      and\n      dup2\n      mstore\n      0x20\n      add\n      swap1\n      dup2\n      mstore\n      0x20\n      add\n      0x00\n      keccak256\n      0x00\n      swap1\n      sload\n      swap1\n      0x0100\n      exp\n      swap1\n      div\n      0xff\n      and\n        /* \"contracts/HealthRecords.sol\":3606:3682  patientConsent[_patientAddress][msg.sender] || isEmergencyAccess(msg.sender) */\n      dup1\n      tag_187\n      jumpi\n      pop\n        /* \"contracts/HealthRecords.sol\":3653:3682  isEmergencyAccess(msg.sender) */\n      tag_188\n        /* \"contracts/HealthRecords.sol\":3671:3681  msg.sender */\n      caller\n        /* \"contracts/HealthRecords.sol\":3653:3670  isEmergencyAccess */\n      tag_77\n        /* \"contracts/HealthRecords.sol\":3653:3682  isEmergencyAccess(msg.sender) */\n      jump\t// in\n    tag_188:\n        /* \"contracts/HealthRecords.sol\":3606:3682  patientConsent[_patientAddress][msg.sender] || isEmergencyAccess(msg.sender) */\n    tag_187:\n        /* \"contracts/HealthRecords.sol\":3598:3703  require(patientConsent[_patientAddress][msg.sender] || isEmergencyAccess(msg.sender), \"No consent given\") */\n      tag_189\n      jumpi\n      mload(0x40)\n      0x08c379a000000000000000000000000000000000000000000000000000000000\n      dup2\n      mstore\n      0x04\n      add\n      tag_190\n      swap1\n      tag_191\n      jump\t// in\n    tag_190:\n      mload(0x40)\n      dup1\n      swap2\n      sub\n      swap1\n      revert\n    tag_189:\n        /* \"contracts/HealthRecords.sol\":3724:3740  uint256 recordId */\n      0x00\n        /* \"contracts/HealthRecords.sol\":3743:3761  patientRecordCount */\n      0x67\n        /* \"contracts/HealthRecords.sol\":3743:3778  patientRecordCount[_patientAddress] */\n      0x00\n        /* \"contracts/HealthRecords.sol\":3762:3777  _patientAddress */\n      dup7\n        /* \"contracts/HealthRecords.sol\":3743:3778  patientRecordCount[_patientAddress] */\n      0xffffffffffffffffffffffffffffffffffffffff\n      and\n      0xffffffffffffffffffffffffffffffffffffffff\n      and\n      dup2\n      mstore\n      0x20\n      add\n      swap1\n      dup2\n      mstore\n      0x20\n      add\n      0x00\n      keccak256\n      sload\n        /* \"contracts/HealthRecords.sol\":3724:3778  uint256 recordId = patientRecordCount[_patientAddress] */\n      swap1\n      pop\n        /* \"contracts/HealthRecords.sol\":3833:3893  MedicalRecord(_data, _dataType, block.timestamp, msg.sender) */\n      mload(0x40)\n      dup1\n      0x80\n      add\n      0x40\n      mstore\n      dup1\n        /* \"contracts/HealthRecords.sol\":3847:3852  _data */\n      dup6\n        /* \"contracts/HealthRecords.sol\":3833:3893  MedicalRecord(_data, _dataType, block.timestamp, msg.sender) */\n      dup2\n      mstore\n      0x20\n      add\n        /* \"contracts/HealthRecords.sol\":3854:3863  _dataType */\n      dup5\n        /* \"contracts/HealthRecords.sol\":3833:3893  MedicalRecord(_data, _dataType, block.timestamp, msg.sender) */\n      dup2\n      mstore\n      0x20\n      add\n        /* \"contracts/HealthRecords.sol\":3865:3880  block.timestamp */\n      timestamp\n        /* \"contracts/HealthRecords.sol\":3833:3893  MedicalRecord(_data, _dataType, block.timestamp, msg.sender) */\n      dup2\n      mstore\n      0x20\n      add\n        /* \"contracts/HealthRecords.sol\":3882:3892  msg.sender */\n      caller\n        /* \"contracts/HealthRecords.sol\":3833:3893  MedicalRecord(_data, _dataType, block.timestamp, msg.sender) */\n      0xffffffffffffffffffffffffffffffffffffffff\n      and\n      dup2\n      mstore\n      pop\n        /* \"contracts/HealthRecords.sol\":3789:3803  patientRecords */\n      0x66\n        /* \"contracts/HealthRecords.sol\":3789:3820  patientRecords[_patientAddress] */\n      0x00\n        /* \"contracts/HealthRecords.sol\":3804:3819  _patientAddress */\n      dup8\n        /* \"contracts/HealthRecords.sol\":3789:3820  patientRecords[_patientAddress] */\n      0xffffffffffffffffffffffffffffffffffffffff\n      and\n      0xffffffffffffffffffffffffffffffffffffffff\n      and\n      dup2\n      mstore\n      0x20\n      add\n      swap1\n      dup2\n      mstore\n      0x20\n      add\n      0x00\n      keccak256\n        /* \"contracts/HealthRecords.sol\":3789:3830  patientRecords[_patientAddress][recordId] */\n      0x00\n        /* \"contracts/HealthRecords.sol\":3821:3829  recordId */\n      dup4\n        /* \"contracts/HealthRecords.sol\":3789:3830  patientRecords[_patientAddress][recordId] */\n      dup2\n      mstore\n      0x20\n      add\n      swap1\n      dup2\n      mstore\n      0x20\n      add\n      0x00\n      keccak256\n        /* \"contracts/HealthRecords.sol\":3789:3893  patientRecords[_patientAddress][recordId] = MedicalRecord(_data, _dataType, block.timestamp, msg.sender) */\n      0x00\n      dup3\n      add\n      mload\n      dup2\n      0x00\n      add\n      swap1\n      dup2\n      tag_192\n      swap2\n      swap1\n      tag_193\n      jump\t// in\n    tag_192:\n      pop\n      0x20\n      dup3\n      add\n      mload\n      dup2\n      0x01\n      add\n      swap1\n      dup2\n      tag_194\n      swap2\n      swap1\n      tag_193\n      jump\t// in\n    tag_194:\n      pop\n      0x40\n      dup3\n      add\n      mload\n      dup2\n      0x02\n      add\n      sstore\n      0x60\n      dup3\n      add\n      mload\n      dup2\n      0x03\n      add\n      exp(0x0100, 0x00)\n      dup2\n      sload\n      dup2\n      0xffffffffffffffffffffffffffffffffffffffff\n      mul\n      not\n      and\n      swap1\n      dup4\n      0xffffffffffffffffffffffffffffffffffffffff\n      and\n      mul\n      or\n      swap1\n      sstore\n      pop\n      swap1\n      pop\n      pop\n        /* \"contracts/HealthRecords.sol\":3904:3922  patientRecordCount */\n      0x67\n        /* \"contracts/HealthRecords.sol\":3904:3939  patientRecordCount[_patientAddress] */\n      0x00\n        /* \"contracts/HealthRecords.sol\":3923:3938  _patientAddress */\n      dup7\n        /* \"contracts/HealthRecords.sol\":3904:3939  patientRecordCount[_patientAddress] */\n      0xffffffffffffffffffffffffffffffffffffffff\n      and\n      0xffffffffffffffffffffffffffffffffffffffff\n      and\n      dup2\n      mstore\n      0x20\n      add\n      swap1\n      dup2\n      mstore\n      0x20\n      add\n      0x00\n      keccak256\n      0x00\n        /* \"contracts/HealthRecords.sol\":3904:3941  patientRecordCount[_patientAddress]++ */\n      dup2\n      sload\n      dup1\n      swap3\n      swap2\n      swap1\n      tag_195\n      swap1\n      tag_196\n      jump\t// in\n    tag_195:\n      swap2\n      swap1\n      pop\n      sstore\n      pop\n        /* \"contracts/HealthRecords.sol\":3991:3999  recordId */\n      dup1\n        /* \"contracts/HealthRecords.sol\":3974:3989  _patientAddress */\n      dup6\n        /* \"contracts/HealthRecords.sol\":3959:4011  RecordUploaded(_patientAddress, recordId, _dataType) */\n      0xffffffffffffffffffffffffffffffffffffffff\n      and\n      0x5ecfbf1e7f7f5ef4109baa2a3726ce1aecb710b577c94cd08a8e5bc9d38639f3\n        /* \"contracts/HealthRecords.sol\":4001:4010  _dataType */\n      dup6\n        /* \"contracts/HealthRecords.sol\":3959:4011  RecordUploaded(_patientAddress, recordId, _dataType) */\n      mload(0x40)\n      tag_197\n      swap2\n      swap1\n      tag_198\n      jump\t// in\n    tag_197:\n      mload(0x40)\n      dup1\n      swap2\n      sub\n      swap1\n      log3\n        /* \"contracts/HealthRecords.sol\":3509:4019  {... */\n      pop\n        /* \"@openzeppelin/contracts-upgradeable/security/ReentrancyGuardUpgradeable.sol\":2568:2588  _nonReentrantAfter() */\n      tag_199\n        /* \"@openzeppelin/contracts-upgradeable/security/ReentrancyGuardUpgradeable.sol\":2568:2586  _nonReentrantAfter */\n      tag_200\n        /* \"@openzeppelin/contracts-upgradeable/security/ReentrancyGuardUpgradeable.sol\":2568:2588  _nonReentrantAfter() */\n      jump\t// in\n    tag_199:\n        /* \"contracts/HealthRecords.sol\":3358:4019  function uploadRecord(address _patientAddress, string memory _data, string memory _dataType) public onlyRole(HOSPITAL_ROLE) whenNotPaused nonReentrant {... */\n      pop\n      pop\n      pop\n      pop\n      jump\t// out\n        /* \"contracts/HealthRecords.sol\":5906:6074  function isEmergencyAccess(address _hospitalAddress) public view returns (bool) {... */\n    tag_77:\n        /* \"contracts/HealthRecords.sol\":5980:5984  bool */\n      0x00\n        /* \"contracts/HealthRecords.sol\":6023:6048  emergencyAccessExpiration */\n      0x69\n        /* \"contracts/HealthRecords.sol\":6023:6066  emergencyAccessExpiration[_hospitalAddress] */\n      0x00\n        /* \"contracts/HealthRecords.sol\":6049:6065  _hospitalAddress */\n      dup4\n        /* \"contracts/HealthRecords.sol\":6023:6066  emergencyAccessExpiration[_hospitalAddress] */\n      0xffffffffffffffffffffffffffffffffffffffff\n      and\n      0xffffffffffffffffffffffffffffffffffffffff\n      and\n      dup2\n      mstore\n      0x20\n      add\n      swap1\n      dup2\n      mstore\n      0x20\n      add\n      0x00\n      keccak256\n      sload\n        /* \"contracts/HealthRecords.sol\":6004:6019  block.timestamp */\n      timestamp\n        /* \"contracts/HealthRecords.sol\":6004:6066  block.timestamp <= emergencyAccessExpiration[_hospitalAddress] */\n      gt\n      iszero\n        /* \"contracts/HealthRecords.sol\":5997:6066  return block.timestamp <= emergencyAccessExpiration[_hospitalAddress] */\n      swap1\n      pop\n        /* \"contracts/HealthRecords.sol\":5906:6074  function isEmergencyAccess(address _hospitalAddress) public view returns (bool) {... */\n      swap2\n      swap1\n      pop\n      jump\t// out\n        /* \"contracts/HealthRecords.sol\":2936:3350  function registerPatient(string memory _name, uint256 _dateOfBirth, string[] memory _allergies, address _emergencyContact) public {... */\n    tag_82:\n        /* \"contracts/HealthRecords.sol\":3086:3094  patients */\n      0x65\n        /* \"contracts/HealthRecords.sol\":3086:3106  patients[msg.sender] */\n      0x00\n        /* \"contracts/HealthRecords.sol\":3095:3105  msg.sender */\n      caller\n        /* \"contracts/HealthRecords.sol\":3086:3106  patients[msg.sender] */\n      0xffffffffffffffffffffffffffffffffffffffff\n      and\n      0xffffffffffffffffffffffffffffffffffffffff\n      and\n      dup2\n      mstore\n      0x20\n      add\n      swap1\n      dup2\n      mstore\n      0x20\n      add\n      0x00\n      keccak256\n        /* \"contracts/HealthRecords.sol\":3086:3113  patients[msg.sender].exists */\n      0x02\n      add\n      0x00\n      swap1\n      sload\n      swap1\n      0x0100\n      exp\n      swap1\n      div\n      0xff\n      and\n        /* \"contracts/HealthRecords.sol\":3085:3113  !patients[msg.sender].exists */\n      iszero\n        /* \"contracts/HealthRecords.sol\":3077:3144  require(!patients[msg.sender].exists, \"Patient already registered\") */\n      tag_203\n      jumpi\n      mload(0x40)\n      0x08c379a000000000000000000000000000000000000000000000000000000000\n      dup2\n      mstore\n      0x04\n      add\n      tag_204\n      swap1\n      tag_205\n      jump\t// in\n    tag_204:\n      mload(0x40)\n      dup1\n      swap2\n      sub\n      swap1\n      revert\n    tag_203:\n        /* \"contracts/HealthRecords.sol\":3178:3243  Patient(_name, _dateOfBirth, true, _allergies, _emergencyContact) */\n      mload(0x40)\n      dup1\n      0xa0\n      add\n      0x40\n      mstore\n      dup1\n        /* \"contracts/HealthRecords.sol\":3186:3191  _name */\n      dup6\n        /* \"contracts/HealthRecords.sol\":3178:3243  Patient(_name, _dateOfBirth, true, _allergies, _emergencyContact) */\n      dup2\n      mstore\n      0x20\n      add\n        /* \"contracts/HealthRecords.sol\":3193:3205  _dateOfBirth */\n      dup5\n        /* \"contracts/HealthRecords.sol\":3178:3243  Patient(_name, _dateOfBirth, true, _allergies, _emergencyContact) */\n      dup2\n      mstore\n      0x20\n      add\n        /* \"contracts/HealthRecords.sol\":3207:3211  true */\n      0x01\n        /* \"contracts/HealthRecords.sol\":3178:3243  Patient(_name, _dateOfBirth, true, _allergies, _emergencyContact) */\n      iszero\n      iszero\n      dup2\n      mstore\n      0x20\n      add\n        /* \"contracts/HealthRecords.sol\":3213:3223  _allergies */\n      dup4\n        /* \"contracts/HealthRecords.sol\":3178:3243  Patient(_name, _dateOfBirth, true, _allergies, _emergencyContact) */\n      dup2\n      mstore\n      0x20\n      add\n        /* \"contracts/HealthRecords.sol\":3225:3242  _emergencyContact */\n      dup3\n        /* \"contracts/HealthRecords.sol\":3178:3243  Patient(_name, _dateOfBirth, true, _allergies, _emergencyContact) */\n      0xffffffffffffffffffffffffffffffffffffffff\n      and\n      dup2\n      mstore\n      pop\n        /* \"contracts/HealthRecords.sol\":3155:3163  patients */\n      0x65\n        /* \"contracts/HealthRecords.sol\":3155:3175  patients[msg.sender] */\n      0x00\n        /* \"contracts/HealthRecords.sol\":3164:3174  msg.sender */\n      caller\n        /* \"contracts/HealthRecords.sol\":3155:3175  patients[msg.sender] */\n      0xffffffffffffffffffffffffffffffffffffffff\n      and\n      0xffffffffffffffffffffffffffffffffffffffff\n      and\n      dup2\n      mstore\n      0x20\n      add\n      swap1\n      dup2\n      mstore\n      0x20\n      add\n      0x00\n      keccak256\n        /* \"contracts/HealthRecords.sol\":3155:3243  patients[msg.sender] = Patient(_name, _dateOfBirth, true, _allergies, _emergencyContact) */\n      0x00\n      dup3\n      add\n      mload\n      dup2\n      0x00\n      add\n      swap1\n      dup2\n      tag_206\n      swap2\n      swap1\n      tag_193\n      jump\t// in\n    tag_206:\n      pop\n      0x20\n      dup3\n      add\n      mload\n      dup2\n      0x01\n      add\n      sstore\n      0x40\n      dup3\n      add\n      mload\n      dup2\n      0x02\n      add\n      exp(0x0100, 0x00)\n      dup2\n      sload\n      dup2\n      0xff\n      mul\n      not\n      and\n      swap1\n      dup4\n      iszero\n      iszero\n      mul\n      or\n      swap1\n      sstore\n      pop\n      0x60\n      dup3\n      add\n      mload\n      dup2\n      0x03\n      add\n      swap1\n      dup1\n      mload\n      swap1\n      0x20\n      add\n      swap1\n      tag_207\n      swap3\n      swap2\n      swap1\n      tag_208\n      jump\t// in\n    tag_207:\n      pop\n      0x80\n      dup3\n      add\n      mload\n      dup2\n      0x04\n      add\n      exp(0x0100, 0x00)\n      dup2\n      sload\n      dup2\n      0xffffffffffffffffffffffffffffffffffffffff\n      mul\n      not\n      and\n      swap1\n      dup4\n      0xffffffffffffffffffffffffffffffffffffffff\n      and\n      mul\n      or\n      swap1\n      sstore\n      pop\n      swap1\n      pop\n      pop\n        /* \"contracts/HealthRecords.sol\":3254:3290  _grantRole(PATIENT_ROLE, msg.sender) */\n      tag_209\n        /* \"contracts/HealthRecords.sol\":690:715  keccak256(\"PATIENT_ROLE\") */\n      0x72606200fac42b7dc86b75901d61ecfab2a4a1a6eded478b97a428094891abed\n        /* \"contracts/HealthRecords.sol\":3279:3289  msg.sender */\n      caller\n        /* \"contracts/HealthRecords.sol\":3254:3264  _grantRole */\n      tag_168\n        /* \"contracts/HealthRecords.sol\":3254:3290  _grantRole(PATIENT_ROLE, msg.sender) */\n      jump\t// in\n    tag_209:\n      pop\n        /* \"contracts/HealthRecords.sol\":3324:3334  msg.sender */\n      caller\n        /* \"contracts/HealthRecords.sol\":3306:3342  PatientRegistered(msg.sender, _name) */\n      0xffffffffffffffffffffffffffffffffffffffff\n      and\n      0xc85b128388b9c331a2a5485dce4cd0f3db9f7c279d327ce95d6d39d6c94644c7\n        /* \"contracts/HealthRecords.sol\":3336:3341  _name */\n      dup6\n        /* \"contracts/HealthRecords.sol\":3306:3342  PatientRegistered(msg.sender, _name) */\n      mload(0x40)\n      tag_210\n      swap2\n      swap1\n      tag_198\n      jump\t// in\n    tag_210:\n      mload(0x40)\n      dup1\n      swap2\n      sub\n      swap1\n      log2\n        /* \"contracts/HealthRecords.sol\":2936:3350  function registerPatient(string memory _name, uint256 _dateOfBirth, string[] memory _allergies, address _emergencyContact) public {... */\n      pop\n      pop\n      pop\n      pop\n      jump\t// out\n        /* \"contracts/HealthRecords.sol\":6529:6605  function unpause() public onlyRole(ADMIN_ROLE) {... */\n    tag_84:\n        /* \"contracts/HealthRecords.sol\":548:571  keccak256(\"ADMIN_ROLE\") */\n      0xa49807205ce4d355092ef5a8a18f56e8913cf4a201fbe287825b095693c21775\n        /* \"@openzeppelin/contracts-upgradeable/access/AccessControlUpgradeable.sol\":3191:3207  _checkRole(role) */\n      tag_212\n        /* \"@openzeppelin/contracts-upgradeable/access/AccessControlUpgradeable.sol\":3202:3206  role */\n      dup2\n        /* \"@openzeppelin/contracts-upgradeable/access/AccessControlUpgradeable.sol\":3191:3201  _checkRole */\n      tag_165\n        /* \"@openzeppelin/contracts-upgradeable/access/AccessControlUpgradeable.sol\":3191:3207  _checkRole(role) */\n      jump\t// in\n    tag_212:\n        /* \"contracts/HealthRecords.sol\":6587:6597  _unpause() */\n      tag_214\n        /* \"contracts/HealthRecords.sol\":6587:6595  _unpause */\n      tag_215\n        /* \"contracts/HealthRecords.sol\":6587:6597  _unpause() */\n      jump\t// in\n    tag_214:\n        /* \"contracts/HealthRecords.sol\":6529:6605  function unpause() public onlyRole(ADMIN_ROLE) {... */\n      pop\n      jump\t// out\n        /* \"contracts/HealthRecords.sol\":2539:2928  function registerHospital(address _hospitalAddress, string memory _name) public onlyRole(ADMIN_ROLE) {... */\n    tag_88:\n        /* \"contracts/HealthRecords.sol\":548:571  keccak256(\"ADMIN_ROLE\") */\n      0xa49807205ce4d355092ef5a8a18f56e8913cf4a201fbe287825b095693c21775\n        /* \"@openzeppelin/contracts-upgradeable/access/AccessControlUpgradeable.sol\":3191:3207  _checkRole(role) */\n      tag_217\n        /* \"@openzeppelin/contracts-upgradeable/access/AccessControlUpgradeable.sol\":3202:3206  role */\n      dup2\n        /* \"@openzeppelin/contracts-upgradeable/access/AccessControlUpgradeable.sol\":3191:3201  _checkRole */\n      tag_165\n        /* \"@openzeppelin/contracts-upgradeable/access/AccessControlUpgradeable.sol\":3191:3207  _checkRole(role) */\n      jump\t// in\n    tag_217:\n        /* \"contracts/HealthRecords.sol\":2660:2669  hospitals */\n      0x64\n        /* \"contracts/HealthRecords.sol\":2660:2687  hospitals[_hospitalAddress] */\n      0x00\n        /* \"contracts/HealthRecords.sol\":2670:2686  _hospitalAddress */\n      dup5\n        /* \"contracts/HealthRecords.sol\":2660:2687  hospitals[_hospitalAddress] */\n      0xffffffffffffffffffffffffffffffffffffffff\n      and\n      0xffffffffffffffffffffffffffffffffffffffff\n      and\n      dup2\n      mstore\n      0x20\n      add\n      swap1\n      dup2\n      mstore\n      0x20\n      add\n      0x00\n      keccak256\n        /* \"contracts/HealthRecords.sol\":2660:2696  hospitals[_hospitalAddress].isActive */\n      0x01\n      add\n      0x00\n      swap1\n      sload\n      swap1\n      0x0100\n      exp\n      swap1\n      div\n      0xff\n      and\n        /* \"contracts/HealthRecords.sol\":2659:2696  !hospitals[_hospitalAddress].isActive */\n      iszero\n        /* \"contracts/HealthRecords.sol\":2651:2728  require(!hospitals[_hospitalAddress].isActive, \"Hospital already registered\") */\n      tag_219\n      jumpi\n      mload(0x40)\n      0x08c379a000000000000000000000000000000000000000000000000000000000\n      dup2\n      mstore\n      0x04\n      add\n      tag_220\n      swap1\n      tag_221\n      jump\t// in\n    tag_220:\n      mload(0x40)\n      dup1\n      swap2\n      sub\n      swap1\n      revert\n    tag_219:\n        /* \"contracts/HealthRecords.sol\":2769:2807  Hospital(_name, true, block.timestamp) */\n      mload(0x40)\n      dup1\n      0x60\n      add\n      0x40\n      mstore\n      dup1\n        /* \"contracts/HealthRecords.sol\":2778:2783  _name */\n      dup4\n        /* \"contracts/HealthRecords.sol\":2769:2807  Hospital(_name, true, block.timestamp) */\n      dup2\n      mstore\n      0x20\n      add\n        /* \"contracts/HealthRecords.sol\":2785:2789  true */\n      0x01\n        /* \"contracts/HealthRecords.sol\":2769:2807  Hospital(_name, true, block.timestamp) */\n      iszero\n      iszero\n      dup2\n      mstore\n      0x20\n      add\n        /* \"contracts/HealthRecords.sol\":2791:2806  block.timestamp */\n      timestamp\n        /* \"contracts/HealthRecords.sol\":2769:2807  Hospital(_name, true, block.timestamp) */\n      dup2\n      mstore\n      pop\n        /* \"contracts/HealthRecords.sol\":2739:2748  hospitals */\n      0x64\n        /* \"contracts/HealthRecords.sol\":2739:2766  hospitals[_hospitalAddress] */\n      0x00\n        /* \"contracts/HealthRecords.sol\":2749:2765  _hospitalAddress */\n      dup6\n        /* \"contracts/HealthRecords.sol\":2739:2766  hospitals[_hospitalAddress] */\n      0xffffffffffffffffffffffffffffffffffffffff\n      and\n      0xffffffffffffffffffffffffffffffffffffffff\n      and\n      dup2\n      mstore\n      0x20\n      add\n      swap1\n      dup2\n      mstore\n      0x20\n      add\n      0x00\n      keccak256\n        /* \"contracts/HealthRecords.sol\":2739:2807  hospitals[_hospitalAddress] = Hospital(_name, true, block.timestamp) */\n      0x00\n      dup3\n      add\n      mload\n      dup2\n      0x00\n      add\n      swap1\n      dup2\n      tag_222\n      swap2\n      swap1\n      tag_193\n      jump\t// in\n    tag_222:\n      pop\n      0x20\n      dup3\n      add\n      mload\n      dup2\n      0x01\n      add\n      exp(0x0100, 0x00)\n      dup2\n      sload\n      dup2\n      0xff\n      mul\n      not\n      and\n      swap1\n      dup4\n      iszero\n      iszero\n      mul\n      or\n      swap1\n      sstore\n      pop\n      0x40\n      dup3\n      add\n      mload\n      dup2\n      0x02\n      add\n      sstore\n      swap1\n      pop\n      pop\n        /* \"contracts/HealthRecords.sol\":2818:2861  _grantRole(HOSPITAL_ROLE, _hospitalAddress) */\n      tag_223\n        /* \"contracts/HealthRecords.sol\":618:644  keccak256(\"HOSPITAL_ROLE\") */\n      0xc8f5b4140cca307cd927e59cbeea8291bffeee228fc677f0fa059aef7b4dd8d5\n        /* \"contracts/HealthRecords.sol\":2844:2860  _hospitalAddress */\n      dup5\n        /* \"contracts/HealthRecords.sol\":2818:2828  _grantRole */\n      tag_168\n        /* \"contracts/HealthRecords.sol\":2818:2861  _grantRole(HOSPITAL_ROLE, _hospitalAddress) */\n      jump\t// in\n    tag_223:\n      pop\n        /* \"contracts/HealthRecords.sol\":2896:2912  _hospitalAddress */\n      dup3\n        /* \"contracts/HealthRecords.sol\":2877:2920  HospitalRegistered(_hospitalAddress, _name) */\n      0xffffffffffffffffffffffffffffffffffffffff\n      and\n      0x72cefccb74b7edacb21023a72b39a2cecb1123ba70d1eea03d3509d046b941c2\n        /* \"contracts/HealthRecords.sol\":2914:2919  _name */\n      dup4\n        /* \"contracts/HealthRecords.sol\":2877:2920  HospitalRegistered(_hospitalAddress, _name) */\n      mload(0x40)\n      tag_224\n      swap2\n      swap1\n      tag_198\n      jump\t// in\n    tag_224:\n      mload(0x40)\n      dup1\n      swap2\n      sub\n      swap1\n      log2\n        /* \"contracts/HealthRecords.sol\":2539:2928  function registerHospital(address _hospitalAddress, string memory _name) public onlyRole(ADMIN_ROLE) {... */\n      pop\n      pop\n      pop\n      jump\t// out\n        /* \"@openzeppelin/contracts-upgradeable/security/PausableUpgradeable.sol\":1879:1963  function paused() public view virtual returns (bool) {... */\n    tag_90:\n        /* \"@openzeppelin/contracts-upgradeable/security/PausableUpgradeable.sol\":1926:1930  bool */\n      0x00\n        /* \"@openzeppelin/contracts-upgradeable/security/PausableUpgradeable.sol\":1949:1956  _paused */\n      dup1\n      0x00\n      swap1\n      sload\n      swap1\n      0x0100\n      exp\n      swap1\n      div\n      0xff\n      and\n        /* \"@openzeppelin/contracts-upgradeable/security/PausableUpgradeable.sol\":1942:1956  return _paused */\n      swap1\n      pop\n        /* \"@openzeppelin/contracts-upgradeable/security/PausableUpgradeable.sol\":1879:1963  function paused() public view virtual returns (bool) {... */\n      swap1\n      jump\t// out\n        /* \"contracts/HealthRecords.sol\":511:571  bytes32 public constant ADMIN_ROLE = keccak256(\"ADMIN_ROLE\") */\n    tag_93:\n        /* \"contracts/HealthRecords.sol\":548:571  keccak256(\"ADMIN_ROLE\") */\n      0xa49807205ce4d355092ef5a8a18f56e8913cf4a201fbe287825b095693c21775\n        /* \"contracts/HealthRecords.sol\":511:571  bytes32 public constant ADMIN_ROLE = keccak256(\"ADMIN_ROLE\") */\n      dup2\n      jump\t// out\n        /* \"contracts/HealthRecords.sol\":6449:6521  function pause() public onlyRole(ADMIN_ROLE) {... */\n    tag_96:\n        /* \"contracts/HealthRecords.sol\":548:571  keccak256(\"ADMIN_ROLE\") */\n      0xa49807205ce4d355092ef5a8a18f56e8913cf4a201fbe287825b095693c21775\n        /* \"@openzeppelin/contracts-upgradeable/access/AccessControlUpgradeable.sol\":3191:3207  _checkRole(role) */\n      tag_227\n        /* \"@openzeppelin/contracts-upgradeable/access/AccessControlUpgradeable.sol\":3202:3206  role */\n      dup2\n        /* \"@openzeppelin/contracts-upgradeable/access/AccessControlUpgradeable.sol\":3191:3201  _checkRole */\n      tag_165\n        /* \"@openzeppelin/contracts-upgradeable/access/AccessControlUpgradeable.sol\":3191:3207  _checkRole(role) */\n      jump\t// in\n    tag_227:\n        /* \"contracts/HealthRecords.sol\":6505:6513  _pause() */\n      tag_229\n        /* \"contracts/HealthRecords.sol\":6505:6511  _pause */\n      tag_230\n        /* \"contracts/HealthRecords.sol\":6505:6513  _pause() */\n      jump\t// in\n    tag_229:\n        /* \"contracts/HealthRecords.sol\":6449:6521  function pause() public onlyRole(ADMIN_ROLE) {... */\n      pop\n      jump\t// out\n        /* \"@openzeppelin/contracts-upgradeable/access/AccessControlUpgradeable.sol\":3732:3939  function hasRole(bytes32 role, address account) public view virtual returns (bool) {... */\n    tag_99:\n        /* \"@openzeppelin/contracts-upgradeable/access/AccessControlUpgradeable.sol\":3809:3813  bool */\n      0x00\n        /* \"@openzeppelin/contracts-upgradeable/access/AccessControlUpgradeable.sol\":3825:3855  AccessControlStorage storage $ */\n      dup1\n        /* \"@openzeppelin/contracts-upgradeable/access/AccessControlUpgradeable.sol\":3858:3884  _getAccessControlStorage() */\n      tag_232\n        /* \"@openzeppelin/contracts-upgradeable/access/AccessControlUpgradeable.sol\":3858:3882  _getAccessControlStorage */\n      tag_161\n        /* \"@openzeppelin/contracts-upgradeable/access/AccessControlUpgradeable.sol\":3858:3884  _getAccessControlStorage() */\n      jump\t// in\n    tag_232:\n        /* \"@openzeppelin/contracts-upgradeable/access/AccessControlUpgradeable.sol\":3825:3884  AccessControlStorage storage $ = _getAccessControlStorage() */\n      swap1\n      pop\n        /* \"@openzeppelin/contracts-upgradeable/access/AccessControlUpgradeable.sol\":3901:3902  $ */\n      dup1\n        /* \"@openzeppelin/contracts-upgradeable/access/AccessControlUpgradeable.sol\":3901:3909  $._roles */\n      0x00\n      add\n        /* \"@openzeppelin/contracts-upgradeable/access/AccessControlUpgradeable.sol\":3901:3915  $._roles[role] */\n      0x00\n        /* \"@openzeppelin/contracts-upgradeable/access/AccessControlUpgradeable.sol\":3910:3914  role */\n      dup6\n        /* \"@openzeppelin/contracts-upgradeable/access/AccessControlUpgradeable.sol\":3901:3915  $._roles[role] */\n      dup2\n      mstore\n      0x20\n      add\n      swap1\n      dup2\n      mstore\n      0x20\n      add\n      0x00\n      keccak256\n        /* \"@openzeppelin/contracts-upgradeable/access/AccessControlUpgradeable.sol\":3901:3923  $._roles[role].hasRole */\n      0x00\n      add\n        /* \"@openzeppelin/contracts-upgradeable/access/AccessControlUpgradeable.sol\":3901:3932  $._roles[role].hasRole[account] */\n      0x00\n        /* \"@openzeppelin/contracts-upgradeable/access/AccessControlUpgradeable.sol\":3924:3931  account */\n      dup5\n        /* \"@openzeppelin/contracts-upgradeable/access/AccessControlUpgradeable.sol\":3901:3932  $._roles[role].hasRole[account] */\n      0xffffffffffffffffffffffffffffffffffffffff\n      and\n      0xffffffffffffffffffffffffffffffffffffffff\n      and\n      dup2\n      mstore\n      0x20\n      add\n      swap1\n      dup2\n      mstore\n      0x20\n      add\n      0x00\n      keccak256\n      0x00\n      swap1\n      sload\n      swap1\n      0x0100\n      exp\n      swap1\n      div\n      0xff\n      and\n        /* \"@openzeppelin/contracts-upgradeable/access/AccessControlUpgradeable.sol\":3894:3932  return $._roles[role].hasRole[account] */\n      swap2\n      pop\n      pop\n        /* \"@openzeppelin/contracts-upgradeable/access/AccessControlUpgradeable.sol\":3732:3939  function hasRole(bytes32 role, address account) public view virtual returns (bool) {... */\n      swap3\n      swap2\n      pop\n      pop\n      jump\t// out\n        /* \"@openzeppelin/contracts-upgradeable/access/AccessControlUpgradeable.sol\":2317:2366  bytes32 public constant DEFAULT_ADMIN_ROLE = 0x00 */\n    tag_102:\n        /* \"@openzeppelin/contracts-upgradeable/access/AccessControlUpgradeable.sol\":2362:2366  0x00 */\n      0x00\n        /* \"@openzeppelin/contracts-upgradeable/access/AccessControlUpgradeable.sol\":2317:2366  bytes32 public constant DEFAULT_ADMIN_ROLE = 0x00 */\n      dup1\n      shl\n      dup2\n      jump\t// out\n        /* \"contracts/HealthRecords.sol\":4951:5255  function grantConsent(address _hospitalAddress) public onlyRole(PATIENT_ROLE) whenNotPaused {... */\n    tag_106:\n        /* \"contracts/HealthRecords.sol\":690:715  keccak256(\"PATIENT_ROLE\") */\n      0x72606200fac42b7dc86b75901d61ecfab2a4a1a6eded478b97a428094891abed\n        /* \"@openzeppelin/contracts-upgradeable/access/AccessControlUpgradeable.sol\":3191:3207  _checkRole(role) */\n      tag_234\n        /* \"@openzeppelin/contracts-upgradeable/access/AccessControlUpgradeable.sol\":3202:3206  role */\n      dup2\n        /* \"@openzeppelin/contracts-upgradeable/access/AccessControlUpgradeable.sol\":3191:3201  _checkRole */\n      tag_165\n        /* \"@openzeppelin/contracts-upgradeable/access/AccessControlUpgradeable.sol\":3191:3207  _checkRole(role) */\n      jump\t// in\n    tag_234:\n        /* \"@openzeppelin/contracts-upgradeable/security/PausableUpgradeable.sol\":1503:1522  _requireNotPaused() */\n      tag_236\n        /* \"@openzeppelin/contracts-upgradeable/security/PausableUpgradeable.sol\":1503:1520  _requireNotPaused */\n      tag_179\n        /* \"@openzeppelin/contracts-upgradeable/security/PausableUpgradeable.sol\":1503:1522  _requireNotPaused() */\n      jump\t// in\n    tag_236:\n        /* \"contracts/HealthRecords.sol\":5062:5071  hospitals */\n      0x64\n        /* \"contracts/HealthRecords.sol\":5062:5089  hospitals[_hospitalAddress] */\n      0x00\n        /* \"contracts/HealthRecords.sol\":5072:5088  _hospitalAddress */\n      dup4\n        /* \"contracts/HealthRecords.sol\":5062:5089  hospitals[_hospitalAddress] */\n      0xffffffffffffffffffffffffffffffffffffffff\n      and\n      0xffffffffffffffffffffffffffffffffffffffff\n      and\n      dup2\n      mstore\n      0x20\n      add\n      swap1\n      dup2\n      mstore\n      0x20\n      add\n      0x00\n      keccak256\n        /* \"contracts/HealthRecords.sol\":5062:5098  hospitals[_hospitalAddress].isActive */\n      0x01\n      add\n      0x00\n      swap1\n      sload\n      swap1\n      0x0100\n      exp\n      swap1\n      div\n      0xff\n      and\n        /* \"contracts/HealthRecords.sol\":5054:5125  require(hospitals[_hospitalAddress].isActive, \"Hospital is not active\") */\n      tag_238\n      jumpi\n      mload(0x40)\n      0x08c379a000000000000000000000000000000000000000000000000000000000\n      dup2\n      mstore\n      0x04\n      add\n      tag_239\n      swap1\n      tag_240\n      jump\t// in\n    tag_239:\n      mload(0x40)\n      dup1\n      swap2\n      sub\n      swap1\n      revert\n    tag_238:\n        /* \"contracts/HealthRecords.sol\":5183:5187  true */\n      0x01\n        /* \"contracts/HealthRecords.sol\":5136:5150  patientConsent */\n      0x68\n        /* \"contracts/HealthRecords.sol\":5136:5162  patientConsent[msg.sender] */\n      0x00\n        /* \"contracts/HealthRecords.sol\":5151:5161  msg.sender */\n      caller\n        /* \"contracts/HealthRecords.sol\":5136:5162  patientConsent[msg.sender] */\n      0xffffffffffffffffffffffffffffffffffffffff\n      and\n      0xffffffffffffffffffffffffffffffffffffffff\n      and\n      dup2\n      mstore\n      0x20\n      add\n      swap1\n      dup2\n      mstore\n      0x20\n      add\n      0x00\n      keccak256\n        /* \"contracts/HealthRecords.sol\":5136:5180  patientConsent[msg.sender][_hospitalAddress] */\n      0x00\n        /* \"contracts/HealthRecords.sol\":5163:5179  _hospitalAddress */\n      dup5\n        /* \"contracts/HealthRecords.sol\":5136:5180  patientConsent[msg.sender][_hospitalAddress] */\n      0xffffffffffffffffffffffffffffffffffffffff\n      and\n      0xffffffffffffffffffffffffffffffffffffffff\n      and\n      dup2\n      mstore\n      0x20\n      add\n      swap1\n      dup2\n      mstore\n      0x20\n      add\n      0x00\n      keccak256\n      0x00\n        /* \"contracts/HealthRecords.sol\":5136:5187  patientConsent[msg.sender][_hospitalAddress] = true */\n      0x0100\n      exp\n      dup2\n      sload\n      dup2\n      0xff\n      mul\n      not\n      and\n      swap1\n      dup4\n      iszero\n      iszero\n      mul\n      or\n      swap1\n      sstore\n      pop\n        /* \"contracts/HealthRecords.sol\":5230:5246  _hospitalAddress */\n      dup2\n        /* \"contracts/HealthRecords.sol\":5203:5247  ConsentGranted(msg.sender, _hospitalAddress) */\n      0xffffffffffffffffffffffffffffffffffffffff\n      and\n        /* \"contracts/HealthRecords.sol\":5218:5228  msg.sender */\n      caller\n        /* \"contracts/HealthRecords.sol\":5203:5247  ConsentGranted(msg.sender, _hospitalAddress) */\n      0xffffffffffffffffffffffffffffffffffffffff\n      and\n      0x8105c574d2239a3a4f73f5efc5bc253cffb275647df535adfa2c240739cc9220\n      mload(0x40)\n      mload(0x40)\n      dup1\n      swap2\n      sub\n      swap1\n      log3\n        /* \"contracts/HealthRecords.sol\":4951:5255  function grantConsent(address _hospitalAddress) public onlyRole(PATIENT_ROLE) whenNotPaused {... */\n      pop\n      pop\n      jump\t// out\n        /* \"contracts/HealthRecords.sol\":5495:5898  function grantEmergencyAccess(address _hospitalAddress) public onlyRole(PATIENT_ROLE) whenNotPaused {... */\n    tag_109:\n        /* \"contracts/HealthRecords.sol\":690:715  keccak256(\"PATIENT_ROLE\") */\n      0x72606200fac42b7dc86b75901d61ecfab2a4a1a6eded478b97a428094891abed\n        /* \"@openzeppelin/contracts-upgradeable/access/AccessControlUpgradeable.sol\":3191:3207  _checkRole(role) */\n      tag_242\n        /* \"@openzeppelin/contracts-upgradeable/access/AccessControlUpgradeable.sol\":3202:3206  role */\n      dup2\n        /* \"@openzeppelin/contracts-upgradeable/access/AccessControlUpgradeable.sol\":3191:3201  _checkRole */\n      tag_165\n        /* \"@openzeppelin/contracts-upgradeable/access/AccessControlUpgradeable.sol\":3191:3207  _checkRole(role) */\n      jump\t// in\n    tag_242:\n        /* \"@openzeppelin/contracts-upgradeable/security/PausableUpgradeable.sol\":1503:1522  _requireNotPaused() */\n      tag_244\n        /* \"@openzeppelin/contracts-upgradeable/security/PausableUpgradeable.sol\":1503:1520  _requireNotPaused */\n      tag_179\n        /* \"@openzeppelin/contracts-upgradeable/security/PausableUpgradeable.sol\":1503:1522  _requireNotPaused() */\n      jump\t// in\n    tag_244:\n        /* \"contracts/HealthRecords.sol\":5614:5623  hospitals */\n      0x64\n        /* \"contracts/HealthRecords.sol\":5614:5641  hospitals[_hospitalAddress] */\n      0x00\n        /* \"contracts/HealthRecords.sol\":5624:5640  _hospitalAddress */\n      dup4\n        /* \"contracts/HealthRecords.sol\":5614:5641  hospitals[_hospitalAddress] */\n      0xffffffffffffffffffffffffffffffffffffffff\n      and\n      0xffffffffffffffffffffffffffffffffffffffff\n      and\n      dup2\n      mstore\n      0x20\n      add\n      swap1\n      dup2\n      mstore\n      0x20\n      add\n      0x00\n      keccak256\n        /* \"contracts/HealthRecords.sol\":5614:5650  hospitals[_hospitalAddress].isActive */\n      0x01\n      add\n      0x00\n      swap1\n      sload\n      swap1\n      0x0100\n      exp\n      swap1\n      div\n      0xff\n      and\n        /* \"contracts/HealthRecords.sol\":5606:5677  require(hospitals[_hospitalAddress].isActive, \"Hospital is not active\") */\n      tag_246\n      jumpi\n      mload(0x40)\n      0x08c379a000000000000000000000000000000000000000000000000000000000\n      dup2\n      mstore\n      0x04\n      add\n      tag_247\n      swap1\n      tag_240\n      jump\t// in\n    tag_247:\n      mload(0x40)\n      dup1\n      swap2\n      sub\n      swap1\n      revert\n    tag_246:\n        /* \"contracts/HealthRecords.sol\":1590:1598  24 hours */\n      0x015180\n        /* \"contracts/HealthRecords.sol\":5734:5749  block.timestamp */\n      timestamp\n        /* \"contracts/HealthRecords.sol\":5734:5777  block.timestamp + EMERGENCY_ACCESS_DURATION */\n      tag_248\n      swap2\n      swap1\n      tag_249\n      jump\t// in\n    tag_248:\n        /* \"contracts/HealthRecords.sol\":5688:5713  emergencyAccessExpiration */\n      0x69\n        /* \"contracts/HealthRecords.sol\":5688:5731  emergencyAccessExpiration[_hospitalAddress] */\n      0x00\n        /* \"contracts/HealthRecords.sol\":5714:5730  _hospitalAddress */\n      dup5\n        /* \"contracts/HealthRecords.sol\":5688:5731  emergencyAccessExpiration[_hospitalAddress] */\n      0xffffffffffffffffffffffffffffffffffffffff\n      and\n      0xffffffffffffffffffffffffffffffffffffffff\n      and\n      dup2\n      mstore\n      0x20\n      add\n      swap1\n      dup2\n      mstore\n      0x20\n      add\n      0x00\n      keccak256\n        /* \"contracts/HealthRecords.sol\":5688:5777  emergencyAccessExpiration[_hospitalAddress] = block.timestamp + EMERGENCY_ACCESS_DURATION */\n      dup2\n      swap1\n      sstore\n      pop\n        /* \"contracts/HealthRecords.sol\":5828:5844  _hospitalAddress */\n      dup2\n        /* \"contracts/HealthRecords.sol\":5793:5890  EmergencyAccessGranted(msg.sender, _hospitalAddress, emergencyAccessExpiration[_hospitalAddress]) */\n      0xffffffffffffffffffffffffffffffffffffffff\n      and\n        /* \"contracts/HealthRecords.sol\":5816:5826  msg.sender */\n      caller\n        /* \"contracts/HealthRecords.sol\":5793:5890  EmergencyAccessGranted(msg.sender, _hospitalAddress, emergencyAccessExpiration[_hospitalAddress]) */\n      0xffffffffffffffffffffffffffffffffffffffff\n      and\n      0x5d1675d647fd82d7866123d4b61e400e9b9cd41946ae22001974c31e8addb20b\n        /* \"contracts/HealthRecords.sol\":5846:5871  emergencyAccessExpiration */\n      0x69\n        /* \"contracts/HealthRecords.sol\":5846:5889  emergencyAccessExpiration[_hospitalAddress] */\n      0x00\n        /* \"contracts/HealthRecords.sol\":5872:5888  _hospitalAddress */\n      dup7\n        /* \"contracts/HealthRecords.sol\":5846:5889  emergencyAccessExpiration[_hospitalAddress] */\n      0xffffffffffffffffffffffffffffffffffffffff\n      and\n      0xffffffffffffffffffffffffffffffffffffffff\n      and\n      dup2\n      mstore\n      0x20\n      add\n      swap1\n      dup2\n      mstore\n      0x20\n      add\n      0x00\n      keccak256\n      sload\n        /* \"contracts/HealthRecords.sol\":5793:5890  EmergencyAccessGranted(msg.sender, _hospitalAddress, emergencyAccessExpiration[_hospitalAddress]) */\n      mload(0x40)\n      tag_250\n      swap2\n      swap1\n      tag_54\n      jump\t// in\n    tag_250:\n      mload(0x40)\n      dup1\n      swap2\n      sub\n      swap1\n      log3\n        /* \"contracts/HealthRecords.sol\":5495:5898  function grantEmergencyAccess(address _hospitalAddress) public onlyRole(PATIENT_ROLE) whenNotPaused {... */\n      pop\n      pop\n      jump\t// out\n        /* \"contracts/HealthRecords.sol\":651:715  bytes32 public constant PATIENT_ROLE = keccak256(\"PATIENT_ROLE\") */\n    tag_111:\n        /* \"contracts/HealthRecords.sol\":690:715  keccak256(\"PATIENT_ROLE\") */\n      0x72606200fac42b7dc86b75901d61ecfab2a4a1a6eded478b97a428094891abed\n        /* \"contracts/HealthRecords.sol\":651:715  bytes32 public constant PATIENT_ROLE = keccak256(\"PATIENT_ROLE\") */\n      dup2\n      jump\t// out\n        /* \"contracts/HealthRecords.sol\":6082:6441  function importInteroperableData(string memory _dataStandard) public onlyRole(HOSPITAL_ROLE) whenNotPaused {... */\n    tag_116:\n        /* \"contracts/HealthRecords.sol\":618:644  keccak256(\"HOSPITAL_ROLE\") */\n      0xc8f5b4140cca307cd927e59cbeea8291bffeee228fc677f0fa059aef7b4dd8d5\n        /* \"@openzeppelin/contracts-upgradeable/access/AccessControlUpgradeable.sol\":3191:3207  _checkRole(role) */\n      tag_252\n        /* \"@openzeppelin/contracts-upgradeable/access/AccessControlUpgradeable.sol\":3202:3206  role */\n      dup2\n        /* \"@openzeppelin/contracts-upgradeable/access/AccessControlUpgradeable.sol\":3191:3201  _checkRole */\n      tag_165\n        /* \"@openzeppelin/contracts-upgradeable/access/AccessControlUpgradeable.sol\":3191:3207  _checkRole(role) */\n      jump\t// in\n    tag_252:\n        /* \"@openzeppelin/contracts-upgradeable/security/PausableUpgradeable.sol\":1503:1522  _requireNotPaused() */\n      tag_254\n        /* \"@openzeppelin/contracts-upgradeable/security/PausableUpgradeable.sol\":1503:1520  _requireNotPaused */\n      tag_179\n        /* \"@openzeppelin/contracts-upgradeable/security/PausableUpgradeable.sol\":1503:1522  _requireNotPaused() */\n      jump\t// in\n    tag_254:\n        /* \"contracts/HealthRecords.sol\":6407:6417  msg.sender */\n      caller\n        /* \"contracts/HealthRecords.sol\":6381:6433  InteroperableDataImported(msg.sender, _dataStandard) */\n      0xffffffffffffffffffffffffffffffffffffffff\n      and\n      0x20a1c034b6b182ef274c357c49bda7799549e8b15d43abba54ab69dc0434d86f\n        /* \"contracts/HealthRecords.sol\":6419:6432  _dataStandard */\n      dup4\n        /* \"contracts/HealthRecords.sol\":6381:6433  InteroperableDataImported(msg.sender, _dataStandard) */\n      mload(0x40)\n      tag_256\n      swap2\n      swap1\n      tag_198\n      jump\t// in\n    tag_256:\n      mload(0x40)\n      dup1\n      swap2\n      sub\n      swap1\n      log2\n        /* \"contracts/HealthRecords.sol\":6082:6441  function importInteroperableData(string memory _dataStandard) public onlyRole(HOSPITAL_ROLE) whenNotPaused {... */\n      pop\n      pop\n      jump\t// out\n        /* \"contracts/HealthRecords.sol\":2262:2531  function initialize(address initialAdmin) public initializer {... */\n    tag_119:\n        /* \"@openzeppelin/contracts-upgradeable/proxy/utils/Initializable.sol\":4158:4188  InitializableStorage storage $ */\n      0x00\n        /* \"@openzeppelin/contracts-upgradeable/proxy/utils/Initializable.sol\":4191:4217  _getInitializableStorage() */\n      tag_258\n        /* \"@openzeppelin/contracts-upgradeable/proxy/utils/Initializable.sol\":4191:4215  _getInitializableStorage */\n      tag_259\n        /* \"@openzeppelin/contracts-upgradeable/proxy/utils/Initializable.sol\":4191:4217  _getInitializableStorage() */\n      jump\t// in\n    tag_258:\n        /* \"@openzeppelin/contracts-upgradeable/proxy/utils/Initializable.sol\":4158:4217  InitializableStorage storage $ = _getInitializableStorage() */\n      swap1\n      pop\n        /* \"@openzeppelin/contracts-upgradeable/proxy/utils/Initializable.sol\":4279:4298  bool isTopLevelCall */\n      0x00\n        /* \"@openzeppelin/contracts-upgradeable/proxy/utils/Initializable.sol\":4302:4303  $ */\n      dup2\n        /* \"@openzeppelin/contracts-upgradeable/proxy/utils/Initializable.sol\":4302:4317  $._initializing */\n      0x00\n      add\n      0x08\n      swap1\n      sload\n      swap1\n      0x0100\n      exp\n      swap1\n      div\n      0xff\n      and\n        /* \"@openzeppelin/contracts-upgradeable/proxy/utils/Initializable.sol\":4301:4317  !$._initializing */\n      iszero\n        /* \"@openzeppelin/contracts-upgradeable/proxy/utils/Initializable.sol\":4279:4317  bool isTopLevelCall = !$._initializing */\n      swap1\n      pop\n        /* \"@openzeppelin/contracts-upgradeable/proxy/utils/Initializable.sol\":4327:4345  uint64 initialized */\n      0x00\n        /* \"@openzeppelin/contracts-upgradeable/proxy/utils/Initializable.sol\":4348:4349  $ */\n      dup3\n        /* \"@openzeppelin/contracts-upgradeable/proxy/utils/Initializable.sol\":4348:4362  $._initialized */\n      0x00\n      add\n      0x00\n      swap1\n      sload\n      swap1\n      0x0100\n      exp\n      swap1\n      div\n      0xffffffffffffffff\n      and\n        /* \"@openzeppelin/contracts-upgradeable/proxy/utils/Initializable.sol\":4327:4362  uint64 initialized = $._initialized */\n      swap1\n      pop\n        /* \"@openzeppelin/contracts-upgradeable/proxy/utils/Initializable.sol\":4706:4723  bool initialSetup */\n      0x00\n        /* \"@openzeppelin/contracts-upgradeable/proxy/utils/Initializable.sol\":4741:4742  0 */\n      dup1\n        /* \"@openzeppelin/contracts-upgradeable/proxy/utils/Initializable.sol\":4726:4737  initialized */\n      dup3\n        /* \"@openzeppelin/contracts-upgradeable/proxy/utils/Initializable.sol\":4726:4742  initialized == 0 */\n      0xffffffffffffffff\n      and\n      eq\n        /* \"@openzeppelin/contracts-upgradeable/proxy/utils/Initializable.sol\":4726:4760  initialized == 0 && isTopLevelCall */\n      dup1\n      iszero\n      tag_260\n      jumpi\n      pop\n        /* \"@openzeppelin/contracts-upgradeable/proxy/utils/Initializable.sol\":4746:4760  isTopLevelCall */\n      dup3\n        /* \"@openzeppelin/contracts-upgradeable/proxy/utils/Initializable.sol\":4726:4760  initialized == 0 && isTopLevelCall */\n    tag_260:\n        /* \"@openzeppelin/contracts-upgradeable/proxy/utils/Initializable.sol\":4706:4760  bool initialSetup = initialized == 0 && isTopLevelCall */\n      swap1\n      pop\n        /* \"@openzeppelin/contracts-upgradeable/proxy/utils/Initializable.sol\":4770:4787  bool construction */\n      0x00\n        /* \"@openzeppelin/contracts-upgradeable/proxy/utils/Initializable.sol\":4805:4806  1 */\n      0x01\n        /* \"@openzeppelin/contracts-upgradeable/proxy/utils/Initializable.sol\":4790:4801  initialized */\n      dup4\n        /* \"@openzeppelin/contracts-upgradeable/proxy/utils/Initializable.sol\":4790:4806  initialized == 1 */\n      0xffffffffffffffff\n      and\n      eq\n        /* \"@openzeppelin/contracts-upgradeable/proxy/utils/Initializable.sol\":4790:4840  initialized == 1 && address(this).code.length == 0 */\n      dup1\n      iszero\n      tag_261\n      jumpi\n      pop\n        /* \"@openzeppelin/contracts-upgradeable/proxy/utils/Initializable.sol\":4839:4840  0 */\n      0x00\n        /* \"@openzeppelin/contracts-upgradeable/proxy/utils/Initializable.sol\":4818:4822  this */\n      address\n        /* \"@openzeppelin/contracts-upgradeable/proxy/utils/Initializable.sol\":4810:4835  address(this).code.length */\n      0xffffffffffffffffffffffffffffffffffffffff\n      and\n      extcodesize\n        /* \"@openzeppelin/contracts-upgradeable/proxy/utils/Initializable.sol\":4810:4840  address(this).code.length == 0 */\n      eq\n        /* \"@openzeppelin/contracts-upgradeable/proxy/utils/Initializable.sol\":4790:4840  initialized == 1 && address(this).code.length == 0 */\n    tag_261:\n        /* \"@openzeppelin/contracts-upgradeable/proxy/utils/Initializable.sol\":4770:4840  bool construction = initialized == 1 && address(this).code.length == 0 */\n      swap1\n      pop\n        /* \"@openzeppelin/contracts-upgradeable/proxy/utils/Initializable.sol\":4856:4868  initialSetup */\n      dup2\n        /* \"@openzeppelin/contracts-upgradeable/proxy/utils/Initializable.sol\":4855:4868  !initialSetup */\n      iszero\n        /* \"@openzeppelin/contracts-upgradeable/proxy/utils/Initializable.sol\":4855:4885  !initialSetup && !construction */\n      dup1\n      iszero\n      tag_262\n      jumpi\n      pop\n        /* \"@openzeppelin/contracts-upgradeable/proxy/utils/Initializable.sol\":4873:4885  construction */\n      dup1\n        /* \"@openzeppelin/contracts-upgradeable/proxy/utils/Initializable.sol\":4872:4885  !construction */\n      iszero\n        /* \"@openzeppelin/contracts-upgradeable/proxy/utils/Initializable.sol\":4855:4885  !initialSetup && !construction */\n    tag_262:\n        /* \"@openzeppelin/contracts-upgradeable/proxy/utils/Initializable.sol\":4851:4942  if (!initialSetup && !construction) {... */\n      iszero\n      tag_263\n      jumpi\n        /* \"@openzeppelin/contracts-upgradeable/proxy/utils/Initializable.sol\":4908:4931  InvalidInitialization() */\n      mload(0x40)\n      0xf92ee8a900000000000000000000000000000000000000000000000000000000\n      dup2\n      mstore\n      0x04\n      add\n      mload(0x40)\n      dup1\n      swap2\n      sub\n      swap1\n      revert\n        /* \"@openzeppelin/contracts-upgradeable/proxy/utils/Initializable.sol\":4851:4942  if (!initialSetup && !construction) {... */\n    tag_263:\n        /* \"@openzeppelin/contracts-upgradeable/proxy/utils/Initializable.sol\":4968:4969  1 */\n      0x01\n        /* \"@openzeppelin/contracts-upgradeable/proxy/utils/Initializable.sol\":4951:4952  $ */\n      dup6\n        /* \"@openzeppelin/contracts-upgradeable/proxy/utils/Initializable.sol\":4951:4965  $._initialized */\n      0x00\n      add\n      0x00\n        /* \"@openzeppelin/contracts-upgradeable/proxy/utils/Initializable.sol\":4951:4969  $._initialized = 1 */\n      0x0100\n      exp\n      dup2\n      sload\n      dup2\n      0xffffffffffffffff\n      mul\n      not\n      and\n      swap1\n      dup4\n      0xffffffffffffffff\n      and\n      mul\n      or\n      swap1\n      sstore\n      pop\n        /* \"@openzeppelin/contracts-upgradeable/proxy/utils/Initializable.sol\":4983:4997  isTopLevelCall */\n      dup4\n        /* \"@openzeppelin/contracts-upgradeable/proxy/utils/Initializable.sol\":4979:5046  if (isTopLevelCall) {... */\n      iszero\n      tag_264\n      jumpi\n        /* \"@openzeppelin/contracts-upgradeable/proxy/utils/Initializable.sol\":5031:5035  true */\n      0x01\n        /* \"@openzeppelin/contracts-upgradeable/proxy/utils/Initializable.sol\":5013:5014  $ */\n      dup6\n        /* \"@openzeppelin/contracts-upgradeable/proxy/utils/Initializable.sol\":5013:5028  $._initializing */\n      0x00\n      add\n      0x08\n        /* \"@openzeppelin/contracts-upgradeable/proxy/utils/Initializable.sol\":5013:5035  $._initializing = true */\n      0x0100\n      exp\n      dup2\n      sload\n      dup2\n      0xff\n      mul\n      not\n      and\n      swap1\n      dup4\n      iszero\n      iszero\n      mul\n      or\n      swap1\n      sstore\n      pop\n        /* \"@openzeppelin/contracts-upgradeable/proxy/utils/Initializable.sol\":4979:5046  if (isTopLevelCall) {... */\n    tag_264:\n        /* \"contracts/HealthRecords.sol\":2334:2356  __AccessControl_init() */\n      tag_266\n        /* \"contracts/HealthRecords.sol\":2334:2354  __AccessControl_init */\n      tag_267\n        /* \"contracts/HealthRecords.sol\":2334:2356  __AccessControl_init() */\n      jump\t// in\n    tag_266:\n        /* \"contracts/HealthRecords.sol\":2367:2384  __Pausable_init() */\n      tag_268\n        /* \"contracts/HealthRecords.sol\":2367:2382  __Pausable_init */\n      tag_269\n        /* \"contracts/HealthRecords.sol\":2367:2384  __Pausable_init() */\n      jump\t// in\n    tag_268:\n        /* \"contracts/HealthRecords.sol\":2395:2419  __ReentrancyGuard_init() */\n      tag_270\n        /* \"contracts/HealthRecords.sol\":2395:2417  __ReentrancyGuard_init */\n      tag_271\n        /* \"contracts/HealthRecords.sol\":2395:2419  __ReentrancyGuard_init() */\n      jump\t// in\n    tag_270:\n        /* \"contracts/HealthRecords.sol\":2432:2476  _grantRole(DEFAULT_ADMIN_ROLE, initialAdmin) */\n      tag_272\n        /* \"@openzeppelin/contracts-upgradeable/access/AccessControlUpgradeable.sol\":2362:2366  0x00 */\n      0x00\n        /* \"contracts/HealthRecords.sol\":2443:2461  DEFAULT_ADMIN_ROLE */\n      dup1\n      shl\n        /* \"contracts/HealthRecords.sol\":2463:2475  initialAdmin */\n      dup8\n        /* \"contracts/HealthRecords.sol\":2432:2442  _grantRole */\n      tag_168\n        /* \"contracts/HealthRecords.sol\":2432:2476  _grantRole(DEFAULT_ADMIN_ROLE, initialAdmin) */\n      jump\t// in\n    tag_272:\n      pop\n        /* \"contracts/HealthRecords.sol\":2487:2523  _grantRole(ADMIN_ROLE, initialAdmin) */\n      tag_273\n        /* \"contracts/HealthRecords.sol\":548:571  keccak256(\"ADMIN_ROLE\") */\n      0xa49807205ce4d355092ef5a8a18f56e8913cf4a201fbe287825b095693c21775\n        /* \"contracts/HealthRecords.sol\":2510:2522  initialAdmin */\n      dup8\n        /* \"contracts/HealthRecords.sol\":2487:2497  _grantRole */\n      tag_168\n        /* \"contracts/HealthRecords.sol\":2487:2523  _grantRole(ADMIN_ROLE, initialAdmin) */\n      jump\t// in\n    tag_273:\n      pop\n        /* \"@openzeppelin/contracts-upgradeable/proxy/utils/Initializable.sol\":5070:5084  isTopLevelCall */\n      dup4\n        /* \"@openzeppelin/contracts-upgradeable/proxy/utils/Initializable.sol\":5066:5167  if (isTopLevelCall) {... */\n      iszero\n      tag_274\n      jumpi\n        /* \"@openzeppelin/contracts-upgradeable/proxy/utils/Initializable.sol\":5118:5123  false */\n      0x00\n        /* \"@openzeppelin/contracts-upgradeable/proxy/utils/Initializable.sol\":5100:5101  $ */\n      dup6\n        /* \"@openzeppelin/contracts-upgradeable/proxy/utils/Initializable.sol\":5100:5115  $._initializing */\n      0x00\n      add\n      0x08\n        /* \"@openzeppelin/contracts-upgradeable/proxy/utils/Initializable.sol\":5100:5123  $._initializing = false */\n      0x0100\n      exp\n      dup2\n      sload\n      dup2\n      0xff\n      mul\n      not\n      and\n      swap1\n      dup4\n      iszero\n      iszero\n      mul\n      or\n      swap1\n      sstore\n      pop\n        /* \"@openzeppelin/contracts-upgradeable/proxy/utils/Initializable.sol\":5142:5156  Initialized(1) */\n      0xc7f505b2f371ae2175ee4913f4499e1f2633a7b5936321eed1cdaeb6115181d2\n        /* \"@openzeppelin/contracts-upgradeable/proxy/utils/Initializable.sol\":5154:5155  1 */\n      0x01\n        /* \"@openzeppelin/contracts-upgradeable/proxy/utils/Initializable.sol\":5142:5156  Initialized(1) */\n      mload(0x40)\n      tag_275\n      swap2\n      swap1\n      tag_276\n      jump\t// in\n    tag_275:\n      mload(0x40)\n      dup1\n      swap2\n      sub\n      swap1\n      log1\n        /* \"@openzeppelin/contracts-upgradeable/proxy/utils/Initializable.sol\":5066:5167  if (isTopLevelCall) {... */\n    tag_274:\n        /* \"@openzeppelin/contracts-upgradeable/proxy/utils/Initializable.sol\":4092:5173  {... */\n      pop\n      pop\n      pop\n      pop\n      pop\n        /* \"contracts/HealthRecords.sol\":2262:2531  function initialize(address initialAdmin) public initializer {... */\n      pop\n      jump\t// out\n        /* \"contracts/HealthRecords.sol\":4027:4683  function getRecord(address _patientAddress, uint256 _recordId) public view returns (string memory, string memory, uint256, address) {... */\n    tag_123:\n        /* \"contracts/HealthRecords.sol\":4111:4124  string memory */\n      0x60\n        /* \"contracts/HealthRecords.sol\":4126:4139  string memory */\n      dup1\n        /* \"contracts/HealthRecords.sol\":4141:4148  uint256 */\n      0x00\n        /* \"contracts/HealthRecords.sol\":4150:4157  address */\n      dup1\n        /* \"contracts/HealthRecords.sol\":4178:4212  hasRole(HOSPITAL_ROLE, msg.sender) */\n      tag_278\n        /* \"contracts/HealthRecords.sol\":618:644  keccak256(\"HOSPITAL_ROLE\") */\n      0xc8f5b4140cca307cd927e59cbeea8291bffeee228fc677f0fa059aef7b4dd8d5\n        /* \"contracts/HealthRecords.sol\":4201:4211  msg.sender */\n      caller\n        /* \"contracts/HealthRecords.sol\":4178:4185  hasRole */\n      tag_99\n        /* \"contracts/HealthRecords.sol\":4178:4212  hasRole(HOSPITAL_ROLE, msg.sender) */\n      jump\t// in\n    tag_278:\n        /* \"contracts/HealthRecords.sol\":4178:4245  hasRole(HOSPITAL_ROLE, msg.sender) || msg.sender == _patientAddress */\n      dup1\n      tag_279\n      jumpi\n      pop\n        /* \"contracts/HealthRecords.sol\":4230:4245  _patientAddress */\n      dup6\n        /* \"contracts/HealthRecords.sol\":4216:4245  msg.sender == _patientAddress */\n      0xffffffffffffffffffffffffffffffffffffffff\n      and\n        /* \"contracts/HealthRecords.sol\":4216:4226  msg.sender */\n      caller\n        /* \"contracts/HealthRecords.sol\":4216:4245  msg.sender == _patientAddress */\n      0xffffffffffffffffffffffffffffffffffffffff\n      and\n      eq\n        /* \"contracts/HealthRecords.sol\":4178:4245  hasRole(HOSPITAL_ROLE, msg.sender) || msg.sender == _patientAddress */\n    tag_279:\n        /* \"contracts/HealthRecords.sol\":4170:4264  require(hasRole(HOSPITAL_ROLE, msg.sender) || msg.sender == _patientAddress, \"Not authorized\") */\n      tag_280\n      jumpi\n      mload(0x40)\n      0x08c379a000000000000000000000000000000000000000000000000000000000\n      dup2\n      mstore\n      0x04\n      add\n      tag_281\n      swap1\n      tag_158\n      jump\t// in\n    tag_281:\n      mload(0x40)\n      dup1\n      swap2\n      sub\n      swap1\n      revert\n    tag_280:\n        /* \"contracts/HealthRecords.sol\":4283:4297  patientConsent */\n      0x68\n        /* \"contracts/HealthRecords.sol\":4283:4314  patientConsent[_patientAddress] */\n      0x00\n        /* \"contracts/HealthRecords.sol\":4298:4313  _patientAddress */\n      dup8\n        /* \"contracts/HealthRecords.sol\":4283:4314  patientConsent[_patientAddress] */\n      0xffffffffffffffffffffffffffffffffffffffff\n      and\n      0xffffffffffffffffffffffffffffffffffffffff\n      and\n      dup2\n      mstore\n      0x20\n      add\n      swap1\n      dup2\n      mstore\n      0x20\n      add\n      0x00\n      keccak256\n        /* \"contracts/HealthRecords.sol\":4283:4326  patientConsent[_patientAddress][msg.sender] */\n      0x00\n        /* \"contracts/HealthRecords.sol\":4315:4325  msg.sender */\n      caller\n        /* \"contracts/HealthRecords.sol\":4283:4326  patientConsent[_patientAddress][msg.sender] */\n      0xffffffffffffffffffffffffffffffffffffffff\n      and\n      0xffffffffffffffffffffffffffffffffffffffff\n      and\n      dup2\n      mstore\n      0x20\n      add\n      swap1\n      dup2\n      mstore\n      0x20\n      add\n      0x00\n      keccak256\n      0x00\n      swap1\n      sload\n      swap1\n      0x0100\n      exp\n      swap1\n      div\n      0xff\n      and\n        /* \"contracts/HealthRecords.sol\":4283:4359  patientConsent[_patientAddress][msg.sender] || msg.sender == _patientAddress */\n      dup1\n      tag_282\n      jumpi\n      pop\n        /* \"contracts/HealthRecords.sol\":4344:4359  _patientAddress */\n      dup6\n        /* \"contracts/HealthRecords.sol\":4330:4359  msg.sender == _patientAddress */\n      0xffffffffffffffffffffffffffffffffffffffff\n      and\n        /* \"contracts/HealthRecords.sol\":4330:4340  msg.sender */\n      caller\n        /* \"contracts/HealthRecords.sol\":4330:4359  msg.sender == _patientAddress */\n      0xffffffffffffffffffffffffffffffffffffffff\n      and\n      eq\n        /* \"contracts/HealthRecords.sol\":4283:4359  patientConsent[_patientAddress][msg.sender] || msg.sender == _patientAddress */\n    tag_282:\n        /* \"contracts/HealthRecords.sol\":4283:4392  patientConsent[_patientAddress][msg.sender] || msg.sender == _patientAddress || isEmergencyAccess(msg.sender) */\n      dup1\n      tag_283\n      jumpi\n      pop\n        /* \"contracts/HealthRecords.sol\":4363:4392  isEmergencyAccess(msg.sender) */\n      tag_284\n        /* \"contracts/HealthRecords.sol\":4381:4391  msg.sender */\n      caller\n        /* \"contracts/HealthRecords.sol\":4363:4380  isEmergencyAccess */\n      tag_77\n        /* \"contracts/HealthRecords.sol\":4363:4392  isEmergencyAccess(msg.sender) */\n      jump\t// in\n    tag_284:\n        /* \"contracts/HealthRecords.sol\":4283:4392  patientConsent[_patientAddress][msg.sender] || msg.sender == _patientAddress || isEmergencyAccess(msg.sender) */\n    tag_283:\n        /* \"contracts/HealthRecords.sol\":4275:4413  require(patientConsent[_patientAddress][msg.sender] || msg.sender == _patientAddress || isEmergencyAccess(msg.sender), \"No consent given\") */\n      tag_285\n      jumpi\n      mload(0x40)\n      0x08c379a000000000000000000000000000000000000000000000000000000000\n      dup2\n      mstore\n      0x04\n      add\n      tag_286\n      swap1\n      tag_191\n      jump\t// in\n    tag_286:\n      mload(0x40)\n      dup1\n      swap2\n      sub\n      swap1\n      revert\n    tag_285:\n        /* \"contracts/HealthRecords.sol\":4444:4462  patientRecordCount */\n      0x67\n        /* \"contracts/HealthRecords.sol\":4444:4479  patientRecordCount[_patientAddress] */\n      0x00\n        /* \"contracts/HealthRecords.sol\":4463:4478  _patientAddress */\n      dup8\n        /* \"contracts/HealthRecords.sol\":4444:4479  patientRecordCount[_patientAddress] */\n      0xffffffffffffffffffffffffffffffffffffffff\n      and\n      0xffffffffffffffffffffffffffffffffffffffff\n      and\n      dup2\n      mstore\n      0x20\n      add\n      swap1\n      dup2\n      mstore\n      0x20\n      add\n      0x00\n      keccak256\n      sload\n        /* \"contracts/HealthRecords.sol\":4432:4441  _recordId */\n      dup6\n        /* \"contracts/HealthRecords.sol\":4432:4479  _recordId < patientRecordCount[_patientAddress] */\n      lt\n        /* \"contracts/HealthRecords.sol\":4424:4505  require(_recordId < patientRecordCount[_patientAddress], \"Record does not exist\") */\n      tag_287\n      jumpi\n      mload(0x40)\n      0x08c379a000000000000000000000000000000000000000000000000000000000\n      dup2\n      mstore\n      0x04\n      add\n      tag_288\n      swap1\n      tag_289\n      jump\t// in\n    tag_288:\n      mload(0x40)\n      dup1\n      swap2\n      sub\n      swap1\n      revert\n    tag_287:\n        /* \"contracts/HealthRecords.sol\":4518:4545  MedicalRecord memory record */\n      0x00\n        /* \"contracts/HealthRecords.sol\":4548:4562  patientRecords */\n      0x66\n        /* \"contracts/HealthRecords.sol\":4548:4579  patientRecords[_patientAddress] */\n      0x00\n        /* \"contracts/HealthRecords.sol\":4563:4578  _patientAddress */\n      dup9\n        /* \"contracts/HealthRecords.sol\":4548:4579  patientRecords[_patientAddress] */\n      0xffffffffffffffffffffffffffffffffffffffff\n      and\n      0xffffffffffffffffffffffffffffffffffffffff\n      and\n      dup2\n      mstore\n      0x20\n      add\n      swap1\n      dup2\n      mstore\n      0x20\n      add\n      0x00\n      keccak256\n        /* \"contracts/HealthRecords.sol\":4548:4590  patientRecords[_patientAddress][_recordId] */\n      0x00\n        /* \"contracts/HealthRecords.sol\":4580:4589  _recordId */\n      dup8\n        /* \"contracts/HealthRecords.sol\":4548:4590  patientRecords[_patientAddress][_recordId] */\n      dup2\n      mstore\n      0x20\n      add\n      swap1\n      dup2\n      mstore\n      0x20\n      add\n      0x00\n      keccak256\n        /* \"contracts/HealthRecords.sol\":4518:4590  MedicalRecord memory record = patientRecords[_patientAddress][_recordId] */\n      mload(0x40)\n      dup1\n      0x80\n      add\n      0x40\n      mstore\n      swap1\n      dup2\n      0x00\n      dup3\n      add\n      dup1\n      sload\n      tag_290\n      swap1\n      tag_148\n      jump\t// in\n    tag_290:\n      dup1\n      0x1f\n      add\n      0x20\n      dup1\n      swap2\n      div\n      mul\n      0x20\n      add\n      mload(0x40)\n      swap1\n      dup2\n      add\n      0x40\n      mstore\n      dup1\n      swap3\n      swap2\n      swap1\n      dup2\n      dup2\n      mstore\n      0x20\n      add\n      dup3\n      dup1\n      sload\n      tag_291\n      swap1\n      tag_148\n      jump\t// in\n    tag_291:\n      dup1\n      iszero\n      tag_292\n      jumpi\n      dup1\n      0x1f\n      lt\n      tag_293\n      jumpi\n      0x0100\n      dup1\n      dup4\n      sload\n      div\n      mul\n      dup4\n      mstore\n      swap2\n      0x20\n      add\n      swap2\n      jump(tag_292)\n    tag_293:\n      dup3\n      add\n      swap2\n      swap1\n      0x00\n      mstore\n      keccak256(0x00, 0x20)\n      swap1\n    tag_294:\n      dup2\n      sload\n      dup2\n      mstore\n      swap1\n      0x01\n      add\n      swap1\n      0x20\n      add\n      dup1\n      dup4\n      gt\n      tag_294\n      jumpi\n      dup3\n      swap1\n      sub\n      0x1f\n      and\n      dup3\n      add\n      swap2\n    tag_292:\n      pop\n      pop\n      pop\n      pop\n      pop\n      dup2\n      mstore\n      0x20\n      add\n      0x01\n      dup3\n      add\n      dup1\n      sload\n      tag_295\n      swap1\n      tag_148\n      jump\t// in\n    tag_295:\n      dup1\n      0x1f\n      add\n      0x20\n      dup1\n      swap2\n      div\n      mul\n      0x20\n      add\n      mload(0x40)\n      swap1\n      dup2\n      add\n      0x40\n      mstore\n      dup1\n      swap3\n      swap2\n      swap1\n      dup2\n      dup2\n      mstore\n      0x20\n      add\n      dup3\n      dup1\n      sload\n      tag_296\n      swap1\n      tag_148\n      jump\t// in\n    tag_296:\n      dup1\n      iszero\n      tag_297\n      jumpi\n      dup1\n      0x1f\n      lt\n      tag_298\n      jumpi\n      0x0100\n      dup1\n      dup4\n      sload\n      div\n      mul\n      dup4\n      mstore\n      swap2\n      0x20\n      add\n      swap2\n      jump(tag_297)\n    tag_298:\n      dup3\n      add\n      swap2\n      swap1\n      0x00\n      mstore\n      keccak256(0x00, 0x20)\n      swap1\n    tag_299:\n      dup2\n      sload\n      dup2\n      mstore\n      swap1\n      0x01\n      add\n      swap1\n      0x20\n      add\n      dup1\n      dup4\n      gt\n      tag_299\n      jumpi\n      dup3\n      swap1\n      sub\n      0x1f\n      and\n      dup3\n      add\n      swap2\n    tag_297:\n      pop\n      pop\n      pop\n      pop\n      pop\n      dup2\n      mstore\n      0x20\n      add\n      0x02\n      dup3\n      add\n      sload\n      dup2\n      mstore\n      0x20\n      add\n      0x03\n      dup3\n      add\n      0x00\n      swap1\n      sload\n      swap1\n      0x0100\n      exp\n      swap1\n      div\n      0xffffffffffffffffffffffffffffffffffffffff\n      and\n      0xffffffffffffffffffffffffffffffffffffffff\n      and\n      0xffffffffffffffffffffffffffffffffffffffff\n      and\n      dup2\n      mstore\n      pop\n      pop\n      swap1\n      pop\n        /* \"contracts/HealthRecords.sol\":4609:4615  record */\n      dup1\n        /* \"contracts/HealthRecords.sol\":4609:4620  record.data */\n      0x00\n      add\n      mload\n        /* \"contracts/HealthRecords.sol\":4622:4628  record */\n      dup2\n        /* \"contracts/HealthRecords.sol\":4622:4637  record.dataType */\n      0x20\n      add\n      mload\n        /* \"contracts/HealthRecords.sol\":4639:4645  record */\n      dup3\n        /* \"contracts/HealthRecords.sol\":4639:4655  record.timestamp */\n      0x40\n      add\n      mload\n        /* \"contracts/HealthRecords.sol\":4657:4663  record */\n      dup4\n        /* \"contracts/HealthRecords.sol\":4657:4674  record.uploadedBy */\n      0x60\n      add\n      mload\n        /* \"contracts/HealthRecords.sol\":4601:4675  return (record.data, record.dataType, record.timestamp, record.uploadedBy) */\n      swap5\n      pop\n      swap5\n      pop\n      swap5\n      pop\n      swap5\n      pop\n      pop\n        /* \"contracts/HealthRecords.sol\":4027:4683  function getRecord(address _patientAddress, uint256 _recordId) public view returns (string memory, string memory, uint256, address) {... */\n      swap3\n      swap6\n      swap2\n      swap5\n      pop\n      swap3\n      pop\n      jump\t// out\n        /* \"contracts/HealthRecords.sol\":5263:5487  function revokeConsent(address _hospitalAddress) public onlyRole(PATIENT_ROLE) whenNotPaused {... */\n    tag_128:\n        /* \"contracts/HealthRecords.sol\":690:715  keccak256(\"PATIENT_ROLE\") */\n      0x72606200fac42b7dc86b75901d61ecfab2a4a1a6eded478b97a428094891abed\n        /* \"@openzeppelin/contracts-upgradeable/access/AccessControlUpgradeable.sol\":3191:3207  _checkRole(role) */\n      tag_301\n        /* \"@openzeppelin/contracts-upgradeable/access/AccessControlUpgradeable.sol\":3202:3206  role */\n      dup2\n        /* \"@openzeppelin/contracts-upgradeable/access/AccessControlUpgradeable.sol\":3191:3201  _checkRole */\n      tag_165\n        /* \"@openzeppelin/contracts-upgradeable/access/AccessControlUpgradeable.sol\":3191:3207  _checkRole(role) */\n      jump\t// in\n    tag_301:\n        /* \"@openzeppelin/contracts-upgradeable/security/PausableUpgradeable.sol\":1503:1522  _requireNotPaused() */\n      tag_303\n        /* \"@openzeppelin/contracts-upgradeable/security/PausableUpgradeable.sol\":1503:1520  _requireNotPaused */\n      tag_179\n        /* \"@openzeppelin/contracts-upgradeable/security/PausableUpgradeable.sol\":1503:1522  _requireNotPaused() */\n      jump\t// in\n    tag_303:\n        /* \"contracts/HealthRecords.sol\":5414:5419  false */\n      0x00\n        /* \"contracts/HealthRecords.sol\":5367:5381  patientConsent */\n      0x68\n        /* \"contracts/HealthRecords.sol\":5367:5393  patientConsent[msg.sender] */\n      0x00\n        /* \"contracts/HealthRecords.sol\":5382:5392  msg.sender */\n      caller\n        /* \"contracts/HealthRecords.sol\":5367:5393  patientConsent[msg.sender] */\n      0xffffffffffffffffffffffffffffffffffffffff\n      and\n      0xffffffffffffffffffffffffffffffffffffffff\n      and\n      dup2\n      mstore\n      0x20\n      add\n      swap1\n      dup2\n      mstore\n      0x20\n      add\n      0x00\n      keccak256\n        /* \"contracts/HealthRecords.sol\":5367:5411  patientConsent[msg.sender][_hospitalAddress] */\n      0x00\n        /* \"contracts/HealthRecords.sol\":5394:5410  _hospitalAddress */\n      dup5\n        /* \"contracts/HealthRecords.sol\":5367:5411  patientConsent[msg.sender][_hospitalAddress] */\n      0xffffffffffffffffffffffffffffffffffffffff\n      and\n      0xffffffffffffffffffffffffffffffffffffffff\n      and\n      dup2\n      mstore\n      0x20\n      add\n      swap1\n      dup2\n      mstore\n      0x20\n      add\n      0x00\n      keccak256\n      0x00\n        /* \"contracts/HealthRecords.sol\":5367:5419  patientConsent[msg.sender][_hospitalAddress] = false */\n      0x0100\n      exp\n      dup2\n      sload\n      dup2\n      0xff\n      mul\n      not\n      and\n      swap1\n      dup4\n      iszero\n      iszero\n      mul\n      or\n      swap1\n      sstore\n      pop\n        /* \"contracts/HealthRecords.sol\":5462:5478  _hospitalAddress */\n      dup2\n        /* \"contracts/HealthRecords.sol\":5435:5479  ConsentRevoked(msg.sender, _hospitalAddress) */\n      0xffffffffffffffffffffffffffffffffffffffff\n      and\n        /* \"contracts/HealthRecords.sol\":5450:5460  msg.sender */\n      caller\n        /* \"contracts/HealthRecords.sol\":5435:5479  ConsentRevoked(msg.sender, _hospitalAddress) */\n      0xffffffffffffffffffffffffffffffffffffffff\n      and\n      0xebecee2d3f2ea272f73dd9d9ccc0bacd11280d61240332cbcd8a68173ae5cc2c\n      mload(0x40)\n      mload(0x40)\n      dup1\n      swap2\n      sub\n      swap1\n      log3\n        /* \"contracts/HealthRecords.sol\":5263:5487  function revokeConsent(address _hospitalAddress) public onlyRole(PATIENT_ROLE) whenNotPaused {... */\n      pop\n      pop\n      jump\t// out\n        /* \"@openzeppelin/contracts-upgradeable/access/AccessControlUpgradeable.sol\":5662:5800  function revokeRole(bytes32 role, address account) public virtual onlyRole(getRoleAdmin(role)) {... */\n    tag_131:\n        /* \"@openzeppelin/contracts-upgradeable/access/AccessControlUpgradeable.sol\":5737:5755  getRoleAdmin(role) */\n      tag_305\n        /* \"@openzeppelin/contracts-upgradeable/access/AccessControlUpgradeable.sol\":5750:5754  role */\n      dup3\n        /* \"@openzeppelin/contracts-upgradeable/access/AccessControlUpgradeable.sol\":5737:5749  getRoleAdmin */\n      tag_61\n        /* \"@openzeppelin/contracts-upgradeable/access/AccessControlUpgradeable.sol\":5737:5755  getRoleAdmin(role) */\n      jump\t// in\n    tag_305:\n        /* \"@openzeppelin/contracts-upgradeable/access/AccessControlUpgradeable.sol\":3191:3207  _checkRole(role) */\n      tag_307\n        /* \"@openzeppelin/contracts-upgradeable/access/AccessControlUpgradeable.sol\":3202:3206  role */\n      dup2\n        /* \"@openzeppelin/contracts-upgradeable/access/AccessControlUpgradeable.sol\":3191:3201  _checkRole */\n      tag_165\n        /* \"@openzeppelin/contracts-upgradeable/access/AccessControlUpgradeable.sol\":3191:3207  _checkRole(role) */\n      jump\t// in\n    tag_307:\n        /* \"@openzeppelin/contracts-upgradeable/access/AccessControlUpgradeable.sol\":5767:5793  _revokeRole(role, account) */\n      tag_309\n        /* \"@openzeppelin/contracts-upgradeable/access/AccessControlUpgradeable.sol\":5779:5783  role */\n      dup4\n        /* \"@openzeppelin/contracts-upgradeable/access/AccessControlUpgradeable.sol\":5785:5792  account */\n      dup4\n        /* \"@openzeppelin/contracts-upgradeable/access/AccessControlUpgradeable.sol\":5767:5778  _revokeRole */\n      tag_174\n        /* \"@openzeppelin/contracts-upgradeable/access/AccessControlUpgradeable.sol\":5767:5793  _revokeRole(role, account) */\n      jump\t// in\n    tag_309:\n      pop\n        /* \"@openzeppelin/contracts-upgradeable/access/AccessControlUpgradeable.sol\":5662:5800  function revokeRole(bytes32 role, address account) public virtual onlyRole(getRoleAdmin(role)) {... */\n      pop\n      pop\n      pop\n      jump\t// out\n        /* \"contracts/HealthRecords.sol\":6613:6821  function upgradeContract(address newImplementation) public onlyRole(ADMIN_ROLE) {... */\n    tag_134:\n        /* \"contracts/HealthRecords.sol\":548:571  keccak256(\"ADMIN_ROLE\") */\n      0xa49807205ce4d355092ef5a8a18f56e8913cf4a201fbe287825b095693c21775\n        /* \"@openzeppelin/contracts-upgradeable/access/AccessControlUpgradeable.sol\":3191:3207  _checkRole(role) */\n      tag_311\n        /* \"@openzeppelin/contracts-upgradeable/access/AccessControlUpgradeable.sol\":3202:3206  role */\n      dup2\n        /* \"@openzeppelin/contracts-upgradeable/access/AccessControlUpgradeable.sol\":3191:3201  _checkRole */\n      tag_165\n        /* \"@openzeppelin/contracts-upgradeable/access/AccessControlUpgradeable.sol\":3191:3207  _checkRole(role) */\n      jump\t// in\n    tag_311:\n        /* \"contracts/HealthRecords.sol\":6778:6813  ContractUpgraded(newImplementation) */\n      0xc68d6b394bbff225c75b6ba60811fafb0da04351338aa28c9614981c55287be2\n        /* \"contracts/HealthRecords.sol\":6795:6812  newImplementation */\n      dup3\n        /* \"contracts/HealthRecords.sol\":6778:6813  ContractUpgraded(newImplementation) */\n      mload(0x40)\n      tag_313\n      swap2\n      swap1\n      tag_314\n      jump\t// in\n    tag_313:\n      mload(0x40)\n      dup1\n      swap2\n      sub\n      swap1\n      log1\n        /* \"contracts/HealthRecords.sol\":6613:6821  function upgradeContract(address newImplementation) public onlyRole(ADMIN_ROLE) {... */\n      pop\n      pop\n      jump\t// out\n        /* \"contracts/HealthRecords.sol\":1148:1193  mapping(address => Hospital) public hospitals */\n    tag_137:\n      mstore(0x20, 0x64)\n      dup1\n      0x00\n      mstore\n      keccak256(0x00, 0x40)\n      0x00\n      swap2\n      pop\n      swap1\n      pop\n      dup1\n      0x00\n      add\n      dup1\n      sload\n      tag_315\n      swap1\n      tag_148\n      jump\t// in\n    tag_315:\n      dup1\n      0x1f\n      add\n      0x20\n      dup1\n      swap2\n      div\n      mul\n      0x20\n      add\n      mload(0x40)\n      swap1\n      dup2\n      add\n      0x40\n      mstore\n      dup1\n      swap3\n      swap2\n      swap1\n      dup2\n      dup2\n      mstore\n      0x20\n      add\n      dup3\n      dup1\n      sload\n      tag_316\n      swap1\n      tag_148\n      jump\t// in\n    tag_316:\n      dup1\n      iszero\n      tag_317\n      jumpi\n      dup1\n      0x1f\n      lt\n      tag_318\n      jumpi\n      0x0100\n      dup1\n      dup4\n      sload\n      div\n      mul\n      dup4\n      mstore\n      swap2\n      0x20\n      add\n      swap2\n      jump(tag_317)\n    tag_318:\n      dup3\n      add\n      swap2\n      swap1\n      0x00\n      mstore\n      keccak256(0x00, 0x20)\n      swap1\n    tag_319:\n      dup2\n      sload\n      dup2\n      mstore\n      swap1\n      0x01\n      add\n      swap1\n      0x20\n      add\n      dup1\n      dup4\n      gt\n      tag_319\n      jumpi\n      dup3\n      swap1\n      sub\n      0x1f\n      and\n      dup3\n      add\n      swap2\n    tag_317:\n      pop\n      pop\n      pop\n      pop\n      pop\n      swap1\n      dup1\n      0x01\n      add\n      0x00\n      swap1\n      sload\n      swap1\n      0x0100\n      exp\n      swap1\n      div\n      0xff\n      and\n      swap1\n      dup1\n      0x02\n      add\n      sload\n      swap1\n      pop\n      dup4\n      jump\t// out\n        /* \"contracts/HealthRecords.sol\":578:644  bytes32 public constant HOSPITAL_ROLE = keccak256(\"HOSPITAL_ROLE\") */\n    tag_141:\n        /* \"contracts/HealthRecords.sol\":618:644  keccak256(\"HOSPITAL_ROLE\") */\n      0xc8f5b4140cca307cd927e59cbeea8291bffeee228fc677f0fa059aef7b4dd8d5\n        /* \"contracts/HealthRecords.sol\":578:644  bytes32 public constant HOSPITAL_ROLE = keccak256(\"HOSPITAL_ROLE\") */\n      dup2\n      jump\t// out\n        /* \"@openzeppelin/contracts-upgradeable/utils/introspection/ERC165Upgradeable.sol\":1034:1180  function supportsInterface(bytes4 interfaceId) public view virtual returns (bool) {... */\n    tag_146:\n        /* \"@openzeppelin/contracts-upgradeable/utils/introspection/ERC165Upgradeable.sol\":1110:1114  bool */\n      0x00\n        /* \"@openzeppelin/contracts-upgradeable/utils/introspection/ERC165Upgradeable.sol\":1148:1173  type(IERC165).interfaceId */\n      0x01ffc9a700000000000000000000000000000000000000000000000000000000\n        /* \"@openzeppelin/contracts-upgradeable/utils/introspection/ERC165Upgradeable.sol\":1133:1173  interfaceId == type(IERC165).interfaceId */\n      not(0xffffffffffffffffffffffffffffffffffffffffffffffffffffffff)\n      and\n        /* \"@openzeppelin/contracts-upgradeable/utils/introspection/ERC165Upgradeable.sol\":1133:1144  interfaceId */\n      dup3\n        /* \"@openzeppelin/contracts-upgradeable/utils/introspection/ERC165Upgradeable.sol\":1133:1173  interfaceId == type(IERC165).interfaceId */\n      not(0xffffffffffffffffffffffffffffffffffffffffffffffffffffffff)\n      and\n      eq\n        /* \"@openzeppelin/contracts-upgradeable/utils/introspection/ERC165Upgradeable.sol\":1126:1173  return interfaceId == type(IERC165).interfaceId */\n      swap1\n      pop\n        /* \"@openzeppelin/contracts-upgradeable/utils/introspection/ERC165Upgradeable.sol\":1034:1180  function supportsInterface(bytes4 interfaceId) public view virtual returns (bool) {... */\n      swap2\n      swap1\n      pop\n      jump\t// out\n        /* \"@openzeppelin/contracts-upgradeable/access/AccessControlUpgradeable.sol\":2787:2964  function _getAccessControlStorage() private pure returns (AccessControlStorage storage $) {... */\n    tag_161:\n        /* \"@openzeppelin/contracts-upgradeable/access/AccessControlUpgradeable.sol\":2845:2875  AccessControlStorage storage $ */\n      0x00\n        /* \"@openzeppelin/contracts-upgradeable/access/AccessControlUpgradeable.sol\":2920:2948  AccessControlStorageLocation */\n      0x02dd7bc7dec4dceedda775e58dd541e08a116c6c53815c0bd028192f7b626800\n        /* \"@openzeppelin/contracts-upgradeable/access/AccessControlUpgradeable.sol\":2910:2948  $.slot := AccessControlStorageLocation */\n      swap1\n      pop\n        /* \"@openzeppelin/contracts-upgradeable/access/AccessControlUpgradeable.sol\":2787:2964  function _getAccessControlStorage() private pure returns (AccessControlStorage storage $) {... */\n      swap1\n      jump\t// out\n        /* \"@openzeppelin/contracts-upgradeable/access/AccessControlUpgradeable.sol\":4148:4251  function _checkRole(bytes32 role) internal view virtual {... */\n    tag_165:\n        /* \"@openzeppelin/contracts-upgradeable/access/AccessControlUpgradeable.sol\":4214:4244  _checkRole(role, _msgSender()) */\n      tag_323\n        /* \"@openzeppelin/contracts-upgradeable/access/AccessControlUpgradeable.sol\":4225:4229  role */\n      dup2\n        /* \"@openzeppelin/contracts-upgradeable/access/AccessControlUpgradeable.sol\":4231:4243  _msgSender() */\n      tag_324\n        /* \"@openzeppelin/contracts-upgradeable/access/AccessControlUpgradeable.sol\":4231:4241  _msgSender */\n      tag_171\n        /* \"@openzeppelin/contracts-upgradeable/access/AccessControlUpgradeable.sol\":4231:4243  _msgSender() */\n      jump\t// in\n    tag_324:\n        /* \"@openzeppelin/contracts-upgradeable/access/AccessControlUpgradeable.sol\":4214:4224  _checkRole */\n      tag_325\n        /* \"@openzeppelin/contracts-upgradeable/access/AccessControlUpgradeable.sol\":4214:4244  _checkRole(role, _msgSender()) */\n      jump\t// in\n    tag_323:\n        /* \"@openzeppelin/contracts-upgradeable/access/AccessControlUpgradeable.sol\":4148:4251  function _checkRole(bytes32 role) internal view virtual {... */\n      pop\n      jump\t// out\n        /* \"@openzeppelin/contracts-upgradeable/access/AccessControlUpgradeable.sol\":7270:7657  function _grantRole(bytes32 role, address account) internal virtual returns (bool) {... */\n    tag_168:\n        /* \"@openzeppelin/contracts-upgradeable/access/AccessControlUpgradeable.sol\":7347:7351  bool */\n      0x00\n        /* \"@openzeppelin/contracts-upgradeable/access/AccessControlUpgradeable.sol\":7363:7393  AccessControlStorage storage $ */\n      dup1\n        /* \"@openzeppelin/contracts-upgradeable/access/AccessControlUpgradeable.sol\":7396:7422  _getAccessControlStorage() */\n      tag_327\n        /* \"@openzeppelin/contracts-upgradeable/access/AccessControlUpgradeable.sol\":7396:7420  _getAccessControlStorage */\n      tag_161\n        /* \"@openzeppelin/contracts-upgradeable/access/AccessControlUpgradeable.sol\":7396:7422  _getAccessControlStorage() */\n      jump\t// in\n    tag_327:\n        /* \"@openzeppelin/contracts-upgradeable/access/AccessControlUpgradeable.sol\":7363:7422  AccessControlStorage storage $ = _getAccessControlStorage() */\n      swap1\n      pop\n        /* \"@openzeppelin/contracts-upgradeable/access/AccessControlUpgradeable.sol\":7437:7459  hasRole(role, account) */\n      tag_328\n        /* \"@openzeppelin/contracts-upgradeable/access/AccessControlUpgradeable.sol\":7445:7449  role */\n      dup5\n        /* \"@openzeppelin/contracts-upgradeable/access/AccessControlUpgradeable.sol\":7451:7458  account */\n      dup5\n        /* \"@openzeppelin/contracts-upgradeable/access/AccessControlUpgradeable.sol\":7437:7444  hasRole */\n      tag_99\n        /* \"@openzeppelin/contracts-upgradeable/access/AccessControlUpgradeable.sol\":7437:7459  hasRole(role, account) */\n      jump\t// in\n    tag_328:\n        /* \"@openzeppelin/contracts-upgradeable/access/AccessControlUpgradeable.sol\":7432:7651  if (!hasRole(role, account)) {... */\n      tag_329\n      jumpi\n        /* \"@openzeppelin/contracts-upgradeable/access/AccessControlUpgradeable.sol\":7509:7513  true */\n      0x01\n        /* \"@openzeppelin/contracts-upgradeable/access/AccessControlUpgradeable.sol\":7475:7476  $ */\n      dup2\n        /* \"@openzeppelin/contracts-upgradeable/access/AccessControlUpgradeable.sol\":7475:7483  $._roles */\n      0x00\n      add\n        /* \"@openzeppelin/contracts-upgradeable/access/AccessControlUpgradeable.sol\":7475:7489  $._roles[role] */\n      0x00\n        /* \"@openzeppelin/contracts-upgradeable/access/AccessControlUpgradeable.sol\":7484:7488  role */\n      dup7\n        /* \"@openzeppelin/contracts-upgradeable/access/AccessControlUpgradeable.sol\":7475:7489  $._roles[role] */\n      dup2\n      mstore\n      0x20\n      add\n      swap1\n      dup2\n      mstore\n      0x20\n      add\n      0x00\n      keccak256\n        /* \"@openzeppelin/contracts-upgradeable/access/AccessControlUpgradeable.sol\":7475:7497  $._roles[role].hasRole */\n      0x00\n      add\n        /* \"@openzeppelin/contracts-upgradeable/access/AccessControlUpgradeable.sol\":7475:7506  $._roles[role].hasRole[account] */\n      0x00\n        /* \"@openzeppelin/contracts-upgradeable/access/AccessControlUpgradeable.sol\":7498:7505  account */\n      dup6\n        /* \"@openzeppelin/contracts-upgradeable/access/AccessControlUpgradeable.sol\":7475:7506  $._roles[role].hasRole[account] */\n      0xffffffffffffffffffffffffffffffffffffffff\n      and\n      0xffffffffffffffffffffffffffffffffffffffff\n      and\n      dup2\n      mstore\n      0x20\n      add\n      swap1\n      dup2\n      mstore\n      0x20\n      add\n      0x00\n      keccak256\n      0x00\n        /* \"@openzeppelin/contracts-upgradeable/access/AccessControlUpgradeable.sol\":7475:7513  $._roles[role].hasRole[account] = true */\n      0x0100\n      exp\n      dup2\n      sload\n      dup2\n      0xff\n      mul\n      not\n      and\n      swap1\n      dup4\n      iszero\n      iszero\n      mul\n      or\n      swap1\n      sstore\n      pop\n        /* \"@openzeppelin/contracts-upgradeable/access/AccessControlUpgradeable.sol\":7559:7571  _msgSender() */\n      tag_330\n        /* \"@openzeppelin/contracts-upgradeable/access/AccessControlUpgradeable.sol\":7559:7569  _msgSender */\n      tag_171\n        /* \"@openzeppelin/contracts-upgradeable/access/AccessControlUpgradeable.sol\":7559:7571  _msgSender() */\n      jump\t// in\n    tag_330:\n        /* \"@openzeppelin/contracts-upgradeable/access/AccessControlUpgradeable.sol\":7532:7572  RoleGranted(role, account, _msgSender()) */\n      0xffffffffffffffffffffffffffffffffffffffff\n      and\n        /* \"@openzeppelin/contracts-upgradeable/access/AccessControlUpgradeable.sol\":7550:7557  account */\n      dup4\n        /* \"@openzeppelin/contracts-upgradeable/access/AccessControlUpgradeable.sol\":7532:7572  RoleGranted(role, account, _msgSender()) */\n      0xffffffffffffffffffffffffffffffffffffffff\n      and\n        /* \"@openzeppelin/contracts-upgradeable/access/AccessControlUpgradeable.sol\":7544:7548  role */\n      dup6\n        /* \"@openzeppelin/contracts-upgradeable/access/AccessControlUpgradeable.sol\":7532:7572  RoleGranted(role, account, _msgSender()) */\n      0x2f8788117e7eff1d82e926ec794901d17c78024a50270940304540a733656f0d\n      mload(0x40)\n      mload(0x40)\n      dup1\n      swap2\n      sub\n      swap1\n      log4\n        /* \"@openzeppelin/contracts-upgradeable/access/AccessControlUpgradeable.sol\":7593:7597  true */\n      0x01\n        /* \"@openzeppelin/contracts-upgradeable/access/AccessControlUpgradeable.sol\":7586:7597  return true */\n      swap2\n      pop\n      pop\n      jump(tag_326)\n        /* \"@openzeppelin/contracts-upgradeable/access/AccessControlUpgradeable.sol\":7432:7651  if (!hasRole(role, account)) {... */\n    tag_329:\n        /* \"@openzeppelin/contracts-upgradeable/access/AccessControlUpgradeable.sol\":7635:7640  false */\n      0x00\n        /* \"@openzeppelin/contracts-upgradeable/access/AccessControlUpgradeable.sol\":7628:7640  return false */\n      swap2\n      pop\n      pop\n        /* \"@openzeppelin/contracts-upgradeable/access/AccessControlUpgradeable.sol\":7270:7657  function _grantRole(bytes32 role, address account) internal virtual returns (bool) {... */\n    tag_326:\n      swap3\n      swap2\n      pop\n      pop\n      jump\t// out\n        /* \"@openzeppelin/contracts-upgradeable/utils/ContextUpgradeable.sol\":887:983  function _msgSender() internal view virtual returns (address) {... */\n    tag_171:\n        /* \"@openzeppelin/contracts-upgradeable/utils/ContextUpgradeable.sol\":940:947  address */\n      0x00\n        /* \"@openzeppelin/contracts-upgradeable/utils/ContextUpgradeable.sol\":966:976  msg.sender */\n      caller\n        /* \"@openzeppelin/contracts-upgradeable/utils/ContextUpgradeable.sol\":959:976  return msg.sender */\n      swap1\n      pop\n        /* \"@openzeppelin/contracts-upgradeable/utils/ContextUpgradeable.sol\":887:983  function _msgSender() internal view virtual returns (address) {... */\n      swap1\n      jump\t// out\n        /* \"@openzeppelin/contracts-upgradeable/access/AccessControlUpgradeable.sol\":7892:8280  function _revokeRole(bytes32 role, address account) internal virtual returns (bool) {... */\n    tag_174:\n        /* \"@openzeppelin/contracts-upgradeable/access/AccessControlUpgradeable.sol\":7970:7974  bool */\n      0x00\n        /* \"@openzeppelin/contracts-upgradeable/access/AccessControlUpgradeable.sol\":7986:8016  AccessControlStorage storage $ */\n      dup1\n        /* \"@openzeppelin/contracts-upgradeable/access/AccessControlUpgradeable.sol\":8019:8045  _getAccessControlStorage() */\n      tag_334\n        /* \"@openzeppelin/contracts-upgradeable/access/AccessControlUpgradeable.sol\":8019:8043  _getAccessControlStorage */\n      tag_161\n        /* \"@openzeppelin/contracts-upgradeable/access/AccessControlUpgradeable.sol\":8019:8045  _getAccessControlStorage() */\n      jump\t// in\n    tag_334:\n        /* \"@openzeppelin/contracts-upgradeable/access/AccessControlUpgradeable.sol\":7986:8045  AccessControlStorage storage $ = _getAccessControlStorage() */\n      swap1\n      pop\n        /* \"@openzeppelin/contracts-upgradeable/access/AccessControlUpgradeable.sol\":8059:8081  hasRole(role, account) */\n      tag_335\n        /* \"@openzeppelin/contracts-upgradeable/access/AccessControlUpgradeable.sol\":8067:8071  role */\n      dup5\n        /* \"@openzeppelin/contracts-upgradeable/access/AccessControlUpgradeable.sol\":8073:8080  account */\n      dup5\n        /* \"@openzeppelin/contracts-upgradeable/access/AccessControlUpgradeable.sol\":8059:8066  hasRole */\n      tag_99\n        /* \"@openzeppelin/contracts-upgradeable/access/AccessControlUpgradeable.sol\":8059:8081  hasRole(role, account) */\n      jump\t// in\n    tag_335:\n        /* \"@openzeppelin/contracts-upgradeable/access/AccessControlUpgradeable.sol\":8055:8274  if (hasRole(role, account)) {... */\n      iszero\n      tag_336\n      jumpi\n        /* \"@openzeppelin/contracts-upgradeable/access/AccessControlUpgradeable.sol\":8131:8136  false */\n      0x00\n        /* \"@openzeppelin/contracts-upgradeable/access/AccessControlUpgradeable.sol\":8097:8098  $ */\n      dup2\n        /* \"@openzeppelin/contracts-upgradeable/access/AccessControlUpgradeable.sol\":8097:8105  $._roles */\n      0x00\n      add\n        /* \"@openzeppelin/contracts-upgradeable/access/AccessControlUpgradeable.sol\":8097:8111  $._roles[role] */\n      0x00\n        /* \"@openzeppelin/contracts-upgradeable/access/AccessControlUpgradeable.sol\":8106:8110  role */\n      dup7\n        /* \"@openzeppelin/contracts-upgradeable/access/AccessControlUpgradeable.sol\":8097:8111  $._roles[role] */\n      dup2\n      mstore\n      0x20\n      add\n      swap1\n      dup2\n      mstore\n      0x20\n      add\n      0x00\n      keccak256\n        /* \"@openzeppelin/contracts-upgradeable/access/AccessControlUpgradeable.sol\":8097:8119  $._roles[role].hasRole */\n      0x00\n      add\n        /* \"@openzeppelin/contracts-upgradeable/access/AccessControlUpgradeable.sol\":8097:8128  $._roles[role].hasRole[account] */\n      0x00\n        /* \"@openzeppelin/contracts-upgradeable/access/AccessControlUpgradeable.sol\":8120:8127  account */\n      dup6\n        /* \"@openzeppelin/contracts-upgradeable/access/AccessControlUpgradeable.sol\":8097:8128  $._roles[role].hasRole[account] */\n      0xffffffffffffffffffffffffffffffffffffffff\n      and\n      0xffffffffffffffffffffffffffffffffffffffff\n      and\n      dup2\n      mstore\n      0x20\n      add\n      swap1\n      dup2\n      mstore\n      0x20\n      add\n      0x00\n      keccak256\n      0x00\n        /* \"@openzeppelin/contracts-upgradeable/access/AccessControlUpgradeable.sol\":8097:8136  $._roles[role].hasRole[account] = false */\n      0x0100\n      exp\n      dup2\n      sload\n      dup2\n      0xff\n      mul\n      not\n      and\n      swap1\n      dup4\n      iszero\n      iszero\n      mul\n      or\n      swap1\n      sstore\n      pop\n        /* \"@openzeppelin/contracts-upgradeable/access/AccessControlUpgradeable.sol\":8182:8194  _msgSender() */\n      tag_337\n        /* \"@openzeppelin/contracts-upgradeable/access/AccessControlUpgradeable.sol\":8182:8192  _msgSender */\n      tag_171\n        /* \"@openzeppelin/contracts-upgradeable/access/AccessControlUpgradeable.sol\":8182:8194  _msgSender() */\n      jump\t// in\n    tag_337:\n        /* \"@openzeppelin/contracts-upgradeable/access/AccessControlUpgradeable.sol\":8155:8195  RoleRevoked(role, account, _msgSender()) */\n      0xffffffffffffffffffffffffffffffffffffffff\n      and\n        /* \"@openzeppelin/contracts-upgradeable/access/AccessControlUpgradeable.sol\":8173:8180  account */\n      dup4\n        /* \"@openzeppelin/contracts-upgradeable/access/AccessControlUpgradeable.sol\":8155:8195  RoleRevoked(role, account, _msgSender()) */\n      0xffffffffffffffffffffffffffffffffffffffff\n      and\n        /* \"@openzeppelin/contracts-upgradeable/access/AccessControlUpgradeable.sol\":8167:8171  role */\n      dup6\n        /* \"@openzeppelin/contracts-upgradeable/access/AccessControlUpgradeable.sol\":8155:8195  RoleRevoked(role, account, _msgSender()) */\n      0xf6391f5c32d9c69d2a47ea670b442974b53935d1edc7fd64eb21e047a839171b\n      mload(0x40)\n      mload(0x40)\n      dup1\n      swap2\n      sub\n      swap1\n      log4\n        /* \"@openzeppelin/contracts-upgradeable/access/AccessControlUpgradeable.sol\":8216:8220  true */\n      0x01\n        /* \"@openzeppelin/contracts-upgradeable/access/AccessControlUpgradeable.sol\":8209:8220  return true */\n      swap2\n      pop\n      pop\n      jump(tag_333)\n        /* \"@openzeppelin/contracts-upgradeable/access/AccessControlUpgradeable.sol\":8055:8274  if (hasRole(role, account)) {... */\n    tag_336:\n        /* \"@openzeppelin/contracts-upgradeable/access/AccessControlUpgradeable.sol\":8258:8263  false */\n      0x00\n        /* \"@openzeppelin/contracts-upgradeable/access/AccessControlUpgradeable.sol\":8251:8263  return false */\n      swap2\n      pop\n      pop\n        /* \"@openzeppelin/contracts-upgradeable/access/AccessControlUpgradeable.sol\":7892:8280  function _revokeRole(bytes32 role, address account) internal virtual returns (bool) {... */\n    tag_333:\n      swap3\n      swap2\n      pop\n      pop\n      jump\t// out\n        /* \"@openzeppelin/contracts-upgradeable/security/PausableUpgradeable.sol\":2031:2137  function _requireNotPaused() internal view virtual {... */\n    tag_179:\n        /* \"@openzeppelin/contracts-upgradeable/security/PausableUpgradeable.sol\":2101:2109  paused() */\n      tag_340\n        /* \"@openzeppelin/contracts-upgradeable/security/PausableUpgradeable.sol\":2101:2107  paused */\n      tag_90\n        /* \"@openzeppelin/contracts-upgradeable/security/PausableUpgradeable.sol\":2101:2109  paused() */\n      jump\t// in\n    tag_340:\n        /* \"@openzeppelin/contracts-upgradeable/security/PausableUpgradeable.sol\":2100:2109  !paused() */\n      iszero\n        /* \"@openzeppelin/contracts-upgradeable/security/PausableUpgradeable.sol\":2092:2130  require(!paused(), \"Pausable: paused\") */\n      tag_341\n      jumpi\n      mload(0x40)\n      0x08c379a000000000000000000000000000000000000000000000000000000000\n      dup2\n      mstore\n      0x04\n      add\n      tag_342\n      swap1\n      tag_343\n      jump\t// in\n    tag_342:\n      mload(0x40)\n      dup1\n      swap2\n      sub\n      swap1\n      revert\n    tag_341:\n        /* \"@openzeppelin/contracts-upgradeable/security/PausableUpgradeable.sol\":2031:2137  function _requireNotPaused() internal view virtual {... */\n      jump\t// out\n        /* \"@openzeppelin/contracts-upgradeable/security/ReentrancyGuardUpgradeable.sol\":2601:2888  function _nonReentrantBefore() private {... */\n    tag_182:\n        /* \"@openzeppelin/contracts-upgradeable/security/ReentrancyGuardUpgradeable.sol\":1851:1852  2 */\n      0x02\n        /* \"@openzeppelin/contracts-upgradeable/security/ReentrancyGuardUpgradeable.sol\":2733:2740  _status */\n      sload(0x32)\n        /* \"@openzeppelin/contracts-upgradeable/security/ReentrancyGuardUpgradeable.sol\":2733:2752  _status != _ENTERED */\n      sub\n        /* \"@openzeppelin/contracts-upgradeable/security/ReentrancyGuardUpgradeable.sol\":2725:2788  require(_status != _ENTERED, \"ReentrancyGuard: reentrant call\") */\n      tag_345\n      jumpi\n      mload(0x40)\n      0x08c379a000000000000000000000000000000000000000000000000000000000\n      dup2\n      mstore\n      0x04\n      add\n      tag_346\n      swap1\n      tag_347\n      jump\t// in\n    tag_346:\n      mload(0x40)\n      dup1\n      swap2\n      sub\n      swap1\n      revert\n    tag_345:\n        /* \"@openzeppelin/contracts-upgradeable/security/ReentrancyGuardUpgradeable.sol\":1851:1852  2 */\n      0x02\n        /* \"@openzeppelin/contracts-upgradeable/security/ReentrancyGuardUpgradeable.sol\":2863:2870  _status */\n      0x32\n        /* \"@openzeppelin/contracts-upgradeable/security/ReentrancyGuardUpgradeable.sol\":2863:2881  _status = _ENTERED */\n      dup2\n      swap1\n      sstore\n      pop\n        /* \"@openzeppelin/contracts-upgradeable/security/ReentrancyGuardUpgradeable.sol\":2601:2888  function _nonReentrantBefore() private {... */\n      jump\t// out\n        /* \"@openzeppelin/contracts-upgradeable/security/ReentrancyGuardUpgradeable.sol\":2894:3103  function _nonReentrantAfter() private {... */\n    tag_200:\n        /* \"@openzeppelin/contracts-upgradeable/security/ReentrancyGuardUpgradeable.sol\":1808:1809  1 */\n      0x01\n        /* \"@openzeppelin/contracts-upgradeable/security/ReentrancyGuardUpgradeable.sol\":3074:3081  _status */\n      0x32\n        /* \"@openzeppelin/contracts-upgradeable/security/ReentrancyGuardUpgradeable.sol\":3074:3096  _status = _NOT_ENTERED */\n      dup2\n      swap1\n      sstore\n      pop\n        /* \"@openzeppelin/contracts-upgradeable/security/ReentrancyGuardUpgradeable.sol\":2894:3103  function _nonReentrantAfter() private {... */\n      jump\t// out\n        /* \"@openzeppelin/contracts-upgradeable/security/PausableUpgradeable.sol\":2697:2814  function _unpause() internal virtual whenPaused {... */\n    tag_215:\n        /* \"@openzeppelin/contracts-upgradeable/security/PausableUpgradeable.sol\":1750:1766  _requirePaused() */\n      tag_350\n        /* \"@openzeppelin/contracts-upgradeable/security/PausableUpgradeable.sol\":1750:1764  _requirePaused */\n      tag_351\n        /* \"@openzeppelin/contracts-upgradeable/security/PausableUpgradeable.sol\":1750:1766  _requirePaused() */\n      jump\t// in\n    tag_350:\n        /* \"@openzeppelin/contracts-upgradeable/security/PausableUpgradeable.sol\":2765:2770  false */\n      0x00\n        /* \"@openzeppelin/contracts-upgradeable/security/PausableUpgradeable.sol\":2755:2762  _paused */\n      dup1\n      0x00\n        /* \"@openzeppelin/contracts-upgradeable/security/PausableUpgradeable.sol\":2755:2770  _paused = false */\n      0x0100\n      exp\n      dup2\n      sload\n      dup2\n      0xff\n      mul\n      not\n      and\n      swap1\n      dup4\n      iszero\n      iszero\n      mul\n      or\n      swap1\n      sstore\n      pop\n        /* \"@openzeppelin/contracts-upgradeable/security/PausableUpgradeable.sol\":2785:2807  Unpaused(_msgSender()) */\n      0x5db9ee0a495bf2e6ff9c91a7834c1ba4fdd244a5e8aa4e537bd38aeae4b073aa\n        /* \"@openzeppelin/contracts-upgradeable/security/PausableUpgradeable.sol\":2794:2806  _msgSender() */\n      tag_353\n        /* \"@openzeppelin/contracts-upgradeable/security/PausableUpgradeable.sol\":2794:2804  _msgSender */\n      tag_171\n        /* \"@openzeppelin/contracts-upgradeable/security/PausableUpgradeable.sol\":2794:2806  _msgSender() */\n      jump\t// in\n    tag_353:\n        /* \"@openzeppelin/contracts-upgradeable/security/PausableUpgradeable.sol\":2785:2807  Unpaused(_msgSender()) */\n      mload(0x40)\n      tag_354\n      swap2\n      swap1\n      tag_314\n      jump\t// in\n    tag_354:\n      mload(0x40)\n      dup1\n      swap2\n      sub\n      swap1\n      log1\n        /* \"@openzeppelin/contracts-upgradeable/security/PausableUpgradeable.sol\":2697:2814  function _unpause() internal virtual whenPaused {... */\n      jump\t// out\n        /* \"@openzeppelin/contracts-upgradeable/security/PausableUpgradeable.sol\":2450:2565  function _pause() internal virtual whenNotPaused {... */\n    tag_230:\n        /* \"@openzeppelin/contracts-upgradeable/security/PausableUpgradeable.sol\":1503:1522  _requireNotPaused() */\n      tag_356\n        /* \"@openzeppelin/contracts-upgradeable/security/PausableUpgradeable.sol\":1503:1520  _requireNotPaused */\n      tag_179\n        /* \"@openzeppelin/contracts-upgradeable/security/PausableUpgradeable.sol\":1503:1522  _requireNotPaused() */\n      jump\t// in\n    tag_356:\n        /* \"@openzeppelin/contracts-upgradeable/security/PausableUpgradeable.sol\":2519:2523  true */\n      0x01\n        /* \"@openzeppelin/contracts-upgradeable/security/PausableUpgradeable.sol\":2509:2516  _paused */\n      0x00\n      dup1\n        /* \"@openzeppelin/contracts-upgradeable/security/PausableUpgradeable.sol\":2509:2523  _paused = true */\n      0x0100\n      exp\n      dup2\n      sload\n      dup2\n      0xff\n      mul\n      not\n      and\n      swap1\n      dup4\n      iszero\n      iszero\n      mul\n      or\n      swap1\n      sstore\n      pop\n        /* \"@openzeppelin/contracts-upgradeable/security/PausableUpgradeable.sol\":2538:2558  Paused(_msgSender()) */\n      0x62e78cea01bee320cd4e420270b5ea74000d11b0c9f74754ebdbfc544b05a258\n        /* \"@openzeppelin/contracts-upgradeable/security/PausableUpgradeable.sol\":2545:2557  _msgSender() */\n      tag_358\n        /* \"@openzeppelin/contracts-upgradeable/security/PausableUpgradeable.sol\":2545:2555  _msgSender */\n      tag_171\n        /* \"@openzeppelin/contracts-upgradeable/security/PausableUpgradeable.sol\":2545:2557  _msgSender() */\n      jump\t// in\n    tag_358:\n        /* \"@openzeppelin/contracts-upgradeable/security/PausableUpgradeable.sol\":2538:2558  Paused(_msgSender()) */\n      mload(0x40)\n      tag_359\n      swap2\n      swap1\n      tag_314\n      jump\t// in\n    tag_359:\n      mload(0x40)\n      dup1\n      swap2\n      sub\n      swap1\n      log1\n        /* \"@openzeppelin/contracts-upgradeable/security/PausableUpgradeable.sol\":2450:2565  function _pause() internal virtual whenNotPaused {... */\n      jump\t// out\n        /* \"@openzeppelin/contracts-upgradeable/proxy/utils/Initializable.sol\":8737:8907  function _getInitializableStorage() private pure returns (InitializableStorage storage $) {... */\n    tag_259:\n        /* \"@openzeppelin/contracts-upgradeable/proxy/utils/Initializable.sol\":8795:8825  InitializableStorage storage $ */\n      0x00\n        /* \"@openzeppelin/contracts-upgradeable/proxy/utils/Initializable.sol\":8870:8891  INITIALIZABLE_STORAGE */\n      0xf0c57e16840df040f15088dc2f81fe391c3923bec73e23a9662efc9c229c6a00\n        /* \"@openzeppelin/contracts-upgradeable/proxy/utils/Initializable.sol\":8860:8891  $.slot := INITIALIZABLE_STORAGE */\n      swap1\n      pop\n        /* \"@openzeppelin/contracts-upgradeable/proxy/utils/Initializable.sol\":8737:8907  function _getInitializableStorage() private pure returns (InitializableStorage storage $) {... */\n      swap1\n      jump\t// out\n        /* \"@openzeppelin/contracts-upgradeable/access/AccessControlUpgradeable.sol\":3231:3296  function __AccessControl_init() internal onlyInitializing {... */\n    tag_267:\n        /* \"@openzeppelin/contracts-upgradeable/proxy/utils/Initializable.sol\":6931:6951  _checkInitializing() */\n      tag_362\n        /* \"@openzeppelin/contracts-upgradeable/proxy/utils/Initializable.sol\":6931:6949  _checkInitializing */\n      tag_363\n        /* \"@openzeppelin/contracts-upgradeable/proxy/utils/Initializable.sol\":6931:6951  _checkInitializing() */\n      jump\t// in\n    tag_362:\n        /* \"@openzeppelin/contracts-upgradeable/access/AccessControlUpgradeable.sol\":3231:3296  function __AccessControl_init() internal onlyInitializing {... */\n      jump\t// out\n        /* \"@openzeppelin/contracts-upgradeable/security/PausableUpgradeable.sol\":1084:1181  function __Pausable_init() internal onlyInitializing {... */\n    tag_269:\n        /* \"@openzeppelin/contracts-upgradeable/proxy/utils/Initializable.sol\":6931:6951  _checkInitializing() */\n      tag_366\n        /* \"@openzeppelin/contracts-upgradeable/proxy/utils/Initializable.sol\":6931:6949  _checkInitializing */\n      tag_363\n        /* \"@openzeppelin/contracts-upgradeable/proxy/utils/Initializable.sol\":6931:6951  _checkInitializing() */\n      jump\t// in\n    tag_366:\n        /* \"@openzeppelin/contracts-upgradeable/security/PausableUpgradeable.sol\":1147:1174  __Pausable_init_unchained() */\n      tag_368\n        /* \"@openzeppelin/contracts-upgradeable/security/PausableUpgradeable.sol\":1147:1172  __Pausable_init_unchained */\n      tag_369\n        /* \"@openzeppelin/contracts-upgradeable/security/PausableUpgradeable.sol\":1147:1174  __Pausable_init_unchained() */\n      jump\t// in\n    tag_368:\n        /* \"@openzeppelin/contracts-upgradeable/security/PausableUpgradeable.sol\":1084:1181  function __Pausable_init() internal onlyInitializing {... */\n      jump\t// out\n        /* \"@openzeppelin/contracts-upgradeable/security/ReentrancyGuardUpgradeable.sol\":1889:2000  function __ReentrancyGuard_init() internal onlyInitializing {... */\n    tag_271:\n        /* \"@openzeppelin/contracts-upgradeable/proxy/utils/Initializable.sol\":6931:6951  _checkInitializing() */\n      tag_371\n        /* \"@openzeppelin/contracts-upgradeable/proxy/utils/Initializable.sol\":6931:6949  _checkInitializing */\n      tag_363\n        /* \"@openzeppelin/contracts-upgradeable/proxy/utils/Initializable.sol\":6931:6951  _checkInitializing() */\n      jump\t// in\n    tag_371:\n        /* \"@openzeppelin/contracts-upgradeable/security/ReentrancyGuardUpgradeable.sol\":1959:1993  __ReentrancyGuard_init_unchained() */\n      tag_373\n        /* \"@openzeppelin/contracts-upgradeable/security/ReentrancyGuardUpgradeable.sol\":1959:1991  __ReentrancyGuard_init_unchained */\n      tag_374\n        /* \"@openzeppelin/contracts-upgradeable/security/ReentrancyGuardUpgradeable.sol\":1959:1993  __ReentrancyGuard_init_unchained() */\n      jump\t// in\n    tag_373:\n        /* \"@openzeppelin/contracts-upgradeable/security/ReentrancyGuardUpgradeable.sol\":1889:2000  function __ReentrancyGuard_init() internal onlyInitializing {... */\n      jump\t// out\n        /* \"@openzeppelin/contracts-upgradeable/access/AccessControlUpgradeable.sol\":4381:4578  function _checkRole(bytes32 role, address account) internal view virtual {... */\n    tag_325:\n        /* \"@openzeppelin/contracts-upgradeable/access/AccessControlUpgradeable.sol\":4469:4491  hasRole(role, account) */\n      tag_376\n        /* \"@openzeppelin/contracts-upgradeable/access/AccessControlUpgradeable.sol\":4477:4481  role */\n      dup3\n        /* \"@openzeppelin/contracts-upgradeable/access/AccessControlUpgradeable.sol\":4483:4490  account */\n      dup3\n        /* \"@openzeppelin/contracts-upgradeable/access/AccessControlUpgradeable.sol\":4469:4476  hasRole */\n      tag_99\n        /* \"@openzeppelin/contracts-upgradeable/access/AccessControlUpgradeable.sol\":4469:4491  hasRole(role, account) */\n      jump\t// in\n    tag_376:\n        /* \"@openzeppelin/contracts-upgradeable/access/AccessControlUpgradeable.sol\":4464:4572  if (!hasRole(role, account)) {... */\n      tag_377\n      jumpi\n        /* \"@openzeppelin/contracts-upgradeable/access/AccessControlUpgradeable.sol\":4547:4554  account */\n      dup1\n        /* \"@openzeppelin/contracts-upgradeable/access/AccessControlUpgradeable.sol\":4556:4560  role */\n      dup3\n        /* \"@openzeppelin/contracts-upgradeable/access/AccessControlUpgradeable.sol\":4514:4561  AccessControlUnauthorizedAccount(account, role) */\n      mload(0x40)\n      0xe2517d3f00000000000000000000000000000000000000000000000000000000\n      dup2\n      mstore\n      0x04\n      add\n      tag_378\n      swap3\n      swap2\n      swap1\n      tag_379\n      jump\t// in\n    tag_378:\n      mload(0x40)\n      dup1\n      swap2\n      sub\n      swap1\n      revert\n        /* \"@openzeppelin/contracts-upgradeable/access/AccessControlUpgradeable.sol\":4464:4572  if (!hasRole(role, account)) {... */\n    tag_377:\n        /* \"@openzeppelin/contracts-upgradeable/access/AccessControlUpgradeable.sol\":4381:4578  function _checkRole(bytes32 role, address account) internal view virtual {... */\n      pop\n      pop\n      jump\t// out\n        /* \"@openzeppelin/contracts-upgradeable/security/PausableUpgradeable.sol\":2209:2315  function _requirePaused() internal view virtual {... */\n    tag_351:\n        /* \"@openzeppelin/contracts-upgradeable/security/PausableUpgradeable.sol\":2275:2283  paused() */\n      tag_381\n        /* \"@openzeppelin/contracts-upgradeable/security/PausableUpgradeable.sol\":2275:2281  paused */\n      tag_90\n        /* \"@openzeppelin/contracts-upgradeable/security/PausableUpgradeable.sol\":2275:2283  paused() */\n      jump\t// in\n    tag_381:\n        /* \"@openzeppelin/contracts-upgradeable/security/PausableUpgradeable.sol\":2267:2308  require(paused(), \"Pausable: not paused\") */\n      tag_382\n      jumpi\n      mload(0x40)\n      0x08c379a000000000000000000000000000000000000000000000000000000000\n      dup2\n      mstore\n      0x04\n      add\n      tag_383\n      swap1\n      tag_384\n      jump\t// in\n    tag_383:\n      mload(0x40)\n      dup1\n      swap2\n      sub\n      swap1\n      revert\n    tag_382:\n        /* \"@openzeppelin/contracts-upgradeable/security/PausableUpgradeable.sol\":2209:2315  function _requirePaused() internal view virtual {... */\n      jump\t// out\n        /* \"@openzeppelin/contracts-upgradeable/proxy/utils/Initializable.sol\":7084:7225  function _checkInitializing() internal view virtual {... */\n    tag_363:\n        /* \"@openzeppelin/contracts-upgradeable/proxy/utils/Initializable.sol\":7151:7168  _isInitializing() */\n      tag_386\n        /* \"@openzeppelin/contracts-upgradeable/proxy/utils/Initializable.sol\":7151:7166  _isInitializing */\n      tag_387\n        /* \"@openzeppelin/contracts-upgradeable/proxy/utils/Initializable.sol\":7151:7168  _isInitializing() */\n      jump\t// in\n    tag_386:\n        /* \"@openzeppelin/contracts-upgradeable/proxy/utils/Initializable.sol\":7146:7219  if (!_isInitializing()) {... */\n      tag_388\n      jumpi\n        /* \"@openzeppelin/contracts-upgradeable/proxy/utils/Initializable.sol\":7191:7208  NotInitializing() */\n      mload(0x40)\n      0xd7e6bcf800000000000000000000000000000000000000000000000000000000\n      dup2\n      mstore\n      0x04\n      add\n      mload(0x40)\n      dup1\n      swap2\n      sub\n      swap1\n      revert\n        /* \"@openzeppelin/contracts-upgradeable/proxy/utils/Initializable.sol\":7146:7219  if (!_isInitializing()) {... */\n    tag_388:\n        /* \"@openzeppelin/contracts-upgradeable/proxy/utils/Initializable.sol\":7084:7225  function _checkInitializing() internal view virtual {... */\n      jump\t// out\n        /* \"@openzeppelin/contracts-upgradeable/security/PausableUpgradeable.sol\":1187:1282  function __Pausable_init_unchained() internal onlyInitializing {... */\n    tag_369:\n        /* \"@openzeppelin/contracts-upgradeable/proxy/utils/Initializable.sol\":6931:6951  _checkInitializing() */\n      tag_390\n        /* \"@openzeppelin/contracts-upgradeable/proxy/utils/Initializable.sol\":6931:6949  _checkInitializing */\n      tag_363\n        /* \"@openzeppelin/contracts-upgradeable/proxy/utils/Initializable.sol\":6931:6951  _checkInitializing() */\n      jump\t// in\n    tag_390:\n        /* \"@openzeppelin/contracts-upgradeable/security/PausableUpgradeable.sol\":1270:1275  false */\n      0x00\n        /* \"@openzeppelin/contracts-upgradeable/security/PausableUpgradeable.sol\":1260:1267  _paused */\n      dup1\n      0x00\n        /* \"@openzeppelin/contracts-upgradeable/security/PausableUpgradeable.sol\":1260:1275  _paused = false */\n      0x0100\n      exp\n      dup2\n      sload\n      dup2\n      0xff\n      mul\n      not\n      and\n      swap1\n      dup4\n      iszero\n      iszero\n      mul\n      or\n      swap1\n      sstore\n      pop\n        /* \"@openzeppelin/contracts-upgradeable/security/PausableUpgradeable.sol\":1187:1282  function __Pausable_init_unchained() internal onlyInitializing {... */\n      jump\t// out\n        /* \"@openzeppelin/contracts-upgradeable/security/ReentrancyGuardUpgradeable.sol\":2006:2115  function __ReentrancyGuard_init_unchained() internal onlyInitializing {... */\n    tag_374:\n        /* \"@openzeppelin/contracts-upgradeable/proxy/utils/Initializable.sol\":6931:6951  _checkInitializing() */\n      tag_393\n        /* \"@openzeppelin/contracts-upgradeable/proxy/utils/Initializable.sol\":6931:6949  _checkInitializing */\n      tag_363\n        /* \"@openzeppelin/contracts-upgradeable/proxy/utils/Initializable.sol\":6931:6951  _checkInitializing() */\n      jump\t// in\n    tag_393:\n        /* \"@openzeppelin/contracts-upgradeable/security/ReentrancyGuardUpgradeable.sol\":1808:1809  1 */\n      0x01\n        /* \"@openzeppelin/contracts-upgradeable/security/ReentrancyGuardUpgradeable.sol\":2086:2093  _status */\n      0x32\n        /* \"@openzeppelin/contracts-upgradeable/security/ReentrancyGuardUpgradeable.sol\":2086:2108  _status = _NOT_ENTERED */\n      dup2\n      swap1\n      sstore\n      pop\n        /* \"@openzeppelin/contracts-upgradeable/security/ReentrancyGuardUpgradeable.sol\":2006:2115  function __ReentrancyGuard_init_unchained() internal onlyInitializing {... */\n      jump\t// out\n        /* \"@openzeppelin/contracts-upgradeable/proxy/utils/Initializable.sol\":8487:8607  function _isInitializing() internal view returns (bool) {... */\n    tag_387:\n        /* \"@openzeppelin/contracts-upgradeable/proxy/utils/Initializable.sol\":8537:8541  bool */\n      0x00\n        /* \"@openzeppelin/contracts-upgradeable/proxy/utils/Initializable.sol\":8560:8586  _getInitializableStorage() */\n      tag_396\n        /* \"@openzeppelin/contracts-upgradeable/proxy/utils/Initializable.sol\":8560:8584  _getInitializableStorage */\n      tag_259\n        /* \"@openzeppelin/contracts-upgradeable/proxy/utils/Initializable.sol\":8560:8586  _getInitializableStorage() */\n      jump\t// in\n    tag_396:\n        /* \"@openzeppelin/contracts-upgradeable/proxy/utils/Initializable.sol\":8560:8600  _getInitializableStorage()._initializing */\n      0x00\n      add\n      0x08\n      swap1\n      sload\n      swap1\n      0x0100\n      exp\n      swap1\n      div\n      0xff\n      and\n        /* \"@openzeppelin/contracts-upgradeable/proxy/utils/Initializable.sol\":8553:8600  return _getInitializableStorage()._initializing */\n      swap1\n      pop\n        /* \"@openzeppelin/contracts-upgradeable/proxy/utils/Initializable.sol\":8487:8607  function _isInitializing() internal view returns (bool) {... */\n      swap1\n      jump\t// out\n    tag_208:\n      dup3\n      dup1\n      sload\n      dup3\n      dup3\n      sstore\n      swap1\n      0x00\n      mstore\n      keccak256(0x00, 0x20)\n      swap1\n      dup2\n      add\n      swap3\n      dup3\n      iszero\n      tag_397\n      jumpi\n      swap2\n      0x20\n      mul\n      dup3\n      add\n    tag_398:\n      dup3\n      dup2\n      gt\n      iszero\n      tag_399\n      jumpi\n      dup3\n      mload\n      dup3\n      swap1\n      dup2\n      tag_400\n      swap2\n      swap1\n      tag_193\n      jump\t// in\n    tag_400:\n      pop\n      swap2\n      0x20\n      add\n      swap2\n      swap1\n      0x01\n      add\n      swap1\n      jump(tag_398)\n    tag_399:\n    tag_397:\n      pop\n      swap1\n      pop\n      tag_401\n      swap2\n      swap1\n      tag_402\n      jump\t// in\n    tag_401:\n      pop\n      swap1\n      jump\t// out\n    tag_402:\n    tag_403:\n      dup1\n      dup3\n      gt\n      iszero\n      tag_404\n      jumpi\n      0x00\n      dup2\n      dup2\n      tag_405\n      swap2\n      swap1\n      tag_406\n      jump\t// in\n    tag_405:\n      pop\n      0x01\n      add\n      jump(tag_403)\n    tag_404:\n      pop\n      swap1\n      jump\t// out\n    tag_406:\n      pop\n      dup1\n      sload\n      tag_407\n      swap1\n      tag_148\n      jump\t// in\n    tag_407:\n      0x00\n      dup3\n      sstore\n      dup1\n      0x1f\n      lt\n      tag_409\n      jumpi\n      pop\n      jump(tag_408)\n    tag_409:\n      0x1f\n      add\n      0x20\n      swap1\n      div\n      swap1\n      0x00\n      mstore\n      keccak256(0x00, 0x20)\n      swap1\n      dup2\n      add\n      swap1\n      tag_410\n      swap2\n      swap1\n      tag_411\n      jump\t// in\n    tag_410:\n    tag_408:\n      pop\n      jump\t// out\n    tag_411:\n    tag_412:\n      dup1\n      dup3\n      gt\n      iszero\n      tag_413\n      jumpi\n      0x00\n      dup2\n      0x00\n      swap1\n      sstore\n      pop\n      0x01\n      add\n      jump(tag_412)\n    tag_413:\n      pop\n      swap1\n      jump\t// out\n        /* \"#utility.yul\":7:82   */\n    tag_414:\n        /* \"#utility.yul\":40:46   */\n      0x00\n        /* \"#utility.yul\":73:75   */\n      0x40\n        /* \"#utility.yul\":67:76   */\n      mload\n        /* \"#utility.yul\":57:76   */\n      swap1\n      pop\n        /* \"#utility.yul\":7:82   */\n      swap1\n      jump\t// out\n        /* \"#utility.yul\":88:205   */\n    tag_415:\n        /* \"#utility.yul\":197:198   */\n      0x00\n        /* \"#utility.yul\":194:195   */\n      dup1\n        /* \"#utility.yul\":187:199   */\n      revert\n        /* \"#utility.yul\":211:328   */\n    tag_416:\n        /* \"#utility.yul\":320:321   */\n      0x00\n        /* \"#utility.yul\":317:318   */\n      dup1\n        /* \"#utility.yul\":310:322   */\n      revert\n        /* \"#utility.yul\":334:483   */\n    tag_417:\n        /* \"#utility.yul\":370:377   */\n      0x00\n        /* \"#utility.yul\":410:476   */\n      0xffffffff00000000000000000000000000000000000000000000000000000000\n        /* \"#utility.yul\":403:408   */\n      dup3\n        /* \"#utility.yul\":399:477   */\n      and\n        /* \"#utility.yul\":388:477   */\n      swap1\n      pop\n        /* \"#utility.yul\":334:483   */\n      swap2\n      swap1\n      pop\n      jump\t// out\n        /* \"#utility.yul\":489:609   */\n    tag_418:\n        /* \"#utility.yul\":561:584   */\n      tag_500\n        /* \"#utility.yul\":578:583   */\n      dup2\n        /* \"#utility.yul\":561:584   */\n      tag_417\n      jump\t// in\n    tag_500:\n        /* \"#utility.yul\":554:559   */\n      dup2\n        /* \"#utility.yul\":551:585   */\n      eq\n        /* \"#utility.yul\":541:603   */\n      tag_501\n      jumpi\n        /* \"#utility.yul\":599:600   */\n      0x00\n        /* \"#utility.yul\":596:597   */\n      dup1\n        /* \"#utility.yul\":589:601   */\n      revert\n        /* \"#utility.yul\":541:603   */\n    tag_501:\n        /* \"#utility.yul\":489:609   */\n      pop\n      jump\t// out\n        /* \"#utility.yul\":615:752   */\n    tag_419:\n        /* \"#utility.yul\":660:665   */\n      0x00\n        /* \"#utility.yul\":698:704   */\n      dup2\n        /* \"#utility.yul\":685:705   */\n      calldataload\n        /* \"#utility.yul\":676:705   */\n      swap1\n      pop\n        /* \"#utility.yul\":714:746   */\n      tag_503\n        /* \"#utility.yul\":740:745   */\n      dup2\n        /* \"#utility.yul\":714:746   */\n      tag_418\n      jump\t// in\n    tag_503:\n        /* \"#utility.yul\":615:752   */\n      swap3\n      swap2\n      pop\n      pop\n      jump\t// out\n        /* \"#utility.yul\":758:1085   */\n    tag_40:\n        /* \"#utility.yul\":816:822   */\n      0x00\n        /* \"#utility.yul\":865:867   */\n      0x20\n        /* \"#utility.yul\":853:862   */\n      dup3\n        /* \"#utility.yul\":844:851   */\n      dup5\n        /* \"#utility.yul\":840:863   */\n      sub\n        /* \"#utility.yul\":836:868   */\n      slt\n        /* \"#utility.yul\":833:952   */\n      iszero\n      tag_505\n      jumpi\n        /* \"#utility.yul\":871:950   */\n      tag_506\n      tag_415\n      jump\t// in\n    tag_506:\n        /* \"#utility.yul\":833:952   */\n    tag_505:\n        /* \"#utility.yul\":991:992   */\n      0x00\n        /* \"#utility.yul\":1016:1068   */\n      tag_507\n        /* \"#utility.yul\":1060:1067   */\n      dup5\n        /* \"#utility.yul\":1051:1057   */\n      dup3\n        /* \"#utility.yul\":1040:1049   */\n      dup6\n        /* \"#utility.yul\":1036:1058   */\n      add\n        /* \"#utility.yul\":1016:1068   */\n      tag_419\n      jump\t// in\n    tag_507:\n        /* \"#utility.yul\":1006:1068   */\n      swap2\n      pop\n        /* \"#utility.yul\":962:1078   */\n      pop\n        /* \"#utility.yul\":758:1085   */\n      swap3\n      swap2\n      pop\n      pop\n      jump\t// out\n        /* \"#utility.yul\":1091:1181   */\n    tag_420:\n        /* \"#utility.yul\":1125:1132   */\n      0x00\n        /* \"#utility.yul\":1168:1173   */\n      dup2\n        /* \"#utility.yul\":1161:1174   */\n      iszero\n        /* \"#utility.yul\":1154:1175   */\n      iszero\n        /* \"#utility.yul\":1143:1175   */\n      swap1\n      pop\n        /* \"#utility.yul\":1091:1181   */\n      swap2\n      swap1\n      pop\n      jump\t// out\n        /* \"#utility.yul\":1187:1296   */\n    tag_421:\n        /* \"#utility.yul\":1268:1289   */\n      tag_510\n        /* \"#utility.yul\":1283:1288   */\n      dup2\n        /* \"#utility.yul\":1268:1289   */\n      tag_420\n      jump\t// in\n    tag_510:\n        /* \"#utility.yul\":1263:1266   */\n      dup3\n        /* \"#utility.yul\":1256:1290   */\n      mstore\n        /* \"#utility.yul\":1187:1296   */\n      pop\n      pop\n      jump\t// out\n        /* \"#utility.yul\":1302:1512   */\n    tag_43:\n        /* \"#utility.yul\":1389:1393   */\n      0x00\n        /* \"#utility.yul\":1427:1429   */\n      0x20\n        /* \"#utility.yul\":1416:1425   */\n      dup3\n        /* \"#utility.yul\":1412:1430   */\n      add\n        /* \"#utility.yul\":1404:1430   */\n      swap1\n      pop\n        /* \"#utility.yul\":1440:1505   */\n      tag_512\n        /* \"#utility.yul\":1502:1503   */\n      0x00\n        /* \"#utility.yul\":1491:1500   */\n      dup4\n        /* \"#utility.yul\":1487:1504   */\n      add\n        /* \"#utility.yul\":1478:1484   */\n      dup5\n        /* \"#utility.yul\":1440:1505   */\n      tag_421\n      jump\t// in\n    tag_512:\n        /* \"#utility.yul\":1302:1512   */\n      swap3\n      swap2\n      pop\n      pop\n      jump\t// out\n        /* \"#utility.yul\":1518:1644   */\n    tag_422:\n        /* \"#utility.yul\":1555:1562   */\n      0x00\n        /* \"#utility.yul\":1595:1637   */\n      0xffffffffffffffffffffffffffffffffffffffff\n        /* \"#utility.yul\":1588:1593   */\n      dup3\n        /* \"#utility.yul\":1584:1638   */\n      and\n        /* \"#utility.yul\":1573:1638   */\n      swap1\n      pop\n        /* \"#utility.yul\":1518:1644   */\n      swap2\n      swap1\n      pop\n      jump\t// out\n        /* \"#utility.yul\":1650:1746   */\n    tag_423:\n        /* \"#utility.yul\":1687:1694   */\n      0x00\n        /* \"#utility.yul\":1716:1740   */\n      tag_515\n        /* \"#utility.yul\":1734:1739   */\n      dup3\n        /* \"#utility.yul\":1716:1740   */\n      tag_422\n      jump\t// in\n    tag_515:\n        /* \"#utility.yul\":1705:1740   */\n      swap1\n      pop\n        /* \"#utility.yul\":1650:1746   */\n      swap2\n      swap1\n      pop\n      jump\t// out\n        /* \"#utility.yul\":1752:1874   */\n    tag_424:\n        /* \"#utility.yul\":1825:1849   */\n      tag_517\n        /* \"#utility.yul\":1843:1848   */\n      dup2\n        /* \"#utility.yul\":1825:1849   */\n      tag_423\n      jump\t// in\n    tag_517:\n        /* \"#utility.yul\":1818:1823   */\n      dup2\n        /* \"#utility.yul\":1815:1850   */\n      eq\n        /* \"#utility.yul\":1805:1868   */\n      tag_518\n      jumpi\n        /* \"#utility.yul\":1864:1865   */\n      0x00\n        /* \"#utility.yul\":1861:1862   */\n      dup1\n        /* \"#utility.yul\":1854:1866   */\n      revert\n        /* \"#utility.yul\":1805:1868   */\n    tag_518:\n        /* \"#utility.yul\":1752:1874   */\n      pop\n      jump\t// out\n        /* \"#utility.yul\":1880:2019   */\n    tag_425:\n        /* \"#utility.yul\":1926:1931   */\n      0x00\n        /* \"#utility.yul\":1964:1970   */\n      dup2\n        /* \"#utility.yul\":1951:1971   */\n      calldataload\n        /* \"#utility.yul\":1942:1971   */\n      swap1\n      pop\n        /* \"#utility.yul\":1980:2013   */\n      tag_520\n        /* \"#utility.yul\":2007:2012   */\n      dup2\n        /* \"#utility.yul\":1980:2013   */\n      tag_424\n      jump\t// in\n    tag_520:\n        /* \"#utility.yul\":1880:2019   */\n      swap3\n      swap2\n      pop\n      pop\n      jump\t// out\n        /* \"#utility.yul\":2025:2354   */\n    tag_46:\n        /* \"#utility.yul\":2084:2090   */\n      0x00\n        /* \"#utility.yul\":2133:2135   */\n      0x20\n        /* \"#utility.yul\":2121:2130   */\n      dup3\n        /* \"#utility.yul\":2112:2119   */\n      dup5\n        /* \"#utility.yul\":2108:2131   */\n      sub\n        /* \"#utility.yul\":2104:2136   */\n      slt\n        /* \"#utility.yul\":2101:2220   */\n      iszero\n      tag_522\n      jumpi\n        /* \"#utility.yul\":2139:2218   */\n      tag_523\n      tag_415\n      jump\t// in\n    tag_523:\n        /* \"#utility.yul\":2101:2220   */\n    tag_522:\n        /* \"#utility.yul\":2259:2260   */\n      0x00\n        /* \"#utility.yul\":2284:2337   */\n      tag_524\n        /* \"#utility.yul\":2329:2336   */\n      dup5\n        /* \"#utility.yul\":2320:2326   */\n      dup3\n        /* \"#utility.yul\":2309:2318   */\n      dup6\n        /* \"#utility.yul\":2305:2327   */\n      add\n        /* \"#utility.yul\":2284:2337   */\n      tag_425\n      jump\t// in\n    tag_524:\n        /* \"#utility.yul\":2274:2337   */\n      swap2\n      pop\n        /* \"#utility.yul\":2230:2347   */\n      pop\n        /* \"#utility.yul\":2025:2354   */\n      swap3\n      swap2\n      pop\n      pop\n      jump\t// out\n        /* \"#utility.yul\":2360:2459   */\n    tag_426:\n        /* \"#utility.yul\":2412:2418   */\n      0x00\n        /* \"#utility.yul\":2446:2451   */\n      dup2\n        /* \"#utility.yul\":2440:2452   */\n      mload\n        /* \"#utility.yul\":2430:2452   */\n      swap1\n      pop\n        /* \"#utility.yul\":2360:2459   */\n      swap2\n      swap1\n      pop\n      jump\t// out\n        /* \"#utility.yul\":2465:2634   */\n    tag_427:\n        /* \"#utility.yul\":2549:2560   */\n      0x00\n        /* \"#utility.yul\":2583:2589   */\n      dup3\n        /* \"#utility.yul\":2578:2581   */\n      dup3\n        /* \"#utility.yul\":2571:2590   */\n      mstore\n        /* \"#utility.yul\":2623:2627   */\n      0x20\n        /* \"#utility.yul\":2618:2621   */\n      dup3\n        /* \"#utility.yul\":2614:2628   */\n      add\n        /* \"#utility.yul\":2599:2628   */\n      swap1\n      pop\n        /* \"#utility.yul\":2465:2634   */\n      swap3\n      swap2\n      pop\n      pop\n      jump\t// out\n        /* \"#utility.yul\":2640:2779   */\n    tag_428:\n        /* \"#utility.yul\":2729:2735   */\n      dup3\n        /* \"#utility.yul\":2724:2727   */\n      dup2\n        /* \"#utility.yul\":2719:2722   */\n      dup4\n        /* \"#utility.yul\":2713:2736   */\n      mcopy\n        /* \"#utility.yul\":2770:2771   */\n      0x00\n        /* \"#utility.yul\":2761:2767   */\n      dup4\n        /* \"#utility.yul\":2756:2759   */\n      dup4\n        /* \"#utility.yul\":2752:2768   */\n      add\n        /* \"#utility.yul\":2745:2772   */\n      mstore\n        /* \"#utility.yul\":2640:2779   */\n      pop\n      pop\n      pop\n      jump\t// out\n        /* \"#utility.yul\":2785:2887   */\n    tag_429:\n        /* \"#utility.yul\":2826:2832   */\n      0x00\n        /* \"#utility.yul\":2877:2879   */\n      0x1f\n        /* \"#utility.yul\":2873:2880   */\n      not\n        /* \"#utility.yul\":2868:2870   */\n      0x1f\n        /* \"#utility.yul\":2861:2866   */\n      dup4\n        /* \"#utility.yul\":2857:2871   */\n      add\n        /* \"#utility.yul\":2853:2881   */\n      and\n        /* \"#utility.yul\":2843:2881   */\n      swap1\n      pop\n        /* \"#utility.yul\":2785:2887   */\n      swap2\n      swap1\n      pop\n      jump\t// out\n        /* \"#utility.yul\":2893:3270   */\n    tag_430:\n        /* \"#utility.yul\":2981:2984   */\n      0x00\n        /* \"#utility.yul\":3009:3048   */\n      tag_530\n        /* \"#utility.yul\":3042:3047   */\n      dup3\n        /* \"#utility.yul\":3009:3048   */\n      tag_426\n      jump\t// in\n    tag_530:\n        /* \"#utility.yul\":3064:3135   */\n      tag_531\n        /* \"#utility.yul\":3128:3134   */\n      dup2\n        /* \"#utility.yul\":3123:3126   */\n      dup6\n        /* \"#utility.yul\":3064:3135   */\n      tag_427\n      jump\t// in\n    tag_531:\n        /* \"#utility.yul\":3057:3135   */\n      swap4\n      pop\n        /* \"#utility.yul\":3144:3209   */\n      tag_532\n        /* \"#utility.yul\":3202:3208   */\n      dup2\n        /* \"#utility.yul\":3197:3200   */\n      dup6\n        /* \"#utility.yul\":3190:3194   */\n      0x20\n        /* \"#utility.yul\":3183:3188   */\n      dup7\n        /* \"#utility.yul\":3179:3195   */\n      add\n        /* \"#utility.yul\":3144:3209   */\n      tag_428\n      jump\t// in\n    tag_532:\n        /* \"#utility.yul\":3234:3263   */\n      tag_533\n        /* \"#utility.yul\":3256:3262   */\n      dup2\n        /* \"#utility.yul\":3234:3263   */\n      tag_429\n      jump\t// in\n    tag_533:\n        /* \"#utility.yul\":3229:3232   */\n      dup5\n        /* \"#utility.yul\":3225:3264   */\n      add\n        /* \"#utility.yul\":3218:3264   */\n      swap2\n      pop\n        /* \"#utility.yul\":2985:3270   */\n      pop\n        /* \"#utility.yul\":2893:3270   */\n      swap3\n      swap2\n      pop\n      pop\n      jump\t// out\n        /* \"#utility.yul\":3276:3353   */\n    tag_431:\n        /* \"#utility.yul\":3313:3320   */\n      0x00\n        /* \"#utility.yul\":3342:3347   */\n      dup2\n        /* \"#utility.yul\":3331:3347   */\n      swap1\n      pop\n        /* \"#utility.yul\":3276:3353   */\n      swap2\n      swap1\n      pop\n      jump\t// out\n        /* \"#utility.yul\":3359:3477   */\n    tag_432:\n        /* \"#utility.yul\":3446:3470   */\n      tag_536\n        /* \"#utility.yul\":3464:3469   */\n      dup2\n        /* \"#utility.yul\":3446:3470   */\n      tag_431\n      jump\t// in\n    tag_536:\n        /* \"#utility.yul\":3441:3444   */\n      dup3\n        /* \"#utility.yul\":3434:3471   */\n      mstore\n        /* \"#utility.yul\":3359:3477   */\n      pop\n      pop\n      jump\t// out\n        /* \"#utility.yul\":3483:3601   */\n    tag_433:\n        /* \"#utility.yul\":3570:3594   */\n      tag_538\n        /* \"#utility.yul\":3588:3593   */\n      dup2\n        /* \"#utility.yul\":3570:3594   */\n      tag_423\n      jump\t// in\n    tag_538:\n        /* \"#utility.yul\":3565:3568   */\n      dup3\n        /* \"#utility.yul\":3558:3595   */\n      mstore\n        /* \"#utility.yul\":3483:3601   */\n      pop\n      pop\n      jump\t// out\n        /* \"#utility.yul\":3607:4239   */\n    tag_49:\n        /* \"#utility.yul\":3798:3802   */\n      0x00\n        /* \"#utility.yul\":3836:3839   */\n      0x80\n        /* \"#utility.yul\":3825:3834   */\n      dup3\n        /* \"#utility.yul\":3821:3840   */\n      add\n        /* \"#utility.yul\":3813:3840   */\n      swap1\n      pop\n        /* \"#utility.yul\":3886:3895   */\n      dup2\n        /* \"#utility.yul\":3880:3884   */\n      dup2\n        /* \"#utility.yul\":3876:3896   */\n      sub\n        /* \"#utility.yul\":3872:3873   */\n      0x00\n        /* \"#utility.yul\":3861:3870   */\n      dup4\n        /* \"#utility.yul\":3857:3874   */\n      add\n        /* \"#utility.yul\":3850:3897   */\n      mstore\n        /* \"#utility.yul\":3914:3992   */\n      tag_540\n        /* \"#utility.yul\":3987:3991   */\n      dup2\n        /* \"#utility.yul\":3978:3984   */\n      dup8\n        /* \"#utility.yul\":3914:3992   */\n      tag_430\n      jump\t// in\n    tag_540:\n        /* \"#utility.yul\":3906:3992   */\n      swap1\n      pop\n        /* \"#utility.yul\":4002:4074   */\n      tag_541\n        /* \"#utility.yul\":4070:4072   */\n      0x20\n        /* \"#utility.yul\":4059:4068   */\n      dup4\n        /* \"#utility.yul\":4055:4073   */\n      add\n        /* \"#utility.yul\":4046:4052   */\n      dup7\n        /* \"#utility.yul\":4002:4074   */\n      tag_432\n      jump\t// in\n    tag_541:\n        /* \"#utility.yul\":4084:4150   */\n      tag_542\n        /* \"#utility.yul\":4146:4148   */\n      0x40\n        /* \"#utility.yul\":4135:4144   */\n      dup4\n        /* \"#utility.yul\":4131:4149   */\n      add\n        /* \"#utility.yul\":4122:4128   */\n      dup6\n        /* \"#utility.yul\":4084:4150   */\n      tag_421\n      jump\t// in\n    tag_542:\n        /* \"#utility.yul\":4160:4232   */\n      tag_543\n        /* \"#utility.yul\":4228:4230   */\n      0x60\n        /* \"#utility.yul\":4217:4226   */\n      dup4\n        /* \"#utility.yul\":4213:4231   */\n      add\n        /* \"#utility.yul\":4204:4210   */\n      dup5\n        /* \"#utility.yul\":4160:4232   */\n      tag_433\n      jump\t// in\n    tag_543:\n        /* \"#utility.yul\":3607:4239   */\n      swap6\n      swap5\n      pop\n      pop\n      pop\n      pop\n      pop\n      jump\t// out\n        /* \"#utility.yul\":4245:4467   */\n    tag_54:\n        /* \"#utility.yul\":4338:4342   */\n      0x00\n        /* \"#utility.yul\":4376:4378   */\n      0x20\n        /* \"#utility.yul\":4365:4374   */\n      dup3\n        /* \"#utility.yul\":4361:4379   */\n      add\n        /* \"#utility.yul\":4353:4379   */\n      swap1\n      pop\n        /* \"#utility.yul\":4389:4460   */\n      tag_545\n        /* \"#utility.yul\":4457:4458   */\n      0x00\n        /* \"#utility.yul\":4446:4455   */\n      dup4\n        /* \"#utility.yul\":4442:4459   */\n      add\n        /* \"#utility.yul\":4433:4439   */\n      dup5\n        /* \"#utility.yul\":4389:4460   */\n      tag_432\n      jump\t// in\n    tag_545:\n        /* \"#utility.yul\":4245:4467   */\n      swap3\n      swap2\n      pop\n      pop\n      jump\t// out\n        /* \"#utility.yul\":4473:4550   */\n    tag_434:\n        /* \"#utility.yul\":4510:4517   */\n      0x00\n        /* \"#utility.yul\":4539:4544   */\n      dup2\n        /* \"#utility.yul\":4528:4544   */\n      swap1\n      pop\n        /* \"#utility.yul\":4473:4550   */\n      swap2\n      swap1\n      pop\n      jump\t// out\n        /* \"#utility.yul\":4556:4678   */\n    tag_435:\n        /* \"#utility.yul\":4629:4653   */\n      tag_548\n        /* \"#utility.yul\":4647:4652   */\n      dup2\n        /* \"#utility.yul\":4629:4653   */\n      tag_434\n      jump\t// in\n    tag_548:\n        /* \"#utility.yul\":4622:4627   */\n      dup2\n        /* \"#utility.yul\":4619:4654   */\n      eq\n        /* \"#utility.yul\":4609:4672   */\n      tag_549\n      jumpi\n        /* \"#utility.yul\":4668:4669   */\n      0x00\n        /* \"#utility.yul\":4665:4666   */\n      dup1\n        /* \"#utility.yul\":4658:4670   */\n      revert\n        /* \"#utility.yul\":4609:4672   */\n    tag_549:\n        /* \"#utility.yul\":4556:4678   */\n      pop\n      jump\t// out\n        /* \"#utility.yul\":4684:4823   */\n    tag_436:\n        /* \"#utility.yul\":4730:4735   */\n      0x00\n        /* \"#utility.yul\":4768:4774   */\n      dup2\n        /* \"#utility.yul\":4755:4775   */\n      calldataload\n        /* \"#utility.yul\":4746:4775   */\n      swap1\n      pop\n        /* \"#utility.yul\":4784:4817   */\n      tag_551\n        /* \"#utility.yul\":4811:4816   */\n      dup2\n        /* \"#utility.yul\":4784:4817   */\n      tag_435\n      jump\t// in\n    tag_551:\n        /* \"#utility.yul\":4684:4823   */\n      swap3\n      swap2\n      pop\n      pop\n      jump\t// out\n        /* \"#utility.yul\":4829:5158   */\n    tag_60:\n        /* \"#utility.yul\":4888:4894   */\n      0x00\n        /* \"#utility.yul\":4937:4939   */\n      0x20\n        /* \"#utility.yul\":4925:4934   */\n      dup3\n        /* \"#utility.yul\":4916:4923   */\n      dup5\n        /* \"#utility.yul\":4912:4935   */\n      sub\n        /* \"#utility.yul\":4908:4940   */\n      slt\n        /* \"#utility.yul\":4905:5024   */\n      iszero\n      tag_553\n      jumpi\n        /* \"#utility.yul\":4943:5022   */\n      tag_554\n      tag_415\n      jump\t// in\n    tag_554:\n        /* \"#utility.yul\":4905:5024   */\n    tag_553:\n        /* \"#utility.yul\":5063:5064   */\n      0x00\n        /* \"#utility.yul\":5088:5141   */\n      tag_555\n        /* \"#utility.yul\":5133:5140   */\n      dup5\n        /* \"#utility.yul\":5124:5130   */\n      dup3\n        /* \"#utility.yul\":5113:5122   */\n      dup6\n        /* \"#utility.yul\":5109:5131   */\n      add\n        /* \"#utility.yul\":5088:5141   */\n      tag_436\n      jump\t// in\n    tag_555:\n        /* \"#utility.yul\":5078:5141   */\n      swap2\n      pop\n        /* \"#utility.yul\":5034:5151   */\n      pop\n        /* \"#utility.yul\":4829:5158   */\n      swap3\n      swap2\n      pop\n      pop\n      jump\t// out\n        /* \"#utility.yul\":5164:5282   */\n    tag_437:\n        /* \"#utility.yul\":5251:5275   */\n      tag_557\n        /* \"#utility.yul\":5269:5274   */\n      dup2\n        /* \"#utility.yul\":5251:5275   */\n      tag_434\n      jump\t// in\n    tag_557:\n        /* \"#utility.yul\":5246:5249   */\n      dup3\n        /* \"#utility.yul\":5239:5276   */\n      mstore\n        /* \"#utility.yul\":5164:5282   */\n      pop\n      pop\n      jump\t// out\n        /* \"#utility.yul\":5288:5510   */\n    tag_63:\n        /* \"#utility.yul\":5381:5385   */\n      0x00\n        /* \"#utility.yul\":5419:5421   */\n      0x20\n        /* \"#utility.yul\":5408:5417   */\n      dup3\n        /* \"#utility.yul\":5404:5422   */\n      add\n        /* \"#utility.yul\":5396:5422   */\n      swap1\n      pop\n        /* \"#utility.yul\":5432:5503   */\n      tag_559\n        /* \"#utility.yul\":5500:5501   */\n      0x00\n        /* \"#utility.yul\":5489:5498   */\n      dup4\n        /* \"#utility.yul\":5485:5502   */\n      add\n        /* \"#utility.yul\":5476:5482   */\n      dup5\n        /* \"#utility.yul\":5432:5503   */\n      tag_437\n      jump\t// in\n    tag_559:\n        /* \"#utility.yul\":5288:5510   */\n      swap3\n      swap2\n      pop\n      pop\n      jump\t// out\n        /* \"#utility.yul\":5516:5990   */\n    tag_66:\n        /* \"#utility.yul\":5584:5590   */\n      0x00\n        /* \"#utility.yul\":5592:5598   */\n      dup1\n        /* \"#utility.yul\":5641:5643   */\n      0x40\n        /* \"#utility.yul\":5629:5638   */\n      dup4\n        /* \"#utility.yul\":5620:5627   */\n      dup6\n        /* \"#utility.yul\":5616:5639   */\n      sub\n        /* \"#utility.yul\":5612:5644   */\n      slt\n        /* \"#utility.yul\":5609:5728   */\n      iszero\n      tag_561\n      jumpi\n        /* \"#utility.yul\":5647:5726   */\n      tag_562\n      tag_415\n      jump\t// in\n    tag_562:\n        /* \"#utility.yul\":5609:5728   */\n    tag_561:\n        /* \"#utility.yul\":5767:5768   */\n      0x00\n        /* \"#utility.yul\":5792:5845   */\n      tag_563\n        /* \"#utility.yul\":5837:5844   */\n      dup6\n        /* \"#utility.yul\":5828:5834   */\n      dup3\n        /* \"#utility.yul\":5817:5826   */\n      dup7\n        /* \"#utility.yul\":5813:5835   */\n      add\n        /* \"#utility.yul\":5792:5845   */\n      tag_436\n      jump\t// in\n    tag_563:\n        /* \"#utility.yul\":5782:5845   */\n      swap3\n      pop\n        /* \"#utility.yul\":5738:5855   */\n      pop\n        /* \"#utility.yul\":5894:5896   */\n      0x20\n        /* \"#utility.yul\":5920:5973   */\n      tag_564\n        /* \"#utility.yul\":5965:5972   */\n      dup6\n        /* \"#utility.yul\":5956:5962   */\n      dup3\n        /* \"#utility.yul\":5945:5954   */\n      dup7\n        /* \"#utility.yul\":5941:5963   */\n      add\n        /* \"#utility.yul\":5920:5973   */\n      tag_425\n      jump\t// in\n    tag_564:\n        /* \"#utility.yul\":5910:5973   */\n      swap2\n      pop\n        /* \"#utility.yul\":5865:5983   */\n      pop\n        /* \"#utility.yul\":5516:5990   */\n      swap3\n      pop\n      swap3\n      swap1\n      pop\n      jump\t// out\n        /* \"#utility.yul\":5996:6113   */\n    tag_438:\n        /* \"#utility.yul\":6105:6106   */\n      0x00\n        /* \"#utility.yul\":6102:6103   */\n      dup1\n        /* \"#utility.yul\":6095:6107   */\n      revert\n        /* \"#utility.yul\":6119:6236   */\n    tag_439:\n        /* \"#utility.yul\":6228:6229   */\n      0x00\n        /* \"#utility.yul\":6225:6226   */\n      dup1\n        /* \"#utility.yul\":6218:6230   */\n      revert\n        /* \"#utility.yul\":6242:6422   */\n    tag_440:\n        /* \"#utility.yul\":6290:6367   */\n      0x4e487b7100000000000000000000000000000000000000000000000000000000\n        /* \"#utility.yul\":6287:6288   */\n      0x00\n        /* \"#utility.yul\":6280:6368   */\n      mstore\n        /* \"#utility.yul\":6387:6391   */\n      0x41\n        /* \"#utility.yul\":6384:6385   */\n      0x04\n        /* \"#utility.yul\":6377:6392   */\n      mstore\n        /* \"#utility.yul\":6411:6415   */\n      0x24\n        /* \"#utility.yul\":6408:6409   */\n      0x00\n        /* \"#utility.yul\":6401:6416   */\n      revert\n        /* \"#utility.yul\":6428:6709   */\n    tag_441:\n        /* \"#utility.yul\":6511:6538   */\n      tag_569\n        /* \"#utility.yul\":6533:6537   */\n      dup3\n        /* \"#utility.yul\":6511:6538   */\n      tag_429\n      jump\t// in\n    tag_569:\n        /* \"#utility.yul\":6503:6509   */\n      dup2\n        /* \"#utility.yul\":6499:6539   */\n      add\n        /* \"#utility.yul\":6641:6647   */\n      dup2\n        /* \"#utility.yul\":6629:6639   */\n      dup2\n        /* \"#utility.yul\":6626:6648   */\n      lt\n        /* \"#utility.yul\":6605:6623   */\n      0xffffffffffffffff\n        /* \"#utility.yul\":6593:6603   */\n      dup3\n        /* \"#utility.yul\":6590:6624   */\n      gt\n        /* \"#utility.yul\":6587:6649   */\n      or\n        /* \"#utility.yul\":6584:6672   */\n      iszero\n      tag_570\n      jumpi\n        /* \"#utility.yul\":6652:6670   */\n      tag_571\n      tag_440\n      jump\t// in\n    tag_571:\n        /* \"#utility.yul\":6584:6672   */\n    tag_570:\n        /* \"#utility.yul\":6692:6702   */\n      dup1\n        /* \"#utility.yul\":6688:6690   */\n      0x40\n        /* \"#utility.yul\":6681:6703   */\n      mstore\n        /* \"#utility.yul\":6471:6709   */\n      pop\n        /* \"#utility.yul\":6428:6709   */\n      pop\n      pop\n      jump\t// out\n        /* \"#utility.yul\":6715:6844   */\n    tag_442:\n        /* \"#utility.yul\":6749:6755   */\n      0x00\n        /* \"#utility.yul\":6776:6796   */\n      tag_573\n      tag_414\n      jump\t// in\n    tag_573:\n        /* \"#utility.yul\":6766:6796   */\n      swap1\n      pop\n        /* \"#utility.yul\":6805:6838   */\n      tag_574\n        /* \"#utility.yul\":6833:6837   */\n      dup3\n        /* \"#utility.yul\":6825:6831   */\n      dup3\n        /* \"#utility.yul\":6805:6838   */\n      tag_441\n      jump\t// in\n    tag_574:\n        /* \"#utility.yul\":6715:6844   */\n      swap2\n      swap1\n      pop\n      jump\t// out\n        /* \"#utility.yul\":6850:7158   */\n    tag_443:\n        /* \"#utility.yul\":6912:6916   */\n      0x00\n        /* \"#utility.yul\":7002:7020   */\n      0xffffffffffffffff\n        /* \"#utility.yul\":6994:7000   */\n      dup3\n        /* \"#utility.yul\":6991:7021   */\n      gt\n        /* \"#utility.yul\":6988:7044   */\n      iszero\n      tag_576\n      jumpi\n        /* \"#utility.yul\":7024:7042   */\n      tag_577\n      tag_440\n      jump\t// in\n    tag_577:\n        /* \"#utility.yul\":6988:7044   */\n    tag_576:\n        /* \"#utility.yul\":7062:7091   */\n      tag_578\n        /* \"#utility.yul\":7084:7090   */\n      dup3\n        /* \"#utility.yul\":7062:7091   */\n      tag_429\n      jump\t// in\n    tag_578:\n        /* \"#utility.yul\":7054:7091   */\n      swap1\n      pop\n        /* \"#utility.yul\":7146:7150   */\n      0x20\n        /* \"#utility.yul\":7140:7144   */\n      dup2\n        /* \"#utility.yul\":7136:7151   */\n      add\n        /* \"#utility.yul\":7128:7151   */\n      swap1\n      pop\n        /* \"#utility.yul\":6850:7158   */\n      swap2\n      swap1\n      pop\n      jump\t// out\n        /* \"#utility.yul\":7164:7312   */\n    tag_444:\n        /* \"#utility.yul\":7262:7268   */\n      dup3\n        /* \"#utility.yul\":7257:7260   */\n      dup2\n        /* \"#utility.yul\":7252:7255   */\n      dup4\n        /* \"#utility.yul\":7239:7269   */\n      calldatacopy\n        /* \"#utility.yul\":7303:7304   */\n      0x00\n        /* \"#utility.yul\":7294:7300   */\n      dup4\n        /* \"#utility.yul\":7289:7292   */\n      dup4\n        /* \"#utility.yul\":7285:7301   */\n      add\n        /* \"#utility.yul\":7278:7305   */\n      mstore\n        /* \"#utility.yul\":7164:7312   */\n      pop\n      pop\n      pop\n      jump\t// out\n        /* \"#utility.yul\":7318:7743   */\n    tag_445:\n        /* \"#utility.yul\":7396:7401   */\n      0x00\n        /* \"#utility.yul\":7421:7487   */\n      tag_581\n        /* \"#utility.yul\":7437:7486   */\n      tag_582\n        /* \"#utility.yul\":7479:7485   */\n      dup5\n        /* \"#utility.yul\":7437:7486   */\n      tag_443\n      jump\t// in\n    tag_582:\n        /* \"#utility.yul\":7421:7487   */\n      tag_442\n      jump\t// in\n    tag_581:\n        /* \"#utility.yul\":7412:7487   */\n      swap1\n      pop\n        /* \"#utility.yul\":7510:7516   */\n      dup3\n        /* \"#utility.yul\":7503:7508   */\n      dup2\n        /* \"#utility.yul\":7496:7517   */\n      mstore\n        /* \"#utility.yul\":7548:7552   */\n      0x20\n        /* \"#utility.yul\":7541:7546   */\n      dup2\n        /* \"#utility.yul\":7537:7553   */\n      add\n        /* \"#utility.yul\":7586:7589   */\n      dup5\n        /* \"#utility.yul\":7577:7583   */\n      dup5\n        /* \"#utility.yul\":7572:7575   */\n      dup5\n        /* \"#utility.yul\":7568:7584   */\n      add\n        /* \"#utility.yul\":7565:7590   */\n      gt\n        /* \"#utility.yul\":7562:7674   */\n      iszero\n      tag_583\n      jumpi\n        /* \"#utility.yul\":7593:7672   */\n      tag_584\n      tag_439\n      jump\t// in\n    tag_584:\n        /* \"#utility.yul\":7562:7674   */\n    tag_583:\n        /* \"#utility.yul\":7683:7737   */\n      tag_585\n        /* \"#utility.yul\":7730:7736   */\n      dup5\n        /* \"#utility.yul\":7725:7728   */\n      dup3\n        /* \"#utility.yul\":7720:7723   */\n      dup6\n        /* \"#utility.yul\":7683:7737   */\n      tag_444\n      jump\t// in\n    tag_585:\n        /* \"#utility.yul\":7402:7743   */\n      pop\n        /* \"#utility.yul\":7318:7743   */\n      swap4\n      swap3\n      pop\n      pop\n      pop\n      jump\t// out\n        /* \"#utility.yul\":7763:8103   */\n    tag_446:\n        /* \"#utility.yul\":7819:7824   */\n      0x00\n        /* \"#utility.yul\":7868:7871   */\n      dup3\n        /* \"#utility.yul\":7861:7865   */\n      0x1f\n        /* \"#utility.yul\":7853:7859   */\n      dup4\n        /* \"#utility.yul\":7849:7866   */\n      add\n        /* \"#utility.yul\":7845:7872   */\n      slt\n        /* \"#utility.yul\":7835:7957   */\n      tag_587\n      jumpi\n        /* \"#utility.yul\":7876:7955   */\n      tag_588\n      tag_438\n      jump\t// in\n    tag_588:\n        /* \"#utility.yul\":7835:7957   */\n    tag_587:\n        /* \"#utility.yul\":7993:7999   */\n      dup2\n        /* \"#utility.yul\":7980:8000   */\n      calldataload\n        /* \"#utility.yul\":8018:8097   */\n      tag_589\n        /* \"#utility.yul\":8093:8096   */\n      dup5\n        /* \"#utility.yul\":8085:8091   */\n      dup3\n        /* \"#utility.yul\":8078:8082   */\n      0x20\n        /* \"#utility.yul\":8070:8076   */\n      dup7\n        /* \"#utility.yul\":8066:8083   */\n      add\n        /* \"#utility.yul\":8018:8097   */\n      tag_445\n      jump\t// in\n    tag_589:\n        /* \"#utility.yul\":8009:8097   */\n      swap2\n      pop\n        /* \"#utility.yul\":7825:8103   */\n      pop\n        /* \"#utility.yul\":7763:8103   */\n      swap3\n      swap2\n      pop\n      pop\n      jump\t// out\n        /* \"#utility.yul\":8109:9088   */\n    tag_73:\n        /* \"#utility.yul\":8206:8212   */\n      0x00\n        /* \"#utility.yul\":8214:8220   */\n      dup1\n        /* \"#utility.yul\":8222:8228   */\n      0x00\n        /* \"#utility.yul\":8271:8273   */\n      0x60\n        /* \"#utility.yul\":8259:8268   */\n      dup5\n        /* \"#utility.yul\":8250:8257   */\n      dup7\n        /* \"#utility.yul\":8246:8269   */\n      sub\n        /* \"#utility.yul\":8242:8274   */\n      slt\n        /* \"#utility.yul\":8239:8358   */\n      iszero\n      tag_591\n      jumpi\n        /* \"#utility.yul\":8277:8356   */\n      tag_592\n      tag_415\n      jump\t// in\n    tag_592:\n        /* \"#utility.yul\":8239:8358   */\n    tag_591:\n        /* \"#utility.yul\":8397:8398   */\n      0x00\n        /* \"#utility.yul\":8422:8475   */\n      tag_593\n        /* \"#utility.yul\":8467:8474   */\n      dup7\n        /* \"#utility.yul\":8458:8464   */\n      dup3\n        /* \"#utility.yul\":8447:8456   */\n      dup8\n        /* \"#utility.yul\":8443:8465   */\n      add\n        /* \"#utility.yul\":8422:8475   */\n      tag_425\n      jump\t// in\n    tag_593:\n        /* \"#utility.yul\":8412:8475   */\n      swap4\n      pop\n        /* \"#utility.yul\":8368:8485   */\n      pop\n        /* \"#utility.yul\":8552:8554   */\n      0x20\n        /* \"#utility.yul\":8541:8550   */\n      dup5\n        /* \"#utility.yul\":8537:8555   */\n      add\n        /* \"#utility.yul\":8524:8556   */\n      calldataload\n        /* \"#utility.yul\":8583:8601   */\n      0xffffffffffffffff\n        /* \"#utility.yul\":8575:8581   */\n      dup2\n        /* \"#utility.yul\":8572:8602   */\n      gt\n        /* \"#utility.yul\":8569:8686   */\n      iszero\n      tag_594\n      jumpi\n        /* \"#utility.yul\":8605:8684   */\n      tag_595\n      tag_416\n      jump\t// in\n    tag_595:\n        /* \"#utility.yul\":8569:8686   */\n    tag_594:\n        /* \"#utility.yul\":8710:8773   */\n      tag_596\n        /* \"#utility.yul\":8765:8772   */\n      dup7\n        /* \"#utility.yul\":8756:8762   */\n      dup3\n        /* \"#utility.yul\":8745:8754   */\n      dup8\n        /* \"#utility.yul\":8741:8763   */\n      add\n        /* \"#utility.yul\":8710:8773   */\n      tag_446\n      jump\t// in\n    tag_596:\n        /* \"#utility.yul\":8700:8773   */\n      swap3\n      pop\n        /* \"#utility.yul\":8495:8783   */\n      pop\n        /* \"#utility.yul\":8850:8852   */\n      0x40\n        /* \"#utility.yul\":8839:8848   */\n      dup5\n        /* \"#utility.yul\":8835:8853   */\n      add\n        /* \"#utility.yul\":8822:8854   */\n      calldataload\n        /* \"#utility.yul\":8881:8899   */\n      0xffffffffffffffff\n        /* \"#utility.yul\":8873:8879   */\n      dup2\n        /* \"#utility.yul\":8870:8900   */\n      gt\n        /* \"#utility.yul\":8867:8984   */\n      iszero\n      tag_597\n      jumpi\n        /* \"#utility.yul\":8903:8982   */\n      tag_598\n      tag_416\n      jump\t// in\n    tag_598:\n        /* \"#utility.yul\":8867:8984   */\n    tag_597:\n        /* \"#utility.yul\":9008:9071   */\n      tag_599\n        /* \"#utility.yul\":9063:9070   */\n      dup7\n        /* \"#utility.yul\":9054:9060   */\n      dup3\n        /* \"#utility.yul\":9043:9052   */\n      dup8\n        /* \"#utility.yul\":9039:9061   */\n      add\n        /* \"#utility.yul\":9008:9071   */\n      tag_446\n      jump\t// in\n    tag_599:\n        /* \"#utility.yul\":8998:9071   */\n      swap2\n      pop\n        /* \"#utility.yul\":8793:9081   */\n      pop\n        /* \"#utility.yul\":8109:9088   */\n      swap3\n      pop\n      swap3\n      pop\n      swap3\n      jump\t// out\n        /* \"#utility.yul\":9094:9216   */\n    tag_447:\n        /* \"#utility.yul\":9167:9191   */\n      tag_601\n        /* \"#utility.yul\":9185:9190   */\n      dup2\n        /* \"#utility.yul\":9167:9191   */\n      tag_431\n      jump\t// in\n    tag_601:\n        /* \"#utility.yul\":9160:9165   */\n      dup2\n        /* \"#utility.yul\":9157:9192   */\n      eq\n        /* \"#utility.yul\":9147:9210   */\n      tag_602\n      jumpi\n        /* \"#utility.yul\":9206:9207   */\n      0x00\n        /* \"#utility.yul\":9203:9204   */\n      dup1\n        /* \"#utility.yul\":9196:9208   */\n      revert\n        /* \"#utility.yul\":9147:9210   */\n    tag_602:\n        /* \"#utility.yul\":9094:9216   */\n      pop\n      jump\t// out\n        /* \"#utility.yul\":9222:9361   */\n    tag_448:\n        /* \"#utility.yul\":9268:9273   */\n      0x00\n        /* \"#utility.yul\":9306:9312   */\n      dup2\n        /* \"#utility.yul\":9293:9313   */\n      calldataload\n        /* \"#utility.yul\":9284:9313   */\n      swap1\n      pop\n        /* \"#utility.yul\":9322:9355   */\n      tag_604\n        /* \"#utility.yul\":9349:9354   */\n      dup2\n        /* \"#utility.yul\":9322:9355   */\n      tag_447\n      jump\t// in\n    tag_604:\n        /* \"#utility.yul\":9222:9361   */\n      swap3\n      swap2\n      pop\n      pop\n      jump\t// out\n        /* \"#utility.yul\":9367:9688   */\n    tag_449:\n        /* \"#utility.yul\":9454:9458   */\n      0x00\n        /* \"#utility.yul\":9544:9562   */\n      0xffffffffffffffff\n        /* \"#utility.yul\":9536:9542   */\n      dup3\n        /* \"#utility.yul\":9533:9563   */\n      gt\n        /* \"#utility.yul\":9530:9586   */\n      iszero\n      tag_606\n      jumpi\n        /* \"#utility.yul\":9566:9584   */\n      tag_607\n      tag_440\n      jump\t// in\n    tag_607:\n        /* \"#utility.yul\":9530:9586   */\n    tag_606:\n        /* \"#utility.yul\":9616:9620   */\n      0x20\n        /* \"#utility.yul\":9608:9614   */\n      dup3\n        /* \"#utility.yul\":9604:9621   */\n      mul\n        /* \"#utility.yul\":9596:9621   */\n      swap1\n      pop\n        /* \"#utility.yul\":9676:9680   */\n      0x20\n        /* \"#utility.yul\":9670:9674   */\n      dup2\n        /* \"#utility.yul\":9666:9681   */\n      add\n        /* \"#utility.yul\":9658:9681   */\n      swap1\n      pop\n        /* \"#utility.yul\":9367:9688   */\n      swap2\n      swap1\n      pop\n      jump\t// out\n        /* \"#utility.yul\":9694:9811   */\n    tag_450:\n        /* \"#utility.yul\":9803:9804   */\n      0x00\n        /* \"#utility.yul\":9800:9801   */\n      dup1\n        /* \"#utility.yul\":9793:9805   */\n      revert\n        /* \"#utility.yul\":9833:10778   */\n    tag_451:\n        /* \"#utility.yul\":9939:9944   */\n      0x00\n        /* \"#utility.yul\":9964:10055   */\n      tag_610\n        /* \"#utility.yul\":9980:10054   */\n      tag_611\n        /* \"#utility.yul\":10047:10053   */\n      dup5\n        /* \"#utility.yul\":9980:10054   */\n      tag_449\n      jump\t// in\n    tag_611:\n        /* \"#utility.yul\":9964:10055   */\n      tag_442\n      jump\t// in\n    tag_610:\n        /* \"#utility.yul\":9955:10055   */\n      swap1\n      pop\n        /* \"#utility.yul\":10075:10080   */\n      dup1\n        /* \"#utility.yul\":10104:10110   */\n      dup4\n        /* \"#utility.yul\":10097:10102   */\n      dup3\n        /* \"#utility.yul\":10090:10111   */\n      mstore\n        /* \"#utility.yul\":10138:10142   */\n      0x20\n        /* \"#utility.yul\":10131:10136   */\n      dup3\n        /* \"#utility.yul\":10127:10143   */\n      add\n        /* \"#utility.yul\":10120:10143   */\n      swap1\n      pop\n        /* \"#utility.yul\":10191:10195   */\n      0x20\n        /* \"#utility.yul\":10183:10189   */\n      dup5\n        /* \"#utility.yul\":10179:10196   */\n      mul\n        /* \"#utility.yul\":10171:10177   */\n      dup4\n        /* \"#utility.yul\":10167:10197   */\n      add\n        /* \"#utility.yul\":10220:10223   */\n      dup6\n        /* \"#utility.yul\":10212:10218   */\n      dup2\n        /* \"#utility.yul\":10209:10224   */\n      gt\n        /* \"#utility.yul\":10206:10328   */\n      iszero\n      tag_612\n      jumpi\n        /* \"#utility.yul\":10239:10318   */\n      tag_613\n      tag_450\n      jump\t// in\n    tag_613:\n        /* \"#utility.yul\":10206:10328   */\n    tag_612:\n        /* \"#utility.yul\":10354:10360   */\n      dup4\n        /* \"#utility.yul\":10337:10772   */\n    tag_614:\n        /* \"#utility.yul\":10371:10377   */\n      dup2\n        /* \"#utility.yul\":10366:10369   */\n      dup2\n        /* \"#utility.yul\":10363:10378   */\n      lt\n        /* \"#utility.yul\":10337:10772   */\n      iszero\n      tag_616\n      jumpi\n        /* \"#utility.yul\":10460:10463   */\n      dup1\n        /* \"#utility.yul\":10447:10464   */\n      calldataload\n        /* \"#utility.yul\":10496:10514   */\n      0xffffffffffffffff\n        /* \"#utility.yul\":10483:10494   */\n      dup2\n        /* \"#utility.yul\":10480:10515   */\n      gt\n        /* \"#utility.yul\":10477:10599   */\n      iszero\n      tag_617\n      jumpi\n        /* \"#utility.yul\":10518:10597   */\n      tag_618\n      tag_438\n      jump\t// in\n    tag_618:\n        /* \"#utility.yul\":10477:10599   */\n    tag_617:\n        /* \"#utility.yul\":10642:10653   */\n      dup1\n        /* \"#utility.yul\":10634:10640   */\n      dup7\n        /* \"#utility.yul\":10630:10654   */\n      add\n        /* \"#utility.yul\":10680:10727   */\n      tag_619\n        /* \"#utility.yul\":10723:10726   */\n      dup10\n        /* \"#utility.yul\":10711:10721   */\n      dup3\n        /* \"#utility.yul\":10680:10727   */\n      tag_446\n      jump\t// in\n    tag_619:\n        /* \"#utility.yul\":10675:10678   */\n      dup6\n        /* \"#utility.yul\":10668:10728   */\n      mstore\n        /* \"#utility.yul\":10757:10761   */\n      0x20\n        /* \"#utility.yul\":10752:10755   */\n      dup6\n        /* \"#utility.yul\":10748:10762   */\n      add\n        /* \"#utility.yul\":10741:10762   */\n      swap5\n      pop\n        /* \"#utility.yul\":10413:10772   */\n      pop\n      pop\n        /* \"#utility.yul\":10397:10401   */\n      0x20\n        /* \"#utility.yul\":10392:10395   */\n      dup2\n        /* \"#utility.yul\":10388:10402   */\n      add\n        /* \"#utility.yul\":10381:10402   */\n      swap1\n      pop\n        /* \"#utility.yul\":10337:10772   */\n      jump(tag_614)\n    tag_616:\n        /* \"#utility.yul\":10341:10362   */\n      pop\n        /* \"#utility.yul\":9945:10778   */\n      pop\n      pop\n        /* \"#utility.yul\":9833:10778   */\n      swap4\n      swap3\n      pop\n      pop\n      pop\n      jump\t// out\n        /* \"#utility.yul\":10800:11190   */\n    tag_452:\n        /* \"#utility.yul\":10881:10886   */\n      0x00\n        /* \"#utility.yul\":10930:10933   */\n      dup3\n        /* \"#utility.yul\":10923:10927   */\n      0x1f\n        /* \"#utility.yul\":10915:10921   */\n      dup4\n        /* \"#utility.yul\":10911:10928   */\n      add\n        /* \"#utility.yul\":10907:10934   */\n      slt\n        /* \"#utility.yul\":10897:11019   */\n      tag_621\n      jumpi\n        /* \"#utility.yul\":10938:11017   */\n      tag_622\n      tag_438\n      jump\t// in\n    tag_622:\n        /* \"#utility.yul\":10897:11019   */\n    tag_621:\n        /* \"#utility.yul\":11055:11061   */\n      dup2\n        /* \"#utility.yul\":11042:11062   */\n      calldataload\n        /* \"#utility.yul\":11080:11184   */\n      tag_623\n        /* \"#utility.yul\":11180:11183   */\n      dup5\n        /* \"#utility.yul\":11172:11178   */\n      dup3\n        /* \"#utility.yul\":11165:11169   */\n      0x20\n        /* \"#utility.yul\":11157:11163   */\n      dup7\n        /* \"#utility.yul\":11153:11170   */\n      add\n        /* \"#utility.yul\":11080:11184   */\n      tag_451\n      jump\t// in\n    tag_623:\n        /* \"#utility.yul\":11071:11184   */\n      swap2\n      pop\n        /* \"#utility.yul\":10887:11190   */\n      pop\n        /* \"#utility.yul\":10800:11190   */\n      swap3\n      swap2\n      pop\n      pop\n      jump\t// out\n        /* \"#utility.yul\":11196:12371   */\n    tag_81:\n        /* \"#utility.yul\":11327:11333   */\n      0x00\n        /* \"#utility.yul\":11335:11341   */\n      dup1\n        /* \"#utility.yul\":11343:11349   */\n      0x00\n        /* \"#utility.yul\":11351:11357   */\n      dup1\n        /* \"#utility.yul\":11400:11403   */\n      0x80\n        /* \"#utility.yul\":11388:11397   */\n      dup6\n        /* \"#utility.yul\":11379:11386   */\n      dup8\n        /* \"#utility.yul\":11375:11398   */\n      sub\n        /* \"#utility.yul\":11371:11404   */\n      slt\n        /* \"#utility.yul\":11368:11488   */\n      iszero\n      tag_625\n      jumpi\n        /* \"#utility.yul\":11407:11486   */\n      tag_626\n      tag_415\n      jump\t// in\n    tag_626:\n        /* \"#utility.yul\":11368:11488   */\n    tag_625:\n        /* \"#utility.yul\":11555:11556   */\n      0x00\n        /* \"#utility.yul\":11544:11553   */\n      dup6\n        /* \"#utility.yul\":11540:11557   */\n      add\n        /* \"#utility.yul\":11527:11558   */\n      calldataload\n        /* \"#utility.yul\":11585:11603   */\n      0xffffffffffffffff\n        /* \"#utility.yul\":11577:11583   */\n      dup2\n        /* \"#utility.yul\":11574:11604   */\n      gt\n        /* \"#utility.yul\":11571:11688   */\n      iszero\n      tag_627\n      jumpi\n        /* \"#utility.yul\":11607:11686   */\n      tag_628\n      tag_416\n      jump\t// in\n    tag_628:\n        /* \"#utility.yul\":11571:11688   */\n    tag_627:\n        /* \"#utility.yul\":11712:11775   */\n      tag_629\n        /* \"#utility.yul\":11767:11774   */\n      dup8\n        /* \"#utility.yul\":11758:11764   */\n      dup3\n        /* \"#utility.yul\":11747:11756   */\n      dup9\n        /* \"#utility.yul\":11743:11765   */\n      add\n        /* \"#utility.yul\":11712:11775   */\n      tag_446\n      jump\t// in\n    tag_629:\n        /* \"#utility.yul\":11702:11775   */\n      swap5\n      pop\n        /* \"#utility.yul\":11498:11785   */\n      pop\n        /* \"#utility.yul\":11824:11826   */\n      0x20\n        /* \"#utility.yul\":11850:11903   */\n      tag_630\n        /* \"#utility.yul\":11895:11902   */\n      dup8\n        /* \"#utility.yul\":11886:11892   */\n      dup3\n        /* \"#utility.yul\":11875:11884   */\n      dup9\n        /* \"#utility.yul\":11871:11893   */\n      add\n        /* \"#utility.yul\":11850:11903   */\n      tag_448\n      jump\t// in\n    tag_630:\n        /* \"#utility.yul\":11840:11903   */\n      swap4\n      pop\n        /* \"#utility.yul\":11795:11913   */\n      pop\n        /* \"#utility.yul\":11980:11982   */\n      0x40\n        /* \"#utility.yul\":11969:11978   */\n      dup6\n        /* \"#utility.yul\":11965:11983   */\n      add\n        /* \"#utility.yul\":11952:11984   */\n      calldataload\n        /* \"#utility.yul\":12011:12029   */\n      0xffffffffffffffff\n        /* \"#utility.yul\":12003:12009   */\n      dup2\n        /* \"#utility.yul\":12000:12030   */\n      gt\n        /* \"#utility.yul\":11997:12114   */\n      iszero\n      tag_631\n      jumpi\n        /* \"#utility.yul\":12033:12112   */\n      tag_632\n      tag_416\n      jump\t// in\n    tag_632:\n        /* \"#utility.yul\":11997:12114   */\n    tag_631:\n        /* \"#utility.yul\":12138:12226   */\n      tag_633\n        /* \"#utility.yul\":12218:12225   */\n      dup8\n        /* \"#utility.yul\":12209:12215   */\n      dup3\n        /* \"#utility.yul\":12198:12207   */\n      dup9\n        /* \"#utility.yul\":12194:12216   */\n      add\n        /* \"#utility.yul\":12138:12226   */\n      tag_452\n      jump\t// in\n    tag_633:\n        /* \"#utility.yul\":12128:12226   */\n      swap3\n      pop\n        /* \"#utility.yul\":11923:12236   */\n      pop\n        /* \"#utility.yul\":12275:12277   */\n      0x60\n        /* \"#utility.yul\":12301:12354   */\n      tag_634\n        /* \"#utility.yul\":12346:12353   */\n      dup8\n        /* \"#utility.yul\":12337:12343   */\n      dup3\n        /* \"#utility.yul\":12326:12335   */\n      dup9\n        /* \"#utility.yul\":12322:12344   */\n      add\n        /* \"#utility.yul\":12301:12354   */\n      tag_425\n      jump\t// in\n    tag_634:\n        /* \"#utility.yul\":12291:12354   */\n      swap2\n      pop\n        /* \"#utility.yul\":12246:12364   */\n      pop\n        /* \"#utility.yul\":11196:12371   */\n      swap3\n      swap6\n      swap2\n      swap5\n      pop\n      swap3\n      pop\n      jump\t// out\n        /* \"#utility.yul\":12377:13031   */\n    tag_87:\n        /* \"#utility.yul\":12455:12461   */\n      0x00\n        /* \"#utility.yul\":12463:12469   */\n      dup1\n        /* \"#utility.yul\":12512:12514   */\n      0x40\n        /* \"#utility.yul\":12500:12509   */\n      dup4\n        /* \"#utility.yul\":12491:12498   */\n      dup6\n        /* \"#utility.yul\":12487:12510   */\n      sub\n        /* \"#utility.yul\":12483:12515   */\n      slt\n        /* \"#utility.yul\":12480:12599   */\n      iszero\n      tag_636\n      jumpi\n        /* \"#utility.yul\":12518:12597   */\n      tag_637\n      tag_415\n      jump\t// in\n    tag_637:\n        /* \"#utility.yul\":12480:12599   */\n    tag_636:\n        /* \"#utility.yul\":12638:12639   */\n      0x00\n        /* \"#utility.yul\":12663:12716   */\n      tag_638\n        /* \"#utility.yul\":12708:12715   */\n      dup6\n        /* \"#utility.yul\":12699:12705   */\n      dup3\n        /* \"#utility.yul\":12688:12697   */\n      dup7\n        /* \"#utility.yul\":12684:12706   */\n      add\n        /* \"#utility.yul\":12663:12716   */\n      tag_425\n      jump\t// in\n    tag_638:\n        /* \"#utility.yul\":12653:12716   */\n      swap3\n      pop\n        /* \"#utility.yul\":12609:12726   */\n      pop\n        /* \"#utility.yul\":12793:12795   */\n      0x20\n        /* \"#utility.yul\":12782:12791   */\n      dup4\n        /* \"#utility.yul\":12778:12796   */\n      add\n        /* \"#utility.yul\":12765:12797   */\n      calldataload\n        /* \"#utility.yul\":12824:12842   */\n      0xffffffffffffffff\n        /* \"#utility.yul\":12816:12822   */\n      dup2\n        /* \"#utility.yul\":12813:12843   */\n      gt\n        /* \"#utility.yul\":12810:12927   */\n      iszero\n      tag_639\n      jumpi\n        /* \"#utility.yul\":12846:12925   */\n      tag_640\n      tag_416\n      jump\t// in\n    tag_640:\n        /* \"#utility.yul\":12810:12927   */\n    tag_639:\n        /* \"#utility.yul\":12951:13014   */\n      tag_641\n        /* \"#utility.yul\":13006:13013   */\n      dup6\n        /* \"#utility.yul\":12997:13003   */\n      dup3\n        /* \"#utility.yul\":12986:12995   */\n      dup7\n        /* \"#utility.yul\":12982:13004   */\n      add\n        /* \"#utility.yul\":12951:13014   */\n      tag_446\n      jump\t// in\n    tag_641:\n        /* \"#utility.yul\":12941:13014   */\n      swap2\n      pop\n        /* \"#utility.yul\":12736:13024   */\n      pop\n        /* \"#utility.yul\":12377:13031   */\n      swap3\n      pop\n      swap3\n      swap1\n      pop\n      jump\t// out\n        /* \"#utility.yul\":13037:13546   */\n    tag_115:\n        /* \"#utility.yul\":13106:13112   */\n      0x00\n        /* \"#utility.yul\":13155:13157   */\n      0x20\n        /* \"#utility.yul\":13143:13152   */\n      dup3\n        /* \"#utility.yul\":13134:13141   */\n      dup5\n        /* \"#utility.yul\":13130:13153   */\n      sub\n        /* \"#utility.yul\":13126:13158   */\n      slt\n        /* \"#utility.yul\":13123:13242   */\n      iszero\n      tag_643\n      jumpi\n        /* \"#utility.yul\":13161:13240   */\n      tag_644\n      tag_415\n      jump\t// in\n    tag_644:\n        /* \"#utility.yul\":13123:13242   */\n    tag_643:\n        /* \"#utility.yul\":13309:13310   */\n      0x00\n        /* \"#utility.yul\":13298:13307   */\n      dup3\n        /* \"#utility.yul\":13294:13311   */\n      add\n        /* \"#utility.yul\":13281:13312   */\n      calldataload\n        /* \"#utility.yul\":13339:13357   */\n      0xffffffffffffffff\n        /* \"#utility.yul\":13331:13337   */\n      dup2\n        /* \"#utility.yul\":13328:13358   */\n      gt\n        /* \"#utility.yul\":13325:13442   */\n      iszero\n      tag_645\n      jumpi\n        /* \"#utility.yul\":13361:13440   */\n      tag_646\n      tag_416\n      jump\t// in\n    tag_646:\n        /* \"#utility.yul\":13325:13442   */\n    tag_645:\n        /* \"#utility.yul\":13466:13529   */\n      tag_647\n        /* \"#utility.yul\":13521:13528   */\n      dup5\n        /* \"#utility.yul\":13512:13518   */\n      dup3\n        /* \"#utility.yul\":13501:13510   */\n      dup6\n        /* \"#utility.yul\":13497:13519   */\n      add\n        /* \"#utility.yul\":13466:13529   */\n      tag_446\n      jump\t// in\n    tag_647:\n        /* \"#utility.yul\":13456:13529   */\n      swap2\n      pop\n        /* \"#utility.yul\":13252:13539   */\n      pop\n        /* \"#utility.yul\":13037:13546   */\n      swap3\n      swap2\n      pop\n      pop\n      jump\t// out\n        /* \"#utility.yul\":13552:14026   */\n    tag_122:\n        /* \"#utility.yul\":13620:13626   */\n      0x00\n        /* \"#utility.yul\":13628:13634   */\n      dup1\n        /* \"#utility.yul\":13677:13679   */\n      0x40\n        /* \"#utility.yul\":13665:13674   */\n      dup4\n        /* \"#utility.yul\":13656:13663   */\n      dup6\n        /* \"#utility.yul\":13652:13675   */\n      sub\n        /* \"#utility.yul\":13648:13680   */\n      slt\n        /* \"#utility.yul\":13645:13764   */\n      iszero\n      tag_649\n      jumpi\n        /* \"#utility.yul\":13683:13762   */\n      tag_650\n      tag_415\n      jump\t// in\n    tag_650:\n        /* \"#utility.yul\":13645:13764   */\n    tag_649:\n        /* \"#utility.yul\":13803:13804   */\n      0x00\n        /* \"#utility.yul\":13828:13881   */\n      tag_651\n        /* \"#utility.yul\":13873:13880   */\n      dup6\n        /* \"#utility.yul\":13864:13870   */\n      dup3\n        /* \"#utility.yul\":13853:13862   */\n      dup7\n        /* \"#utility.yul\":13849:13871   */\n      add\n        /* \"#utility.yul\":13828:13881   */\n      tag_425\n      jump\t// in\n    tag_651:\n        /* \"#utility.yul\":13818:13881   */\n      swap3\n      pop\n        /* \"#utility.yul\":13774:13891   */\n      pop\n        /* \"#utility.yul\":13930:13932   */\n      0x20\n        /* \"#utility.yul\":13956:14009   */\n      tag_652\n        /* \"#utility.yul\":14001:14008   */\n      dup6\n        /* \"#utility.yul\":13992:13998   */\n      dup3\n        /* \"#utility.yul\":13981:13990   */\n      dup7\n        /* \"#utility.yul\":13977:13999   */\n      add\n        /* \"#utility.yul\":13956:14009   */\n      tag_448\n      jump\t// in\n    tag_652:\n        /* \"#utility.yul\":13946:14009   */\n      swap2\n      pop\n        /* \"#utility.yul\":13901:14019   */\n      pop\n        /* \"#utility.yul\":13552:14026   */\n      swap3\n      pop\n      swap3\n      swap1\n      pop\n      jump\t// out\n        /* \"#utility.yul\":14032:14767   */\n    tag_125:\n        /* \"#utility.yul\":14249:14253   */\n      0x00\n        /* \"#utility.yul\":14287:14290   */\n      0x80\n        /* \"#utility.yul\":14276:14285   */\n      dup3\n        /* \"#utility.yul\":14272:14291   */\n      add\n        /* \"#utility.yul\":14264:14291   */\n      swap1\n      pop\n        /* \"#utility.yul\":14337:14346   */\n      dup2\n        /* \"#utility.yul\":14331:14335   */\n      dup2\n        /* \"#utility.yul\":14327:14347   */\n      sub\n        /* \"#utility.yul\":14323:14324   */\n      0x00\n        /* \"#utility.yul\":14312:14321   */\n      dup4\n        /* \"#utility.yul\":14308:14325   */\n      add\n        /* \"#utility.yul\":14301:14348   */\n      mstore\n        /* \"#utility.yul\":14365:14443   */\n      tag_654\n        /* \"#utility.yul\":14438:14442   */\n      dup2\n        /* \"#utility.yul\":14429:14435   */\n      dup8\n        /* \"#utility.yul\":14365:14443   */\n      tag_430\n      jump\t// in\n    tag_654:\n        /* \"#utility.yul\":14357:14443   */\n      swap1\n      pop\n        /* \"#utility.yul\":14490:14499   */\n      dup2\n        /* \"#utility.yul\":14484:14488   */\n      dup2\n        /* \"#utility.yul\":14480:14500   */\n      sub\n        /* \"#utility.yul\":14475:14477   */\n      0x20\n        /* \"#utility.yul\":14464:14473   */\n      dup4\n        /* \"#utility.yul\":14460:14478   */\n      add\n        /* \"#utility.yul\":14453:14501   */\n      mstore\n        /* \"#utility.yul\":14518:14596   */\n      tag_655\n        /* \"#utility.yul\":14591:14595   */\n      dup2\n        /* \"#utility.yul\":14582:14588   */\n      dup7\n        /* \"#utility.yul\":14518:14596   */\n      tag_430\n      jump\t// in\n    tag_655:\n        /* \"#utility.yul\":14510:14596   */\n      swap1\n      pop\n        /* \"#utility.yul\":14606:14678   */\n      tag_656\n        /* \"#utility.yul\":14674:14676   */\n      0x40\n        /* \"#utility.yul\":14663:14672   */\n      dup4\n        /* \"#utility.yul\":14659:14677   */\n      add\n        /* \"#utility.yul\":14650:14656   */\n      dup6\n        /* \"#utility.yul\":14606:14678   */\n      tag_432\n      jump\t// in\n    tag_656:\n        /* \"#utility.yul\":14688:14760   */\n      tag_657\n        /* \"#utility.yul\":14756:14758   */\n      0x60\n        /* \"#utility.yul\":14745:14754   */\n      dup4\n        /* \"#utility.yul\":14741:14759   */\n      add\n        /* \"#utility.yul\":14732:14738   */\n      dup5\n        /* \"#utility.yul\":14688:14760   */\n      tag_433\n      jump\t// in\n    tag_657:\n        /* \"#utility.yul\":14032:14767   */\n      swap6\n      swap5\n      pop\n      pop\n      pop\n      pop\n      pop\n      jump\t// out\n        /* \"#utility.yul\":14773:15294   */\n    tag_139:\n        /* \"#utility.yul\":14936:14940   */\n      0x00\n        /* \"#utility.yul\":14974:14976   */\n      0x60\n        /* \"#utility.yul\":14963:14972   */\n      dup3\n        /* \"#utility.yul\":14959:14977   */\n      add\n        /* \"#utility.yul\":14951:14977   */\n      swap1\n      pop\n        /* \"#utility.yul\":15023:15032   */\n      dup2\n        /* \"#utility.yul\":15017:15021   */\n      dup2\n        /* \"#utility.yul\":15013:15033   */\n      sub\n        /* \"#utility.yul\":15009:15010   */\n      0x00\n        /* \"#utility.yul\":14998:15007   */\n      dup4\n        /* \"#utility.yul\":14994:15011   */\n      add\n        /* \"#utility.yul\":14987:15034   */\n      mstore\n        /* \"#utility.yul\":15051:15129   */\n      tag_659\n        /* \"#utility.yul\":15124:15128   */\n      dup2\n        /* \"#utility.yul\":15115:15121   */\n      dup7\n        /* \"#utility.yul\":15051:15129   */\n      tag_430\n      jump\t// in\n    tag_659:\n        /* \"#utility.yul\":15043:15129   */\n      swap1\n      pop\n        /* \"#utility.yul\":15139:15205   */\n      tag_660\n        /* \"#utility.yul\":15201:15203   */\n      0x20\n        /* \"#utility.yul\":15190:15199   */\n      dup4\n        /* \"#utility.yul\":15186:15204   */\n      add\n        /* \"#utility.yul\":15177:15183   */\n      dup6\n        /* \"#utility.yul\":15139:15205   */\n      tag_421\n      jump\t// in\n    tag_660:\n        /* \"#utility.yul\":15215:15287   */\n      tag_661\n        /* \"#utility.yul\":15283:15285   */\n      0x40\n        /* \"#utility.yul\":15272:15281   */\n      dup4\n        /* \"#utility.yul\":15268:15286   */\n      add\n        /* \"#utility.yul\":15259:15265   */\n      dup5\n        /* \"#utility.yul\":15215:15287   */\n      tag_432\n      jump\t// in\n    tag_661:\n        /* \"#utility.yul\":14773:15294   */\n      swap5\n      swap4\n      pop\n      pop\n      pop\n      pop\n      jump\t// out\n        /* \"#utility.yul\":15300:15480   */\n    tag_453:\n        /* \"#utility.yul\":15348:15425   */\n      0x4e487b7100000000000000000000000000000000000000000000000000000000\n        /* \"#utility.yul\":15345:15346   */\n      0x00\n        /* \"#utility.yul\":15338:15426   */\n      mstore\n        /* \"#utility.yul\":15445:15449   */\n      0x22\n        /* \"#utility.yul\":15442:15443   */\n      0x04\n        /* \"#utility.yul\":15435:15450   */\n      mstore\n        /* \"#utility.yul\":15469:15473   */\n      0x24\n        /* \"#utility.yul\":15466:15467   */\n      0x00\n        /* \"#utility.yul\":15459:15474   */\n      revert\n        /* \"#utility.yul\":15486:15806   */\n    tag_148:\n        /* \"#utility.yul\":15530:15536   */\n      0x00\n        /* \"#utility.yul\":15567:15568   */\n      0x02\n        /* \"#utility.yul\":15561:15565   */\n      dup3\n        /* \"#utility.yul\":15557:15569   */\n      div\n        /* \"#utility.yul\":15547:15569   */\n      swap1\n      pop\n        /* \"#utility.yul\":15614:15615   */\n      0x01\n        /* \"#utility.yul\":15608:15612   */\n      dup3\n        /* \"#utility.yul\":15604:15616   */\n      and\n        /* \"#utility.yul\":15635:15653   */\n      dup1\n        /* \"#utility.yul\":15625:15706   */\n      tag_664\n      jumpi\n        /* \"#utility.yul\":15691:15695   */\n      0x7f\n        /* \"#utility.yul\":15683:15689   */\n      dup3\n        /* \"#utility.yul\":15679:15696   */\n      and\n        /* \"#utility.yul\":15669:15696   */\n      swap2\n      pop\n        /* \"#utility.yul\":15625:15706   */\n    tag_664:\n        /* \"#utility.yul\":15753:15755   */\n      0x20\n        /* \"#utility.yul\":15745:15751   */\n      dup3\n        /* \"#utility.yul\":15742:15756   */\n      lt\n        /* \"#utility.yul\":15722:15740   */\n      dup2\n        /* \"#utility.yul\":15719:15757   */\n      sub\n        /* \"#utility.yul\":15716:15800   */\n      tag_665\n      jumpi\n        /* \"#utility.yul\":15772:15790   */\n      tag_666\n      tag_453\n      jump\t// in\n    tag_666:\n        /* \"#utility.yul\":15716:15800   */\n    tag_665:\n        /* \"#utility.yul\":15537:15806   */\n      pop\n        /* \"#utility.yul\":15486:15806   */\n      swap2\n      swap1\n      pop\n      jump\t// out\n        /* \"#utility.yul\":15812:15976   */\n    tag_454:\n        /* \"#utility.yul\":15952:15968   */\n      0x4e6f7420617574686f72697a6564000000000000000000000000000000000000\n        /* \"#utility.yul\":15948:15949   */\n      0x00\n        /* \"#utility.yul\":15940:15946   */\n      dup3\n        /* \"#utility.yul\":15936:15950   */\n      add\n        /* \"#utility.yul\":15929:15969   */\n      mstore\n        /* \"#utility.yul\":15812:15976   */\n      pop\n      jump\t// out\n        /* \"#utility.yul\":15982:16348   */\n    tag_455:\n        /* \"#utility.yul\":16124:16127   */\n      0x00\n        /* \"#utility.yul\":16145:16212   */\n      tag_669\n        /* \"#utility.yul\":16209:16211   */\n      0x0e\n        /* \"#utility.yul\":16204:16207   */\n      dup4\n        /* \"#utility.yul\":16145:16212   */\n      tag_427\n      jump\t// in\n    tag_669:\n        /* \"#utility.yul\":16138:16212   */\n      swap2\n      pop\n        /* \"#utility.yul\":16221:16314   */\n      tag_670\n        /* \"#utility.yul\":16310:16313   */\n      dup3\n        /* \"#utility.yul\":16221:16314   */\n      tag_454\n      jump\t// in\n    tag_670:\n        /* \"#utility.yul\":16339:16341   */\n      0x20\n        /* \"#utility.yul\":16334:16337   */\n      dup3\n        /* \"#utility.yul\":16330:16342   */\n      add\n        /* \"#utility.yul\":16323:16342   */\n      swap1\n      pop\n        /* \"#utility.yul\":15982:16348   */\n      swap2\n      swap1\n      pop\n      jump\t// out\n        /* \"#utility.yul\":16354:16773   */\n    tag_158:\n        /* \"#utility.yul\":16520:16524   */\n      0x00\n        /* \"#utility.yul\":16558:16560   */\n      0x20\n        /* \"#utility.yul\":16547:16556   */\n      dup3\n        /* \"#utility.yul\":16543:16561   */\n      add\n        /* \"#utility.yul\":16535:16561   */\n      swap1\n      pop\n        /* \"#utility.yul\":16607:16616   */\n      dup2\n        /* \"#utility.yul\":16601:16605   */\n      dup2\n        /* \"#utility.yul\":16597:16617   */\n      sub\n        /* \"#utility.yul\":16593:16594   */\n      0x00\n        /* \"#utility.yul\":16582:16591   */\n      dup4\n        /* \"#utility.yul\":16578:16595   */\n      add\n        /* \"#utility.yul\":16571:16618   */\n      mstore\n        /* \"#utility.yul\":16635:16766   */\n      tag_672\n        /* \"#utility.yul\":16761:16765   */\n      dup2\n        /* \"#utility.yul\":16635:16766   */\n      tag_455\n      jump\t// in\n    tag_672:\n        /* \"#utility.yul\":16627:16766   */\n      swap1\n      pop\n        /* \"#utility.yul\":16354:16773   */\n      swap2\n      swap1\n      pop\n      jump\t// out\n        /* \"#utility.yul\":16779:16951   */\n    tag_456:\n        /* \"#utility.yul\":16919:16943   */\n      0x50617469656e7420646f6573206e6f7420657869737400000000000000000000\n        /* \"#utility.yul\":16915:16916   */\n      0x00\n        /* \"#utility.yul\":16907:16913   */\n      dup3\n        /* \"#utility.yul\":16903:16917   */\n      add\n        /* \"#utility.yul\":16896:16944   */\n      mstore\n        /* \"#utility.yul\":16779:16951   */\n      pop\n      jump\t// out\n        /* \"#utility.yul\":16957:17323   */\n    tag_457:\n        /* \"#utility.yul\":17099:17102   */\n      0x00\n        /* \"#utility.yul\":17120:17187   */\n      tag_675\n        /* \"#utility.yul\":17184:17186   */\n      0x16\n        /* \"#utility.yul\":17179:17182   */\n      dup4\n        /* \"#utility.yul\":17120:17187   */\n      tag_427\n      jump\t// in\n    tag_675:\n        /* \"#utility.yul\":17113:17187   */\n      swap2\n      pop\n        /* \"#utility.yul\":17196:17289   */\n      tag_676\n        /* \"#utility.yul\":17285:17288   */\n      dup3\n        /* \"#utility.yul\":17196:17289   */\n      tag_456\n      jump\t// in\n    tag_676:\n        /* \"#utility.yul\":17314:17316   */\n      0x20\n        /* \"#utility.yul\":17309:17312   */\n      dup3\n        /* \"#utility.yul\":17305:17317   */\n      add\n        /* \"#utility.yul\":17298:17317   */\n      swap1\n      pop\n        /* \"#utility.yul\":16957:17323   */\n      swap2\n      swap1\n      pop\n      jump\t// out\n        /* \"#utility.yul\":17329:17748   */\n    tag_186:\n        /* \"#utility.yul\":17495:17499   */\n      0x00\n        /* \"#utility.yul\":17533:17535   */\n      0x20\n        /* \"#utility.yul\":17522:17531   */\n      dup3\n        /* \"#utility.yul\":17518:17536   */\n      add\n        /* \"#utility.yul\":17510:17536   */\n      swap1\n      pop\n        /* \"#utility.yul\":17582:17591   */\n      dup2\n        /* \"#utility.yul\":17576:17580   */\n      dup2\n        /* \"#utility.yul\":17572:17592   */\n      sub\n        /* \"#utility.yul\":17568:17569   */\n      0x00\n        /* \"#utility.yul\":17557:17566   */\n      dup4\n        /* \"#utility.yul\":17553:17570   */\n      add\n        /* \"#utility.yul\":17546:17593   */\n      mstore\n        /* \"#utility.yul\":17610:17741   */\n      tag_678\n        /* \"#utility.yul\":17736:17740   */\n      dup2\n        /* \"#utility.yul\":17610:17741   */\n      tag_457\n      jump\t// in\n    tag_678:\n        /* \"#utility.yul\":17602:17741   */\n      swap1\n      pop\n        /* \"#utility.yul\":17329:17748   */\n      swap2\n      swap1\n      pop\n      jump\t// out\n        /* \"#utility.yul\":17754:17920   */\n    tag_458:\n        /* \"#utility.yul\":17894:17912   */\n      0x4e6f20636f6e73656e7420676976656e00000000000000000000000000000000\n        /* \"#utility.yul\":17890:17891   */\n      0x00\n        /* \"#utility.yul\":17882:17888   */\n      dup3\n        /* \"#utility.yul\":17878:17892   */\n      add\n        /* \"#utility.yul\":17871:17913   */\n      mstore\n        /* \"#utility.yul\":17754:17920   */\n      pop\n      jump\t// out\n        /* \"#utility.yul\":17926:18292   */\n    tag_459:\n        /* \"#utility.yul\":18068:18071   */\n      0x00\n        /* \"#utility.yul\":18089:18156   */\n      tag_681\n        /* \"#utility.yul\":18153:18155   */\n      0x10\n        /* \"#utility.yul\":18148:18151   */\n      dup4\n        /* \"#utility.yul\":18089:18156   */\n      tag_427\n      jump\t// in\n    tag_681:\n        /* \"#utility.yul\":18082:18156   */\n      swap2\n      pop\n        /* \"#utility.yul\":18165:18258   */\n      tag_682\n        /* \"#utility.yul\":18254:18257   */\n      dup3\n        /* \"#utility.yul\":18165:18258   */\n      tag_458\n      jump\t// in\n    tag_682:\n        /* \"#utility.yul\":18283:18285   */\n      0x20\n        /* \"#utility.yul\":18278:18281   */\n      dup3\n        /* \"#utility.yul\":18274:18286   */\n      add\n        /* \"#utility.yul\":18267:18286   */\n      swap1\n      pop\n        /* \"#utility.yul\":17926:18292   */\n      swap2\n      swap1\n      pop\n      jump\t// out\n        /* \"#utility.yul\":18298:18717   */\n    tag_191:\n        /* \"#utility.yul\":18464:18468   */\n      0x00\n        /* \"#utility.yul\":18502:18504   */\n      0x20\n        /* \"#utility.yul\":18491:18500   */\n      dup3\n        /* \"#utility.yul\":18487:18505   */\n      add\n        /* \"#utility.yul\":18479:18505   */\n      swap1\n      pop\n        /* \"#utility.yul\":18551:18560   */\n      dup2\n        /* \"#utility.yul\":18545:18549   */\n      dup2\n        /* \"#utility.yul\":18541:18561   */\n      sub\n        /* \"#utility.yul\":18537:18538   */\n      0x00\n        /* \"#utility.yul\":18526:18535   */\n      dup4\n        /* \"#utility.yul\":18522:18539   */\n      add\n        /* \"#utility.yul\":18515:18562   */\n      mstore\n        /* \"#utility.yul\":18579:18710   */\n      tag_684\n        /* \"#utility.yul\":18705:18709   */\n      dup2\n        /* \"#utility.yul\":18579:18710   */\n      tag_459\n      jump\t// in\n    tag_684:\n        /* \"#utility.yul\":18571:18710   */\n      swap1\n      pop\n        /* \"#utility.yul\":18298:18717   */\n      swap2\n      swap1\n      pop\n      jump\t// out\n        /* \"#utility.yul\":18723:18864   */\n    tag_460:\n        /* \"#utility.yul\":18772:18776   */\n      0x00\n        /* \"#utility.yul\":18795:18798   */\n      dup2\n        /* \"#utility.yul\":18787:18798   */\n      swap1\n      pop\n        /* \"#utility.yul\":18818:18821   */\n      dup2\n        /* \"#utility.yul\":18815:18816   */\n      0x00\n        /* \"#utility.yul\":18808:18822   */\n      mstore\n        /* \"#utility.yul\":18852:18856   */\n      0x20\n        /* \"#utility.yul\":18849:18850   */\n      0x00\n        /* \"#utility.yul\":18839:18857   */\n      keccak256\n        /* \"#utility.yul\":18831:18857   */\n      swap1\n      pop\n        /* \"#utility.yul\":18723:18864   */\n      swap2\n      swap1\n      pop\n      jump\t// out\n        /* \"#utility.yul\":18870:18963   */\n    tag_461:\n        /* \"#utility.yul\":18907:18913   */\n      0x00\n        /* \"#utility.yul\":18954:18956   */\n      0x20\n        /* \"#utility.yul\":18949:18951   */\n      0x1f\n        /* \"#utility.yul\":18942:18947   */\n      dup4\n        /* \"#utility.yul\":18938:18952   */\n      add\n        /* \"#utility.yul\":18934:18957   */\n      div\n        /* \"#utility.yul\":18924:18957   */\n      swap1\n      pop\n        /* \"#utility.yul\":18870:18963   */\n      swap2\n      swap1\n      pop\n      jump\t// out\n        /* \"#utility.yul\":18969:19076   */\n    tag_462:\n        /* \"#utility.yul\":19013:19021   */\n      0x00\n        /* \"#utility.yul\":19063:19068   */\n      dup3\n        /* \"#utility.yul\":19057:19061   */\n      dup3\n        /* \"#utility.yul\":19053:19069   */\n      shl\n        /* \"#utility.yul\":19032:19069   */\n      swap1\n      pop\n        /* \"#utility.yul\":18969:19076   */\n      swap3\n      swap2\n      pop\n      pop\n      jump\t// out\n        /* \"#utility.yul\":19082:19475   */\n    tag_463:\n        /* \"#utility.yul\":19151:19157   */\n      0x00\n        /* \"#utility.yul\":19201:19202   */\n      0x08\n        /* \"#utility.yul\":19189:19199   */\n      dup4\n        /* \"#utility.yul\":19185:19203   */\n      mul\n        /* \"#utility.yul\":19224:19321   */\n      tag_689\n        /* \"#utility.yul\":19254:19320   */\n      0xffffffffffffffffffffffffffffffffffffffffffffffffffffffffffffffff\n        /* \"#utility.yul\":19243:19252   */\n      dup3\n        /* \"#utility.yul\":19224:19321   */\n      tag_462\n      jump\t// in\n    tag_689:\n        /* \"#utility.yul\":19342:19381   */\n      tag_690\n        /* \"#utility.yul\":19372:19380   */\n      dup7\n        /* \"#utility.yul\":19361:19370   */\n      dup4\n        /* \"#utility.yul\":19342:19381   */\n      tag_462\n      jump\t// in\n    tag_690:\n        /* \"#utility.yul\":19330:19381   */\n      swap6\n      pop\n        /* \"#utility.yul\":19414:19418   */\n      dup1\n        /* \"#utility.yul\":19410:19419   */\n      not\n        /* \"#utility.yul\":19403:19408   */\n      dup5\n        /* \"#utility.yul\":19399:19420   */\n      and\n        /* \"#utility.yul\":19390:19420   */\n      swap4\n      pop\n        /* \"#utility.yul\":19463:19467   */\n      dup1\n        /* \"#utility.yul\":19453:19461   */\n      dup7\n        /* \"#utility.yul\":19449:19468   */\n      and\n        /* \"#utility.yul\":19442:19447   */\n      dup5\n        /* \"#utility.yul\":19439:19469   */\n      or\n        /* \"#utility.yul\":19429:19469   */\n      swap3\n      pop\n        /* \"#utility.yul\":19158:19475   */\n      pop\n      pop\n        /* \"#utility.yul\":19082:19475   */\n      swap4\n      swap3\n      pop\n      pop\n      pop\n      jump\t// out\n        /* \"#utility.yul\":19481:19541   */\n    tag_464:\n        /* \"#utility.yul\":19509:19512   */\n      0x00\n        /* \"#utility.yul\":19530:19535   */\n      dup2\n        /* \"#utility.yul\":19523:19535   */\n      swap1\n      pop\n        /* \"#utility.yul\":19481:19541   */\n      swap2\n      swap1\n      pop\n      jump\t// out\n        /* \"#utility.yul\":19547:19689   */\n    tag_465:\n        /* \"#utility.yul\":19597:19606   */\n      0x00\n        /* \"#utility.yul\":19630:19683   */\n      tag_693\n        /* \"#utility.yul\":19648:19682   */\n      tag_694\n        /* \"#utility.yul\":19657:19681   */\n      tag_695\n        /* \"#utility.yul\":19675:19680   */\n      dup5\n        /* \"#utility.yul\":19657:19681   */\n      tag_431\n      jump\t// in\n    tag_695:\n        /* \"#utility.yul\":19648:19682   */\n      tag_464\n      jump\t// in\n    tag_694:\n        /* \"#utility.yul\":19630:19683   */\n      tag_431\n      jump\t// in\n    tag_693:\n        /* \"#utility.yul\":19617:19683   */\n      swap1\n      pop\n        /* \"#utility.yul\":19547:19689   */\n      swap2\n      swap1\n      pop\n      jump\t// out\n        /* \"#utility.yul\":19695:19770   */\n    tag_466:\n        /* \"#utility.yul\":19738:19741   */\n      0x00\n        /* \"#utility.yul\":19759:19764   */\n      dup2\n        /* \"#utility.yul\":19752:19764   */\n      swap1\n      pop\n        /* \"#utility.yul\":19695:19770   */\n      swap2\n      swap1\n      pop\n      jump\t// out\n        /* \"#utility.yul\":19776:20045   */\n    tag_467:\n        /* \"#utility.yul\":19886:19925   */\n      tag_698\n        /* \"#utility.yul\":19917:19924   */\n      dup4\n        /* \"#utility.yul\":19886:19925   */\n      tag_465\n      jump\t// in\n    tag_698:\n        /* \"#utility.yul\":19947:20038   */\n      tag_699\n        /* \"#utility.yul\":19996:20037   */\n      tag_700\n        /* \"#utility.yul\":20020:20036   */\n      dup3\n        /* \"#utility.yul\":19996:20037   */\n      tag_466\n      jump\t// in\n    tag_700:\n        /* \"#utility.yul\":19988:19994   */\n      dup5\n        /* \"#utility.yul\":19981:19985   */\n      dup5\n        /* \"#utility.yul\":19975:19986   */\n      sload\n        /* \"#utility.yul\":19947:20038   */\n      tag_463\n      jump\t// in\n    tag_699:\n        /* \"#utility.yul\":19941:19945   */\n      dup3\n        /* \"#utility.yul\":19934:20039   */\n      sstore\n        /* \"#utility.yul\":19852:20045   */\n      pop\n        /* \"#utility.yul\":19776:20045   */\n      pop\n      pop\n      pop\n      jump\t// out\n        /* \"#utility.yul\":20051:20124   */\n    tag_468:\n        /* \"#utility.yul\":20096:20099   */\n      0x00\n        /* \"#utility.yul\":20051:20124   */\n      swap1\n      jump\t// out\n        /* \"#utility.yul\":20130:20319   */\n    tag_469:\n        /* \"#utility.yul\":20207:20239   */\n      tag_703\n      tag_468\n      jump\t// in\n    tag_703:\n        /* \"#utility.yul\":20248:20313   */\n      tag_704\n        /* \"#utility.yul\":20306:20312   */\n      dup2\n        /* \"#utility.yul\":20298:20304   */\n      dup5\n        /* \"#utility.yul\":20292:20296   */\n      dup5\n        /* \"#utility.yul\":20248:20313   */\n      tag_467\n      jump\t// in\n    tag_704:\n        /* \"#utility.yul\":20183:20319   */\n      pop\n        /* \"#utility.yul\":20130:20319   */\n      pop\n      pop\n      jump\t// out\n        /* \"#utility.yul\":20325:20511   */\n    tag_470:\n        /* \"#utility.yul\":20385:20505   */\n    tag_706:\n        /* \"#utility.yul\":20402:20405   */\n      dup2\n        /* \"#utility.yul\":20395:20400   */\n      dup2\n        /* \"#utility.yul\":20392:20406   */\n      lt\n        /* \"#utility.yul\":20385:20505   */\n      iszero\n      tag_708\n      jumpi\n        /* \"#utility.yul\":20456:20495   */\n      tag_709\n        /* \"#utility.yul\":20493:20494   */\n      0x00\n        /* \"#utility.yul\":20486:20491   */\n      dup3\n        /* \"#utility.yul\":20456:20495   */\n      tag_469\n      jump\t// in\n    tag_709:\n        /* \"#utility.yul\":20429:20430   */\n      0x01\n        /* \"#utility.yul\":20422:20427   */\n      dup2\n        /* \"#utility.yul\":20418:20431   */\n      add\n        /* \"#utility.yul\":20409:20431   */\n      swap1\n      pop\n        /* \"#utility.yul\":20385:20505   */\n      jump(tag_706)\n    tag_708:\n        /* \"#utility.yul\":20325:20511   */\n      pop\n      pop\n      jump\t// out\n        /* \"#utility.yul\":20517:21060   */\n    tag_471:\n        /* \"#utility.yul\":20618:20620   */\n      0x1f\n        /* \"#utility.yul\":20613:20616   */\n      dup3\n        /* \"#utility.yul\":20610:20621   */\n      gt\n        /* \"#utility.yul\":20607:21053   */\n      iszero\n      tag_711\n      jumpi\n        /* \"#utility.yul\":20652:20690   */\n      tag_712\n        /* \"#utility.yul\":20684:20689   */\n      dup2\n        /* \"#utility.yul\":20652:20690   */\n      tag_460\n      jump\t// in\n    tag_712:\n        /* \"#utility.yul\":20736:20765   */\n      tag_713\n        /* \"#utility.yul\":20754:20764   */\n      dup5\n        /* \"#utility.yul\":20736:20765   */\n      tag_461\n      jump\t// in\n    tag_713:\n        /* \"#utility.yul\":20726:20734   */\n      dup2\n        /* \"#utility.yul\":20722:20766   */\n      add\n        /* \"#utility.yul\":20919:20921   */\n      0x20\n        /* \"#utility.yul\":20907:20917   */\n      dup6\n        /* \"#utility.yul\":20904:20922   */\n      lt\n        /* \"#utility.yul\":20901:20950   */\n      iszero\n      tag_714\n      jumpi\n        /* \"#utility.yul\":20940:20948   */\n      dup2\n        /* \"#utility.yul\":20925:20948   */\n      swap1\n      pop\n        /* \"#utility.yul\":20901:20950   */\n    tag_714:\n        /* \"#utility.yul\":20963:21043   */\n      tag_715\n        /* \"#utility.yul\":21019:21041   */\n      tag_716\n        /* \"#utility.yul\":21037:21040   */\n      dup6\n        /* \"#utility.yul\":21019:21041   */\n      tag_461\n      jump\t// in\n    tag_716:\n        /* \"#utility.yul\":21009:21017   */\n      dup4\n        /* \"#utility.yul\":21005:21042   */\n      add\n        /* \"#utility.yul\":20992:21003   */\n      dup3\n        /* \"#utility.yul\":20963:21043   */\n      tag_470\n      jump\t// in\n    tag_715:\n        /* \"#utility.yul\":20622:21053   */\n      pop\n      pop\n        /* \"#utility.yul\":20607:21053   */\n    tag_711:\n        /* \"#utility.yul\":20517:21060   */\n      pop\n      pop\n      pop\n      jump\t// out\n        /* \"#utility.yul\":21066:21183   */\n    tag_472:\n        /* \"#utility.yul\":21120:21128   */\n      0x00\n        /* \"#utility.yul\":21170:21175   */\n      dup3\n        /* \"#utility.yul\":21164:21168   */\n      dup3\n        /* \"#utility.yul\":21160:21176   */\n      shr\n        /* \"#utility.yul\":21139:21176   */\n      swap1\n      pop\n        /* \"#utility.yul\":21066:21183   */\n      swap3\n      swap2\n      pop\n      pop\n      jump\t// out\n        /* \"#utility.yul\":21189:21358   */\n    tag_473:\n        /* \"#utility.yul\":21233:21239   */\n      0x00\n        /* \"#utility.yul\":21266:21317   */\n      tag_719\n        /* \"#utility.yul\":21314:21315   */\n      0x00\n        /* \"#utility.yul\":21310:21316   */\n      not\n        /* \"#utility.yul\":21302:21307   */\n      dup5\n        /* \"#utility.yul\":21299:21300   */\n      0x08\n        /* \"#utility.yul\":21295:21308   */\n      mul\n        /* \"#utility.yul\":21266:21317   */\n      tag_472\n      jump\t// in\n    tag_719:\n        /* \"#utility.yul\":21262:21318   */\n      not\n        /* \"#utility.yul\":21347:21351   */\n      dup1\n        /* \"#utility.yul\":21341:21345   */\n      dup4\n        /* \"#utility.yul\":21337:21352   */\n      and\n        /* \"#utility.yul\":21327:21352   */\n      swap2\n      pop\n        /* \"#utility.yul\":21240:21358   */\n      pop\n        /* \"#utility.yul\":21189:21358   */\n      swap3\n      swap2\n      pop\n      pop\n      jump\t// out\n        /* \"#utility.yul\":21363:21658   */\n    tag_474:\n        /* \"#utility.yul\":21439:21443   */\n      0x00\n        /* \"#utility.yul\":21585:21614   */\n      tag_721\n        /* \"#utility.yul\":21610:21613   */\n      dup4\n        /* \"#utility.yul\":21604:21608   */\n      dup4\n        /* \"#utility.yul\":21585:21614   */\n      tag_473\n      jump\t// in\n    tag_721:\n        /* \"#utility.yul\":21577:21614   */\n      swap2\n      pop\n        /* \"#utility.yul\":21647:21650   */\n      dup3\n        /* \"#utility.yul\":21644:21645   */\n      0x02\n        /* \"#utility.yul\":21640:21651   */\n      mul\n        /* \"#utility.yul\":21634:21638   */\n      dup3\n        /* \"#utility.yul\":21631:21652   */\n      or\n        /* \"#utility.yul\":21623:21652   */\n      swap1\n      pop\n        /* \"#utility.yul\":21363:21658   */\n      swap3\n      swap2\n      pop\n      pop\n      jump\t// out\n        /* \"#utility.yul\":21663:23058   */\n    tag_193:\n        /* \"#utility.yul\":21780:21817   */\n      tag_723\n        /* \"#utility.yul\":21813:21816   */\n      dup3\n        /* \"#utility.yul\":21780:21817   */\n      tag_426\n      jump\t// in\n    tag_723:\n        /* \"#utility.yul\":21882:21900   */\n      0xffffffffffffffff\n        /* \"#utility.yul\":21874:21880   */\n      dup2\n        /* \"#utility.yul\":21871:21901   */\n      gt\n        /* \"#utility.yul\":21868:21924   */\n      iszero\n      tag_724\n      jumpi\n        /* \"#utility.yul\":21904:21922   */\n      tag_725\n      tag_440\n      jump\t// in\n    tag_725:\n        /* \"#utility.yul\":21868:21924   */\n    tag_724:\n        /* \"#utility.yul\":21948:21986   */\n      tag_726\n        /* \"#utility.yul\":21980:21984   */\n      dup3\n        /* \"#utility.yul\":21974:21985   */\n      sload\n        /* \"#utility.yul\":21948:21986   */\n      tag_148\n      jump\t// in\n    tag_726:\n        /* \"#utility.yul\":22033:22100   */\n      tag_727\n        /* \"#utility.yul\":22093:22099   */\n      dup3\n        /* \"#utility.yul\":22085:22091   */\n      dup3\n        /* \"#utility.yul\":22079:22083   */\n      dup6\n        /* \"#utility.yul\":22033:22100   */\n      tag_471\n      jump\t// in\n    tag_727:\n        /* \"#utility.yul\":22127:22128   */\n      0x00\n        /* \"#utility.yul\":22151:22155   */\n      0x20\n        /* \"#utility.yul\":22138:22155   */\n      swap1\n      pop\n        /* \"#utility.yul\":22183:22185   */\n      0x1f\n        /* \"#utility.yul\":22175:22181   */\n      dup4\n        /* \"#utility.yul\":22172:22186   */\n      gt\n        /* \"#utility.yul\":22200:22201   */\n      0x01\n        /* \"#utility.yul\":22195:22813   */\n      dup2\n      eq\n      tag_729\n      jumpi\n        /* \"#utility.yul\":22857:22858   */\n      0x00\n        /* \"#utility.yul\":22874:22880   */\n      dup5\n        /* \"#utility.yul\":22871:22948   */\n      iszero\n      tag_730\n      jumpi\n        /* \"#utility.yul\":22923:22932   */\n      dup3\n        /* \"#utility.yul\":22918:22921   */\n      dup8\n        /* \"#utility.yul\":22914:22933   */\n      add\n        /* \"#utility.yul\":22908:22934   */\n      mload\n        /* \"#utility.yul\":22899:22934   */\n      swap1\n      pop\n        /* \"#utility.yul\":22871:22948   */\n    tag_730:\n        /* \"#utility.yul\":22974:23041   */\n      tag_731\n        /* \"#utility.yul\":23034:23040   */\n      dup6\n        /* \"#utility.yul\":23027:23032   */\n      dup3\n        /* \"#utility.yul\":22974:23041   */\n      tag_474\n      jump\t// in\n    tag_731:\n        /* \"#utility.yul\":22968:22972   */\n      dup7\n        /* \"#utility.yul\":22961:23042   */\n      sstore\n        /* \"#utility.yul\":22830:23052   */\n      pop\n        /* \"#utility.yul\":22165:23052   */\n      jump(tag_728)\n        /* \"#utility.yul\":22195:22813   */\n    tag_729:\n        /* \"#utility.yul\":22247:22251   */\n      0x1f\n        /* \"#utility.yul\":22243:22252   */\n      not\n        /* \"#utility.yul\":22235:22241   */\n      dup5\n        /* \"#utility.yul\":22231:22253   */\n      and\n        /* \"#utility.yul\":22281:22318   */\n      tag_732\n        /* \"#utility.yul\":22313:22317   */\n      dup7\n        /* \"#utility.yul\":22281:22318   */\n      tag_460\n      jump\t// in\n    tag_732:\n        /* \"#utility.yul\":22340:22341   */\n      0x00\n        /* \"#utility.yul\":22354:22562   */\n    tag_733:\n        /* \"#utility.yul\":22368:22375   */\n      dup3\n        /* \"#utility.yul\":22365:22366   */\n      dup2\n        /* \"#utility.yul\":22362:22376   */\n      lt\n        /* \"#utility.yul\":22354:22562   */\n      iszero\n      tag_735\n      jumpi\n        /* \"#utility.yul\":22447:22456   */\n      dup5\n        /* \"#utility.yul\":22442:22445   */\n      dup10\n        /* \"#utility.yul\":22438:22457   */\n      add\n        /* \"#utility.yul\":22432:22458   */\n      mload\n        /* \"#utility.yul\":22424:22430   */\n      dup3\n        /* \"#utility.yul\":22417:22459   */\n      sstore\n        /* \"#utility.yul\":22498:22499   */\n      0x01\n        /* \"#utility.yul\":22490:22496   */\n      dup3\n        /* \"#utility.yul\":22486:22500   */\n      add\n        /* \"#utility.yul\":22476:22500   */\n      swap2\n      pop\n        /* \"#utility.yul\":22545:22547   */\n      0x20\n        /* \"#utility.yul\":22534:22543   */\n      dup6\n        /* \"#utility.yul\":22530:22548   */\n      add\n        /* \"#utility.yul\":22517:22548   */\n      swap5\n      pop\n        /* \"#utility.yul\":22391:22395   */\n      0x20\n        /* \"#utility.yul\":22388:22389   */\n      dup2\n        /* \"#utility.yul\":22384:22396   */\n      add\n        /* \"#utility.yul\":22379:22396   */\n      swap1\n      pop\n        /* \"#utility.yul\":22354:22562   */\n      jump(tag_733)\n    tag_735:\n        /* \"#utility.yul\":22590:22596   */\n      dup7\n        /* \"#utility.yul\":22581:22588   */\n      dup4\n        /* \"#utility.yul\":22578:22597   */\n      lt\n        /* \"#utility.yul\":22575:22754   */\n      iszero\n      tag_736\n      jumpi\n        /* \"#utility.yul\":22648:22657   */\n      dup5\n        /* \"#utility.yul\":22643:22646   */\n      dup10\n        /* \"#utility.yul\":22639:22658   */\n      add\n        /* \"#utility.yul\":22633:22659   */\n      mload\n        /* \"#utility.yul\":22691:22739   */\n      tag_737\n        /* \"#utility.yul\":22733:22737   */\n      0x1f\n        /* \"#utility.yul\":22725:22731   */\n      dup10\n        /* \"#utility.yul\":22721:22738   */\n      and\n        /* \"#utility.yul\":22710:22719   */\n      dup3\n        /* \"#utility.yul\":22691:22739   */\n      tag_473\n      jump\t// in\n    tag_737:\n        /* \"#utility.yul\":22683:22689   */\n      dup4\n        /* \"#utility.yul\":22676:22740   */\n      sstore\n        /* \"#utility.yul\":22598:22754   */\n      pop\n        /* \"#utility.yul\":22575:22754   */\n    tag_736:\n        /* \"#utility.yul\":22800:22801   */\n      0x01\n        /* \"#utility.yul\":22796:22797   */\n      0x02\n        /* \"#utility.yul\":22788:22794   */\n      dup9\n        /* \"#utility.yul\":22784:22798   */\n      mul\n        /* \"#utility.yul\":22780:22802   */\n      add\n        /* \"#utility.yul\":22774:22778   */\n      dup9\n        /* \"#utility.yul\":22767:22803   */\n      sstore\n        /* \"#utility.yul\":22202:22813   */\n      pop\n      pop\n      pop\n        /* \"#utility.yul\":22165:23052   */\n    tag_728:\n      pop\n        /* \"#utility.yul\":21755:23058   */\n      pop\n      pop\n      pop\n        /* \"#utility.yul\":21663:23058   */\n      pop\n      pop\n      jump\t// out\n        /* \"#utility.yul\":23064:23244   */\n    tag_475:\n        /* \"#utility.yul\":23112:23189   */\n      0x4e487b7100000000000000000000000000000000000000000000000000000000\n        /* \"#utility.yul\":23109:23110   */\n      0x00\n        /* \"#utility.yul\":23102:23190   */\n      mstore\n        /* \"#utility.yul\":23209:23213   */\n      0x11\n        /* \"#utility.yul\":23206:23207   */\n      0x04\n        /* \"#utility.yul\":23199:23214   */\n      mstore\n        /* \"#utility.yul\":23233:23237   */\n      0x24\n        /* \"#utility.yul\":23230:23231   */\n      0x00\n        /* \"#utility.yul\":23223:23238   */\n      revert\n        /* \"#utility.yul\":23250:23483   */\n    tag_196:\n        /* \"#utility.yul\":23289:23292   */\n      0x00\n        /* \"#utility.yul\":23312:23336   */\n      tag_740\n        /* \"#utility.yul\":23330:23335   */\n      dup3\n        /* \"#utility.yul\":23312:23336   */\n      tag_431\n      jump\t// in\n    tag_740:\n        /* \"#utility.yul\":23303:23336   */\n      swap2\n      pop\n        /* \"#utility.yul\":23358:23424   */\n      0xffffffffffffffffffffffffffffffffffffffffffffffffffffffffffffffff\n        /* \"#utility.yul\":23351:23356   */\n      dup3\n        /* \"#utility.yul\":23348:23425   */\n      sub\n        /* \"#utility.yul\":23345:23448   */\n      tag_741\n      jumpi\n        /* \"#utility.yul\":23428:23446   */\n      tag_742\n      tag_475\n      jump\t// in\n    tag_742:\n        /* \"#utility.yul\":23345:23448   */\n    tag_741:\n        /* \"#utility.yul\":23475:23476   */\n      0x01\n        /* \"#utility.yul\":23468:23473   */\n      dup3\n        /* \"#utility.yul\":23464:23477   */\n      add\n        /* \"#utility.yul\":23457:23477   */\n      swap1\n      pop\n        /* \"#utility.yul\":23250:23483   */\n      swap2\n      swap1\n      pop\n      jump\t// out\n        /* \"#utility.yul\":23489:23802   */\n    tag_198:\n        /* \"#utility.yul\":23602:23606   */\n      0x00\n        /* \"#utility.yul\":23640:23642   */\n      0x20\n        /* \"#utility.yul\":23629:23638   */\n      dup3\n        /* \"#utility.yul\":23625:23643   */\n      add\n        /* \"#utility.yul\":23617:23643   */\n      swap1\n      pop\n        /* \"#utility.yul\":23689:23698   */\n      dup2\n        /* \"#utility.yul\":23683:23687   */\n      dup2\n        /* \"#utility.yul\":23679:23699   */\n      sub\n        /* \"#utility.yul\":23675:23676   */\n      0x00\n        /* \"#utility.yul\":23664:23673   */\n      dup4\n        /* \"#utility.yul\":23660:23677   */\n      add\n        /* \"#utility.yul\":23653:23700   */\n      mstore\n        /* \"#utility.yul\":23717:23795   */\n      tag_744\n        /* \"#utility.yul\":23790:23794   */\n      dup2\n        /* \"#utility.yul\":23781:23787   */\n      dup5\n        /* \"#utility.yul\":23717:23795   */\n      tag_430\n      jump\t// in\n    tag_744:\n        /* \"#utility.yul\":23709:23795   */\n      swap1\n      pop\n        /* \"#utility.yul\":23489:23802   */\n      swap3\n      swap2\n      pop\n      pop\n      jump\t// out\n        /* \"#utility.yul\":23808:23984   */\n    tag_476:\n        /* \"#utility.yul\":23948:23976   */\n      0x50617469656e7420616c72656164792072656769737465726564000000000000\n        /* \"#utility.yul\":23944:23945   */\n      0x00\n        /* \"#utility.yul\":23936:23942   */\n      dup3\n        /* \"#utility.yul\":23932:23946   */\n      add\n        /* \"#utility.yul\":23925:23977   */\n      mstore\n        /* \"#utility.yul\":23808:23984   */\n      pop\n      jump\t// out\n        /* \"#utility.yul\":23990:24356   */\n    tag_477:\n        /* \"#utility.yul\":24132:24135   */\n      0x00\n        /* \"#utility.yul\":24153:24220   */\n      tag_747\n        /* \"#utility.yul\":24217:24219   */\n      0x1a\n        /* \"#utility.yul\":24212:24215   */\n      dup4\n        /* \"#utility.yul\":24153:24220   */\n      tag_427\n      jump\t// in\n    tag_747:\n        /* \"#utility.yul\":24146:24220   */\n      swap2\n      pop\n        /* \"#utility.yul\":24229:24322   */\n      tag_748\n        /* \"#utility.yul\":24318:24321   */\n      dup3\n        /* \"#utility.yul\":24229:24322   */\n      tag_476\n      jump\t// in\n    tag_748:\n        /* \"#utility.yul\":24347:24349   */\n      0x20\n        /* \"#utility.yul\":24342:24345   */\n      dup3\n        /* \"#utility.yul\":24338:24350   */\n      add\n        /* \"#utility.yul\":24331:24350   */\n      swap1\n      pop\n        /* \"#utility.yul\":23990:24356   */\n      swap2\n      swap1\n      pop\n      jump\t// out\n        /* \"#utility.yul\":24362:24781   */\n    tag_205:\n        /* \"#utility.yul\":24528:24532   */\n      0x00\n        /* \"#utility.yul\":24566:24568   */\n      0x20\n        /* \"#utility.yul\":24555:24564   */\n      dup3\n        /* \"#utility.yul\":24551:24569   */\n      add\n        /* \"#utility.yul\":24543:24569   */\n      swap1\n      pop\n        /* \"#utility.yul\":24615:24624   */\n      dup2\n        /* \"#utility.yul\":24609:24613   */\n      dup2\n        /* \"#utility.yul\":24605:24625   */\n      sub\n        /* \"#utility.yul\":24601:24602   */\n      0x00\n        /* \"#utility.yul\":24590:24599   */\n      dup4\n        /* \"#utility.yul\":24586:24603   */\n      add\n        /* \"#utility.yul\":24579:24626   */\n      mstore\n        /* \"#utility.yul\":24643:24774   */\n      tag_750\n        /* \"#utility.yul\":24769:24773   */\n      dup2\n        /* \"#utility.yul\":24643:24774   */\n      tag_477\n      jump\t// in\n    tag_750:\n        /* \"#utility.yul\":24635:24774   */\n      swap1\n      pop\n        /* \"#utility.yul\":24362:24781   */\n      swap2\n      swap1\n      pop\n      jump\t// out\n        /* \"#utility.yul\":24787:24964   */\n    tag_478:\n        /* \"#utility.yul\":24927:24956   */\n      0x486f73706974616c20616c726561647920726567697374657265640000000000\n        /* \"#utility.yul\":24923:24924   */\n      0x00\n        /* \"#utility.yul\":24915:24921   */\n      dup3\n        /* \"#utility.yul\":24911:24925   */\n      add\n        /* \"#utility.yul\":24904:24957   */\n      mstore\n        /* \"#utility.yul\":24787:24964   */\n      pop\n      jump\t// out\n        /* \"#utility.yul\":24970:25336   */\n    tag_479:\n        /* \"#utility.yul\":25112:25115   */\n      0x00\n        /* \"#utility.yul\":25133:25200   */\n      tag_753\n        /* \"#utility.yul\":25197:25199   */\n      0x1b\n        /* \"#utility.yul\":25192:25195   */\n      dup4\n        /* \"#utility.yul\":25133:25200   */\n      tag_427\n      jump\t// in\n    tag_753:\n        /* \"#utility.yul\":25126:25200   */\n      swap2\n      pop\n        /* \"#utility.yul\":25209:25302   */\n      tag_754\n        /* \"#utility.yul\":25298:25301   */\n      dup3\n        /* \"#utility.yul\":25209:25302   */\n      tag_478\n      jump\t// in\n    tag_754:\n        /* \"#utility.yul\":25327:25329   */\n      0x20\n        /* \"#utility.yul\":25322:25325   */\n      dup3\n        /* \"#utility.yul\":25318:25330   */\n      add\n        /* \"#utility.yul\":25311:25330   */\n      swap1\n      pop\n        /* \"#utility.yul\":24970:25336   */\n      swap2\n      swap1\n      pop\n      jump\t// out\n        /* \"#utility.yul\":25342:25761   */\n    tag_221:\n        /* \"#utility.yul\":25508:25512   */\n      0x00\n        /* \"#utility.yul\":25546:25548   */\n      0x20\n        /* \"#utility.yul\":25535:25544   */\n      dup3\n        /* \"#utility.yul\":25531:25549   */\n      add\n        /* \"#utility.yul\":25523:25549   */\n      swap1\n      pop\n        /* \"#utility.yul\":25595:25604   */\n      dup2\n        /* \"#utility.yul\":25589:25593   */\n      dup2\n        /* \"#utility.yul\":25585:25605   */\n      sub\n        /* \"#utility.yul\":25581:25582   */\n      0x00\n        /* \"#utility.yul\":25570:25579   */\n      dup4\n        /* \"#utility.yul\":25566:25583   */\n      add\n        /* \"#utility.yul\":25559:25606   */\n      mstore\n        /* \"#utility.yul\":25623:25754   */\n      tag_756\n        /* \"#utility.yul\":25749:25753   */\n      dup2\n        /* \"#utility.yul\":25623:25754   */\n      tag_479\n      jump\t// in\n    tag_756:\n        /* \"#utility.yul\":25615:25754   */\n      swap1\n      pop\n        /* \"#utility.yul\":25342:25761   */\n      swap2\n      swap1\n      pop\n      jump\t// out\n        /* \"#utility.yul\":25767:25939   */\n    tag_480:\n        /* \"#utility.yul\":25907:25931   */\n      0x486f73706974616c206973206e6f742061637469766500000000000000000000\n        /* \"#utility.yul\":25903:25904   */\n      0x00\n        /* \"#utility.yul\":25895:25901   */\n      dup3\n        /* \"#utility.yul\":25891:25905   */\n      add\n        /* \"#utility.yul\":25884:25932   */\n      mstore\n        /* \"#utility.yul\":25767:25939   */\n      pop\n      jump\t// out\n        /* \"#utility.yul\":25945:26311   */\n    tag_481:\n        /* \"#utility.yul\":26087:26090   */\n      0x00\n        /* \"#utility.yul\":26108:26175   */\n      tag_759\n        /* \"#utility.yul\":26172:26174   */\n      0x16\n        /* \"#utility.yul\":26167:26170   */\n      dup4\n        /* \"#utility.yul\":26108:26175   */\n      tag_427\n      jump\t// in\n    tag_759:\n        /* \"#utility.yul\":26101:26175   */\n      swap2\n      pop\n        /* \"#utility.yul\":26184:26277   */\n      tag_760\n        /* \"#utility.yul\":26273:26276   */\n      dup3\n        /* \"#utility.yul\":26184:26277   */\n      tag_480\n      jump\t// in\n    tag_760:\n        /* \"#utility.yul\":26302:26304   */\n      0x20\n        /* \"#utility.yul\":26297:26300   */\n      dup3\n        /* \"#utility.yul\":26293:26305   */\n      add\n        /* \"#utility.yul\":26286:26305   */\n      swap1\n      pop\n        /* \"#utility.yul\":25945:26311   */\n      swap2\n      swap1\n      pop\n      jump\t// out\n        /* \"#utility.yul\":26317:26736   */\n    tag_240:\n        /* \"#utility.yul\":26483:26487   */\n      0x00\n        /* \"#utility.yul\":26521:26523   */\n      0x20\n        /* \"#utility.yul\":26510:26519   */\n      dup3\n        /* \"#utility.yul\":26506:26524   */\n      add\n        /* \"#utility.yul\":26498:26524   */\n      swap1\n      pop\n        /* \"#utility.yul\":26570:26579   */\n      dup2\n        /* \"#utility.yul\":26564:26568   */\n      dup2\n        /* \"#utility.yul\":26560:26580   */\n      sub\n        /* \"#utility.yul\":26556:26557   */\n      0x00\n        /* \"#utility.yul\":26545:26554   */\n      dup4\n        /* \"#utility.yul\":26541:26558   */\n      add\n        /* \"#utility.yul\":26534:26581   */\n      mstore\n        /* \"#utility.yul\":26598:26729   */\n      tag_762\n        /* \"#utility.yul\":26724:26728   */\n      dup2\n        /* \"#utility.yul\":26598:26729   */\n      tag_481\n      jump\t// in\n    tag_762:\n        /* \"#utility.yul\":26590:26729   */\n      swap1\n      pop\n        /* \"#utility.yul\":26317:26736   */\n      swap2\n      swap1\n      pop\n      jump\t// out\n        /* \"#utility.yul\":26742:26933   */\n    tag_249:\n        /* \"#utility.yul\":26782:26785   */\n      0x00\n        /* \"#utility.yul\":26801:26821   */\n      tag_764\n        /* \"#utility.yul\":26819:26820   */\n      dup3\n        /* \"#utility.yul\":26801:26821   */\n      tag_431\n      jump\t// in\n    tag_764:\n        /* \"#utility.yul\":26796:26821   */\n      swap2\n      pop\n        /* \"#utility.yul\":26835:26855   */\n      tag_765\n        /* \"#utility.yul\":26853:26854   */\n      dup4\n        /* \"#utility.yul\":26835:26855   */\n      tag_431\n      jump\t// in\n    tag_765:\n        /* \"#utility.yul\":26830:26855   */\n      swap3\n      pop\n        /* \"#utility.yul\":26878:26879   */\n      dup3\n        /* \"#utility.yul\":26875:26876   */\n      dup3\n        /* \"#utility.yul\":26871:26880   */\n      add\n        /* \"#utility.yul\":26864:26880   */\n      swap1\n      pop\n        /* \"#utility.yul\":26899:26902   */\n      dup1\n        /* \"#utility.yul\":26896:26897   */\n      dup3\n        /* \"#utility.yul\":26893:26903   */\n      gt\n        /* \"#utility.yul\":26890:26926   */\n      iszero\n      tag_766\n      jumpi\n        /* \"#utility.yul\":26906:26924   */\n      tag_767\n      tag_475\n      jump\t// in\n    tag_767:\n        /* \"#utility.yul\":26890:26926   */\n    tag_766:\n        /* \"#utility.yul\":26742:26933   */\n      swap3\n      swap2\n      pop\n      pop\n      jump\t// out\n        /* \"#utility.yul\":26939:27024   */\n    tag_482:\n        /* \"#utility.yul\":26984:26991   */\n      0x00\n        /* \"#utility.yul\":27013:27018   */\n      dup2\n        /* \"#utility.yul\":27002:27018   */\n      swap1\n      pop\n        /* \"#utility.yul\":26939:27024   */\n      swap2\n      swap1\n      pop\n      jump\t// out\n        /* \"#utility.yul\":27030:27131   */\n    tag_483:\n        /* \"#utility.yul\":27066:27073   */\n      0x00\n        /* \"#utility.yul\":27106:27124   */\n      0xffffffffffffffff\n        /* \"#utility.yul\":27099:27104   */\n      dup3\n        /* \"#utility.yul\":27095:27125   */\n      and\n        /* \"#utility.yul\":27084:27125   */\n      swap1\n      pop\n        /* \"#utility.yul\":27030:27131   */\n      swap2\n      swap1\n      pop\n      jump\t// out\n        /* \"#utility.yul\":27137:27293   */\n    tag_484:\n        /* \"#utility.yul\":27194:27203   */\n      0x00\n        /* \"#utility.yul\":27227:27287   */\n      tag_771\n        /* \"#utility.yul\":27244:27286   */\n      tag_772\n        /* \"#utility.yul\":27253:27285   */\n      tag_773\n        /* \"#utility.yul\":27279:27284   */\n      dup5\n        /* \"#utility.yul\":27253:27285   */\n      tag_482\n      jump\t// in\n    tag_773:\n        /* \"#utility.yul\":27244:27286   */\n      tag_464\n      jump\t// in\n    tag_772:\n        /* \"#utility.yul\":27227:27287   */\n      tag_483\n      jump\t// in\n    tag_771:\n        /* \"#utility.yul\":27214:27287   */\n      swap1\n      pop\n        /* \"#utility.yul\":27137:27293   */\n      swap2\n      swap1\n      pop\n      jump\t// out\n        /* \"#utility.yul\":27299:27444   */\n    tag_485:\n        /* \"#utility.yul\":27393:27437   */\n      tag_775\n        /* \"#utility.yul\":27431:27436   */\n      dup2\n        /* \"#utility.yul\":27393:27437   */\n      tag_484\n      jump\t// in\n    tag_775:\n        /* \"#utility.yul\":27388:27391   */\n      dup3\n        /* \"#utility.yul\":27381:27438   */\n      mstore\n        /* \"#utility.yul\":27299:27444   */\n      pop\n      pop\n      jump\t// out\n        /* \"#utility.yul\":27450:27686   */\n    tag_276:\n        /* \"#utility.yul\":27550:27554   */\n      0x00\n        /* \"#utility.yul\":27588:27590   */\n      0x20\n        /* \"#utility.yul\":27577:27586   */\n      dup3\n        /* \"#utility.yul\":27573:27591   */\n      add\n        /* \"#utility.yul\":27565:27591   */\n      swap1\n      pop\n        /* \"#utility.yul\":27601:27679   */\n      tag_777\n        /* \"#utility.yul\":27676:27677   */\n      0x00\n        /* \"#utility.yul\":27665:27674   */\n      dup4\n        /* \"#utility.yul\":27661:27678   */\n      add\n        /* \"#utility.yul\":27652:27658   */\n      dup5\n        /* \"#utility.yul\":27601:27679   */\n      tag_485\n      jump\t// in\n    tag_777:\n        /* \"#utility.yul\":27450:27686   */\n      swap3\n      swap2\n      pop\n      pop\n      jump\t// out\n        /* \"#utility.yul\":27692:27863   */\n    tag_486:\n        /* \"#utility.yul\":27832:27855   */\n      0x5265636f726420646f6573206e6f742065786973740000000000000000000000\n        /* \"#utility.yul\":27828:27829   */\n      0x00\n        /* \"#utility.yul\":27820:27826   */\n      dup3\n        /* \"#utility.yul\":27816:27830   */\n      add\n        /* \"#utility.yul\":27809:27856   */\n      mstore\n        /* \"#utility.yul\":27692:27863   */\n      pop\n      jump\t// out\n        /* \"#utility.yul\":27869:28235   */\n    tag_487:\n        /* \"#utility.yul\":28011:28014   */\n      0x00\n        /* \"#utility.yul\":28032:28099   */\n      tag_780\n        /* \"#utility.yul\":28096:28098   */\n      0x15\n        /* \"#utility.yul\":28091:28094   */\n      dup4\n        /* \"#utility.yul\":28032:28099   */\n      tag_427\n      jump\t// in\n    tag_780:\n        /* \"#utility.yul\":28025:28099   */\n      swap2\n      pop\n        /* \"#utility.yul\":28108:28201   */\n      tag_781\n        /* \"#utility.yul\":28197:28200   */\n      dup3\n        /* \"#utility.yul\":28108:28201   */\n      tag_486\n      jump\t// in\n    tag_781:\n        /* \"#utility.yul\":28226:28228   */\n      0x20\n        /* \"#utility.yul\":28221:28224   */\n      dup3\n        /* \"#utility.yul\":28217:28229   */\n      add\n        /* \"#utility.yul\":28210:28229   */\n      swap1\n      pop\n        /* \"#utility.yul\":27869:28235   */\n      swap2\n      swap1\n      pop\n      jump\t// out\n        /* \"#utility.yul\":28241:28660   */\n    tag_289:\n        /* \"#utility.yul\":28407:28411   */\n      0x00\n        /* \"#utility.yul\":28445:28447   */\n      0x20\n        /* \"#utility.yul\":28434:28443   */\n      dup3\n        /* \"#utility.yul\":28430:28448   */\n      add\n        /* \"#utility.yul\":28422:28448   */\n      swap1\n      pop\n        /* \"#utility.yul\":28494:28503   */\n      dup2\n        /* \"#utility.yul\":28488:28492   */\n      dup2\n        /* \"#utility.yul\":28484:28504   */\n      sub\n        /* \"#utility.yul\":28480:28481   */\n      0x00\n        /* \"#utility.yul\":28469:28478   */\n      dup4\n        /* \"#utility.yul\":28465:28482   */\n      add\n        /* \"#utility.yul\":28458:28505   */\n      mstore\n        /* \"#utility.yul\":28522:28653   */\n      tag_783\n        /* \"#utility.yul\":28648:28652   */\n      dup2\n        /* \"#utility.yul\":28522:28653   */\n      tag_487\n      jump\t// in\n    tag_783:\n        /* \"#utility.yul\":28514:28653   */\n      swap1\n      pop\n        /* \"#utility.yul\":28241:28660   */\n      swap2\n      swap1\n      pop\n      jump\t// out\n        /* \"#utility.yul\":28666:28888   */\n    tag_314:\n        /* \"#utility.yul\":28759:28763   */\n      0x00\n        /* \"#utility.yul\":28797:28799   */\n      0x20\n        /* \"#utility.yul\":28786:28795   */\n      dup3\n        /* \"#utility.yul\":28782:28800   */\n      add\n        /* \"#utility.yul\":28774:28800   */\n      swap1\n      pop\n        /* \"#utility.yul\":28810:28881   */\n      tag_785\n        /* \"#utility.yul\":28878:28879   */\n      0x00\n        /* \"#utility.yul\":28867:28876   */\n      dup4\n        /* \"#utility.yul\":28863:28880   */\n      add\n        /* \"#utility.yul\":28854:28860   */\n      dup5\n        /* \"#utility.yul\":28810:28881   */\n      tag_433\n      jump\t// in\n    tag_785:\n        /* \"#utility.yul\":28666:28888   */\n      swap3\n      swap2\n      pop\n      pop\n      jump\t// out\n        /* \"#utility.yul\":28894:29060   */\n    tag_488:\n        /* \"#utility.yul\":29034:29052   */\n      0x5061757361626c653a2070617573656400000000000000000000000000000000\n        /* \"#utility.yul\":29030:29031   */\n      0x00\n        /* \"#utility.yul\":29022:29028   */\n      dup3\n        /* \"#utility.yul\":29018:29032   */\n      add\n        /* \"#utility.yul\":29011:29053   */\n      mstore\n        /* \"#utility.yul\":28894:29060   */\n      pop\n      jump\t// out\n        /* \"#utility.yul\":29066:29432   */\n    tag_489:\n        /* \"#utility.yul\":29208:29211   */\n      0x00\n        /* \"#utility.yul\":29229:29296   */\n      tag_788\n        /* \"#utility.yul\":29293:29295   */\n      0x10\n        /* \"#utility.yul\":29288:29291   */\n      dup4\n        /* \"#utility.yul\":29229:29296   */\n      tag_427\n      jump\t// in\n    tag_788:\n        /* \"#utility.yul\":29222:29296   */\n      swap2\n      pop\n        /* \"#utility.yul\":29305:29398   */\n      tag_789\n        /* \"#utility.yul\":29394:29397   */\n      dup3\n        /* \"#utility.yul\":29305:29398   */\n      tag_488\n      jump\t// in\n    tag_789:\n        /* \"#utility.yul\":29423:29425   */\n      0x20\n        /* \"#utility.yul\":29418:29421   */\n      dup3\n        /* \"#utility.yul\":29414:29426   */\n      add\n        /* \"#utility.yul\":29407:29426   */\n      swap1\n      pop\n        /* \"#utility.yul\":29066:29432   */\n      swap2\n      swap1\n      pop\n      jump\t// out\n        /* \"#utility.yul\":29438:29857   */\n    tag_343:\n        /* \"#utility.yul\":29604:29608   */\n      0x00\n        /* \"#utility.yul\":29642:29644   */\n      0x20\n        /* \"#utility.yul\":29631:29640   */\n      dup3\n        /* \"#utility.yul\":29627:29645   */\n      add\n        /* \"#utility.yul\":29619:29645   */\n      swap1\n      pop\n        /* \"#utility.yul\":29691:29700   */\n      dup2\n        /* \"#utility.yul\":29685:29689   */\n      dup2\n        /* \"#utility.yul\":29681:29701   */\n      sub\n        /* \"#utility.yul\":29677:29678   */\n      0x00\n        /* \"#utility.yul\":29666:29675   */\n      dup4\n        /* \"#utility.yul\":29662:29679   */\n      add\n        /* \"#utility.yul\":29655:29702   */\n      mstore\n        /* \"#utility.yul\":29719:29850   */\n      tag_791\n        /* \"#utility.yul\":29845:29849   */\n      dup2\n        /* \"#utility.yul\":29719:29850   */\n      tag_489\n      jump\t// in\n    tag_791:\n        /* \"#utility.yul\":29711:29850   */\n      swap1\n      pop\n        /* \"#utility.yul\":29438:29857   */\n      swap2\n      swap1\n      pop\n      jump\t// out\n        /* \"#utility.yul\":29863:30044   */\n    tag_490:\n        /* \"#utility.yul\":30003:30036   */\n      0x5265656e7472616e637947756172643a207265656e7472616e742063616c6c00\n        /* \"#utility.yul\":29999:30000   */\n      0x00\n        /* \"#utility.yul\":29991:29997   */\n      dup3\n        /* \"#utility.yul\":29987:30001   */\n      add\n        /* \"#utility.yul\":29980:30037   */\n      mstore\n        /* \"#utility.yul\":29863:30044   */\n      pop\n      jump\t// out\n        /* \"#utility.yul\":30050:30416   */\n    tag_491:\n        /* \"#utility.yul\":30192:30195   */\n      0x00\n        /* \"#utility.yul\":30213:30280   */\n      tag_794\n        /* \"#utility.yul\":30277:30279   */\n      0x1f\n        /* \"#utility.yul\":30272:30275   */\n      dup4\n        /* \"#utility.yul\":30213:30280   */\n      tag_427\n      jump\t// in\n    tag_794:\n        /* \"#utility.yul\":30206:30280   */\n      swap2\n      pop\n        /* \"#utility.yul\":30289:30382   */\n      tag_795\n        /* \"#utility.yul\":30378:30381   */\n      dup3\n        /* \"#utility.yul\":30289:30382   */\n      tag_490\n      jump\t// in\n    tag_795:\n        /* \"#utility.yul\":30407:30409   */\n      0x20\n        /* \"#utility.yul\":30402:30405   */\n      dup3\n        /* \"#utility.yul\":30398:30410   */\n      add\n        /* \"#utility.yul\":30391:30410   */\n      swap1\n      pop\n        /* \"#utility.yul\":30050:30416   */\n      swap2\n      swap1\n      pop\n      jump\t// out\n        /* \"#utility.yul\":30422:30841   */\n    tag_347:\n        /* \"#utility.yul\":30588:30592   */\n      0x00\n        /* \"#utility.yul\":30626:30628   */\n      0x20\n        /* \"#utility.yul\":30615:30624   */\n      dup3\n        /* \"#utility.yul\":30611:30629   */\n      add\n        /* \"#utility.yul\":30603:30629   */\n      swap1\n      pop\n        /* \"#utility.yul\":30675:30684   */\n      dup2\n        /* \"#utility.yul\":30669:30673   */\n      dup2\n        /* \"#utility.yul\":30665:30685   */\n      sub\n        /* \"#utility.yul\":30661:30662   */\n      0x00\n        /* \"#utility.yul\":30650:30659   */\n      dup4\n        /* \"#utility.yul\":30646:30663   */\n      add\n        /* \"#utility.yul\":30639:30686   */\n      mstore\n        /* \"#utility.yul\":30703:30834   */\n      tag_797\n        /* \"#utility.yul\":30829:30833   */\n      dup2\n        /* \"#utility.yul\":30703:30834   */\n      tag_491\n      jump\t// in\n    tag_797:\n        /* \"#utility.yul\":30695:30834   */\n      swap1\n      pop\n        /* \"#utility.yul\":30422:30841   */\n      swap2\n      swap1\n      pop\n      jump\t// out\n        /* \"#utility.yul\":30847:31179   */\n    tag_379:\n        /* \"#utility.yul\":30968:30972   */\n      0x00\n        /* \"#utility.yul\":31006:31008   */\n      0x40\n        /* \"#utility.yul\":30995:31004   */\n      dup3\n        /* \"#utility.yul\":30991:31009   */\n      add\n        /* \"#utility.yul\":30983:31009   */\n      swap1\n      pop\n        /* \"#utility.yul\":31019:31090   */\n      tag_799\n        /* \"#utility.yul\":31087:31088   */\n      0x00\n        /* \"#utility.yul\":31076:31085   */\n      dup4\n        /* \"#utility.yul\":31072:31089   */\n      add\n        /* \"#utility.yul\":31063:31069   */\n      dup6\n        /* \"#utility.yul\":31019:31090   */\n      tag_433\n      jump\t// in\n    tag_799:\n        /* \"#utility.yul\":31100:31172   */\n      tag_800\n        /* \"#utility.yul\":31168:31170   */\n      0x20\n        /* \"#utility.yul\":31157:31166   */\n      dup4\n        /* \"#utility.yul\":31153:31171   */\n      add\n        /* \"#utility.yul\":31144:31150   */\n      dup5\n        /* \"#utility.yul\":31100:31172   */\n      tag_437\n      jump\t// in\n    tag_800:\n        /* \"#utility.yul\":30847:31179   */\n      swap4\n      swap3\n      pop\n      pop\n      pop\n      jump\t// out\n        /* \"#utility.yul\":31185:31355   */\n    tag_492:\n        /* \"#utility.yul\":31325:31347   */\n      0x5061757361626c653a206e6f7420706175736564000000000000000000000000\n        /* \"#utility.yul\":31321:31322   */\n      0x00\n        /* \"#utility.yul\":31313:31319   */\n      dup3\n        /* \"#utility.yul\":31309:31323   */\n      add\n        /* \"#utility.yul\":31302:31348   */\n      mstore\n        /* \"#utility.yul\":31185:31355   */\n      pop\n      jump\t// out\n        /* \"#utility.yul\":31361:31727   */\n    tag_493:\n        /* \"#utility.yul\":31503:31506   */\n      0x00\n        /* \"#utility.yul\":31524:31591   */\n      tag_803\n        /* \"#utility.yul\":31588:31590   */\n      0x14\n        /* \"#utility.yul\":31583:31586   */\n      dup4\n        /* \"#utility.yul\":31524:31591   */\n      tag_427\n      jump\t// in\n    tag_803:\n        /* \"#utility.yul\":31517:31591   */\n      swap2\n      pop\n        /* \"#utility.yul\":31600:31693   */\n      tag_804\n        /* \"#utility.yul\":31689:31692   */\n      dup3\n        /* \"#utility.yul\":31600:31693   */\n      tag_492\n      jump\t// in\n    tag_804:\n        /* \"#utility.yul\":31718:31720   */\n      0x20\n        /* \"#utility.yul\":31713:31716   */\n      dup3\n        /* \"#utility.yul\":31709:31721   */\n      add\n        /* \"#utility.yul\":31702:31721   */\n      swap1\n      pop\n        /* \"#utility.yul\":31361:31727   */\n      swap2\n      swap1\n      pop\n      jump\t// out\n        /* \"#utility.yul\":31733:32152   */\n    tag_384:\n        /* \"#utility.yul\":31899:31903   */\n      0x00\n        /* \"#utility.yul\":31937:31939   */\n      0x20\n        /* \"#utility.yul\":31926:31935   */\n      dup3\n        /* \"#utility.yul\":31922:31940   */\n      add\n        /* \"#utility.yul\":31914:31940   */\n      swap1\n      pop\n        /* \"#utility.yul\":31986:31995   */\n      dup2\n        /* \"#utility.yul\":31980:31984   */\n      dup2\n        /* \"#utility.yul\":31976:31996   */\n      sub\n        /* \"#utility.yul\":31972:31973   */\n      0x00\n        /* \"#utility.yul\":31961:31970   */\n      dup4\n        /* \"#utility.yul\":31957:31974   */\n      add\n        /* \"#utility.yul\":31950:31997   */\n      mstore\n        /* \"#utility.yul\":32014:32145   */\n      tag_806\n        /* \"#utility.yul\":32140:32144   */\n      dup2\n        /* \"#utility.yul\":32014:32145   */\n      tag_493\n      jump\t// in\n    tag_806:\n        /* \"#utility.yul\":32006:32145   */\n      swap1\n      pop\n        /* \"#utility.yul\":31733:32152   */\n      swap2\n      swap1\n      pop\n      jump\t// out\n\n    auxdata: 0xa264697066735822122044d0fc73aca6c6197d24aa509ad8952cb390275a37e58b9b8a3eaed08f789a1f64736f6c634300081a0033\n}\n",
				"bytecode": {
					"linkReferences": {},
					"object": "6080604052348015600e575f80fd5b506134708061001c5f395ff3fe608060405234801561000f575f80fd5b50600436106101c2575f3560e01c80638456cb59116100f7578063c4d66de811610095578063d547741f1161006f578063d547741f146104de578063eb2c0223146104fa578063f093cf8014610516578063f6ba667814610548576101c2565b8063c4d66de814610473578063cdb8acf01461048f578063d1a48627146104c2576101c2565b8063a79861f1116100d1578063a79861f114610401578063aabc42801461041d578063ac5cb97d14610439578063b696a14814610457576101c2565b80638456cb59146103a957806391d14854146103b3578063a217fddf146103e3576101c2565b806338d4ea23116101645780633f4ba83a1161013e5780633f4ba83a146103475780634fbaa023146103515780635c975abb1461036d57806375b238fc1461038b576101c2565b806338d4ea23146102df5780633b0f4ada146102fb5780633b8b20cb1461032b576101c2565b80632114ef1f116101a05780632114ef1f14610259578063248a9ca3146102775780632f2ff15d146102a757806336568abe146102c3576101c2565b806301ffc9a7146101c65780630869cfbc146101f65780630a9682ad14610229575b5f80fd5b6101e060048036038101906101db919061248c565b610566565b6040516101ed91906124d1565b60405180910390f35b610210600480360381019061020b9190612544565b6105df565b6040516102209493929190612606565b60405180910390f35b610243600480360381019061023e9190612544565b6106bc565b6040516102509190612650565b60405180910390f35b6102616107a1565b60405161026e9190612650565b60405180910390f35b610291600480360381019061028c919061269c565b6107a8565b60405161029e91906126d6565b60405180910390f35b6102c160048036038101906102bc91906126ef565b6107d2565b005b6102dd60048036038101906102d891906126ef565b6107f4565b005b6102f960048036038101906102f49190612859565b61086f565b005b61031560048036038101906103109190612544565b610bfa565b60405161032291906124d1565b60405180910390f35b610345600480360381019061034091906129ed565b610c43565b005b61034f610e6f565b005b61036b60048036038101906103669190612a89565b610ea4565b005b610375611074565b60405161038291906124d1565b60405180910390f35b610393611088565b6040516103a091906126d6565b60405180910390f35b6103b16110ac565b005b6103cd60048036038101906103c891906126ef565b6110e1565b6040516103da91906124d1565b60405180910390f35b6103eb611152565b6040516103f891906126d6565b60405180910390f35b61041b60048036038101906104169190612544565b611158565b005b61043760048036038101906104329190612544565b611304565b005b6104416114b8565b60405161044e91906126d6565b60405180910390f35b610471600480360381019061046c9190612ae3565b6114dc565b005b61048d60048036038101906104889190612544565b611560565b005b6104a960048036038101906104a49190612b2a565b611728565b6040516104b99493929190612b68565b60405180910390f35b6104dc60048036038101906104d79190612544565b611b52565b005b6104f860048036038101906104f391906126ef565b611c71565b005b610514600480360381019061050f9190612544565b611c93565b005b610530600480360381019061052b9190612544565b611cf8565b60405161053f93929190612bb9565b60405180910390f35b610550611db0565b60405161055d91906126d6565b60405180910390f35b5f7f7965db0b000000000000000000000000000000000000000000000000000000007bffffffffffffffffffffffffffffffffffffffffffffffffffffffff1916827bffffffffffffffffffffffffffffffffffffffffffffffffffffffff191614806105d857506105d782611dd4565b5b9050919050565b6065602052805f5260405f205f91509050805f0180546105fe90612c22565b80601f016020809104026020016040519081016040528092919081815260200182805461062a90612c22565b80156106755780601f1061064c57610100808354040283529160200191610675565b820191905f5260205f20905b81548152906001019060200180831161065857829003601f168201915b505050505090806001015490806002015f9054906101000a900460ff1690806004015f9054906101000a900473ffffffffffffffffffffffffffffffffffffffff16905084565b5f6106e77fc8f5b4140cca307cd927e59cbeea8291bffeee228fc677f0fa059aef7b4dd8d5336110e1565b8061071d57508173ffffffffffffffffffffffffffffffffffffffff163373ffffffffffffffffffffffffffffffffffffffff16145b61075c576040517f08c379a000000000000000000000000000000000000000000000000000000000815260040161075390612c9c565b60405180910390fd5b60675f8373ffffffffffffffffffffffffffffffffffffffff1673ffffffffffffffffffffffffffffffffffffffff1681526020019081526020015f20549050919050565b6201518081565b5f806107b2611e3d565b9050805f015f8481526020019081526020015f2060010154915050919050565b6107db826107a8565b6107e481611e64565b6107ee8383611e78565b50505050565b6107fc611f70565b73ffffffffffffffffffffffffffffffffffffffff168173ffffffffffffffffffffffffffffffffffffffff1614610860576040517f6697b23200000000000000000000000000000000000000000000000000000000815260040160405180910390fd5b61086a8282611f77565b505050565b7fc8f5b4140cca307cd927e59cbeea8291bffeee228fc677f0fa059aef7b4dd8d561089981611e64565b6108a161206f565b6108a96120b9565b60655f8573ffffffffffffffffffffffffffffffffffffffff1673ffffffffffffffffffffffffffffffffffffffff1681526020019081526020015f206002015f9054906101000a900460ff16610935576040517f08c379a000000000000000000000000000000000000000000000000000000000815260040161092c90612d04565b60405180910390fd5b60685f8573ffffffffffffffffffffffffffffffffffffffff1673ffffffffffffffffffffffffffffffffffffffff1681526020019081526020015f205f3373ffffffffffffffffffffffffffffffffffffffff1673ffffffffffffffffffffffffffffffffffffffff1681526020019081526020015f205f9054906101000a900460ff16806109ca57506109c933610bfa565b5b610a09576040517f08c379a0000000000000000000000000000000000000000000000000000000008152600401610a0090612d6c565b60405180910390fd5b5f60675f8673ffffffffffffffffffffffffffffffffffffffff1673ffffffffffffffffffffffffffffffffffffffff1681526020019081526020015f2054905060405180608001604052808581526020018481526020014281526020013373ffffffffffffffffffffffffffffffffffffffff1681525060665f8773ffffffffffffffffffffffffffffffffffffffff1673ffffffffffffffffffffffffffffffffffffffff1681526020019081526020015f205f8381526020019081526020015f205f820151815f019081610ae09190612f27565b506020820151816001019081610af69190612f27565b50604082015181600201556060820151816003015f6101000a81548173ffffffffffffffffffffffffffffffffffffffff021916908373ffffffffffffffffffffffffffffffffffffffff16021790555090505060675f8673ffffffffffffffffffffffffffffffffffffffff1673ffffffffffffffffffffffffffffffffffffffff1681526020019081526020015f205f815480929190610b9790613023565b9190505550808573ffffffffffffffffffffffffffffffffffffffff167f5ecfbf1e7f7f5ef4109baa2a3726ce1aecb710b577c94cd08a8e5bc9d38639f385604051610be3919061306a565b60405180910390a350610bf4612108565b50505050565b5f60695f8373ffffffffffffffffffffffffffffffffffffffff1673ffffffffffffffffffffffffffffffffffffffff1681526020019081526020015f20544211159050919050565b60655f3373ffffffffffffffffffffffffffffffffffffffff1673ffffffffffffffffffffffffffffffffffffffff1681526020019081526020015f206002015f9054906101000a900460ff1615610cd0576040517f08c379a0000000000000000000000000000000000000000000000000000000008152600401610cc7906130d4565b60405180910390fd5b6040518060a001604052808581526020018481526020016001151581526020018381526020018273ffffffffffffffffffffffffffffffffffffffff1681525060655f3373ffffffffffffffffffffffffffffffffffffffff1673ffffffffffffffffffffffffffffffffffffffff1681526020019081526020015f205f820151815f019081610d609190612f27565b50602082015181600101556040820151816002015f6101000a81548160ff0219169083151502179055506060820151816003019080519060200190610da6929190612354565b506080820151816004015f6101000a81548173ffffffffffffffffffffffffffffffffffffffff021916908373ffffffffffffffffffffffffffffffffffffffff160217905550905050610e1a7f72606200fac42b7dc86b75901d61ecfab2a4a1a6eded478b97a428094891abed33611e78565b503373ffffffffffffffffffffffffffffffffffffffff167fc85b128388b9c331a2a5485dce4cd0f3db9f7c279d327ce95d6d39d6c94644c785604051610e61919061306a565b60405180910390a250505050565b7fa49807205ce4d355092ef5a8a18f56e8913cf4a201fbe287825b095693c21775610e9981611e64565b610ea1612112565b50565b7fa49807205ce4d355092ef5a8a18f56e8913cf4a201fbe287825b095693c21775610ece81611e64565b60645f8473ffffffffffffffffffffffffffffffffffffffff1673ffffffffffffffffffffffffffffffffffffffff1681526020019081526020015f206001015f9054906101000a900460ff1615610f5b576040517f08c379a0000000000000000000000000000000000000000000000000000000008152600401610f529061313c565b60405180910390fd5b60405180606001604052808381526020016001151581526020014281525060645f8573ffffffffffffffffffffffffffffffffffffffff1673ffffffffffffffffffffffffffffffffffffffff1681526020019081526020015f205f820151815f019081610fc99190612f27565b506020820151816001015f6101000a81548160ff021916908315150217905550604082015181600201559050506110207fc8f5b4140cca307cd927e59cbeea8291bffeee228fc677f0fa059aef7b4dd8d584611e78565b508273ffffffffffffffffffffffffffffffffffffffff167f72cefccb74b7edacb21023a72b39a2cecb1123ba70d1eea03d3509d046b941c283604051611067919061306a565b60405180910390a2505050565b5f805f9054906101000a900460ff16905090565b7fa49807205ce4d355092ef5a8a18f56e8913cf4a201fbe287825b095693c2177581565b7fa49807205ce4d355092ef5a8a18f56e8913cf4a201fbe287825b095693c217756110d681611e64565b6110de612172565b50565b5f806110eb611e3d565b9050805f015f8581526020019081526020015f205f015f8473ffffffffffffffffffffffffffffffffffffffff1673ffffffffffffffffffffffffffffffffffffffff1681526020019081526020015f205f9054906101000a900460ff1691505092915050565b5f801b81565b7f72606200fac42b7dc86b75901d61ecfab2a4a1a6eded478b97a428094891abed61118281611e64565b61118a61206f565b60645f8373ffffffffffffffffffffffffffffffffffffffff1673ffffffffffffffffffffffffffffffffffffffff1681526020019081526020015f206001015f9054906101000a900460ff16611216576040517f08c379a000000000000000000000000000000000000000000000000000000000815260040161120d906131a4565b60405180910390fd5b600160685f3373ffffffffffffffffffffffffffffffffffffffff1673ffffffffffffffffffffffffffffffffffffffff1681526020019081526020015f205f8473ffffffffffffffffffffffffffffffffffffffff1673ffffffffffffffffffffffffffffffffffffffff1681526020019081526020015f205f6101000a81548160ff0219169083151502179055508173ffffffffffffffffffffffffffffffffffffffff163373ffffffffffffffffffffffffffffffffffffffff167f8105c574d2239a3a4f73f5efc5bc253cffb275647df535adfa2c240739cc922060405160405180910390a35050565b7f72606200fac42b7dc86b75901d61ecfab2a4a1a6eded478b97a428094891abed61132e81611e64565b61133661206f565b60645f8373ffffffffffffffffffffffffffffffffffffffff1673ffffffffffffffffffffffffffffffffffffffff1681526020019081526020015f206001015f9054906101000a900460ff166113c2576040517f08c379a00000000000000000000000000000000000000000000000000000000081526004016113b9906131a4565b60405180910390fd5b62015180426113d191906131c2565b60695f8473ffffffffffffffffffffffffffffffffffffffff1673ffffffffffffffffffffffffffffffffffffffff1681526020019081526020015f20819055508173ffffffffffffffffffffffffffffffffffffffff163373ffffffffffffffffffffffffffffffffffffffff167f5d1675d647fd82d7866123d4b61e400e9b9cd41946ae22001974c31e8addb20b60695f8673ffffffffffffffffffffffffffffffffffffffff1673ffffffffffffffffffffffffffffffffffffffff1681526020019081526020015f20546040516114ac9190612650565b60405180910390a35050565b7f72606200fac42b7dc86b75901d61ecfab2a4a1a6eded478b97a428094891abed81565b7fc8f5b4140cca307cd927e59cbeea8291bffeee228fc677f0fa059aef7b4dd8d561150681611e64565b61150e61206f565b3373ffffffffffffffffffffffffffffffffffffffff167f20a1c034b6b182ef274c357c49bda7799549e8b15d43abba54ab69dc0434d86f83604051611554919061306a565b60405180910390a25050565b5f6115696121d3565b90505f815f0160089054906101000a900460ff161590505f825f015f9054906101000a900467ffffffffffffffff1690505f808267ffffffffffffffff161480156115b15750825b90505f60018367ffffffffffffffff161480156115e457505f3073ffffffffffffffffffffffffffffffffffffffff163b145b9050811580156115f2575080155b15611629576040517ff92ee8a900000000000000000000000000000000000000000000000000000000815260040160405180910390fd5b6001855f015f6101000a81548167ffffffffffffffff021916908367ffffffffffffffff1602179055508315611676576001855f0160086101000a81548160ff0219169083151502179055505b61167e6121fa565b611686612204565b61168e612216565b61169a5f801b87611e78565b506116c57fa49807205ce4d355092ef5a8a18f56e8913cf4a201fbe287825b095693c2177587611e78565b508315611720575f855f0160086101000a81548160ff0219169083151502179055507fc7f505b2f371ae2175ee4913f4499e1f2633a7b5936321eed1cdaeb6115181d260016040516117179190613241565b60405180910390a15b505050505050565b6060805f806117577fc8f5b4140cca307cd927e59cbeea8291bffeee228fc677f0fa059aef7b4dd8d5336110e1565b8061178d57508573ffffffffffffffffffffffffffffffffffffffff163373ffffffffffffffffffffffffffffffffffffffff16145b6117cc576040517f08c379a00000000000000000000000000000000000000000000000000000000081526004016117c390612c9c565b60405180910390fd5b60685f8773ffffffffffffffffffffffffffffffffffffffff1673ffffffffffffffffffffffffffffffffffffffff1681526020019081526020015f205f3373ffffffffffffffffffffffffffffffffffffffff1673ffffffffffffffffffffffffffffffffffffffff1681526020019081526020015f205f9054906101000a900460ff168061188757508573ffffffffffffffffffffffffffffffffffffffff163373ffffffffffffffffffffffffffffffffffffffff16145b80611897575061189633610bfa565b5b6118d6576040517f08c379a00000000000000000000000000000000000000000000000000000000081526004016118cd90612d6c565b60405180910390fd5b60675f8773ffffffffffffffffffffffffffffffffffffffff1673ffffffffffffffffffffffffffffffffffffffff1681526020019081526020015f20548510611955576040517f08c379a000000000000000000000000000000000000000000000000000000000815260040161194c906132a4565b60405180910390fd5b5f60665f8873ffffffffffffffffffffffffffffffffffffffff1673ffffffffffffffffffffffffffffffffffffffff1681526020019081526020015f205f8781526020019081526020015f206040518060800160405290815f820180546119bc90612c22565b80601f01602080910402602001604051908101604052809291908181526020018280546119e890612c22565b8015611a335780601f10611a0a57610100808354040283529160200191611a33565b820191905f5260205f20905b815481529060010190602001808311611a1657829003601f168201915b50505050508152602001600182018054611a4c90612c22565b80601f0160208091040260200160405190810160405280929190818152602001828054611a7890612c22565b8015611ac35780601f10611a9a57610100808354040283529160200191611ac3565b820191905f5260205f20905b815481529060010190602001808311611aa657829003601f168201915b5050505050815260200160028201548152602001600382015f9054906101000a900473ffffffffffffffffffffffffffffffffffffffff1673ffffffffffffffffffffffffffffffffffffffff1673ffffffffffffffffffffffffffffffffffffffff16815250509050805f015181602001518260400151836060015194509450945094505092959194509250565b7f72606200fac42b7dc86b75901d61ecfab2a4a1a6eded478b97a428094891abed611b7c81611e64565b611b8461206f565b5f60685f3373ffffffffffffffffffffffffffffffffffffffff1673ffffffffffffffffffffffffffffffffffffffff1681526020019081526020015f205f8473ffffffffffffffffffffffffffffffffffffffff1673ffffffffffffffffffffffffffffffffffffffff1681526020019081526020015f205f6101000a81548160ff0219169083151502179055508173ffffffffffffffffffffffffffffffffffffffff163373ffffffffffffffffffffffffffffffffffffffff167febecee2d3f2ea272f73dd9d9ccc0bacd11280d61240332cbcd8a68173ae5cc2c60405160405180910390a35050565b611c7a826107a8565b611c8381611e64565b611c8d8383611f77565b50505050565b7fa49807205ce4d355092ef5a8a18f56e8913cf4a201fbe287825b095693c21775611cbd81611e64565b7fc68d6b394bbff225c75b6ba60811fafb0da04351338aa28c9614981c55287be282604051611cec91906132c2565b60405180910390a15050565b6064602052805f5260405f205f91509050805f018054611d1790612c22565b80601f0160208091040260200160405190810160405280929190818152602001828054611d4390612c22565b8015611d8e5780601f10611d6557610100808354040283529160200191611d8e565b820191905f5260205f20905b815481529060010190602001808311611d7157829003601f168201915b505050505090806001015f9054906101000a900460ff16908060020154905083565b7fc8f5b4140cca307cd927e59cbeea8291bffeee228fc677f0fa059aef7b4dd8d581565b5f7f01ffc9a7000000000000000000000000000000000000000000000000000000007bffffffffffffffffffffffffffffffffffffffffffffffffffffffff1916827bffffffffffffffffffffffffffffffffffffffffffffffffffffffff1916149050919050565b5f7f02dd7bc7dec4dceedda775e58dd541e08a116c6c53815c0bd028192f7b626800905090565b611e7581611e70611f70565b612228565b50565b5f80611e82611e3d565b9050611e8e84846110e1565b611f65576001815f015f8681526020019081526020015f205f015f8573ffffffffffffffffffffffffffffffffffffffff1673ffffffffffffffffffffffffffffffffffffffff1681526020019081526020015f205f6101000a81548160ff021916908315150217905550611f01611f70565b73ffffffffffffffffffffffffffffffffffffffff168373ffffffffffffffffffffffffffffffffffffffff16857f2f8788117e7eff1d82e926ec794901d17c78024a50270940304540a733656f0d60405160405180910390a46001915050611f6a565b5f9150505b92915050565b5f33905090565b5f80611f81611e3d565b9050611f8d84846110e1565b15612064575f815f015f8681526020019081526020015f205f015f8573ffffffffffffffffffffffffffffffffffffffff1673ffffffffffffffffffffffffffffffffffffffff1681526020019081526020015f205f6101000a81548160ff021916908315150217905550612000611f70565b73ffffffffffffffffffffffffffffffffffffffff168373ffffffffffffffffffffffffffffffffffffffff16857ff6391f5c32d9c69d2a47ea670b442974b53935d1edc7fd64eb21e047a839171b60405160405180910390a46001915050612069565b5f9150505b92915050565b612077611074565b156120b7576040517f08c379a00000000000000000000000000000000000000000000000000000000081526004016120ae90613325565b60405180910390fd5b565b6002603254036120fe576040517f08c379a00000000000000000000000000000000000000000000000000000000081526004016120f59061338d565b60405180910390fd5b6002603281905550565b6001603281905550565b61211a612279565b5f805f6101000a81548160ff0219169083151502179055507f5db9ee0a495bf2e6ff9c91a7834c1ba4fdd244a5e8aa4e537bd38aeae4b073aa61215b611f70565b60405161216891906132c2565b60405180910390a1565b61217a61206f565b60015f806101000a81548160ff0219169083151502179055507f62e78cea01bee320cd4e420270b5ea74000d11b0c9f74754ebdbfc544b05a2586121bc611f70565b6040516121c991906132c2565b60405180910390a1565b5f7ff0c57e16840df040f15088dc2f81fe391c3923bec73e23a9662efc9c229c6a00905090565b6122026122c2565b565b61220c6122c2565b612214612302565b565b61221e6122c2565b612226612324565b565b61223282826110e1565b6122755780826040517fe2517d3f00000000000000000000000000000000000000000000000000000000815260040161226c9291906133ab565b60405180910390fd5b5050565b612281611074565b6122c0576040517f08c379a00000000000000000000000000000000000000000000000000000000081526004016122b79061341c565b60405180910390fd5b565b6122ca612336565b612300576040517fd7e6bcf800000000000000000000000000000000000000000000000000000000815260040160405180910390fd5b565b61230a6122c2565b5f805f6101000a81548160ff021916908315150217905550565b61232c6122c2565b6001603281905550565b5f61233f6121d3565b5f0160089054906101000a900460ff16905090565b828054828255905f5260205f2090810192821561239a579160200282015b828111156123995782518290816123899190612f27565b5091602001919060010190612372565b5b5090506123a791906123ab565b5090565b5b808211156123ca575f81816123c191906123ce565b506001016123ac565b5090565b5080546123da90612c22565b5f825580601f106123eb5750612408565b601f0160209004905f5260205f2090810190612407919061240b565b5b50565b5b80821115612422575f815f90555060010161240c565b5090565b5f604051905090565b5f80fd5b5f80fd5b5f7fffffffff0000000000000000000000000000000000000000000000000000000082169050919050565b61246b81612437565b8114612475575f80fd5b50565b5f8135905061248681612462565b92915050565b5f602082840312156124a1576124a061242f565b5b5f6124ae84828501612478565b91505092915050565b5f8115159050919050565b6124cb816124b7565b82525050565b5f6020820190506124e45f8301846124c2565b92915050565b5f73ffffffffffffffffffffffffffffffffffffffff82169050919050565b5f612513826124ea565b9050919050565b61252381612509565b811461252d575f80fd5b50565b5f8135905061253e8161251a565b92915050565b5f602082840312156125595761255861242f565b5b5f61256684828501612530565b91505092915050565b5f81519050919050565b5f82825260208201905092915050565b8281835e5f83830152505050565b5f601f19601f8301169050919050565b5f6125b18261256f565b6125bb8185612579565b93506125cb818560208601612589565b6125d481612597565b840191505092915050565b5f819050919050565b6125f1816125df565b82525050565b61260081612509565b82525050565b5f6080820190508181035f83015261261e81876125a7565b905061262d60208301866125e8565b61263a60408301856124c2565b61264760608301846125f7565b95945050505050565b5f6020820190506126635f8301846125e8565b92915050565b5f819050919050565b61267b81612669565b8114612685575f80fd5b50565b5f8135905061269681612672565b92915050565b5f602082840312156126b1576126b061242f565b5b5f6126be84828501612688565b91505092915050565b6126d081612669565b82525050565b5f6020820190506126e95f8301846126c7565b92915050565b5f80604083850312156127055761270461242f565b5b5f61271285828601612688565b925050602061272385828601612530565b9150509250929050565b5f80fd5b5f80fd5b7f4e487b71000000000000000000000000000000000000000000000000000000005f52604160045260245ffd5b61276b82612597565b810181811067ffffffffffffffff8211171561278a57612789612735565b5b80604052505050565b5f61279c612426565b90506127a88282612762565b919050565b5f67ffffffffffffffff8211156127c7576127c6612735565b5b6127d082612597565b9050602081019050919050565b828183375f83830152505050565b5f6127fd6127f8846127ad565b612793565b90508281526020810184848401111561281957612818612731565b5b6128248482856127dd565b509392505050565b5f82601f8301126128405761283f61272d565b5b81356128508482602086016127eb565b91505092915050565b5f805f606084860312156128705761286f61242f565b5b5f61287d86828701612530565b935050602084013567ffffffffffffffff81111561289e5761289d612433565b5b6128aa8682870161282c565b925050604084013567ffffffffffffffff8111156128cb576128ca612433565b5b6128d78682870161282c565b9150509250925092565b6128ea816125df565b81146128f4575f80fd5b50565b5f81359050612905816128e1565b92915050565b5f67ffffffffffffffff82111561292557612924612735565b5b602082029050602081019050919050565b5f80fd5b5f61294c6129478461290b565b612793565b9050808382526020820190506020840283018581111561296f5761296e612936565b5b835b818110156129b657803567ffffffffffffffff8111156129945761299361272d565b5b8086016129a1898261282c565b85526020850194505050602081019050612971565b5050509392505050565b5f82601f8301126129d4576129d361272d565b5b81356129e484826020860161293a565b91505092915050565b5f805f8060808587031215612a0557612a0461242f565b5b5f85013567ffffffffffffffff811115612a2257612a21612433565b5b612a2e8782880161282c565b9450506020612a3f878288016128f7565b935050604085013567ffffffffffffffff811115612a6057612a5f612433565b5b612a6c878288016129c0565b9250506060612a7d87828801612530565b91505092959194509250565b5f8060408385031215612a9f57612a9e61242f565b5b5f612aac85828601612530565b925050602083013567ffffffffffffffff811115612acd57612acc612433565b5b612ad98582860161282c565b9150509250929050565b5f60208284031215612af857612af761242f565b5b5f82013567ffffffffffffffff811115612b1557612b14612433565b5b612b218482850161282c565b91505092915050565b5f8060408385031215612b4057612b3f61242f565b5b5f612b4d85828601612530565b9250506020612b5e858286016128f7565b9150509250929050565b5f6080820190508181035f830152612b8081876125a7565b90508181036020830152612b9481866125a7565b9050612ba360408301856125e8565b612bb060608301846125f7565b95945050505050565b5f6060820190508181035f830152612bd181866125a7565b9050612be060208301856124c2565b612bed60408301846125e8565b949350505050565b7f4e487b71000000000000000000000000000000000000000000000000000000005f52602260045260245ffd5b5f6002820490506001821680612c3957607f821691505b602082108103612c4c57612c4b612bf5565b5b50919050565b7f4e6f7420617574686f72697a65640000000000000000000000000000000000005f82015250565b5f612c86600e83612579565b9150612c9182612c52565b602082019050919050565b5f6020820190508181035f830152612cb381612c7a565b9050919050565b7f50617469656e7420646f6573206e6f74206578697374000000000000000000005f82015250565b5f612cee601683612579565b9150612cf982612cba565b602082019050919050565b5f6020820190508181035f830152612d1b81612ce2565b9050919050565b7f4e6f20636f6e73656e7420676976656e000000000000000000000000000000005f82015250565b5f612d56601083612579565b9150612d6182612d22565b602082019050919050565b5f6020820190508181035f830152612d8381612d4a565b9050919050565b5f819050815f5260205f209050919050565b5f6020601f8301049050919050565b5f82821b905092915050565b5f60088302612de67fffffffffffffffffffffffffffffffffffffffffffffffffffffffffffffffff82612dab565b612df08683612dab565b95508019841693508086168417925050509392505050565b5f819050919050565b5f612e2b612e26612e21846125df565b612e08565b6125df565b9050919050565b5f819050919050565b612e4483612e11565b612e58612e5082612e32565b848454612db7565b825550505050565b5f90565b612e6c612e60565b612e77818484612e3b565b505050565b5b81811015612e9a57612e8f5f82612e64565b600181019050612e7d565b5050565b601f821115612edf57612eb081612d8a565b612eb984612d9c565b81016020851015612ec8578190505b612edc612ed485612d9c565b830182612e7c565b50505b505050565b5f82821c905092915050565b5f612eff5f1984600802612ee4565b1980831691505092915050565b5f612f178383612ef0565b9150826002028217905092915050565b612f308261256f565b67ffffffffffffffff811115612f4957612f48612735565b5b612f538254612c22565b612f5e828285612e9e565b5f60209050601f831160018114612f8f575f8415612f7d578287015190505b612f878582612f0c565b865550612fee565b601f198416612f9d86612d8a565b5f5b82811015612fc457848901518255600182019150602085019450602081019050612f9f565b86831015612fe15784890151612fdd601f891682612ef0565b8355505b6001600288020188555050505b505050505050565b7f4e487b71000000000000000000000000000000000000000000000000000000005f52601160045260245ffd5b5f61302d826125df565b91507fffffffffffffffffffffffffffffffffffffffffffffffffffffffffffffffff820361305f5761305e612ff6565b5b600182019050919050565b5f6020820190508181035f83015261308281846125a7565b905092915050565b7f50617469656e7420616c726561647920726567697374657265640000000000005f82015250565b5f6130be601a83612579565b91506130c98261308a565b602082019050919050565b5f6020820190508181035f8301526130eb816130b2565b9050919050565b7f486f73706974616c20616c7265616479207265676973746572656400000000005f82015250565b5f613126601b83612579565b9150613131826130f2565b602082019050919050565b5f6020820190508181035f8301526131538161311a565b9050919050565b7f486f73706974616c206973206e6f7420616374697665000000000000000000005f82015250565b5f61318e601683612579565b91506131998261315a565b602082019050919050565b5f6020820190508181035f8301526131bb81613182565b9050919050565b5f6131cc826125df565b91506131d7836125df565b92508282019050808211156131ef576131ee612ff6565b5b92915050565b5f819050919050565b5f67ffffffffffffffff82169050919050565b5f61322b613226613221846131f5565b612e08565b6131fe565b9050919050565b61323b81613211565b82525050565b5f6020820190506132545f830184613232565b92915050565b7f5265636f726420646f6573206e6f7420657869737400000000000000000000005f82015250565b5f61328e601583612579565b91506132998261325a565b602082019050919050565b5f6020820190508181035f8301526132bb81613282565b9050919050565b5f6020820190506132d55f8301846125f7565b92915050565b7f5061757361626c653a20706175736564000000000000000000000000000000005f82015250565b5f61330f601083612579565b915061331a826132db565b602082019050919050565b5f6020820190508181035f83015261333c81613303565b9050919050565b7f5265656e7472616e637947756172643a207265656e7472616e742063616c6c005f82015250565b5f613377601f83612579565b915061338282613343565b602082019050919050565b5f6020820190508181035f8301526133a48161336b565b9050919050565b5f6040820190506133be5f8301856125f7565b6133cb60208301846126c7565b9392505050565b7f5061757361626c653a206e6f74207061757365640000000000000000000000005f82015250565b5f613406601483612579565b9150613411826133d2565b602082019050919050565b5f6020820190508181035f830152613433816133fa565b905091905056fea264697066735822122044d0fc73aca6c6197d24aa509ad8952cb390275a37e58b9b8a3eaed08f789a1f64736f6c634300081a0033",
					"opcodes": "PUSH1 0x80 PUSH1 0x40 MSTORE CALLVALUE DUP1 ISZERO PUSH1 0xE JUMPI PUSH0 DUP1 REVERT JUMPDEST POP PUSH2 0x3470 DUP1 PUSH2 0x1C PUSH0 CODECOPY PUSH0 RETURN INVALID PUSH1 0x80 PUSH1 0x40 MSTORE CALLVALUE DUP1 ISZERO PUSH2 0xF JUMPI PUSH0 DUP1 REVERT JUMPDEST POP PUSH1 0x4 CALLDATASIZE LT PUSH2 0x1C2 JUMPI PUSH0 CALLDATALOAD PUSH1 0xE0 SHR DUP1 PUSH4 0x8456CB59 GT PUSH2 0xF7 JUMPI DUP1 PUSH4 0xC4D66DE8 GT PUSH2 0x95 JUMPI DUP1 PUSH4 0xD547741F GT PUSH2 0x6F JUMPI DUP1 PUSH4 0xD547741F EQ PUSH2 0x4DE JUMPI DUP1 PUSH4 0xEB2C0223 EQ PUSH2 0x4FA JUMPI DUP1 PUSH4 0xF093CF80 EQ PUSH2 0x516 JUMPI DUP1 PUSH4 0xF6BA6678 EQ PUSH2 0x548 JUMPI PUSH2 0x1C2 JUMP JUMPDEST DUP1 PUSH4 0xC4D66DE8 EQ PUSH2 0x473 JUMPI DUP1 PUSH4 0xCDB8ACF0 EQ PUSH2 0x48F JUMPI DUP1 PUSH4 0xD1A48627 EQ PUSH2 0x4C2 JUMPI PUSH2 0x1C2 JUMP JUMPDEST DUP1 PUSH4 0xA79861F1 GT PUSH2 0xD1 JUMPI DUP1 PUSH4 0xA79861F1 EQ PUSH2 0x401 JUMPI DUP1 PUSH4 0xAABC4280 EQ PUSH2 0x41D JUMPI DUP1 PUSH4 0xAC5CB97D EQ PUSH2 0x439 JUMPI DUP1 PUSH4 0xB696A148 EQ PUSH2 0x457 JUMPI PUSH2 0x1C2 JUMP JUMPDEST DUP1 PUSH4 0x8456CB59 EQ PUSH2 0x3A9 JUMPI DUP1 PUSH4 0x91D14854 EQ PUSH2 0x3B3 JUMPI DUP1 PUSH4 0xA217FDDF EQ PUSH2 0x3E3 JUMPI PUSH2 0x1C2 JUMP JUMPDEST DUP1 PUSH4 0x38D4EA23 GT PUSH2 0x164 JUMPI DUP1 PUSH4 0x3F4BA83A GT PUSH2 0x13E JUMPI DUP1 PUSH4 0x3F4BA83A EQ PUSH2 0x347 JUMPI DUP1 PUSH4 0x4FBAA023 EQ PUSH2 0x351 JUMPI DUP1 PUSH4 0x5C975ABB EQ PUSH2 0x36D JUMPI DUP1 PUSH4 0x75B238FC EQ PUSH2 0x38B JUMPI PUSH2 0x1C2 JUMP JUMPDEST DUP1 PUSH4 0x38D4EA23 EQ PUSH2 0x2DF JUMPI DUP1 PUSH4 0x3B0F4ADA EQ PUSH2 0x2FB JUMPI DUP1 PUSH4 0x3B8B20CB EQ PUSH2 0x32B JUMPI PUSH2 0x1C2 JUMP JUMPDEST DUP1 PUSH4 0x2114EF1F GT PUSH2 0x1A0 JUMPI DUP1 PUSH4 0x2114EF1F EQ PUSH2 0x259 JUMPI DUP1 PUSH4 0x248A9CA3 EQ PUSH2 0x277 JUMPI DUP1 PUSH4 0x2F2FF15D EQ PUSH2 0x2A7 JUMPI DUP1 PUSH4 0x36568ABE EQ PUSH2 0x2C3 JUMPI PUSH2 0x1C2 JUMP JUMPDEST DUP1 PUSH4 0x1FFC9A7 EQ PUSH2 0x1C6 JUMPI DUP1 PUSH4 0x869CFBC EQ PUSH2 0x1F6 JUMPI DUP1 PUSH4 0xA9682AD EQ PUSH2 0x229 JUMPI JUMPDEST PUSH0 DUP1 REVERT JUMPDEST PUSH2 0x1E0 PUSH1 0x4 DUP1 CALLDATASIZE SUB DUP2 ADD SWAP1 PUSH2 0x1DB SWAP2 SWAP1 PUSH2 0x248C JUMP JUMPDEST PUSH2 0x566 JUMP JUMPDEST PUSH1 0x40 MLOAD PUSH2 0x1ED SWAP2 SWAP1 PUSH2 0x24D1 JUMP JUMPDEST PUSH1 0x40 MLOAD DUP1 SWAP2 SUB SWAP1 RETURN JUMPDEST PUSH2 0x210 PUSH1 0x4 DUP1 CALLDATASIZE SUB DUP2 ADD SWAP1 PUSH2 0x20B SWAP2 SWAP1 PUSH2 0x2544 JUMP JUMPDEST PUSH2 0x5DF JUMP JUMPDEST PUSH1 0x40 MLOAD PUSH2 0x220 SWAP5 SWAP4 SWAP3 SWAP2 SWAP1 PUSH2 0x2606 JUMP JUMPDEST PUSH1 0x40 MLOAD DUP1 SWAP2 SUB SWAP1 RETURN JUMPDEST PUSH2 0x243 PUSH1 0x4 DUP1 CALLDATASIZE SUB DUP2 ADD SWAP1 PUSH2 0x23E SWAP2 SWAP1 PUSH2 0x2544 JUMP JUMPDEST PUSH2 0x6BC JUMP JUMPDEST PUSH1 0x40 MLOAD PUSH2 0x250 SWAP2 SWAP1 PUSH2 0x2650 JUMP JUMPDEST PUSH1 0x40 MLOAD DUP1 SWAP2 SUB SWAP1 RETURN JUMPDEST PUSH2 0x261 PUSH2 0x7A1 JUMP JUMPDEST PUSH1 0x40 MLOAD PUSH2 0x26E SWAP2 SWAP1 PUSH2 0x2650 JUMP JUMPDEST PUSH1 0x40 MLOAD DUP1 SWAP2 SUB SWAP1 RETURN JUMPDEST PUSH2 0x291 PUSH1 0x4 DUP1 CALLDATASIZE SUB DUP2 ADD SWAP1 PUSH2 0x28C SWAP2 SWAP1 PUSH2 0x269C JUMP JUMPDEST PUSH2 0x7A8 JUMP JUMPDEST PUSH1 0x40 MLOAD PUSH2 0x29E SWAP2 SWAP1 PUSH2 0x26D6 JUMP JUMPDEST PUSH1 0x40 MLOAD DUP1 SWAP2 SUB SWAP1 RETURN JUMPDEST PUSH2 0x2C1 PUSH1 0x4 DUP1 CALLDATASIZE SUB DUP2 ADD SWAP1 PUSH2 0x2BC SWAP2 SWAP1 PUSH2 0x26EF JUMP JUMPDEST PUSH2 0x7D2 JUMP JUMPDEST STOP JUMPDEST PUSH2 0x2DD PUSH1 0x4 DUP1 CALLDATASIZE SUB DUP2 ADD SWAP1 PUSH2 0x2D8 SWAP2 SWAP1 PUSH2 0x26EF JUMP JUMPDEST PUSH2 0x7F4 JUMP JUMPDEST STOP JUMPDEST PUSH2 0x2F9 PUSH1 0x4 DUP1 CALLDATASIZE SUB DUP2 ADD SWAP1 PUSH2 0x2F4 SWAP2 SWAP1 PUSH2 0x2859 JUMP JUMPDEST PUSH2 0x86F JUMP JUMPDEST STOP JUMPDEST PUSH2 0x315 PUSH1 0x4 DUP1 CALLDATASIZE SUB DUP2 ADD SWAP1 PUSH2 0x310 SWAP2 SWAP1 PUSH2 0x2544 JUMP JUMPDEST PUSH2 0xBFA JUMP JUMPDEST PUSH1 0x40 MLOAD PUSH2 0x322 SWAP2 SWAP1 PUSH2 0x24D1 JUMP JUMPDEST PUSH1 0x40 MLOAD DUP1 SWAP2 SUB SWAP1 RETURN JUMPDEST PUSH2 0x345 PUSH1 0x4 DUP1 CALLDATASIZE SUB DUP2 ADD SWAP1 PUSH2 0x340 SWAP2 SWAP1 PUSH2 0x29ED JUMP JUMPDEST PUSH2 0xC43 JUMP JUMPDEST STOP JUMPDEST PUSH2 0x34F PUSH2 0xE6F JUMP JUMPDEST STOP JUMPDEST PUSH2 0x36B PUSH1 0x4 DUP1 CALLDATASIZE SUB DUP2 ADD SWAP1 PUSH2 0x366 SWAP2 SWAP1 PUSH2 0x2A89 JUMP JUMPDEST PUSH2 0xEA4 JUMP JUMPDEST STOP JUMPDEST PUSH2 0x375 PUSH2 0x1074 JUMP JUMPDEST PUSH1 0x40 MLOAD PUSH2 0x382 SWAP2 SWAP1 PUSH2 0x24D1 JUMP JUMPDEST PUSH1 0x40 MLOAD DUP1 SWAP2 SUB SWAP1 RETURN JUMPDEST PUSH2 0x393 PUSH2 0x1088 JUMP JUMPDEST PUSH1 0x40 MLOAD PUSH2 0x3A0 SWAP2 SWAP1 PUSH2 0x26D6 JUMP JUMPDEST PUSH1 0x40 MLOAD DUP1 SWAP2 SUB SWAP1 RETURN JUMPDEST PUSH2 0x3B1 PUSH2 0x10AC JUMP JUMPDEST STOP JUMPDEST PUSH2 0x3CD PUSH1 0x4 DUP1 CALLDATASIZE SUB DUP2 ADD SWAP1 PUSH2 0x3C8 SWAP2 SWAP1 PUSH2 0x26EF JUMP JUMPDEST PUSH2 0x10E1 JUMP JUMPDEST PUSH1 0x40 MLOAD PUSH2 0x3DA SWAP2 SWAP1 PUSH2 0x24D1 JUMP JUMPDEST PUSH1 0x40 MLOAD DUP1 SWAP2 SUB SWAP1 RETURN JUMPDEST PUSH2 0x3EB PUSH2 0x1152 JUMP JUMPDEST PUSH1 0x40 MLOAD PUSH2 0x3F8 SWAP2 SWAP1 PUSH2 0x26D6 JUMP JUMPDEST PUSH1 0x40 MLOAD DUP1 SWAP2 SUB SWAP1 RETURN JUMPDEST PUSH2 0x41B PUSH1 0x4 DUP1 CALLDATASIZE SUB DUP2 ADD SWAP1 PUSH2 0x416 SWAP2 SWAP1 PUSH2 0x2544 JUMP JUMPDEST PUSH2 0x1158 JUMP JUMPDEST STOP JUMPDEST PUSH2 0x437 PUSH1 0x4 DUP1 CALLDATASIZE SUB DUP2 ADD SWAP1 PUSH2 0x432 SWAP2 SWAP1 PUSH2 0x2544 JUMP JUMPDEST PUSH2 0x1304 JUMP JUMPDEST STOP JUMPDEST PUSH2 0x441 PUSH2 0x14B8 JUMP JUMPDEST PUSH1 0x40 MLOAD PUSH2 0x44E SWAP2 SWAP1 PUSH2 0x26D6 JUMP JUMPDEST PUSH1 0x40 MLOAD DUP1 SWAP2 SUB SWAP1 RETURN JUMPDEST PUSH2 0x471 PUSH1 0x4 DUP1 CALLDATASIZE SUB DUP2 ADD SWAP1 PUSH2 0x46C SWAP2 SWAP1 PUSH2 0x2AE3 JUMP JUMPDEST PUSH2 0x14DC JUMP JUMPDEST STOP JUMPDEST PUSH2 0x48D PUSH1 0x4 DUP1 CALLDATASIZE SUB DUP2 ADD SWAP1 PUSH2 0x488 SWAP2 SWAP1 PUSH2 0x2544 JUMP JUMPDEST PUSH2 0x1560 JUMP JUMPDEST STOP JUMPDEST PUSH2 0x4A9 PUSH1 0x4 DUP1 CALLDATASIZE SUB DUP2 ADD SWAP1 PUSH2 0x4A4 SWAP2 SWAP1 PUSH2 0x2B2A JUMP JUMPDEST PUSH2 0x1728 JUMP JUMPDEST PUSH1 0x40 MLOAD PUSH2 0x4B9 SWAP5 SWAP4 SWAP3 SWAP2 SWAP1 PUSH2 0x2B68 JUMP JUMPDEST PUSH1 0x40 MLOAD DUP1 SWAP2 SUB SWAP1 RETURN JUMPDEST PUSH2 0x4DC PUSH1 0x4 DUP1 CALLDATASIZE SUB DUP2 ADD SWAP1 PUSH2 0x4D7 SWAP2 SWAP1 PUSH2 0x2544 JUMP JUMPDEST PUSH2 0x1B52 JUMP JUMPDEST STOP JUMPDEST PUSH2 0x4F8 PUSH1 0x4 DUP1 CALLDATASIZE SUB DUP2 ADD SWAP1 PUSH2 0x4F3 SWAP2 SWAP1 PUSH2 0x26EF JUMP JUMPDEST PUSH2 0x1C71 JUMP JUMPDEST STOP JUMPDEST PUSH2 0x514 PUSH1 0x4 DUP1 CALLDATASIZE SUB DUP2 ADD SWAP1 PUSH2 0x50F SWAP2 SWAP1 PUSH2 0x2544 JUMP JUMPDEST PUSH2 0x1C93 JUMP JUMPDEST STOP JUMPDEST PUSH2 0x530 PUSH1 0x4 DUP1 CALLDATASIZE SUB DUP2 ADD SWAP1 PUSH2 0x52B SWAP2 SWAP1 PUSH2 0x2544 JUMP JUMPDEST PUSH2 0x1CF8 JUMP JUMPDEST PUSH1 0x40 MLOAD PUSH2 0x53F SWAP4 SWAP3 SWAP2 SWAP1 PUSH2 0x2BB9 JUMP JUMPDEST PUSH1 0x40 MLOAD DUP1 SWAP2 SUB SWAP1 RETURN JUMPDEST PUSH2 0x550 PUSH2 0x1DB0 JUMP JUMPDEST PUSH1 0x40 MLOAD PUSH2 0x55D SWAP2 SWAP1 PUSH2 0x26D6 JUMP JUMPDEST PUSH1 0x40 MLOAD DUP1 SWAP2 SUB SWAP1 RETURN JUMPDEST PUSH0 PUSH32 0x7965DB0B00000000000000000000000000000000000000000000000000000000 PUSH28 0xFFFFFFFFFFFFFFFFFFFFFFFFFFFFFFFFFFFFFFFFFFFFFFFFFFFFFFFF NOT AND DUP3 PUSH28 0xFFFFFFFFFFFFFFFFFFFFFFFFFFFFFFFFFFFFFFFFFFFFFFFFFFFFFFFF NOT AND EQ DUP1 PUSH2 0x5D8 JUMPI POP PUSH2 0x5D7 DUP3 PUSH2 0x1DD4 JUMP JUMPDEST JUMPDEST SWAP1 POP SWAP2 SWAP1 POP JUMP JUMPDEST PUSH1 0x65 PUSH1 0x20 MSTORE DUP1 PUSH0 MSTORE PUSH1 0x40 PUSH0 KECCAK256 PUSH0 SWAP2 POP SWAP1 POP DUP1 PUSH0 ADD DUP1 SLOAD PUSH2 0x5FE SWAP1 PUSH2 0x2C22 JUMP JUMPDEST DUP1 PUSH1 0x1F ADD PUSH1 0x20 DUP1 SWAP2 DIV MUL PUSH1 0x20 ADD PUSH1 0x40 MLOAD SWAP1 DUP2 ADD PUSH1 0x40 MSTORE DUP1 SWAP3 SWAP2 SWAP1 DUP2 DUP2 MSTORE PUSH1 0x20 ADD DUP3 DUP1 SLOAD PUSH2 0x62A SWAP1 PUSH2 0x2C22 JUMP JUMPDEST DUP1 ISZERO PUSH2 0x675 JUMPI DUP1 PUSH1 0x1F LT PUSH2 0x64C JUMPI PUSH2 0x100 DUP1 DUP4 SLOAD DIV MUL DUP4 MSTORE SWAP2 PUSH1 0x20 ADD SWAP2 PUSH2 0x675 JUMP JUMPDEST DUP3 ADD SWAP2 SWAP1 PUSH0 MSTORE PUSH1 0x20 PUSH0 KECCAK256 SWAP1 JUMPDEST DUP2 SLOAD DUP2 MSTORE SWAP1 PUSH1 0x1 ADD SWAP1 PUSH1 0x20 ADD DUP1 DUP4 GT PUSH2 0x658 JUMPI DUP3 SWAP1 SUB PUSH1 0x1F AND DUP3 ADD SWAP2 JUMPDEST POP POP POP POP POP SWAP1 DUP1 PUSH1 0x1 ADD SLOAD SWAP1 DUP1 PUSH1 0x2 ADD PUSH0 SWAP1 SLOAD SWAP1 PUSH2 0x100 EXP SWAP1 DIV PUSH1 0xFF AND SWAP1 DUP1 PUSH1 0x4 ADD PUSH0 SWAP1 SLOAD SWAP1 PUSH2 0x100 EXP SWAP1 DIV PUSH20 0xFFFFFFFFFFFFFFFFFFFFFFFFFFFFFFFFFFFFFFFF AND SWAP1 POP DUP5 JUMP JUMPDEST PUSH0 PUSH2 0x6E7 PUSH32 0xC8F5B4140CCA307CD927E59CBEEA8291BFFEEE228FC677F0FA059AEF7B4DD8D5 CALLER PUSH2 0x10E1 JUMP JUMPDEST DUP1 PUSH2 0x71D JUMPI POP DUP2 PUSH20 0xFFFFFFFFFFFFFFFFFFFFFFFFFFFFFFFFFFFFFFFF AND CALLER PUSH20 0xFFFFFFFFFFFFFFFFFFFFFFFFFFFFFFFFFFFFFFFF AND EQ JUMPDEST PUSH2 0x75C JUMPI PUSH1 0x40 MLOAD PUSH32 0x8C379A000000000000000000000000000000000000000000000000000000000 DUP2 MSTORE PUSH1 0x4 ADD PUSH2 0x753 SWAP1 PUSH2 0x2C9C JUMP JUMPDEST PUSH1 0x40 MLOAD DUP1 SWAP2 SUB SWAP1 REVERT JUMPDEST PUSH1 0x67 PUSH0 DUP4 PUSH20 0xFFFFFFFFFFFFFFFFFFFFFFFFFFFFFFFFFFFFFFFF AND PUSH20 0xFFFFFFFFFFFFFFFFFFFFFFFFFFFFFFFFFFFFFFFF AND DUP2 MSTORE PUSH1 0x20 ADD SWAP1 DUP2 MSTORE PUSH1 0x20 ADD PUSH0 KECCAK256 SLOAD SWAP1 POP SWAP2 SWAP1 POP JUMP JUMPDEST PUSH3 0x15180 DUP2 JUMP JUMPDEST PUSH0 DUP1 PUSH2 0x7B2 PUSH2 0x1E3D JUMP JUMPDEST SWAP1 POP DUP1 PUSH0 ADD PUSH0 DUP5 DUP2 MSTORE PUSH1 0x20 ADD SWAP1 DUP2 MSTORE PUSH1 0x20 ADD PUSH0 KECCAK256 PUSH1 0x1 ADD SLOAD SWAP2 POP POP SWAP2 SWAP1 POP JUMP JUMPDEST PUSH2 0x7DB DUP3 PUSH2 0x7A8 JUMP JUMPDEST PUSH2 0x7E4 DUP2 PUSH2 0x1E64 JUMP JUMPDEST PUSH2 0x7EE DUP4 DUP4 PUSH2 0x1E78 JUMP JUMPDEST POP POP POP POP JUMP JUMPDEST PUSH2 0x7FC PUSH2 0x1F70 JUMP JUMPDEST PUSH20 0xFFFFFFFFFFFFFFFFFFFFFFFFFFFFFFFFFFFFFFFF AND DUP2 PUSH20 0xFFFFFFFFFFFFFFFFFFFFFFFFFFFFFFFFFFFFFFFF AND EQ PUSH2 0x860 JUMPI PUSH1 0x40 MLOAD PUSH32 0x6697B23200000000000000000000000000000000000000000000000000000000 DUP2 MSTORE PUSH1 0x4 ADD PUSH1 0x40 MLOAD DUP1 SWAP2 SUB SWAP1 REVERT JUMPDEST PUSH2 0x86A DUP3 DUP3 PUSH2 0x1F77 JUMP JUMPDEST POP POP POP JUMP JUMPDEST PUSH32 0xC8F5B4140CCA307CD927E59CBEEA8291BFFEEE228FC677F0FA059AEF7B4DD8D5 PUSH2 0x899 DUP2 PUSH2 0x1E64 JUMP JUMPDEST PUSH2 0x8A1 PUSH2 0x206F JUMP JUMPDEST PUSH2 0x8A9 PUSH2 0x20B9 JUMP JUMPDEST PUSH1 0x65 PUSH0 DUP6 PUSH20 0xFFFFFFFFFFFFFFFFFFFFFFFFFFFFFFFFFFFFFFFF AND PUSH20 0xFFFFFFFFFFFFFFFFFFFFFFFFFFFFFFFFFFFFFFFF AND DUP2 MSTORE PUSH1 0x20 ADD SWAP1 DUP2 MSTORE PUSH1 0x20 ADD PUSH0 KECCAK256 PUSH1 0x2 ADD PUSH0 SWAP1 SLOAD SWAP1 PUSH2 0x100 EXP SWAP1 DIV PUSH1 0xFF AND PUSH2 0x935 JUMPI PUSH1 0x40 MLOAD PUSH32 0x8C379A000000000000000000000000000000000000000000000000000000000 DUP2 MSTORE PUSH1 0x4 ADD PUSH2 0x92C SWAP1 PUSH2 0x2D04 JUMP JUMPDEST PUSH1 0x40 MLOAD DUP1 SWAP2 SUB SWAP1 REVERT JUMPDEST PUSH1 0x68 PUSH0 DUP6 PUSH20 0xFFFFFFFFFFFFFFFFFFFFFFFFFFFFFFFFFFFFFFFF AND PUSH20 0xFFFFFFFFFFFFFFFFFFFFFFFFFFFFFFFFFFFFFFFF AND DUP2 MSTORE PUSH1 0x20 ADD SWAP1 DUP2 MSTORE PUSH1 0x20 ADD PUSH0 KECCAK256 PUSH0 CALLER PUSH20 0xFFFFFFFFFFFFFFFFFFFFFFFFFFFFFFFFFFFFFFFF AND PUSH20 0xFFFFFFFFFFFFFFFFFFFFFFFFFFFFFFFFFFFFFFFF AND DUP2 MSTORE PUSH1 0x20 ADD SWAP1 DUP2 MSTORE PUSH1 0x20 ADD PUSH0 KECCAK256 PUSH0 SWAP1 SLOAD SWAP1 PUSH2 0x100 EXP SWAP1 DIV PUSH1 0xFF AND DUP1 PUSH2 0x9CA JUMPI POP PUSH2 0x9C9 CALLER PUSH2 0xBFA JUMP JUMPDEST JUMPDEST PUSH2 0xA09 JUMPI PUSH1 0x40 MLOAD PUSH32 0x8C379A000000000000000000000000000000000000000000000000000000000 DUP2 MSTORE PUSH1 0x4 ADD PUSH2 0xA00 SWAP1 PUSH2 0x2D6C JUMP JUMPDEST PUSH1 0x40 MLOAD DUP1 SWAP2 SUB SWAP1 REVERT JUMPDEST PUSH0 PUSH1 0x67 PUSH0 DUP7 PUSH20 0xFFFFFFFFFFFFFFFFFFFFFFFFFFFFFFFFFFFFFFFF AND PUSH20 0xFFFFFFFFFFFFFFFFFFFFFFFFFFFFFFFFFFFFFFFF AND DUP2 MSTORE PUSH1 0x20 ADD SWAP1 DUP2 MSTORE PUSH1 0x20 ADD PUSH0 KECCAK256 SLOAD SWAP1 POP PUSH1 0x40 MLOAD DUP1 PUSH1 0x80 ADD PUSH1 0x40 MSTORE DUP1 DUP6 DUP2 MSTORE PUSH1 0x20 ADD DUP5 DUP2 MSTORE PUSH1 0x20 ADD TIMESTAMP DUP2 MSTORE PUSH1 0x20 ADD CALLER PUSH20 0xFFFFFFFFFFFFFFFFFFFFFFFFFFFFFFFFFFFFFFFF AND DUP2 MSTORE POP PUSH1 0x66 PUSH0 DUP8 PUSH20 0xFFFFFFFFFFFFFFFFFFFFFFFFFFFFFFFFFFFFFFFF AND PUSH20 0xFFFFFFFFFFFFFFFFFFFFFFFFFFFFFFFFFFFFFFFF AND DUP2 MSTORE PUSH1 0x20 ADD SWAP1 DUP2 MSTORE PUSH1 0x20 ADD PUSH0 KECCAK256 PUSH0 DUP4 DUP2 MSTORE PUSH1 0x20 ADD SWAP1 DUP2 MSTORE PUSH1 0x20 ADD PUSH0 KECCAK256 PUSH0 DUP3 ADD MLOAD DUP2 PUSH0 ADD SWAP1 DUP2 PUSH2 0xAE0 SWAP2 SWAP1 PUSH2 0x2F27 JUMP JUMPDEST POP PUSH1 0x20 DUP3 ADD MLOAD DUP2 PUSH1 0x1 ADD SWAP1 DUP2 PUSH2 0xAF6 SWAP2 SWAP1 PUSH2 0x2F27 JUMP JUMPDEST POP PUSH1 0x40 DUP3 ADD MLOAD DUP2 PUSH1 0x2 ADD SSTORE PUSH1 0x60 DUP3 ADD MLOAD DUP2 PUSH1 0x3 ADD PUSH0 PUSH2 0x100 EXP DUP2 SLOAD DUP2 PUSH20 0xFFFFFFFFFFFFFFFFFFFFFFFFFFFFFFFFFFFFFFFF MUL NOT AND SWAP1 DUP4 PUSH20 0xFFFFFFFFFFFFFFFFFFFFFFFFFFFFFFFFFFFFFFFF AND MUL OR SWAP1 SSTORE POP SWAP1 POP POP PUSH1 0x67 PUSH0 DUP7 PUSH20 0xFFFFFFFFFFFFFFFFFFFFFFFFFFFFFFFFFFFFFFFF AND PUSH20 0xFFFFFFFFFFFFFFFFFFFFFFFFFFFFFFFFFFFFFFFF AND DUP2 MSTORE PUSH1 0x20 ADD SWAP1 DUP2 MSTORE PUSH1 0x20 ADD PUSH0 KECCAK256 PUSH0 DUP2 SLOAD DUP1 SWAP3 SWAP2 SWAP1 PUSH2 0xB97 SWAP1 PUSH2 0x3023 JUMP JUMPDEST SWAP2 SWAP1 POP SSTORE POP DUP1 DUP6 PUSH20 0xFFFFFFFFFFFFFFFFFFFFFFFFFFFFFFFFFFFFFFFF AND PUSH32 0x5ECFBF1E7F7F5EF4109BAA2A3726CE1AECB710B577C94CD08A8E5BC9D38639F3 DUP6 PUSH1 0x40 MLOAD PUSH2 0xBE3 SWAP2 SWAP1 PUSH2 0x306A JUMP JUMPDEST PUSH1 0x40 MLOAD DUP1 SWAP2 SUB SWAP1 LOG3 POP PUSH2 0xBF4 PUSH2 0x2108 JUMP JUMPDEST POP POP POP POP JUMP JUMPDEST PUSH0 PUSH1 0x69 PUSH0 DUP4 PUSH20 0xFFFFFFFFFFFFFFFFFFFFFFFFFFFFFFFFFFFFFFFF AND PUSH20 0xFFFFFFFFFFFFFFFFFFFFFFFFFFFFFFFFFFFFFFFF AND DUP2 MSTORE PUSH1 0x20 ADD SWAP1 DUP2 MSTORE PUSH1 0x20 ADD PUSH0 KECCAK256 SLOAD TIMESTAMP GT ISZERO SWAP1 POP SWAP2 SWAP1 POP JUMP JUMPDEST PUSH1 0x65 PUSH0 CALLER PUSH20 0xFFFFFFFFFFFFFFFFFFFFFFFFFFFFFFFFFFFFFFFF AND PUSH20 0xFFFFFFFFFFFFFFFFFFFFFFFFFFFFFFFFFFFFFFFF AND DUP2 MSTORE PUSH1 0x20 ADD SWAP1 DUP2 MSTORE PUSH1 0x20 ADD PUSH0 KECCAK256 PUSH1 0x2 ADD PUSH0 SWAP1 SLOAD SWAP1 PUSH2 0x100 EXP SWAP1 DIV PUSH1 0xFF AND ISZERO PUSH2 0xCD0 JUMPI PUSH1 0x40 MLOAD PUSH32 0x8C379A000000000000000000000000000000000000000000000000000000000 DUP2 MSTORE PUSH1 0x4 ADD PUSH2 0xCC7 SWAP1 PUSH2 0x30D4 JUMP JUMPDEST PUSH1 0x40 MLOAD DUP1 SWAP2 SUB SWAP1 REVERT JUMPDEST PUSH1 0x40 MLOAD DUP1 PUSH1 0xA0 ADD PUSH1 0x40 MSTORE DUP1 DUP6 DUP2 MSTORE PUSH1 0x20 ADD DUP5 DUP2 MSTORE PUSH1 0x20 ADD PUSH1 0x1 ISZERO ISZERO DUP2 MSTORE PUSH1 0x20 ADD DUP4 DUP2 MSTORE PUSH1 0x20 ADD DUP3 PUSH20 0xFFFFFFFFFFFFFFFFFFFFFFFFFFFFFFFFFFFFFFFF AND DUP2 MSTORE POP PUSH1 0x65 PUSH0 CALLER PUSH20 0xFFFFFFFFFFFFFFFFFFFFFFFFFFFFFFFFFFFFFFFF AND PUSH20 0xFFFFFFFFFFFFFFFFFFFFFFFFFFFFFFFFFFFFFFFF AND DUP2 MSTORE PUSH1 0x20 ADD SWAP1 DUP2 MSTORE PUSH1 0x20 ADD PUSH0 KECCAK256 PUSH0 DUP3 ADD MLOAD DUP2 PUSH0 ADD SWAP1 DUP2 PUSH2 0xD60 SWAP2 SWAP1 PUSH2 0x2F27 JUMP JUMPDEST POP PUSH1 0x20 DUP3 ADD MLOAD DUP2 PUSH1 0x1 ADD SSTORE PUSH1 0x40 DUP3 ADD MLOAD DUP2 PUSH1 0x2 ADD PUSH0 PUSH2 0x100 EXP DUP2 SLOAD DUP2 PUSH1 0xFF MUL NOT AND SWAP1 DUP4 ISZERO ISZERO MUL OR SWAP1 SSTORE POP PUSH1 0x60 DUP3 ADD MLOAD DUP2 PUSH1 0x3 ADD SWAP1 DUP1 MLOAD SWAP1 PUSH1 0x20 ADD SWAP1 PUSH2 0xDA6 SWAP3 SWAP2 SWAP1 PUSH2 0x2354 JUMP JUMPDEST POP PUSH1 0x80 DUP3 ADD MLOAD DUP2 PUSH1 0x4 ADD PUSH0 PUSH2 0x100 EXP DUP2 SLOAD DUP2 PUSH20 0xFFFFFFFFFFFFFFFFFFFFFFFFFFFFFFFFFFFFFFFF MUL NOT AND SWAP1 DUP4 PUSH20 0xFFFFFFFFFFFFFFFFFFFFFFFFFFFFFFFFFFFFFFFF AND MUL OR SWAP1 SSTORE POP SWAP1 POP POP PUSH2 0xE1A PUSH32 0x72606200FAC42B7DC86B75901D61ECFAB2A4A1A6EDED478B97A428094891ABED CALLER PUSH2 0x1E78 JUMP JUMPDEST POP CALLER PUSH20 0xFFFFFFFFFFFFFFFFFFFFFFFFFFFFFFFFFFFFFFFF AND PUSH32 0xC85B128388B9C331A2A5485DCE4CD0F3DB9F7C279D327CE95D6D39D6C94644C7 DUP6 PUSH1 0x40 MLOAD PUSH2 0xE61 SWAP2 SWAP1 PUSH2 0x306A JUMP JUMPDEST PUSH1 0x40 MLOAD DUP1 SWAP2 SUB SWAP1 LOG2 POP POP POP POP JUMP JUMPDEST PUSH32 0xA49807205CE4D355092EF5A8A18F56E8913CF4A201FBE287825B095693C21775 PUSH2 0xE99 DUP2 PUSH2 0x1E64 JUMP JUMPDEST PUSH2 0xEA1 PUSH2 0x2112 JUMP JUMPDEST POP JUMP JUMPDEST PUSH32 0xA49807205CE4D355092EF5A8A18F56E8913CF4A201FBE287825B095693C21775 PUSH2 0xECE DUP2 PUSH2 0x1E64 JUMP JUMPDEST PUSH1 0x64 PUSH0 DUP5 PUSH20 0xFFFFFFFFFFFFFFFFFFFFFFFFFFFFFFFFFFFFFFFF AND PUSH20 0xFFFFFFFFFFFFFFFFFFFFFFFFFFFFFFFFFFFFFFFF AND DUP2 MSTORE PUSH1 0x20 ADD SWAP1 DUP2 MSTORE PUSH1 0x20 ADD PUSH0 KECCAK256 PUSH1 0x1 ADD PUSH0 SWAP1 SLOAD SWAP1 PUSH2 0x100 EXP SWAP1 DIV PUSH1 0xFF AND ISZERO PUSH2 0xF5B JUMPI PUSH1 0x40 MLOAD PUSH32 0x8C379A000000000000000000000000000000000000000000000000000000000 DUP2 MSTORE PUSH1 0x4 ADD PUSH2 0xF52 SWAP1 PUSH2 0x313C JUMP JUMPDEST PUSH1 0x40 MLOAD DUP1 SWAP2 SUB SWAP1 REVERT JUMPDEST PUSH1 0x40 MLOAD DUP1 PUSH1 0x60 ADD PUSH1 0x40 MSTORE DUP1 DUP4 DUP2 MSTORE PUSH1 0x20 ADD PUSH1 0x1 ISZERO ISZERO DUP2 MSTORE PUSH1 0x20 ADD TIMESTAMP DUP2 MSTORE POP PUSH1 0x64 PUSH0 DUP6 PUSH20 0xFFFFFFFFFFFFFFFFFFFFFFFFFFFFFFFFFFFFFFFF AND PUSH20 0xFFFFFFFFFFFFFFFFFFFFFFFFFFFFFFFFFFFFFFFF AND DUP2 MSTORE PUSH1 0x20 ADD SWAP1 DUP2 MSTORE PUSH1 0x20 ADD PUSH0 KECCAK256 PUSH0 DUP3 ADD MLOAD DUP2 PUSH0 ADD SWAP1 DUP2 PUSH2 0xFC9 SWAP2 SWAP1 PUSH2 0x2F27 JUMP JUMPDEST POP PUSH1 0x20 DUP3 ADD MLOAD DUP2 PUSH1 0x1 ADD PUSH0 PUSH2 0x100 EXP DUP2 SLOAD DUP2 PUSH1 0xFF MUL NOT AND SWAP1 DUP4 ISZERO ISZERO MUL OR SWAP1 SSTORE POP PUSH1 0x40 DUP3 ADD MLOAD DUP2 PUSH1 0x2 ADD SSTORE SWAP1 POP POP PUSH2 0x1020 PUSH32 0xC8F5B4140CCA307CD927E59CBEEA8291BFFEEE228FC677F0FA059AEF7B4DD8D5 DUP5 PUSH2 0x1E78 JUMP JUMPDEST POP DUP3 PUSH20 0xFFFFFFFFFFFFFFFFFFFFFFFFFFFFFFFFFFFFFFFF AND PUSH32 0x72CEFCCB74B7EDACB21023A72B39A2CECB1123BA70D1EEA03D3509D046B941C2 DUP4 PUSH1 0x40 MLOAD PUSH2 0x1067 SWAP2 SWAP1 PUSH2 0x306A JUMP JUMPDEST PUSH1 0x40 MLOAD DUP1 SWAP2 SUB SWAP1 LOG2 POP POP POP JUMP JUMPDEST PUSH0 DUP1 PUSH0 SWAP1 SLOAD SWAP1 PUSH2 0x100 EXP SWAP1 DIV PUSH1 0xFF AND SWAP1 POP SWAP1 JUMP JUMPDEST PUSH32 0xA49807205CE4D355092EF5A8A18F56E8913CF4A201FBE287825B095693C21775 DUP2 JUMP JUMPDEST PUSH32 0xA49807205CE4D355092EF5A8A18F56E8913CF4A201FBE287825B095693C21775 PUSH2 0x10D6 DUP2 PUSH2 0x1E64 JUMP JUMPDEST PUSH2 0x10DE PUSH2 0x2172 JUMP JUMPDEST POP JUMP JUMPDEST PUSH0 DUP1 PUSH2 0x10EB PUSH2 0x1E3D JUMP JUMPDEST SWAP1 POP DUP1 PUSH0 ADD PUSH0 DUP6 DUP2 MSTORE PUSH1 0x20 ADD SWAP1 DUP2 MSTORE PUSH1 0x20 ADD PUSH0 KECCAK256 PUSH0 ADD PUSH0 DUP5 PUSH20 0xFFFFFFFFFFFFFFFFFFFFFFFFFFFFFFFFFFFFFFFF AND PUSH20 0xFFFFFFFFFFFFFFFFFFFFFFFFFFFFFFFFFFFFFFFF AND DUP2 MSTORE PUSH1 0x20 ADD SWAP1 DUP2 MSTORE PUSH1 0x20 ADD PUSH0 KECCAK256 PUSH0 SWAP1 SLOAD SWAP1 PUSH2 0x100 EXP SWAP1 DIV PUSH1 0xFF AND SWAP2 POP POP SWAP3 SWAP2 POP POP JUMP JUMPDEST PUSH0 DUP1 SHL DUP2 JUMP JUMPDEST PUSH32 0x72606200FAC42B7DC86B75901D61ECFAB2A4A1A6EDED478B97A428094891ABED PUSH2 0x1182 DUP2 PUSH2 0x1E64 JUMP JUMPDEST PUSH2 0x118A PUSH2 0x206F JUMP JUMPDEST PUSH1 0x64 PUSH0 DUP4 PUSH20 0xFFFFFFFFFFFFFFFFFFFFFFFFFFFFFFFFFFFFFFFF AND PUSH20 0xFFFFFFFFFFFFFFFFFFFFFFFFFFFFFFFFFFFFFFFF AND DUP2 MSTORE PUSH1 0x20 ADD SWAP1 DUP2 MSTORE PUSH1 0x20 ADD PUSH0 KECCAK256 PUSH1 0x1 ADD PUSH0 SWAP1 SLOAD SWAP1 PUSH2 0x100 EXP SWAP1 DIV PUSH1 0xFF AND PUSH2 0x1216 JUMPI PUSH1 0x40 MLOAD PUSH32 0x8C379A000000000000000000000000000000000000000000000000000000000 DUP2 MSTORE PUSH1 0x4 ADD PUSH2 0x120D SWAP1 PUSH2 0x31A4 JUMP JUMPDEST PUSH1 0x40 MLOAD DUP1 SWAP2 SUB SWAP1 REVERT JUMPDEST PUSH1 0x1 PUSH1 0x68 PUSH0 CALLER PUSH20 0xFFFFFFFFFFFFFFFFFFFFFFFFFFFFFFFFFFFFFFFF AND PUSH20 0xFFFFFFFFFFFFFFFFFFFFFFFFFFFFFFFFFFFFFFFF AND DUP2 MSTORE PUSH1 0x20 ADD SWAP1 DUP2 MSTORE PUSH1 0x20 ADD PUSH0 KECCAK256 PUSH0 DUP5 PUSH20 0xFFFFFFFFFFFFFFFFFFFFFFFFFFFFFFFFFFFFFFFF AND PUSH20 0xFFFFFFFFFFFFFFFFFFFFFFFFFFFFFFFFFFFFFFFF AND DUP2 MSTORE PUSH1 0x20 ADD SWAP1 DUP2 MSTORE PUSH1 0x20 ADD PUSH0 KECCAK256 PUSH0 PUSH2 0x100 EXP DUP2 SLOAD DUP2 PUSH1 0xFF MUL NOT AND SWAP1 DUP4 ISZERO ISZERO MUL OR SWAP1 SSTORE POP DUP2 PUSH20 0xFFFFFFFFFFFFFFFFFFFFFFFFFFFFFFFFFFFFFFFF AND CALLER PUSH20 0xFFFFFFFFFFFFFFFFFFFFFFFFFFFFFFFFFFFFFFFF AND PUSH32 0x8105C574D2239A3A4F73F5EFC5BC253CFFB275647DF535ADFA2C240739CC9220 PUSH1 0x40 MLOAD PUSH1 0x40 MLOAD DUP1 SWAP2 SUB SWAP1 LOG3 POP POP JUMP JUMPDEST PUSH32 0x72606200FAC42B7DC86B75901D61ECFAB2A4A1A6EDED478B97A428094891ABED PUSH2 0x132E DUP2 PUSH2 0x1E64 JUMP JUMPDEST PUSH2 0x1336 PUSH2 0x206F JUMP JUMPDEST PUSH1 0x64 PUSH0 DUP4 PUSH20 0xFFFFFFFFFFFFFFFFFFFFFFFFFFFFFFFFFFFFFFFF AND PUSH20 0xFFFFFFFFFFFFFFFFFFFFFFFFFFFFFFFFFFFFFFFF AND DUP2 MSTORE PUSH1 0x20 ADD SWAP1 DUP2 MSTORE PUSH1 0x20 ADD PUSH0 KECCAK256 PUSH1 0x1 ADD PUSH0 SWAP1 SLOAD SWAP1 PUSH2 0x100 EXP SWAP1 DIV PUSH1 0xFF AND PUSH2 0x13C2 JUMPI PUSH1 0x40 MLOAD PUSH32 0x8C379A000000000000000000000000000000000000000000000000000000000 DUP2 MSTORE PUSH1 0x4 ADD PUSH2 0x13B9 SWAP1 PUSH2 0x31A4 JUMP JUMPDEST PUSH1 0x40 MLOAD DUP1 SWAP2 SUB SWAP1 REVERT JUMPDEST PUSH3 0x15180 TIMESTAMP PUSH2 0x13D1 SWAP2 SWAP1 PUSH2 0x31C2 JUMP JUMPDEST PUSH1 0x69 PUSH0 DUP5 PUSH20 0xFFFFFFFFFFFFFFFFFFFFFFFFFFFFFFFFFFFFFFFF AND PUSH20 0xFFFFFFFFFFFFFFFFFFFFFFFFFFFFFFFFFFFFFFFF AND DUP2 MSTORE PUSH1 0x20 ADD SWAP1 DUP2 MSTORE PUSH1 0x20 ADD PUSH0 KECCAK256 DUP2 SWAP1 SSTORE POP DUP2 PUSH20 0xFFFFFFFFFFFFFFFFFFFFFFFFFFFFFFFFFFFFFFFF AND CALLER PUSH20 0xFFFFFFFFFFFFFFFFFFFFFFFFFFFFFFFFFFFFFFFF AND PUSH32 0x5D1675D647FD82D7866123D4B61E400E9B9CD41946AE22001974C31E8ADDB20B PUSH1 0x69 PUSH0 DUP7 PUSH20 0xFFFFFFFFFFFFFFFFFFFFFFFFFFFFFFFFFFFFFFFF AND PUSH20 0xFFFFFFFFFFFFFFFFFFFFFFFFFFFFFFFFFFFFFFFF AND DUP2 MSTORE PUSH1 0x20 ADD SWAP1 DUP2 MSTORE PUSH1 0x20 ADD PUSH0 KECCAK256 SLOAD PUSH1 0x40 MLOAD PUSH2 0x14AC SWAP2 SWAP1 PUSH2 0x2650 JUMP JUMPDEST PUSH1 0x40 MLOAD DUP1 SWAP2 SUB SWAP1 LOG3 POP POP JUMP JUMPDEST PUSH32 0x72606200FAC42B7DC86B75901D61ECFAB2A4A1A6EDED478B97A428094891ABED DUP2 JUMP JUMPDEST PUSH32 0xC8F5B4140CCA307CD927E59CBEEA8291BFFEEE228FC677F0FA059AEF7B4DD8D5 PUSH2 0x1506 DUP2 PUSH2 0x1E64 JUMP JUMPDEST PUSH2 0x150E PUSH2 0x206F JUMP JUMPDEST CALLER PUSH20 0xFFFFFFFFFFFFFFFFFFFFFFFFFFFFFFFFFFFFFFFF AND PUSH32 0x20A1C034B6B182EF274C357C49BDA7799549E8B15D43ABBA54AB69DC0434D86F DUP4 PUSH1 0x40 MLOAD PUSH2 0x1554 SWAP2 SWAP1 PUSH2 0x306A JUMP JUMPDEST PUSH1 0x40 MLOAD DUP1 SWAP2 SUB SWAP1 LOG2 POP POP JUMP JUMPDEST PUSH0 PUSH2 0x1569 PUSH2 0x21D3 JUMP JUMPDEST SWAP1 POP PUSH0 DUP2 PUSH0 ADD PUSH1 0x8 SWAP1 SLOAD SWAP1 PUSH2 0x100 EXP SWAP1 DIV PUSH1 0xFF AND ISZERO SWAP1 POP PUSH0 DUP3 PUSH0 ADD PUSH0 SWAP1 SLOAD SWAP1 PUSH2 0x100 EXP SWAP1 DIV PUSH8 0xFFFFFFFFFFFFFFFF AND SWAP1 POP PUSH0 DUP1 DUP3 PUSH8 0xFFFFFFFFFFFFFFFF AND EQ DUP1 ISZERO PUSH2 0x15B1 JUMPI POP DUP3 JUMPDEST SWAP1 POP PUSH0 PUSH1 0x1 DUP4 PUSH8 0xFFFFFFFFFFFFFFFF AND EQ DUP1 ISZERO PUSH2 0x15E4 JUMPI POP PUSH0 ADDRESS PUSH20 0xFFFFFFFFFFFFFFFFFFFFFFFFFFFFFFFFFFFFFFFF AND EXTCODESIZE EQ JUMPDEST SWAP1 POP DUP2 ISZERO DUP1 ISZERO PUSH2 0x15F2 JUMPI POP DUP1 ISZERO JUMPDEST ISZERO PUSH2 0x1629 JUMPI PUSH1 0x40 MLOAD PUSH32 0xF92EE8A900000000000000000000000000000000000000000000000000000000 DUP2 MSTORE PUSH1 0x4 ADD PUSH1 0x40 MLOAD DUP1 SWAP2 SUB SWAP1 REVERT JUMPDEST PUSH1 0x1 DUP6 PUSH0 ADD PUSH0 PUSH2 0x100 EXP DUP2 SLOAD DUP2 PUSH8 0xFFFFFFFFFFFFFFFF MUL NOT AND SWAP1 DUP4 PUSH8 0xFFFFFFFFFFFFFFFF AND MUL OR SWAP1 SSTORE POP DUP4 ISZERO PUSH2 0x1676 JUMPI PUSH1 0x1 DUP6 PUSH0 ADD PUSH1 0x8 PUSH2 0x100 EXP DUP2 SLOAD DUP2 PUSH1 0xFF MUL NOT AND SWAP1 DUP4 ISZERO ISZERO MUL OR SWAP1 SSTORE POP JUMPDEST PUSH2 0x167E PUSH2 0x21FA JUMP JUMPDEST PUSH2 0x1686 PUSH2 0x2204 JUMP JUMPDEST PUSH2 0x168E PUSH2 0x2216 JUMP JUMPDEST PUSH2 0x169A PUSH0 DUP1 SHL DUP8 PUSH2 0x1E78 JUMP JUMPDEST POP PUSH2 0x16C5 PUSH32 0xA49807205CE4D355092EF5A8A18F56E8913CF4A201FBE287825B095693C21775 DUP8 PUSH2 0x1E78 JUMP JUMPDEST POP DUP4 ISZERO PUSH2 0x1720 JUMPI PUSH0 DUP6 PUSH0 ADD PUSH1 0x8 PUSH2 0x100 EXP DUP2 SLOAD DUP2 PUSH1 0xFF MUL NOT AND SWAP1 DUP4 ISZERO ISZERO MUL OR SWAP1 SSTORE POP PUSH32 0xC7F505B2F371AE2175EE4913F4499E1F2633A7B5936321EED1CDAEB6115181D2 PUSH1 0x1 PUSH1 0x40 MLOAD PUSH2 0x1717 SWAP2 SWAP1 PUSH2 0x3241 JUMP JUMPDEST PUSH1 0x40 MLOAD DUP1 SWAP2 SUB SWAP1 LOG1 JUMPDEST POP POP POP POP POP POP JUMP JUMPDEST PUSH1 0x60 DUP1 PUSH0 DUP1 PUSH2 0x1757 PUSH32 0xC8F5B4140CCA307CD927E59CBEEA8291BFFEEE228FC677F0FA059AEF7B4DD8D5 CALLER PUSH2 0x10E1 JUMP JUMPDEST DUP1 PUSH2 0x178D JUMPI POP DUP6 PUSH20 0xFFFFFFFFFFFFFFFFFFFFFFFFFFFFFFFFFFFFFFFF AND CALLER PUSH20 0xFFFFFFFFFFFFFFFFFFFFFFFFFFFFFFFFFFFFFFFF AND EQ JUMPDEST PUSH2 0x17CC JUMPI PUSH1 0x40 MLOAD PUSH32 0x8C379A000000000000000000000000000000000000000000000000000000000 DUP2 MSTORE PUSH1 0x4 ADD PUSH2 0x17C3 SWAP1 PUSH2 0x2C9C JUMP JUMPDEST PUSH1 0x40 MLOAD DUP1 SWAP2 SUB SWAP1 REVERT JUMPDEST PUSH1 0x68 PUSH0 DUP8 PUSH20 0xFFFFFFFFFFFFFFFFFFFFFFFFFFFFFFFFFFFFFFFF AND PUSH20 0xFFFFFFFFFFFFFFFFFFFFFFFFFFFFFFFFFFFFFFFF AND DUP2 MSTORE PUSH1 0x20 ADD SWAP1 DUP2 MSTORE PUSH1 0x20 ADD PUSH0 KECCAK256 PUSH0 CALLER PUSH20 0xFFFFFFFFFFFFFFFFFFFFFFFFFFFFFFFFFFFFFFFF AND PUSH20 0xFFFFFFFFFFFFFFFFFFFFFFFFFFFFFFFFFFFFFFFF AND DUP2 MSTORE PUSH1 0x20 ADD SWAP1 DUP2 MSTORE PUSH1 0x20 ADD PUSH0 KECCAK256 PUSH0 SWAP1 SLOAD SWAP1 PUSH2 0x100 EXP SWAP1 DIV PUSH1 0xFF AND DUP1 PUSH2 0x1887 JUMPI POP DUP6 PUSH20 0xFFFFFFFFFFFFFFFFFFFFFFFFFFFFFFFFFFFFFFFF AND CALLER PUSH20 0xFFFFFFFFFFFFFFFFFFFFFFFFFFFFFFFFFFFFFFFF AND EQ JUMPDEST DUP1 PUSH2 0x1897 JUMPI POP PUSH2 0x1896 CALLER PUSH2 0xBFA JUMP JUMPDEST JUMPDEST PUSH2 0x18D6 JUMPI PUSH1 0x40 MLOAD PUSH32 0x8C379A000000000000000000000000000000000000000000000000000000000 DUP2 MSTORE PUSH1 0x4 ADD PUSH2 0x18CD SWAP1 PUSH2 0x2D6C JUMP JUMPDEST PUSH1 0x40 MLOAD DUP1 SWAP2 SUB SWAP1 REVERT JUMPDEST PUSH1 0x67 PUSH0 DUP8 PUSH20 0xFFFFFFFFFFFFFFFFFFFFFFFFFFFFFFFFFFFFFFFF AND PUSH20 0xFFFFFFFFFFFFFFFFFFFFFFFFFFFFFFFFFFFFFFFF AND DUP2 MSTORE PUSH1 0x20 ADD SWAP1 DUP2 MSTORE PUSH1 0x20 ADD PUSH0 KECCAK256 SLOAD DUP6 LT PUSH2 0x1955 JUMPI PUSH1 0x40 MLOAD PUSH32 0x8C379A000000000000000000000000000000000000000000000000000000000 DUP2 MSTORE PUSH1 0x4 ADD PUSH2 0x194C SWAP1 PUSH2 0x32A4 JUMP JUMPDEST PUSH1 0x40 MLOAD DUP1 SWAP2 SUB SWAP1 REVERT JUMPDEST PUSH0 PUSH1 0x66 PUSH0 DUP9 PUSH20 0xFFFFFFFFFFFFFFFFFFFFFFFFFFFFFFFFFFFFFFFF AND PUSH20 0xFFFFFFFFFFFFFFFFFFFFFFFFFFFFFFFFFFFFFFFF AND DUP2 MSTORE PUSH1 0x20 ADD SWAP1 DUP2 MSTORE PUSH1 0x20 ADD PUSH0 KECCAK256 PUSH0 DUP8 DUP2 MSTORE PUSH1 0x20 ADD SWAP1 DUP2 MSTORE PUSH1 0x20 ADD PUSH0 KECCAK256 PUSH1 0x40 MLOAD DUP1 PUSH1 0x80 ADD PUSH1 0x40 MSTORE SWAP1 DUP2 PUSH0 DUP3 ADD DUP1 SLOAD PUSH2 0x19BC SWAP1 PUSH2 0x2C22 JUMP JUMPDEST DUP1 PUSH1 0x1F ADD PUSH1 0x20 DUP1 SWAP2 DIV MUL PUSH1 0x20 ADD PUSH1 0x40 MLOAD SWAP1 DUP2 ADD PUSH1 0x40 MSTORE DUP1 SWAP3 SWAP2 SWAP1 DUP2 DUP2 MSTORE PUSH1 0x20 ADD DUP3 DUP1 SLOAD PUSH2 0x19E8 SWAP1 PUSH2 0x2C22 JUMP JUMPDEST DUP1 ISZERO PUSH2 0x1A33 JUMPI DUP1 PUSH1 0x1F LT PUSH2 0x1A0A JUMPI PUSH2 0x100 DUP1 DUP4 SLOAD DIV MUL DUP4 MSTORE SWAP2 PUSH1 0x20 ADD SWAP2 PUSH2 0x1A33 JUMP JUMPDEST DUP3 ADD SWAP2 SWAP1 PUSH0 MSTORE PUSH1 0x20 PUSH0 KECCAK256 SWAP1 JUMPDEST DUP2 SLOAD DUP2 MSTORE SWAP1 PUSH1 0x1 ADD SWAP1 PUSH1 0x20 ADD DUP1 DUP4 GT PUSH2 0x1A16 JUMPI DUP3 SWAP1 SUB PUSH1 0x1F AND DUP3 ADD SWAP2 JUMPDEST POP POP POP POP POP DUP2 MSTORE PUSH1 0x20 ADD PUSH1 0x1 DUP3 ADD DUP1 SLOAD PUSH2 0x1A4C SWAP1 PUSH2 0x2C22 JUMP JUMPDEST DUP1 PUSH1 0x1F ADD PUSH1 0x20 DUP1 SWAP2 DIV MUL PUSH1 0x20 ADD PUSH1 0x40 MLOAD SWAP1 DUP2 ADD PUSH1 0x40 MSTORE DUP1 SWAP3 SWAP2 SWAP1 DUP2 DUP2 MSTORE PUSH1 0x20 ADD DUP3 DUP1 SLOAD PUSH2 0x1A78 SWAP1 PUSH2 0x2C22 JUMP JUMPDEST DUP1 ISZERO PUSH2 0x1AC3 JUMPI DUP1 PUSH1 0x1F LT PUSH2 0x1A9A JUMPI PUSH2 0x100 DUP1 DUP4 SLOAD DIV MUL DUP4 MSTORE SWAP2 PUSH1 0x20 ADD SWAP2 PUSH2 0x1AC3 JUMP JUMPDEST DUP3 ADD SWAP2 SWAP1 PUSH0 MSTORE PUSH1 0x20 PUSH0 KECCAK256 SWAP1 JUMPDEST DUP2 SLOAD DUP2 MSTORE SWAP1 PUSH1 0x1 ADD SWAP1 PUSH1 0x20 ADD DUP1 DUP4 GT PUSH2 0x1AA6 JUMPI DUP3 SWAP1 SUB PUSH1 0x1F AND DUP3 ADD SWAP2 JUMPDEST POP POP POP POP POP DUP2 MSTORE PUSH1 0x20 ADD PUSH1 0x2 DUP3 ADD SLOAD DUP2 MSTORE PUSH1 0x20 ADD PUSH1 0x3 DUP3 ADD PUSH0 SWAP1 SLOAD SWAP1 PUSH2 0x100 EXP SWAP1 DIV PUSH20 0xFFFFFFFFFFFFFFFFFFFFFFFFFFFFFFFFFFFFFFFF AND PUSH20 0xFFFFFFFFFFFFFFFFFFFFFFFFFFFFFFFFFFFFFFFF AND PUSH20 0xFFFFFFFFFFFFFFFFFFFFFFFFFFFFFFFFFFFFFFFF AND DUP2 MSTORE POP POP SWAP1 POP DUP1 PUSH0 ADD MLOAD DUP2 PUSH1 0x20 ADD MLOAD DUP3 PUSH1 0x40 ADD MLOAD DUP4 PUSH1 0x60 ADD MLOAD SWAP5 POP SWAP5 POP SWAP5 POP SWAP5 POP POP SWAP3 SWAP6 SWAP2 SWAP5 POP SWAP3 POP JUMP JUMPDEST PUSH32 0x72606200FAC42B7DC86B75901D61ECFAB2A4A1A6EDED478B97A428094891ABED PUSH2 0x1B7C DUP2 PUSH2 0x1E64 JUMP JUMPDEST PUSH2 0x1B84 PUSH2 0x206F JUMP JUMPDEST PUSH0 PUSH1 0x68 PUSH0 CALLER PUSH20 0xFFFFFFFFFFFFFFFFFFFFFFFFFFFFFFFFFFFFFFFF AND PUSH20 0xFFFFFFFFFFFFFFFFFFFFFFFFFFFFFFFFFFFFFFFF AND DUP2 MSTORE PUSH1 0x20 ADD SWAP1 DUP2 MSTORE PUSH1 0x20 ADD PUSH0 KECCAK256 PUSH0 DUP5 PUSH20 0xFFFFFFFFFFFFFFFFFFFFFFFFFFFFFFFFFFFFFFFF AND PUSH20 0xFFFFFFFFFFFFFFFFFFFFFFFFFFFFFFFFFFFFFFFF AND DUP2 MSTORE PUSH1 0x20 ADD SWAP1 DUP2 MSTORE PUSH1 0x20 ADD PUSH0 KECCAK256 PUSH0 PUSH2 0x100 EXP DUP2 SLOAD DUP2 PUSH1 0xFF MUL NOT AND SWAP1 DUP4 ISZERO ISZERO MUL OR SWAP1 SSTORE POP DUP2 PUSH20 0xFFFFFFFFFFFFFFFFFFFFFFFFFFFFFFFFFFFFFFFF AND CALLER PUSH20 0xFFFFFFFFFFFFFFFFFFFFFFFFFFFFFFFFFFFFFFFF AND PUSH32 0xEBECEE2D3F2EA272F73DD9D9CCC0BACD11280D61240332CBCD8A68173AE5CC2C PUSH1 0x40 MLOAD PUSH1 0x40 MLOAD DUP1 SWAP2 SUB SWAP1 LOG3 POP POP JUMP JUMPDEST PUSH2 0x1C7A DUP3 PUSH2 0x7A8 JUMP JUMPDEST PUSH2 0x1C83 DUP2 PUSH2 0x1E64 JUMP JUMPDEST PUSH2 0x1C8D DUP4 DUP4 PUSH2 0x1F77 JUMP JUMPDEST POP POP POP POP JUMP JUMPDEST PUSH32 0xA49807205CE4D355092EF5A8A18F56E8913CF4A201FBE287825B095693C21775 PUSH2 0x1CBD DUP2 PUSH2 0x1E64 JUMP JUMPDEST PUSH32 0xC68D6B394BBFF225C75B6BA60811FAFB0DA04351338AA28C9614981C55287BE2 DUP3 PUSH1 0x40 MLOAD PUSH2 0x1CEC SWAP2 SWAP1 PUSH2 0x32C2 JUMP JUMPDEST PUSH1 0x40 MLOAD DUP1 SWAP2 SUB SWAP1 LOG1 POP POP JUMP JUMPDEST PUSH1 0x64 PUSH1 0x20 MSTORE DUP1 PUSH0 MSTORE PUSH1 0x40 PUSH0 KECCAK256 PUSH0 SWAP2 POP SWAP1 POP DUP1 PUSH0 ADD DUP1 SLOAD PUSH2 0x1D17 SWAP1 PUSH2 0x2C22 JUMP JUMPDEST DUP1 PUSH1 0x1F ADD PUSH1 0x20 DUP1 SWAP2 DIV MUL PUSH1 0x20 ADD PUSH1 0x40 MLOAD SWAP1 DUP2 ADD PUSH1 0x40 MSTORE DUP1 SWAP3 SWAP2 SWAP1 DUP2 DUP2 MSTORE PUSH1 0x20 ADD DUP3 DUP1 SLOAD PUSH2 0x1D43 SWAP1 PUSH2 0x2C22 JUMP JUMPDEST DUP1 ISZERO PUSH2 0x1D8E JUMPI DUP1 PUSH1 0x1F LT PUSH2 0x1D65 JUMPI PUSH2 0x100 DUP1 DUP4 SLOAD DIV MUL DUP4 MSTORE SWAP2 PUSH1 0x20 ADD SWAP2 PUSH2 0x1D8E JUMP JUMPDEST DUP3 ADD SWAP2 SWAP1 PUSH0 MSTORE PUSH1 0x20 PUSH0 KECCAK256 SWAP1 JUMPDEST DUP2 SLOAD DUP2 MSTORE SWAP1 PUSH1 0x1 ADD SWAP1 PUSH1 0x20 ADD DUP1 DUP4 GT PUSH2 0x1D71 JUMPI DUP3 SWAP1 SUB PUSH1 0x1F AND DUP3 ADD SWAP2 JUMPDEST POP POP POP POP POP SWAP1 DUP1 PUSH1 0x1 ADD PUSH0 SWAP1 SLOAD SWAP1 PUSH2 0x100 EXP SWAP1 DIV PUSH1 0xFF AND SWAP1 DUP1 PUSH1 0x2 ADD SLOAD SWAP1 POP DUP4 JUMP JUMPDEST PUSH32 0xC8F5B4140CCA307CD927E59CBEEA8291BFFEEE228FC677F0FA059AEF7B4DD8D5 DUP2 JUMP JUMPDEST PUSH0 PUSH32 0x1FFC9A700000000000000000000000000000000000000000000000000000000 PUSH28 0xFFFFFFFFFFFFFFFFFFFFFFFFFFFFFFFFFFFFFFFFFFFFFFFFFFFFFFFF NOT AND DUP3 PUSH28 0xFFFFFFFFFFFFFFFFFFFFFFFFFFFFFFFFFFFFFFFFFFFFFFFFFFFFFFFF NOT AND EQ SWAP1 POP SWAP2 SWAP1 POP JUMP JUMPDEST PUSH0 PUSH32 0x2DD7BC7DEC4DCEEDDA775E58DD541E08A116C6C53815C0BD028192F7B626800 SWAP1 POP SWAP1 JUMP JUMPDEST PUSH2 0x1E75 DUP2 PUSH2 0x1E70 PUSH2 0x1F70 JUMP JUMPDEST PUSH2 0x2228 JUMP JUMPDEST POP JUMP JUMPDEST PUSH0 DUP1 PUSH2 0x1E82 PUSH2 0x1E3D JUMP JUMPDEST SWAP1 POP PUSH2 0x1E8E DUP5 DUP5 PUSH2 0x10E1 JUMP JUMPDEST PUSH2 0x1F65 JUMPI PUSH1 0x1 DUP2 PUSH0 ADD PUSH0 DUP7 DUP2 MSTORE PUSH1 0x20 ADD SWAP1 DUP2 MSTORE PUSH1 0x20 ADD PUSH0 KECCAK256 PUSH0 ADD PUSH0 DUP6 PUSH20 0xFFFFFFFFFFFFFFFFFFFFFFFFFFFFFFFFFFFFFFFF AND PUSH20 0xFFFFFFFFFFFFFFFFFFFFFFFFFFFFFFFFFFFFFFFF AND DUP2 MSTORE PUSH1 0x20 ADD SWAP1 DUP2 MSTORE PUSH1 0x20 ADD PUSH0 KECCAK256 PUSH0 PUSH2 0x100 EXP DUP2 SLOAD DUP2 PUSH1 0xFF MUL NOT AND SWAP1 DUP4 ISZERO ISZERO MUL OR SWAP1 SSTORE POP PUSH2 0x1F01 PUSH2 0x1F70 JUMP JUMPDEST PUSH20 0xFFFFFFFFFFFFFFFFFFFFFFFFFFFFFFFFFFFFFFFF AND DUP4 PUSH20 0xFFFFFFFFFFFFFFFFFFFFFFFFFFFFFFFFFFFFFFFF AND DUP6 PUSH32 0x2F8788117E7EFF1D82E926EC794901D17C78024A50270940304540A733656F0D PUSH1 0x40 MLOAD PUSH1 0x40 MLOAD DUP1 SWAP2 SUB SWAP1 LOG4 PUSH1 0x1 SWAP2 POP POP PUSH2 0x1F6A JUMP JUMPDEST PUSH0 SWAP2 POP POP JUMPDEST SWAP3 SWAP2 POP POP JUMP JUMPDEST PUSH0 CALLER SWAP1 POP SWAP1 JUMP JUMPDEST PUSH0 DUP1 PUSH2 0x1F81 PUSH2 0x1E3D JUMP JUMPDEST SWAP1 POP PUSH2 0x1F8D DUP5 DUP5 PUSH2 0x10E1 JUMP JUMPDEST ISZERO PUSH2 0x2064 JUMPI PUSH0 DUP2 PUSH0 ADD PUSH0 DUP7 DUP2 MSTORE PUSH1 0x20 ADD SWAP1 DUP2 MSTORE PUSH1 0x20 ADD PUSH0 KECCAK256 PUSH0 ADD PUSH0 DUP6 PUSH20 0xFFFFFFFFFFFFFFFFFFFFFFFFFFFFFFFFFFFFFFFF AND PUSH20 0xFFFFFFFFFFFFFFFFFFFFFFFFFFFFFFFFFFFFFFFF AND DUP2 MSTORE PUSH1 0x20 ADD SWAP1 DUP2 MSTORE PUSH1 0x20 ADD PUSH0 KECCAK256 PUSH0 PUSH2 0x100 EXP DUP2 SLOAD DUP2 PUSH1 0xFF MUL NOT AND SWAP1 DUP4 ISZERO ISZERO MUL OR SWAP1 SSTORE POP PUSH2 0x2000 PUSH2 0x1F70 JUMP JUMPDEST PUSH20 0xFFFFFFFFFFFFFFFFFFFFFFFFFFFFFFFFFFFFFFFF AND DUP4 PUSH20 0xFFFFFFFFFFFFFFFFFFFFFFFFFFFFFFFFFFFFFFFF AND DUP6 PUSH32 0xF6391F5C32D9C69D2A47EA670B442974B53935D1EDC7FD64EB21E047A839171B PUSH1 0x40 MLOAD PUSH1 0x40 MLOAD DUP1 SWAP2 SUB SWAP1 LOG4 PUSH1 0x1 SWAP2 POP POP PUSH2 0x2069 JUMP JUMPDEST PUSH0 SWAP2 POP POP JUMPDEST SWAP3 SWAP2 POP POP JUMP JUMPDEST PUSH2 0x2077 PUSH2 0x1074 JUMP JUMPDEST ISZERO PUSH2 0x20B7 JUMPI PUSH1 0x40 MLOAD PUSH32 0x8C379A000000000000000000000000000000000000000000000000000000000 DUP2 MSTORE PUSH1 0x4 ADD PUSH2 0x20AE SWAP1 PUSH2 0x3325 JUMP JUMPDEST PUSH1 0x40 MLOAD DUP1 SWAP2 SUB SWAP1 REVERT JUMPDEST JUMP JUMPDEST PUSH1 0x2 PUSH1 0x32 SLOAD SUB PUSH2 0x20FE JUMPI PUSH1 0x40 MLOAD PUSH32 0x8C379A000000000000000000000000000000000000000000000000000000000 DUP2 MSTORE PUSH1 0x4 ADD PUSH2 0x20F5 SWAP1 PUSH2 0x338D JUMP JUMPDEST PUSH1 0x40 MLOAD DUP1 SWAP2 SUB SWAP1 REVERT JUMPDEST PUSH1 0x2 PUSH1 0x32 DUP2 SWAP1 SSTORE POP JUMP JUMPDEST PUSH1 0x1 PUSH1 0x32 DUP2 SWAP1 SSTORE POP JUMP JUMPDEST PUSH2 0x211A PUSH2 0x2279 JUMP JUMPDEST PUSH0 DUP1 PUSH0 PUSH2 0x100 EXP DUP2 SLOAD DUP2 PUSH1 0xFF MUL NOT AND SWAP1 DUP4 ISZERO ISZERO MUL OR SWAP1 SSTORE POP PUSH32 0x5DB9EE0A495BF2E6FF9C91A7834C1BA4FDD244A5E8AA4E537BD38AEAE4B073AA PUSH2 0x215B PUSH2 0x1F70 JUMP JUMPDEST PUSH1 0x40 MLOAD PUSH2 0x2168 SWAP2 SWAP1 PUSH2 0x32C2 JUMP JUMPDEST PUSH1 0x40 MLOAD DUP1 SWAP2 SUB SWAP1 LOG1 JUMP JUMPDEST PUSH2 0x217A PUSH2 0x206F JUMP JUMPDEST PUSH1 0x1 PUSH0 DUP1 PUSH2 0x100 EXP DUP2 SLOAD DUP2 PUSH1 0xFF MUL NOT AND SWAP1 DUP4 ISZERO ISZERO MUL OR SWAP1 SSTORE POP PUSH32 0x62E78CEA01BEE320CD4E420270B5EA74000D11B0C9F74754EBDBFC544B05A258 PUSH2 0x21BC PUSH2 0x1F70 JUMP JUMPDEST PUSH1 0x40 MLOAD PUSH2 0x21C9 SWAP2 SWAP1 PUSH2 0x32C2 JUMP JUMPDEST PUSH1 0x40 MLOAD DUP1 SWAP2 SUB SWAP1 LOG1 JUMP JUMPDEST PUSH0 PUSH32 0xF0C57E16840DF040F15088DC2F81FE391C3923BEC73E23A9662EFC9C229C6A00 SWAP1 POP SWAP1 JUMP JUMPDEST PUSH2 0x2202 PUSH2 0x22C2 JUMP JUMPDEST JUMP JUMPDEST PUSH2 0x220C PUSH2 0x22C2 JUMP JUMPDEST PUSH2 0x2214 PUSH2 0x2302 JUMP JUMPDEST JUMP JUMPDEST PUSH2 0x221E PUSH2 0x22C2 JUMP JUMPDEST PUSH2 0x2226 PUSH2 0x2324 JUMP JUMPDEST JUMP JUMPDEST PUSH2 0x2232 DUP3 DUP3 PUSH2 0x10E1 JUMP JUMPDEST PUSH2 0x2275 JUMPI DUP1 DUP3 PUSH1 0x40 MLOAD PUSH32 0xE2517D3F00000000000000000000000000000000000000000000000000000000 DUP2 MSTORE PUSH1 0x4 ADD PUSH2 0x226C SWAP3 SWAP2 SWAP1 PUSH2 0x33AB JUMP JUMPDEST PUSH1 0x40 MLOAD DUP1 SWAP2 SUB SWAP1 REVERT JUMPDEST POP POP JUMP JUMPDEST PUSH2 0x2281 PUSH2 0x1074 JUMP JUMPDEST PUSH2 0x22C0 JUMPI PUSH1 0x40 MLOAD PUSH32 0x8C379A000000000000000000000000000000000000000000000000000000000 DUP2 MSTORE PUSH1 0x4 ADD PUSH2 0x22B7 SWAP1 PUSH2 0x341C JUMP JUMPDEST PUSH1 0x40 MLOAD DUP1 SWAP2 SUB SWAP1 REVERT JUMPDEST JUMP JUMPDEST PUSH2 0x22CA PUSH2 0x2336 JUMP JUMPDEST PUSH2 0x2300 JUMPI PUSH1 0x40 MLOAD PUSH32 0xD7E6BCF800000000000000000000000000000000000000000000000000000000 DUP2 MSTORE PUSH1 0x4 ADD PUSH1 0x40 MLOAD DUP1 SWAP2 SUB SWAP1 REVERT JUMPDEST JUMP JUMPDEST PUSH2 0x230A PUSH2 0x22C2 JUMP JUMPDEST PUSH0 DUP1 PUSH0 PUSH2 0x100 EXP DUP2 SLOAD DUP2 PUSH1 0xFF MUL NOT AND SWAP1 DUP4 ISZERO ISZERO MUL OR SWAP1 SSTORE POP JUMP JUMPDEST PUSH2 0x232C PUSH2 0x22C2 JUMP JUMPDEST PUSH1 0x1 PUSH1 0x32 DUP2 SWAP1 SSTORE POP JUMP JUMPDEST PUSH0 PUSH2 0x233F PUSH2 0x21D3 JUMP JUMPDEST PUSH0 ADD PUSH1 0x8 SWAP1 SLOAD SWAP1 PUSH2 0x100 EXP SWAP1 DIV PUSH1 0xFF AND SWAP1 POP SWAP1 JUMP JUMPDEST DUP3 DUP1 SLOAD DUP3 DUP3 SSTORE SWAP1 PUSH0 MSTORE PUSH1 0x20 PUSH0 KECCAK256 SWAP1 DUP2 ADD SWAP3 DUP3 ISZERO PUSH2 0x239A JUMPI SWAP2 PUSH1 0x20 MUL DUP3 ADD JUMPDEST DUP3 DUP2 GT ISZERO PUSH2 0x2399 JUMPI DUP3 MLOAD DUP3 SWAP1 DUP2 PUSH2 0x2389 SWAP2 SWAP1 PUSH2 0x2F27 JUMP JUMPDEST POP SWAP2 PUSH1 0x20 ADD SWAP2 SWAP1 PUSH1 0x1 ADD SWAP1 PUSH2 0x2372 JUMP JUMPDEST JUMPDEST POP SWAP1 POP PUSH2 0x23A7 SWAP2 SWAP1 PUSH2 0x23AB JUMP JUMPDEST POP SWAP1 JUMP JUMPDEST JUMPDEST DUP1 DUP3 GT ISZERO PUSH2 0x23CA JUMPI PUSH0 DUP2 DUP2 PUSH2 0x23C1 SWAP2 SWAP1 PUSH2 0x23CE JUMP JUMPDEST POP PUSH1 0x1 ADD PUSH2 0x23AC JUMP JUMPDEST POP SWAP1 JUMP JUMPDEST POP DUP1 SLOAD PUSH2 0x23DA SWAP1 PUSH2 0x2C22 JUMP JUMPDEST PUSH0 DUP3 SSTORE DUP1 PUSH1 0x1F LT PUSH2 0x23EB JUMPI POP PUSH2 0x2408 JUMP JUMPDEST PUSH1 0x1F ADD PUSH1 0x20 SWAP1 DIV SWAP1 PUSH0 MSTORE PUSH1 0x20 PUSH0 KECCAK256 SWAP1 DUP2 ADD SWAP1 PUSH2 0x2407 SWAP2 SWAP1 PUSH2 0x240B JUMP JUMPDEST JUMPDEST POP JUMP JUMPDEST JUMPDEST DUP1 DUP3 GT ISZERO PUSH2 0x2422 JUMPI PUSH0 DUP2 PUSH0 SWAP1 SSTORE POP PUSH1 0x1 ADD PUSH2 0x240C JUMP JUMPDEST POP SWAP1 JUMP JUMPDEST PUSH0 PUSH1 0x40 MLOAD SWAP1 POP SWAP1 JUMP JUMPDEST PUSH0 DUP1 REVERT JUMPDEST PUSH0 DUP1 REVERT JUMPDEST PUSH0 PUSH32 0xFFFFFFFF00000000000000000000000000000000000000000000000000000000 DUP3 AND SWAP1 POP SWAP2 SWAP1 POP JUMP JUMPDEST PUSH2 0x246B DUP2 PUSH2 0x2437 JUMP JUMPDEST DUP2 EQ PUSH2 0x2475 JUMPI PUSH0 DUP1 REVERT JUMPDEST POP JUMP JUMPDEST PUSH0 DUP2 CALLDATALOAD SWAP1 POP PUSH2 0x2486 DUP2 PUSH2 0x2462 JUMP JUMPDEST SWAP3 SWAP2 POP POP JUMP JUMPDEST PUSH0 PUSH1 0x20 DUP3 DUP5 SUB SLT ISZERO PUSH2 0x24A1 JUMPI PUSH2 0x24A0 PUSH2 0x242F JUMP JUMPDEST JUMPDEST PUSH0 PUSH2 0x24AE DUP5 DUP3 DUP6 ADD PUSH2 0x2478 JUMP JUMPDEST SWAP2 POP POP SWAP3 SWAP2 POP POP JUMP JUMPDEST PUSH0 DUP2 ISZERO ISZERO SWAP1 POP SWAP2 SWAP1 POP JUMP JUMPDEST PUSH2 0x24CB DUP2 PUSH2 0x24B7 JUMP JUMPDEST DUP3 MSTORE POP POP JUMP JUMPDEST PUSH0 PUSH1 0x20 DUP3 ADD SWAP1 POP PUSH2 0x24E4 PUSH0 DUP4 ADD DUP5 PUSH2 0x24C2 JUMP JUMPDEST SWAP3 SWAP2 POP POP JUMP JUMPDEST PUSH0 PUSH20 0xFFFFFFFFFFFFFFFFFFFFFFFFFFFFFFFFFFFFFFFF DUP3 AND SWAP1 POP SWAP2 SWAP1 POP JUMP JUMPDEST PUSH0 PUSH2 0x2513 DUP3 PUSH2 0x24EA JUMP JUMPDEST SWAP1 POP SWAP2 SWAP1 POP JUMP JUMPDEST PUSH2 0x2523 DUP2 PUSH2 0x2509 JUMP JUMPDEST DUP2 EQ PUSH2 0x252D JUMPI PUSH0 DUP1 REVERT JUMPDEST POP JUMP JUMPDEST PUSH0 DUP2 CALLDATALOAD SWAP1 POP PUSH2 0x253E DUP2 PUSH2 0x251A JUMP JUMPDEST SWAP3 SWAP2 POP POP JUMP JUMPDEST PUSH0 PUSH1 0x20 DUP3 DUP5 SUB SLT ISZERO PUSH2 0x2559 JUMPI PUSH2 0x2558 PUSH2 0x242F JUMP JUMPDEST JUMPDEST PUSH0 PUSH2 0x2566 DUP5 DUP3 DUP6 ADD PUSH2 0x2530 JUMP JUMPDEST SWAP2 POP POP SWAP3 SWAP2 POP POP JUMP JUMPDEST PUSH0 DUP2 MLOAD SWAP1 POP SWAP2 SWAP1 POP JUMP JUMPDEST PUSH0 DUP3 DUP3 MSTORE PUSH1 0x20 DUP3 ADD SWAP1 POP SWAP3 SWAP2 POP POP JUMP JUMPDEST DUP3 DUP2 DUP4 MCOPY PUSH0 DUP4 DUP4 ADD MSTORE POP POP POP JUMP JUMPDEST PUSH0 PUSH1 0x1F NOT PUSH1 0x1F DUP4 ADD AND SWAP1 POP SWAP2 SWAP1 POP JUMP JUMPDEST PUSH0 PUSH2 0x25B1 DUP3 PUSH2 0x256F JUMP JUMPDEST PUSH2 0x25BB DUP2 DUP6 PUSH2 0x2579 JUMP JUMPDEST SWAP4 POP PUSH2 0x25CB DUP2 DUP6 PUSH1 0x20 DUP7 ADD PUSH2 0x2589 JUMP JUMPDEST PUSH2 0x25D4 DUP2 PUSH2 0x2597 JUMP JUMPDEST DUP5 ADD SWAP2 POP POP SWAP3 SWAP2 POP POP JUMP JUMPDEST PUSH0 DUP2 SWAP1 POP SWAP2 SWAP1 POP JUMP JUMPDEST PUSH2 0x25F1 DUP2 PUSH2 0x25DF JUMP JUMPDEST DUP3 MSTORE POP POP JUMP JUMPDEST PUSH2 0x2600 DUP2 PUSH2 0x2509 JUMP JUMPDEST DUP3 MSTORE POP POP JUMP JUMPDEST PUSH0 PUSH1 0x80 DUP3 ADD SWAP1 POP DUP2 DUP2 SUB PUSH0 DUP4 ADD MSTORE PUSH2 0x261E DUP2 DUP8 PUSH2 0x25A7 JUMP JUMPDEST SWAP1 POP PUSH2 0x262D PUSH1 0x20 DUP4 ADD DUP7 PUSH2 0x25E8 JUMP JUMPDEST PUSH2 0x263A PUSH1 0x40 DUP4 ADD DUP6 PUSH2 0x24C2 JUMP JUMPDEST PUSH2 0x2647 PUSH1 0x60 DUP4 ADD DUP5 PUSH2 0x25F7 JUMP JUMPDEST SWAP6 SWAP5 POP POP POP POP POP JUMP JUMPDEST PUSH0 PUSH1 0x20 DUP3 ADD SWAP1 POP PUSH2 0x2663 PUSH0 DUP4 ADD DUP5 PUSH2 0x25E8 JUMP JUMPDEST SWAP3 SWAP2 POP POP JUMP JUMPDEST PUSH0 DUP2 SWAP1 POP SWAP2 SWAP1 POP JUMP JUMPDEST PUSH2 0x267B DUP2 PUSH2 0x2669 JUMP JUMPDEST DUP2 EQ PUSH2 0x2685 JUMPI PUSH0 DUP1 REVERT JUMPDEST POP JUMP JUMPDEST PUSH0 DUP2 CALLDATALOAD SWAP1 POP PUSH2 0x2696 DUP2 PUSH2 0x2672 JUMP JUMPDEST SWAP3 SWAP2 POP POP JUMP JUMPDEST PUSH0 PUSH1 0x20 DUP3 DUP5 SUB SLT ISZERO PUSH2 0x26B1 JUMPI PUSH2 0x26B0 PUSH2 0x242F JUMP JUMPDEST JUMPDEST PUSH0 PUSH2 0x26BE DUP5 DUP3 DUP6 ADD PUSH2 0x2688 JUMP JUMPDEST SWAP2 POP POP SWAP3 SWAP2 POP POP JUMP JUMPDEST PUSH2 0x26D0 DUP2 PUSH2 0x2669 JUMP JUMPDEST DUP3 MSTORE POP POP JUMP JUMPDEST PUSH0 PUSH1 0x20 DUP3 ADD SWAP1 POP PUSH2 0x26E9 PUSH0 DUP4 ADD DUP5 PUSH2 0x26C7 JUMP JUMPDEST SWAP3 SWAP2 POP POP JUMP JUMPDEST PUSH0 DUP1 PUSH1 0x40 DUP4 DUP6 SUB SLT ISZERO PUSH2 0x2705 JUMPI PUSH2 0x2704 PUSH2 0x242F JUMP JUMPDEST JUMPDEST PUSH0 PUSH2 0x2712 DUP6 DUP3 DUP7 ADD PUSH2 0x2688 JUMP JUMPDEST SWAP3 POP POP PUSH1 0x20 PUSH2 0x2723 DUP6 DUP3 DUP7 ADD PUSH2 0x2530 JUMP JUMPDEST SWAP2 POP POP SWAP3 POP SWAP3 SWAP1 POP JUMP JUMPDEST PUSH0 DUP1 REVERT JUMPDEST PUSH0 DUP1 REVERT JUMPDEST PUSH32 0x4E487B7100000000000000000000000000000000000000000000000000000000 PUSH0 MSTORE PUSH1 0x41 PUSH1 0x4 MSTORE PUSH1 0x24 PUSH0 REVERT JUMPDEST PUSH2 0x276B DUP3 PUSH2 0x2597 JUMP JUMPDEST DUP2 ADD DUP2 DUP2 LT PUSH8 0xFFFFFFFFFFFFFFFF DUP3 GT OR ISZERO PUSH2 0x278A JUMPI PUSH2 0x2789 PUSH2 0x2735 JUMP JUMPDEST JUMPDEST DUP1 PUSH1 0x40 MSTORE POP POP POP JUMP JUMPDEST PUSH0 PUSH2 0x279C PUSH2 0x2426 JUMP JUMPDEST SWAP1 POP PUSH2 0x27A8 DUP3 DUP3 PUSH2 0x2762 JUMP JUMPDEST SWAP2 SWAP1 POP JUMP JUMPDEST PUSH0 PUSH8 0xFFFFFFFFFFFFFFFF DUP3 GT ISZERO PUSH2 0x27C7 JUMPI PUSH2 0x27C6 PUSH2 0x2735 JUMP JUMPDEST JUMPDEST PUSH2 0x27D0 DUP3 PUSH2 0x2597 JUMP JUMPDEST SWAP1 POP PUSH1 0x20 DUP2 ADD SWAP1 POP SWAP2 SWAP1 POP JUMP JUMPDEST DUP3 DUP2 DUP4 CALLDATACOPY PUSH0 DUP4 DUP4 ADD MSTORE POP POP POP JUMP JUMPDEST PUSH0 PUSH2 0x27FD PUSH2 0x27F8 DUP5 PUSH2 0x27AD JUMP JUMPDEST PUSH2 0x2793 JUMP JUMPDEST SWAP1 POP DUP3 DUP2 MSTORE PUSH1 0x20 DUP2 ADD DUP5 DUP5 DUP5 ADD GT ISZERO PUSH2 0x2819 JUMPI PUSH2 0x2818 PUSH2 0x2731 JUMP JUMPDEST JUMPDEST PUSH2 0x2824 DUP5 DUP3 DUP6 PUSH2 0x27DD JUMP JUMPDEST POP SWAP4 SWAP3 POP POP POP JUMP JUMPDEST PUSH0 DUP3 PUSH1 0x1F DUP4 ADD SLT PUSH2 0x2840 JUMPI PUSH2 0x283F PUSH2 0x272D JUMP JUMPDEST JUMPDEST DUP2 CALLDATALOAD PUSH2 0x2850 DUP5 DUP3 PUSH1 0x20 DUP7 ADD PUSH2 0x27EB JUMP JUMPDEST SWAP2 POP POP SWAP3 SWAP2 POP POP JUMP JUMPDEST PUSH0 DUP1 PUSH0 PUSH1 0x60 DUP5 DUP7 SUB SLT ISZERO PUSH2 0x2870 JUMPI PUSH2 0x286F PUSH2 0x242F JUMP JUMPDEST JUMPDEST PUSH0 PUSH2 0x287D DUP7 DUP3 DUP8 ADD PUSH2 0x2530 JUMP JUMPDEST SWAP4 POP POP PUSH1 0x20 DUP5 ADD CALLDATALOAD PUSH8 0xFFFFFFFFFFFFFFFF DUP2 GT ISZERO PUSH2 0x289E JUMPI PUSH2 0x289D PUSH2 0x2433 JUMP JUMPDEST JUMPDEST PUSH2 0x28AA DUP7 DUP3 DUP8 ADD PUSH2 0x282C JUMP JUMPDEST SWAP3 POP POP PUSH1 0x40 DUP5 ADD CALLDATALOAD PUSH8 0xFFFFFFFFFFFFFFFF DUP2 GT ISZERO PUSH2 0x28CB JUMPI PUSH2 0x28CA PUSH2 0x2433 JUMP JUMPDEST JUMPDEST PUSH2 0x28D7 DUP7 DUP3 DUP8 ADD PUSH2 0x282C JUMP JUMPDEST SWAP2 POP POP SWAP3 POP SWAP3 POP SWAP3 JUMP JUMPDEST PUSH2 0x28EA DUP2 PUSH2 0x25DF JUMP JUMPDEST DUP2 EQ PUSH2 0x28F4 JUMPI PUSH0 DUP1 REVERT JUMPDEST POP JUMP JUMPDEST PUSH0 DUP2 CALLDATALOAD SWAP1 POP PUSH2 0x2905 DUP2 PUSH2 0x28E1 JUMP JUMPDEST SWAP3 SWAP2 POP POP JUMP JUMPDEST PUSH0 PUSH8 0xFFFFFFFFFFFFFFFF DUP3 GT ISZERO PUSH2 0x2925 JUMPI PUSH2 0x2924 PUSH2 0x2735 JUMP JUMPDEST JUMPDEST PUSH1 0x20 DUP3 MUL SWAP1 POP PUSH1 0x20 DUP2 ADD SWAP1 POP SWAP2 SWAP1 POP JUMP JUMPDEST PUSH0 DUP1 REVERT JUMPDEST PUSH0 PUSH2 0x294C PUSH2 0x2947 DUP5 PUSH2 0x290B JUMP JUMPDEST PUSH2 0x2793 JUMP JUMPDEST SWAP1 POP DUP1 DUP4 DUP3 MSTORE PUSH1 0x20 DUP3 ADD SWAP1 POP PUSH1 0x20 DUP5 MUL DUP4 ADD DUP6 DUP2 GT ISZERO PUSH2 0x296F JUMPI PUSH2 0x296E PUSH2 0x2936 JUMP JUMPDEST JUMPDEST DUP4 JUMPDEST DUP2 DUP2 LT ISZERO PUSH2 0x29B6 JUMPI DUP1 CALLDATALOAD PUSH8 0xFFFFFFFFFFFFFFFF DUP2 GT ISZERO PUSH2 0x2994 JUMPI PUSH2 0x2993 PUSH2 0x272D JUMP JUMPDEST JUMPDEST DUP1 DUP7 ADD PUSH2 0x29A1 DUP10 DUP3 PUSH2 0x282C JUMP JUMPDEST DUP6 MSTORE PUSH1 0x20 DUP6 ADD SWAP5 POP POP POP PUSH1 0x20 DUP2 ADD SWAP1 POP PUSH2 0x2971 JUMP JUMPDEST POP POP POP SWAP4 SWAP3 POP POP POP JUMP JUMPDEST PUSH0 DUP3 PUSH1 0x1F DUP4 ADD SLT PUSH2 0x29D4 JUMPI PUSH2 0x29D3 PUSH2 0x272D JUMP JUMPDEST JUMPDEST DUP2 CALLDATALOAD PUSH2 0x29E4 DUP5 DUP3 PUSH1 0x20 DUP7 ADD PUSH2 0x293A JUMP JUMPDEST SWAP2 POP POP SWAP3 SWAP2 POP POP JUMP JUMPDEST PUSH0 DUP1 PUSH0 DUP1 PUSH1 0x80 DUP6 DUP8 SUB SLT ISZERO PUSH2 0x2A05 JUMPI PUSH2 0x2A04 PUSH2 0x242F JUMP JUMPDEST JUMPDEST PUSH0 DUP6 ADD CALLDATALOAD PUSH8 0xFFFFFFFFFFFFFFFF DUP2 GT ISZERO PUSH2 0x2A22 JUMPI PUSH2 0x2A21 PUSH2 0x2433 JUMP JUMPDEST JUMPDEST PUSH2 0x2A2E DUP8 DUP3 DUP9 ADD PUSH2 0x282C JUMP JUMPDEST SWAP5 POP POP PUSH1 0x20 PUSH2 0x2A3F DUP8 DUP3 DUP9 ADD PUSH2 0x28F7 JUMP JUMPDEST SWAP4 POP POP PUSH1 0x40 DUP6 ADD CALLDATALOAD PUSH8 0xFFFFFFFFFFFFFFFF DUP2 GT ISZERO PUSH2 0x2A60 JUMPI PUSH2 0x2A5F PUSH2 0x2433 JUMP JUMPDEST JUMPDEST PUSH2 0x2A6C DUP8 DUP3 DUP9 ADD PUSH2 0x29C0 JUMP JUMPDEST SWAP3 POP POP PUSH1 0x60 PUSH2 0x2A7D DUP8 DUP3 DUP9 ADD PUSH2 0x2530 JUMP JUMPDEST SWAP2 POP POP SWAP3 SWAP6 SWAP2 SWAP5 POP SWAP3 POP JUMP JUMPDEST PUSH0 DUP1 PUSH1 0x40 DUP4 DUP6 SUB SLT ISZERO PUSH2 0x2A9F JUMPI PUSH2 0x2A9E PUSH2 0x242F JUMP JUMPDEST JUMPDEST PUSH0 PUSH2 0x2AAC DUP6 DUP3 DUP7 ADD PUSH2 0x2530 JUMP JUMPDEST SWAP3 POP POP PUSH1 0x20 DUP4 ADD CALLDATALOAD PUSH8 0xFFFFFFFFFFFFFFFF DUP2 GT ISZERO PUSH2 0x2ACD JUMPI PUSH2 0x2ACC PUSH2 0x2433 JUMP JUMPDEST JUMPDEST PUSH2 0x2AD9 DUP6 DUP3 DUP7 ADD PUSH2 0x282C JUMP JUMPDEST SWAP2 POP POP SWAP3 POP SWAP3 SWAP1 POP JUMP JUMPDEST PUSH0 PUSH1 0x20 DUP3 DUP5 SUB SLT ISZERO PUSH2 0x2AF8 JUMPI PUSH2 0x2AF7 PUSH2 0x242F JUMP JUMPDEST JUMPDEST PUSH0 DUP3 ADD CALLDATALOAD PUSH8 0xFFFFFFFFFFFFFFFF DUP2 GT ISZERO PUSH2 0x2B15 JUMPI PUSH2 0x2B14 PUSH2 0x2433 JUMP JUMPDEST JUMPDEST PUSH2 0x2B21 DUP5 DUP3 DUP6 ADD PUSH2 0x282C JUMP JUMPDEST SWAP2 POP POP SWAP3 SWAP2 POP POP JUMP JUMPDEST PUSH0 DUP1 PUSH1 0x40 DUP4 DUP6 SUB SLT ISZERO PUSH2 0x2B40 JUMPI PUSH2 0x2B3F PUSH2 0x242F JUMP JUMPDEST JUMPDEST PUSH0 PUSH2 0x2B4D DUP6 DUP3 DUP7 ADD PUSH2 0x2530 JUMP JUMPDEST SWAP3 POP POP PUSH1 0x20 PUSH2 0x2B5E DUP6 DUP3 DUP7 ADD PUSH2 0x28F7 JUMP JUMPDEST SWAP2 POP POP SWAP3 POP SWAP3 SWAP1 POP JUMP JUMPDEST PUSH0 PUSH1 0x80 DUP3 ADD SWAP1 POP DUP2 DUP2 SUB PUSH0 DUP4 ADD MSTORE PUSH2 0x2B80 DUP2 DUP8 PUSH2 0x25A7 JUMP JUMPDEST SWAP1 POP DUP2 DUP2 SUB PUSH1 0x20 DUP4 ADD MSTORE PUSH2 0x2B94 DUP2 DUP7 PUSH2 0x25A7 JUMP JUMPDEST SWAP1 POP PUSH2 0x2BA3 PUSH1 0x40 DUP4 ADD DUP6 PUSH2 0x25E8 JUMP JUMPDEST PUSH2 0x2BB0 PUSH1 0x60 DUP4 ADD DUP5 PUSH2 0x25F7 JUMP JUMPDEST SWAP6 SWAP5 POP POP POP POP POP JUMP JUMPDEST PUSH0 PUSH1 0x60 DUP3 ADD SWAP1 POP DUP2 DUP2 SUB PUSH0 DUP4 ADD MSTORE PUSH2 0x2BD1 DUP2 DUP7 PUSH2 0x25A7 JUMP JUMPDEST SWAP1 POP PUSH2 0x2BE0 PUSH1 0x20 DUP4 ADD DUP6 PUSH2 0x24C2 JUMP JUMPDEST PUSH2 0x2BED PUSH1 0x40 DUP4 ADD DUP5 PUSH2 0x25E8 JUMP JUMPDEST SWAP5 SWAP4 POP POP POP POP JUMP JUMPDEST PUSH32 0x4E487B7100000000000000000000000000000000000000000000000000000000 PUSH0 MSTORE PUSH1 0x22 PUSH1 0x4 MSTORE PUSH1 0x24 PUSH0 REVERT JUMPDEST PUSH0 PUSH1 0x2 DUP3 DIV SWAP1 POP PUSH1 0x1 DUP3 AND DUP1 PUSH2 0x2C39 JUMPI PUSH1 0x7F DUP3 AND SWAP2 POP JUMPDEST PUSH1 0x20 DUP3 LT DUP2 SUB PUSH2 0x2C4C JUMPI PUSH2 0x2C4B PUSH2 0x2BF5 JUMP JUMPDEST JUMPDEST POP SWAP2 SWAP1 POP JUMP JUMPDEST PUSH32 0x4E6F7420617574686F72697A6564000000000000000000000000000000000000 PUSH0 DUP3 ADD MSTORE POP JUMP JUMPDEST PUSH0 PUSH2 0x2C86 PUSH1 0xE DUP4 PUSH2 0x2579 JUMP JUMPDEST SWAP2 POP PUSH2 0x2C91 DUP3 PUSH2 0x2C52 JUMP JUMPDEST PUSH1 0x20 DUP3 ADD SWAP1 POP SWAP2 SWAP1 POP JUMP JUMPDEST PUSH0 PUSH1 0x20 DUP3 ADD SWAP1 POP DUP2 DUP2 SUB PUSH0 DUP4 ADD MSTORE PUSH2 0x2CB3 DUP2 PUSH2 0x2C7A JUMP JUMPDEST SWAP1 POP SWAP2 SWAP1 POP JUMP JUMPDEST PUSH32 0x50617469656E7420646F6573206E6F7420657869737400000000000000000000 PUSH0 DUP3 ADD MSTORE POP JUMP JUMPDEST PUSH0 PUSH2 0x2CEE PUSH1 0x16 DUP4 PUSH2 0x2579 JUMP JUMPDEST SWAP2 POP PUSH2 0x2CF9 DUP3 PUSH2 0x2CBA JUMP JUMPDEST PUSH1 0x20 DUP3 ADD SWAP1 POP SWAP2 SWAP1 POP JUMP JUMPDEST PUSH0 PUSH1 0x20 DUP3 ADD SWAP1 POP DUP2 DUP2 SUB PUSH0 DUP4 ADD MSTORE PUSH2 0x2D1B DUP2 PUSH2 0x2CE2 JUMP JUMPDEST SWAP1 POP SWAP2 SWAP1 POP JUMP JUMPDEST PUSH32 0x4E6F20636F6E73656E7420676976656E00000000000000000000000000000000 PUSH0 DUP3 ADD MSTORE POP JUMP JUMPDEST PUSH0 PUSH2 0x2D56 PUSH1 0x10 DUP4 PUSH2 0x2579 JUMP JUMPDEST SWAP2 POP PUSH2 0x2D61 DUP3 PUSH2 0x2D22 JUMP JUMPDEST PUSH1 0x20 DUP3 ADD SWAP1 POP SWAP2 SWAP1 POP JUMP JUMPDEST PUSH0 PUSH1 0x20 DUP3 ADD SWAP1 POP DUP2 DUP2 SUB PUSH0 DUP4 ADD MSTORE PUSH2 0x2D83 DUP2 PUSH2 0x2D4A JUMP JUMPDEST SWAP1 POP SWAP2 SWAP1 POP JUMP JUMPDEST PUSH0 DUP2 SWAP1 POP DUP2 PUSH0 MSTORE PUSH1 0x20 PUSH0 KECCAK256 SWAP1 POP SWAP2 SWAP1 POP JUMP JUMPDEST PUSH0 PUSH1 0x20 PUSH1 0x1F DUP4 ADD DIV SWAP1 POP SWAP2 SWAP1 POP JUMP JUMPDEST PUSH0 DUP3 DUP3 SHL SWAP1 POP SWAP3 SWAP2 POP POP JUMP JUMPDEST PUSH0 PUSH1 0x8 DUP4 MUL PUSH2 0x2DE6 PUSH32 0xFFFFFFFFFFFFFFFFFFFFFFFFFFFFFFFFFFFFFFFFFFFFFFFFFFFFFFFFFFFFFFFF DUP3 PUSH2 0x2DAB JUMP JUMPDEST PUSH2 0x2DF0 DUP7 DUP4 PUSH2 0x2DAB JUMP JUMPDEST SWAP6 POP DUP1 NOT DUP5 AND SWAP4 POP DUP1 DUP7 AND DUP5 OR SWAP3 POP POP POP SWAP4 SWAP3 POP POP POP JUMP JUMPDEST PUSH0 DUP2 SWAP1 POP SWAP2 SWAP1 POP JUMP JUMPDEST PUSH0 PUSH2 0x2E2B PUSH2 0x2E26 PUSH2 0x2E21 DUP5 PUSH2 0x25DF JUMP JUMPDEST PUSH2 0x2E08 JUMP JUMPDEST PUSH2 0x25DF JUMP JUMPDEST SWAP1 POP SWAP2 SWAP1 POP JUMP JUMPDEST PUSH0 DUP2 SWAP1 POP SWAP2 SWAP1 POP JUMP JUMPDEST PUSH2 0x2E44 DUP4 PUSH2 0x2E11 JUMP JUMPDEST PUSH2 0x2E58 PUSH2 0x2E50 DUP3 PUSH2 0x2E32 JUMP JUMPDEST DUP5 DUP5 SLOAD PUSH2 0x2DB7 JUMP JUMPDEST DUP3 SSTORE POP POP POP POP JUMP JUMPDEST PUSH0 SWAP1 JUMP JUMPDEST PUSH2 0x2E6C PUSH2 0x2E60 JUMP JUMPDEST PUSH2 0x2E77 DUP2 DUP5 DUP5 PUSH2 0x2E3B JUMP JUMPDEST POP POP POP JUMP JUMPDEST JUMPDEST DUP2 DUP2 LT ISZERO PUSH2 0x2E9A JUMPI PUSH2 0x2E8F PUSH0 DUP3 PUSH2 0x2E64 JUMP JUMPDEST PUSH1 0x1 DUP2 ADD SWAP1 POP PUSH2 0x2E7D JUMP JUMPDEST POP POP JUMP JUMPDEST PUSH1 0x1F DUP3 GT ISZERO PUSH2 0x2EDF JUMPI PUSH2 0x2EB0 DUP2 PUSH2 0x2D8A JUMP JUMPDEST PUSH2 0x2EB9 DUP5 PUSH2 0x2D9C JUMP JUMPDEST DUP2 ADD PUSH1 0x20 DUP6 LT ISZERO PUSH2 0x2EC8 JUMPI DUP2 SWAP1 POP JUMPDEST PUSH2 0x2EDC PUSH2 0x2ED4 DUP6 PUSH2 0x2D9C JUMP JUMPDEST DUP4 ADD DUP3 PUSH2 0x2E7C JUMP JUMPDEST POP POP JUMPDEST POP POP POP JUMP JUMPDEST PUSH0 DUP3 DUP3 SHR SWAP1 POP SWAP3 SWAP2 POP POP JUMP JUMPDEST PUSH0 PUSH2 0x2EFF PUSH0 NOT DUP5 PUSH1 0x8 MUL PUSH2 0x2EE4 JUMP JUMPDEST NOT DUP1 DUP4 AND SWAP2 POP POP SWAP3 SWAP2 POP POP JUMP JUMPDEST PUSH0 PUSH2 0x2F17 DUP4 DUP4 PUSH2 0x2EF0 JUMP JUMPDEST SWAP2 POP DUP3 PUSH1 0x2 MUL DUP3 OR SWAP1 POP SWAP3 SWAP2 POP POP JUMP JUMPDEST PUSH2 0x2F30 DUP3 PUSH2 0x256F JUMP JUMPDEST PUSH8 0xFFFFFFFFFFFFFFFF DUP2 GT ISZERO PUSH2 0x2F49 JUMPI PUSH2 0x2F48 PUSH2 0x2735 JUMP JUMPDEST JUMPDEST PUSH2 0x2F53 DUP3 SLOAD PUSH2 0x2C22 JUMP JUMPDEST PUSH2 0x2F5E DUP3 DUP3 DUP6 PUSH2 0x2E9E JUMP JUMPDEST PUSH0 PUSH1 0x20 SWAP1 POP PUSH1 0x1F DUP4 GT PUSH1 0x1 DUP2 EQ PUSH2 0x2F8F JUMPI PUSH0 DUP5 ISZERO PUSH2 0x2F7D JUMPI DUP3 DUP8 ADD MLOAD SWAP1 POP JUMPDEST PUSH2 0x2F87 DUP6 DUP3 PUSH2 0x2F0C JUMP JUMPDEST DUP7 SSTORE POP PUSH2 0x2FEE JUMP JUMPDEST PUSH1 0x1F NOT DUP5 AND PUSH2 0x2F9D DUP7 PUSH2 0x2D8A JUMP JUMPDEST PUSH0 JUMPDEST DUP3 DUP2 LT ISZERO PUSH2 0x2FC4 JUMPI DUP5 DUP10 ADD MLOAD DUP3 SSTORE PUSH1 0x1 DUP3 ADD SWAP2 POP PUSH1 0x20 DUP6 ADD SWAP5 POP PUSH1 0x20 DUP2 ADD SWAP1 POP PUSH2 0x2F9F JUMP JUMPDEST DUP7 DUP4 LT ISZERO PUSH2 0x2FE1 JUMPI DUP5 DUP10 ADD MLOAD PUSH2 0x2FDD PUSH1 0x1F DUP10 AND DUP3 PUSH2 0x2EF0 JUMP JUMPDEST DUP4 SSTORE POP JUMPDEST PUSH1 0x1 PUSH1 0x2 DUP9 MUL ADD DUP9 SSTORE POP POP POP JUMPDEST POP POP POP POP POP POP JUMP JUMPDEST PUSH32 0x4E487B7100000000000000000000000000000000000000000000000000000000 PUSH0 MSTORE PUSH1 0x11 PUSH1 0x4 MSTORE PUSH1 0x24 PUSH0 REVERT JUMPDEST PUSH0 PUSH2 0x302D DUP3 PUSH2 0x25DF JUMP JUMPDEST SWAP2 POP PUSH32 0xFFFFFFFFFFFFFFFFFFFFFFFFFFFFFFFFFFFFFFFFFFFFFFFFFFFFFFFFFFFFFFFF DUP3 SUB PUSH2 0x305F JUMPI PUSH2 0x305E PUSH2 0x2FF6 JUMP JUMPDEST JUMPDEST PUSH1 0x1 DUP3 ADD SWAP1 POP SWAP2 SWAP1 POP JUMP JUMPDEST PUSH0 PUSH1 0x20 DUP3 ADD SWAP1 POP DUP2 DUP2 SUB PUSH0 DUP4 ADD MSTORE PUSH2 0x3082 DUP2 DUP5 PUSH2 0x25A7 JUMP JUMPDEST SWAP1 POP SWAP3 SWAP2 POP POP JUMP JUMPDEST PUSH32 0x50617469656E7420616C72656164792072656769737465726564000000000000 PUSH0 DUP3 ADD MSTORE POP JUMP JUMPDEST PUSH0 PUSH2 0x30BE PUSH1 0x1A DUP4 PUSH2 0x2579 JUMP JUMPDEST SWAP2 POP PUSH2 0x30C9 DUP3 PUSH2 0x308A JUMP JUMPDEST PUSH1 0x20 DUP3 ADD SWAP1 POP SWAP2 SWAP1 POP JUMP JUMPDEST PUSH0 PUSH1 0x20 DUP3 ADD SWAP1 POP DUP2 DUP2 SUB PUSH0 DUP4 ADD MSTORE PUSH2 0x30EB DUP2 PUSH2 0x30B2 JUMP JUMPDEST SWAP1 POP SWAP2 SWAP1 POP JUMP JUMPDEST PUSH32 0x486F73706974616C20616C726561647920726567697374657265640000000000 PUSH0 DUP3 ADD MSTORE POP JUMP JUMPDEST PUSH0 PUSH2 0x3126 PUSH1 0x1B DUP4 PUSH2 0x2579 JUMP JUMPDEST SWAP2 POP PUSH2 0x3131 DUP3 PUSH2 0x30F2 JUMP JUMPDEST PUSH1 0x20 DUP3 ADD SWAP1 POP SWAP2 SWAP1 POP JUMP JUMPDEST PUSH0 PUSH1 0x20 DUP3 ADD SWAP1 POP DUP2 DUP2 SUB PUSH0 DUP4 ADD MSTORE PUSH2 0x3153 DUP2 PUSH2 0x311A JUMP JUMPDEST SWAP1 POP SWAP2 SWAP1 POP JUMP JUMPDEST PUSH32 0x486F73706974616C206973206E6F742061637469766500000000000000000000 PUSH0 DUP3 ADD MSTORE POP JUMP JUMPDEST PUSH0 PUSH2 0x318E PUSH1 0x16 DUP4 PUSH2 0x2579 JUMP JUMPDEST SWAP2 POP PUSH2 0x3199 DUP3 PUSH2 0x315A JUMP JUMPDEST PUSH1 0x20 DUP3 ADD SWAP1 POP SWAP2 SWAP1 POP JUMP JUMPDEST PUSH0 PUSH1 0x20 DUP3 ADD SWAP1 POP DUP2 DUP2 SUB PUSH0 DUP4 ADD MSTORE PUSH2 0x31BB DUP2 PUSH2 0x3182 JUMP JUMPDEST SWAP1 POP SWAP2 SWAP1 POP JUMP JUMPDEST PUSH0 PUSH2 0x31CC DUP3 PUSH2 0x25DF JUMP JUMPDEST SWAP2 POP PUSH2 0x31D7 DUP4 PUSH2 0x25DF JUMP JUMPDEST SWAP3 POP DUP3 DUP3 ADD SWAP1 POP DUP1 DUP3 GT ISZERO PUSH2 0x31EF JUMPI PUSH2 0x31EE PUSH2 0x2FF6 JUMP JUMPDEST JUMPDEST SWAP3 SWAP2 POP POP JUMP JUMPDEST PUSH0 DUP2 SWAP1 POP SWAP2 SWAP1 POP JUMP JUMPDEST PUSH0 PUSH8 0xFFFFFFFFFFFFFFFF DUP3 AND SWAP1 POP SWAP2 SWAP1 POP JUMP JUMPDEST PUSH0 PUSH2 0x322B PUSH2 0x3226 PUSH2 0x3221 DUP5 PUSH2 0x31F5 JUMP JUMPDEST PUSH2 0x2E08 JUMP JUMPDEST PUSH2 0x31FE JUMP JUMPDEST SWAP1 POP SWAP2 SWAP1 POP JUMP JUMPDEST PUSH2 0x323B DUP2 PUSH2 0x3211 JUMP JUMPDEST DUP3 MSTORE POP POP JUMP JUMPDEST PUSH0 PUSH1 0x20 DUP3 ADD SWAP1 POP PUSH2 0x3254 PUSH0 DUP4 ADD DUP5 PUSH2 0x3232 JUMP JUMPDEST SWAP3 SWAP2 POP POP JUMP JUMPDEST PUSH32 0x5265636F726420646F6573206E6F742065786973740000000000000000000000 PUSH0 DUP3 ADD MSTORE POP JUMP JUMPDEST PUSH0 PUSH2 0x328E PUSH1 0x15 DUP4 PUSH2 0x2579 JUMP JUMPDEST SWAP2 POP PUSH2 0x3299 DUP3 PUSH2 0x325A JUMP JUMPDEST PUSH1 0x20 DUP3 ADD SWAP1 POP SWAP2 SWAP1 POP JUMP JUMPDEST PUSH0 PUSH1 0x20 DUP3 ADD SWAP1 POP DUP2 DUP2 SUB PUSH0 DUP4 ADD MSTORE PUSH2 0x32BB DUP2 PUSH2 0x3282 JUMP JUMPDEST SWAP1 POP SWAP2 SWAP1 POP JUMP JUMPDEST PUSH0 PUSH1 0x20 DUP3 ADD SWAP1 POP PUSH2 0x32D5 PUSH0 DUP4 ADD DUP5 PUSH2 0x25F7 JUMP JUMPDEST SWAP3 SWAP2 POP POP JUMP JUMPDEST PUSH32 0x5061757361626C653A2070617573656400000000000000000000000000000000 PUSH0 DUP3 ADD MSTORE POP JUMP JUMPDEST PUSH0 PUSH2 0x330F PUSH1 0x10 DUP4 PUSH2 0x2579 JUMP JUMPDEST SWAP2 POP PUSH2 0x331A DUP3 PUSH2 0x32DB JUMP JUMPDEST PUSH1 0x20 DUP3 ADD SWAP1 POP SWAP2 SWAP1 POP JUMP JUMPDEST PUSH0 PUSH1 0x20 DUP3 ADD SWAP1 POP DUP2 DUP2 SUB PUSH0 DUP4 ADD MSTORE PUSH2 0x333C DUP2 PUSH2 0x3303 JUMP JUMPDEST SWAP1 POP SWAP2 SWAP1 POP JUMP JUMPDEST PUSH32 0x5265656E7472616E637947756172643A207265656E7472616E742063616C6C00 PUSH0 DUP3 ADD MSTORE POP JUMP JUMPDEST PUSH0 PUSH2 0x3377 PUSH1 0x1F DUP4 PUSH2 0x2579 JUMP JUMPDEST SWAP2 POP PUSH2 0x3382 DUP3 PUSH2 0x3343 JUMP JUMPDEST PUSH1 0x20 DUP3 ADD SWAP1 POP SWAP2 SWAP1 POP JUMP JUMPDEST PUSH0 PUSH1 0x20 DUP3 ADD SWAP1 POP DUP2 DUP2 SUB PUSH0 DUP4 ADD MSTORE PUSH2 0x33A4 DUP2 PUSH2 0x336B JUMP JUMPDEST SWAP1 POP SWAP2 SWAP1 POP JUMP JUMPDEST PUSH0 PUSH1 0x40 DUP3 ADD SWAP1 POP PUSH2 0x33BE PUSH0 DUP4 ADD DUP6 PUSH2 0x25F7 JUMP JUMPDEST PUSH2 0x33CB PUSH1 0x20 DUP4 ADD DUP5 PUSH2 0x26C7 JUMP JUMPDEST SWAP4 SWAP3 POP POP POP JUMP JUMPDEST PUSH32 0x5061757361626C653A206E6F7420706175736564000000000000000000000000 PUSH0 DUP3 ADD MSTORE POP JUMP JUMPDEST PUSH0 PUSH2 0x3406 PUSH1 0x14 DUP4 PUSH2 0x2579 JUMP JUMPDEST SWAP2 POP PUSH2 0x3411 DUP3 PUSH2 0x33D2 JUMP JUMPDEST PUSH1 0x20 DUP3 ADD SWAP1 POP SWAP2 SWAP1 POP JUMP JUMPDEST PUSH0 PUSH1 0x20 DUP3 ADD SWAP1 POP DUP2 DUP2 SUB PUSH0 DUP4 ADD MSTORE PUSH2 0x3433 DUP2 PUSH2 0x33FA JUMP JUMPDEST SWAP1 POP SWAP2 SWAP1 POP JUMP INVALID LOG2 PUSH5 0x6970667358 0x22 SLT KECCAK256 PREVRANDAO 0xD0 0xFC PUSH20 0xACA6C6197D24AA509AD8952CB390275A37E58B9B DUP11 RETURNDATACOPY 0xAE 0xD0 DUP16 PUSH25 0x9A1F64736F6C634300081A0033000000000000000000000000 "
				},
				"gasEstimates": {
					"creation": {
						"codeDepositCost": "2684800",
						"executionCost": "2913",
						"totalCost": "2687713"
					},
					"external": {
						"ADMIN_ROLE()": "436",
						"DEFAULT_ADMIN_ROLE()": "420",
						"EMERGENCY_ACCESS_DURATION()": "371",
						"HOSPITAL_ROLE()": "435",
						"PATIENT_ROLE()": "414",
						"getPatientRecordCount(address)": "5378",
						"getRecord(address,uint256)": "infinite",
						"getRoleAdmin(bytes32)": "infinite",
						"grantConsent(address)": "infinite",
						"grantEmergencyAccess(address)": "infinite",
						"grantRole(bytes32,address)": "infinite",
						"hasRole(bytes32,address)": "3242",
						"hospitals(address)": "infinite",
						"importInteroperableData(string)": "infinite",
						"initialize(address)": "infinite",
						"isEmergencyAccess(address)": "2911",
						"patients(address)": "infinite",
						"pause()": "infinite",
						"paused()": "2562",
						"registerHospital(address,string)": "infinite",
						"registerPatient(string,uint256,string[],address)": "infinite",
						"renounceRole(bytes32,address)": "infinite",
						"revokeConsent(address)": "infinite",
						"revokeRole(bytes32,address)": "infinite",
						"supportsInterface(bytes4)": "764",
						"unpause()": "infinite",
						"upgradeContract(address)": "infinite",
						"uploadRecord(address,string,string)": "infinite"
					}
				},
				"methodIdentifiers": {
					"ADMIN_ROLE()": "75b238fc",
					"DEFAULT_ADMIN_ROLE()": "a217fddf",
					"EMERGENCY_ACCESS_DURATION()": "2114ef1f",
					"HOSPITAL_ROLE()": "f6ba6678",
					"PATIENT_ROLE()": "ac5cb97d",
					"getPatientRecordCount(address)": "0a9682ad",
					"getRecord(address,uint256)": "cdb8acf0",
					"getRoleAdmin(bytes32)": "248a9ca3",
					"grantConsent(address)": "a79861f1",
					"grantEmergencyAccess(address)": "aabc4280",
					"grantRole(bytes32,address)": "2f2ff15d",
					"hasRole(bytes32,address)": "91d14854",
					"hospitals(address)": "f093cf80",
					"importInteroperableData(string)": "b696a148",
					"initialize(address)": "c4d66de8",
					"isEmergencyAccess(address)": "3b0f4ada",
					"patients(address)": "0869cfbc",
					"pause()": "8456cb59",
					"paused()": "5c975abb",
					"registerHospital(address,string)": "4fbaa023",
					"registerPatient(string,uint256,string[],address)": "3b8b20cb",
					"renounceRole(bytes32,address)": "36568abe",
					"revokeConsent(address)": "d1a48627",
					"revokeRole(bytes32,address)": "d547741f",
					"supportsInterface(bytes4)": "01ffc9a7",
					"unpause()": "3f4ba83a",
					"upgradeContract(address)": "eb2c0223",
					"uploadRecord(address,string,string)": "38d4ea23"
				}
			},
			"storageLayout": {
				"storage": [
					{
						"astId": 638,
						"contract": "contracts/HealthRecords.sol:HealthRecords",
						"label": "_paused",
						"offset": 0,
						"slot": "0",
						"type": "t_bool"
					},
					{
						"astId": 743,
						"contract": "contracts/HealthRecords.sol:HealthRecords",
						"label": "__gap",
						"offset": 0,
						"slot": "1",
						"type": "t_array(t_uint256)49_storage"
					},
					{
						"astId": 759,
						"contract": "contracts/HealthRecords.sol:HealthRecords",
						"label": "_status",
						"offset": 0,
						"slot": "50",
						"type": "t_uint256"
					},
					{
						"astId": 828,
						"contract": "contracts/HealthRecords.sol:HealthRecords",
						"label": "__gap",
						"offset": 0,
						"slot": "51",
						"type": "t_array(t_uint256)49_storage"
					},
					{
						"astId": 1072,
						"contract": "contracts/HealthRecords.sol:HealthRecords",
						"label": "hospitals",
						"offset": 0,
						"slot": "100",
						"type": "t_mapping(t_address,t_struct(Hospital)1046_storage)"
					},
					{
						"astId": 1077,
						"contract": "contracts/HealthRecords.sol:HealthRecords",
						"label": "patients",
						"offset": 0,
						"slot": "101",
						"type": "t_mapping(t_address,t_struct(Patient)1058_storage)"
					},
					{
						"astId": 1084,
						"contract": "contracts/HealthRecords.sol:HealthRecords",
						"label": "patientRecords",
						"offset": 0,
						"slot": "102",
						"type": "t_mapping(t_address,t_mapping(t_uint256,t_struct(MedicalRecord)1067_storage))"
					},
					{
						"astId": 1088,
						"contract": "contracts/HealthRecords.sol:HealthRecords",
						"label": "patientRecordCount",
						"offset": 0,
						"slot": "103",
						"type": "t_mapping(t_address,t_uint256)"
					},
					{
						"astId": 1094,
						"contract": "contracts/HealthRecords.sol:HealthRecords",
						"label": "patientConsent",
						"offset": 0,
						"slot": "104",
						"type": "t_mapping(t_address,t_mapping(t_address,t_bool))"
					},
					{
						"astId": 1098,
						"contract": "contracts/HealthRecords.sol:HealthRecords",
						"label": "emergencyAccessExpiration",
						"offset": 0,
						"slot": "105",
						"type": "t_mapping(t_address,t_uint256)"
					}
				],
				"types": {
					"t_address": {
						"encoding": "inplace",
						"label": "address",
						"numberOfBytes": "20"
					},
					"t_array(t_string_storage)dyn_storage": {
						"base": "t_string_storage",
						"encoding": "dynamic_array",
						"label": "string[]",
						"numberOfBytes": "32"
					},
					"t_array(t_uint256)49_storage": {
						"base": "t_uint256",
						"encoding": "inplace",
						"label": "uint256[49]",
						"numberOfBytes": "1568"
					},
					"t_bool": {
						"encoding": "inplace",
						"label": "bool",
						"numberOfBytes": "1"
					},
					"t_mapping(t_address,t_bool)": {
						"encoding": "mapping",
						"key": "t_address",
						"label": "mapping(address => bool)",
						"numberOfBytes": "32",
						"value": "t_bool"
					},
					"t_mapping(t_address,t_mapping(t_address,t_bool))": {
						"encoding": "mapping",
						"key": "t_address",
						"label": "mapping(address => mapping(address => bool))",
						"numberOfBytes": "32",
						"value": "t_mapping(t_address,t_bool)"
					},
					"t_mapping(t_address,t_mapping(t_uint256,t_struct(MedicalRecord)1067_storage))": {
						"encoding": "mapping",
						"key": "t_address",
						"label": "mapping(address => mapping(uint256 => struct HealthRecords.MedicalRecord))",
						"numberOfBytes": "32",
						"value": "t_mapping(t_uint256,t_struct(MedicalRecord)1067_storage)"
					},
					"t_mapping(t_address,t_struct(Hospital)1046_storage)": {
						"encoding": "mapping",
						"key": "t_address",
						"label": "mapping(address => struct HealthRecords.Hospital)",
						"numberOfBytes": "32",
						"value": "t_struct(Hospital)1046_storage"
					},
					"t_mapping(t_address,t_struct(Patient)1058_storage)": {
						"encoding": "mapping",
						"key": "t_address",
						"label": "mapping(address => struct HealthRecords.Patient)",
						"numberOfBytes": "32",
						"value": "t_struct(Patient)1058_storage"
					},
					"t_mapping(t_address,t_uint256)": {
						"encoding": "mapping",
						"key": "t_address",
						"label": "mapping(address => uint256)",
						"numberOfBytes": "32",
						"value": "t_uint256"
					},
					"t_mapping(t_uint256,t_struct(MedicalRecord)1067_storage)": {
						"encoding": "mapping",
						"key": "t_uint256",
						"label": "mapping(uint256 => struct HealthRecords.MedicalRecord)",
						"numberOfBytes": "32",
						"value": "t_struct(MedicalRecord)1067_storage"
					},
					"t_string_storage": {
						"encoding": "bytes",
						"label": "string",
						"numberOfBytes": "32"
					},
					"t_struct(Hospital)1046_storage": {
						"encoding": "inplace",
						"label": "struct HealthRecords.Hospital",
						"members": [
							{
								"astId": 1041,
								"contract": "contracts/HealthRecords.sol:HealthRecords",
								"label": "name",
								"offset": 0,
								"slot": "0",
								"type": "t_string_storage"
							},
							{
								"astId": 1043,
								"contract": "contracts/HealthRecords.sol:HealthRecords",
								"label": "isActive",
								"offset": 0,
								"slot": "1",
								"type": "t_bool"
							},
							{
								"astId": 1045,
								"contract": "contracts/HealthRecords.sol:HealthRecords",
								"label": "registrationDate",
								"offset": 0,
								"slot": "2",
								"type": "t_uint256"
							}
						],
						"numberOfBytes": "96"
					},
					"t_struct(MedicalRecord)1067_storage": {
						"encoding": "inplace",
						"label": "struct HealthRecords.MedicalRecord",
						"members": [
							{
								"astId": 1060,
								"contract": "contracts/HealthRecords.sol:HealthRecords",
								"label": "data",
								"offset": 0,
								"slot": "0",
								"type": "t_string_storage"
							},
							{
								"astId": 1062,
								"contract": "contracts/HealthRecords.sol:HealthRecords",
								"label": "dataType",
								"offset": 0,
								"slot": "1",
								"type": "t_string_storage"
							},
							{
								"astId": 1064,
								"contract": "contracts/HealthRecords.sol:HealthRecords",
								"label": "timestamp",
								"offset": 0,
								"slot": "2",
								"type": "t_uint256"
							},
							{
								"astId": 1066,
								"contract": "contracts/HealthRecords.sol:HealthRecords",
								"label": "uploadedBy",
								"offset": 0,
								"slot": "3",
								"type": "t_address"
							}
						],
						"numberOfBytes": "128"
					},
					"t_struct(Patient)1058_storage": {
						"encoding": "inplace",
						"label": "struct HealthRecords.Patient",
						"members": [
							{
								"astId": 1048,
								"contract": "contracts/HealthRecords.sol:HealthRecords",
								"label": "name",
								"offset": 0,
								"slot": "0",
								"type": "t_string_storage"
							},
							{
								"astId": 1050,
								"contract": "contracts/HealthRecords.sol:HealthRecords",
								"label": "dateOfBirth",
								"offset": 0,
								"slot": "1",
								"type": "t_uint256"
							},
							{
								"astId": 1052,
								"contract": "contracts/HealthRecords.sol:HealthRecords",
								"label": "exists",
								"offset": 0,
								"slot": "2",
								"type": "t_bool"
							},
							{
								"astId": 1055,
								"contract": "contracts/HealthRecords.sol:HealthRecords",
								"label": "allergies",
								"offset": 0,
								"slot": "3",
								"type": "t_array(t_string_storage)dyn_storage"
							},
							{
								"astId": 1057,
								"contract": "contracts/HealthRecords.sol:HealthRecords",
								"label": "emergencyContact",
								"offset": 0,
								"slot": "4",
								"type": "t_address"
							}
						],
						"numberOfBytes": "160"
					},
					"t_uint256": {
						"encoding": "inplace",
						"label": "uint256",
						"numberOfBytes": "32"
					}
				}
			},
			"userdoc": {
				"kind": "user",
				"methods": {},
				"version": 1
			}
		}
	}
}