{
	"contracts/OraclePattern.sol": {
		"DataConsumer": {
			"abi": [
				{
					"inputs": [
						{
							"internalType": "address",
							"name": "_oracle",
							"type": "address"
						}
					],
					"stateMutability": "nonpayable",
					"type": "constructor"
				},
				{
					"inputs": [],
					"name": "oracle",
					"outputs": [
						{
							"internalType": "contract Oracle",
							"name": "",
							"type": "address"
						}
					],
					"stateMutability": "view",
					"type": "function"
				},
				{
					"inputs": [],
					"name": "price",
					"outputs": [
						{
							"internalType": "uint256",
							"name": "",
							"type": "uint256"
						}
					],
					"stateMutability": "view",
					"type": "function"
				},
				{
					"inputs": [],
					"name": "updatePrice",
					"outputs": [],
					"stateMutability": "nonpayable",
					"type": "function"
				}
			],
			"devdoc": {
				"kind": "dev",
				"methods": {},
				"version": 1
			},
			"evm": {
				"assembly": "    /* \"contracts/OraclePattern.sol\":142:392  contract DataConsumer{... */\n  mstore(0x40, 0x80)\n    /* \"contracts/OraclePattern.sol\":223:294  constructor(address _oracle){... */\n  callvalue\n  dup1\n  iszero\n  tag_1\n  jumpi\n  0x00\n  dup1\n  revert\ntag_1:\n  pop\n  mload(0x40)\n  sub(codesize, bytecodeSize)\n  dup1\n  bytecodeSize\n  dup4\n  codecopy\n  dup2\n  dup2\n  add\n  0x40\n  mstore\n  dup2\n  add\n  swap1\n  tag_2\n  swap2\n  swap1\n  tag_3\n  jump\t// in\ntag_2:\n    /* \"contracts/OraclePattern.sol\":278:285  _oracle */\n  dup1\n    /* \"contracts/OraclePattern.sol\":262:268  oracle */\n  0x00\n  dup1\n    /* \"contracts/OraclePattern.sol\":262:286  oracle = Oracle(_oracle) */\n  0x0100\n  exp\n  dup2\n  sload\n  dup2\n  0xffffffffffffffffffffffffffffffffffffffff\n  mul\n  not\n  and\n  swap1\n  dup4\n  0xffffffffffffffffffffffffffffffffffffffff\n  and\n  mul\n  or\n  swap1\n  sstore\n  pop\n    /* \"contracts/OraclePattern.sol\":223:294  constructor(address _oracle){... */\n  pop\n    /* \"contracts/OraclePattern.sol\":142:392  contract DataConsumer{... */\n  jump(tag_6)\n    /* \"#utility.yul\":88:205   */\ntag_8:\n    /* \"#utility.yul\":197:198   */\n  0x00\n    /* \"#utility.yul\":194:195   */\n  dup1\n    /* \"#utility.yul\":187:199   */\n  revert\n    /* \"#utility.yul\":334:460   */\ntag_10:\n    /* \"#utility.yul\":371:378   */\n  0x00\n    /* \"#utility.yul\":411:453   */\n  0xffffffffffffffffffffffffffffffffffffffff\n    /* \"#utility.yul\":404:409   */\n  dup3\n    /* \"#utility.yul\":400:454   */\n  and\n    /* \"#utility.yul\":389:454   */\n  swap1\n  pop\n    /* \"#utility.yul\":334:460   */\n  swap2\n  swap1\n  pop\n  jump\t// out\n    /* \"#utility.yul\":466:562   */\ntag_11:\n    /* \"#utility.yul\":503:510   */\n  0x00\n    /* \"#utility.yul\":532:556   */\n  tag_20\n    /* \"#utility.yul\":550:555   */\n  dup3\n    /* \"#utility.yul\":532:556   */\n  tag_10\n  jump\t// in\ntag_20:\n    /* \"#utility.yul\":521:556   */\n  swap1\n  pop\n    /* \"#utility.yul\":466:562   */\n  swap2\n  swap1\n  pop\n  jump\t// out\n    /* \"#utility.yul\":568:690   */\ntag_12:\n    /* \"#utility.yul\":641:665   */\n  tag_22\n    /* \"#utility.yul\":659:664   */\n  dup2\n    /* \"#utility.yul\":641:665   */\n  tag_11\n  jump\t// in\ntag_22:\n    /* \"#utility.yul\":634:639   */\n  dup2\n    /* \"#utility.yul\":631:666   */\n  eq\n    /* \"#utility.yul\":621:684   */\n  tag_23\n  jumpi\n    /* \"#utility.yul\":680:681   */\n  0x00\n    /* \"#utility.yul\":677:678   */\n  dup1\n    /* \"#utility.yul\":670:682   */\n  revert\n    /* \"#utility.yul\":621:684   */\ntag_23:\n    /* \"#utility.yul\":568:690   */\n  pop\n  jump\t// out\n    /* \"#utility.yul\":696:839   */\ntag_13:\n    /* \"#utility.yul\":753:758   */\n  0x00\n    /* \"#utility.yul\":784:790   */\n  dup2\n    /* \"#utility.yul\":778:791   */\n  mload\n    /* \"#utility.yul\":769:791   */\n  swap1\n  pop\n    /* \"#utility.yul\":800:833   */\n  tag_25\n    /* \"#utility.yul\":827:832   */\n  dup2\n    /* \"#utility.yul\":800:833   */\n  tag_12\n  jump\t// in\ntag_25:\n    /* \"#utility.yul\":696:839   */\n  swap3\n  swap2\n  pop\n  pop\n  jump\t// out\n    /* \"#utility.yul\":845:1196   */\ntag_3:\n    /* \"#utility.yul\":915:921   */\n  0x00\n    /* \"#utility.yul\":964:966   */\n  0x20\n    /* \"#utility.yul\":952:961   */\n  dup3\n    /* \"#utility.yul\":943:950   */\n  dup5\n    /* \"#utility.yul\":939:962   */\n  sub\n    /* \"#utility.yul\":935:967   */\n  slt\n    /* \"#utility.yul\":932:1051   */\n  iszero\n  tag_27\n  jumpi\n    /* \"#utility.yul\":970:1049   */\n  tag_28\n  tag_8\n  jump\t// in\ntag_28:\n    /* \"#utility.yul\":932:1051   */\ntag_27:\n    /* \"#utility.yul\":1090:1091   */\n  0x00\n    /* \"#utility.yul\":1115:1179   */\n  tag_29\n    /* \"#utility.yul\":1171:1178   */\n  dup5\n    /* \"#utility.yul\":1162:1168   */\n  dup3\n    /* \"#utility.yul\":1151:1160   */\n  dup6\n    /* \"#utility.yul\":1147:1169   */\n  add\n    /* \"#utility.yul\":1115:1179   */\n  tag_13\n  jump\t// in\ntag_29:\n    /* \"#utility.yul\":1105:1179   */\n  swap2\n  pop\n    /* \"#utility.yul\":1061:1189   */\n  pop\n    /* \"#utility.yul\":845:1196   */\n  swap3\n  swap2\n  pop\n  pop\n  jump\t// out\n    /* \"contracts/OraclePattern.sol\":142:392  contract DataConsumer{... */\ntag_6:\n  dataSize(sub_0)\n  dup1\n  dataOffset(sub_0)\n  0x00\n  codecopy\n  0x00\n  return\nstop\n\nsub_0: assembly {\n        /* \"contracts/OraclePattern.sol\":142:392  contract DataConsumer{... */\n      mstore(0x40, 0x80)\n      callvalue\n      dup1\n      iszero\n      tag_1\n      jumpi\n      0x00\n      dup1\n      revert\n    tag_1:\n      pop\n      jumpi(tag_2, lt(calldatasize, 0x04))\n      shr(0xe0, calldataload(0x00))\n      dup1\n      0x673a7e28\n      eq\n      tag_3\n      jumpi\n      dup1\n      0x7dc0d1d0\n      eq\n      tag_4\n      jumpi\n      dup1\n      0xa035b1fe\n      eq\n      tag_5\n      jumpi\n    tag_2:\n      0x00\n      dup1\n      revert\n        /* \"contracts/OraclePattern.sol\":302:385  function updatePrice() public {... */\n    tag_3:\n      tag_6\n      tag_7\n      jump\t// in\n    tag_6:\n      stop\n        /* \"contracts/OraclePattern.sol\":170:190  Oracle public oracle */\n    tag_4:\n      tag_8\n      tag_9\n      jump\t// in\n    tag_8:\n      mload(0x40)\n      tag_10\n      swap2\n      swap1\n      tag_11\n      jump\t// in\n    tag_10:\n      mload(0x40)\n      dup1\n      swap2\n      sub\n      swap1\n      return\n        /* \"contracts/OraclePattern.sol\":197:214  uint public price */\n    tag_5:\n      tag_12\n      tag_13\n      jump\t// in\n    tag_12:\n      mload(0x40)\n      tag_14\n      swap2\n      swap1\n      tag_15\n      jump\t// in\n    tag_14:\n      mload(0x40)\n      dup1\n      swap2\n      sub\n      swap1\n      return\n        /* \"contracts/OraclePattern.sol\":302:385  function updatePrice() public {... */\n    tag_7:\n        /* \"contracts/OraclePattern.sol\":351:357  oracle */\n      0x00\n      dup1\n      sload\n      swap1\n      0x0100\n      exp\n      swap1\n      div\n      0xffffffffffffffffffffffffffffffffffffffff\n      and\n        /* \"contracts/OraclePattern.sol\":351:366  oracle.getPrice */\n      0xffffffffffffffffffffffffffffffffffffffff\n      and\n      0x524f3889\n        /* \"contracts/OraclePattern.sol\":351:377  oracle.getPrice(\"ETH/USD\") */\n      mload(0x40)\n      dup2\n      0xffffffff\n      and\n      0xe0\n      shl\n      dup2\n      mstore\n      0x04\n      add\n      tag_17\n      swap1\n      tag_18\n      jump\t// in\n    tag_17:\n      0x20\n      mload(0x40)\n      dup1\n      dup4\n      sub\n      dup2\n      dup7\n      gas\n      staticcall\n      iszero\n      dup1\n      iszero\n      tag_20\n      jumpi\n      returndatasize\n      0x00\n      dup1\n      returndatacopy\n      revert(0x00, returndatasize)\n    tag_20:\n      pop\n      pop\n      pop\n      pop\n      mload(0x40)\n      returndatasize\n      not(0x1f)\n      0x1f\n      dup3\n      add\n      and\n      dup3\n      add\n      dup1\n      0x40\n      mstore\n      pop\n      dup2\n      add\n      swap1\n      tag_21\n      swap2\n      swap1\n      tag_22\n      jump\t// in\n    tag_21:\n        /* \"contracts/OraclePattern.sol\":343:348  price */\n      0x01\n        /* \"contracts/OraclePattern.sol\":343:377  price = oracle.getPrice(\"ETH/USD\") */\n      dup2\n      swap1\n      sstore\n      pop\n        /* \"contracts/OraclePattern.sol\":302:385  function updatePrice() public {... */\n      jump\t// out\n        /* \"contracts/OraclePattern.sol\":170:190  Oracle public oracle */\n    tag_9:\n      0x00\n      dup1\n      sload\n      swap1\n      0x0100\n      exp\n      swap1\n      div\n      0xffffffffffffffffffffffffffffffffffffffff\n      and\n      dup2\n      jump\t// out\n        /* \"contracts/OraclePattern.sol\":197:214  uint public price */\n    tag_13:\n      sload(0x01)\n      dup2\n      jump\t// out\n        /* \"#utility.yul\":7:133   */\n    tag_23:\n        /* \"#utility.yul\":44:51   */\n      0x00\n        /* \"#utility.yul\":84:126   */\n      0xffffffffffffffffffffffffffffffffffffffff\n        /* \"#utility.yul\":77:82   */\n      dup3\n        /* \"#utility.yul\":73:127   */\n      and\n        /* \"#utility.yul\":62:127   */\n      swap1\n      pop\n        /* \"#utility.yul\":7:133   */\n      swap2\n      swap1\n      pop\n      jump\t// out\n        /* \"#utility.yul\":139:199   */\n    tag_24:\n        /* \"#utility.yul\":167:170   */\n      0x00\n        /* \"#utility.yul\":188:193   */\n      dup2\n        /* \"#utility.yul\":181:193   */\n      swap1\n      pop\n        /* \"#utility.yul\":139:199   */\n      swap2\n      swap1\n      pop\n      jump\t// out\n        /* \"#utility.yul\":205:347   */\n    tag_25:\n        /* \"#utility.yul\":255:264   */\n      0x00\n        /* \"#utility.yul\":288:341   */\n      tag_43\n        /* \"#utility.yul\":306:340   */\n      tag_44\n        /* \"#utility.yul\":315:339   */\n      tag_45\n        /* \"#utility.yul\":333:338   */\n      dup5\n        /* \"#utility.yul\":315:339   */\n      tag_23\n      jump\t// in\n    tag_45:\n        /* \"#utility.yul\":306:340   */\n      tag_24\n      jump\t// in\n    tag_44:\n        /* \"#utility.yul\":288:341   */\n      tag_23\n      jump\t// in\n    tag_43:\n        /* \"#utility.yul\":275:341   */\n      swap1\n      pop\n        /* \"#utility.yul\":205:347   */\n      swap2\n      swap1\n      pop\n      jump\t// out\n        /* \"#utility.yul\":353:479   */\n    tag_26:\n        /* \"#utility.yul\":403:412   */\n      0x00\n        /* \"#utility.yul\":436:473   */\n      tag_47\n        /* \"#utility.yul\":467:472   */\n      dup3\n        /* \"#utility.yul\":436:473   */\n      tag_25\n      jump\t// in\n    tag_47:\n        /* \"#utility.yul\":423:473   */\n      swap1\n      pop\n        /* \"#utility.yul\":353:479   */\n      swap2\n      swap1\n      pop\n      jump\t// out\n        /* \"#utility.yul\":485:624   */\n    tag_27:\n        /* \"#utility.yul\":548:557   */\n      0x00\n        /* \"#utility.yul\":581:618   */\n      tag_49\n        /* \"#utility.yul\":612:617   */\n      dup3\n        /* \"#utility.yul\":581:618   */\n      tag_26\n      jump\t// in\n    tag_49:\n        /* \"#utility.yul\":568:618   */\n      swap1\n      pop\n        /* \"#utility.yul\":485:624   */\n      swap2\n      swap1\n      pop\n      jump\t// out\n        /* \"#utility.yul\":630:787   */\n    tag_28:\n        /* \"#utility.yul\":730:780   */\n      tag_51\n        /* \"#utility.yul\":774:779   */\n      dup2\n        /* \"#utility.yul\":730:780   */\n      tag_27\n      jump\t// in\n    tag_51:\n        /* \"#utility.yul\":725:728   */\n      dup3\n        /* \"#utility.yul\":718:781   */\n      mstore\n        /* \"#utility.yul\":630:787   */\n      pop\n      pop\n      jump\t// out\n        /* \"#utility.yul\":793:1041   */\n    tag_11:\n        /* \"#utility.yul\":899:903   */\n      0x00\n        /* \"#utility.yul\":937:939   */\n      0x20\n        /* \"#utility.yul\":926:935   */\n      dup3\n        /* \"#utility.yul\":922:940   */\n      add\n        /* \"#utility.yul\":914:940   */\n      swap1\n      pop\n        /* \"#utility.yul\":950:1034   */\n      tag_53\n        /* \"#utility.yul\":1031:1032   */\n      0x00\n        /* \"#utility.yul\":1020:1029   */\n      dup4\n        /* \"#utility.yul\":1016:1033   */\n      add\n        /* \"#utility.yul\":1007:1013   */\n      dup5\n        /* \"#utility.yul\":950:1034   */\n      tag_28\n      jump\t// in\n    tag_53:\n        /* \"#utility.yul\":793:1041   */\n      swap3\n      swap2\n      pop\n      pop\n      jump\t// out\n        /* \"#utility.yul\":1047:1124   */\n    tag_29:\n        /* \"#utility.yul\":1084:1091   */\n      0x00\n        /* \"#utility.yul\":1113:1118   */\n      dup2\n        /* \"#utility.yul\":1102:1118   */\n      swap1\n      pop\n        /* \"#utility.yul\":1047:1124   */\n      swap2\n      swap1\n      pop\n      jump\t// out\n        /* \"#utility.yul\":1130:1248   */\n    tag_30:\n        /* \"#utility.yul\":1217:1241   */\n      tag_56\n        /* \"#utility.yul\":1235:1240   */\n      dup2\n        /* \"#utility.yul\":1217:1241   */\n      tag_29\n      jump\t// in\n    tag_56:\n        /* \"#utility.yul\":1212:1215   */\n      dup3\n        /* \"#utility.yul\":1205:1242   */\n      mstore\n        /* \"#utility.yul\":1130:1248   */\n      pop\n      pop\n      jump\t// out\n        /* \"#utility.yul\":1254:1476   */\n    tag_15:\n        /* \"#utility.yul\":1347:1351   */\n      0x00\n        /* \"#utility.yul\":1385:1387   */\n      0x20\n        /* \"#utility.yul\":1374:1383   */\n      dup3\n        /* \"#utility.yul\":1370:1388   */\n      add\n        /* \"#utility.yul\":1362:1388   */\n      swap1\n      pop\n        /* \"#utility.yul\":1398:1469   */\n      tag_58\n        /* \"#utility.yul\":1466:1467   */\n      0x00\n        /* \"#utility.yul\":1455:1464   */\n      dup4\n        /* \"#utility.yul\":1451:1468   */\n      add\n        /* \"#utility.yul\":1442:1448   */\n      dup5\n        /* \"#utility.yul\":1398:1469   */\n      tag_30\n      jump\t// in\n    tag_58:\n        /* \"#utility.yul\":1254:1476   */\n      swap3\n      swap2\n      pop\n      pop\n      jump\t// out\n        /* \"#utility.yul\":1482:1651   */\n    tag_31:\n        /* \"#utility.yul\":1566:1577   */\n      0x00\n        /* \"#utility.yul\":1600:1606   */\n      dup3\n        /* \"#utility.yul\":1595:1598   */\n      dup3\n        /* \"#utility.yul\":1588:1607   */\n      mstore\n        /* \"#utility.yul\":1640:1644   */\n      0x20\n        /* \"#utility.yul\":1635:1638   */\n      dup3\n        /* \"#utility.yul\":1631:1645   */\n      add\n        /* \"#utility.yul\":1616:1645   */\n      swap1\n      pop\n        /* \"#utility.yul\":1482:1651   */\n      swap3\n      swap2\n      pop\n      pop\n      jump\t// out\n        /* \"#utility.yul\":1657:1814   */\n    tag_32:\n        /* \"#utility.yul\":1797:1806   */\n      0x4554482f55534400000000000000000000000000000000000000000000000000\n        /* \"#utility.yul\":1793:1794   */\n      0x00\n        /* \"#utility.yul\":1785:1791   */\n      dup3\n        /* \"#utility.yul\":1781:1795   */\n      add\n        /* \"#utility.yul\":1774:1807   */\n      mstore\n        /* \"#utility.yul\":1657:1814   */\n      pop\n      jump\t// out\n        /* \"#utility.yul\":1820:2185   */\n    tag_33:\n        /* \"#utility.yul\":1962:1965   */\n      0x00\n        /* \"#utility.yul\":1983:2049   */\n      tag_62\n        /* \"#utility.yul\":2047:2048   */\n      0x07\n        /* \"#utility.yul\":2042:2045   */\n      dup4\n        /* \"#utility.yul\":1983:2049   */\n      tag_31\n      jump\t// in\n    tag_62:\n        /* \"#utility.yul\":1976:2049   */\n      swap2\n      pop\n        /* \"#utility.yul\":2058:2151   */\n      tag_63\n        /* \"#utility.yul\":2147:2150   */\n      dup3\n        /* \"#utility.yul\":2058:2151   */\n      tag_32\n      jump\t// in\n    tag_63:\n        /* \"#utility.yul\":2176:2178   */\n      0x20\n        /* \"#utility.yul\":2171:2174   */\n      dup3\n        /* \"#utility.yul\":2167:2179   */\n      add\n        /* \"#utility.yul\":2160:2179   */\n      swap1\n      pop\n        /* \"#utility.yul\":1820:2185   */\n      swap2\n      swap1\n      pop\n      jump\t// out\n        /* \"#utility.yul\":2191:2610   */\n    tag_18:\n        /* \"#utility.yul\":2357:2361   */\n      0x00\n        /* \"#utility.yul\":2395:2397   */\n      0x20\n        /* \"#utility.yul\":2384:2393   */\n      dup3\n        /* \"#utility.yul\":2380:2398   */\n      add\n        /* \"#utility.yul\":2372:2398   */\n      swap1\n      pop\n        /* \"#utility.yul\":2444:2453   */\n      dup2\n        /* \"#utility.yul\":2438:2442   */\n      dup2\n        /* \"#utility.yul\":2434:2454   */\n      sub\n        /* \"#utility.yul\":2430:2431   */\n      0x00\n        /* \"#utility.yul\":2419:2428   */\n      dup4\n        /* \"#utility.yul\":2415:2432   */\n      add\n        /* \"#utility.yul\":2408:2455   */\n      mstore\n        /* \"#utility.yul\":2472:2603   */\n      tag_65\n        /* \"#utility.yul\":2598:2602   */\n      dup2\n        /* \"#utility.yul\":2472:2603   */\n      tag_33\n      jump\t// in\n    tag_65:\n        /* \"#utility.yul\":2464:2603   */\n      swap1\n      pop\n        /* \"#utility.yul\":2191:2610   */\n      swap2\n      swap1\n      pop\n      jump\t// out\n        /* \"#utility.yul\":2697:2814   */\n    tag_35:\n        /* \"#utility.yul\":2806:2807   */\n      0x00\n        /* \"#utility.yul\":2803:2804   */\n      dup1\n        /* \"#utility.yul\":2796:2808   */\n      revert\n        /* \"#utility.yul\":2943:3065   */\n    tag_37:\n        /* \"#utility.yul\":3016:3040   */\n      tag_70\n        /* \"#utility.yul\":3034:3039   */\n      dup2\n        /* \"#utility.yul\":3016:3040   */\n      tag_29\n      jump\t// in\n    tag_70:\n        /* \"#utility.yul\":3009:3014   */\n      dup2\n        /* \"#utility.yul\":3006:3041   */\n      eq\n        /* \"#utility.yul\":2996:3059   */\n      tag_71\n      jumpi\n        /* \"#utility.yul\":3055:3056   */\n      0x00\n        /* \"#utility.yul\":3052:3053   */\n      dup1\n        /* \"#utility.yul\":3045:3057   */\n      revert\n        /* \"#utility.yul\":2996:3059   */\n    tag_71:\n        /* \"#utility.yul\":2943:3065   */\n      pop\n      jump\t// out\n        /* \"#utility.yul\":3071:3214   */\n    tag_38:\n        /* \"#utility.yul\":3128:3133   */\n      0x00\n        /* \"#utility.yul\":3159:3165   */\n      dup2\n        /* \"#utility.yul\":3153:3166   */\n      mload\n        /* \"#utility.yul\":3144:3166   */\n      swap1\n      pop\n        /* \"#utility.yul\":3175:3208   */\n      tag_73\n        /* \"#utility.yul\":3202:3207   */\n      dup2\n        /* \"#utility.yul\":3175:3208   */\n      tag_37\n      jump\t// in\n    tag_73:\n        /* \"#utility.yul\":3071:3214   */\n      swap3\n      swap2\n      pop\n      pop\n      jump\t// out\n        /* \"#utility.yul\":3220:3571   */\n    tag_22:\n        /* \"#utility.yul\":3290:3296   */\n      0x00\n        /* \"#utility.yul\":3339:3341   */\n      0x20\n        /* \"#utility.yul\":3327:3336   */\n      dup3\n        /* \"#utility.yul\":3318:3325   */\n      dup5\n        /* \"#utility.yul\":3314:3337   */\n      sub\n        /* \"#utility.yul\":3310:3342   */\n      slt\n        /* \"#utility.yul\":3307:3426   */\n      iszero\n      tag_75\n      jumpi\n        /* \"#utility.yul\":3345:3424   */\n      tag_76\n      tag_35\n      jump\t// in\n    tag_76:\n        /* \"#utility.yul\":3307:3426   */\n    tag_75:\n        /* \"#utility.yul\":3465:3466   */\n      0x00\n        /* \"#utility.yul\":3490:3554   */\n      tag_77\n        /* \"#utility.yul\":3546:3553   */\n      dup5\n        /* \"#utility.yul\":3537:3543   */\n      dup3\n        /* \"#utility.yul\":3526:3535   */\n      dup6\n        /* \"#utility.yul\":3522:3544   */\n      add\n        /* \"#utility.yul\":3490:3554   */\n      tag_38\n      jump\t// in\n    tag_77:\n        /* \"#utility.yul\":3480:3554   */\n      swap2\n      pop\n        /* \"#utility.yul\":3436:3564   */\n      pop\n        /* \"#utility.yul\":3220:3571   */\n      swap3\n      swap2\n      pop\n      pop\n      jump\t// out\n\n    auxdata: 0xa264697066735822122021b46954ae768e22ce8d2e3b6f15a1799f7c4a8a12b7797bc22611c059bed58f64736f6c634300081a0033\n}\n",
				"bytecode": {
					"linkReferences": {},
					"object": "608060405234801561000f575f80fd5b50604051610426380380610426833981810160405281019061003191906100d4565b805f806101000a81548173ffffffffffffffffffffffffffffffffffffffff021916908373ffffffffffffffffffffffffffffffffffffffff160217905550506100ff565b5f80fd5b5f73ffffffffffffffffffffffffffffffffffffffff82169050919050565b5f6100a38261007a565b9050919050565b6100b381610099565b81146100bd575f80fd5b50565b5f815190506100ce816100aa565b92915050565b5f602082840312156100e9576100e8610076565b5b5f6100f6848285016100c0565b91505092915050565b61031a8061010c5f395ff3fe608060405234801561000f575f80fd5b506004361061003f575f3560e01c8063673a7e28146100435780637dc0d1d01461004d578063a035b1fe1461006b575b5f80fd5b61004b610089565b005b610055610126565b60405161006291906101c9565b60405180910390f35b610073610149565b60405161008091906101fa565b60405180910390f35b5f8054906101000a900473ffffffffffffffffffffffffffffffffffffffff1673ffffffffffffffffffffffffffffffffffffffff1663524f38896040518163ffffffff1660e01b81526004016100df9061026d565b602060405180830381865afa1580156100fa573d5f803e3d5ffd5b505050506040513d601f19601f8201168201806040525081019061011e91906102b9565b600181905550565b5f8054906101000a900473ffffffffffffffffffffffffffffffffffffffff1681565b60015481565b5f73ffffffffffffffffffffffffffffffffffffffff82169050919050565b5f819050919050565b5f61019161018c6101878461014f565b61016e565b61014f565b9050919050565b5f6101a282610177565b9050919050565b5f6101b382610198565b9050919050565b6101c3816101a9565b82525050565b5f6020820190506101dc5f8301846101ba565b92915050565b5f819050919050565b6101f4816101e2565b82525050565b5f60208201905061020d5f8301846101eb565b92915050565b5f82825260208201905092915050565b7f4554482f555344000000000000000000000000000000000000000000000000005f82015250565b5f610257600783610213565b915061026282610223565b602082019050919050565b5f6020820190508181035f8301526102848161024b565b9050919050565b5f80fd5b610298816101e2565b81146102a2575f80fd5b50565b5f815190506102b38161028f565b92915050565b5f602082840312156102ce576102cd61028b565b5b5f6102db848285016102a5565b9150509291505056fea264697066735822122021b46954ae768e22ce8d2e3b6f15a1799f7c4a8a12b7797bc22611c059bed58f64736f6c634300081a0033",
					"opcodes": "PUSH1 0x80 PUSH1 0x40 MSTORE CALLVALUE DUP1 ISZERO PUSH2 0xF JUMPI PUSH0 DUP1 REVERT JUMPDEST POP PUSH1 0x40 MLOAD PUSH2 0x426 CODESIZE SUB DUP1 PUSH2 0x426 DUP4 CODECOPY DUP2 DUP2 ADD PUSH1 0x40 MSTORE DUP2 ADD SWAP1 PUSH2 0x31 SWAP2 SWAP1 PUSH2 0xD4 JUMP JUMPDEST DUP1 PUSH0 DUP1 PUSH2 0x100 EXP DUP2 SLOAD DUP2 PUSH20 0xFFFFFFFFFFFFFFFFFFFFFFFFFFFFFFFFFFFFFFFF MUL NOT AND SWAP1 DUP4 PUSH20 0xFFFFFFFFFFFFFFFFFFFFFFFFFFFFFFFFFFFFFFFF AND MUL OR SWAP1 SSTORE POP POP PUSH2 0xFF JUMP JUMPDEST PUSH0 DUP1 REVERT JUMPDEST PUSH0 PUSH20 0xFFFFFFFFFFFFFFFFFFFFFFFFFFFFFFFFFFFFFFFF DUP3 AND SWAP1 POP SWAP2 SWAP1 POP JUMP JUMPDEST PUSH0 PUSH2 0xA3 DUP3 PUSH2 0x7A JUMP JUMPDEST SWAP1 POP SWAP2 SWAP1 POP JUMP JUMPDEST PUSH2 0xB3 DUP2 PUSH2 0x99 JUMP JUMPDEST DUP2 EQ PUSH2 0xBD JUMPI PUSH0 DUP1 REVERT JUMPDEST POP JUMP JUMPDEST PUSH0 DUP2 MLOAD SWAP1 POP PUSH2 0xCE DUP2 PUSH2 0xAA JUMP JUMPDEST SWAP3 SWAP2 POP POP JUMP JUMPDEST PUSH0 PUSH1 0x20 DUP3 DUP5 SUB SLT ISZERO PUSH2 0xE9 JUMPI PUSH2 0xE8 PUSH2 0x76 JUMP JUMPDEST JUMPDEST PUSH0 PUSH2 0xF6 DUP5 DUP3 DUP6 ADD PUSH2 0xC0 JUMP JUMPDEST SWAP2 POP POP SWAP3 SWAP2 POP POP JUMP JUMPDEST PUSH2 0x31A DUP1 PUSH2 0x10C PUSH0 CODECOPY PUSH0 RETURN INVALID PUSH1 0x80 PUSH1 0x40 MSTORE CALLVALUE DUP1 ISZERO PUSH2 0xF JUMPI PUSH0 DUP1 REVERT JUMPDEST POP PUSH1 0x4 CALLDATASIZE LT PUSH2 0x3F JUMPI PUSH0 CALLDATALOAD PUSH1 0xE0 SHR DUP1 PUSH4 0x673A7E28 EQ PUSH2 0x43 JUMPI DUP1 PUSH4 0x7DC0D1D0 EQ PUSH2 0x4D JUMPI DUP1 PUSH4 0xA035B1FE EQ PUSH2 0x6B JUMPI JUMPDEST PUSH0 DUP1 REVERT JUMPDEST PUSH2 0x4B PUSH2 0x89 JUMP JUMPDEST STOP JUMPDEST PUSH2 0x55 PUSH2 0x126 JUMP JUMPDEST PUSH1 0x40 MLOAD PUSH2 0x62 SWAP2 SWAP1 PUSH2 0x1C9 JUMP JUMPDEST PUSH1 0x40 MLOAD DUP1 SWAP2 SUB SWAP1 RETURN JUMPDEST PUSH2 0x73 PUSH2 0x149 JUMP JUMPDEST PUSH1 0x40 MLOAD PUSH2 0x80 SWAP2 SWAP1 PUSH2 0x1FA JUMP JUMPDEST PUSH1 0x40 MLOAD DUP1 SWAP2 SUB SWAP1 RETURN JUMPDEST PUSH0 DUP1 SLOAD SWAP1 PUSH2 0x100 EXP SWAP1 DIV PUSH20 0xFFFFFFFFFFFFFFFFFFFFFFFFFFFFFFFFFFFFFFFF AND PUSH20 0xFFFFFFFFFFFFFFFFFFFFFFFFFFFFFFFFFFFFFFFF AND PUSH4 0x524F3889 PUSH1 0x40 MLOAD DUP2 PUSH4 0xFFFFFFFF AND PUSH1 0xE0 SHL DUP2 MSTORE PUSH1 0x4 ADD PUSH2 0xDF SWAP1 PUSH2 0x26D JUMP JUMPDEST PUSH1 0x20 PUSH1 0x40 MLOAD DUP1 DUP4 SUB DUP2 DUP7 GAS STATICCALL ISZERO DUP1 ISZERO PUSH2 0xFA JUMPI RETURNDATASIZE PUSH0 DUP1 RETURNDATACOPY RETURNDATASIZE PUSH0 REVERT JUMPDEST POP POP POP POP PUSH1 0x40 MLOAD RETURNDATASIZE PUSH1 0x1F NOT PUSH1 0x1F DUP3 ADD AND DUP3 ADD DUP1 PUSH1 0x40 MSTORE POP DUP2 ADD SWAP1 PUSH2 0x11E SWAP2 SWAP1 PUSH2 0x2B9 JUMP JUMPDEST PUSH1 0x1 DUP2 SWAP1 SSTORE POP JUMP JUMPDEST PUSH0 DUP1 SLOAD SWAP1 PUSH2 0x100 EXP SWAP1 DIV PUSH20 0xFFFFFFFFFFFFFFFFFFFFFFFFFFFFFFFFFFFFFFFF AND DUP2 JUMP JUMPDEST PUSH1 0x1 SLOAD DUP2 JUMP JUMPDEST PUSH0 PUSH20 0xFFFFFFFFFFFFFFFFFFFFFFFFFFFFFFFFFFFFFFFF DUP3 AND SWAP1 POP SWAP2 SWAP1 POP JUMP JUMPDEST PUSH0 DUP2 SWAP1 POP SWAP2 SWAP1 POP JUMP JUMPDEST PUSH0 PUSH2 0x191 PUSH2 0x18C PUSH2 0x187 DUP5 PUSH2 0x14F JUMP JUMPDEST PUSH2 0x16E JUMP JUMPDEST PUSH2 0x14F JUMP JUMPDEST SWAP1 POP SWAP2 SWAP1 POP JUMP JUMPDEST PUSH0 PUSH2 0x1A2 DUP3 PUSH2 0x177 JUMP JUMPDEST SWAP1 POP SWAP2 SWAP1 POP JUMP JUMPDEST PUSH0 PUSH2 0x1B3 DUP3 PUSH2 0x198 JUMP JUMPDEST SWAP1 POP SWAP2 SWAP1 POP JUMP JUMPDEST PUSH2 0x1C3 DUP2 PUSH2 0x1A9 JUMP JUMPDEST DUP3 MSTORE POP POP JUMP JUMPDEST PUSH0 PUSH1 0x20 DUP3 ADD SWAP1 POP PUSH2 0x1DC PUSH0 DUP4 ADD DUP5 PUSH2 0x1BA JUMP JUMPDEST SWAP3 SWAP2 POP POP JUMP JUMPDEST PUSH0 DUP2 SWAP1 POP SWAP2 SWAP1 POP JUMP JUMPDEST PUSH2 0x1F4 DUP2 PUSH2 0x1E2 JUMP JUMPDEST DUP3 MSTORE POP POP JUMP JUMPDEST PUSH0 PUSH1 0x20 DUP3 ADD SWAP1 POP PUSH2 0x20D PUSH0 DUP4 ADD DUP5 PUSH2 0x1EB JUMP JUMPDEST SWAP3 SWAP2 POP POP JUMP JUMPDEST PUSH0 DUP3 DUP3 MSTORE PUSH1 0x20 DUP3 ADD SWAP1 POP SWAP3 SWAP2 POP POP JUMP JUMPDEST PUSH32 0x4554482F55534400000000000000000000000000000000000000000000000000 PUSH0 DUP3 ADD MSTORE POP JUMP JUMPDEST PUSH0 PUSH2 0x257 PUSH1 0x7 DUP4 PUSH2 0x213 JUMP JUMPDEST SWAP2 POP PUSH2 0x262 DUP3 PUSH2 0x223 JUMP JUMPDEST PUSH1 0x20 DUP3 ADD SWAP1 POP SWAP2 SWAP1 POP JUMP JUMPDEST PUSH0 PUSH1 0x20 DUP3 ADD SWAP1 POP DUP2 DUP2 SUB PUSH0 DUP4 ADD MSTORE PUSH2 0x284 DUP2 PUSH2 0x24B JUMP JUMPDEST SWAP1 POP SWAP2 SWAP1 POP JUMP JUMPDEST PUSH0 DUP1 REVERT JUMPDEST PUSH2 0x298 DUP2 PUSH2 0x1E2 JUMP JUMPDEST DUP2 EQ PUSH2 0x2A2 JUMPI PUSH0 DUP1 REVERT JUMPDEST POP JUMP JUMPDEST PUSH0 DUP2 MLOAD SWAP1 POP PUSH2 0x2B3 DUP2 PUSH2 0x28F JUMP JUMPDEST SWAP3 SWAP2 POP POP JUMP JUMPDEST PUSH0 PUSH1 0x20 DUP3 DUP5 SUB SLT ISZERO PUSH2 0x2CE JUMPI PUSH2 0x2CD PUSH2 0x28B JUMP JUMPDEST JUMPDEST PUSH0 PUSH2 0x2DB DUP5 DUP3 DUP6 ADD PUSH2 0x2A5 JUMP JUMPDEST SWAP2 POP POP SWAP3 SWAP2 POP POP JUMP INVALID LOG2 PUSH5 0x6970667358 0x22 SLT KECCAK256 0x21 0xB4 PUSH10 0x54AE768E22CE8D2E3B6F ISZERO LOG1 PUSH26 0x9F7C4A8A12B7797BC22611C059BED58F64736F6C634300081A00 CALLER "
				},
				"gasEstimates": {
					"creation": {
						"codeDepositCost": "158800",
						"executionCost": "infinite",
						"totalCost": "infinite"
					},
					"external": {
						"oracle()": "infinite",
						"price()": "2447",
						"updatePrice()": "infinite"
					}
				},
				"methodIdentifiers": {
					"oracle()": "7dc0d1d0",
					"price()": "a035b1fe",
					"updatePrice()": "673a7e28"
				}
			},
			"storageLayout": {
				"storage": [
					{
						"astId": 4,
						"contract": "contracts/OraclePattern.sol:DataConsumer",
						"label": "oracle",
						"offset": 0,
						"slot": "0",
						"type": "t_contract(Oracle)41"
					},
					{
						"astId": 6,
						"contract": "contracts/OraclePattern.sol:DataConsumer",
						"label": "price",
						"offset": 0,
						"slot": "1",
						"type": "t_uint256"
					}
				],
				"types": {
					"t_contract(Oracle)41": {
						"encoding": "inplace",
						"label": "contract Oracle",
						"numberOfBytes": "20"
					},
					"t_uint256": {
						"encoding": "inplace",
						"label": "uint256",
						"numberOfBytes": "32"
					}
				}
			},
			"userdoc": {
				"kind": "user",
				"methods": {},
				"version": 1
			}
		}
	}
}