{
	"contracts/Advanced.sol": {
		"Advanced": {
			"abi": [
				{
					"anonymous": false,
					"inputs": [
						{
							"indexed": true,
							"internalType": "address",
							"name": "_from",
							"type": "address"
						},
						{
							"indexed": false,
							"internalType": "uint256",
							"name": "value",
							"type": "uint256"
						}
					],
					"name": "Number",
					"type": "event"
				},
				{
					"inputs": [
						{
							"internalType": "uint256[]",
							"name": "newValues",
							"type": "uint256[]"
						}
					],
					"name": "addToArray",
					"outputs": [],
					"stateMutability": "nonpayable",
					"type": "function"
				},
				{
					"inputs": [
						{
							"internalType": "uint256",
							"name": "value",
							"type": "uint256"
						}
					],
					"name": "addToDynamicArray",
					"outputs": [],
					"stateMutability": "nonpayable",
					"type": "function"
				},
				{
					"inputs": [
						{
							"internalType": "uint256",
							"name": "_number",
							"type": "uint256"
						}
					],
					"name": "checkNumber",
					"outputs": [],
					"stateMutability": "nonpayable",
					"type": "function"
				},
				{
					"inputs": [
						{
							"internalType": "string",
							"name": "_name",
							"type": "string"
						}
					],
					"name": "createStudent",
					"outputs": [],
					"stateMutability": "nonpayable",
					"type": "function"
				},
				{
					"inputs": [
						{
							"internalType": "uint256",
							"name": "",
							"type": "uint256"
						}
					],
					"name": "dynamicSizeArray",
					"outputs": [
						{
							"internalType": "uint256",
							"name": "",
							"type": "uint256"
						}
					],
					"stateMutability": "view",
					"type": "function"
				},
				{
					"inputs": [
						{
							"internalType": "uint256",
							"name": "",
							"type": "uint256"
						}
					],
					"name": "fixedSizeArray",
					"outputs": [
						{
							"internalType": "uint256",
							"name": "",
							"type": "uint256"
						}
					],
					"stateMutability": "view",
					"type": "function"
				},
				{
					"inputs": [],
					"name": "getArrayLength",
					"outputs": [
						{
							"internalType": "uint256",
							"name": "",
							"type": "uint256"
						}
					],
					"stateMutability": "view",
					"type": "function"
				},
				{
					"inputs": [
						{
							"internalType": "uint256",
							"name": "",
							"type": "uint256"
						}
					],
					"name": "myArray",
					"outputs": [
						{
							"internalType": "uint256",
							"name": "",
							"type": "uint256"
						}
					],
					"stateMutability": "view",
					"type": "function"
				},
				{
					"inputs": [],
					"name": "number",
					"outputs": [
						{
							"internalType": "uint256",
							"name": "",
							"type": "uint256"
						}
					],
					"stateMutability": "view",
					"type": "function"
				},
				{
					"inputs": [],
					"name": "number1",
					"outputs": [
						{
							"internalType": "uint256",
							"name": "",
							"type": "uint256"
						}
					],
					"stateMutability": "view",
					"type": "function"
				},
				{
					"inputs": [],
					"name": "result",
					"outputs": [
						{
							"internalType": "enum Advanced.Result",
							"name": "",
							"type": "uint8"
						}
					],
					"stateMutability": "view",
					"type": "function"
				},
				{
					"inputs": [
						{
							"internalType": "uint256",
							"name": "_value",
							"type": "uint256"
						}
					],
					"name": "setBalance",
					"outputs": [],
					"stateMutability": "nonpayable",
					"type": "function"
				},
				{
					"inputs": [
						{
							"internalType": "uint256",
							"name": "_number",
							"type": "uint256"
						}
					],
					"name": "setNumber",
					"outputs": [
						{
							"internalType": "uint256",
							"name": "",
							"type": "uint256"
						}
					],
					"stateMutability": "nonpayable",
					"type": "function"
				},
				{
					"inputs": [
						{
							"internalType": "enum Advanced.Result",
							"name": "_result",
							"type": "uint8"
						}
					],
					"name": "setResult",
					"outputs": [],
					"stateMutability": "nonpayable",
					"type": "function"
				},
				{
					"inputs": [],
					"name": "student1",
					"outputs": [
						{
							"internalType": "address",
							"name": "studentAddress",
							"type": "address"
						},
						{
							"internalType": "uint256",
							"name": "studentBalance",
							"type": "uint256"
						},
						{
							"internalType": "string",
							"name": "name",
							"type": "string"
						}
					],
					"stateMutability": "view",
					"type": "function"
				},
				{
					"inputs": [
						{
							"internalType": "uint256",
							"name": "",
							"type": "uint256"
						}
					],
					"name": "students",
					"outputs": [
						{
							"internalType": "address",
							"name": "studentAddress",
							"type": "address"
						},
						{
							"internalType": "uint256",
							"name": "studentBalance",
							"type": "uint256"
						},
						{
							"internalType": "string",
							"name": "name",
							"type": "string"
						}
					],
					"stateMutability": "view",
					"type": "function"
				},
				{
					"inputs": [
						{
							"internalType": "uint256",
							"name": "_index",
							"type": "uint256"
						},
						{
							"internalType": "uint256",
							"name": "_value",
							"type": "uint256"
						}
					],
					"name": "updateFixedArray",
					"outputs": [],
					"stateMutability": "nonpayable",
					"type": "function"
				}
			],
			"devdoc": {
				"kind": "dev",
				"methods": {},
				"version": 1
			},
			"evm": {
				"assembly": "    /* \"contracts/Advanced.sol\":61:3074  contract Advanced{... */\n  mstore(0x40, 0x80)\n    /* \"contracts/Advanced.sol\":831:833  50 */\n  0x32\n    /* \"contracts/Advanced.sol\":809:833  uint public number1 = 50 */\n  0x01\n  sstore\n    /* \"contracts/Advanced.sol\":61:3074  contract Advanced{... */\n  callvalue\n  dup1\n  iszero\n  tag_1\n  jumpi\n  0x00\n  dup1\n  revert\ntag_1:\n  pop\n  dataSize(sub_0)\n  dup1\n  dataOffset(sub_0)\n  0x00\n  codecopy\n  0x00\n  return\nstop\n\nsub_0: assembly {\n        /* \"contracts/Advanced.sol\":61:3074  contract Advanced{... */\n      mstore(0x40, 0x80)\n      callvalue\n      dup1\n      iszero\n      tag_1\n      jumpi\n      0x00\n      dup1\n      revert\n    tag_1:\n      pop\n      jumpi(tag_2, lt(calldatasize, 0x04))\n      shr(0xe0, calldataload(0x00))\n      dup1\n      0xc223a39e\n      gt\n      tag_20\n      jumpi\n      dup1\n      0xda5e1cfd\n      gt\n      tag_21\n      jumpi\n      dup1\n      0xda5e1cfd\n      eq\n      tag_15\n      jumpi\n      dup1\n      0xe892264f\n      eq\n      tag_16\n      jumpi\n      dup1\n      0xeb0e9240\n      eq\n      tag_17\n      jumpi\n      dup1\n      0xf80bc664\n      eq\n      tag_18\n      jumpi\n      dup1\n      0xfb1669ca\n      eq\n      tag_19\n      jumpi\n      jump(tag_2)\n    tag_21:\n      dup1\n      0xc223a39e\n      eq\n      tag_11\n      jumpi\n      dup1\n      0xcc3e57d9\n      eq\n      tag_12\n      jumpi\n      dup1\n      0xcf3d229c\n      eq\n      tag_13\n      jumpi\n      dup1\n      0xd6029359\n      eq\n      tag_14\n      jumpi\n      jump(tag_2)\n    tag_20:\n      dup1\n      0x3fb5c1cb\n      gt\n      tag_22\n      jumpi\n      dup1\n      0x3fb5c1cb\n      eq\n      tag_7\n      jumpi\n      dup1\n      0x65372147\n      eq\n      tag_8\n      jumpi\n      dup1\n      0x80ce60d1\n      eq\n      tag_9\n      jumpi\n      dup1\n      0x8381f58a\n      eq\n      tag_10\n      jumpi\n      jump(tag_2)\n    tag_22:\n      dup1\n      0x06ead22e\n      eq\n      tag_3\n      jumpi\n      dup1\n      0x0849cc99\n      eq\n      tag_4\n      jumpi\n      dup1\n      0x12399d88\n      eq\n      tag_5\n      jumpi\n      dup1\n      0x361a80e6\n      eq\n      tag_6\n      jumpi\n    tag_2:\n      0x00\n      dup1\n      revert\n        /* \"contracts/Advanced.sol\":2680:2705  Student[] public students */\n    tag_3:\n      tag_23\n      0x04\n      dup1\n      calldatasize\n      sub\n      dup2\n      add\n      swap1\n      tag_24\n      swap2\n      swap1\n      tag_25\n      jump\t// in\n    tag_24:\n      tag_26\n      jump\t// in\n    tag_23:\n      mload(0x40)\n      tag_27\n      swap4\n      swap3\n      swap2\n      swap1\n      tag_28\n      jump\t// in\n    tag_27:\n      mload(0x40)\n      dup1\n      swap2\n      sub\n      swap1\n      return\n        /* \"contracts/Advanced.sol\":1503:1710  function getArrayLength() public view returns (uint) {... */\n    tag_4:\n      tag_29\n      tag_30\n      jump\t// in\n    tag_29:\n      mload(0x40)\n      tag_31\n      swap2\n      swap1\n      tag_32\n      jump\t// in\n    tag_31:\n      mload(0x40)\n      dup1\n      swap2\n      sub\n      swap1\n      return\n        /* \"contracts/Advanced.sol\":1947:1976  uint[5] public fixedSizeArray */\n    tag_5:\n      tag_33\n      0x04\n      dup1\n      calldatasize\n      sub\n      dup2\n      add\n      swap1\n      tag_34\n      swap2\n      swap1\n      tag_25\n      jump\t// in\n    tag_34:\n      tag_35\n      jump\t// in\n    tag_33:\n      mload(0x40)\n      tag_36\n      swap2\n      swap1\n      tag_32\n      jump\t// in\n    tag_36:\n      mload(0x40)\n      dup1\n      swap2\n      sub\n      swap1\n      return\n        /* \"contracts/Advanced.sol\":2650:2673  Student public student1 */\n    tag_6:\n      tag_37\n      tag_38\n      jump\t// in\n    tag_37:\n      mload(0x40)\n      tag_39\n      swap4\n      swap3\n      swap2\n      swap1\n      tag_28\n      jump\t// in\n    tag_39:\n      mload(0x40)\n      dup1\n      swap2\n      sub\n      swap1\n      return\n        /* \"contracts/Advanced.sol\":195:360  function setNumber(uint _number) public returns(uint){... */\n    tag_7:\n      tag_40\n      0x04\n      dup1\n      calldatasize\n      sub\n      dup2\n      add\n      swap1\n      tag_41\n      swap2\n      swap1\n      tag_25\n      jump\t// in\n    tag_41:\n      tag_42\n      jump\t// in\n    tag_40:\n      mload(0x40)\n      tag_43\n      swap2\n      swap1\n      tag_32\n      jump\t// in\n    tag_43:\n      mload(0x40)\n      dup1\n      swap2\n      sub\n      swap1\n      return\n        /* \"contracts/Advanced.sol\":2937:2957  Result public result */\n    tag_8:\n      tag_44\n      tag_45\n      jump\t// in\n    tag_44:\n      mload(0x40)\n      tag_46\n      swap2\n      swap1\n      tag_47\n      jump\t// in\n    tag_46:\n      mload(0x40)\n      dup1\n      swap2\n      sub\n      swap1\n      return\n        /* \"contracts/Advanced.sol\":2966:3065  function setResult(Result _result) public {... */\n    tag_9:\n      tag_48\n      0x04\n      dup1\n      calldatasize\n      sub\n      dup2\n      add\n      swap1\n      tag_49\n      swap2\n      swap1\n      tag_50\n      jump\t// in\n    tag_49:\n      tag_51\n      jump\t// in\n    tag_48:\n      stop\n        /* \"contracts/Advanced.sol\":113:131  uint public number */\n    tag_10:\n      tag_52\n      tag_53\n      jump\t// in\n    tag_52:\n      mload(0x40)\n      tag_54\n      swap2\n      swap1\n      tag_32\n      jump\t// in\n    tag_54:\n      mload(0x40)\n      dup1\n      swap2\n      sub\n      swap1\n      return\n        /* \"contracts/Advanced.sol\":809:833  uint public number1 = 50 */\n    tag_11:\n      tag_55\n      tag_56\n      jump\t// in\n    tag_55:\n      mload(0x40)\n      tag_57\n      swap2\n      swap1\n      tag_32\n      jump\t// in\n    tag_57:\n      mload(0x40)\n      dup1\n      swap2\n      sub\n      swap1\n      return\n        /* \"contracts/Advanced.sol\":1219:1240  uint[] public myArray */\n    tag_12:\n      tag_58\n      0x04\n      dup1\n      calldatasize\n      sub\n      dup2\n      add\n      swap1\n      tag_59\n      swap2\n      swap1\n      tag_25\n      jump\t// in\n    tag_59:\n      tag_60\n      jump\t// in\n    tag_58:\n      mload(0x40)\n      tag_61\n      swap2\n      swap1\n      tag_32\n      jump\t// in\n    tag_61:\n      mload(0x40)\n      dup1\n      swap2\n      sub\n      swap1\n      return\n        /* \"contracts/Advanced.sol\":2278:2463  function updateFixedArray(uint _index,uint _value) public {... */\n    tag_13:\n      tag_62\n      0x04\n      dup1\n      calldatasize\n      sub\n      dup2\n      add\n      swap1\n      tag_63\n      swap2\n      swap1\n      tag_64\n      jump\t// in\n    tag_63:\n      tag_65\n      jump\t// in\n    tag_62:\n      stop\n        /* \"contracts/Advanced.sol\":2014:2044  uint[] public dynamicSizeArray */\n    tag_14:\n      tag_66\n      0x04\n      dup1\n      calldatasize\n      sub\n      dup2\n      add\n      swap1\n      tag_67\n      swap2\n      swap1\n      tag_25\n      jump\t// in\n    tag_67:\n      tag_68\n      jump\t// in\n    tag_66:\n      mload(0x40)\n      tag_69\n      swap2\n      swap1\n      tag_32\n      jump\t// in\n    tag_69:\n      mload(0x40)\n      dup1\n      swap2\n      sub\n      swap1\n      return\n        /* \"contracts/Advanced.sol\":2053:2167  function addToDynamicArray(uint value) public{... */\n    tag_15:\n      tag_70\n      0x04\n      dup1\n      calldatasize\n      sub\n      dup2\n      add\n      swap1\n      tag_71\n      swap2\n      swap1\n      tag_25\n      jump\t// in\n    tag_71:\n      tag_72\n      jump\t// in\n    tag_70:\n      stop\n        /* \"contracts/Advanced.sol\":1271:1495  function addToArray(uint[] memory newValues) public {... */\n    tag_16:\n      tag_73\n      0x04\n      dup1\n      calldatasize\n      sub\n      dup2\n      add\n      swap1\n      tag_74\n      swap2\n      swap1\n      tag_75\n      jump\t// in\n    tag_74:\n      tag_76\n      jump\t// in\n    tag_73:\n      stop\n        /* \"contracts/Advanced.sol\":843:1133  function checkNumber(uint _number) public {... */\n    tag_17:\n      tag_77\n      0x04\n      dup1\n      calldatasize\n      sub\n      dup2\n      add\n      swap1\n      tag_78\n      swap2\n      swap1\n      tag_25\n      jump\t// in\n    tag_78:\n      tag_79\n      jump\t// in\n    tag_77:\n      stop\n        /* \"contracts/Advanced.sol\":2714:2824  function createStudent(string memory _name) public {... */\n    tag_18:\n      tag_80\n      0x04\n      dup1\n      calldatasize\n      sub\n      dup2\n      add\n      swap1\n      tag_81\n      swap2\n      swap1\n      tag_82\n      jump\t// in\n    tag_81:\n      tag_83\n      jump\t// in\n    tag_80:\n      stop\n        /* \"contracts/Advanced.sol\":1776:1896  function setBalance(uint _value) public {... */\n    tag_19:\n      tag_84\n      0x04\n      dup1\n      calldatasize\n      sub\n      dup2\n      add\n      swap1\n      tag_85\n      swap2\n      swap1\n      tag_25\n      jump\t// in\n    tag_85:\n      tag_86\n      jump\t// in\n    tag_84:\n      stop\n        /* \"contracts/Advanced.sol\":2680:2705  Student[] public students */\n    tag_26:\n      0x0d\n      dup2\n      dup2\n      sload\n      dup2\n      lt\n      tag_87\n      jumpi\n      0x00\n      dup1\n      revert\n    tag_87:\n      swap1\n      0x00\n      mstore\n      keccak256(0x00, 0x20)\n      swap1\n      0x03\n      mul\n      add\n      0x00\n      swap2\n      pop\n      swap1\n      pop\n      dup1\n      0x00\n      add\n      0x00\n      swap1\n      sload\n      swap1\n      0x0100\n      exp\n      swap1\n      div\n      0xffffffffffffffffffffffffffffffffffffffff\n      and\n      swap1\n      dup1\n      0x01\n      add\n      sload\n      swap1\n      dup1\n      0x02\n      add\n      dup1\n      sload\n      tag_89\n      swap1\n      tag_90\n      jump\t// in\n    tag_89:\n      dup1\n      0x1f\n      add\n      0x20\n      dup1\n      swap2\n      div\n      mul\n      0x20\n      add\n      mload(0x40)\n      swap1\n      dup2\n      add\n      0x40\n      mstore\n      dup1\n      swap3\n      swap2\n      swap1\n      dup2\n      dup2\n      mstore\n      0x20\n      add\n      dup3\n      dup1\n      sload\n      tag_91\n      swap1\n      tag_90\n      jump\t// in\n    tag_91:\n      dup1\n      iszero\n      tag_92\n      jumpi\n      dup1\n      0x1f\n      lt\n      tag_93\n      jumpi\n      0x0100\n      dup1\n      dup4\n      sload\n      div\n      mul\n      dup4\n      mstore\n      swap2\n      0x20\n      add\n      swap2\n      jump(tag_92)\n    tag_93:\n      dup3\n      add\n      swap2\n      swap1\n      0x00\n      mstore\n      keccak256(0x00, 0x20)\n      swap1\n    tag_94:\n      dup2\n      sload\n      dup2\n      mstore\n      swap1\n      0x01\n      add\n      swap1\n      0x20\n      add\n      dup1\n      dup4\n      gt\n      tag_94\n      jumpi\n      dup3\n      swap1\n      sub\n      0x1f\n      and\n      dup3\n      add\n      swap2\n    tag_92:\n      pop\n      pop\n      pop\n      pop\n      pop\n      swap1\n      pop\n      dup4\n      jump\t// out\n        /* \"contracts/Advanced.sol\":1503:1710  function getArrayLength() public view returns (uint) {... */\n    tag_30:\n        /* \"contracts/Advanced.sol\":1550:1554  uint */\n      0x00\n        /* \"contracts/Advanced.sol\":1567:1590  uint[] memory tempArray */\n      dup1\n        /* \"contracts/Advanced.sol\":1593:1600  myArray */\n      0x02\n        /* \"contracts/Advanced.sol\":1567:1600  uint[] memory tempArray = myArray */\n      dup1\n      sload\n      dup1\n      0x20\n      mul\n      0x20\n      add\n      mload(0x40)\n      swap1\n      dup2\n      add\n      0x40\n      mstore\n      dup1\n      swap3\n      swap2\n      swap1\n      dup2\n      dup2\n      mstore\n      0x20\n      add\n      dup3\n      dup1\n      sload\n      dup1\n      iszero\n      tag_96\n      jumpi\n      0x20\n      mul\n      dup3\n      add\n      swap2\n      swap1\n      0x00\n      mstore\n      keccak256(0x00, 0x20)\n      swap1\n    tag_97:\n      dup2\n      sload\n      dup2\n      mstore\n      0x20\n      add\n      swap1\n      0x01\n      add\n      swap1\n      dup1\n      dup4\n      gt\n      tag_97\n      jumpi\n    tag_96:\n      pop\n      pop\n      pop\n      pop\n      pop\n      swap1\n      pop\n        /* \"contracts/Advanced.sol\":1647:1656  tempArray */\n      dup1\n        /* \"contracts/Advanced.sol\":1647:1663  tempArray.length */\n      mload\n        /* \"contracts/Advanced.sol\":1640:1663  return tempArray.length */\n      swap2\n      pop\n      pop\n        /* \"contracts/Advanced.sol\":1503:1710  function getArrayLength() public view returns (uint) {... */\n      swap1\n      jump\t// out\n        /* \"contracts/Advanced.sol\":1947:1976  uint[5] public fixedSizeArray */\n    tag_35:\n      0x04\n      dup2\n      0x05\n      dup2\n      lt\n      tag_98\n      jumpi\n      0x00\n      dup1\n      revert\n    tag_98:\n      add\n      0x00\n      swap2\n      pop\n      swap1\n      pop\n      sload\n      dup2\n      jump\t// out\n        /* \"contracts/Advanced.sol\":2650:2673  Student public student1 */\n    tag_38:\n      0x0a\n      dup1\n      0x00\n      add\n      0x00\n      swap1\n      sload\n      swap1\n      0x0100\n      exp\n      swap1\n      div\n      0xffffffffffffffffffffffffffffffffffffffff\n      and\n      swap1\n      dup1\n      0x01\n      add\n      sload\n      swap1\n      dup1\n      0x02\n      add\n      dup1\n      sload\n      tag_100\n      swap1\n      tag_90\n      jump\t// in\n    tag_100:\n      dup1\n      0x1f\n      add\n      0x20\n      dup1\n      swap2\n      div\n      mul\n      0x20\n      add\n      mload(0x40)\n      swap1\n      dup2\n      add\n      0x40\n      mstore\n      dup1\n      swap3\n      swap2\n      swap1\n      dup2\n      dup2\n      mstore\n      0x20\n      add\n      dup3\n      dup1\n      sload\n      tag_101\n      swap1\n      tag_90\n      jump\t// in\n    tag_101:\n      dup1\n      iszero\n      tag_102\n      jumpi\n      dup1\n      0x1f\n      lt\n      tag_103\n      jumpi\n      0x0100\n      dup1\n      dup4\n      sload\n      div\n      mul\n      dup4\n      mstore\n      swap2\n      0x20\n      add\n      swap2\n      jump(tag_102)\n    tag_103:\n      dup3\n      add\n      swap2\n      swap1\n      0x00\n      mstore\n      keccak256(0x00, 0x20)\n      swap1\n    tag_104:\n      dup2\n      sload\n      dup2\n      mstore\n      swap1\n      0x01\n      add\n      swap1\n      0x20\n      add\n      dup1\n      dup4\n      gt\n      tag_104\n      jumpi\n      dup3\n      swap1\n      sub\n      0x1f\n      and\n      dup3\n      add\n      swap2\n    tag_102:\n      pop\n      pop\n      pop\n      pop\n      pop\n      swap1\n      pop\n      dup4\n      jump\t// out\n        /* \"contracts/Advanced.sol\":195:360  function setNumber(uint _number) public returns(uint){... */\n    tag_42:\n        /* \"contracts/Advanced.sol\":243:247  uint */\n      0x00\n        /* \"contracts/Advanced.sol\":268:275  _number */\n      dup2\n        /* \"contracts/Advanced.sol\":259:265  number */\n      0x00\n        /* \"contracts/Advanced.sol\":259:275  number = _number */\n      dup2\n      swap1\n      sstore\n      pop\n        /* \"contracts/Advanced.sol\":308:318  msg.sender */\n      caller\n        /* \"contracts/Advanced.sol\":301:328  Number(msg.sender, _number) */\n      0xffffffffffffffffffffffffffffffffffffffff\n      and\n      0x7176cbfe62f9732da66320c618fdc14fe54d86506ba31c8c58b5b4f4a9f7dd89\n        /* \"contracts/Advanced.sol\":320:327  _number */\n      dup4\n        /* \"contracts/Advanced.sol\":301:328  Number(msg.sender, _number) */\n      mload(0x40)\n      tag_106\n      swap2\n      swap1\n      tag_32\n      jump\t// in\n    tag_106:\n      mload(0x40)\n      dup1\n      swap2\n      sub\n      swap1\n      log2\n        /* \"contracts/Advanced.sol\":346:352  number */\n      sload(0x00)\n        /* \"contracts/Advanced.sol\":339:352  return number */\n      swap1\n      pop\n        /* \"contracts/Advanced.sol\":195:360  function setNumber(uint _number) public returns(uint){... */\n      swap2\n      swap1\n      pop\n      jump\t// out\n        /* \"contracts/Advanced.sol\":2937:2957  Result public result */\n    tag_45:\n      0x0e\n      0x00\n      swap1\n      sload\n      swap1\n      0x0100\n      exp\n      swap1\n      div\n      0xff\n      and\n      dup2\n      jump\t// out\n        /* \"contracts/Advanced.sol\":2966:3065  function setResult(Result _result) public {... */\n    tag_51:\n        /* \"contracts/Advanced.sol\":3028:3035  _result */\n      dup1\n        /* \"contracts/Advanced.sol\":3019:3025  result */\n      0x0e\n      0x00\n        /* \"contracts/Advanced.sol\":3019:3035  result = _result */\n      0x0100\n      exp\n      dup2\n      sload\n      dup2\n      0xff\n      mul\n      not\n      and\n      swap1\n      dup4\n      0x02\n      dup2\n      gt\n      iszero\n      tag_108\n      jumpi\n      tag_109\n      tag_110\n      jump\t// in\n    tag_109:\n    tag_108:\n      mul\n      or\n      swap1\n      sstore\n      pop\n        /* \"contracts/Advanced.sol\":2966:3065  function setResult(Result _result) public {... */\n      pop\n      jump\t// out\n        /* \"contracts/Advanced.sol\":113:131  uint public number */\n    tag_53:\n      sload(0x00)\n      dup2\n      jump\t// out\n        /* \"contracts/Advanced.sol\":809:833  uint public number1 = 50 */\n    tag_56:\n      sload(0x01)\n      dup2\n      jump\t// out\n        /* \"contracts/Advanced.sol\":1219:1240  uint[] public myArray */\n    tag_60:\n      0x02\n      dup2\n      dup2\n      sload\n      dup2\n      lt\n      tag_111\n      jumpi\n      0x00\n      dup1\n      revert\n    tag_111:\n      swap1\n      0x00\n      mstore\n      keccak256(0x00, 0x20)\n      add\n      0x00\n      swap2\n      pop\n      swap1\n      pop\n      sload\n      dup2\n      jump\t// out\n        /* \"contracts/Advanced.sol\":2278:2463  function updateFixedArray(uint _index,uint _value) public {... */\n    tag_65:\n        /* \"contracts/Advanced.sol\":2362:2363  5 */\n      0x05\n        /* \"contracts/Advanced.sol\":2355:2361  _index */\n      dup3\n        /* \"contracts/Advanced.sol\":2355:2363  _index<5 */\n      lt\n        /* \"contracts/Advanced.sol\":2347:2391  require(_index<5, \"Size is not more than 5\") */\n      tag_114\n      jumpi\n      mload(0x40)\n      0x08c379a000000000000000000000000000000000000000000000000000000000\n      dup2\n      mstore\n      0x04\n      add\n      tag_115\n      swap1\n      tag_116\n      jump\t// in\n    tag_115:\n      mload(0x40)\n      dup1\n      swap2\n      sub\n      swap1\n      revert\n    tag_114:\n        /* \"contracts/Advanced.sol\":2427:2433  _value */\n      dup1\n        /* \"contracts/Advanced.sol\":2402:2416  fixedSizeArray */\n      0x04\n        /* \"contracts/Advanced.sol\":2417:2423  _index */\n      dup4\n        /* \"contracts/Advanced.sol\":2402:2424  fixedSizeArray[_index] */\n      0x05\n      dup2\n      lt\n      tag_117\n      jumpi\n      tag_118\n      tag_119\n      jump\t// in\n    tag_118:\n    tag_117:\n      add\n        /* \"contracts/Advanced.sol\":2402:2433  fixedSizeArray[_index] = _value */\n      dup2\n      swap1\n      sstore\n      pop\n        /* \"contracts/Advanced.sol\":2278:2463  function updateFixedArray(uint _index,uint _value) public {... */\n      pop\n      pop\n      jump\t// out\n        /* \"contracts/Advanced.sol\":2014:2044  uint[] public dynamicSizeArray */\n    tag_68:\n      0x09\n      dup2\n      dup2\n      sload\n      dup2\n      lt\n      tag_121\n      jumpi\n      0x00\n      dup1\n      revert\n    tag_121:\n      swap1\n      0x00\n      mstore\n      keccak256(0x00, 0x20)\n      add\n      0x00\n      swap2\n      pop\n      swap1\n      pop\n      sload\n      dup2\n      jump\t// out\n        /* \"contracts/Advanced.sol\":2053:2167  function addToDynamicArray(uint value) public{... */\n    tag_72:\n        /* \"contracts/Advanced.sol\":2109:2125  dynamicSizeArray */\n      0x09\n        /* \"contracts/Advanced.sol\":2131:2136  value */\n      dup2\n        /* \"contracts/Advanced.sol\":2109:2137  dynamicSizeArray.push(value) */\n      swap1\n      dup1\n      0x01\n      dup2\n      sload\n      add\n      dup1\n      dup3\n      sstore\n      dup1\n      swap2\n      pop\n      pop\n      0x01\n      swap1\n      sub\n      swap1\n      0x00\n      mstore\n      keccak256(0x00, 0x20)\n      add\n      0x00\n      swap1\n      swap2\n      swap1\n      swap2\n      swap1\n      swap2\n      pop\n      sstore\n        /* \"contracts/Advanced.sol\":2053:2167  function addToDynamicArray(uint value) public{... */\n      pop\n      jump\t// out\n        /* \"contracts/Advanced.sol\":1271:1495  function addToArray(uint[] memory newValues) public {... */\n    tag_76:\n        /* \"contracts/Advanced.sol\":1373:1379  uint i */\n      0x00\n        /* \"contracts/Advanced.sol\":1369:1488  for(uint i = 0; i < newValues.length; i++) {... */\n    tag_126:\n        /* \"contracts/Advanced.sol\":1389:1398  newValues */\n      dup2\n        /* \"contracts/Advanced.sol\":1389:1405  newValues.length */\n      mload\n        /* \"contracts/Advanced.sol\":1385:1386  i */\n      dup2\n        /* \"contracts/Advanced.sol\":1385:1405  i < newValues.length */\n      lt\n        /* \"contracts/Advanced.sol\":1369:1488  for(uint i = 0; i < newValues.length; i++) {... */\n      iszero\n      tag_127\n      jumpi\n        /* \"contracts/Advanced.sol\":1427:1434  myArray */\n      0x02\n        /* \"contracts/Advanced.sol\":1440:1449  newValues */\n      dup3\n        /* \"contracts/Advanced.sol\":1450:1451  i */\n      dup3\n        /* \"contracts/Advanced.sol\":1440:1452  newValues[i] */\n      dup2\n      mload\n      dup2\n      lt\n      tag_129\n      jumpi\n      tag_130\n      tag_119\n      jump\t// in\n    tag_130:\n    tag_129:\n      0x20\n      mul\n      0x20\n      add\n      add\n      mload\n        /* \"contracts/Advanced.sol\":1427:1453  myArray.push(newValues[i]) */\n      swap1\n      dup1\n      0x01\n      dup2\n      sload\n      add\n      dup1\n      dup3\n      sstore\n      dup1\n      swap2\n      pop\n      pop\n      0x01\n      swap1\n      sub\n      swap1\n      0x00\n      mstore\n      keccak256(0x00, 0x20)\n      add\n      0x00\n      swap1\n      swap2\n      swap1\n      swap2\n      swap1\n      swap2\n      pop\n      sstore\n        /* \"contracts/Advanced.sol\":1407:1410  i++ */\n      dup1\n      dup1\n      0x01\n      add\n      swap2\n      pop\n      pop\n        /* \"contracts/Advanced.sol\":1369:1488  for(uint i = 0; i < newValues.length; i++) {... */\n      jump(tag_126)\n    tag_127:\n      pop\n        /* \"contracts/Advanced.sol\":1271:1495  function addToArray(uint[] memory newValues) public {... */\n      pop\n      jump\t// out\n        /* \"contracts/Advanced.sol\":843:1133  function checkNumber(uint _number) public {... */\n    tag_79:\n        /* \"contracts/Advanced.sol\":913:916  100 */\n      0x64\n        /* \"contracts/Advanced.sol\":904:910  number */\n      sload(0x00)\n        /* \"contracts/Advanced.sol\":904:916  number < 100 */\n      lt\n        /* \"contracts/Advanced.sol\":896:951  require(number < 100, \"Number should be less than 100\") */\n      tag_133\n      jumpi\n      mload(0x40)\n      0x08c379a000000000000000000000000000000000000000000000000000000000\n      dup2\n      mstore\n      0x04\n      add\n      tag_134\n      swap1\n      tag_135\n      jump\t// in\n    tag_134:\n      mload(0x40)\n      dup1\n      swap2\n      sub\n      swap1\n      revert\n    tag_133:\n        /* \"contracts/Advanced.sol\":976:979  100 */\n      0x64\n        /* \"contracts/Advanced.sol\":967:973  number */\n      sload(0x00)\n        /* \"contracts/Advanced.sol\":967:979  number > 100 */\n      gt\n        /* \"contracts/Advanced.sol\":964:1049  if(number > 100){... */\n      iszero\n      tag_136\n      jumpi\n        /* \"contracts/Advanced.sol\":995:1037  revert(\"Number can't be greater than 100\") */\n      mload(0x40)\n      0x08c379a000000000000000000000000000000000000000000000000000000000\n      dup2\n      mstore\n      0x04\n      add\n      tag_137\n      swap1\n      tag_138\n      jump\t// in\n    tag_137:\n      mload(0x40)\n      dup1\n      swap2\n      sub\n      swap1\n      revert\n        /* \"contracts/Advanced.sol\":964:1049  if(number > 100){... */\n    tag_136:\n        /* \"contracts/Advanced.sol\":1070:1077  _number */\n      dup1\n        /* \"contracts/Advanced.sol\":1061:1067  number */\n      0x00\n        /* \"contracts/Advanced.sol\":1061:1077  number = _number */\n      dup2\n      swap1\n      sstore\n      pop\n        /* \"contracts/Advanced.sol\":1106:1108  50 */\n      0x32\n        /* \"contracts/Advanced.sol\":1097:1103  number */\n      sload(0x00)\n        /* \"contracts/Advanced.sol\":1097:1108  number > 50 */\n      gt\n        /* \"contracts/Advanced.sol\":1097:1124  number > 50 && number < 100 */\n      dup1\n      iszero\n      tag_139\n      jumpi\n      pop\n        /* \"contracts/Advanced.sol\":1121:1124  100 */\n      0x64\n        /* \"contracts/Advanced.sol\":1112:1118  number */\n      sload(0x00)\n        /* \"contracts/Advanced.sol\":1112:1124  number < 100 */\n      lt\n        /* \"contracts/Advanced.sol\":1097:1124  number > 50 && number < 100 */\n    tag_139:\n        /* \"contracts/Advanced.sol\":1090:1125  assert(number > 50 && number < 100) */\n      tag_140\n      jumpi\n      tag_141\n      tag_142\n      jump\t// in\n    tag_141:\n    tag_140:\n        /* \"contracts/Advanced.sol\":843:1133  function checkNumber(uint _number) public {... */\n      pop\n      jump\t// out\n        /* \"contracts/Advanced.sol\":2714:2824  function createStudent(string memory _name) public {... */\n    tag_83:\n        /* \"contracts/Advanced.sol\":2787:2816  Student(msg.sender, 1, _name) */\n      mload(0x40)\n      dup1\n      0x60\n      add\n      0x40\n      mstore\n      dup1\n        /* \"contracts/Advanced.sol\":2795:2805  msg.sender */\n      caller\n        /* \"contracts/Advanced.sol\":2787:2816  Student(msg.sender, 1, _name) */\n      0xffffffffffffffffffffffffffffffffffffffff\n      and\n      dup2\n      mstore\n      0x20\n      add\n        /* \"contracts/Advanced.sol\":2807:2808  1 */\n      0x01\n        /* \"contracts/Advanced.sol\":2787:2816  Student(msg.sender, 1, _name) */\n      dup2\n      mstore\n      0x20\n      add\n        /* \"contracts/Advanced.sol\":2810:2815  _name */\n      dup3\n        /* \"contracts/Advanced.sol\":2787:2816  Student(msg.sender, 1, _name) */\n      dup2\n      mstore\n      pop\n        /* \"contracts/Advanced.sol\":2776:2784  student1 */\n      0x0a\n        /* \"contracts/Advanced.sol\":2776:2816  student1 = Student(msg.sender, 1, _name) */\n      0x00\n      dup3\n      add\n      mload\n      dup2\n      0x00\n      add\n      exp(0x0100, 0x00)\n      dup2\n      sload\n      dup2\n      0xffffffffffffffffffffffffffffffffffffffff\n      mul\n      not\n      and\n      swap1\n      dup4\n      0xffffffffffffffffffffffffffffffffffffffff\n      and\n      mul\n      or\n      swap1\n      sstore\n      pop\n      0x20\n      dup3\n      add\n      mload\n      dup2\n      0x01\n      add\n      sstore\n      0x40\n      dup3\n      add\n      mload\n      dup2\n      0x02\n      add\n      swap1\n      dup2\n      tag_144\n      swap2\n      swap1\n      tag_145\n      jump\t// in\n    tag_144:\n      pop\n      swap1\n      pop\n      pop\n        /* \"contracts/Advanced.sol\":2714:2824  function createStudent(string memory _name) public {... */\n      pop\n      jump\t// out\n        /* \"contracts/Advanced.sol\":1776:1896  function setBalance(uint _value) public {... */\n    tag_86:\n        /* \"contracts/Advanced.sol\":1850:1856  _value */\n      dup1\n        /* \"contracts/Advanced.sol\":1827:1835  balances */\n      0x03\n        /* \"contracts/Advanced.sol\":1827:1847  balances[msg.sender] */\n      0x00\n        /* \"contracts/Advanced.sol\":1836:1846  msg.sender */\n      caller\n        /* \"contracts/Advanced.sol\":1827:1847  balances[msg.sender] */\n      0xffffffffffffffffffffffffffffffffffffffff\n      and\n      0xffffffffffffffffffffffffffffffffffffffff\n      and\n      dup2\n      mstore\n      0x20\n      add\n      swap1\n      dup2\n      mstore\n      0x20\n      add\n      0x00\n      keccak256\n        /* \"contracts/Advanced.sol\":1827:1856  balances[msg.sender] = _value */\n      dup2\n      swap1\n      sstore\n      pop\n        /* \"contracts/Advanced.sol\":1776:1896  function setBalance(uint _value) public {... */\n      pop\n      jump\t// out\n        /* \"#utility.yul\":7:82   */\n    tag_147:\n        /* \"#utility.yul\":40:46   */\n      0x00\n        /* \"#utility.yul\":73:75   */\n      0x40\n        /* \"#utility.yul\":67:76   */\n      mload\n        /* \"#utility.yul\":57:76   */\n      swap1\n      pop\n        /* \"#utility.yul\":7:82   */\n      swap1\n      jump\t// out\n        /* \"#utility.yul\":88:205   */\n    tag_148:\n        /* \"#utility.yul\":197:198   */\n      0x00\n        /* \"#utility.yul\":194:195   */\n      dup1\n        /* \"#utility.yul\":187:199   */\n      revert\n        /* \"#utility.yul\":211:328   */\n    tag_149:\n        /* \"#utility.yul\":320:321   */\n      0x00\n        /* \"#utility.yul\":317:318   */\n      dup1\n        /* \"#utility.yul\":310:322   */\n      revert\n        /* \"#utility.yul\":334:411   */\n    tag_150:\n        /* \"#utility.yul\":371:378   */\n      0x00\n        /* \"#utility.yul\":400:405   */\n      dup2\n        /* \"#utility.yul\":389:405   */\n      swap1\n      pop\n        /* \"#utility.yul\":334:411   */\n      swap2\n      swap1\n      pop\n      jump\t// out\n        /* \"#utility.yul\":417:539   */\n    tag_151:\n        /* \"#utility.yul\":490:514   */\n      tag_209\n        /* \"#utility.yul\":508:513   */\n      dup2\n        /* \"#utility.yul\":490:514   */\n      tag_150\n      jump\t// in\n    tag_209:\n        /* \"#utility.yul\":483:488   */\n      dup2\n        /* \"#utility.yul\":480:515   */\n      eq\n        /* \"#utility.yul\":470:533   */\n      tag_210\n      jumpi\n        /* \"#utility.yul\":529:530   */\n      0x00\n        /* \"#utility.yul\":526:527   */\n      dup1\n        /* \"#utility.yul\":519:531   */\n      revert\n        /* \"#utility.yul\":470:533   */\n    tag_210:\n        /* \"#utility.yul\":417:539   */\n      pop\n      jump\t// out\n        /* \"#utility.yul\":545:684   */\n    tag_152:\n        /* \"#utility.yul\":591:596   */\n      0x00\n        /* \"#utility.yul\":629:635   */\n      dup2\n        /* \"#utility.yul\":616:636   */\n      calldataload\n        /* \"#utility.yul\":607:636   */\n      swap1\n      pop\n        /* \"#utility.yul\":645:678   */\n      tag_212\n        /* \"#utility.yul\":672:677   */\n      dup2\n        /* \"#utility.yul\":645:678   */\n      tag_151\n      jump\t// in\n    tag_212:\n        /* \"#utility.yul\":545:684   */\n      swap3\n      swap2\n      pop\n      pop\n      jump\t// out\n        /* \"#utility.yul\":690:1019   */\n    tag_25:\n        /* \"#utility.yul\":749:755   */\n      0x00\n        /* \"#utility.yul\":798:800   */\n      0x20\n        /* \"#utility.yul\":786:795   */\n      dup3\n        /* \"#utility.yul\":777:784   */\n      dup5\n        /* \"#utility.yul\":773:796   */\n      sub\n        /* \"#utility.yul\":769:801   */\n      slt\n        /* \"#utility.yul\":766:885   */\n      iszero\n      tag_214\n      jumpi\n        /* \"#utility.yul\":804:883   */\n      tag_215\n      tag_148\n      jump\t// in\n    tag_215:\n        /* \"#utility.yul\":766:885   */\n    tag_214:\n        /* \"#utility.yul\":924:925   */\n      0x00\n        /* \"#utility.yul\":949:1002   */\n      tag_216\n        /* \"#utility.yul\":994:1001   */\n      dup5\n        /* \"#utility.yul\":985:991   */\n      dup3\n        /* \"#utility.yul\":974:983   */\n      dup6\n        /* \"#utility.yul\":970:992   */\n      add\n        /* \"#utility.yul\":949:1002   */\n      tag_152\n      jump\t// in\n    tag_216:\n        /* \"#utility.yul\":939:1002   */\n      swap2\n      pop\n        /* \"#utility.yul\":895:1012   */\n      pop\n        /* \"#utility.yul\":690:1019   */\n      swap3\n      swap2\n      pop\n      pop\n      jump\t// out\n        /* \"#utility.yul\":1025:1151   */\n    tag_153:\n        /* \"#utility.yul\":1062:1069   */\n      0x00\n        /* \"#utility.yul\":1102:1144   */\n      0xffffffffffffffffffffffffffffffffffffffff\n        /* \"#utility.yul\":1095:1100   */\n      dup3\n        /* \"#utility.yul\":1091:1145   */\n      and\n        /* \"#utility.yul\":1080:1145   */\n      swap1\n      pop\n        /* \"#utility.yul\":1025:1151   */\n      swap2\n      swap1\n      pop\n      jump\t// out\n        /* \"#utility.yul\":1157:1253   */\n    tag_154:\n        /* \"#utility.yul\":1194:1201   */\n      0x00\n        /* \"#utility.yul\":1223:1247   */\n      tag_219\n        /* \"#utility.yul\":1241:1246   */\n      dup3\n        /* \"#utility.yul\":1223:1247   */\n      tag_153\n      jump\t// in\n    tag_219:\n        /* \"#utility.yul\":1212:1247   */\n      swap1\n      pop\n        /* \"#utility.yul\":1157:1253   */\n      swap2\n      swap1\n      pop\n      jump\t// out\n        /* \"#utility.yul\":1259:1377   */\n    tag_155:\n        /* \"#utility.yul\":1346:1370   */\n      tag_221\n        /* \"#utility.yul\":1364:1369   */\n      dup2\n        /* \"#utility.yul\":1346:1370   */\n      tag_154\n      jump\t// in\n    tag_221:\n        /* \"#utility.yul\":1341:1344   */\n      dup3\n        /* \"#utility.yul\":1334:1371   */\n      mstore\n        /* \"#utility.yul\":1259:1377   */\n      pop\n      pop\n      jump\t// out\n        /* \"#utility.yul\":1383:1501   */\n    tag_156:\n        /* \"#utility.yul\":1470:1494   */\n      tag_223\n        /* \"#utility.yul\":1488:1493   */\n      dup2\n        /* \"#utility.yul\":1470:1494   */\n      tag_150\n      jump\t// in\n    tag_223:\n        /* \"#utility.yul\":1465:1468   */\n      dup3\n        /* \"#utility.yul\":1458:1495   */\n      mstore\n        /* \"#utility.yul\":1383:1501   */\n      pop\n      pop\n      jump\t// out\n        /* \"#utility.yul\":1507:1606   */\n    tag_157:\n        /* \"#utility.yul\":1559:1565   */\n      0x00\n        /* \"#utility.yul\":1593:1598   */\n      dup2\n        /* \"#utility.yul\":1587:1599   */\n      mload\n        /* \"#utility.yul\":1577:1599   */\n      swap1\n      pop\n        /* \"#utility.yul\":1507:1606   */\n      swap2\n      swap1\n      pop\n      jump\t// out\n        /* \"#utility.yul\":1612:1781   */\n    tag_158:\n        /* \"#utility.yul\":1696:1707   */\n      0x00\n        /* \"#utility.yul\":1730:1736   */\n      dup3\n        /* \"#utility.yul\":1725:1728   */\n      dup3\n        /* \"#utility.yul\":1718:1737   */\n      mstore\n        /* \"#utility.yul\":1770:1774   */\n      0x20\n        /* \"#utility.yul\":1765:1768   */\n      dup3\n        /* \"#utility.yul\":1761:1775   */\n      add\n        /* \"#utility.yul\":1746:1775   */\n      swap1\n      pop\n        /* \"#utility.yul\":1612:1781   */\n      swap3\n      swap2\n      pop\n      pop\n      jump\t// out\n        /* \"#utility.yul\":1787:1926   */\n    tag_159:\n        /* \"#utility.yul\":1876:1882   */\n      dup3\n        /* \"#utility.yul\":1871:1874   */\n      dup2\n        /* \"#utility.yul\":1866:1869   */\n      dup4\n        /* \"#utility.yul\":1860:1883   */\n      mcopy\n        /* \"#utility.yul\":1917:1918   */\n      0x00\n        /* \"#utility.yul\":1908:1914   */\n      dup4\n        /* \"#utility.yul\":1903:1906   */\n      dup4\n        /* \"#utility.yul\":1899:1915   */\n      add\n        /* \"#utility.yul\":1892:1919   */\n      mstore\n        /* \"#utility.yul\":1787:1926   */\n      pop\n      pop\n      pop\n      jump\t// out\n        /* \"#utility.yul\":1932:2034   */\n    tag_160:\n        /* \"#utility.yul\":1973:1979   */\n      0x00\n        /* \"#utility.yul\":2024:2026   */\n      0x1f\n        /* \"#utility.yul\":2020:2027   */\n      not\n        /* \"#utility.yul\":2015:2017   */\n      0x1f\n        /* \"#utility.yul\":2008:2013   */\n      dup4\n        /* \"#utility.yul\":2004:2018   */\n      add\n        /* \"#utility.yul\":2000:2028   */\n      and\n        /* \"#utility.yul\":1990:2028   */\n      swap1\n      pop\n        /* \"#utility.yul\":1932:2034   */\n      swap2\n      swap1\n      pop\n      jump\t// out\n        /* \"#utility.yul\":2040:2417   */\n    tag_161:\n        /* \"#utility.yul\":2128:2131   */\n      0x00\n        /* \"#utility.yul\":2156:2195   */\n      tag_229\n        /* \"#utility.yul\":2189:2194   */\n      dup3\n        /* \"#utility.yul\":2156:2195   */\n      tag_157\n      jump\t// in\n    tag_229:\n        /* \"#utility.yul\":2211:2282   */\n      tag_230\n        /* \"#utility.yul\":2275:2281   */\n      dup2\n        /* \"#utility.yul\":2270:2273   */\n      dup6\n        /* \"#utility.yul\":2211:2282   */\n      tag_158\n      jump\t// in\n    tag_230:\n        /* \"#utility.yul\":2204:2282   */\n      swap4\n      pop\n        /* \"#utility.yul\":2291:2356   */\n      tag_231\n        /* \"#utility.yul\":2349:2355   */\n      dup2\n        /* \"#utility.yul\":2344:2347   */\n      dup6\n        /* \"#utility.yul\":2337:2341   */\n      0x20\n        /* \"#utility.yul\":2330:2335   */\n      dup7\n        /* \"#utility.yul\":2326:2342   */\n      add\n        /* \"#utility.yul\":2291:2356   */\n      tag_159\n      jump\t// in\n    tag_231:\n        /* \"#utility.yul\":2381:2410   */\n      tag_232\n        /* \"#utility.yul\":2403:2409   */\n      dup2\n        /* \"#utility.yul\":2381:2410   */\n      tag_160\n      jump\t// in\n    tag_232:\n        /* \"#utility.yul\":2376:2379   */\n      dup5\n        /* \"#utility.yul\":2372:2411   */\n      add\n        /* \"#utility.yul\":2365:2411   */\n      swap2\n      pop\n        /* \"#utility.yul\":2132:2417   */\n      pop\n        /* \"#utility.yul\":2040:2417   */\n      swap3\n      swap2\n      pop\n      pop\n      jump\t// out\n        /* \"#utility.yul\":2423:2956   */\n    tag_28:\n        /* \"#utility.yul\":2592:2596   */\n      0x00\n        /* \"#utility.yul\":2630:2632   */\n      0x60\n        /* \"#utility.yul\":2619:2628   */\n      dup3\n        /* \"#utility.yul\":2615:2633   */\n      add\n        /* \"#utility.yul\":2607:2633   */\n      swap1\n      pop\n        /* \"#utility.yul\":2643:2714   */\n      tag_234\n        /* \"#utility.yul\":2711:2712   */\n      0x00\n        /* \"#utility.yul\":2700:2709   */\n      dup4\n        /* \"#utility.yul\":2696:2713   */\n      add\n        /* \"#utility.yul\":2687:2693   */\n      dup7\n        /* \"#utility.yul\":2643:2714   */\n      tag_155\n      jump\t// in\n    tag_234:\n        /* \"#utility.yul\":2724:2796   */\n      tag_235\n        /* \"#utility.yul\":2792:2794   */\n      0x20\n        /* \"#utility.yul\":2781:2790   */\n      dup4\n        /* \"#utility.yul\":2777:2795   */\n      add\n        /* \"#utility.yul\":2768:2774   */\n      dup6\n        /* \"#utility.yul\":2724:2796   */\n      tag_156\n      jump\t// in\n    tag_235:\n        /* \"#utility.yul\":2843:2852   */\n      dup2\n        /* \"#utility.yul\":2837:2841   */\n      dup2\n        /* \"#utility.yul\":2833:2853   */\n      sub\n        /* \"#utility.yul\":2828:2830   */\n      0x40\n        /* \"#utility.yul\":2817:2826   */\n      dup4\n        /* \"#utility.yul\":2813:2831   */\n      add\n        /* \"#utility.yul\":2806:2854   */\n      mstore\n        /* \"#utility.yul\":2871:2949   */\n      tag_236\n        /* \"#utility.yul\":2944:2948   */\n      dup2\n        /* \"#utility.yul\":2935:2941   */\n      dup5\n        /* \"#utility.yul\":2871:2949   */\n      tag_161\n      jump\t// in\n    tag_236:\n        /* \"#utility.yul\":2863:2949   */\n      swap1\n      pop\n        /* \"#utility.yul\":2423:2956   */\n      swap5\n      swap4\n      pop\n      pop\n      pop\n      pop\n      jump\t// out\n        /* \"#utility.yul\":2962:3184   */\n    tag_32:\n        /* \"#utility.yul\":3055:3059   */\n      0x00\n        /* \"#utility.yul\":3093:3095   */\n      0x20\n        /* \"#utility.yul\":3082:3091   */\n      dup3\n        /* \"#utility.yul\":3078:3096   */\n      add\n        /* \"#utility.yul\":3070:3096   */\n      swap1\n      pop\n        /* \"#utility.yul\":3106:3177   */\n      tag_238\n        /* \"#utility.yul\":3174:3175   */\n      0x00\n        /* \"#utility.yul\":3163:3172   */\n      dup4\n        /* \"#utility.yul\":3159:3176   */\n      add\n        /* \"#utility.yul\":3150:3156   */\n      dup5\n        /* \"#utility.yul\":3106:3177   */\n      tag_156\n      jump\t// in\n    tag_238:\n        /* \"#utility.yul\":2962:3184   */\n      swap3\n      swap2\n      pop\n      pop\n      jump\t// out\n        /* \"#utility.yul\":3190:3370   */\n    tag_110:\n        /* \"#utility.yul\":3238:3315   */\n      0x4e487b7100000000000000000000000000000000000000000000000000000000\n        /* \"#utility.yul\":3235:3236   */\n      0x00\n        /* \"#utility.yul\":3228:3316   */\n      mstore\n        /* \"#utility.yul\":3335:3339   */\n      0x21\n        /* \"#utility.yul\":3332:3333   */\n      0x04\n        /* \"#utility.yul\":3325:3340   */\n      mstore\n        /* \"#utility.yul\":3359:3363   */\n      0x24\n        /* \"#utility.yul\":3356:3357   */\n      0x00\n        /* \"#utility.yul\":3349:3364   */\n      revert\n        /* \"#utility.yul\":3376:3491   */\n    tag_162:\n        /* \"#utility.yul\":3459:3460   */\n      0x03\n        /* \"#utility.yul\":3452:3457   */\n      dup2\n        /* \"#utility.yul\":3449:3461   */\n      lt\n        /* \"#utility.yul\":3439:3485   */\n      tag_241\n      jumpi\n        /* \"#utility.yul\":3465:3483   */\n      tag_242\n      tag_110\n      jump\t// in\n    tag_242:\n        /* \"#utility.yul\":3439:3485   */\n    tag_241:\n        /* \"#utility.yul\":3376:3491   */\n      pop\n      jump\t// out\n        /* \"#utility.yul\":3497:3628   */\n    tag_163:\n        /* \"#utility.yul\":3544:3551   */\n      0x00\n        /* \"#utility.yul\":3573:3578   */\n      dup2\n        /* \"#utility.yul\":3562:3578   */\n      swap1\n      pop\n        /* \"#utility.yul\":3579:3622   */\n      tag_244\n        /* \"#utility.yul\":3616:3621   */\n      dup3\n        /* \"#utility.yul\":3579:3622   */\n      tag_162\n      jump\t// in\n    tag_244:\n        /* \"#utility.yul\":3497:3628   */\n      swap2\n      swap1\n      pop\n      jump\t// out\n        /* \"#utility.yul\":3634:3765   */\n    tag_164:\n        /* \"#utility.yul\":3692:3701   */\n      0x00\n        /* \"#utility.yul\":3725:3759   */\n      tag_246\n        /* \"#utility.yul\":3753:3758   */\n      dup3\n        /* \"#utility.yul\":3725:3759   */\n      tag_163\n      jump\t// in\n    tag_246:\n        /* \"#utility.yul\":3712:3759   */\n      swap1\n      pop\n        /* \"#utility.yul\":3634:3765   */\n      swap2\n      swap1\n      pop\n      jump\t// out\n        /* \"#utility.yul\":3771:3918   */\n    tag_165:\n        /* \"#utility.yul\":3866:3911   */\n      tag_248\n        /* \"#utility.yul\":3905:3910   */\n      dup2\n        /* \"#utility.yul\":3866:3911   */\n      tag_164\n      jump\t// in\n    tag_248:\n        /* \"#utility.yul\":3861:3864   */\n      dup3\n        /* \"#utility.yul\":3854:3912   */\n      mstore\n        /* \"#utility.yul\":3771:3918   */\n      pop\n      pop\n      jump\t// out\n        /* \"#utility.yul\":3924:4162   */\n    tag_47:\n        /* \"#utility.yul\":4025:4029   */\n      0x00\n        /* \"#utility.yul\":4063:4065   */\n      0x20\n        /* \"#utility.yul\":4052:4061   */\n      dup3\n        /* \"#utility.yul\":4048:4066   */\n      add\n        /* \"#utility.yul\":4040:4066   */\n      swap1\n      pop\n        /* \"#utility.yul\":4076:4155   */\n      tag_250\n        /* \"#utility.yul\":4152:4153   */\n      0x00\n        /* \"#utility.yul\":4141:4150   */\n      dup4\n        /* \"#utility.yul\":4137:4154   */\n      add\n        /* \"#utility.yul\":4128:4134   */\n      dup5\n        /* \"#utility.yul\":4076:4155   */\n      tag_165\n      jump\t// in\n    tag_250:\n        /* \"#utility.yul\":3924:4162   */\n      swap3\n      swap2\n      pop\n      pop\n      jump\t// out\n        /* \"#utility.yul\":4168:4277   */\n    tag_166:\n        /* \"#utility.yul\":4251:4252   */\n      0x03\n        /* \"#utility.yul\":4244:4249   */\n      dup2\n        /* \"#utility.yul\":4241:4253   */\n      lt\n        /* \"#utility.yul\":4231:4271   */\n      tag_252\n      jumpi\n        /* \"#utility.yul\":4267:4268   */\n      0x00\n        /* \"#utility.yul\":4264:4265   */\n      dup1\n        /* \"#utility.yul\":4257:4269   */\n      revert\n        /* \"#utility.yul\":4231:4271   */\n    tag_252:\n        /* \"#utility.yul\":4168:4277   */\n      pop\n      jump\t// out\n        /* \"#utility.yul\":4283:4442   */\n    tag_167:\n        /* \"#utility.yul\":4339:4344   */\n      0x00\n        /* \"#utility.yul\":4377:4383   */\n      dup2\n        /* \"#utility.yul\":4364:4384   */\n      calldataload\n        /* \"#utility.yul\":4355:4384   */\n      swap1\n      pop\n        /* \"#utility.yul\":4393:4436   */\n      tag_254\n        /* \"#utility.yul\":4430:4435   */\n      dup2\n        /* \"#utility.yul\":4393:4436   */\n      tag_166\n      jump\t// in\n    tag_254:\n        /* \"#utility.yul\":4283:4442   */\n      swap3\n      swap2\n      pop\n      pop\n      jump\t// out\n        /* \"#utility.yul\":4448:4797   */\n    tag_50:\n        /* \"#utility.yul\":4517:4523   */\n      0x00\n        /* \"#utility.yul\":4566:4568   */\n      0x20\n        /* \"#utility.yul\":4554:4563   */\n      dup3\n        /* \"#utility.yul\":4545:4552   */\n      dup5\n        /* \"#utility.yul\":4541:4564   */\n      sub\n        /* \"#utility.yul\":4537:4569   */\n      slt\n        /* \"#utility.yul\":4534:4653   */\n      iszero\n      tag_256\n      jumpi\n        /* \"#utility.yul\":4572:4651   */\n      tag_257\n      tag_148\n      jump\t// in\n    tag_257:\n        /* \"#utility.yul\":4534:4653   */\n    tag_256:\n        /* \"#utility.yul\":4692:4693   */\n      0x00\n        /* \"#utility.yul\":4717:4780   */\n      tag_258\n        /* \"#utility.yul\":4772:4779   */\n      dup5\n        /* \"#utility.yul\":4763:4769   */\n      dup3\n        /* \"#utility.yul\":4752:4761   */\n      dup6\n        /* \"#utility.yul\":4748:4770   */\n      add\n        /* \"#utility.yul\":4717:4780   */\n      tag_167\n      jump\t// in\n    tag_258:\n        /* \"#utility.yul\":4707:4780   */\n      swap2\n      pop\n        /* \"#utility.yul\":4663:4790   */\n      pop\n        /* \"#utility.yul\":4448:4797   */\n      swap3\n      swap2\n      pop\n      pop\n      jump\t// out\n        /* \"#utility.yul\":4803:5277   */\n    tag_64:\n        /* \"#utility.yul\":4871:4877   */\n      0x00\n        /* \"#utility.yul\":4879:4885   */\n      dup1\n        /* \"#utility.yul\":4928:4930   */\n      0x40\n        /* \"#utility.yul\":4916:4925   */\n      dup4\n        /* \"#utility.yul\":4907:4914   */\n      dup6\n        /* \"#utility.yul\":4903:4926   */\n      sub\n        /* \"#utility.yul\":4899:4931   */\n      slt\n        /* \"#utility.yul\":4896:5015   */\n      iszero\n      tag_260\n      jumpi\n        /* \"#utility.yul\":4934:5013   */\n      tag_261\n      tag_148\n      jump\t// in\n    tag_261:\n        /* \"#utility.yul\":4896:5015   */\n    tag_260:\n        /* \"#utility.yul\":5054:5055   */\n      0x00\n        /* \"#utility.yul\":5079:5132   */\n      tag_262\n        /* \"#utility.yul\":5124:5131   */\n      dup6\n        /* \"#utility.yul\":5115:5121   */\n      dup3\n        /* \"#utility.yul\":5104:5113   */\n      dup7\n        /* \"#utility.yul\":5100:5122   */\n      add\n        /* \"#utility.yul\":5079:5132   */\n      tag_152\n      jump\t// in\n    tag_262:\n        /* \"#utility.yul\":5069:5132   */\n      swap3\n      pop\n        /* \"#utility.yul\":5025:5142   */\n      pop\n        /* \"#utility.yul\":5181:5183   */\n      0x20\n        /* \"#utility.yul\":5207:5260   */\n      tag_263\n        /* \"#utility.yul\":5252:5259   */\n      dup6\n        /* \"#utility.yul\":5243:5249   */\n      dup3\n        /* \"#utility.yul\":5232:5241   */\n      dup7\n        /* \"#utility.yul\":5228:5250   */\n      add\n        /* \"#utility.yul\":5207:5260   */\n      tag_152\n      jump\t// in\n    tag_263:\n        /* \"#utility.yul\":5197:5260   */\n      swap2\n      pop\n        /* \"#utility.yul\":5152:5270   */\n      pop\n        /* \"#utility.yul\":4803:5277   */\n      swap3\n      pop\n      swap3\n      swap1\n      pop\n      jump\t// out\n        /* \"#utility.yul\":5283:5400   */\n    tag_168:\n        /* \"#utility.yul\":5392:5393   */\n      0x00\n        /* \"#utility.yul\":5389:5390   */\n      dup1\n        /* \"#utility.yul\":5382:5394   */\n      revert\n        /* \"#utility.yul\":5406:5586   */\n    tag_169:\n        /* \"#utility.yul\":5454:5531   */\n      0x4e487b7100000000000000000000000000000000000000000000000000000000\n        /* \"#utility.yul\":5451:5452   */\n      0x00\n        /* \"#utility.yul\":5444:5532   */\n      mstore\n        /* \"#utility.yul\":5551:5555   */\n      0x41\n        /* \"#utility.yul\":5548:5549   */\n      0x04\n        /* \"#utility.yul\":5541:5556   */\n      mstore\n        /* \"#utility.yul\":5575:5579   */\n      0x24\n        /* \"#utility.yul\":5572:5573   */\n      0x00\n        /* \"#utility.yul\":5565:5580   */\n      revert\n        /* \"#utility.yul\":5592:5873   */\n    tag_170:\n        /* \"#utility.yul\":5675:5702   */\n      tag_267\n        /* \"#utility.yul\":5697:5701   */\n      dup3\n        /* \"#utility.yul\":5675:5702   */\n      tag_160\n      jump\t// in\n    tag_267:\n        /* \"#utility.yul\":5667:5673   */\n      dup2\n        /* \"#utility.yul\":5663:5703   */\n      add\n        /* \"#utility.yul\":5805:5811   */\n      dup2\n        /* \"#utility.yul\":5793:5803   */\n      dup2\n        /* \"#utility.yul\":5790:5812   */\n      lt\n        /* \"#utility.yul\":5769:5787   */\n      0xffffffffffffffff\n        /* \"#utility.yul\":5757:5767   */\n      dup3\n        /* \"#utility.yul\":5754:5788   */\n      gt\n        /* \"#utility.yul\":5751:5813   */\n      or\n        /* \"#utility.yul\":5748:5836   */\n      iszero\n      tag_268\n      jumpi\n        /* \"#utility.yul\":5816:5834   */\n      tag_269\n      tag_169\n      jump\t// in\n    tag_269:\n        /* \"#utility.yul\":5748:5836   */\n    tag_268:\n        /* \"#utility.yul\":5856:5866   */\n      dup1\n        /* \"#utility.yul\":5852:5854   */\n      0x40\n        /* \"#utility.yul\":5845:5867   */\n      mstore\n        /* \"#utility.yul\":5635:5873   */\n      pop\n        /* \"#utility.yul\":5592:5873   */\n      pop\n      pop\n      jump\t// out\n        /* \"#utility.yul\":5879:6008   */\n    tag_171:\n        /* \"#utility.yul\":5913:5919   */\n      0x00\n        /* \"#utility.yul\":5940:5960   */\n      tag_271\n      tag_147\n      jump\t// in\n    tag_271:\n        /* \"#utility.yul\":5930:5960   */\n      swap1\n      pop\n        /* \"#utility.yul\":5969:6002   */\n      tag_272\n        /* \"#utility.yul\":5997:6001   */\n      dup3\n        /* \"#utility.yul\":5989:5995   */\n      dup3\n        /* \"#utility.yul\":5969:6002   */\n      tag_170\n      jump\t// in\n    tag_272:\n        /* \"#utility.yul\":5879:6008   */\n      swap2\n      swap1\n      pop\n      jump\t// out\n        /* \"#utility.yul\":6014:6325   */\n    tag_172:\n        /* \"#utility.yul\":6091:6095   */\n      0x00\n        /* \"#utility.yul\":6181:6199   */\n      0xffffffffffffffff\n        /* \"#utility.yul\":6173:6179   */\n      dup3\n        /* \"#utility.yul\":6170:6200   */\n      gt\n        /* \"#utility.yul\":6167:6223   */\n      iszero\n      tag_274\n      jumpi\n        /* \"#utility.yul\":6203:6221   */\n      tag_275\n      tag_169\n      jump\t// in\n    tag_275:\n        /* \"#utility.yul\":6167:6223   */\n    tag_274:\n        /* \"#utility.yul\":6253:6257   */\n      0x20\n        /* \"#utility.yul\":6245:6251   */\n      dup3\n        /* \"#utility.yul\":6241:6258   */\n      mul\n        /* \"#utility.yul\":6233:6258   */\n      swap1\n      pop\n        /* \"#utility.yul\":6313:6317   */\n      0x20\n        /* \"#utility.yul\":6307:6311   */\n      dup2\n        /* \"#utility.yul\":6303:6318   */\n      add\n        /* \"#utility.yul\":6295:6318   */\n      swap1\n      pop\n        /* \"#utility.yul\":6014:6325   */\n      swap2\n      swap1\n      pop\n      jump\t// out\n        /* \"#utility.yul\":6331:6448   */\n    tag_173:\n        /* \"#utility.yul\":6440:6441   */\n      0x00\n        /* \"#utility.yul\":6437:6438   */\n      dup1\n        /* \"#utility.yul\":6430:6442   */\n      revert\n        /* \"#utility.yul\":6471:7181   */\n    tag_174:\n        /* \"#utility.yul\":6567:6572   */\n      0x00\n        /* \"#utility.yul\":6592:6673   */\n      tag_278\n        /* \"#utility.yul\":6608:6672   */\n      tag_279\n        /* \"#utility.yul\":6665:6671   */\n      dup5\n        /* \"#utility.yul\":6608:6672   */\n      tag_172\n      jump\t// in\n    tag_279:\n        /* \"#utility.yul\":6592:6673   */\n      tag_171\n      jump\t// in\n    tag_278:\n        /* \"#utility.yul\":6583:6673   */\n      swap1\n      pop\n        /* \"#utility.yul\":6693:6698   */\n      dup1\n        /* \"#utility.yul\":6722:6728   */\n      dup4\n        /* \"#utility.yul\":6715:6720   */\n      dup3\n        /* \"#utility.yul\":6708:6729   */\n      mstore\n        /* \"#utility.yul\":6756:6760   */\n      0x20\n        /* \"#utility.yul\":6749:6754   */\n      dup3\n        /* \"#utility.yul\":6745:6761   */\n      add\n        /* \"#utility.yul\":6738:6761   */\n      swap1\n      pop\n        /* \"#utility.yul\":6809:6813   */\n      0x20\n        /* \"#utility.yul\":6801:6807   */\n      dup5\n        /* \"#utility.yul\":6797:6814   */\n      mul\n        /* \"#utility.yul\":6789:6795   */\n      dup4\n        /* \"#utility.yul\":6785:6815   */\n      add\n        /* \"#utility.yul\":6838:6841   */\n      dup6\n        /* \"#utility.yul\":6830:6836   */\n      dup2\n        /* \"#utility.yul\":6827:6842   */\n      gt\n        /* \"#utility.yul\":6824:6946   */\n      iszero\n      tag_280\n      jumpi\n        /* \"#utility.yul\":6857:6936   */\n      tag_281\n      tag_173\n      jump\t// in\n    tag_281:\n        /* \"#utility.yul\":6824:6946   */\n    tag_280:\n        /* \"#utility.yul\":6972:6978   */\n      dup4\n        /* \"#utility.yul\":6955:7175   */\n    tag_282:\n        /* \"#utility.yul\":6989:6995   */\n      dup2\n        /* \"#utility.yul\":6984:6987   */\n      dup2\n        /* \"#utility.yul\":6981:6996   */\n      lt\n        /* \"#utility.yul\":6955:7175   */\n      iszero\n      tag_284\n      jumpi\n        /* \"#utility.yul\":7064:7067   */\n      dup1\n        /* \"#utility.yul\":7093:7130   */\n      tag_285\n        /* \"#utility.yul\":7126:7129   */\n      dup9\n        /* \"#utility.yul\":7114:7124   */\n      dup3\n        /* \"#utility.yul\":7093:7130   */\n      tag_152\n      jump\t// in\n    tag_285:\n        /* \"#utility.yul\":7088:7091   */\n      dup5\n        /* \"#utility.yul\":7081:7131   */\n      mstore\n        /* \"#utility.yul\":7160:7164   */\n      0x20\n        /* \"#utility.yul\":7155:7158   */\n      dup5\n        /* \"#utility.yul\":7151:7165   */\n      add\n        /* \"#utility.yul\":7144:7165   */\n      swap4\n      pop\n        /* \"#utility.yul\":7031:7175   */\n      pop\n        /* \"#utility.yul\":7015:7019   */\n      0x20\n        /* \"#utility.yul\":7010:7013   */\n      dup2\n        /* \"#utility.yul\":7006:7020   */\n      add\n        /* \"#utility.yul\":6999:7020   */\n      swap1\n      pop\n        /* \"#utility.yul\":6955:7175   */\n      jump(tag_282)\n    tag_284:\n        /* \"#utility.yul\":6959:6980   */\n      pop\n        /* \"#utility.yul\":6573:7181   */\n      pop\n      pop\n        /* \"#utility.yul\":6471:7181   */\n      swap4\n      swap3\n      pop\n      pop\n      pop\n      jump\t// out\n        /* \"#utility.yul\":7204:7574   */\n    tag_175:\n        /* \"#utility.yul\":7275:7280   */\n      0x00\n        /* \"#utility.yul\":7324:7327   */\n      dup3\n        /* \"#utility.yul\":7317:7321   */\n      0x1f\n        /* \"#utility.yul\":7309:7315   */\n      dup4\n        /* \"#utility.yul\":7305:7322   */\n      add\n        /* \"#utility.yul\":7301:7328   */\n      slt\n        /* \"#utility.yul\":7291:7413   */\n      tag_287\n      jumpi\n        /* \"#utility.yul\":7332:7411   */\n      tag_288\n      tag_168\n      jump\t// in\n    tag_288:\n        /* \"#utility.yul\":7291:7413   */\n    tag_287:\n        /* \"#utility.yul\":7449:7455   */\n      dup2\n        /* \"#utility.yul\":7436:7456   */\n      calldataload\n        /* \"#utility.yul\":7474:7568   */\n      tag_289\n        /* \"#utility.yul\":7564:7567   */\n      dup5\n        /* \"#utility.yul\":7556:7562   */\n      dup3\n        /* \"#utility.yul\":7549:7553   */\n      0x20\n        /* \"#utility.yul\":7541:7547   */\n      dup7\n        /* \"#utility.yul\":7537:7554   */\n      add\n        /* \"#utility.yul\":7474:7568   */\n      tag_174\n      jump\t// in\n    tag_289:\n        /* \"#utility.yul\":7465:7568   */\n      swap2\n      pop\n        /* \"#utility.yul\":7281:7574   */\n      pop\n        /* \"#utility.yul\":7204:7574   */\n      swap3\n      swap2\n      pop\n      pop\n      jump\t// out\n        /* \"#utility.yul\":7580:8119   */\n    tag_75:\n        /* \"#utility.yul\":7664:7670   */\n      0x00\n        /* \"#utility.yul\":7713:7715   */\n      0x20\n        /* \"#utility.yul\":7701:7710   */\n      dup3\n        /* \"#utility.yul\":7692:7699   */\n      dup5\n        /* \"#utility.yul\":7688:7711   */\n      sub\n        /* \"#utility.yul\":7684:7716   */\n      slt\n        /* \"#utility.yul\":7681:7800   */\n      iszero\n      tag_291\n      jumpi\n        /* \"#utility.yul\":7719:7798   */\n      tag_292\n      tag_148\n      jump\t// in\n    tag_292:\n        /* \"#utility.yul\":7681:7800   */\n    tag_291:\n        /* \"#utility.yul\":7867:7868   */\n      0x00\n        /* \"#utility.yul\":7856:7865   */\n      dup3\n        /* \"#utility.yul\":7852:7869   */\n      add\n        /* \"#utility.yul\":7839:7870   */\n      calldataload\n        /* \"#utility.yul\":7897:7915   */\n      0xffffffffffffffff\n        /* \"#utility.yul\":7889:7895   */\n      dup2\n        /* \"#utility.yul\":7886:7916   */\n      gt\n        /* \"#utility.yul\":7883:8000   */\n      iszero\n      tag_293\n      jumpi\n        /* \"#utility.yul\":7919:7998   */\n      tag_294\n      tag_149\n      jump\t// in\n    tag_294:\n        /* \"#utility.yul\":7883:8000   */\n    tag_293:\n        /* \"#utility.yul\":8024:8102   */\n      tag_295\n        /* \"#utility.yul\":8094:8101   */\n      dup5\n        /* \"#utility.yul\":8085:8091   */\n      dup3\n        /* \"#utility.yul\":8074:8083   */\n      dup6\n        /* \"#utility.yul\":8070:8092   */\n      add\n        /* \"#utility.yul\":8024:8102   */\n      tag_175\n      jump\t// in\n    tag_295:\n        /* \"#utility.yul\":8014:8102   */\n      swap2\n      pop\n        /* \"#utility.yul\":7810:8112   */\n      pop\n        /* \"#utility.yul\":7580:8119   */\n      swap3\n      swap2\n      pop\n      pop\n      jump\t// out\n        /* \"#utility.yul\":8125:8242   */\n    tag_176:\n        /* \"#utility.yul\":8234:8235   */\n      0x00\n        /* \"#utility.yul\":8231:8232   */\n      dup1\n        /* \"#utility.yul\":8224:8236   */\n      revert\n        /* \"#utility.yul\":8248:8556   */\n    tag_177:\n        /* \"#utility.yul\":8310:8314   */\n      0x00\n        /* \"#utility.yul\":8400:8418   */\n      0xffffffffffffffff\n        /* \"#utility.yul\":8392:8398   */\n      dup3\n        /* \"#utility.yul\":8389:8419   */\n      gt\n        /* \"#utility.yul\":8386:8442   */\n      iszero\n      tag_298\n      jumpi\n        /* \"#utility.yul\":8422:8440   */\n      tag_299\n      tag_169\n      jump\t// in\n    tag_299:\n        /* \"#utility.yul\":8386:8442   */\n    tag_298:\n        /* \"#utility.yul\":8460:8489   */\n      tag_300\n        /* \"#utility.yul\":8482:8488   */\n      dup3\n        /* \"#utility.yul\":8460:8489   */\n      tag_160\n      jump\t// in\n    tag_300:\n        /* \"#utility.yul\":8452:8489   */\n      swap1\n      pop\n        /* \"#utility.yul\":8544:8548   */\n      0x20\n        /* \"#utility.yul\":8538:8542   */\n      dup2\n        /* \"#utility.yul\":8534:8549   */\n      add\n        /* \"#utility.yul\":8526:8549   */\n      swap1\n      pop\n        /* \"#utility.yul\":8248:8556   */\n      swap2\n      swap1\n      pop\n      jump\t// out\n        /* \"#utility.yul\":8562:8710   */\n    tag_178:\n        /* \"#utility.yul\":8660:8666   */\n      dup3\n        /* \"#utility.yul\":8655:8658   */\n      dup2\n        /* \"#utility.yul\":8650:8653   */\n      dup4\n        /* \"#utility.yul\":8637:8667   */\n      calldatacopy\n        /* \"#utility.yul\":8701:8702   */\n      0x00\n        /* \"#utility.yul\":8692:8698   */\n      dup4\n        /* \"#utility.yul\":8687:8690   */\n      dup4\n        /* \"#utility.yul\":8683:8699   */\n      add\n        /* \"#utility.yul\":8676:8703   */\n      mstore\n        /* \"#utility.yul\":8562:8710   */\n      pop\n      pop\n      pop\n      jump\t// out\n        /* \"#utility.yul\":8716:9141   */\n    tag_179:\n        /* \"#utility.yul\":8794:8799   */\n      0x00\n        /* \"#utility.yul\":8819:8885   */\n      tag_303\n        /* \"#utility.yul\":8835:8884   */\n      tag_304\n        /* \"#utility.yul\":8877:8883   */\n      dup5\n        /* \"#utility.yul\":8835:8884   */\n      tag_177\n      jump\t// in\n    tag_304:\n        /* \"#utility.yul\":8819:8885   */\n      tag_171\n      jump\t// in\n    tag_303:\n        /* \"#utility.yul\":8810:8885   */\n      swap1\n      pop\n        /* \"#utility.yul\":8908:8914   */\n      dup3\n        /* \"#utility.yul\":8901:8906   */\n      dup2\n        /* \"#utility.yul\":8894:8915   */\n      mstore\n        /* \"#utility.yul\":8946:8950   */\n      0x20\n        /* \"#utility.yul\":8939:8944   */\n      dup2\n        /* \"#utility.yul\":8935:8951   */\n      add\n        /* \"#utility.yul\":8984:8987   */\n      dup5\n        /* \"#utility.yul\":8975:8981   */\n      dup5\n        /* \"#utility.yul\":8970:8973   */\n      dup5\n        /* \"#utility.yul\":8966:8982   */\n      add\n        /* \"#utility.yul\":8963:8988   */\n      gt\n        /* \"#utility.yul\":8960:9072   */\n      iszero\n      tag_305\n      jumpi\n        /* \"#utility.yul\":8991:9070   */\n      tag_306\n      tag_176\n      jump\t// in\n    tag_306:\n        /* \"#utility.yul\":8960:9072   */\n    tag_305:\n        /* \"#utility.yul\":9081:9135   */\n      tag_307\n        /* \"#utility.yul\":9128:9134   */\n      dup5\n        /* \"#utility.yul\":9123:9126   */\n      dup3\n        /* \"#utility.yul\":9118:9121   */\n      dup6\n        /* \"#utility.yul\":9081:9135   */\n      tag_178\n      jump\t// in\n    tag_307:\n        /* \"#utility.yul\":8800:9141   */\n      pop\n        /* \"#utility.yul\":8716:9141   */\n      swap4\n      swap3\n      pop\n      pop\n      pop\n      jump\t// out\n        /* \"#utility.yul\":9161:9501   */\n    tag_180:\n        /* \"#utility.yul\":9217:9222   */\n      0x00\n        /* \"#utility.yul\":9266:9269   */\n      dup3\n        /* \"#utility.yul\":9259:9263   */\n      0x1f\n        /* \"#utility.yul\":9251:9257   */\n      dup4\n        /* \"#utility.yul\":9247:9264   */\n      add\n        /* \"#utility.yul\":9243:9270   */\n      slt\n        /* \"#utility.yul\":9233:9355   */\n      tag_309\n      jumpi\n        /* \"#utility.yul\":9274:9353   */\n      tag_310\n      tag_168\n      jump\t// in\n    tag_310:\n        /* \"#utility.yul\":9233:9355   */\n    tag_309:\n        /* \"#utility.yul\":9391:9397   */\n      dup2\n        /* \"#utility.yul\":9378:9398   */\n      calldataload\n        /* \"#utility.yul\":9416:9495   */\n      tag_311\n        /* \"#utility.yul\":9491:9494   */\n      dup5\n        /* \"#utility.yul\":9483:9489   */\n      dup3\n        /* \"#utility.yul\":9476:9480   */\n      0x20\n        /* \"#utility.yul\":9468:9474   */\n      dup7\n        /* \"#utility.yul\":9464:9481   */\n      add\n        /* \"#utility.yul\":9416:9495   */\n      tag_179\n      jump\t// in\n    tag_311:\n        /* \"#utility.yul\":9407:9495   */\n      swap2\n      pop\n        /* \"#utility.yul\":9223:9501   */\n      pop\n        /* \"#utility.yul\":9161:9501   */\n      swap3\n      swap2\n      pop\n      pop\n      jump\t// out\n        /* \"#utility.yul\":9507:10016   */\n    tag_82:\n        /* \"#utility.yul\":9576:9582   */\n      0x00\n        /* \"#utility.yul\":9625:9627   */\n      0x20\n        /* \"#utility.yul\":9613:9622   */\n      dup3\n        /* \"#utility.yul\":9604:9611   */\n      dup5\n        /* \"#utility.yul\":9600:9623   */\n      sub\n        /* \"#utility.yul\":9596:9628   */\n      slt\n        /* \"#utility.yul\":9593:9712   */\n      iszero\n      tag_313\n      jumpi\n        /* \"#utility.yul\":9631:9710   */\n      tag_314\n      tag_148\n      jump\t// in\n    tag_314:\n        /* \"#utility.yul\":9593:9712   */\n    tag_313:\n        /* \"#utility.yul\":9779:9780   */\n      0x00\n        /* \"#utility.yul\":9768:9777   */\n      dup3\n        /* \"#utility.yul\":9764:9781   */\n      add\n        /* \"#utility.yul\":9751:9782   */\n      calldataload\n        /* \"#utility.yul\":9809:9827   */\n      0xffffffffffffffff\n        /* \"#utility.yul\":9801:9807   */\n      dup2\n        /* \"#utility.yul\":9798:9828   */\n      gt\n        /* \"#utility.yul\":9795:9912   */\n      iszero\n      tag_315\n      jumpi\n        /* \"#utility.yul\":9831:9910   */\n      tag_316\n      tag_149\n      jump\t// in\n    tag_316:\n        /* \"#utility.yul\":9795:9912   */\n    tag_315:\n        /* \"#utility.yul\":9936:9999   */\n      tag_317\n        /* \"#utility.yul\":9991:9998   */\n      dup5\n        /* \"#utility.yul\":9982:9988   */\n      dup3\n        /* \"#utility.yul\":9971:9980   */\n      dup6\n        /* \"#utility.yul\":9967:9989   */\n      add\n        /* \"#utility.yul\":9936:9999   */\n      tag_180\n      jump\t// in\n    tag_317:\n        /* \"#utility.yul\":9926:9999   */\n      swap2\n      pop\n        /* \"#utility.yul\":9722:10009   */\n      pop\n        /* \"#utility.yul\":9507:10016   */\n      swap3\n      swap2\n      pop\n      pop\n      jump\t// out\n        /* \"#utility.yul\":10022:10202   */\n    tag_181:\n        /* \"#utility.yul\":10070:10147   */\n      0x4e487b7100000000000000000000000000000000000000000000000000000000\n        /* \"#utility.yul\":10067:10068   */\n      0x00\n        /* \"#utility.yul\":10060:10148   */\n      mstore\n        /* \"#utility.yul\":10167:10171   */\n      0x22\n        /* \"#utility.yul\":10164:10165   */\n      0x04\n        /* \"#utility.yul\":10157:10172   */\n      mstore\n        /* \"#utility.yul\":10191:10195   */\n      0x24\n        /* \"#utility.yul\":10188:10189   */\n      0x00\n        /* \"#utility.yul\":10181:10196   */\n      revert\n        /* \"#utility.yul\":10208:10528   */\n    tag_90:\n        /* \"#utility.yul\":10252:10258   */\n      0x00\n        /* \"#utility.yul\":10289:10290   */\n      0x02\n        /* \"#utility.yul\":10283:10287   */\n      dup3\n        /* \"#utility.yul\":10279:10291   */\n      div\n        /* \"#utility.yul\":10269:10291   */\n      swap1\n      pop\n        /* \"#utility.yul\":10336:10337   */\n      0x01\n        /* \"#utility.yul\":10330:10334   */\n      dup3\n        /* \"#utility.yul\":10326:10338   */\n      and\n        /* \"#utility.yul\":10357:10375   */\n      dup1\n        /* \"#utility.yul\":10347:10428   */\n      tag_320\n      jumpi\n        /* \"#utility.yul\":10413:10417   */\n      0x7f\n        /* \"#utility.yul\":10405:10411   */\n      dup3\n        /* \"#utility.yul\":10401:10418   */\n      and\n        /* \"#utility.yul\":10391:10418   */\n      swap2\n      pop\n        /* \"#utility.yul\":10347:10428   */\n    tag_320:\n        /* \"#utility.yul\":10475:10477   */\n      0x20\n        /* \"#utility.yul\":10467:10473   */\n      dup3\n        /* \"#utility.yul\":10464:10478   */\n      lt\n        /* \"#utility.yul\":10444:10462   */\n      dup2\n        /* \"#utility.yul\":10441:10479   */\n      sub\n        /* \"#utility.yul\":10438:10522   */\n      tag_321\n      jumpi\n        /* \"#utility.yul\":10494:10512   */\n      tag_322\n      tag_181\n      jump\t// in\n    tag_322:\n        /* \"#utility.yul\":10438:10522   */\n    tag_321:\n        /* \"#utility.yul\":10259:10528   */\n      pop\n        /* \"#utility.yul\":10208:10528   */\n      swap2\n      swap1\n      pop\n      jump\t// out\n        /* \"#utility.yul\":10534:10707   */\n    tag_182:\n        /* \"#utility.yul\":10674:10699   */\n      0x53697a65206973206e6f74206d6f7265207468616e2035000000000000000000\n        /* \"#utility.yul\":10670:10671   */\n      0x00\n        /* \"#utility.yul\":10662:10668   */\n      dup3\n        /* \"#utility.yul\":10658:10672   */\n      add\n        /* \"#utility.yul\":10651:10700   */\n      mstore\n        /* \"#utility.yul\":10534:10707   */\n      pop\n      jump\t// out\n        /* \"#utility.yul\":10713:11079   */\n    tag_183:\n        /* \"#utility.yul\":10855:10858   */\n      0x00\n        /* \"#utility.yul\":10876:10943   */\n      tag_325\n        /* \"#utility.yul\":10940:10942   */\n      0x17\n        /* \"#utility.yul\":10935:10938   */\n      dup4\n        /* \"#utility.yul\":10876:10943   */\n      tag_158\n      jump\t// in\n    tag_325:\n        /* \"#utility.yul\":10869:10943   */\n      swap2\n      pop\n        /* \"#utility.yul\":10952:11045   */\n      tag_326\n        /* \"#utility.yul\":11041:11044   */\n      dup3\n        /* \"#utility.yul\":10952:11045   */\n      tag_182\n      jump\t// in\n    tag_326:\n        /* \"#utility.yul\":11070:11072   */\n      0x20\n        /* \"#utility.yul\":11065:11068   */\n      dup3\n        /* \"#utility.yul\":11061:11073   */\n      add\n        /* \"#utility.yul\":11054:11073   */\n      swap1\n      pop\n        /* \"#utility.yul\":10713:11079   */\n      swap2\n      swap1\n      pop\n      jump\t// out\n        /* \"#utility.yul\":11085:11504   */\n    tag_116:\n        /* \"#utility.yul\":11251:11255   */\n      0x00\n        /* \"#utility.yul\":11289:11291   */\n      0x20\n        /* \"#utility.yul\":11278:11287   */\n      dup3\n        /* \"#utility.yul\":11274:11292   */\n      add\n        /* \"#utility.yul\":11266:11292   */\n      swap1\n      pop\n        /* \"#utility.yul\":11338:11347   */\n      dup2\n        /* \"#utility.yul\":11332:11336   */\n      dup2\n        /* \"#utility.yul\":11328:11348   */\n      sub\n        /* \"#utility.yul\":11324:11325   */\n      0x00\n        /* \"#utility.yul\":11313:11322   */\n      dup4\n        /* \"#utility.yul\":11309:11326   */\n      add\n        /* \"#utility.yul\":11302:11349   */\n      mstore\n        /* \"#utility.yul\":11366:11497   */\n      tag_328\n        /* \"#utility.yul\":11492:11496   */\n      dup2\n        /* \"#utility.yul\":11366:11497   */\n      tag_183\n      jump\t// in\n    tag_328:\n        /* \"#utility.yul\":11358:11497   */\n      swap1\n      pop\n        /* \"#utility.yul\":11085:11504   */\n      swap2\n      swap1\n      pop\n      jump\t// out\n        /* \"#utility.yul\":11510:11690   */\n    tag_119:\n        /* \"#utility.yul\":11558:11635   */\n      0x4e487b7100000000000000000000000000000000000000000000000000000000\n        /* \"#utility.yul\":11555:11556   */\n      0x00\n        /* \"#utility.yul\":11548:11636   */\n      mstore\n        /* \"#utility.yul\":11655:11659   */\n      0x32\n        /* \"#utility.yul\":11652:11653   */\n      0x04\n        /* \"#utility.yul\":11645:11660   */\n      mstore\n        /* \"#utility.yul\":11679:11683   */\n      0x24\n        /* \"#utility.yul\":11676:11677   */\n      0x00\n        /* \"#utility.yul\":11669:11684   */\n      revert\n        /* \"#utility.yul\":11696:11876   */\n    tag_184:\n        /* \"#utility.yul\":11836:11868   */\n      0x4e756d6265722073686f756c64206265206c657373207468616e203130300000\n        /* \"#utility.yul\":11832:11833   */\n      0x00\n        /* \"#utility.yul\":11824:11830   */\n      dup3\n        /* \"#utility.yul\":11820:11834   */\n      add\n        /* \"#utility.yul\":11813:11869   */\n      mstore\n        /* \"#utility.yul\":11696:11876   */\n      pop\n      jump\t// out\n        /* \"#utility.yul\":11882:12248   */\n    tag_185:\n        /* \"#utility.yul\":12024:12027   */\n      0x00\n        /* \"#utility.yul\":12045:12112   */\n      tag_332\n        /* \"#utility.yul\":12109:12111   */\n      0x1e\n        /* \"#utility.yul\":12104:12107   */\n      dup4\n        /* \"#utility.yul\":12045:12112   */\n      tag_158\n      jump\t// in\n    tag_332:\n        /* \"#utility.yul\":12038:12112   */\n      swap2\n      pop\n        /* \"#utility.yul\":12121:12214   */\n      tag_333\n        /* \"#utility.yul\":12210:12213   */\n      dup3\n        /* \"#utility.yul\":12121:12214   */\n      tag_184\n      jump\t// in\n    tag_333:\n        /* \"#utility.yul\":12239:12241   */\n      0x20\n        /* \"#utility.yul\":12234:12237   */\n      dup3\n        /* \"#utility.yul\":12230:12242   */\n      add\n        /* \"#utility.yul\":12223:12242   */\n      swap1\n      pop\n        /* \"#utility.yul\":11882:12248   */\n      swap2\n      swap1\n      pop\n      jump\t// out\n        /* \"#utility.yul\":12254:12673   */\n    tag_135:\n        /* \"#utility.yul\":12420:12424   */\n      0x00\n        /* \"#utility.yul\":12458:12460   */\n      0x20\n        /* \"#utility.yul\":12447:12456   */\n      dup3\n        /* \"#utility.yul\":12443:12461   */\n      add\n        /* \"#utility.yul\":12435:12461   */\n      swap1\n      pop\n        /* \"#utility.yul\":12507:12516   */\n      dup2\n        /* \"#utility.yul\":12501:12505   */\n      dup2\n        /* \"#utility.yul\":12497:12517   */\n      sub\n        /* \"#utility.yul\":12493:12494   */\n      0x00\n        /* \"#utility.yul\":12482:12491   */\n      dup4\n        /* \"#utility.yul\":12478:12495   */\n      add\n        /* \"#utility.yul\":12471:12518   */\n      mstore\n        /* \"#utility.yul\":12535:12666   */\n      tag_335\n        /* \"#utility.yul\":12661:12665   */\n      dup2\n        /* \"#utility.yul\":12535:12666   */\n      tag_185\n      jump\t// in\n    tag_335:\n        /* \"#utility.yul\":12527:12666   */\n      swap1\n      pop\n        /* \"#utility.yul\":12254:12673   */\n      swap2\n      swap1\n      pop\n      jump\t// out\n        /* \"#utility.yul\":12679:12861   */\n    tag_186:\n        /* \"#utility.yul\":12819:12853   */\n      0x4e756d6265722063616e27742062652067726561746572207468616e20313030\n        /* \"#utility.yul\":12815:12816   */\n      0x00\n        /* \"#utility.yul\":12807:12813   */\n      dup3\n        /* \"#utility.yul\":12803:12817   */\n      add\n        /* \"#utility.yul\":12796:12854   */\n      mstore\n        /* \"#utility.yul\":12679:12861   */\n      pop\n      jump\t// out\n        /* \"#utility.yul\":12867:13233   */\n    tag_187:\n        /* \"#utility.yul\":13009:13012   */\n      0x00\n        /* \"#utility.yul\":13030:13097   */\n      tag_338\n        /* \"#utility.yul\":13094:13096   */\n      0x20\n        /* \"#utility.yul\":13089:13092   */\n      dup4\n        /* \"#utility.yul\":13030:13097   */\n      tag_158\n      jump\t// in\n    tag_338:\n        /* \"#utility.yul\":13023:13097   */\n      swap2\n      pop\n        /* \"#utility.yul\":13106:13199   */\n      tag_339\n        /* \"#utility.yul\":13195:13198   */\n      dup3\n        /* \"#utility.yul\":13106:13199   */\n      tag_186\n      jump\t// in\n    tag_339:\n        /* \"#utility.yul\":13224:13226   */\n      0x20\n        /* \"#utility.yul\":13219:13222   */\n      dup3\n        /* \"#utility.yul\":13215:13227   */\n      add\n        /* \"#utility.yul\":13208:13227   */\n      swap1\n      pop\n        /* \"#utility.yul\":12867:13233   */\n      swap2\n      swap1\n      pop\n      jump\t// out\n        /* \"#utility.yul\":13239:13658   */\n    tag_138:\n        /* \"#utility.yul\":13405:13409   */\n      0x00\n        /* \"#utility.yul\":13443:13445   */\n      0x20\n        /* \"#utility.yul\":13432:13441   */\n      dup3\n        /* \"#utility.yul\":13428:13446   */\n      add\n        /* \"#utility.yul\":13420:13446   */\n      swap1\n      pop\n        /* \"#utility.yul\":13492:13501   */\n      dup2\n        /* \"#utility.yul\":13486:13490   */\n      dup2\n        /* \"#utility.yul\":13482:13502   */\n      sub\n        /* \"#utility.yul\":13478:13479   */\n      0x00\n        /* \"#utility.yul\":13467:13476   */\n      dup4\n        /* \"#utility.yul\":13463:13480   */\n      add\n        /* \"#utility.yul\":13456:13503   */\n      mstore\n        /* \"#utility.yul\":13520:13651   */\n      tag_341\n        /* \"#utility.yul\":13646:13650   */\n      dup2\n        /* \"#utility.yul\":13520:13651   */\n      tag_187\n      jump\t// in\n    tag_341:\n        /* \"#utility.yul\":13512:13651   */\n      swap1\n      pop\n        /* \"#utility.yul\":13239:13658   */\n      swap2\n      swap1\n      pop\n      jump\t// out\n        /* \"#utility.yul\":13664:13844   */\n    tag_142:\n        /* \"#utility.yul\":13712:13789   */\n      0x4e487b7100000000000000000000000000000000000000000000000000000000\n        /* \"#utility.yul\":13709:13710   */\n      0x00\n        /* \"#utility.yul\":13702:13790   */\n      mstore\n        /* \"#utility.yul\":13809:13813   */\n      0x01\n        /* \"#utility.yul\":13806:13807   */\n      0x04\n        /* \"#utility.yul\":13799:13814   */\n      mstore\n        /* \"#utility.yul\":13833:13837   */\n      0x24\n        /* \"#utility.yul\":13830:13831   */\n      0x00\n        /* \"#utility.yul\":13823:13838   */\n      revert\n        /* \"#utility.yul\":13850:13991   */\n    tag_188:\n        /* \"#utility.yul\":13899:13903   */\n      0x00\n        /* \"#utility.yul\":13922:13925   */\n      dup2\n        /* \"#utility.yul\":13914:13925   */\n      swap1\n      pop\n        /* \"#utility.yul\":13945:13948   */\n      dup2\n        /* \"#utility.yul\":13942:13943   */\n      0x00\n        /* \"#utility.yul\":13935:13949   */\n      mstore\n        /* \"#utility.yul\":13979:13983   */\n      0x20\n        /* \"#utility.yul\":13976:13977   */\n      0x00\n        /* \"#utility.yul\":13966:13984   */\n      keccak256\n        /* \"#utility.yul\":13958:13984   */\n      swap1\n      pop\n        /* \"#utility.yul\":13850:13991   */\n      swap2\n      swap1\n      pop\n      jump\t// out\n        /* \"#utility.yul\":13997:14090   */\n    tag_189:\n        /* \"#utility.yul\":14034:14040   */\n      0x00\n        /* \"#utility.yul\":14081:14083   */\n      0x20\n        /* \"#utility.yul\":14076:14078   */\n      0x1f\n        /* \"#utility.yul\":14069:14074   */\n      dup4\n        /* \"#utility.yul\":14065:14079   */\n      add\n        /* \"#utility.yul\":14061:14084   */\n      div\n        /* \"#utility.yul\":14051:14084   */\n      swap1\n      pop\n        /* \"#utility.yul\":13997:14090   */\n      swap2\n      swap1\n      pop\n      jump\t// out\n        /* \"#utility.yul\":14096:14203   */\n    tag_190:\n        /* \"#utility.yul\":14140:14148   */\n      0x00\n        /* \"#utility.yul\":14190:14195   */\n      dup3\n        /* \"#utility.yul\":14184:14188   */\n      dup3\n        /* \"#utility.yul\":14180:14196   */\n      shl\n        /* \"#utility.yul\":14159:14196   */\n      swap1\n      pop\n        /* \"#utility.yul\":14096:14203   */\n      swap3\n      swap2\n      pop\n      pop\n      jump\t// out\n        /* \"#utility.yul\":14209:14602   */\n    tag_191:\n        /* \"#utility.yul\":14278:14284   */\n      0x00\n        /* \"#utility.yul\":14328:14329   */\n      0x08\n        /* \"#utility.yul\":14316:14326   */\n      dup4\n        /* \"#utility.yul\":14312:14330   */\n      mul\n        /* \"#utility.yul\":14351:14448   */\n      tag_347\n        /* \"#utility.yul\":14381:14447   */\n      0xffffffffffffffffffffffffffffffffffffffffffffffffffffffffffffffff\n        /* \"#utility.yul\":14370:14379   */\n      dup3\n        /* \"#utility.yul\":14351:14448   */\n      tag_190\n      jump\t// in\n    tag_347:\n        /* \"#utility.yul\":14469:14508   */\n      tag_348\n        /* \"#utility.yul\":14499:14507   */\n      dup7\n        /* \"#utility.yul\":14488:14497   */\n      dup4\n        /* \"#utility.yul\":14469:14508   */\n      tag_190\n      jump\t// in\n    tag_348:\n        /* \"#utility.yul\":14457:14508   */\n      swap6\n      pop\n        /* \"#utility.yul\":14541:14545   */\n      dup1\n        /* \"#utility.yul\":14537:14546   */\n      not\n        /* \"#utility.yul\":14530:14535   */\n      dup5\n        /* \"#utility.yul\":14526:14547   */\n      and\n        /* \"#utility.yul\":14517:14547   */\n      swap4\n      pop\n        /* \"#utility.yul\":14590:14594   */\n      dup1\n        /* \"#utility.yul\":14580:14588   */\n      dup7\n        /* \"#utility.yul\":14576:14595   */\n      and\n        /* \"#utility.yul\":14569:14574   */\n      dup5\n        /* \"#utility.yul\":14566:14596   */\n      or\n        /* \"#utility.yul\":14556:14596   */\n      swap3\n      pop\n        /* \"#utility.yul\":14285:14602   */\n      pop\n      pop\n        /* \"#utility.yul\":14209:14602   */\n      swap4\n      swap3\n      pop\n      pop\n      pop\n      jump\t// out\n        /* \"#utility.yul\":14608:14668   */\n    tag_192:\n        /* \"#utility.yul\":14636:14639   */\n      0x00\n        /* \"#utility.yul\":14657:14662   */\n      dup2\n        /* \"#utility.yul\":14650:14662   */\n      swap1\n      pop\n        /* \"#utility.yul\":14608:14668   */\n      swap2\n      swap1\n      pop\n      jump\t// out\n        /* \"#utility.yul\":14674:14816   */\n    tag_193:\n        /* \"#utility.yul\":14724:14733   */\n      0x00\n        /* \"#utility.yul\":14757:14810   */\n      tag_351\n        /* \"#utility.yul\":14775:14809   */\n      tag_352\n        /* \"#utility.yul\":14784:14808   */\n      tag_353\n        /* \"#utility.yul\":14802:14807   */\n      dup5\n        /* \"#utility.yul\":14784:14808   */\n      tag_150\n      jump\t// in\n    tag_353:\n        /* \"#utility.yul\":14775:14809   */\n      tag_192\n      jump\t// in\n    tag_352:\n        /* \"#utility.yul\":14757:14810   */\n      tag_150\n      jump\t// in\n    tag_351:\n        /* \"#utility.yul\":14744:14810   */\n      swap1\n      pop\n        /* \"#utility.yul\":14674:14816   */\n      swap2\n      swap1\n      pop\n      jump\t// out\n        /* \"#utility.yul\":14822:14897   */\n    tag_194:\n        /* \"#utility.yul\":14865:14868   */\n      0x00\n        /* \"#utility.yul\":14886:14891   */\n      dup2\n        /* \"#utility.yul\":14879:14891   */\n      swap1\n      pop\n        /* \"#utility.yul\":14822:14897   */\n      swap2\n      swap1\n      pop\n      jump\t// out\n        /* \"#utility.yul\":14903:15172   */\n    tag_195:\n        /* \"#utility.yul\":15013:15052   */\n      tag_356\n        /* \"#utility.yul\":15044:15051   */\n      dup4\n        /* \"#utility.yul\":15013:15052   */\n      tag_193\n      jump\t// in\n    tag_356:\n        /* \"#utility.yul\":15074:15165   */\n      tag_357\n        /* \"#utility.yul\":15123:15164   */\n      tag_358\n        /* \"#utility.yul\":15147:15163   */\n      dup3\n        /* \"#utility.yul\":15123:15164   */\n      tag_194\n      jump\t// in\n    tag_358:\n        /* \"#utility.yul\":15115:15121   */\n      dup5\n        /* \"#utility.yul\":15108:15112   */\n      dup5\n        /* \"#utility.yul\":15102:15113   */\n      sload\n        /* \"#utility.yul\":15074:15165   */\n      tag_191\n      jump\t// in\n    tag_357:\n        /* \"#utility.yul\":15068:15072   */\n      dup3\n        /* \"#utility.yul\":15061:15166   */\n      sstore\n        /* \"#utility.yul\":14979:15172   */\n      pop\n        /* \"#utility.yul\":14903:15172   */\n      pop\n      pop\n      pop\n      jump\t// out\n        /* \"#utility.yul\":15178:15251   */\n    tag_196:\n        /* \"#utility.yul\":15223:15226   */\n      0x00\n        /* \"#utility.yul\":15178:15251   */\n      swap1\n      jump\t// out\n        /* \"#utility.yul\":15257:15446   */\n    tag_197:\n        /* \"#utility.yul\":15334:15366   */\n      tag_361\n      tag_196\n      jump\t// in\n    tag_361:\n        /* \"#utility.yul\":15375:15440   */\n      tag_362\n        /* \"#utility.yul\":15433:15439   */\n      dup2\n        /* \"#utility.yul\":15425:15431   */\n      dup5\n        /* \"#utility.yul\":15419:15423   */\n      dup5\n        /* \"#utility.yul\":15375:15440   */\n      tag_195\n      jump\t// in\n    tag_362:\n        /* \"#utility.yul\":15310:15446   */\n      pop\n        /* \"#utility.yul\":15257:15446   */\n      pop\n      pop\n      jump\t// out\n        /* \"#utility.yul\":15452:15638   */\n    tag_198:\n        /* \"#utility.yul\":15512:15632   */\n    tag_364:\n        /* \"#utility.yul\":15529:15532   */\n      dup2\n        /* \"#utility.yul\":15522:15527   */\n      dup2\n        /* \"#utility.yul\":15519:15533   */\n      lt\n        /* \"#utility.yul\":15512:15632   */\n      iszero\n      tag_366\n      jumpi\n        /* \"#utility.yul\":15583:15622   */\n      tag_367\n        /* \"#utility.yul\":15620:15621   */\n      0x00\n        /* \"#utility.yul\":15613:15618   */\n      dup3\n        /* \"#utility.yul\":15583:15622   */\n      tag_197\n      jump\t// in\n    tag_367:\n        /* \"#utility.yul\":15556:15557   */\n      0x01\n        /* \"#utility.yul\":15549:15554   */\n      dup2\n        /* \"#utility.yul\":15545:15558   */\n      add\n        /* \"#utility.yul\":15536:15558   */\n      swap1\n      pop\n        /* \"#utility.yul\":15512:15632   */\n      jump(tag_364)\n    tag_366:\n        /* \"#utility.yul\":15452:15638   */\n      pop\n      pop\n      jump\t// out\n        /* \"#utility.yul\":15644:16187   */\n    tag_199:\n        /* \"#utility.yul\":15745:15747   */\n      0x1f\n        /* \"#utility.yul\":15740:15743   */\n      dup3\n        /* \"#utility.yul\":15737:15748   */\n      gt\n        /* \"#utility.yul\":15734:16180   */\n      iszero\n      tag_369\n      jumpi\n        /* \"#utility.yul\":15779:15817   */\n      tag_370\n        /* \"#utility.yul\":15811:15816   */\n      dup2\n        /* \"#utility.yul\":15779:15817   */\n      tag_188\n      jump\t// in\n    tag_370:\n        /* \"#utility.yul\":15863:15892   */\n      tag_371\n        /* \"#utility.yul\":15881:15891   */\n      dup5\n        /* \"#utility.yul\":15863:15892   */\n      tag_189\n      jump\t// in\n    tag_371:\n        /* \"#utility.yul\":15853:15861   */\n      dup2\n        /* \"#utility.yul\":15849:15893   */\n      add\n        /* \"#utility.yul\":16046:16048   */\n      0x20\n        /* \"#utility.yul\":16034:16044   */\n      dup6\n        /* \"#utility.yul\":16031:16049   */\n      lt\n        /* \"#utility.yul\":16028:16077   */\n      iszero\n      tag_372\n      jumpi\n        /* \"#utility.yul\":16067:16075   */\n      dup2\n        /* \"#utility.yul\":16052:16075   */\n      swap1\n      pop\n        /* \"#utility.yul\":16028:16077   */\n    tag_372:\n        /* \"#utility.yul\":16090:16170   */\n      tag_373\n        /* \"#utility.yul\":16146:16168   */\n      tag_374\n        /* \"#utility.yul\":16164:16167   */\n      dup6\n        /* \"#utility.yul\":16146:16168   */\n      tag_189\n      jump\t// in\n    tag_374:\n        /* \"#utility.yul\":16136:16144   */\n      dup4\n        /* \"#utility.yul\":16132:16169   */\n      add\n        /* \"#utility.yul\":16119:16130   */\n      dup3\n        /* \"#utility.yul\":16090:16170   */\n      tag_198\n      jump\t// in\n    tag_373:\n        /* \"#utility.yul\":15749:16180   */\n      pop\n      pop\n        /* \"#utility.yul\":15734:16180   */\n    tag_369:\n        /* \"#utility.yul\":15644:16187   */\n      pop\n      pop\n      pop\n      jump\t// out\n        /* \"#utility.yul\":16193:16310   */\n    tag_200:\n        /* \"#utility.yul\":16247:16255   */\n      0x00\n        /* \"#utility.yul\":16297:16302   */\n      dup3\n        /* \"#utility.yul\":16291:16295   */\n      dup3\n        /* \"#utility.yul\":16287:16303   */\n      shr\n        /* \"#utility.yul\":16266:16303   */\n      swap1\n      pop\n        /* \"#utility.yul\":16193:16310   */\n      swap3\n      swap2\n      pop\n      pop\n      jump\t// out\n        /* \"#utility.yul\":16316:16485   */\n    tag_201:\n        /* \"#utility.yul\":16360:16366   */\n      0x00\n        /* \"#utility.yul\":16393:16444   */\n      tag_377\n        /* \"#utility.yul\":16441:16442   */\n      0x00\n        /* \"#utility.yul\":16437:16443   */\n      not\n        /* \"#utility.yul\":16429:16434   */\n      dup5\n        /* \"#utility.yul\":16426:16427   */\n      0x08\n        /* \"#utility.yul\":16422:16435   */\n      mul\n        /* \"#utility.yul\":16393:16444   */\n      tag_200\n      jump\t// in\n    tag_377:\n        /* \"#utility.yul\":16389:16445   */\n      not\n        /* \"#utility.yul\":16474:16478   */\n      dup1\n        /* \"#utility.yul\":16468:16472   */\n      dup4\n        /* \"#utility.yul\":16464:16479   */\n      and\n        /* \"#utility.yul\":16454:16479   */\n      swap2\n      pop\n        /* \"#utility.yul\":16367:16485   */\n      pop\n        /* \"#utility.yul\":16316:16485   */\n      swap3\n      swap2\n      pop\n      pop\n      jump\t// out\n        /* \"#utility.yul\":16490:16785   */\n    tag_202:\n        /* \"#utility.yul\":16566:16570   */\n      0x00\n        /* \"#utility.yul\":16712:16741   */\n      tag_379\n        /* \"#utility.yul\":16737:16740   */\n      dup4\n        /* \"#utility.yul\":16731:16735   */\n      dup4\n        /* \"#utility.yul\":16712:16741   */\n      tag_201\n      jump\t// in\n    tag_379:\n        /* \"#utility.yul\":16704:16741   */\n      swap2\n      pop\n        /* \"#utility.yul\":16774:16777   */\n      dup3\n        /* \"#utility.yul\":16771:16772   */\n      0x02\n        /* \"#utility.yul\":16767:16778   */\n      mul\n        /* \"#utility.yul\":16761:16765   */\n      dup3\n        /* \"#utility.yul\":16758:16779   */\n      or\n        /* \"#utility.yul\":16750:16779   */\n      swap1\n      pop\n        /* \"#utility.yul\":16490:16785   */\n      swap3\n      swap2\n      pop\n      pop\n      jump\t// out\n        /* \"#utility.yul\":16790:18185   */\n    tag_145:\n        /* \"#utility.yul\":16907:16944   */\n      tag_381\n        /* \"#utility.yul\":16940:16943   */\n      dup3\n        /* \"#utility.yul\":16907:16944   */\n      tag_157\n      jump\t// in\n    tag_381:\n        /* \"#utility.yul\":17009:17027   */\n      0xffffffffffffffff\n        /* \"#utility.yul\":17001:17007   */\n      dup2\n        /* \"#utility.yul\":16998:17028   */\n      gt\n        /* \"#utility.yul\":16995:17051   */\n      iszero\n      tag_382\n      jumpi\n        /* \"#utility.yul\":17031:17049   */\n      tag_383\n      tag_169\n      jump\t// in\n    tag_383:\n        /* \"#utility.yul\":16995:17051   */\n    tag_382:\n        /* \"#utility.yul\":17075:17113   */\n      tag_384\n        /* \"#utility.yul\":17107:17111   */\n      dup3\n        /* \"#utility.yul\":17101:17112   */\n      sload\n        /* \"#utility.yul\":17075:17113   */\n      tag_90\n      jump\t// in\n    tag_384:\n        /* \"#utility.yul\":17160:17227   */\n      tag_385\n        /* \"#utility.yul\":17220:17226   */\n      dup3\n        /* \"#utility.yul\":17212:17218   */\n      dup3\n        /* \"#utility.yul\":17206:17210   */\n      dup6\n        /* \"#utility.yul\":17160:17227   */\n      tag_199\n      jump\t// in\n    tag_385:\n        /* \"#utility.yul\":17254:17255   */\n      0x00\n        /* \"#utility.yul\":17278:17282   */\n      0x20\n        /* \"#utility.yul\":17265:17282   */\n      swap1\n      pop\n        /* \"#utility.yul\":17310:17312   */\n      0x1f\n        /* \"#utility.yul\":17302:17308   */\n      dup4\n        /* \"#utility.yul\":17299:17313   */\n      gt\n        /* \"#utility.yul\":17327:17328   */\n      0x01\n        /* \"#utility.yul\":17322:17940   */\n      dup2\n      eq\n      tag_387\n      jumpi\n        /* \"#utility.yul\":17984:17985   */\n      0x00\n        /* \"#utility.yul\":18001:18007   */\n      dup5\n        /* \"#utility.yul\":17998:18075   */\n      iszero\n      tag_388\n      jumpi\n        /* \"#utility.yul\":18050:18059   */\n      dup3\n        /* \"#utility.yul\":18045:18048   */\n      dup8\n        /* \"#utility.yul\":18041:18060   */\n      add\n        /* \"#utility.yul\":18035:18061   */\n      mload\n        /* \"#utility.yul\":18026:18061   */\n      swap1\n      pop\n        /* \"#utility.yul\":17998:18075   */\n    tag_388:\n        /* \"#utility.yul\":18101:18168   */\n      tag_389\n        /* \"#utility.yul\":18161:18167   */\n      dup6\n        /* \"#utility.yul\":18154:18159   */\n      dup3\n        /* \"#utility.yul\":18101:18168   */\n      tag_202\n      jump\t// in\n    tag_389:\n        /* \"#utility.yul\":18095:18099   */\n      dup7\n        /* \"#utility.yul\":18088:18169   */\n      sstore\n        /* \"#utility.yul\":17957:18179   */\n      pop\n        /* \"#utility.yul\":17292:18179   */\n      jump(tag_386)\n        /* \"#utility.yul\":17322:17940   */\n    tag_387:\n        /* \"#utility.yul\":17374:17378   */\n      0x1f\n        /* \"#utility.yul\":17370:17379   */\n      not\n        /* \"#utility.yul\":17362:17368   */\n      dup5\n        /* \"#utility.yul\":17358:17380   */\n      and\n        /* \"#utility.yul\":17408:17445   */\n      tag_390\n        /* \"#utility.yul\":17440:17444   */\n      dup7\n        /* \"#utility.yul\":17408:17445   */\n      tag_188\n      jump\t// in\n    tag_390:\n        /* \"#utility.yul\":17467:17468   */\n      0x00\n        /* \"#utility.yul\":17481:17689   */\n    tag_391:\n        /* \"#utility.yul\":17495:17502   */\n      dup3\n        /* \"#utility.yul\":17492:17493   */\n      dup2\n        /* \"#utility.yul\":17489:17503   */\n      lt\n        /* \"#utility.yul\":17481:17689   */\n      iszero\n      tag_393\n      jumpi\n        /* \"#utility.yul\":17574:17583   */\n      dup5\n        /* \"#utility.yul\":17569:17572   */\n      dup10\n        /* \"#utility.yul\":17565:17584   */\n      add\n        /* \"#utility.yul\":17559:17585   */\n      mload\n        /* \"#utility.yul\":17551:17557   */\n      dup3\n        /* \"#utility.yul\":17544:17586   */\n      sstore\n        /* \"#utility.yul\":17625:17626   */\n      0x01\n        /* \"#utility.yul\":17617:17623   */\n      dup3\n        /* \"#utility.yul\":17613:17627   */\n      add\n        /* \"#utility.yul\":17603:17627   */\n      swap2\n      pop\n        /* \"#utility.yul\":17672:17674   */\n      0x20\n        /* \"#utility.yul\":17661:17670   */\n      dup6\n        /* \"#utility.yul\":17657:17675   */\n      add\n        /* \"#utility.yul\":17644:17675   */\n      swap5\n      pop\n        /* \"#utility.yul\":17518:17522   */\n      0x20\n        /* \"#utility.yul\":17515:17516   */\n      dup2\n        /* \"#utility.yul\":17511:17523   */\n      add\n        /* \"#utility.yul\":17506:17523   */\n      swap1\n      pop\n        /* \"#utility.yul\":17481:17689   */\n      jump(tag_391)\n    tag_393:\n        /* \"#utility.yul\":17717:17723   */\n      dup7\n        /* \"#utility.yul\":17708:17715   */\n      dup4\n        /* \"#utility.yul\":17705:17724   */\n      lt\n        /* \"#utility.yul\":17702:17881   */\n      iszero\n      tag_394\n      jumpi\n        /* \"#utility.yul\":17775:17784   */\n      dup5\n        /* \"#utility.yul\":17770:17773   */\n      dup10\n        /* \"#utility.yul\":17766:17785   */\n      add\n        /* \"#utility.yul\":17760:17786   */\n      mload\n        /* \"#utility.yul\":17818:17866   */\n      tag_395\n        /* \"#utility.yul\":17860:17864   */\n      0x1f\n        /* \"#utility.yul\":17852:17858   */\n      dup10\n        /* \"#utility.yul\":17848:17865   */\n      and\n        /* \"#utility.yul\":17837:17846   */\n      dup3\n        /* \"#utility.yul\":17818:17866   */\n      tag_201\n      jump\t// in\n    tag_395:\n        /* \"#utility.yul\":17810:17816   */\n      dup4\n        /* \"#utility.yul\":17803:17867   */\n      sstore\n        /* \"#utility.yul\":17725:17881   */\n      pop\n        /* \"#utility.yul\":17702:17881   */\n    tag_394:\n        /* \"#utility.yul\":17927:17928   */\n      0x01\n        /* \"#utility.yul\":17923:17924   */\n      0x02\n        /* \"#utility.yul\":17915:17921   */\n      dup9\n        /* \"#utility.yul\":17911:17925   */\n      mul\n        /* \"#utility.yul\":17907:17929   */\n      add\n        /* \"#utility.yul\":17901:17905   */\n      dup9\n        /* \"#utility.yul\":17894:17930   */\n      sstore\n        /* \"#utility.yul\":17329:17940   */\n      pop\n      pop\n      pop\n        /* \"#utility.yul\":17292:18179   */\n    tag_386:\n      pop\n        /* \"#utility.yul\":16882:18185   */\n      pop\n      pop\n      pop\n        /* \"#utility.yul\":16790:18185   */\n      pop\n      pop\n      jump\t// out\n\n    auxdata: 0xa26469706673582212207a22fe937c82f7a0764bec0e3961c486df256d8dbdbceb4b33ec8da06167866464736f6c634300081a0033\n}\n",
				"bytecode": {
					"linkReferences": {},
					"object": "608060405260326001553480156013575f80fd5b5061126f806100215f395ff3fe608060405234801561000f575f80fd5b5060043610610109575f3560e01c8063c223a39e116100a0578063da5e1cfd1161006f578063da5e1cfd146102cf578063e892264f146102eb578063eb0e924014610307578063f80bc66414610323578063fb1669ca1461033f57610109565b8063c223a39e14610235578063cc3e57d914610253578063cf3d229c14610283578063d60293591461029f57610109565b80633fb5c1cb116100dc5780633fb5c1cb146101ad57806365372147146101dd57806380ce60d1146101fb5780638381f58a1461021757610109565b806306ead22e1461010d5780630849cc991461013f57806312399d881461015d578063361a80e61461018d575b5f80fd5b6101276004803603810190610122919061090a565b61035b565b604051610136939291906109f3565b60405180910390f35b610147610435565b6040516101549190610a2f565b60405180910390f35b6101776004803603810190610172919061090a565b610490565b6040516101849190610a2f565b60405180910390f35b6101956104a9565b6040516101a4939291906109f3565b60405180910390f35b6101c760048036038101906101c2919061090a565b610565565b6040516101d49190610a2f565b60405180910390f35b6101e56105c3565b6040516101f29190610abb565b60405180910390f35b61021560048036038101906102109190610af7565b6105d5565b005b61021f610601565b60405161022c9190610a2f565b60405180910390f35b61023d610606565b60405161024a9190610a2f565b60405180910390f35b61026d6004803603810190610268919061090a565b61060c565b60405161027a9190610a2f565b60405180910390f35b61029d60048036038101906102989190610b22565b61062c565b005b6102b960048036038101906102b4919061090a565b61068d565b6040516102c69190610a2f565b60405180910390f35b6102e960048036038101906102e4919061090a565b6106ad565b005b61030560048036038101906103009190610ca0565b6106d6565b005b610321600480360381019061031c919061090a565b610732565b005b61033d60048036038101906103389190610d97565b6107e3565b005b6103596004803603810190610354919061090a565b610881565b005b600d818154811061036a575f80fd5b905f5260205f2090600302015f91509050805f015f9054906101000a900473ffffffffffffffffffffffffffffffffffffffff16908060010154908060020180546103b490610e0b565b80601f01602080910402602001604051908101604052809291908181526020018280546103e090610e0b565b801561042b5780601f106104025761010080835404028352916020019161042b565b820191905f5260205f20905b81548152906001019060200180831161040e57829003601f168201915b5050505050905083565b5f80600280548060200260200160405190810160405280929190818152602001828054801561048157602002820191905f5260205f20905b81548152602001906001019080831161046d575b50505050509050805191505090565b6004816005811061049f575f80fd5b015f915090505481565b600a805f015f9054906101000a900473ffffffffffffffffffffffffffffffffffffffff16908060010154908060020180546104e490610e0b565b80601f016020809104026020016040519081016040528092919081815260200182805461051090610e0b565b801561055b5780601f106105325761010080835404028352916020019161055b565b820191905f5260205f20905b81548152906001019060200180831161053e57829003601f168201915b5050505050905083565b5f815f819055503373ffffffffffffffffffffffffffffffffffffffff167f7176cbfe62f9732da66320c618fdc14fe54d86506ba31c8c58b5b4f4a9f7dd89836040516105b29190610a2f565b60405180910390a25f549050919050565b600e5f9054906101000a900460ff1681565b80600e5f6101000a81548160ff021916908360028111156105f9576105f8610a48565b5b021790555050565b5f5481565b60015481565b6002818154811061061b575f80fd5b905f5260205f20015f915090505481565b6005821061066f576040517f08c379a000000000000000000000000000000000000000000000000000000000815260040161066690610e85565b60405180910390fd5b806004836005811061068457610683610ea3565b5b01819055505050565b6009818154811061069c575f80fd5b905f5260205f20015f915090505481565b600981908060018154018082558091505060019003905f5260205f20015f909190919091505550565b5f5b815181101561072e5760028282815181106106f6576106f5610ea3565b5b6020026020010151908060018154018082558091505060019003905f5260205f20015f909190919091505580806001019150506106d8565b5050565b60645f5410610776576040517f08c379a000000000000000000000000000000000000000000000000000000000815260040161076d90610f1a565b60405180910390fd5b60645f5411156107bb576040517f08c379a00000000000000000000000000000000000000000000000000000000081526004016107b290610f82565b60405180910390fd5b805f8190555060325f541180156107d3575060645f54105b6107e0576107df610fa0565b5b50565b60405180606001604052803373ffffffffffffffffffffffffffffffffffffffff1681526020016001815260200182815250600a5f820151815f015f6101000a81548173ffffffffffffffffffffffffffffffffffffffff021916908373ffffffffffffffffffffffffffffffffffffffff16021790555060208201518160010155604082015181600201908161087a919061116a565b5090505050565b8060035f3373ffffffffffffffffffffffffffffffffffffffff1673ffffffffffffffffffffffffffffffffffffffff1681526020019081526020015f208190555050565b5f604051905090565b5f80fd5b5f80fd5b5f819050919050565b6108e9816108d7565b81146108f3575f80fd5b50565b5f81359050610904816108e0565b92915050565b5f6020828403121561091f5761091e6108cf565b5b5f61092c848285016108f6565b91505092915050565b5f73ffffffffffffffffffffffffffffffffffffffff82169050919050565b5f61095e82610935565b9050919050565b61096e81610954565b82525050565b61097d816108d7565b82525050565b5f81519050919050565b5f82825260208201905092915050565b8281835e5f83830152505050565b5f601f19601f8301169050919050565b5f6109c582610983565b6109cf818561098d565b93506109df81856020860161099d565b6109e8816109ab565b840191505092915050565b5f606082019050610a065f830186610965565b610a136020830185610974565b8181036040830152610a2581846109bb565b9050949350505050565b5f602082019050610a425f830184610974565b92915050565b7f4e487b71000000000000000000000000000000000000000000000000000000005f52602160045260245ffd5b60038110610a8657610a85610a48565b5b50565b5f819050610a9682610a75565b919050565b5f610aa582610a89565b9050919050565b610ab581610a9b565b82525050565b5f602082019050610ace5f830184610aac565b92915050565b60038110610ae0575f80fd5b50565b5f81359050610af181610ad4565b92915050565b5f60208284031215610b0c57610b0b6108cf565b5b5f610b1984828501610ae3565b91505092915050565b5f8060408385031215610b3857610b376108cf565b5b5f610b45858286016108f6565b9250506020610b56858286016108f6565b9150509250929050565b5f80fd5b7f4e487b71000000000000000000000000000000000000000000000000000000005f52604160045260245ffd5b610b9a826109ab565b810181811067ffffffffffffffff82111715610bb957610bb8610b64565b5b80604052505050565b5f610bcb6108c6565b9050610bd78282610b91565b919050565b5f67ffffffffffffffff821115610bf657610bf5610b64565b5b602082029050602081019050919050565b5f80fd5b5f610c1d610c1884610bdc565b610bc2565b90508083825260208201905060208402830185811115610c4057610c3f610c07565b5b835b81811015610c695780610c5588826108f6565b845260208401935050602081019050610c42565b5050509392505050565b5f82601f830112610c8757610c86610b60565b5b8135610c97848260208601610c0b565b91505092915050565b5f60208284031215610cb557610cb46108cf565b5b5f82013567ffffffffffffffff811115610cd257610cd16108d3565b5b610cde84828501610c73565b91505092915050565b5f80fd5b5f67ffffffffffffffff821115610d0557610d04610b64565b5b610d0e826109ab565b9050602081019050919050565b828183375f83830152505050565b5f610d3b610d3684610ceb565b610bc2565b905082815260208101848484011115610d5757610d56610ce7565b5b610d62848285610d1b565b509392505050565b5f82601f830112610d7e57610d7d610b60565b5b8135610d8e848260208601610d29565b91505092915050565b5f60208284031215610dac57610dab6108cf565b5b5f82013567ffffffffffffffff811115610dc957610dc86108d3565b5b610dd584828501610d6a565b91505092915050565b7f4e487b71000000000000000000000000000000000000000000000000000000005f52602260045260245ffd5b5f6002820490506001821680610e2257607f821691505b602082108103610e3557610e34610dde565b5b50919050565b7f53697a65206973206e6f74206d6f7265207468616e20350000000000000000005f82015250565b5f610e6f60178361098d565b9150610e7a82610e3b565b602082019050919050565b5f6020820190508181035f830152610e9c81610e63565b9050919050565b7f4e487b71000000000000000000000000000000000000000000000000000000005f52603260045260245ffd5b7f4e756d6265722073686f756c64206265206c657373207468616e2031303000005f82015250565b5f610f04601e8361098d565b9150610f0f82610ed0565b602082019050919050565b5f6020820190508181035f830152610f3181610ef8565b9050919050565b7f4e756d6265722063616e27742062652067726561746572207468616e203130305f82015250565b5f610f6c60208361098d565b9150610f7782610f38565b602082019050919050565b5f6020820190508181035f830152610f9981610f60565b9050919050565b7f4e487b71000000000000000000000000000000000000000000000000000000005f52600160045260245ffd5b5f819050815f5260205f209050919050565b5f6020601f8301049050919050565b5f82821b905092915050565b5f600883026110297fffffffffffffffffffffffffffffffffffffffffffffffffffffffffffffffff82610fee565b6110338683610fee565b95508019841693508086168417925050509392505050565b5f819050919050565b5f61106e611069611064846108d7565b61104b565b6108d7565b9050919050565b5f819050919050565b61108783611054565b61109b61109382611075565b848454610ffa565b825550505050565b5f90565b6110af6110a3565b6110ba81848461107e565b505050565b5b818110156110dd576110d25f826110a7565b6001810190506110c0565b5050565b601f821115611122576110f381610fcd565b6110fc84610fdf565b8101602085101561110b578190505b61111f61111785610fdf565b8301826110bf565b50505b505050565b5f82821c905092915050565b5f6111425f1984600802611127565b1980831691505092915050565b5f61115a8383611133565b9150826002028217905092915050565b61117382610983565b67ffffffffffffffff81111561118c5761118b610b64565b5b6111968254610e0b565b6111a18282856110e1565b5f60209050601f8311600181146111d2575f84156111c0578287015190505b6111ca858261114f565b865550611231565b601f1984166111e086610fcd565b5f5b82811015611207578489015182556001820191506020850194506020810190506111e2565b868310156112245784890151611220601f891682611133565b8355505b6001600288020188555050505b50505050505056fea26469706673582212207a22fe937c82f7a0764bec0e3961c486df256d8dbdbceb4b33ec8da06167866464736f6c634300081a0033",
					"opcodes": "PUSH1 0x80 PUSH1 0x40 MSTORE PUSH1 0x32 PUSH1 0x1 SSTORE CALLVALUE DUP1 ISZERO PUSH1 0x13 JUMPI PUSH0 DUP1 REVERT JUMPDEST POP PUSH2 0x126F DUP1 PUSH2 0x21 PUSH0 CODECOPY PUSH0 RETURN INVALID PUSH1 0x80 PUSH1 0x40 MSTORE CALLVALUE DUP1 ISZERO PUSH2 0xF JUMPI PUSH0 DUP1 REVERT JUMPDEST POP PUSH1 0x4 CALLDATASIZE LT PUSH2 0x109 JUMPI PUSH0 CALLDATALOAD PUSH1 0xE0 SHR DUP1 PUSH4 0xC223A39E GT PUSH2 0xA0 JUMPI DUP1 PUSH4 0xDA5E1CFD GT PUSH2 0x6F JUMPI DUP1 PUSH4 0xDA5E1CFD EQ PUSH2 0x2CF JUMPI DUP1 PUSH4 0xE892264F EQ PUSH2 0x2EB JUMPI DUP1 PUSH4 0xEB0E9240 EQ PUSH2 0x307 JUMPI DUP1 PUSH4 0xF80BC664 EQ PUSH2 0x323 JUMPI DUP1 PUSH4 0xFB1669CA EQ PUSH2 0x33F JUMPI PUSH2 0x109 JUMP JUMPDEST DUP1 PUSH4 0xC223A39E EQ PUSH2 0x235 JUMPI DUP1 PUSH4 0xCC3E57D9 EQ PUSH2 0x253 JUMPI DUP1 PUSH4 0xCF3D229C EQ PUSH2 0x283 JUMPI DUP1 PUSH4 0xD6029359 EQ PUSH2 0x29F JUMPI PUSH2 0x109 JUMP JUMPDEST DUP1 PUSH4 0x3FB5C1CB GT PUSH2 0xDC JUMPI DUP1 PUSH4 0x3FB5C1CB EQ PUSH2 0x1AD JUMPI DUP1 PUSH4 0x65372147 EQ PUSH2 0x1DD JUMPI DUP1 PUSH4 0x80CE60D1 EQ PUSH2 0x1FB JUMPI DUP1 PUSH4 0x8381F58A EQ PUSH2 0x217 JUMPI PUSH2 0x109 JUMP JUMPDEST DUP1 PUSH4 0x6EAD22E EQ PUSH2 0x10D JUMPI DUP1 PUSH4 0x849CC99 EQ PUSH2 0x13F JUMPI DUP1 PUSH4 0x12399D88 EQ PUSH2 0x15D JUMPI DUP1 PUSH4 0x361A80E6 EQ PUSH2 0x18D JUMPI JUMPDEST PUSH0 DUP1 REVERT JUMPDEST PUSH2 0x127 PUSH1 0x4 DUP1 CALLDATASIZE SUB DUP2 ADD SWAP1 PUSH2 0x122 SWAP2 SWAP1 PUSH2 0x90A JUMP JUMPDEST PUSH2 0x35B JUMP JUMPDEST PUSH1 0x40 MLOAD PUSH2 0x136 SWAP4 SWAP3 SWAP2 SWAP1 PUSH2 0x9F3 JUMP JUMPDEST PUSH1 0x40 MLOAD DUP1 SWAP2 SUB SWAP1 RETURN JUMPDEST PUSH2 0x147 PUSH2 0x435 JUMP JUMPDEST PUSH1 0x40 MLOAD PUSH2 0x154 SWAP2 SWAP1 PUSH2 0xA2F JUMP JUMPDEST PUSH1 0x40 MLOAD DUP1 SWAP2 SUB SWAP1 RETURN JUMPDEST PUSH2 0x177 PUSH1 0x4 DUP1 CALLDATASIZE SUB DUP2 ADD SWAP1 PUSH2 0x172 SWAP2 SWAP1 PUSH2 0x90A JUMP JUMPDEST PUSH2 0x490 JUMP JUMPDEST PUSH1 0x40 MLOAD PUSH2 0x184 SWAP2 SWAP1 PUSH2 0xA2F JUMP JUMPDEST PUSH1 0x40 MLOAD DUP1 SWAP2 SUB SWAP1 RETURN JUMPDEST PUSH2 0x195 PUSH2 0x4A9 JUMP JUMPDEST PUSH1 0x40 MLOAD PUSH2 0x1A4 SWAP4 SWAP3 SWAP2 SWAP1 PUSH2 0x9F3 JUMP JUMPDEST PUSH1 0x40 MLOAD DUP1 SWAP2 SUB SWAP1 RETURN JUMPDEST PUSH2 0x1C7 PUSH1 0x4 DUP1 CALLDATASIZE SUB DUP2 ADD SWAP1 PUSH2 0x1C2 SWAP2 SWAP1 PUSH2 0x90A JUMP JUMPDEST PUSH2 0x565 JUMP JUMPDEST PUSH1 0x40 MLOAD PUSH2 0x1D4 SWAP2 SWAP1 PUSH2 0xA2F JUMP JUMPDEST PUSH1 0x40 MLOAD DUP1 SWAP2 SUB SWAP1 RETURN JUMPDEST PUSH2 0x1E5 PUSH2 0x5C3 JUMP JUMPDEST PUSH1 0x40 MLOAD PUSH2 0x1F2 SWAP2 SWAP1 PUSH2 0xABB JUMP JUMPDEST PUSH1 0x40 MLOAD DUP1 SWAP2 SUB SWAP1 RETURN JUMPDEST PUSH2 0x215 PUSH1 0x4 DUP1 CALLDATASIZE SUB DUP2 ADD SWAP1 PUSH2 0x210 SWAP2 SWAP1 PUSH2 0xAF7 JUMP JUMPDEST PUSH2 0x5D5 JUMP JUMPDEST STOP JUMPDEST PUSH2 0x21F PUSH2 0x601 JUMP JUMPDEST PUSH1 0x40 MLOAD PUSH2 0x22C SWAP2 SWAP1 PUSH2 0xA2F JUMP JUMPDEST PUSH1 0x40 MLOAD DUP1 SWAP2 SUB SWAP1 RETURN JUMPDEST PUSH2 0x23D PUSH2 0x606 JUMP JUMPDEST PUSH1 0x40 MLOAD PUSH2 0x24A SWAP2 SWAP1 PUSH2 0xA2F JUMP JUMPDEST PUSH1 0x40 MLOAD DUP1 SWAP2 SUB SWAP1 RETURN JUMPDEST PUSH2 0x26D PUSH1 0x4 DUP1 CALLDATASIZE SUB DUP2 ADD SWAP1 PUSH2 0x268 SWAP2 SWAP1 PUSH2 0x90A JUMP JUMPDEST PUSH2 0x60C JUMP JUMPDEST PUSH1 0x40 MLOAD PUSH2 0x27A SWAP2 SWAP1 PUSH2 0xA2F JUMP JUMPDEST PUSH1 0x40 MLOAD DUP1 SWAP2 SUB SWAP1 RETURN JUMPDEST PUSH2 0x29D PUSH1 0x4 DUP1 CALLDATASIZE SUB DUP2 ADD SWAP1 PUSH2 0x298 SWAP2 SWAP1 PUSH2 0xB22 JUMP JUMPDEST PUSH2 0x62C JUMP JUMPDEST STOP JUMPDEST PUSH2 0x2B9 PUSH1 0x4 DUP1 CALLDATASIZE SUB DUP2 ADD SWAP1 PUSH2 0x2B4 SWAP2 SWAP1 PUSH2 0x90A JUMP JUMPDEST PUSH2 0x68D JUMP JUMPDEST PUSH1 0x40 MLOAD PUSH2 0x2C6 SWAP2 SWAP1 PUSH2 0xA2F JUMP JUMPDEST PUSH1 0x40 MLOAD DUP1 SWAP2 SUB SWAP1 RETURN JUMPDEST PUSH2 0x2E9 PUSH1 0x4 DUP1 CALLDATASIZE SUB DUP2 ADD SWAP1 PUSH2 0x2E4 SWAP2 SWAP1 PUSH2 0x90A JUMP JUMPDEST PUSH2 0x6AD JUMP JUMPDEST STOP JUMPDEST PUSH2 0x305 PUSH1 0x4 DUP1 CALLDATASIZE SUB DUP2 ADD SWAP1 PUSH2 0x300 SWAP2 SWAP1 PUSH2 0xCA0 JUMP JUMPDEST PUSH2 0x6D6 JUMP JUMPDEST STOP JUMPDEST PUSH2 0x321 PUSH1 0x4 DUP1 CALLDATASIZE SUB DUP2 ADD SWAP1 PUSH2 0x31C SWAP2 SWAP1 PUSH2 0x90A JUMP JUMPDEST PUSH2 0x732 JUMP JUMPDEST STOP JUMPDEST PUSH2 0x33D PUSH1 0x4 DUP1 CALLDATASIZE SUB DUP2 ADD SWAP1 PUSH2 0x338 SWAP2 SWAP1 PUSH2 0xD97 JUMP JUMPDEST PUSH2 0x7E3 JUMP JUMPDEST STOP JUMPDEST PUSH2 0x359 PUSH1 0x4 DUP1 CALLDATASIZE SUB DUP2 ADD SWAP1 PUSH2 0x354 SWAP2 SWAP1 PUSH2 0x90A JUMP JUMPDEST PUSH2 0x881 JUMP JUMPDEST STOP JUMPDEST PUSH1 0xD DUP2 DUP2 SLOAD DUP2 LT PUSH2 0x36A JUMPI PUSH0 DUP1 REVERT JUMPDEST SWAP1 PUSH0 MSTORE PUSH1 0x20 PUSH0 KECCAK256 SWAP1 PUSH1 0x3 MUL ADD PUSH0 SWAP2 POP SWAP1 POP DUP1 PUSH0 ADD PUSH0 SWAP1 SLOAD SWAP1 PUSH2 0x100 EXP SWAP1 DIV PUSH20 0xFFFFFFFFFFFFFFFFFFFFFFFFFFFFFFFFFFFFFFFF AND SWAP1 DUP1 PUSH1 0x1 ADD SLOAD SWAP1 DUP1 PUSH1 0x2 ADD DUP1 SLOAD PUSH2 0x3B4 SWAP1 PUSH2 0xE0B JUMP JUMPDEST DUP1 PUSH1 0x1F ADD PUSH1 0x20 DUP1 SWAP2 DIV MUL PUSH1 0x20 ADD PUSH1 0x40 MLOAD SWAP1 DUP2 ADD PUSH1 0x40 MSTORE DUP1 SWAP3 SWAP2 SWAP1 DUP2 DUP2 MSTORE PUSH1 0x20 ADD DUP3 DUP1 SLOAD PUSH2 0x3E0 SWAP1 PUSH2 0xE0B JUMP JUMPDEST DUP1 ISZERO PUSH2 0x42B JUMPI DUP1 PUSH1 0x1F LT PUSH2 0x402 JUMPI PUSH2 0x100 DUP1 DUP4 SLOAD DIV MUL DUP4 MSTORE SWAP2 PUSH1 0x20 ADD SWAP2 PUSH2 0x42B JUMP JUMPDEST DUP3 ADD SWAP2 SWAP1 PUSH0 MSTORE PUSH1 0x20 PUSH0 KECCAK256 SWAP1 JUMPDEST DUP2 SLOAD DUP2 MSTORE SWAP1 PUSH1 0x1 ADD SWAP1 PUSH1 0x20 ADD DUP1 DUP4 GT PUSH2 0x40E JUMPI DUP3 SWAP1 SUB PUSH1 0x1F AND DUP3 ADD SWAP2 JUMPDEST POP POP POP POP POP SWAP1 POP DUP4 JUMP JUMPDEST PUSH0 DUP1 PUSH1 0x2 DUP1 SLOAD DUP1 PUSH1 0x20 MUL PUSH1 0x20 ADD PUSH1 0x40 MLOAD SWAP1 DUP2 ADD PUSH1 0x40 MSTORE DUP1 SWAP3 SWAP2 SWAP1 DUP2 DUP2 MSTORE PUSH1 0x20 ADD DUP3 DUP1 SLOAD DUP1 ISZERO PUSH2 0x481 JUMPI PUSH1 0x20 MUL DUP3 ADD SWAP2 SWAP1 PUSH0 MSTORE PUSH1 0x20 PUSH0 KECCAK256 SWAP1 JUMPDEST DUP2 SLOAD DUP2 MSTORE PUSH1 0x20 ADD SWAP1 PUSH1 0x1 ADD SWAP1 DUP1 DUP4 GT PUSH2 0x46D JUMPI JUMPDEST POP POP POP POP POP SWAP1 POP DUP1 MLOAD SWAP2 POP POP SWAP1 JUMP JUMPDEST PUSH1 0x4 DUP2 PUSH1 0x5 DUP2 LT PUSH2 0x49F JUMPI PUSH0 DUP1 REVERT JUMPDEST ADD PUSH0 SWAP2 POP SWAP1 POP SLOAD DUP2 JUMP JUMPDEST PUSH1 0xA DUP1 PUSH0 ADD PUSH0 SWAP1 SLOAD SWAP1 PUSH2 0x100 EXP SWAP1 DIV PUSH20 0xFFFFFFFFFFFFFFFFFFFFFFFFFFFFFFFFFFFFFFFF AND SWAP1 DUP1 PUSH1 0x1 ADD SLOAD SWAP1 DUP1 PUSH1 0x2 ADD DUP1 SLOAD PUSH2 0x4E4 SWAP1 PUSH2 0xE0B JUMP JUMPDEST DUP1 PUSH1 0x1F ADD PUSH1 0x20 DUP1 SWAP2 DIV MUL PUSH1 0x20 ADD PUSH1 0x40 MLOAD SWAP1 DUP2 ADD PUSH1 0x40 MSTORE DUP1 SWAP3 SWAP2 SWAP1 DUP2 DUP2 MSTORE PUSH1 0x20 ADD DUP3 DUP1 SLOAD PUSH2 0x510 SWAP1 PUSH2 0xE0B JUMP JUMPDEST DUP1 ISZERO PUSH2 0x55B JUMPI DUP1 PUSH1 0x1F LT PUSH2 0x532 JUMPI PUSH2 0x100 DUP1 DUP4 SLOAD DIV MUL DUP4 MSTORE SWAP2 PUSH1 0x20 ADD SWAP2 PUSH2 0x55B JUMP JUMPDEST DUP3 ADD SWAP2 SWAP1 PUSH0 MSTORE PUSH1 0x20 PUSH0 KECCAK256 SWAP1 JUMPDEST DUP2 SLOAD DUP2 MSTORE SWAP1 PUSH1 0x1 ADD SWAP1 PUSH1 0x20 ADD DUP1 DUP4 GT PUSH2 0x53E JUMPI DUP3 SWAP1 SUB PUSH1 0x1F AND DUP3 ADD SWAP2 JUMPDEST POP POP POP POP POP SWAP1 POP DUP4 JUMP JUMPDEST PUSH0 DUP2 PUSH0 DUP2 SWAP1 SSTORE POP CALLER PUSH20 0xFFFFFFFFFFFFFFFFFFFFFFFFFFFFFFFFFFFFFFFF AND PUSH32 0x7176CBFE62F9732DA66320C618FDC14FE54D86506BA31C8C58B5B4F4A9F7DD89 DUP4 PUSH1 0x40 MLOAD PUSH2 0x5B2 SWAP2 SWAP1 PUSH2 0xA2F JUMP JUMPDEST PUSH1 0x40 MLOAD DUP1 SWAP2 SUB SWAP1 LOG2 PUSH0 SLOAD SWAP1 POP SWAP2 SWAP1 POP JUMP JUMPDEST PUSH1 0xE PUSH0 SWAP1 SLOAD SWAP1 PUSH2 0x100 EXP SWAP1 DIV PUSH1 0xFF AND DUP2 JUMP JUMPDEST DUP1 PUSH1 0xE PUSH0 PUSH2 0x100 EXP DUP2 SLOAD DUP2 PUSH1 0xFF MUL NOT AND SWAP1 DUP4 PUSH1 0x2 DUP2 GT ISZERO PUSH2 0x5F9 JUMPI PUSH2 0x5F8 PUSH2 0xA48 JUMP JUMPDEST JUMPDEST MUL OR SWAP1 SSTORE POP POP JUMP JUMPDEST PUSH0 SLOAD DUP2 JUMP JUMPDEST PUSH1 0x1 SLOAD DUP2 JUMP JUMPDEST PUSH1 0x2 DUP2 DUP2 SLOAD DUP2 LT PUSH2 0x61B JUMPI PUSH0 DUP1 REVERT JUMPDEST SWAP1 PUSH0 MSTORE PUSH1 0x20 PUSH0 KECCAK256 ADD PUSH0 SWAP2 POP SWAP1 POP SLOAD DUP2 JUMP JUMPDEST PUSH1 0x5 DUP3 LT PUSH2 0x66F JUMPI PUSH1 0x40 MLOAD PUSH32 0x8C379A000000000000000000000000000000000000000000000000000000000 DUP2 MSTORE PUSH1 0x4 ADD PUSH2 0x666 SWAP1 PUSH2 0xE85 JUMP JUMPDEST PUSH1 0x40 MLOAD DUP1 SWAP2 SUB SWAP1 REVERT JUMPDEST DUP1 PUSH1 0x4 DUP4 PUSH1 0x5 DUP2 LT PUSH2 0x684 JUMPI PUSH2 0x683 PUSH2 0xEA3 JUMP JUMPDEST JUMPDEST ADD DUP2 SWAP1 SSTORE POP POP POP JUMP JUMPDEST PUSH1 0x9 DUP2 DUP2 SLOAD DUP2 LT PUSH2 0x69C JUMPI PUSH0 DUP1 REVERT JUMPDEST SWAP1 PUSH0 MSTORE PUSH1 0x20 PUSH0 KECCAK256 ADD PUSH0 SWAP2 POP SWAP1 POP SLOAD DUP2 JUMP JUMPDEST PUSH1 0x9 DUP2 SWAP1 DUP1 PUSH1 0x1 DUP2 SLOAD ADD DUP1 DUP3 SSTORE DUP1 SWAP2 POP POP PUSH1 0x1 SWAP1 SUB SWAP1 PUSH0 MSTORE PUSH1 0x20 PUSH0 KECCAK256 ADD PUSH0 SWAP1 SWAP2 SWAP1 SWAP2 SWAP1 SWAP2 POP SSTORE POP JUMP JUMPDEST PUSH0 JUMPDEST DUP2 MLOAD DUP2 LT ISZERO PUSH2 0x72E JUMPI PUSH1 0x2 DUP3 DUP3 DUP2 MLOAD DUP2 LT PUSH2 0x6F6 JUMPI PUSH2 0x6F5 PUSH2 0xEA3 JUMP JUMPDEST JUMPDEST PUSH1 0x20 MUL PUSH1 0x20 ADD ADD MLOAD SWAP1 DUP1 PUSH1 0x1 DUP2 SLOAD ADD DUP1 DUP3 SSTORE DUP1 SWAP2 POP POP PUSH1 0x1 SWAP1 SUB SWAP1 PUSH0 MSTORE PUSH1 0x20 PUSH0 KECCAK256 ADD PUSH0 SWAP1 SWAP2 SWAP1 SWAP2 SWAP1 SWAP2 POP SSTORE DUP1 DUP1 PUSH1 0x1 ADD SWAP2 POP POP PUSH2 0x6D8 JUMP JUMPDEST POP POP JUMP JUMPDEST PUSH1 0x64 PUSH0 SLOAD LT PUSH2 0x776 JUMPI PUSH1 0x40 MLOAD PUSH32 0x8C379A000000000000000000000000000000000000000000000000000000000 DUP2 MSTORE PUSH1 0x4 ADD PUSH2 0x76D SWAP1 PUSH2 0xF1A JUMP JUMPDEST PUSH1 0x40 MLOAD DUP1 SWAP2 SUB SWAP1 REVERT JUMPDEST PUSH1 0x64 PUSH0 SLOAD GT ISZERO PUSH2 0x7BB JUMPI PUSH1 0x40 MLOAD PUSH32 0x8C379A000000000000000000000000000000000000000000000000000000000 DUP2 MSTORE PUSH1 0x4 ADD PUSH2 0x7B2 SWAP1 PUSH2 0xF82 JUMP JUMPDEST PUSH1 0x40 MLOAD DUP1 SWAP2 SUB SWAP1 REVERT JUMPDEST DUP1 PUSH0 DUP2 SWAP1 SSTORE POP PUSH1 0x32 PUSH0 SLOAD GT DUP1 ISZERO PUSH2 0x7D3 JUMPI POP PUSH1 0x64 PUSH0 SLOAD LT JUMPDEST PUSH2 0x7E0 JUMPI PUSH2 0x7DF PUSH2 0xFA0 JUMP JUMPDEST JUMPDEST POP JUMP JUMPDEST PUSH1 0x40 MLOAD DUP1 PUSH1 0x60 ADD PUSH1 0x40 MSTORE DUP1 CALLER PUSH20 0xFFFFFFFFFFFFFFFFFFFFFFFFFFFFFFFFFFFFFFFF AND DUP2 MSTORE PUSH1 0x20 ADD PUSH1 0x1 DUP2 MSTORE PUSH1 0x20 ADD DUP3 DUP2 MSTORE POP PUSH1 0xA PUSH0 DUP3 ADD MLOAD DUP2 PUSH0 ADD PUSH0 PUSH2 0x100 EXP DUP2 SLOAD DUP2 PUSH20 0xFFFFFFFFFFFFFFFFFFFFFFFFFFFFFFFFFFFFFFFF MUL NOT AND SWAP1 DUP4 PUSH20 0xFFFFFFFFFFFFFFFFFFFFFFFFFFFFFFFFFFFFFFFF AND MUL OR SWAP1 SSTORE POP PUSH1 0x20 DUP3 ADD MLOAD DUP2 PUSH1 0x1 ADD SSTORE PUSH1 0x40 DUP3 ADD MLOAD DUP2 PUSH1 0x2 ADD SWAP1 DUP2 PUSH2 0x87A SWAP2 SWAP1 PUSH2 0x116A JUMP JUMPDEST POP SWAP1 POP POP POP JUMP JUMPDEST DUP1 PUSH1 0x3 PUSH0 CALLER PUSH20 0xFFFFFFFFFFFFFFFFFFFFFFFFFFFFFFFFFFFFFFFF AND PUSH20 0xFFFFFFFFFFFFFFFFFFFFFFFFFFFFFFFFFFFFFFFF AND DUP2 MSTORE PUSH1 0x20 ADD SWAP1 DUP2 MSTORE PUSH1 0x20 ADD PUSH0 KECCAK256 DUP2 SWAP1 SSTORE POP POP JUMP JUMPDEST PUSH0 PUSH1 0x40 MLOAD SWAP1 POP SWAP1 JUMP JUMPDEST PUSH0 DUP1 REVERT JUMPDEST PUSH0 DUP1 REVERT JUMPDEST PUSH0 DUP2 SWAP1 POP SWAP2 SWAP1 POP JUMP JUMPDEST PUSH2 0x8E9 DUP2 PUSH2 0x8D7 JUMP JUMPDEST DUP2 EQ PUSH2 0x8F3 JUMPI PUSH0 DUP1 REVERT JUMPDEST POP JUMP JUMPDEST PUSH0 DUP2 CALLDATALOAD SWAP1 POP PUSH2 0x904 DUP2 PUSH2 0x8E0 JUMP JUMPDEST SWAP3 SWAP2 POP POP JUMP JUMPDEST PUSH0 PUSH1 0x20 DUP3 DUP5 SUB SLT ISZERO PUSH2 0x91F JUMPI PUSH2 0x91E PUSH2 0x8CF JUMP JUMPDEST JUMPDEST PUSH0 PUSH2 0x92C DUP5 DUP3 DUP6 ADD PUSH2 0x8F6 JUMP JUMPDEST SWAP2 POP POP SWAP3 SWAP2 POP POP JUMP JUMPDEST PUSH0 PUSH20 0xFFFFFFFFFFFFFFFFFFFFFFFFFFFFFFFFFFFFFFFF DUP3 AND SWAP1 POP SWAP2 SWAP1 POP JUMP JUMPDEST PUSH0 PUSH2 0x95E DUP3 PUSH2 0x935 JUMP JUMPDEST SWAP1 POP SWAP2 SWAP1 POP JUMP JUMPDEST PUSH2 0x96E DUP2 PUSH2 0x954 JUMP JUMPDEST DUP3 MSTORE POP POP JUMP JUMPDEST PUSH2 0x97D DUP2 PUSH2 0x8D7 JUMP JUMPDEST DUP3 MSTORE POP POP JUMP JUMPDEST PUSH0 DUP2 MLOAD SWAP1 POP SWAP2 SWAP1 POP JUMP JUMPDEST PUSH0 DUP3 DUP3 MSTORE PUSH1 0x20 DUP3 ADD SWAP1 POP SWAP3 SWAP2 POP POP JUMP JUMPDEST DUP3 DUP2 DUP4 MCOPY PUSH0 DUP4 DUP4 ADD MSTORE POP POP POP JUMP JUMPDEST PUSH0 PUSH1 0x1F NOT PUSH1 0x1F DUP4 ADD AND SWAP1 POP SWAP2 SWAP1 POP JUMP JUMPDEST PUSH0 PUSH2 0x9C5 DUP3 PUSH2 0x983 JUMP JUMPDEST PUSH2 0x9CF DUP2 DUP6 PUSH2 0x98D JUMP JUMPDEST SWAP4 POP PUSH2 0x9DF DUP2 DUP6 PUSH1 0x20 DUP7 ADD PUSH2 0x99D JUMP JUMPDEST PUSH2 0x9E8 DUP2 PUSH2 0x9AB JUMP JUMPDEST DUP5 ADD SWAP2 POP POP SWAP3 SWAP2 POP POP JUMP JUMPDEST PUSH0 PUSH1 0x60 DUP3 ADD SWAP1 POP PUSH2 0xA06 PUSH0 DUP4 ADD DUP7 PUSH2 0x965 JUMP JUMPDEST PUSH2 0xA13 PUSH1 0x20 DUP4 ADD DUP6 PUSH2 0x974 JUMP JUMPDEST DUP2 DUP2 SUB PUSH1 0x40 DUP4 ADD MSTORE PUSH2 0xA25 DUP2 DUP5 PUSH2 0x9BB JUMP JUMPDEST SWAP1 POP SWAP5 SWAP4 POP POP POP POP JUMP JUMPDEST PUSH0 PUSH1 0x20 DUP3 ADD SWAP1 POP PUSH2 0xA42 PUSH0 DUP4 ADD DUP5 PUSH2 0x974 JUMP JUMPDEST SWAP3 SWAP2 POP POP JUMP JUMPDEST PUSH32 0x4E487B7100000000000000000000000000000000000000000000000000000000 PUSH0 MSTORE PUSH1 0x21 PUSH1 0x4 MSTORE PUSH1 0x24 PUSH0 REVERT JUMPDEST PUSH1 0x3 DUP2 LT PUSH2 0xA86 JUMPI PUSH2 0xA85 PUSH2 0xA48 JUMP JUMPDEST JUMPDEST POP JUMP JUMPDEST PUSH0 DUP2 SWAP1 POP PUSH2 0xA96 DUP3 PUSH2 0xA75 JUMP JUMPDEST SWAP2 SWAP1 POP JUMP JUMPDEST PUSH0 PUSH2 0xAA5 DUP3 PUSH2 0xA89 JUMP JUMPDEST SWAP1 POP SWAP2 SWAP1 POP JUMP JUMPDEST PUSH2 0xAB5 DUP2 PUSH2 0xA9B JUMP JUMPDEST DUP3 MSTORE POP POP JUMP JUMPDEST PUSH0 PUSH1 0x20 DUP3 ADD SWAP1 POP PUSH2 0xACE PUSH0 DUP4 ADD DUP5 PUSH2 0xAAC JUMP JUMPDEST SWAP3 SWAP2 POP POP JUMP JUMPDEST PUSH1 0x3 DUP2 LT PUSH2 0xAE0 JUMPI PUSH0 DUP1 REVERT JUMPDEST POP JUMP JUMPDEST PUSH0 DUP2 CALLDATALOAD SWAP1 POP PUSH2 0xAF1 DUP2 PUSH2 0xAD4 JUMP JUMPDEST SWAP3 SWAP2 POP POP JUMP JUMPDEST PUSH0 PUSH1 0x20 DUP3 DUP5 SUB SLT ISZERO PUSH2 0xB0C JUMPI PUSH2 0xB0B PUSH2 0x8CF JUMP JUMPDEST JUMPDEST PUSH0 PUSH2 0xB19 DUP5 DUP3 DUP6 ADD PUSH2 0xAE3 JUMP JUMPDEST SWAP2 POP POP SWAP3 SWAP2 POP POP JUMP JUMPDEST PUSH0 DUP1 PUSH1 0x40 DUP4 DUP6 SUB SLT ISZERO PUSH2 0xB38 JUMPI PUSH2 0xB37 PUSH2 0x8CF JUMP JUMPDEST JUMPDEST PUSH0 PUSH2 0xB45 DUP6 DUP3 DUP7 ADD PUSH2 0x8F6 JUMP JUMPDEST SWAP3 POP POP PUSH1 0x20 PUSH2 0xB56 DUP6 DUP3 DUP7 ADD PUSH2 0x8F6 JUMP JUMPDEST SWAP2 POP POP SWAP3 POP SWAP3 SWAP1 POP JUMP JUMPDEST PUSH0 DUP1 REVERT JUMPDEST PUSH32 0x4E487B7100000000000000000000000000000000000000000000000000000000 PUSH0 MSTORE PUSH1 0x41 PUSH1 0x4 MSTORE PUSH1 0x24 PUSH0 REVERT JUMPDEST PUSH2 0xB9A DUP3 PUSH2 0x9AB JUMP JUMPDEST DUP2 ADD DUP2 DUP2 LT PUSH8 0xFFFFFFFFFFFFFFFF DUP3 GT OR ISZERO PUSH2 0xBB9 JUMPI PUSH2 0xBB8 PUSH2 0xB64 JUMP JUMPDEST JUMPDEST DUP1 PUSH1 0x40 MSTORE POP POP POP JUMP JUMPDEST PUSH0 PUSH2 0xBCB PUSH2 0x8C6 JUMP JUMPDEST SWAP1 POP PUSH2 0xBD7 DUP3 DUP3 PUSH2 0xB91 JUMP JUMPDEST SWAP2 SWAP1 POP JUMP JUMPDEST PUSH0 PUSH8 0xFFFFFFFFFFFFFFFF DUP3 GT ISZERO PUSH2 0xBF6 JUMPI PUSH2 0xBF5 PUSH2 0xB64 JUMP JUMPDEST JUMPDEST PUSH1 0x20 DUP3 MUL SWAP1 POP PUSH1 0x20 DUP2 ADD SWAP1 POP SWAP2 SWAP1 POP JUMP JUMPDEST PUSH0 DUP1 REVERT JUMPDEST PUSH0 PUSH2 0xC1D PUSH2 0xC18 DUP5 PUSH2 0xBDC JUMP JUMPDEST PUSH2 0xBC2 JUMP JUMPDEST SWAP1 POP DUP1 DUP4 DUP3 MSTORE PUSH1 0x20 DUP3 ADD SWAP1 POP PUSH1 0x20 DUP5 MUL DUP4 ADD DUP6 DUP2 GT ISZERO PUSH2 0xC40 JUMPI PUSH2 0xC3F PUSH2 0xC07 JUMP JUMPDEST JUMPDEST DUP4 JUMPDEST DUP2 DUP2 LT ISZERO PUSH2 0xC69 JUMPI DUP1 PUSH2 0xC55 DUP9 DUP3 PUSH2 0x8F6 JUMP JUMPDEST DUP5 MSTORE PUSH1 0x20 DUP5 ADD SWAP4 POP POP PUSH1 0x20 DUP2 ADD SWAP1 POP PUSH2 0xC42 JUMP JUMPDEST POP POP POP SWAP4 SWAP3 POP POP POP JUMP JUMPDEST PUSH0 DUP3 PUSH1 0x1F DUP4 ADD SLT PUSH2 0xC87 JUMPI PUSH2 0xC86 PUSH2 0xB60 JUMP JUMPDEST JUMPDEST DUP2 CALLDATALOAD PUSH2 0xC97 DUP5 DUP3 PUSH1 0x20 DUP7 ADD PUSH2 0xC0B JUMP JUMPDEST SWAP2 POP POP SWAP3 SWAP2 POP POP JUMP JUMPDEST PUSH0 PUSH1 0x20 DUP3 DUP5 SUB SLT ISZERO PUSH2 0xCB5 JUMPI PUSH2 0xCB4 PUSH2 0x8CF JUMP JUMPDEST JUMPDEST PUSH0 DUP3 ADD CALLDATALOAD PUSH8 0xFFFFFFFFFFFFFFFF DUP2 GT ISZERO PUSH2 0xCD2 JUMPI PUSH2 0xCD1 PUSH2 0x8D3 JUMP JUMPDEST JUMPDEST PUSH2 0xCDE DUP5 DUP3 DUP6 ADD PUSH2 0xC73 JUMP JUMPDEST SWAP2 POP POP SWAP3 SWAP2 POP POP JUMP JUMPDEST PUSH0 DUP1 REVERT JUMPDEST PUSH0 PUSH8 0xFFFFFFFFFFFFFFFF DUP3 GT ISZERO PUSH2 0xD05 JUMPI PUSH2 0xD04 PUSH2 0xB64 JUMP JUMPDEST JUMPDEST PUSH2 0xD0E DUP3 PUSH2 0x9AB JUMP JUMPDEST SWAP1 POP PUSH1 0x20 DUP2 ADD SWAP1 POP SWAP2 SWAP1 POP JUMP JUMPDEST DUP3 DUP2 DUP4 CALLDATACOPY PUSH0 DUP4 DUP4 ADD MSTORE POP POP POP JUMP JUMPDEST PUSH0 PUSH2 0xD3B PUSH2 0xD36 DUP5 PUSH2 0xCEB JUMP JUMPDEST PUSH2 0xBC2 JUMP JUMPDEST SWAP1 POP DUP3 DUP2 MSTORE PUSH1 0x20 DUP2 ADD DUP5 DUP5 DUP5 ADD GT ISZERO PUSH2 0xD57 JUMPI PUSH2 0xD56 PUSH2 0xCE7 JUMP JUMPDEST JUMPDEST PUSH2 0xD62 DUP5 DUP3 DUP6 PUSH2 0xD1B JUMP JUMPDEST POP SWAP4 SWAP3 POP POP POP JUMP JUMPDEST PUSH0 DUP3 PUSH1 0x1F DUP4 ADD SLT PUSH2 0xD7E JUMPI PUSH2 0xD7D PUSH2 0xB60 JUMP JUMPDEST JUMPDEST DUP2 CALLDATALOAD PUSH2 0xD8E DUP5 DUP3 PUSH1 0x20 DUP7 ADD PUSH2 0xD29 JUMP JUMPDEST SWAP2 POP POP SWAP3 SWAP2 POP POP JUMP JUMPDEST PUSH0 PUSH1 0x20 DUP3 DUP5 SUB SLT ISZERO PUSH2 0xDAC JUMPI PUSH2 0xDAB PUSH2 0x8CF JUMP JUMPDEST JUMPDEST PUSH0 DUP3 ADD CALLDATALOAD PUSH8 0xFFFFFFFFFFFFFFFF DUP2 GT ISZERO PUSH2 0xDC9 JUMPI PUSH2 0xDC8 PUSH2 0x8D3 JUMP JUMPDEST JUMPDEST PUSH2 0xDD5 DUP5 DUP3 DUP6 ADD PUSH2 0xD6A JUMP JUMPDEST SWAP2 POP POP SWAP3 SWAP2 POP POP JUMP JUMPDEST PUSH32 0x4E487B7100000000000000000000000000000000000000000000000000000000 PUSH0 MSTORE PUSH1 0x22 PUSH1 0x4 MSTORE PUSH1 0x24 PUSH0 REVERT JUMPDEST PUSH0 PUSH1 0x2 DUP3 DIV SWAP1 POP PUSH1 0x1 DUP3 AND DUP1 PUSH2 0xE22 JUMPI PUSH1 0x7F DUP3 AND SWAP2 POP JUMPDEST PUSH1 0x20 DUP3 LT DUP2 SUB PUSH2 0xE35 JUMPI PUSH2 0xE34 PUSH2 0xDDE JUMP JUMPDEST JUMPDEST POP SWAP2 SWAP1 POP JUMP JUMPDEST PUSH32 0x53697A65206973206E6F74206D6F7265207468616E2035000000000000000000 PUSH0 DUP3 ADD MSTORE POP JUMP JUMPDEST PUSH0 PUSH2 0xE6F PUSH1 0x17 DUP4 PUSH2 0x98D JUMP JUMPDEST SWAP2 POP PUSH2 0xE7A DUP3 PUSH2 0xE3B JUMP JUMPDEST PUSH1 0x20 DUP3 ADD SWAP1 POP SWAP2 SWAP1 POP JUMP JUMPDEST PUSH0 PUSH1 0x20 DUP3 ADD SWAP1 POP DUP2 DUP2 SUB PUSH0 DUP4 ADD MSTORE PUSH2 0xE9C DUP2 PUSH2 0xE63 JUMP JUMPDEST SWAP1 POP SWAP2 SWAP1 POP JUMP JUMPDEST PUSH32 0x4E487B7100000000000000000000000000000000000000000000000000000000 PUSH0 MSTORE PUSH1 0x32 PUSH1 0x4 MSTORE PUSH1 0x24 PUSH0 REVERT JUMPDEST PUSH32 0x4E756D6265722073686F756C64206265206C657373207468616E203130300000 PUSH0 DUP3 ADD MSTORE POP JUMP JUMPDEST PUSH0 PUSH2 0xF04 PUSH1 0x1E DUP4 PUSH2 0x98D JUMP JUMPDEST SWAP2 POP PUSH2 0xF0F DUP3 PUSH2 0xED0 JUMP JUMPDEST PUSH1 0x20 DUP3 ADD SWAP1 POP SWAP2 SWAP1 POP JUMP JUMPDEST PUSH0 PUSH1 0x20 DUP3 ADD SWAP1 POP DUP2 DUP2 SUB PUSH0 DUP4 ADD MSTORE PUSH2 0xF31 DUP2 PUSH2 0xEF8 JUMP JUMPDEST SWAP1 POP SWAP2 SWAP1 POP JUMP JUMPDEST PUSH32 0x4E756D6265722063616E27742062652067726561746572207468616E20313030 PUSH0 DUP3 ADD MSTORE POP JUMP JUMPDEST PUSH0 PUSH2 0xF6C PUSH1 0x20 DUP4 PUSH2 0x98D JUMP JUMPDEST SWAP2 POP PUSH2 0xF77 DUP3 PUSH2 0xF38 JUMP JUMPDEST PUSH1 0x20 DUP3 ADD SWAP1 POP SWAP2 SWAP1 POP JUMP JUMPDEST PUSH0 PUSH1 0x20 DUP3 ADD SWAP1 POP DUP2 DUP2 SUB PUSH0 DUP4 ADD MSTORE PUSH2 0xF99 DUP2 PUSH2 0xF60 JUMP JUMPDEST SWAP1 POP SWAP2 SWAP1 POP JUMP JUMPDEST PUSH32 0x4E487B7100000000000000000000000000000000000000000000000000000000 PUSH0 MSTORE PUSH1 0x1 PUSH1 0x4 MSTORE PUSH1 0x24 PUSH0 REVERT JUMPDEST PUSH0 DUP2 SWAP1 POP DUP2 PUSH0 MSTORE PUSH1 0x20 PUSH0 KECCAK256 SWAP1 POP SWAP2 SWAP1 POP JUMP JUMPDEST PUSH0 PUSH1 0x20 PUSH1 0x1F DUP4 ADD DIV SWAP1 POP SWAP2 SWAP1 POP JUMP JUMPDEST PUSH0 DUP3 DUP3 SHL SWAP1 POP SWAP3 SWAP2 POP POP JUMP JUMPDEST PUSH0 PUSH1 0x8 DUP4 MUL PUSH2 0x1029 PUSH32 0xFFFFFFFFFFFFFFFFFFFFFFFFFFFFFFFFFFFFFFFFFFFFFFFFFFFFFFFFFFFFFFFF DUP3 PUSH2 0xFEE JUMP JUMPDEST PUSH2 0x1033 DUP7 DUP4 PUSH2 0xFEE JUMP JUMPDEST SWAP6 POP DUP1 NOT DUP5 AND SWAP4 POP DUP1 DUP7 AND DUP5 OR SWAP3 POP POP POP SWAP4 SWAP3 POP POP POP JUMP JUMPDEST PUSH0 DUP2 SWAP1 POP SWAP2 SWAP1 POP JUMP JUMPDEST PUSH0 PUSH2 0x106E PUSH2 0x1069 PUSH2 0x1064 DUP5 PUSH2 0x8D7 JUMP JUMPDEST PUSH2 0x104B JUMP JUMPDEST PUSH2 0x8D7 JUMP JUMPDEST SWAP1 POP SWAP2 SWAP1 POP JUMP JUMPDEST PUSH0 DUP2 SWAP1 POP SWAP2 SWAP1 POP JUMP JUMPDEST PUSH2 0x1087 DUP4 PUSH2 0x1054 JUMP JUMPDEST PUSH2 0x109B PUSH2 0x1093 DUP3 PUSH2 0x1075 JUMP JUMPDEST DUP5 DUP5 SLOAD PUSH2 0xFFA JUMP JUMPDEST DUP3 SSTORE POP POP POP POP JUMP JUMPDEST PUSH0 SWAP1 JUMP JUMPDEST PUSH2 0x10AF PUSH2 0x10A3 JUMP JUMPDEST PUSH2 0x10BA DUP2 DUP5 DUP5 PUSH2 0x107E JUMP JUMPDEST POP POP POP JUMP JUMPDEST JUMPDEST DUP2 DUP2 LT ISZERO PUSH2 0x10DD JUMPI PUSH2 0x10D2 PUSH0 DUP3 PUSH2 0x10A7 JUMP JUMPDEST PUSH1 0x1 DUP2 ADD SWAP1 POP PUSH2 0x10C0 JUMP JUMPDEST POP POP JUMP JUMPDEST PUSH1 0x1F DUP3 GT ISZERO PUSH2 0x1122 JUMPI PUSH2 0x10F3 DUP2 PUSH2 0xFCD JUMP JUMPDEST PUSH2 0x10FC DUP5 PUSH2 0xFDF JUMP JUMPDEST DUP2 ADD PUSH1 0x20 DUP6 LT ISZERO PUSH2 0x110B JUMPI DUP2 SWAP1 POP JUMPDEST PUSH2 0x111F PUSH2 0x1117 DUP6 PUSH2 0xFDF JUMP JUMPDEST DUP4 ADD DUP3 PUSH2 0x10BF JUMP JUMPDEST POP POP JUMPDEST POP POP POP JUMP JUMPDEST PUSH0 DUP3 DUP3 SHR SWAP1 POP SWAP3 SWAP2 POP POP JUMP JUMPDEST PUSH0 PUSH2 0x1142 PUSH0 NOT DUP5 PUSH1 0x8 MUL PUSH2 0x1127 JUMP JUMPDEST NOT DUP1 DUP4 AND SWAP2 POP POP SWAP3 SWAP2 POP POP JUMP JUMPDEST PUSH0 PUSH2 0x115A DUP4 DUP4 PUSH2 0x1133 JUMP JUMPDEST SWAP2 POP DUP3 PUSH1 0x2 MUL DUP3 OR SWAP1 POP SWAP3 SWAP2 POP POP JUMP JUMPDEST PUSH2 0x1173 DUP3 PUSH2 0x983 JUMP JUMPDEST PUSH8 0xFFFFFFFFFFFFFFFF DUP2 GT ISZERO PUSH2 0x118C JUMPI PUSH2 0x118B PUSH2 0xB64 JUMP JUMPDEST JUMPDEST PUSH2 0x1196 DUP3 SLOAD PUSH2 0xE0B JUMP JUMPDEST PUSH2 0x11A1 DUP3 DUP3 DUP6 PUSH2 0x10E1 JUMP JUMPDEST PUSH0 PUSH1 0x20 SWAP1 POP PUSH1 0x1F DUP4 GT PUSH1 0x1 DUP2 EQ PUSH2 0x11D2 JUMPI PUSH0 DUP5 ISZERO PUSH2 0x11C0 JUMPI DUP3 DUP8 ADD MLOAD SWAP1 POP JUMPDEST PUSH2 0x11CA DUP6 DUP3 PUSH2 0x114F JUMP JUMPDEST DUP7 SSTORE POP PUSH2 0x1231 JUMP JUMPDEST PUSH1 0x1F NOT DUP5 AND PUSH2 0x11E0 DUP7 PUSH2 0xFCD JUMP JUMPDEST PUSH0 JUMPDEST DUP3 DUP2 LT ISZERO PUSH2 0x1207 JUMPI DUP5 DUP10 ADD MLOAD DUP3 SSTORE PUSH1 0x1 DUP3 ADD SWAP2 POP PUSH1 0x20 DUP6 ADD SWAP5 POP PUSH1 0x20 DUP2 ADD SWAP1 POP PUSH2 0x11E2 JUMP JUMPDEST DUP7 DUP4 LT ISZERO PUSH2 0x1224 JUMPI DUP5 DUP10 ADD MLOAD PUSH2 0x1220 PUSH1 0x1F DUP10 AND DUP3 PUSH2 0x1133 JUMP JUMPDEST DUP4 SSTORE POP JUMPDEST PUSH1 0x1 PUSH1 0x2 DUP9 MUL ADD DUP9 SSTORE POP POP POP JUMPDEST POP POP POP POP POP POP JUMP INVALID LOG2 PUSH5 0x6970667358 0x22 SLT KECCAK256 PUSH27 0x22FE937C82F7A0764BEC0E3961C486DF256D8DBDBCEB4B33EC8DA0 PUSH2 0x6786 PUSH5 0x64736F6C63 NUMBER STOP ADDMOD BYTE STOP CALLER "
				},
				"gasEstimates": {
					"creation": {
						"codeDepositCost": "943800",
						"executionCost": "23085",
						"totalCost": "966885"
					},
					"external": {
						"addToArray(uint256[])": "infinite",
						"addToDynamicArray(uint256)": "46843",
						"checkNumber(uint256)": "31104",
						"createStudent(string)": "infinite",
						"dynamicSizeArray(uint256)": "infinite",
						"fixedSizeArray(uint256)": "infinite",
						"getArrayLength()": "infinite",
						"myArray(uint256)": "infinite",
						"number()": "2513",
						"number1()": "2448",
						"result()": "2599",
						"setBalance(uint256)": "22712",
						"setNumber(uint256)": "infinite",
						"setResult(uint8)": "24712",
						"student1()": "infinite",
						"students(uint256)": "infinite",
						"updateFixedArray(uint256,uint256)": "infinite"
					}
				},
				"methodIdentifiers": {
					"addToArray(uint256[])": "e892264f",
					"addToDynamicArray(uint256)": "da5e1cfd",
					"checkNumber(uint256)": "eb0e9240",
					"createStudent(string)": "f80bc664",
					"dynamicSizeArray(uint256)": "d6029359",
					"fixedSizeArray(uint256)": "12399d88",
					"getArrayLength()": "0849cc99",
					"myArray(uint256)": "cc3e57d9",
					"number()": "8381f58a",
					"number1()": "c223a39e",
					"result()": "65372147",
					"setBalance(uint256)": "fb1669ca",
					"setNumber(uint256)": "3fb5c1cb",
					"setResult(uint8)": "80ce60d1",
					"student1()": "361a80e6",
					"students(uint256)": "06ead22e",
					"updateFixedArray(uint256,uint256)": "cf3d229c"
				}
			},
			"storageLayout": {
				"storage": [
					{
						"astId": 3,
						"contract": "contracts/Advanced.sol:Advanced",
						"label": "number",
						"offset": 0,
						"slot": "0",
						"type": "t_uint256"
					},
					{
						"astId": 32,
						"contract": "contracts/Advanced.sol:Advanced",
						"label": "number1",
						"offset": 0,
						"slot": "1",
						"type": "t_uint256"
					},
					{
						"astId": 71,
						"contract": "contracts/Advanced.sol:Advanced",
						"label": "myArray",
						"offset": 0,
						"slot": "2",
						"type": "t_array(t_uint256)dyn_storage"
					},
					{
						"astId": 119,
						"contract": "contracts/Advanced.sol:Advanced",
						"label": "balances",
						"offset": 0,
						"slot": "3",
						"type": "t_mapping(t_address,t_uint256)"
					},
					{
						"astId": 136,
						"contract": "contracts/Advanced.sol:Advanced",
						"label": "fixedSizeArray",
						"offset": 0,
						"slot": "4",
						"type": "t_array(t_uint256)5_storage"
					},
					{
						"astId": 139,
						"contract": "contracts/Advanced.sol:Advanced",
						"label": "dynamicSizeArray",
						"offset": 0,
						"slot": "9",
						"type": "t_array(t_uint256)dyn_storage"
					},
					{
						"astId": 182,
						"contract": "contracts/Advanced.sol:Advanced",
						"label": "student1",
						"offset": 0,
						"slot": "10",
						"type": "t_struct(Student)179_storage"
					},
					{
						"astId": 186,
						"contract": "contracts/Advanced.sol:Advanced",
						"label": "students",
						"offset": 0,
						"slot": "13",
						"type": "t_array(t_struct(Student)179_storage)dyn_storage"
					},
					{
						"astId": 208,
						"contract": "contracts/Advanced.sol:Advanced",
						"label": "result",
						"offset": 0,
						"slot": "14",
						"type": "t_enum(Result)205"
					}
				],
				"types": {
					"t_address": {
						"encoding": "inplace",
						"label": "address",
						"numberOfBytes": "20"
					},
					"t_array(t_struct(Student)179_storage)dyn_storage": {
						"base": "t_struct(Student)179_storage",
						"encoding": "dynamic_array",
						"label": "struct Advanced.Student[]",
						"numberOfBytes": "32"
					},
					"t_array(t_uint256)5_storage": {
						"base": "t_uint256",
						"encoding": "inplace",
						"label": "uint256[5]",
						"numberOfBytes": "160"
					},
					"t_array(t_uint256)dyn_storage": {
						"base": "t_uint256",
						"encoding": "dynamic_array",
						"label": "uint256[]",
						"numberOfBytes": "32"
					},
					"t_enum(Result)205": {
						"encoding": "inplace",
						"label": "enum Advanced.Result",
						"numberOfBytes": "1"
					},
					"t_mapping(t_address,t_uint256)": {
						"encoding": "mapping",
						"key": "t_address",
						"label": "mapping(address => uint256)",
						"numberOfBytes": "32",
						"value": "t_uint256"
					},
					"t_string_storage": {
						"encoding": "bytes",
						"label": "string",
						"numberOfBytes": "32"
					},
					"t_struct(Student)179_storage": {
						"encoding": "inplace",
						"label": "struct Advanced.Student",
						"members": [
							{
								"astId": 174,
								"contract": "contracts/Advanced.sol:Advanced",
								"label": "studentAddress",
								"offset": 0,
								"slot": "0",
								"type": "t_address"
							},
							{
								"astId": 176,
								"contract": "contracts/Advanced.sol:Advanced",
								"label": "studentBalance",
								"offset": 0,
								"slot": "1",
								"type": "t_uint256"
							},
							{
								"astId": 178,
								"contract": "contracts/Advanced.sol:Advanced",
								"label": "name",
								"offset": 0,
								"slot": "2",
								"type": "t_string_storage"
							}
						],
						"numberOfBytes": "96"
					},
					"t_uint256": {
						"encoding": "inplace",
						"label": "uint256",
						"numberOfBytes": "32"
					}
				}
			},
			"userdoc": {
				"kind": "user",
				"methods": {},
				"version": 1
			}
		}
	}
}