{
	"contracts/Marketplace.sol": {
		"Marketplace": {
			"abi": [
				{
					"inputs": [
						{
							"internalType": "uint256",
							"name": "_itemId",
							"type": "uint256"
						}
					],
					"name": "buyItem",
					"outputs": [],
					"stateMutability": "payable",
					"type": "function"
				},
				{
					"inputs": [
						{
							"internalType": "address",
							"name": "_owner",
							"type": "address"
						}
					],
					"name": "getItemsByOwner",
					"outputs": [
						{
							"internalType": "uint256[]",
							"name": "",
							"type": "uint256[]"
						}
					],
					"stateMutability": "view",
					"type": "function"
				},
				{
					"inputs": [],
					"name": "itemCount",
					"outputs": [
						{
							"internalType": "uint256",
							"name": "",
							"type": "uint256"
						}
					],
					"stateMutability": "view",
					"type": "function"
				},
				{
					"inputs": [
						{
							"internalType": "string",
							"name": "_name",
							"type": "string"
						},
						{
							"internalType": "uint256",
							"name": "_itemPrice",
							"type": "uint256"
						}
					],
					"name": "listItem",
					"outputs": [],
					"stateMutability": "nonpayable",
					"type": "function"
				},
				{
					"inputs": [
						{
							"internalType": "address",
							"name": "",
							"type": "address"
						},
						{
							"internalType": "uint256",
							"name": "",
							"type": "uint256"
						}
					],
					"name": "ownedItems",
					"outputs": [
						{
							"internalType": "uint256",
							"name": "",
							"type": "uint256"
						}
					],
					"stateMutability": "view",
					"type": "function"
				},
				{
					"inputs": [
						{
							"internalType": "uint256",
							"name": "_id",
							"type": "uint256"
						},
						{
							"internalType": "address",
							"name": "_to",
							"type": "address"
						}
					],
					"name": "transferItem",
					"outputs": [],
					"stateMutability": "nonpayable",
					"type": "function"
				}
			],
			"devdoc": {
				"kind": "dev",
				"methods": {},
				"version": 1
			},
			"evm": {
				"assembly": "    /* \"contracts/Marketplace.sol\":61:2350  contract Marketplace{... */\n  mstore(0x40, 0x80)\n    /* \"contracts/Marketplace.sol\":283:284  0 */\n  0x00\n    /* \"contracts/Marketplace.sol\":259:284  uint public itemCount = 0 */\n  dup1\n  sstore\n    /* \"contracts/Marketplace.sol\":61:2350  contract Marketplace{... */\n  callvalue\n  dup1\n  iszero\n  tag_1\n  jumpi\n  0x00\n  dup1\n  revert\ntag_1:\n  pop\n  dataSize(sub_0)\n  dup1\n  dataOffset(sub_0)\n  0x00\n  codecopy\n  0x00\n  return\nstop\n\nsub_0: assembly {\n        /* \"contracts/Marketplace.sol\":61:2350  contract Marketplace{... */\n      mstore(0x40, 0x80)\n      jumpi(tag_1, lt(calldatasize, 0x04))\n      shr(0xe0, calldataload(0x00))\n      dup1\n      0x2c67a8e5\n      eq\n      tag_2\n      jumpi\n      dup1\n      0x42846534\n      eq\n      tag_3\n      jumpi\n      dup1\n      0x6bfb0d01\n      eq\n      tag_4\n      jumpi\n      dup1\n      0x8511c937\n      eq\n      tag_5\n      jumpi\n      dup1\n      0xa4229101\n      eq\n      tag_6\n      jumpi\n      dup1\n      0xe7fb74c7\n      eq\n      tag_7\n      jumpi\n    tag_1:\n      0x00\n      dup1\n      revert\n        /* \"contracts/Marketplace.sol\":2225:2345  function getItemsByOwner(address _owner) public view returns(uint[] memory) {... */\n    tag_2:\n      callvalue\n      dup1\n      iszero\n      tag_8\n      jumpi\n      0x00\n      dup1\n      revert\n    tag_8:\n      pop\n      tag_9\n      0x04\n      dup1\n      calldatasize\n      sub\n      dup2\n      add\n      swap1\n      tag_10\n      swap2\n      swap1\n      tag_11\n      jump\t// in\n    tag_10:\n      tag_12\n      jump\t// in\n    tag_9:\n      mload(0x40)\n      tag_13\n      swap2\n      swap1\n      tag_14\n      jump\t// in\n    tag_13:\n      mload(0x40)\n      dup1\n      swap2\n      sub\n      swap1\n      return\n        /* \"contracts/Marketplace.sol\":333:377  mapping(address => uint[]) public ownedItems */\n    tag_3:\n      callvalue\n      dup1\n      iszero\n      tag_15\n      jumpi\n      0x00\n      dup1\n      revert\n    tag_15:\n      pop\n      tag_16\n      0x04\n      dup1\n      calldatasize\n      sub\n      dup2\n      add\n      swap1\n      tag_17\n      swap2\n      swap1\n      tag_18\n      jump\t// in\n    tag_17:\n      tag_19\n      jump\t// in\n    tag_16:\n      mload(0x40)\n      tag_20\n      swap2\n      swap1\n      tag_21\n      jump\t// in\n    tag_20:\n      mload(0x40)\n      dup1\n      swap2\n      sub\n      swap1\n      return\n        /* \"contracts/Marketplace.sol\":259:284  uint public itemCount = 0 */\n    tag_4:\n      callvalue\n      dup1\n      iszero\n      tag_22\n      jumpi\n      0x00\n      dup1\n      revert\n    tag_22:\n      pop\n      tag_23\n      tag_24\n      jump\t// in\n    tag_23:\n      mload(0x40)\n      tag_25\n      swap2\n      swap1\n      tag_21\n      jump\t// in\n    tag_25:\n      mload(0x40)\n      dup1\n      swap2\n      sub\n      swap1\n      return\n        /* \"contracts/Marketplace.sol\":386:699  function listItem(string memory _name,uint _itemPrice) public {... */\n    tag_5:\n      callvalue\n      dup1\n      iszero\n      tag_26\n      jumpi\n      0x00\n      dup1\n      revert\n    tag_26:\n      pop\n      tag_27\n      0x04\n      dup1\n      calldatasize\n      sub\n      dup2\n      add\n      swap1\n      tag_28\n      swap2\n      swap1\n      tag_29\n      jump\t// in\n    tag_28:\n      tag_30\n      jump\t// in\n    tag_27:\n      stop\n        /* \"contracts/Marketplace.sol\":1927:2217  function transferItem(uint _id, address _to) public {... */\n    tag_6:\n      callvalue\n      dup1\n      iszero\n      tag_31\n      jumpi\n      0x00\n      dup1\n      revert\n    tag_31:\n      pop\n      tag_32\n      0x04\n      dup1\n      calldatasize\n      sub\n      dup2\n      add\n      swap1\n      tag_33\n      swap2\n      swap1\n      tag_34\n      jump\t// in\n    tag_33:\n      tag_35\n      jump\t// in\n    tag_32:\n      stop\n        /* \"contracts/Marketplace.sol\":707:1424  function buyItem(uint _itemId) public payable {... */\n    tag_7:\n      tag_36\n      0x04\n      dup1\n      calldatasize\n      sub\n      dup2\n      add\n      swap1\n      tag_37\n      swap2\n      swap1\n      tag_38\n      jump\t// in\n    tag_37:\n      tag_39\n      jump\t// in\n    tag_36:\n      stop\n        /* \"contracts/Marketplace.sol\":2225:2345  function getItemsByOwner(address _owner) public view returns(uint[] memory) {... */\n    tag_12:\n        /* \"contracts/Marketplace.sol\":2286:2299  uint[] memory */\n      0x60\n        /* \"contracts/Marketplace.sol\":2319:2329  ownedItems */\n      0x02\n        /* \"contracts/Marketplace.sol\":2319:2337  ownedItems[_owner] */\n      0x00\n        /* \"contracts/Marketplace.sol\":2330:2336  _owner */\n      dup4\n        /* \"contracts/Marketplace.sol\":2319:2337  ownedItems[_owner] */\n      0xffffffffffffffffffffffffffffffffffffffff\n      and\n      0xffffffffffffffffffffffffffffffffffffffff\n      and\n      dup2\n      mstore\n      0x20\n      add\n      swap1\n      dup2\n      mstore\n      0x20\n      add\n      0x00\n      keccak256\n        /* \"contracts/Marketplace.sol\":2312:2337  return ownedItems[_owner] */\n      dup1\n      sload\n      dup1\n      0x20\n      mul\n      0x20\n      add\n      mload(0x40)\n      swap1\n      dup2\n      add\n      0x40\n      mstore\n      dup1\n      swap3\n      swap2\n      swap1\n      dup2\n      dup2\n      mstore\n      0x20\n      add\n      dup3\n      dup1\n      sload\n      dup1\n      iszero\n      tag_41\n      jumpi\n      0x20\n      mul\n      dup3\n      add\n      swap2\n      swap1\n      0x00\n      mstore\n      keccak256(0x00, 0x20)\n      swap1\n    tag_42:\n      dup2\n      sload\n      dup2\n      mstore\n      0x20\n      add\n      swap1\n      0x01\n      add\n      swap1\n      dup1\n      dup4\n      gt\n      tag_42\n      jumpi\n    tag_41:\n      pop\n      pop\n      pop\n      pop\n      pop\n      swap1\n      pop\n        /* \"contracts/Marketplace.sol\":2225:2345  function getItemsByOwner(address _owner) public view returns(uint[] memory) {... */\n      swap2\n      swap1\n      pop\n      jump\t// out\n        /* \"contracts/Marketplace.sol\":333:377  mapping(address => uint[]) public ownedItems */\n    tag_19:\n      mstore(0x20, 0x02)\n      dup2\n      0x00\n      mstore\n      keccak256(0x00, 0x40)\n      dup2\n      dup2\n      sload\n      dup2\n      lt\n      tag_43\n      jumpi\n      0x00\n      dup1\n      revert\n    tag_43:\n      swap1\n      0x00\n      mstore\n      keccak256(0x00, 0x20)\n      add\n      0x00\n      swap2\n      pop\n      swap2\n      pop\n      pop\n      sload\n      dup2\n      jump\t// out\n        /* \"contracts/Marketplace.sol\":259:284  uint public itemCount = 0 */\n    tag_24:\n      sload(0x00)\n      dup2\n      jump\t// out\n        /* \"contracts/Marketplace.sol\":386:699  function listItem(string memory _name,uint _itemPrice) public {... */\n    tag_30:\n        /* \"contracts/Marketplace.sol\":480:481  0 */\n      0x00\n        /* \"contracts/Marketplace.sol\":467:477  _itemPrice */\n      dup2\n        /* \"contracts/Marketplace.sol\":467:481  _itemPrice > 0 */\n      gt\n        /* \"contracts/Marketplace.sol\":459:505  require(_itemPrice > 0, \"Price can't be zero\") */\n      tag_46\n      jumpi\n      mload(0x40)\n      0x08c379a000000000000000000000000000000000000000000000000000000000\n      dup2\n      mstore\n      0x04\n      add\n      tag_47\n      swap1\n      tag_48\n      jump\t// in\n    tag_47:\n      mload(0x40)\n      dup1\n      swap2\n      sub\n      swap1\n      revert\n    tag_46:\n        /* \"contracts/Marketplace.sol\":530:539  itemCount */\n      0x00\n      dup1\n        /* \"contracts/Marketplace.sol\":528:539  ++itemCount */\n      dup2\n      sload\n      tag_49\n      swap1\n      tag_50\n      jump\t// in\n    tag_49:\n      swap2\n      swap1\n      pop\n      dup2\n      swap1\n      sstore\n      pop\n        /* \"contracts/Marketplace.sol\":570:641  Item(itemCount, _name, _itemPrice,payable(msg.sender),msg.sender,false) */\n      mload(0x40)\n      dup1\n      0xc0\n      add\n      0x40\n      mstore\n      dup1\n        /* \"contracts/Marketplace.sol\":575:584  itemCount */\n      sload(0x00)\n        /* \"contracts/Marketplace.sol\":570:641  Item(itemCount, _name, _itemPrice,payable(msg.sender),msg.sender,false) */\n      dup2\n      mstore\n      0x20\n      add\n        /* \"contracts/Marketplace.sol\":586:591  _name */\n      dup4\n        /* \"contracts/Marketplace.sol\":570:641  Item(itemCount, _name, _itemPrice,payable(msg.sender),msg.sender,false) */\n      dup2\n      mstore\n      0x20\n      add\n        /* \"contracts/Marketplace.sol\":593:603  _itemPrice */\n      dup3\n        /* \"contracts/Marketplace.sol\":570:641  Item(itemCount, _name, _itemPrice,payable(msg.sender),msg.sender,false) */\n      dup2\n      mstore\n      0x20\n      add\n        /* \"contracts/Marketplace.sol\":612:622  msg.sender */\n      caller\n        /* \"contracts/Marketplace.sol\":570:641  Item(itemCount, _name, _itemPrice,payable(msg.sender),msg.sender,false) */\n      0xffffffffffffffffffffffffffffffffffffffff\n      and\n      dup2\n      mstore\n      0x20\n      add\n        /* \"contracts/Marketplace.sol\":624:634  msg.sender */\n      caller\n        /* \"contracts/Marketplace.sol\":570:641  Item(itemCount, _name, _itemPrice,payable(msg.sender),msg.sender,false) */\n      0xffffffffffffffffffffffffffffffffffffffff\n      and\n      dup2\n      mstore\n      0x20\n      add\n        /* \"contracts/Marketplace.sol\":635:640  false */\n      0x00\n        /* \"contracts/Marketplace.sol\":570:641  Item(itemCount, _name, _itemPrice,payable(msg.sender),msg.sender,false) */\n      iszero\n      iszero\n      dup2\n      mstore\n      pop\n        /* \"contracts/Marketplace.sol\":551:556  items */\n      0x01\n        /* \"contracts/Marketplace.sol\":551:567  items[itemCount] */\n      0x00\n        /* \"contracts/Marketplace.sol\":557:566  itemCount */\n      dup1\n      sload\n        /* \"contracts/Marketplace.sol\":551:567  items[itemCount] */\n      dup2\n      mstore\n      0x20\n      add\n      swap1\n      dup2\n      mstore\n      0x20\n      add\n      0x00\n      keccak256\n        /* \"contracts/Marketplace.sol\":551:641  items[itemCount] = Item(itemCount, _name, _itemPrice,payable(msg.sender),msg.sender,false) */\n      0x00\n      dup3\n      add\n      mload\n      dup2\n      0x00\n      add\n      sstore\n      0x20\n      dup3\n      add\n      mload\n      dup2\n      0x01\n      add\n      swap1\n      dup2\n      tag_51\n      swap2\n      swap1\n      tag_52\n      jump\t// in\n    tag_51:\n      pop\n      0x40\n      dup3\n      add\n      mload\n      dup2\n      0x02\n      add\n      sstore\n      0x60\n      dup3\n      add\n      mload\n      dup2\n      0x03\n      add\n      exp(0x0100, 0x00)\n      dup2\n      sload\n      dup2\n      0xffffffffffffffffffffffffffffffffffffffff\n      mul\n      not\n      and\n      swap1\n      dup4\n      0xffffffffffffffffffffffffffffffffffffffff\n      and\n      mul\n      or\n      swap1\n      sstore\n      pop\n      0x80\n      dup3\n      add\n      mload\n      dup2\n      0x04\n      add\n      exp(0x0100, 0x00)\n      dup2\n      sload\n      dup2\n      0xffffffffffffffffffffffffffffffffffffffff\n      mul\n      not\n      and\n      swap1\n      dup4\n      0xffffffffffffffffffffffffffffffffffffffff\n      and\n      mul\n      or\n      swap1\n      sstore\n      pop\n      0xa0\n      dup3\n      add\n      mload\n      dup2\n      0x04\n      add\n      exp(0x0100, 0x14)\n      dup2\n      sload\n      dup2\n      0xff\n      mul\n      not\n      and\n      swap1\n      dup4\n      iszero\n      iszero\n      mul\n      or\n      swap1\n      sstore\n      pop\n      swap1\n      pop\n      pop\n        /* \"contracts/Marketplace.sol\":653:663  ownedItems */\n      0x02\n        /* \"contracts/Marketplace.sol\":653:675  ownedItems[msg.sender] */\n      0x00\n        /* \"contracts/Marketplace.sol\":664:674  msg.sender */\n      caller\n        /* \"contracts/Marketplace.sol\":653:675  ownedItems[msg.sender] */\n      0xffffffffffffffffffffffffffffffffffffffff\n      and\n      0xffffffffffffffffffffffffffffffffffffffff\n      and\n      dup2\n      mstore\n      0x20\n      add\n      swap1\n      dup2\n      mstore\n      0x20\n      add\n      0x00\n      keccak256\n        /* \"contracts/Marketplace.sol\":681:690  itemCount */\n      sload(0x00)\n        /* \"contracts/Marketplace.sol\":653:691  ownedItems[msg.sender].push(itemCount) */\n      swap1\n      dup1\n      0x01\n      dup2\n      sload\n      add\n      dup1\n      dup3\n      sstore\n      dup1\n      swap2\n      pop\n      pop\n      0x01\n      swap1\n      sub\n      swap1\n      0x00\n      mstore\n      keccak256(0x00, 0x20)\n      add\n      0x00\n      swap1\n      swap2\n      swap1\n      swap2\n      swap1\n      swap2\n      pop\n      sstore\n        /* \"contracts/Marketplace.sol\":386:699  function listItem(string memory _name,uint _itemPrice) public {... */\n      pop\n      pop\n      jump\t// out\n        /* \"contracts/Marketplace.sol\":1927:2217  function transferItem(uint _id, address _to) public {... */\n    tag_35:\n        /* \"contracts/Marketplace.sol\":1990:2007  Item storage item */\n      0x00\n        /* \"contracts/Marketplace.sol\":2010:2015  items */\n      0x01\n        /* \"contracts/Marketplace.sol\":2010:2020  items[_id] */\n      0x00\n        /* \"contracts/Marketplace.sol\":2016:2019  _id */\n      dup5\n        /* \"contracts/Marketplace.sol\":2010:2020  items[_id] */\n      dup2\n      mstore\n      0x20\n      add\n      swap1\n      dup2\n      mstore\n      0x20\n      add\n      0x00\n      keccak256\n        /* \"contracts/Marketplace.sol\":1990:2020  Item storage item = items[_id] */\n      swap1\n      pop\n        /* \"contracts/Marketplace.sol\":2045:2046  0 */\n      0x00\n        /* \"contracts/Marketplace.sol\":2039:2042  _id */\n      dup4\n        /* \"contracts/Marketplace.sol\":2039:2046  _id > 0 */\n      gt\n        /* \"contracts/Marketplace.sol\":2039:2066  _id > 0 && _id <= itemCount */\n      dup1\n      iszero\n      tag_55\n      jumpi\n      pop\n        /* \"contracts/Marketplace.sol\":2057:2066  itemCount */\n      sload(0x00)\n        /* \"contracts/Marketplace.sol\":2050:2053  _id */\n      dup4\n        /* \"contracts/Marketplace.sol\":2050:2066  _id <= itemCount */\n      gt\n      iszero\n        /* \"contracts/Marketplace.sol\":2039:2066  _id > 0 && _id <= itemCount */\n    tag_55:\n        /* \"contracts/Marketplace.sol\":2031:2081  require(_id > 0 && _id <= itemCount, \"Invalid Id\") */\n      tag_56\n      jumpi\n      mload(0x40)\n      0x08c379a000000000000000000000000000000000000000000000000000000000\n      dup2\n      mstore\n      0x04\n      add\n      tag_57\n      swap1\n      tag_58\n      jump\t// in\n    tag_57:\n      mload(0x40)\n      dup1\n      swap2\n      sub\n      swap1\n      revert\n    tag_56:\n        /* \"contracts/Marketplace.sol\":2114:2118  item */\n      dup1\n        /* \"contracts/Marketplace.sol\":2114:2124  item.owner */\n      0x04\n      add\n      0x00\n      swap1\n      sload\n      swap1\n      0x0100\n      exp\n      swap1\n      div\n      0xffffffffffffffffffffffffffffffffffffffff\n      and\n        /* \"contracts/Marketplace.sol\":2100:2124  msg.sender == item.owner */\n      0xffffffffffffffffffffffffffffffffffffffff\n      and\n        /* \"contracts/Marketplace.sol\":2100:2110  msg.sender */\n      caller\n        /* \"contracts/Marketplace.sol\":2100:2124  msg.sender == item.owner */\n      0xffffffffffffffffffffffffffffffffffffffff\n      and\n      eq\n        /* \"contracts/Marketplace.sol\":2092:2156  require(msg.sender == item.owner, \"You cannot access this item\") */\n      tag_59\n      jumpi\n      mload(0x40)\n      0x08c379a000000000000000000000000000000000000000000000000000000000\n      dup2\n      mstore\n      0x04\n      add\n      tag_60\n      swap1\n      tag_61\n      jump\t// in\n    tag_60:\n      mload(0x40)\n      dup1\n      swap2\n      sub\n      swap1\n      revert\n    tag_59:\n        /* \"contracts/Marketplace.sol\":2169:2209  _transferOwnership(_id, msg.sender, _to) */\n      tag_62\n        /* \"contracts/Marketplace.sol\":2188:2191  _id */\n      dup4\n        /* \"contracts/Marketplace.sol\":2193:2203  msg.sender */\n      caller\n        /* \"contracts/Marketplace.sol\":2205:2208  _to */\n      dup5\n        /* \"contracts/Marketplace.sol\":2169:2187  _transferOwnership */\n      tag_63\n        /* \"contracts/Marketplace.sol\":2169:2209  _transferOwnership(_id, msg.sender, _to) */\n      jump\t// in\n    tag_62:\n        /* \"contracts/Marketplace.sol\":1979:2217  {... */\n      pop\n        /* \"contracts/Marketplace.sol\":1927:2217  function transferItem(uint _id, address _to) public {... */\n      pop\n      pop\n      jump\t// out\n        /* \"contracts/Marketplace.sol\":707:1424  function buyItem(uint _itemId) public payable {... */\n    tag_39:\n        /* \"contracts/Marketplace.sol\":760:777  Item storage item */\n      0x00\n        /* \"contracts/Marketplace.sol\":780:785  items */\n      0x01\n        /* \"contracts/Marketplace.sol\":780:794  items[_itemId] */\n      0x00\n        /* \"contracts/Marketplace.sol\":786:793  _itemId */\n      dup4\n        /* \"contracts/Marketplace.sol\":780:794  items[_itemId] */\n      dup2\n      mstore\n      0x20\n      add\n      swap1\n      dup2\n      mstore\n      0x20\n      add\n      0x00\n      keccak256\n        /* \"contracts/Marketplace.sol\":760:794  Item storage item = items[_itemId] */\n      swap1\n      pop\n        /* \"contracts/Marketplace.sol\":819:820  0 */\n      0x00\n        /* \"contracts/Marketplace.sol\":809:816  _itemId */\n      dup3\n        /* \"contracts/Marketplace.sol\":809:820  _itemId > 0 */\n      gt\n        /* \"contracts/Marketplace.sol\":809:844  _itemId > 0 && _itemId <= itemCount */\n      dup1\n      iszero\n      tag_65\n      jumpi\n      pop\n        /* \"contracts/Marketplace.sol\":835:844  itemCount */\n      sload(0x00)\n        /* \"contracts/Marketplace.sol\":824:831  _itemId */\n      dup3\n        /* \"contracts/Marketplace.sol\":824:844  _itemId <= itemCount */\n      gt\n      iszero\n        /* \"contracts/Marketplace.sol\":809:844  _itemId > 0 && _itemId <= itemCount */\n    tag_65:\n        /* \"contracts/Marketplace.sol\":801:859  require(_itemId > 0 && _itemId <= itemCount, \"Invalid Id\") */\n      tag_66\n      jumpi\n      mload(0x40)\n      0x08c379a000000000000000000000000000000000000000000000000000000000\n      dup2\n      mstore\n      0x04\n      add\n      tag_67\n      swap1\n      tag_58\n      jump\t// in\n    tag_67:\n      mload(0x40)\n      dup1\n      swap2\n      sub\n      swap1\n      revert\n    tag_66:\n        /* \"contracts/Marketplace.sol\":887:891  item */\n      dup1\n        /* \"contracts/Marketplace.sol\":887:901  item.itemPrice */\n      0x02\n      add\n      sload\n        /* \"contracts/Marketplace.sol\":874:883  msg.value */\n      callvalue\n        /* \"contracts/Marketplace.sol\":874:901  msg.value == item.itemPrice */\n      eq\n        /* \"contracts/Marketplace.sol\":866:919  require(msg.value == item.itemPrice, \"Invalid Price\") */\n      tag_68\n      jumpi\n      mload(0x40)\n      0x08c379a000000000000000000000000000000000000000000000000000000000\n      dup2\n      mstore\n      0x04\n      add\n      tag_69\n      swap1\n      tag_70\n      jump\t// in\n    tag_69:\n      mload(0x40)\n      dup1\n      swap2\n      sub\n      swap1\n      revert\n    tag_68:\n        /* \"contracts/Marketplace.sol\":935:939  item */\n      dup1\n        /* \"contracts/Marketplace.sol\":935:946  item.isSold */\n      0x04\n      add\n      0x14\n      swap1\n      sload\n      swap1\n      0x0100\n      exp\n      swap1\n      div\n      0xff\n      and\n        /* \"contracts/Marketplace.sol\":934:946  !item.isSold */\n      iszero\n        /* \"contracts/Marketplace.sol\":926:968  require(!item.isSold, \"Item already sold\") */\n      tag_71\n      jumpi\n      mload(0x40)\n      0x08c379a000000000000000000000000000000000000000000000000000000000\n      dup2\n      mstore\n      0x04\n      add\n      tag_72\n      swap1\n      tag_73\n      jump\t// in\n    tag_72:\n      mload(0x40)\n      dup1\n      swap2\n      sub\n      swap1\n      revert\n    tag_71:\n        /* \"contracts/Marketplace.sol\":997:1001  item */\n      dup1\n        /* \"contracts/Marketplace.sol\":997:1008  item.seller */\n      0x03\n      add\n      0x00\n      swap1\n      sload\n      swap1\n      0x0100\n      exp\n      swap1\n      div\n      0xffffffffffffffffffffffffffffffffffffffff\n      and\n        /* \"contracts/Marketplace.sol\":983:1008  msg.sender != item.seller */\n      0xffffffffffffffffffffffffffffffffffffffff\n      and\n        /* \"contracts/Marketplace.sol\":983:993  msg.sender */\n      caller\n        /* \"contracts/Marketplace.sol\":983:1008  msg.sender != item.seller */\n      0xffffffffffffffffffffffffffffffffffffffff\n      and\n      sub\n        /* \"contracts/Marketplace.sol\":975:1048  require(msg.sender != item.seller, \"Seller cannot buy their own product\") */\n      tag_74\n      jumpi\n      mload(0x40)\n      0x08c379a000000000000000000000000000000000000000000000000000000000\n      dup2\n      mstore\n      0x04\n      add\n      tag_75\n      swap1\n      tag_76\n      jump\t// in\n    tag_75:\n      mload(0x40)\n      dup1\n      swap2\n      sub\n      swap1\n      revert\n    tag_74:\n        /* \"contracts/Marketplace.sol\":1130:1134  true */\n      0x01\n        /* \"contracts/Marketplace.sol\":1116:1120  item */\n      dup2\n        /* \"contracts/Marketplace.sol\":1116:1127  item.isSold */\n      0x04\n      add\n      0x14\n        /* \"contracts/Marketplace.sol\":1116:1134  item.isSold = true */\n      0x0100\n      exp\n      dup2\n      sload\n      dup2\n      0xff\n      mul\n      not\n      and\n      swap1\n      dup4\n      iszero\n      iszero\n      mul\n      or\n      swap1\n      sstore\n      pop\n        /* \"contracts/Marketplace.sol\":1141:1163  address payable seller */\n      0x00\n        /* \"contracts/Marketplace.sol\":1166:1170  item */\n      dup2\n        /* \"contracts/Marketplace.sol\":1166:1177  item.seller */\n      0x03\n      add\n      0x00\n      swap1\n      sload\n      swap1\n      0x0100\n      exp\n      swap1\n      div\n      0xffffffffffffffffffffffffffffffffffffffff\n      and\n        /* \"contracts/Marketplace.sol\":1141:1177  address payable seller = item.seller */\n      swap1\n      pop\n        /* \"contracts/Marketplace.sol\":1184:1194  uint price */\n      0x00\n        /* \"contracts/Marketplace.sol\":1197:1201  item */\n      dup3\n        /* \"contracts/Marketplace.sol\":1197:1211  item.itemPrice */\n      0x02\n      add\n      sload\n        /* \"contracts/Marketplace.sol\":1184:1211  uint price = item.itemPrice */\n      swap1\n      pop\n        /* \"contracts/Marketplace.sol\":1220:1267  _transferOwnership(_itemId, seller, msg.sender) */\n      tag_77\n        /* \"contracts/Marketplace.sol\":1239:1246  _itemId */\n      dup5\n        /* \"contracts/Marketplace.sol\":1248:1254  seller */\n      dup4\n        /* \"contracts/Marketplace.sol\":1256:1266  msg.sender */\n      caller\n        /* \"contracts/Marketplace.sol\":1220:1238  _transferOwnership */\n      tag_63\n        /* \"contracts/Marketplace.sol\":1220:1267  _transferOwnership(_itemId, seller, msg.sender) */\n      jump\t// in\n    tag_77:\n        /* \"contracts/Marketplace.sol\":1329:1341  bool success */\n      0x00\n        /* \"contracts/Marketplace.sol\":1347:1353  seller */\n      dup3\n        /* \"contracts/Marketplace.sol\":1347:1358  seller.call */\n      0xffffffffffffffffffffffffffffffffffffffff\n      and\n        /* \"contracts/Marketplace.sol\":1366:1371  price */\n      dup3\n        /* \"contracts/Marketplace.sol\":1347:1376  seller.call{value: price}(\"\") */\n      mload(0x40)\n      tag_78\n      swap1\n      tag_79\n      jump\t// in\n    tag_78:\n      0x00\n      mload(0x40)\n      dup1\n      dup4\n      sub\n      dup2\n      dup6\n      dup8\n      gas\n      call\n      swap3\n      pop\n      pop\n      pop\n      returndatasize\n      dup1\n      0x00\n      dup2\n      eq\n      tag_82\n      jumpi\n      mload(0x40)\n      swap2\n      pop\n      and(add(returndatasize, 0x3f), not(0x1f))\n      dup3\n      add\n      0x40\n      mstore\n      returndatasize\n      dup3\n      mstore\n      returndatasize\n      0x00\n      0x20\n      dup5\n      add\n      returndatacopy\n      jump(tag_81)\n    tag_82:\n      0x60\n      swap2\n      pop\n    tag_81:\n      pop\n        /* \"contracts/Marketplace.sol\":1328:1376  (bool success, ) = seller.call{value: price}(\"\") */\n      pop\n      swap1\n      pop\n        /* \"contracts/Marketplace.sol\":1391:1398  success */\n      dup1\n        /* \"contracts/Marketplace.sol\":1383:1418  require(success, \"Transfer failed\") */\n      tag_83\n      jumpi\n      mload(0x40)\n      0x08c379a000000000000000000000000000000000000000000000000000000000\n      dup2\n      mstore\n      0x04\n      add\n      tag_84\n      swap1\n      tag_85\n      jump\t// in\n    tag_84:\n      mload(0x40)\n      dup1\n      swap2\n      sub\n      swap1\n      revert\n    tag_83:\n        /* \"contracts/Marketplace.sol\":753:1424  {... */\n      pop\n      pop\n      pop\n      pop\n        /* \"contracts/Marketplace.sol\":707:1424  function buyItem(uint _itemId) public payable {... */\n      pop\n      jump\t// out\n        /* \"contracts/Marketplace.sol\":1432:1919  function _transferOwnership(uint _itemId, address _from, address _to) internal {... */\n    tag_63:\n        /* \"contracts/Marketplace.sol\":1522:1539  Item storage item */\n      0x00\n        /* \"contracts/Marketplace.sol\":1542:1547  items */\n      0x01\n        /* \"contracts/Marketplace.sol\":1542:1556  items[_itemId] */\n      0x00\n        /* \"contracts/Marketplace.sol\":1548:1555  _itemId */\n      dup6\n        /* \"contracts/Marketplace.sol\":1542:1556  items[_itemId] */\n      dup2\n      mstore\n      0x20\n      add\n      swap1\n      dup2\n      mstore\n      0x20\n      add\n      0x00\n      keccak256\n        /* \"contracts/Marketplace.sol\":1522:1556  Item storage item = items[_itemId] */\n      swap1\n      pop\n        /* \"contracts/Marketplace.sol\":1580:1583  _to */\n      dup2\n        /* \"contracts/Marketplace.sol\":1567:1571  item */\n      dup2\n        /* \"contracts/Marketplace.sol\":1567:1577  item.owner */\n      0x04\n      add\n      0x00\n        /* \"contracts/Marketplace.sol\":1567:1583  item.owner = _to */\n      0x0100\n      exp\n      dup2\n      sload\n      dup2\n      0xffffffffffffffffffffffffffffffffffffffff\n      mul\n      not\n      and\n      swap1\n      dup4\n      0xffffffffffffffffffffffffffffffffffffffff\n      and\n      mul\n      or\n      swap1\n      sstore\n      pop\n        /* \"contracts/Marketplace.sol\":1596:1620  uint[] storage fromItems */\n      0x00\n        /* \"contracts/Marketplace.sol\":1623:1633  ownedItems */\n      0x02\n        /* \"contracts/Marketplace.sol\":1623:1640  ownedItems[_from] */\n      0x00\n        /* \"contracts/Marketplace.sol\":1634:1639  _from */\n      dup6\n        /* \"contracts/Marketplace.sol\":1623:1640  ownedItems[_from] */\n      0xffffffffffffffffffffffffffffffffffffffff\n      and\n      0xffffffffffffffffffffffffffffffffffffffff\n      and\n      dup2\n      mstore\n      0x20\n      add\n      swap1\n      dup2\n      mstore\n      0x20\n      add\n      0x00\n      keccak256\n        /* \"contracts/Marketplace.sol\":1596:1640  uint[] storage fromItems = ownedItems[_from] */\n      swap1\n      pop\n        /* \"contracts/Marketplace.sol\":1655:1661  uint i */\n      0x00\n        /* \"contracts/Marketplace.sol\":1651:1878  for(uint i = 0; i < fromItems.length; i++){... */\n    tag_87:\n        /* \"contracts/Marketplace.sol\":1671:1680  fromItems */\n      dup2\n        /* \"contracts/Marketplace.sol\":1671:1687  fromItems.length */\n      dup1\n      sload\n      swap1\n      pop\n        /* \"contracts/Marketplace.sol\":1667:1668  i */\n      dup2\n        /* \"contracts/Marketplace.sol\":1667:1687  i < fromItems.length */\n      lt\n        /* \"contracts/Marketplace.sol\":1651:1878  for(uint i = 0; i < fromItems.length; i++){... */\n      iszero\n      tag_88\n      jumpi\n        /* \"contracts/Marketplace.sol\":1727:1734  _itemId */\n      dup6\n        /* \"contracts/Marketplace.sol\":1711:1720  fromItems */\n      dup3\n        /* \"contracts/Marketplace.sol\":1721:1722  i */\n      dup3\n        /* \"contracts/Marketplace.sol\":1711:1723  fromItems[i] */\n      dup2\n      sload\n      dup2\n      lt\n      tag_90\n      jumpi\n      tag_91\n      tag_92\n      jump\t// in\n    tag_91:\n    tag_90:\n      swap1\n      0x00\n      mstore\n      keccak256(0x00, 0x20)\n      add\n      sload\n        /* \"contracts/Marketplace.sol\":1711:1734  fromItems[i] == _itemId */\n      sub\n        /* \"contracts/Marketplace.sol\":1708:1871  if(fromItems[i] == _itemId) {... */\n      tag_94\n      jumpi\n        /* \"contracts/Marketplace.sol\":1770:1779  fromItems */\n      dup2\n        /* \"contracts/Marketplace.sol\":1799:1800  1 */\n      0x01\n        /* \"contracts/Marketplace.sol\":1780:1789  fromItems */\n      dup4\n        /* \"contracts/Marketplace.sol\":1780:1796  fromItems.length */\n      dup1\n      sload\n      swap1\n      pop\n        /* \"contracts/Marketplace.sol\":1780:1800  fromItems.length - 1 */\n      tag_95\n      swap2\n      swap1\n      tag_96\n      jump\t// in\n    tag_95:\n        /* \"contracts/Marketplace.sol\":1770:1801  fromItems[fromItems.length - 1] */\n      dup2\n      sload\n      dup2\n      lt\n      tag_97\n      jumpi\n      tag_98\n      tag_92\n      jump\t// in\n    tag_98:\n    tag_97:\n      swap1\n      0x00\n      mstore\n      keccak256(0x00, 0x20)\n      add\n      sload\n        /* \"contracts/Marketplace.sol\":1755:1764  fromItems */\n      dup3\n        /* \"contracts/Marketplace.sol\":1765:1766  i */\n      dup3\n        /* \"contracts/Marketplace.sol\":1755:1767  fromItems[i] */\n      dup2\n      sload\n      dup2\n      lt\n      tag_100\n      jumpi\n      tag_101\n      tag_92\n      jump\t// in\n    tag_101:\n    tag_100:\n      swap1\n      0x00\n      mstore\n      keccak256(0x00, 0x20)\n      add\n        /* \"contracts/Marketplace.sol\":1755:1801  fromItems[i] = fromItems[fromItems.length - 1] */\n      dup2\n      swap1\n      sstore\n      pop\n        /* \"contracts/Marketplace.sol\":1820:1829  fromItems */\n      dup2\n        /* \"contracts/Marketplace.sol\":1820:1835  fromItems.pop() */\n      dup1\n      sload\n      dup1\n      tag_103\n      jumpi\n      tag_104\n      tag_105\n      jump\t// in\n    tag_104:\n    tag_103:\n      0x01\n      swap1\n      sub\n      dup2\n      dup2\n      swap1\n      0x00\n      mstore\n      keccak256(0x00, 0x20)\n      add\n      0x00\n      swap1\n      sstore\n      swap1\n      sstore\n        /* \"contracts/Marketplace.sol\":1854:1859  break */\n      jump(tag_88)\n        /* \"contracts/Marketplace.sol\":1708:1871  if(fromItems[i] == _itemId) {... */\n    tag_94:\n        /* \"contracts/Marketplace.sol\":1689:1692  i++ */\n      dup1\n      dup1\n      0x01\n      add\n      swap2\n      pop\n      pop\n        /* \"contracts/Marketplace.sol\":1651:1878  for(uint i = 0; i < fromItems.length; i++){... */\n      jump(tag_87)\n    tag_88:\n      pop\n        /* \"contracts/Marketplace.sol\":1886:1896  ownedItems */\n      0x02\n        /* \"contracts/Marketplace.sol\":1886:1901  ownedItems[_to] */\n      0x00\n        /* \"contracts/Marketplace.sol\":1897:1900  _to */\n      dup5\n        /* \"contracts/Marketplace.sol\":1886:1901  ownedItems[_to] */\n      0xffffffffffffffffffffffffffffffffffffffff\n      and\n      0xffffffffffffffffffffffffffffffffffffffff\n      and\n      dup2\n      mstore\n      0x20\n      add\n      swap1\n      dup2\n      mstore\n      0x20\n      add\n      0x00\n      keccak256\n        /* \"contracts/Marketplace.sol\":1907:1914  _itemId */\n      dup6\n        /* \"contracts/Marketplace.sol\":1886:1915  ownedItems[_to].push(_itemId) */\n      swap1\n      dup1\n      0x01\n      dup2\n      sload\n      add\n      dup1\n      dup3\n      sstore\n      dup1\n      swap2\n      pop\n      pop\n      0x01\n      swap1\n      sub\n      swap1\n      0x00\n      mstore\n      keccak256(0x00, 0x20)\n      add\n      0x00\n      swap1\n      swap2\n      swap1\n      swap2\n      swap1\n      swap2\n      pop\n      sstore\n        /* \"contracts/Marketplace.sol\":1511:1919  {... */\n      pop\n      pop\n        /* \"contracts/Marketplace.sol\":1432:1919  function _transferOwnership(uint _itemId, address _from, address _to) internal {... */\n      pop\n      pop\n      pop\n      jump\t// out\n        /* \"#utility.yul\":7:82   */\n    tag_108:\n        /* \"#utility.yul\":40:46   */\n      0x00\n        /* \"#utility.yul\":73:75   */\n      0x40\n        /* \"#utility.yul\":67:76   */\n      mload\n        /* \"#utility.yul\":57:76   */\n      swap1\n      pop\n        /* \"#utility.yul\":7:82   */\n      swap1\n      jump\t// out\n        /* \"#utility.yul\":88:205   */\n    tag_109:\n        /* \"#utility.yul\":197:198   */\n      0x00\n        /* \"#utility.yul\":194:195   */\n      dup1\n        /* \"#utility.yul\":187:199   */\n      revert\n        /* \"#utility.yul\":211:328   */\n    tag_110:\n        /* \"#utility.yul\":320:321   */\n      0x00\n        /* \"#utility.yul\":317:318   */\n      dup1\n        /* \"#utility.yul\":310:322   */\n      revert\n        /* \"#utility.yul\":334:460   */\n    tag_111:\n        /* \"#utility.yul\":371:378   */\n      0x00\n        /* \"#utility.yul\":411:453   */\n      0xffffffffffffffffffffffffffffffffffffffff\n        /* \"#utility.yul\":404:409   */\n      dup3\n        /* \"#utility.yul\":400:454   */\n      and\n        /* \"#utility.yul\":389:454   */\n      swap1\n      pop\n        /* \"#utility.yul\":334:460   */\n      swap2\n      swap1\n      pop\n      jump\t// out\n        /* \"#utility.yul\":466:562   */\n    tag_112:\n        /* \"#utility.yul\":503:510   */\n      0x00\n        /* \"#utility.yul\":532:556   */\n      tag_179\n        /* \"#utility.yul\":550:555   */\n      dup3\n        /* \"#utility.yul\":532:556   */\n      tag_111\n      jump\t// in\n    tag_179:\n        /* \"#utility.yul\":521:556   */\n      swap1\n      pop\n        /* \"#utility.yul\":466:562   */\n      swap2\n      swap1\n      pop\n      jump\t// out\n        /* \"#utility.yul\":568:690   */\n    tag_113:\n        /* \"#utility.yul\":641:665   */\n      tag_181\n        /* \"#utility.yul\":659:664   */\n      dup2\n        /* \"#utility.yul\":641:665   */\n      tag_112\n      jump\t// in\n    tag_181:\n        /* \"#utility.yul\":634:639   */\n      dup2\n        /* \"#utility.yul\":631:666   */\n      eq\n        /* \"#utility.yul\":621:684   */\n      tag_182\n      jumpi\n        /* \"#utility.yul\":680:681   */\n      0x00\n        /* \"#utility.yul\":677:678   */\n      dup1\n        /* \"#utility.yul\":670:682   */\n      revert\n        /* \"#utility.yul\":621:684   */\n    tag_182:\n        /* \"#utility.yul\":568:690   */\n      pop\n      jump\t// out\n        /* \"#utility.yul\":696:835   */\n    tag_114:\n        /* \"#utility.yul\":742:747   */\n      0x00\n        /* \"#utility.yul\":780:786   */\n      dup2\n        /* \"#utility.yul\":767:787   */\n      calldataload\n        /* \"#utility.yul\":758:787   */\n      swap1\n      pop\n        /* \"#utility.yul\":796:829   */\n      tag_184\n        /* \"#utility.yul\":823:828   */\n      dup2\n        /* \"#utility.yul\":796:829   */\n      tag_113\n      jump\t// in\n    tag_184:\n        /* \"#utility.yul\":696:835   */\n      swap3\n      swap2\n      pop\n      pop\n      jump\t// out\n        /* \"#utility.yul\":841:1170   */\n    tag_11:\n        /* \"#utility.yul\":900:906   */\n      0x00\n        /* \"#utility.yul\":949:951   */\n      0x20\n        /* \"#utility.yul\":937:946   */\n      dup3\n        /* \"#utility.yul\":928:935   */\n      dup5\n        /* \"#utility.yul\":924:947   */\n      sub\n        /* \"#utility.yul\":920:952   */\n      slt\n        /* \"#utility.yul\":917:1036   */\n      iszero\n      tag_186\n      jumpi\n        /* \"#utility.yul\":955:1034   */\n      tag_187\n      tag_109\n      jump\t// in\n    tag_187:\n        /* \"#utility.yul\":917:1036   */\n    tag_186:\n        /* \"#utility.yul\":1075:1076   */\n      0x00\n        /* \"#utility.yul\":1100:1153   */\n      tag_188\n        /* \"#utility.yul\":1145:1152   */\n      dup5\n        /* \"#utility.yul\":1136:1142   */\n      dup3\n        /* \"#utility.yul\":1125:1134   */\n      dup6\n        /* \"#utility.yul\":1121:1143   */\n      add\n        /* \"#utility.yul\":1100:1153   */\n      tag_114\n      jump\t// in\n    tag_188:\n        /* \"#utility.yul\":1090:1153   */\n      swap2\n      pop\n        /* \"#utility.yul\":1046:1163   */\n      pop\n        /* \"#utility.yul\":841:1170   */\n      swap3\n      swap2\n      pop\n      pop\n      jump\t// out\n        /* \"#utility.yul\":1176:1290   */\n    tag_115:\n        /* \"#utility.yul\":1243:1249   */\n      0x00\n        /* \"#utility.yul\":1277:1282   */\n      dup2\n        /* \"#utility.yul\":1271:1283   */\n      mload\n        /* \"#utility.yul\":1261:1283   */\n      swap1\n      pop\n        /* \"#utility.yul\":1176:1290   */\n      swap2\n      swap1\n      pop\n      jump\t// out\n        /* \"#utility.yul\":1296:1480   */\n    tag_116:\n        /* \"#utility.yul\":1395:1406   */\n      0x00\n        /* \"#utility.yul\":1429:1435   */\n      dup3\n        /* \"#utility.yul\":1424:1427   */\n      dup3\n        /* \"#utility.yul\":1417:1436   */\n      mstore\n        /* \"#utility.yul\":1469:1473   */\n      0x20\n        /* \"#utility.yul\":1464:1467   */\n      dup3\n        /* \"#utility.yul\":1460:1474   */\n      add\n        /* \"#utility.yul\":1445:1474   */\n      swap1\n      pop\n        /* \"#utility.yul\":1296:1480   */\n      swap3\n      swap2\n      pop\n      pop\n      jump\t// out\n        /* \"#utility.yul\":1486:1618   */\n    tag_117:\n        /* \"#utility.yul\":1553:1557   */\n      0x00\n        /* \"#utility.yul\":1576:1579   */\n      dup2\n        /* \"#utility.yul\":1568:1579   */\n      swap1\n      pop\n        /* \"#utility.yul\":1606:1610   */\n      0x20\n        /* \"#utility.yul\":1601:1604   */\n      dup3\n        /* \"#utility.yul\":1597:1611   */\n      add\n        /* \"#utility.yul\":1589:1611   */\n      swap1\n      pop\n        /* \"#utility.yul\":1486:1618   */\n      swap2\n      swap1\n      pop\n      jump\t// out\n        /* \"#utility.yul\":1624:1701   */\n    tag_118:\n        /* \"#utility.yul\":1661:1668   */\n      0x00\n        /* \"#utility.yul\":1690:1695   */\n      dup2\n        /* \"#utility.yul\":1679:1695   */\n      swap1\n      pop\n        /* \"#utility.yul\":1624:1701   */\n      swap2\n      swap1\n      pop\n      jump\t// out\n        /* \"#utility.yul\":1707:1815   */\n    tag_119:\n        /* \"#utility.yul\":1784:1808   */\n      tag_194\n        /* \"#utility.yul\":1802:1807   */\n      dup2\n        /* \"#utility.yul\":1784:1808   */\n      tag_118\n      jump\t// in\n    tag_194:\n        /* \"#utility.yul\":1779:1782   */\n      dup3\n        /* \"#utility.yul\":1772:1809   */\n      mstore\n        /* \"#utility.yul\":1707:1815   */\n      pop\n      pop\n      jump\t// out\n        /* \"#utility.yul\":1821:2000   */\n    tag_120:\n        /* \"#utility.yul\":1890:1900   */\n      0x00\n        /* \"#utility.yul\":1911:1957   */\n      tag_196\n        /* \"#utility.yul\":1953:1956   */\n      dup4\n        /* \"#utility.yul\":1945:1951   */\n      dup4\n        /* \"#utility.yul\":1911:1957   */\n      tag_119\n      jump\t// in\n    tag_196:\n        /* \"#utility.yul\":1989:1993   */\n      0x20\n        /* \"#utility.yul\":1984:1987   */\n      dup4\n        /* \"#utility.yul\":1980:1994   */\n      add\n        /* \"#utility.yul\":1966:1994   */\n      swap1\n      pop\n        /* \"#utility.yul\":1821:2000   */\n      swap3\n      swap2\n      pop\n      pop\n      jump\t// out\n        /* \"#utility.yul\":2006:2119   */\n    tag_121:\n        /* \"#utility.yul\":2076:2080   */\n      0x00\n        /* \"#utility.yul\":2108:2112   */\n      0x20\n        /* \"#utility.yul\":2103:2106   */\n      dup3\n        /* \"#utility.yul\":2099:2113   */\n      add\n        /* \"#utility.yul\":2091:2113   */\n      swap1\n      pop\n        /* \"#utility.yul\":2006:2119   */\n      swap2\n      swap1\n      pop\n      jump\t// out\n        /* \"#utility.yul\":2155:2887   */\n    tag_122:\n        /* \"#utility.yul\":2274:2277   */\n      0x00\n        /* \"#utility.yul\":2303:2357   */\n      tag_199\n        /* \"#utility.yul\":2351:2356   */\n      dup3\n        /* \"#utility.yul\":2303:2357   */\n      tag_115\n      jump\t// in\n    tag_199:\n        /* \"#utility.yul\":2373:2459   */\n      tag_200\n        /* \"#utility.yul\":2452:2458   */\n      dup2\n        /* \"#utility.yul\":2447:2450   */\n      dup6\n        /* \"#utility.yul\":2373:2459   */\n      tag_116\n      jump\t// in\n    tag_200:\n        /* \"#utility.yul\":2366:2459   */\n      swap4\n      pop\n        /* \"#utility.yul\":2483:2539   */\n      tag_201\n        /* \"#utility.yul\":2533:2538   */\n      dup4\n        /* \"#utility.yul\":2483:2539   */\n      tag_117\n      jump\t// in\n    tag_201:\n        /* \"#utility.yul\":2562:2569   */\n      dup1\n        /* \"#utility.yul\":2593:2594   */\n      0x00\n        /* \"#utility.yul\":2578:2862   */\n    tag_202:\n        /* \"#utility.yul\":2603:2609   */\n      dup4\n        /* \"#utility.yul\":2600:2601   */\n      dup2\n        /* \"#utility.yul\":2597:2610   */\n      lt\n        /* \"#utility.yul\":2578:2862   */\n      iszero\n      tag_204\n      jumpi\n        /* \"#utility.yul\":2679:2685   */\n      dup2\n        /* \"#utility.yul\":2673:2686   */\n      mload\n        /* \"#utility.yul\":2706:2769   */\n      tag_205\n        /* \"#utility.yul\":2765:2768   */\n      dup9\n        /* \"#utility.yul\":2750:2763   */\n      dup3\n        /* \"#utility.yul\":2706:2769   */\n      tag_120\n      jump\t// in\n    tag_205:\n        /* \"#utility.yul\":2699:2769   */\n      swap8\n      pop\n        /* \"#utility.yul\":2792:2852   */\n      tag_206\n        /* \"#utility.yul\":2845:2851   */\n      dup4\n        /* \"#utility.yul\":2792:2852   */\n      tag_121\n      jump\t// in\n    tag_206:\n        /* \"#utility.yul\":2782:2852   */\n      swap3\n      pop\n        /* \"#utility.yul\":2638:2862   */\n      pop\n        /* \"#utility.yul\":2625:2626   */\n      0x01\n        /* \"#utility.yul\":2622:2623   */\n      dup2\n        /* \"#utility.yul\":2618:2627   */\n      add\n        /* \"#utility.yul\":2613:2627   */\n      swap1\n      pop\n        /* \"#utility.yul\":2578:2862   */\n      jump(tag_202)\n    tag_204:\n        /* \"#utility.yul\":2582:2596   */\n      pop\n        /* \"#utility.yul\":2878:2881   */\n      dup6\n        /* \"#utility.yul\":2871:2881   */\n      swap4\n      pop\n        /* \"#utility.yul\":2279:2887   */\n      pop\n      pop\n      pop\n        /* \"#utility.yul\":2155:2887   */\n      swap3\n      swap2\n      pop\n      pop\n      jump\t// out\n        /* \"#utility.yul\":2893:3266   */\n    tag_14:\n        /* \"#utility.yul\":3036:3040   */\n      0x00\n        /* \"#utility.yul\":3074:3076   */\n      0x20\n        /* \"#utility.yul\":3063:3072   */\n      dup3\n        /* \"#utility.yul\":3059:3077   */\n      add\n        /* \"#utility.yul\":3051:3077   */\n      swap1\n      pop\n        /* \"#utility.yul\":3123:3132   */\n      dup2\n        /* \"#utility.yul\":3117:3121   */\n      dup2\n        /* \"#utility.yul\":3113:3133   */\n      sub\n        /* \"#utility.yul\":3109:3110   */\n      0x00\n        /* \"#utility.yul\":3098:3107   */\n      dup4\n        /* \"#utility.yul\":3094:3111   */\n      add\n        /* \"#utility.yul\":3087:3134   */\n      mstore\n        /* \"#utility.yul\":3151:3259   */\n      tag_208\n        /* \"#utility.yul\":3254:3258   */\n      dup2\n        /* \"#utility.yul\":3245:3251   */\n      dup5\n        /* \"#utility.yul\":3151:3259   */\n      tag_122\n      jump\t// in\n    tag_208:\n        /* \"#utility.yul\":3143:3259   */\n      swap1\n      pop\n        /* \"#utility.yul\":2893:3266   */\n      swap3\n      swap2\n      pop\n      pop\n      jump\t// out\n        /* \"#utility.yul\":3272:3394   */\n    tag_123:\n        /* \"#utility.yul\":3345:3369   */\n      tag_210\n        /* \"#utility.yul\":3363:3368   */\n      dup2\n        /* \"#utility.yul\":3345:3369   */\n      tag_118\n      jump\t// in\n    tag_210:\n        /* \"#utility.yul\":3338:3343   */\n      dup2\n        /* \"#utility.yul\":3335:3370   */\n      eq\n        /* \"#utility.yul\":3325:3388   */\n      tag_211\n      jumpi\n        /* \"#utility.yul\":3384:3385   */\n      0x00\n        /* \"#utility.yul\":3381:3382   */\n      dup1\n        /* \"#utility.yul\":3374:3386   */\n      revert\n        /* \"#utility.yul\":3325:3388   */\n    tag_211:\n        /* \"#utility.yul\":3272:3394   */\n      pop\n      jump\t// out\n        /* \"#utility.yul\":3400:3539   */\n    tag_124:\n        /* \"#utility.yul\":3446:3451   */\n      0x00\n        /* \"#utility.yul\":3484:3490   */\n      dup2\n        /* \"#utility.yul\":3471:3491   */\n      calldataload\n        /* \"#utility.yul\":3462:3491   */\n      swap1\n      pop\n        /* \"#utility.yul\":3500:3533   */\n      tag_213\n        /* \"#utility.yul\":3527:3532   */\n      dup2\n        /* \"#utility.yul\":3500:3533   */\n      tag_123\n      jump\t// in\n    tag_213:\n        /* \"#utility.yul\":3400:3539   */\n      swap3\n      swap2\n      pop\n      pop\n      jump\t// out\n        /* \"#utility.yul\":3545:4019   */\n    tag_18:\n        /* \"#utility.yul\":3613:3619   */\n      0x00\n        /* \"#utility.yul\":3621:3627   */\n      dup1\n        /* \"#utility.yul\":3670:3672   */\n      0x40\n        /* \"#utility.yul\":3658:3667   */\n      dup4\n        /* \"#utility.yul\":3649:3656   */\n      dup6\n        /* \"#utility.yul\":3645:3668   */\n      sub\n        /* \"#utility.yul\":3641:3673   */\n      slt\n        /* \"#utility.yul\":3638:3757   */\n      iszero\n      tag_215\n      jumpi\n        /* \"#utility.yul\":3676:3755   */\n      tag_216\n      tag_109\n      jump\t// in\n    tag_216:\n        /* \"#utility.yul\":3638:3757   */\n    tag_215:\n        /* \"#utility.yul\":3796:3797   */\n      0x00\n        /* \"#utility.yul\":3821:3874   */\n      tag_217\n        /* \"#utility.yul\":3866:3873   */\n      dup6\n        /* \"#utility.yul\":3857:3863   */\n      dup3\n        /* \"#utility.yul\":3846:3855   */\n      dup7\n        /* \"#utility.yul\":3842:3864   */\n      add\n        /* \"#utility.yul\":3821:3874   */\n      tag_114\n      jump\t// in\n    tag_217:\n        /* \"#utility.yul\":3811:3874   */\n      swap3\n      pop\n        /* \"#utility.yul\":3767:3884   */\n      pop\n        /* \"#utility.yul\":3923:3925   */\n      0x20\n        /* \"#utility.yul\":3949:4002   */\n      tag_218\n        /* \"#utility.yul\":3994:4001   */\n      dup6\n        /* \"#utility.yul\":3985:3991   */\n      dup3\n        /* \"#utility.yul\":3974:3983   */\n      dup7\n        /* \"#utility.yul\":3970:3992   */\n      add\n        /* \"#utility.yul\":3949:4002   */\n      tag_124\n      jump\t// in\n    tag_218:\n        /* \"#utility.yul\":3939:4002   */\n      swap2\n      pop\n        /* \"#utility.yul\":3894:4012   */\n      pop\n        /* \"#utility.yul\":3545:4019   */\n      swap3\n      pop\n      swap3\n      swap1\n      pop\n      jump\t// out\n        /* \"#utility.yul\":4025:4143   */\n    tag_125:\n        /* \"#utility.yul\":4112:4136   */\n      tag_220\n        /* \"#utility.yul\":4130:4135   */\n      dup2\n        /* \"#utility.yul\":4112:4136   */\n      tag_118\n      jump\t// in\n    tag_220:\n        /* \"#utility.yul\":4107:4110   */\n      dup3\n        /* \"#utility.yul\":4100:4137   */\n      mstore\n        /* \"#utility.yul\":4025:4143   */\n      pop\n      pop\n      jump\t// out\n        /* \"#utility.yul\":4149:4371   */\n    tag_21:\n        /* \"#utility.yul\":4242:4246   */\n      0x00\n        /* \"#utility.yul\":4280:4282   */\n      0x20\n        /* \"#utility.yul\":4269:4278   */\n      dup3\n        /* \"#utility.yul\":4265:4283   */\n      add\n        /* \"#utility.yul\":4257:4283   */\n      swap1\n      pop\n        /* \"#utility.yul\":4293:4364   */\n      tag_222\n        /* \"#utility.yul\":4361:4362   */\n      0x00\n        /* \"#utility.yul\":4350:4359   */\n      dup4\n        /* \"#utility.yul\":4346:4363   */\n      add\n        /* \"#utility.yul\":4337:4343   */\n      dup5\n        /* \"#utility.yul\":4293:4364   */\n      tag_125\n      jump\t// in\n    tag_222:\n        /* \"#utility.yul\":4149:4371   */\n      swap3\n      swap2\n      pop\n      pop\n      jump\t// out\n        /* \"#utility.yul\":4377:4494   */\n    tag_126:\n        /* \"#utility.yul\":4486:4487   */\n      0x00\n        /* \"#utility.yul\":4483:4484   */\n      dup1\n        /* \"#utility.yul\":4476:4488   */\n      revert\n        /* \"#utility.yul\":4500:4617   */\n    tag_127:\n        /* \"#utility.yul\":4609:4610   */\n      0x00\n        /* \"#utility.yul\":4606:4607   */\n      dup1\n        /* \"#utility.yul\":4599:4611   */\n      revert\n        /* \"#utility.yul\":4623:4725   */\n    tag_128:\n        /* \"#utility.yul\":4664:4670   */\n      0x00\n        /* \"#utility.yul\":4715:4717   */\n      0x1f\n        /* \"#utility.yul\":4711:4718   */\n      not\n        /* \"#utility.yul\":4706:4708   */\n      0x1f\n        /* \"#utility.yul\":4699:4704   */\n      dup4\n        /* \"#utility.yul\":4695:4709   */\n      add\n        /* \"#utility.yul\":4691:4719   */\n      and\n        /* \"#utility.yul\":4681:4719   */\n      swap1\n      pop\n        /* \"#utility.yul\":4623:4725   */\n      swap2\n      swap1\n      pop\n      jump\t// out\n        /* \"#utility.yul\":4731:4911   */\n    tag_129:\n        /* \"#utility.yul\":4779:4856   */\n      0x4e487b7100000000000000000000000000000000000000000000000000000000\n        /* \"#utility.yul\":4776:4777   */\n      0x00\n        /* \"#utility.yul\":4769:4857   */\n      mstore\n        /* \"#utility.yul\":4876:4880   */\n      0x41\n        /* \"#utility.yul\":4873:4874   */\n      0x04\n        /* \"#utility.yul\":4866:4881   */\n      mstore\n        /* \"#utility.yul\":4900:4904   */\n      0x24\n        /* \"#utility.yul\":4897:4898   */\n      0x00\n        /* \"#utility.yul\":4890:4905   */\n      revert\n        /* \"#utility.yul\":4917:5198   */\n    tag_130:\n        /* \"#utility.yul\":5000:5027   */\n      tag_228\n        /* \"#utility.yul\":5022:5026   */\n      dup3\n        /* \"#utility.yul\":5000:5027   */\n      tag_128\n      jump\t// in\n    tag_228:\n        /* \"#utility.yul\":4992:4998   */\n      dup2\n        /* \"#utility.yul\":4988:5028   */\n      add\n        /* \"#utility.yul\":5130:5136   */\n      dup2\n        /* \"#utility.yul\":5118:5128   */\n      dup2\n        /* \"#utility.yul\":5115:5137   */\n      lt\n        /* \"#utility.yul\":5094:5112   */\n      0xffffffffffffffff\n        /* \"#utility.yul\":5082:5092   */\n      dup3\n        /* \"#utility.yul\":5079:5113   */\n      gt\n        /* \"#utility.yul\":5076:5138   */\n      or\n        /* \"#utility.yul\":5073:5161   */\n      iszero\n      tag_229\n      jumpi\n        /* \"#utility.yul\":5141:5159   */\n      tag_230\n      tag_129\n      jump\t// in\n    tag_230:\n        /* \"#utility.yul\":5073:5161   */\n    tag_229:\n        /* \"#utility.yul\":5181:5191   */\n      dup1\n        /* \"#utility.yul\":5177:5179   */\n      0x40\n        /* \"#utility.yul\":5170:5192   */\n      mstore\n        /* \"#utility.yul\":4960:5198   */\n      pop\n        /* \"#utility.yul\":4917:5198   */\n      pop\n      pop\n      jump\t// out\n        /* \"#utility.yul\":5204:5333   */\n    tag_131:\n        /* \"#utility.yul\":5238:5244   */\n      0x00\n        /* \"#utility.yul\":5265:5285   */\n      tag_232\n      tag_108\n      jump\t// in\n    tag_232:\n        /* \"#utility.yul\":5255:5285   */\n      swap1\n      pop\n        /* \"#utility.yul\":5294:5327   */\n      tag_233\n        /* \"#utility.yul\":5322:5326   */\n      dup3\n        /* \"#utility.yul\":5314:5320   */\n      dup3\n        /* \"#utility.yul\":5294:5327   */\n      tag_130\n      jump\t// in\n    tag_233:\n        /* \"#utility.yul\":5204:5333   */\n      swap2\n      swap1\n      pop\n      jump\t// out\n        /* \"#utility.yul\":5339:5647   */\n    tag_132:\n        /* \"#utility.yul\":5401:5405   */\n      0x00\n        /* \"#utility.yul\":5491:5509   */\n      0xffffffffffffffff\n        /* \"#utility.yul\":5483:5489   */\n      dup3\n        /* \"#utility.yul\":5480:5510   */\n      gt\n        /* \"#utility.yul\":5477:5533   */\n      iszero\n      tag_235\n      jumpi\n        /* \"#utility.yul\":5513:5531   */\n      tag_236\n      tag_129\n      jump\t// in\n    tag_236:\n        /* \"#utility.yul\":5477:5533   */\n    tag_235:\n        /* \"#utility.yul\":5551:5580   */\n      tag_237\n        /* \"#utility.yul\":5573:5579   */\n      dup3\n        /* \"#utility.yul\":5551:5580   */\n      tag_128\n      jump\t// in\n    tag_237:\n        /* \"#utility.yul\":5543:5580   */\n      swap1\n      pop\n        /* \"#utility.yul\":5635:5639   */\n      0x20\n        /* \"#utility.yul\":5629:5633   */\n      dup2\n        /* \"#utility.yul\":5625:5640   */\n      add\n        /* \"#utility.yul\":5617:5640   */\n      swap1\n      pop\n        /* \"#utility.yul\":5339:5647   */\n      swap2\n      swap1\n      pop\n      jump\t// out\n        /* \"#utility.yul\":5653:5801   */\n    tag_133:\n        /* \"#utility.yul\":5751:5757   */\n      dup3\n        /* \"#utility.yul\":5746:5749   */\n      dup2\n        /* \"#utility.yul\":5741:5744   */\n      dup4\n        /* \"#utility.yul\":5728:5758   */\n      calldatacopy\n        /* \"#utility.yul\":5792:5793   */\n      0x00\n        /* \"#utility.yul\":5783:5789   */\n      dup4\n        /* \"#utility.yul\":5778:5781   */\n      dup4\n        /* \"#utility.yul\":5774:5790   */\n      add\n        /* \"#utility.yul\":5767:5794   */\n      mstore\n        /* \"#utility.yul\":5653:5801   */\n      pop\n      pop\n      pop\n      jump\t// out\n        /* \"#utility.yul\":5807:6232   */\n    tag_134:\n        /* \"#utility.yul\":5885:5890   */\n      0x00\n        /* \"#utility.yul\":5910:5976   */\n      tag_240\n        /* \"#utility.yul\":5926:5975   */\n      tag_241\n        /* \"#utility.yul\":5968:5974   */\n      dup5\n        /* \"#utility.yul\":5926:5975   */\n      tag_132\n      jump\t// in\n    tag_241:\n        /* \"#utility.yul\":5910:5976   */\n      tag_131\n      jump\t// in\n    tag_240:\n        /* \"#utility.yul\":5901:5976   */\n      swap1\n      pop\n        /* \"#utility.yul\":5999:6005   */\n      dup3\n        /* \"#utility.yul\":5992:5997   */\n      dup2\n        /* \"#utility.yul\":5985:6006   */\n      mstore\n        /* \"#utility.yul\":6037:6041   */\n      0x20\n        /* \"#utility.yul\":6030:6035   */\n      dup2\n        /* \"#utility.yul\":6026:6042   */\n      add\n        /* \"#utility.yul\":6075:6078   */\n      dup5\n        /* \"#utility.yul\":6066:6072   */\n      dup5\n        /* \"#utility.yul\":6061:6064   */\n      dup5\n        /* \"#utility.yul\":6057:6073   */\n      add\n        /* \"#utility.yul\":6054:6079   */\n      gt\n        /* \"#utility.yul\":6051:6163   */\n      iszero\n      tag_242\n      jumpi\n        /* \"#utility.yul\":6082:6161   */\n      tag_243\n      tag_127\n      jump\t// in\n    tag_243:\n        /* \"#utility.yul\":6051:6163   */\n    tag_242:\n        /* \"#utility.yul\":6172:6226   */\n      tag_244\n        /* \"#utility.yul\":6219:6225   */\n      dup5\n        /* \"#utility.yul\":6214:6217   */\n      dup3\n        /* \"#utility.yul\":6209:6212   */\n      dup6\n        /* \"#utility.yul\":6172:6226   */\n      tag_133\n      jump\t// in\n    tag_244:\n        /* \"#utility.yul\":5891:6232   */\n      pop\n        /* \"#utility.yul\":5807:6232   */\n      swap4\n      swap3\n      pop\n      pop\n      pop\n      jump\t// out\n        /* \"#utility.yul\":6252:6592   */\n    tag_135:\n        /* \"#utility.yul\":6308:6313   */\n      0x00\n        /* \"#utility.yul\":6357:6360   */\n      dup3\n        /* \"#utility.yul\":6350:6354   */\n      0x1f\n        /* \"#utility.yul\":6342:6348   */\n      dup4\n        /* \"#utility.yul\":6338:6355   */\n      add\n        /* \"#utility.yul\":6334:6361   */\n      slt\n        /* \"#utility.yul\":6324:6446   */\n      tag_246\n      jumpi\n        /* \"#utility.yul\":6365:6444   */\n      tag_247\n      tag_126\n      jump\t// in\n    tag_247:\n        /* \"#utility.yul\":6324:6446   */\n    tag_246:\n        /* \"#utility.yul\":6482:6488   */\n      dup2\n        /* \"#utility.yul\":6469:6489   */\n      calldataload\n        /* \"#utility.yul\":6507:6586   */\n      tag_248\n        /* \"#utility.yul\":6582:6585   */\n      dup5\n        /* \"#utility.yul\":6574:6580   */\n      dup3\n        /* \"#utility.yul\":6567:6571   */\n      0x20\n        /* \"#utility.yul\":6559:6565   */\n      dup7\n        /* \"#utility.yul\":6555:6572   */\n      add\n        /* \"#utility.yul\":6507:6586   */\n      tag_134\n      jump\t// in\n    tag_248:\n        /* \"#utility.yul\":6498:6586   */\n      swap2\n      pop\n        /* \"#utility.yul\":6314:6592   */\n      pop\n        /* \"#utility.yul\":6252:6592   */\n      swap3\n      swap2\n      pop\n      pop\n      jump\t// out\n        /* \"#utility.yul\":6598:7252   */\n    tag_29:\n        /* \"#utility.yul\":6676:6682   */\n      0x00\n        /* \"#utility.yul\":6684:6690   */\n      dup1\n        /* \"#utility.yul\":6733:6735   */\n      0x40\n        /* \"#utility.yul\":6721:6730   */\n      dup4\n        /* \"#utility.yul\":6712:6719   */\n      dup6\n        /* \"#utility.yul\":6708:6731   */\n      sub\n        /* \"#utility.yul\":6704:6736   */\n      slt\n        /* \"#utility.yul\":6701:6820   */\n      iszero\n      tag_250\n      jumpi\n        /* \"#utility.yul\":6739:6818   */\n      tag_251\n      tag_109\n      jump\t// in\n    tag_251:\n        /* \"#utility.yul\":6701:6820   */\n    tag_250:\n        /* \"#utility.yul\":6887:6888   */\n      0x00\n        /* \"#utility.yul\":6876:6885   */\n      dup4\n        /* \"#utility.yul\":6872:6889   */\n      add\n        /* \"#utility.yul\":6859:6890   */\n      calldataload\n        /* \"#utility.yul\":6917:6935   */\n      0xffffffffffffffff\n        /* \"#utility.yul\":6909:6915   */\n      dup2\n        /* \"#utility.yul\":6906:6936   */\n      gt\n        /* \"#utility.yul\":6903:7020   */\n      iszero\n      tag_252\n      jumpi\n        /* \"#utility.yul\":6939:7018   */\n      tag_253\n      tag_110\n      jump\t// in\n    tag_253:\n        /* \"#utility.yul\":6903:7020   */\n    tag_252:\n        /* \"#utility.yul\":7044:7107   */\n      tag_254\n        /* \"#utility.yul\":7099:7106   */\n      dup6\n        /* \"#utility.yul\":7090:7096   */\n      dup3\n        /* \"#utility.yul\":7079:7088   */\n      dup7\n        /* \"#utility.yul\":7075:7097   */\n      add\n        /* \"#utility.yul\":7044:7107   */\n      tag_135\n      jump\t// in\n    tag_254:\n        /* \"#utility.yul\":7034:7107   */\n      swap3\n      pop\n        /* \"#utility.yul\":6830:7117   */\n      pop\n        /* \"#utility.yul\":7156:7158   */\n      0x20\n        /* \"#utility.yul\":7182:7235   */\n      tag_255\n        /* \"#utility.yul\":7227:7234   */\n      dup6\n        /* \"#utility.yul\":7218:7224   */\n      dup3\n        /* \"#utility.yul\":7207:7216   */\n      dup7\n        /* \"#utility.yul\":7203:7225   */\n      add\n        /* \"#utility.yul\":7182:7235   */\n      tag_124\n      jump\t// in\n    tag_255:\n        /* \"#utility.yul\":7172:7235   */\n      swap2\n      pop\n        /* \"#utility.yul\":7127:7245   */\n      pop\n        /* \"#utility.yul\":6598:7252   */\n      swap3\n      pop\n      swap3\n      swap1\n      pop\n      jump\t// out\n        /* \"#utility.yul\":7258:7732   */\n    tag_34:\n        /* \"#utility.yul\":7326:7332   */\n      0x00\n        /* \"#utility.yul\":7334:7340   */\n      dup1\n        /* \"#utility.yul\":7383:7385   */\n      0x40\n        /* \"#utility.yul\":7371:7380   */\n      dup4\n        /* \"#utility.yul\":7362:7369   */\n      dup6\n        /* \"#utility.yul\":7358:7381   */\n      sub\n        /* \"#utility.yul\":7354:7386   */\n      slt\n        /* \"#utility.yul\":7351:7470   */\n      iszero\n      tag_257\n      jumpi\n        /* \"#utility.yul\":7389:7468   */\n      tag_258\n      tag_109\n      jump\t// in\n    tag_258:\n        /* \"#utility.yul\":7351:7470   */\n    tag_257:\n        /* \"#utility.yul\":7509:7510   */\n      0x00\n        /* \"#utility.yul\":7534:7587   */\n      tag_259\n        /* \"#utility.yul\":7579:7586   */\n      dup6\n        /* \"#utility.yul\":7570:7576   */\n      dup3\n        /* \"#utility.yul\":7559:7568   */\n      dup7\n        /* \"#utility.yul\":7555:7577   */\n      add\n        /* \"#utility.yul\":7534:7587   */\n      tag_124\n      jump\t// in\n    tag_259:\n        /* \"#utility.yul\":7524:7587   */\n      swap3\n      pop\n        /* \"#utility.yul\":7480:7597   */\n      pop\n        /* \"#utility.yul\":7636:7638   */\n      0x20\n        /* \"#utility.yul\":7662:7715   */\n      tag_260\n        /* \"#utility.yul\":7707:7714   */\n      dup6\n        /* \"#utility.yul\":7698:7704   */\n      dup3\n        /* \"#utility.yul\":7687:7696   */\n      dup7\n        /* \"#utility.yul\":7683:7705   */\n      add\n        /* \"#utility.yul\":7662:7715   */\n      tag_114\n      jump\t// in\n    tag_260:\n        /* \"#utility.yul\":7652:7715   */\n      swap2\n      pop\n        /* \"#utility.yul\":7607:7725   */\n      pop\n        /* \"#utility.yul\":7258:7732   */\n      swap3\n      pop\n      swap3\n      swap1\n      pop\n      jump\t// out\n        /* \"#utility.yul\":7738:8067   */\n    tag_38:\n        /* \"#utility.yul\":7797:7803   */\n      0x00\n        /* \"#utility.yul\":7846:7848   */\n      0x20\n        /* \"#utility.yul\":7834:7843   */\n      dup3\n        /* \"#utility.yul\":7825:7832   */\n      dup5\n        /* \"#utility.yul\":7821:7844   */\n      sub\n        /* \"#utility.yul\":7817:7849   */\n      slt\n        /* \"#utility.yul\":7814:7933   */\n      iszero\n      tag_262\n      jumpi\n        /* \"#utility.yul\":7852:7931   */\n      tag_263\n      tag_109\n      jump\t// in\n    tag_263:\n        /* \"#utility.yul\":7814:7933   */\n    tag_262:\n        /* \"#utility.yul\":7972:7973   */\n      0x00\n        /* \"#utility.yul\":7997:8050   */\n      tag_264\n        /* \"#utility.yul\":8042:8049   */\n      dup5\n        /* \"#utility.yul\":8033:8039   */\n      dup3\n        /* \"#utility.yul\":8022:8031   */\n      dup6\n        /* \"#utility.yul\":8018:8040   */\n      add\n        /* \"#utility.yul\":7997:8050   */\n      tag_124\n      jump\t// in\n    tag_264:\n        /* \"#utility.yul\":7987:8050   */\n      swap2\n      pop\n        /* \"#utility.yul\":7943:8060   */\n      pop\n        /* \"#utility.yul\":7738:8067   */\n      swap3\n      swap2\n      pop\n      pop\n      jump\t// out\n        /* \"#utility.yul\":8073:8242   */\n    tag_136:\n        /* \"#utility.yul\":8157:8168   */\n      0x00\n        /* \"#utility.yul\":8191:8197   */\n      dup3\n        /* \"#utility.yul\":8186:8189   */\n      dup3\n        /* \"#utility.yul\":8179:8198   */\n      mstore\n        /* \"#utility.yul\":8231:8235   */\n      0x20\n        /* \"#utility.yul\":8226:8229   */\n      dup3\n        /* \"#utility.yul\":8222:8236   */\n      add\n        /* \"#utility.yul\":8207:8236   */\n      swap1\n      pop\n        /* \"#utility.yul\":8073:8242   */\n      swap3\n      swap2\n      pop\n      pop\n      jump\t// out\n        /* \"#utility.yul\":8248:8417   */\n    tag_137:\n        /* \"#utility.yul\":8388:8409   */\n      0x50726963652063616e2774206265207a65726f00000000000000000000000000\n        /* \"#utility.yul\":8384:8385   */\n      0x00\n        /* \"#utility.yul\":8376:8382   */\n      dup3\n        /* \"#utility.yul\":8372:8386   */\n      add\n        /* \"#utility.yul\":8365:8410   */\n      mstore\n        /* \"#utility.yul\":8248:8417   */\n      pop\n      jump\t// out\n        /* \"#utility.yul\":8423:8789   */\n    tag_138:\n        /* \"#utility.yul\":8565:8568   */\n      0x00\n        /* \"#utility.yul\":8586:8653   */\n      tag_268\n        /* \"#utility.yul\":8650:8652   */\n      0x13\n        /* \"#utility.yul\":8645:8648   */\n      dup4\n        /* \"#utility.yul\":8586:8653   */\n      tag_136\n      jump\t// in\n    tag_268:\n        /* \"#utility.yul\":8579:8653   */\n      swap2\n      pop\n        /* \"#utility.yul\":8662:8755   */\n      tag_269\n        /* \"#utility.yul\":8751:8754   */\n      dup3\n        /* \"#utility.yul\":8662:8755   */\n      tag_137\n      jump\t// in\n    tag_269:\n        /* \"#utility.yul\":8780:8782   */\n      0x20\n        /* \"#utility.yul\":8775:8778   */\n      dup3\n        /* \"#utility.yul\":8771:8783   */\n      add\n        /* \"#utility.yul\":8764:8783   */\n      swap1\n      pop\n        /* \"#utility.yul\":8423:8789   */\n      swap2\n      swap1\n      pop\n      jump\t// out\n        /* \"#utility.yul\":8795:9214   */\n    tag_48:\n        /* \"#utility.yul\":8961:8965   */\n      0x00\n        /* \"#utility.yul\":8999:9001   */\n      0x20\n        /* \"#utility.yul\":8988:8997   */\n      dup3\n        /* \"#utility.yul\":8984:9002   */\n      add\n        /* \"#utility.yul\":8976:9002   */\n      swap1\n      pop\n        /* \"#utility.yul\":9048:9057   */\n      dup2\n        /* \"#utility.yul\":9042:9046   */\n      dup2\n        /* \"#utility.yul\":9038:9058   */\n      sub\n        /* \"#utility.yul\":9034:9035   */\n      0x00\n        /* \"#utility.yul\":9023:9032   */\n      dup4\n        /* \"#utility.yul\":9019:9036   */\n      add\n        /* \"#utility.yul\":9012:9059   */\n      mstore\n        /* \"#utility.yul\":9076:9207   */\n      tag_271\n        /* \"#utility.yul\":9202:9206   */\n      dup2\n        /* \"#utility.yul\":9076:9207   */\n      tag_138\n      jump\t// in\n    tag_271:\n        /* \"#utility.yul\":9068:9207   */\n      swap1\n      pop\n        /* \"#utility.yul\":8795:9214   */\n      swap2\n      swap1\n      pop\n      jump\t// out\n        /* \"#utility.yul\":9220:9400   */\n    tag_139:\n        /* \"#utility.yul\":9268:9345   */\n      0x4e487b7100000000000000000000000000000000000000000000000000000000\n        /* \"#utility.yul\":9265:9266   */\n      0x00\n        /* \"#utility.yul\":9258:9346   */\n      mstore\n        /* \"#utility.yul\":9365:9369   */\n      0x11\n        /* \"#utility.yul\":9362:9363   */\n      0x04\n        /* \"#utility.yul\":9355:9370   */\n      mstore\n        /* \"#utility.yul\":9389:9393   */\n      0x24\n        /* \"#utility.yul\":9386:9387   */\n      0x00\n        /* \"#utility.yul\":9379:9394   */\n      revert\n        /* \"#utility.yul\":9406:9639   */\n    tag_50:\n        /* \"#utility.yul\":9445:9448   */\n      0x00\n        /* \"#utility.yul\":9468:9492   */\n      tag_274\n        /* \"#utility.yul\":9486:9491   */\n      dup3\n        /* \"#utility.yul\":9468:9492   */\n      tag_118\n      jump\t// in\n    tag_274:\n        /* \"#utility.yul\":9459:9492   */\n      swap2\n      pop\n        /* \"#utility.yul\":9514:9580   */\n      0xffffffffffffffffffffffffffffffffffffffffffffffffffffffffffffffff\n        /* \"#utility.yul\":9507:9512   */\n      dup3\n        /* \"#utility.yul\":9504:9581   */\n      sub\n        /* \"#utility.yul\":9501:9604   */\n      tag_275\n      jumpi\n        /* \"#utility.yul\":9584:9602   */\n      tag_276\n      tag_139\n      jump\t// in\n    tag_276:\n        /* \"#utility.yul\":9501:9604   */\n    tag_275:\n        /* \"#utility.yul\":9631:9632   */\n      0x01\n        /* \"#utility.yul\":9624:9629   */\n      dup3\n        /* \"#utility.yul\":9620:9633   */\n      add\n        /* \"#utility.yul\":9613:9633   */\n      swap1\n      pop\n        /* \"#utility.yul\":9406:9639   */\n      swap2\n      swap1\n      pop\n      jump\t// out\n        /* \"#utility.yul\":9645:9744   */\n    tag_140:\n        /* \"#utility.yul\":9697:9703   */\n      0x00\n        /* \"#utility.yul\":9731:9736   */\n      dup2\n        /* \"#utility.yul\":9725:9737   */\n      mload\n        /* \"#utility.yul\":9715:9737   */\n      swap1\n      pop\n        /* \"#utility.yul\":9645:9744   */\n      swap2\n      swap1\n      pop\n      jump\t// out\n        /* \"#utility.yul\":9750:9930   */\n    tag_141:\n        /* \"#utility.yul\":9798:9875   */\n      0x4e487b7100000000000000000000000000000000000000000000000000000000\n        /* \"#utility.yul\":9795:9796   */\n      0x00\n        /* \"#utility.yul\":9788:9876   */\n      mstore\n        /* \"#utility.yul\":9895:9899   */\n      0x22\n        /* \"#utility.yul\":9892:9893   */\n      0x04\n        /* \"#utility.yul\":9885:9900   */\n      mstore\n        /* \"#utility.yul\":9919:9923   */\n      0x24\n        /* \"#utility.yul\":9916:9917   */\n      0x00\n        /* \"#utility.yul\":9909:9924   */\n      revert\n        /* \"#utility.yul\":9936:10256   */\n    tag_142:\n        /* \"#utility.yul\":9980:9986   */\n      0x00\n        /* \"#utility.yul\":10017:10018   */\n      0x02\n        /* \"#utility.yul\":10011:10015   */\n      dup3\n        /* \"#utility.yul\":10007:10019   */\n      div\n        /* \"#utility.yul\":9997:10019   */\n      swap1\n      pop\n        /* \"#utility.yul\":10064:10065   */\n      0x01\n        /* \"#utility.yul\":10058:10062   */\n      dup3\n        /* \"#utility.yul\":10054:10066   */\n      and\n        /* \"#utility.yul\":10085:10103   */\n      dup1\n        /* \"#utility.yul\":10075:10156   */\n      tag_280\n      jumpi\n        /* \"#utility.yul\":10141:10145   */\n      0x7f\n        /* \"#utility.yul\":10133:10139   */\n      dup3\n        /* \"#utility.yul\":10129:10146   */\n      and\n        /* \"#utility.yul\":10119:10146   */\n      swap2\n      pop\n        /* \"#utility.yul\":10075:10156   */\n    tag_280:\n        /* \"#utility.yul\":10203:10205   */\n      0x20\n        /* \"#utility.yul\":10195:10201   */\n      dup3\n        /* \"#utility.yul\":10192:10206   */\n      lt\n        /* \"#utility.yul\":10172:10190   */\n      dup2\n        /* \"#utility.yul\":10169:10207   */\n      sub\n        /* \"#utility.yul\":10166:10250   */\n      tag_281\n      jumpi\n        /* \"#utility.yul\":10222:10240   */\n      tag_282\n      tag_141\n      jump\t// in\n    tag_282:\n        /* \"#utility.yul\":10166:10250   */\n    tag_281:\n        /* \"#utility.yul\":9987:10256   */\n      pop\n        /* \"#utility.yul\":9936:10256   */\n      swap2\n      swap1\n      pop\n      jump\t// out\n        /* \"#utility.yul\":10262:10403   */\n    tag_143:\n        /* \"#utility.yul\":10311:10315   */\n      0x00\n        /* \"#utility.yul\":10334:10337   */\n      dup2\n        /* \"#utility.yul\":10326:10337   */\n      swap1\n      pop\n        /* \"#utility.yul\":10357:10360   */\n      dup2\n        /* \"#utility.yul\":10354:10355   */\n      0x00\n        /* \"#utility.yul\":10347:10361   */\n      mstore\n        /* \"#utility.yul\":10391:10395   */\n      0x20\n        /* \"#utility.yul\":10388:10389   */\n      0x00\n        /* \"#utility.yul\":10378:10396   */\n      keccak256\n        /* \"#utility.yul\":10370:10396   */\n      swap1\n      pop\n        /* \"#utility.yul\":10262:10403   */\n      swap2\n      swap1\n      pop\n      jump\t// out\n        /* \"#utility.yul\":10409:10502   */\n    tag_144:\n        /* \"#utility.yul\":10446:10452   */\n      0x00\n        /* \"#utility.yul\":10493:10495   */\n      0x20\n        /* \"#utility.yul\":10488:10490   */\n      0x1f\n        /* \"#utility.yul\":10481:10486   */\n      dup4\n        /* \"#utility.yul\":10477:10491   */\n      add\n        /* \"#utility.yul\":10473:10496   */\n      div\n        /* \"#utility.yul\":10463:10496   */\n      swap1\n      pop\n        /* \"#utility.yul\":10409:10502   */\n      swap2\n      swap1\n      pop\n      jump\t// out\n        /* \"#utility.yul\":10508:10615   */\n    tag_145:\n        /* \"#utility.yul\":10552:10560   */\n      0x00\n        /* \"#utility.yul\":10602:10607   */\n      dup3\n        /* \"#utility.yul\":10596:10600   */\n      dup3\n        /* \"#utility.yul\":10592:10608   */\n      shl\n        /* \"#utility.yul\":10571:10608   */\n      swap1\n      pop\n        /* \"#utility.yul\":10508:10615   */\n      swap3\n      swap2\n      pop\n      pop\n      jump\t// out\n        /* \"#utility.yul\":10621:11014   */\n    tag_146:\n        /* \"#utility.yul\":10690:10696   */\n      0x00\n        /* \"#utility.yul\":10740:10741   */\n      0x08\n        /* \"#utility.yul\":10728:10738   */\n      dup4\n        /* \"#utility.yul\":10724:10742   */\n      mul\n        /* \"#utility.yul\":10763:10860   */\n      tag_287\n        /* \"#utility.yul\":10793:10859   */\n      0xffffffffffffffffffffffffffffffffffffffffffffffffffffffffffffffff\n        /* \"#utility.yul\":10782:10791   */\n      dup3\n        /* \"#utility.yul\":10763:10860   */\n      tag_145\n      jump\t// in\n    tag_287:\n        /* \"#utility.yul\":10881:10920   */\n      tag_288\n        /* \"#utility.yul\":10911:10919   */\n      dup7\n        /* \"#utility.yul\":10900:10909   */\n      dup4\n        /* \"#utility.yul\":10881:10920   */\n      tag_145\n      jump\t// in\n    tag_288:\n        /* \"#utility.yul\":10869:10920   */\n      swap6\n      pop\n        /* \"#utility.yul\":10953:10957   */\n      dup1\n        /* \"#utility.yul\":10949:10958   */\n      not\n        /* \"#utility.yul\":10942:10947   */\n      dup5\n        /* \"#utility.yul\":10938:10959   */\n      and\n        /* \"#utility.yul\":10929:10959   */\n      swap4\n      pop\n        /* \"#utility.yul\":11002:11006   */\n      dup1\n        /* \"#utility.yul\":10992:11000   */\n      dup7\n        /* \"#utility.yul\":10988:11007   */\n      and\n        /* \"#utility.yul\":10981:10986   */\n      dup5\n        /* \"#utility.yul\":10978:11008   */\n      or\n        /* \"#utility.yul\":10968:11008   */\n      swap3\n      pop\n        /* \"#utility.yul\":10697:11014   */\n      pop\n      pop\n        /* \"#utility.yul\":10621:11014   */\n      swap4\n      swap3\n      pop\n      pop\n      pop\n      jump\t// out\n        /* \"#utility.yul\":11020:11080   */\n    tag_147:\n        /* \"#utility.yul\":11048:11051   */\n      0x00\n        /* \"#utility.yul\":11069:11074   */\n      dup2\n        /* \"#utility.yul\":11062:11074   */\n      swap1\n      pop\n        /* \"#utility.yul\":11020:11080   */\n      swap2\n      swap1\n      pop\n      jump\t// out\n        /* \"#utility.yul\":11086:11228   */\n    tag_148:\n        /* \"#utility.yul\":11136:11145   */\n      0x00\n        /* \"#utility.yul\":11169:11222   */\n      tag_291\n        /* \"#utility.yul\":11187:11221   */\n      tag_292\n        /* \"#utility.yul\":11196:11220   */\n      tag_293\n        /* \"#utility.yul\":11214:11219   */\n      dup5\n        /* \"#utility.yul\":11196:11220   */\n      tag_118\n      jump\t// in\n    tag_293:\n        /* \"#utility.yul\":11187:11221   */\n      tag_147\n      jump\t// in\n    tag_292:\n        /* \"#utility.yul\":11169:11222   */\n      tag_118\n      jump\t// in\n    tag_291:\n        /* \"#utility.yul\":11156:11222   */\n      swap1\n      pop\n        /* \"#utility.yul\":11086:11228   */\n      swap2\n      swap1\n      pop\n      jump\t// out\n        /* \"#utility.yul\":11234:11309   */\n    tag_149:\n        /* \"#utility.yul\":11277:11280   */\n      0x00\n        /* \"#utility.yul\":11298:11303   */\n      dup2\n        /* \"#utility.yul\":11291:11303   */\n      swap1\n      pop\n        /* \"#utility.yul\":11234:11309   */\n      swap2\n      swap1\n      pop\n      jump\t// out\n        /* \"#utility.yul\":11315:11584   */\n    tag_150:\n        /* \"#utility.yul\":11425:11464   */\n      tag_296\n        /* \"#utility.yul\":11456:11463   */\n      dup4\n        /* \"#utility.yul\":11425:11464   */\n      tag_148\n      jump\t// in\n    tag_296:\n        /* \"#utility.yul\":11486:11577   */\n      tag_297\n        /* \"#utility.yul\":11535:11576   */\n      tag_298\n        /* \"#utility.yul\":11559:11575   */\n      dup3\n        /* \"#utility.yul\":11535:11576   */\n      tag_149\n      jump\t// in\n    tag_298:\n        /* \"#utility.yul\":11527:11533   */\n      dup5\n        /* \"#utility.yul\":11520:11524   */\n      dup5\n        /* \"#utility.yul\":11514:11525   */\n      sload\n        /* \"#utility.yul\":11486:11577   */\n      tag_146\n      jump\t// in\n    tag_297:\n        /* \"#utility.yul\":11480:11484   */\n      dup3\n        /* \"#utility.yul\":11473:11578   */\n      sstore\n        /* \"#utility.yul\":11391:11584   */\n      pop\n        /* \"#utility.yul\":11315:11584   */\n      pop\n      pop\n      pop\n      jump\t// out\n        /* \"#utility.yul\":11590:11663   */\n    tag_151:\n        /* \"#utility.yul\":11635:11638   */\n      0x00\n        /* \"#utility.yul\":11590:11663   */\n      swap1\n      jump\t// out\n        /* \"#utility.yul\":11669:11858   */\n    tag_152:\n        /* \"#utility.yul\":11746:11778   */\n      tag_301\n      tag_151\n      jump\t// in\n    tag_301:\n        /* \"#utility.yul\":11787:11852   */\n      tag_302\n        /* \"#utility.yul\":11845:11851   */\n      dup2\n        /* \"#utility.yul\":11837:11843   */\n      dup5\n        /* \"#utility.yul\":11831:11835   */\n      dup5\n        /* \"#utility.yul\":11787:11852   */\n      tag_150\n      jump\t// in\n    tag_302:\n        /* \"#utility.yul\":11722:11858   */\n      pop\n        /* \"#utility.yul\":11669:11858   */\n      pop\n      pop\n      jump\t// out\n        /* \"#utility.yul\":11864:12050   */\n    tag_153:\n        /* \"#utility.yul\":11924:12044   */\n    tag_304:\n        /* \"#utility.yul\":11941:11944   */\n      dup2\n        /* \"#utility.yul\":11934:11939   */\n      dup2\n        /* \"#utility.yul\":11931:11945   */\n      lt\n        /* \"#utility.yul\":11924:12044   */\n      iszero\n      tag_306\n      jumpi\n        /* \"#utility.yul\":11995:12034   */\n      tag_307\n        /* \"#utility.yul\":12032:12033   */\n      0x00\n        /* \"#utility.yul\":12025:12030   */\n      dup3\n        /* \"#utility.yul\":11995:12034   */\n      tag_152\n      jump\t// in\n    tag_307:\n        /* \"#utility.yul\":11968:11969   */\n      0x01\n        /* \"#utility.yul\":11961:11966   */\n      dup2\n        /* \"#utility.yul\":11957:11970   */\n      add\n        /* \"#utility.yul\":11948:11970   */\n      swap1\n      pop\n        /* \"#utility.yul\":11924:12044   */\n      jump(tag_304)\n    tag_306:\n        /* \"#utility.yul\":11864:12050   */\n      pop\n      pop\n      jump\t// out\n        /* \"#utility.yul\":12056:12599   */\n    tag_154:\n        /* \"#utility.yul\":12157:12159   */\n      0x1f\n        /* \"#utility.yul\":12152:12155   */\n      dup3\n        /* \"#utility.yul\":12149:12160   */\n      gt\n        /* \"#utility.yul\":12146:12592   */\n      iszero\n      tag_309\n      jumpi\n        /* \"#utility.yul\":12191:12229   */\n      tag_310\n        /* \"#utility.yul\":12223:12228   */\n      dup2\n        /* \"#utility.yul\":12191:12229   */\n      tag_143\n      jump\t// in\n    tag_310:\n        /* \"#utility.yul\":12275:12304   */\n      tag_311\n        /* \"#utility.yul\":12293:12303   */\n      dup5\n        /* \"#utility.yul\":12275:12304   */\n      tag_144\n      jump\t// in\n    tag_311:\n        /* \"#utility.yul\":12265:12273   */\n      dup2\n        /* \"#utility.yul\":12261:12305   */\n      add\n        /* \"#utility.yul\":12458:12460   */\n      0x20\n        /* \"#utility.yul\":12446:12456   */\n      dup6\n        /* \"#utility.yul\":12443:12461   */\n      lt\n        /* \"#utility.yul\":12440:12489   */\n      iszero\n      tag_312\n      jumpi\n        /* \"#utility.yul\":12479:12487   */\n      dup2\n        /* \"#utility.yul\":12464:12487   */\n      swap1\n      pop\n        /* \"#utility.yul\":12440:12489   */\n    tag_312:\n        /* \"#utility.yul\":12502:12582   */\n      tag_313\n        /* \"#utility.yul\":12558:12580   */\n      tag_314\n        /* \"#utility.yul\":12576:12579   */\n      dup6\n        /* \"#utility.yul\":12558:12580   */\n      tag_144\n      jump\t// in\n    tag_314:\n        /* \"#utility.yul\":12548:12556   */\n      dup4\n        /* \"#utility.yul\":12544:12581   */\n      add\n        /* \"#utility.yul\":12531:12542   */\n      dup3\n        /* \"#utility.yul\":12502:12582   */\n      tag_153\n      jump\t// in\n    tag_313:\n        /* \"#utility.yul\":12161:12592   */\n      pop\n      pop\n        /* \"#utility.yul\":12146:12592   */\n    tag_309:\n        /* \"#utility.yul\":12056:12599   */\n      pop\n      pop\n      pop\n      jump\t// out\n        /* \"#utility.yul\":12605:12722   */\n    tag_155:\n        /* \"#utility.yul\":12659:12667   */\n      0x00\n        /* \"#utility.yul\":12709:12714   */\n      dup3\n        /* \"#utility.yul\":12703:12707   */\n      dup3\n        /* \"#utility.yul\":12699:12715   */\n      shr\n        /* \"#utility.yul\":12678:12715   */\n      swap1\n      pop\n        /* \"#utility.yul\":12605:12722   */\n      swap3\n      swap2\n      pop\n      pop\n      jump\t// out\n        /* \"#utility.yul\":12728:12897   */\n    tag_156:\n        /* \"#utility.yul\":12772:12778   */\n      0x00\n        /* \"#utility.yul\":12805:12856   */\n      tag_317\n        /* \"#utility.yul\":12853:12854   */\n      0x00\n        /* \"#utility.yul\":12849:12855   */\n      not\n        /* \"#utility.yul\":12841:12846   */\n      dup5\n        /* \"#utility.yul\":12838:12839   */\n      0x08\n        /* \"#utility.yul\":12834:12847   */\n      mul\n        /* \"#utility.yul\":12805:12856   */\n      tag_155\n      jump\t// in\n    tag_317:\n        /* \"#utility.yul\":12801:12857   */\n      not\n        /* \"#utility.yul\":12886:12890   */\n      dup1\n        /* \"#utility.yul\":12880:12884   */\n      dup4\n        /* \"#utility.yul\":12876:12891   */\n      and\n        /* \"#utility.yul\":12866:12891   */\n      swap2\n      pop\n        /* \"#utility.yul\":12779:12897   */\n      pop\n        /* \"#utility.yul\":12728:12897   */\n      swap3\n      swap2\n      pop\n      pop\n      jump\t// out\n        /* \"#utility.yul\":12902:13197   */\n    tag_157:\n        /* \"#utility.yul\":12978:12982   */\n      0x00\n        /* \"#utility.yul\":13124:13153   */\n      tag_319\n        /* \"#utility.yul\":13149:13152   */\n      dup4\n        /* \"#utility.yul\":13143:13147   */\n      dup4\n        /* \"#utility.yul\":13124:13153   */\n      tag_156\n      jump\t// in\n    tag_319:\n        /* \"#utility.yul\":13116:13153   */\n      swap2\n      pop\n        /* \"#utility.yul\":13186:13189   */\n      dup3\n        /* \"#utility.yul\":13183:13184   */\n      0x02\n        /* \"#utility.yul\":13179:13190   */\n      mul\n        /* \"#utility.yul\":13173:13177   */\n      dup3\n        /* \"#utility.yul\":13170:13191   */\n      or\n        /* \"#utility.yul\":13162:13191   */\n      swap1\n      pop\n        /* \"#utility.yul\":12902:13197   */\n      swap3\n      swap2\n      pop\n      pop\n      jump\t// out\n        /* \"#utility.yul\":13202:14597   */\n    tag_52:\n        /* \"#utility.yul\":13319:13356   */\n      tag_321\n        /* \"#utility.yul\":13352:13355   */\n      dup3\n        /* \"#utility.yul\":13319:13356   */\n      tag_140\n      jump\t// in\n    tag_321:\n        /* \"#utility.yul\":13421:13439   */\n      0xffffffffffffffff\n        /* \"#utility.yul\":13413:13419   */\n      dup2\n        /* \"#utility.yul\":13410:13440   */\n      gt\n        /* \"#utility.yul\":13407:13463   */\n      iszero\n      tag_322\n      jumpi\n        /* \"#utility.yul\":13443:13461   */\n      tag_323\n      tag_129\n      jump\t// in\n    tag_323:\n        /* \"#utility.yul\":13407:13463   */\n    tag_322:\n        /* \"#utility.yul\":13487:13525   */\n      tag_324\n        /* \"#utility.yul\":13519:13523   */\n      dup3\n        /* \"#utility.yul\":13513:13524   */\n      sload\n        /* \"#utility.yul\":13487:13525   */\n      tag_142\n      jump\t// in\n    tag_324:\n        /* \"#utility.yul\":13572:13639   */\n      tag_325\n        /* \"#utility.yul\":13632:13638   */\n      dup3\n        /* \"#utility.yul\":13624:13630   */\n      dup3\n        /* \"#utility.yul\":13618:13622   */\n      dup6\n        /* \"#utility.yul\":13572:13639   */\n      tag_154\n      jump\t// in\n    tag_325:\n        /* \"#utility.yul\":13666:13667   */\n      0x00\n        /* \"#utility.yul\":13690:13694   */\n      0x20\n        /* \"#utility.yul\":13677:13694   */\n      swap1\n      pop\n        /* \"#utility.yul\":13722:13724   */\n      0x1f\n        /* \"#utility.yul\":13714:13720   */\n      dup4\n        /* \"#utility.yul\":13711:13725   */\n      gt\n        /* \"#utility.yul\":13739:13740   */\n      0x01\n        /* \"#utility.yul\":13734:14352   */\n      dup2\n      eq\n      tag_327\n      jumpi\n        /* \"#utility.yul\":14396:14397   */\n      0x00\n        /* \"#utility.yul\":14413:14419   */\n      dup5\n        /* \"#utility.yul\":14410:14487   */\n      iszero\n      tag_328\n      jumpi\n        /* \"#utility.yul\":14462:14471   */\n      dup3\n        /* \"#utility.yul\":14457:14460   */\n      dup8\n        /* \"#utility.yul\":14453:14472   */\n      add\n        /* \"#utility.yul\":14447:14473   */\n      mload\n        /* \"#utility.yul\":14438:14473   */\n      swap1\n      pop\n        /* \"#utility.yul\":14410:14487   */\n    tag_328:\n        /* \"#utility.yul\":14513:14580   */\n      tag_329\n        /* \"#utility.yul\":14573:14579   */\n      dup6\n        /* \"#utility.yul\":14566:14571   */\n      dup3\n        /* \"#utility.yul\":14513:14580   */\n      tag_157\n      jump\t// in\n    tag_329:\n        /* \"#utility.yul\":14507:14511   */\n      dup7\n        /* \"#utility.yul\":14500:14581   */\n      sstore\n        /* \"#utility.yul\":14369:14591   */\n      pop\n        /* \"#utility.yul\":13704:14591   */\n      jump(tag_326)\n        /* \"#utility.yul\":13734:14352   */\n    tag_327:\n        /* \"#utility.yul\":13786:13790   */\n      0x1f\n        /* \"#utility.yul\":13782:13791   */\n      not\n        /* \"#utility.yul\":13774:13780   */\n      dup5\n        /* \"#utility.yul\":13770:13792   */\n      and\n        /* \"#utility.yul\":13820:13857   */\n      tag_330\n        /* \"#utility.yul\":13852:13856   */\n      dup7\n        /* \"#utility.yul\":13820:13857   */\n      tag_143\n      jump\t// in\n    tag_330:\n        /* \"#utility.yul\":13879:13880   */\n      0x00\n        /* \"#utility.yul\":13893:14101   */\n    tag_331:\n        /* \"#utility.yul\":13907:13914   */\n      dup3\n        /* \"#utility.yul\":13904:13905   */\n      dup2\n        /* \"#utility.yul\":13901:13915   */\n      lt\n        /* \"#utility.yul\":13893:14101   */\n      iszero\n      tag_333\n      jumpi\n        /* \"#utility.yul\":13986:13995   */\n      dup5\n        /* \"#utility.yul\":13981:13984   */\n      dup10\n        /* \"#utility.yul\":13977:13996   */\n      add\n        /* \"#utility.yul\":13971:13997   */\n      mload\n        /* \"#utility.yul\":13963:13969   */\n      dup3\n        /* \"#utility.yul\":13956:13998   */\n      sstore\n        /* \"#utility.yul\":14037:14038   */\n      0x01\n        /* \"#utility.yul\":14029:14035   */\n      dup3\n        /* \"#utility.yul\":14025:14039   */\n      add\n        /* \"#utility.yul\":14015:14039   */\n      swap2\n      pop\n        /* \"#utility.yul\":14084:14086   */\n      0x20\n        /* \"#utility.yul\":14073:14082   */\n      dup6\n        /* \"#utility.yul\":14069:14087   */\n      add\n        /* \"#utility.yul\":14056:14087   */\n      swap5\n      pop\n        /* \"#utility.yul\":13930:13934   */\n      0x20\n        /* \"#utility.yul\":13927:13928   */\n      dup2\n        /* \"#utility.yul\":13923:13935   */\n      add\n        /* \"#utility.yul\":13918:13935   */\n      swap1\n      pop\n        /* \"#utility.yul\":13893:14101   */\n      jump(tag_331)\n    tag_333:\n        /* \"#utility.yul\":14129:14135   */\n      dup7\n        /* \"#utility.yul\":14120:14127   */\n      dup4\n        /* \"#utility.yul\":14117:14136   */\n      lt\n        /* \"#utility.yul\":14114:14293   */\n      iszero\n      tag_334\n      jumpi\n        /* \"#utility.yul\":14187:14196   */\n      dup5\n        /* \"#utility.yul\":14182:14185   */\n      dup10\n        /* \"#utility.yul\":14178:14197   */\n      add\n        /* \"#utility.yul\":14172:14198   */\n      mload\n        /* \"#utility.yul\":14230:14278   */\n      tag_335\n        /* \"#utility.yul\":14272:14276   */\n      0x1f\n        /* \"#utility.yul\":14264:14270   */\n      dup10\n        /* \"#utility.yul\":14260:14277   */\n      and\n        /* \"#utility.yul\":14249:14258   */\n      dup3\n        /* \"#utility.yul\":14230:14278   */\n      tag_156\n      jump\t// in\n    tag_335:\n        /* \"#utility.yul\":14222:14228   */\n      dup4\n        /* \"#utility.yul\":14215:14279   */\n      sstore\n        /* \"#utility.yul\":14137:14293   */\n      pop\n        /* \"#utility.yul\":14114:14293   */\n    tag_334:\n        /* \"#utility.yul\":14339:14340   */\n      0x01\n        /* \"#utility.yul\":14335:14336   */\n      0x02\n        /* \"#utility.yul\":14327:14333   */\n      dup9\n        /* \"#utility.yul\":14323:14337   */\n      mul\n        /* \"#utility.yul\":14319:14341   */\n      add\n        /* \"#utility.yul\":14313:14317   */\n      dup9\n        /* \"#utility.yul\":14306:14342   */\n      sstore\n        /* \"#utility.yul\":13741:14352   */\n      pop\n      pop\n      pop\n        /* \"#utility.yul\":13704:14591   */\n    tag_326:\n      pop\n        /* \"#utility.yul\":13294:14597   */\n      pop\n      pop\n      pop\n        /* \"#utility.yul\":13202:14597   */\n      pop\n      pop\n      jump\t// out\n        /* \"#utility.yul\":14603:14763   */\n    tag_158:\n        /* \"#utility.yul\":14743:14755   */\n      0x496e76616c696420496400000000000000000000000000000000000000000000\n        /* \"#utility.yul\":14739:14740   */\n      0x00\n        /* \"#utility.yul\":14731:14737   */\n      dup3\n        /* \"#utility.yul\":14727:14741   */\n      add\n        /* \"#utility.yul\":14720:14756   */\n      mstore\n        /* \"#utility.yul\":14603:14763   */\n      pop\n      jump\t// out\n        /* \"#utility.yul\":14769:15135   */\n    tag_159:\n        /* \"#utility.yul\":14911:14914   */\n      0x00\n        /* \"#utility.yul\":14932:14999   */\n      tag_338\n        /* \"#utility.yul\":14996:14998   */\n      0x0a\n        /* \"#utility.yul\":14991:14994   */\n      dup4\n        /* \"#utility.yul\":14932:14999   */\n      tag_136\n      jump\t// in\n    tag_338:\n        /* \"#utility.yul\":14925:14999   */\n      swap2\n      pop\n        /* \"#utility.yul\":15008:15101   */\n      tag_339\n        /* \"#utility.yul\":15097:15100   */\n      dup3\n        /* \"#utility.yul\":15008:15101   */\n      tag_158\n      jump\t// in\n    tag_339:\n        /* \"#utility.yul\":15126:15128   */\n      0x20\n        /* \"#utility.yul\":15121:15124   */\n      dup3\n        /* \"#utility.yul\":15117:15129   */\n      add\n        /* \"#utility.yul\":15110:15129   */\n      swap1\n      pop\n        /* \"#utility.yul\":14769:15135   */\n      swap2\n      swap1\n      pop\n      jump\t// out\n        /* \"#utility.yul\":15141:15560   */\n    tag_58:\n        /* \"#utility.yul\":15307:15311   */\n      0x00\n        /* \"#utility.yul\":15345:15347   */\n      0x20\n        /* \"#utility.yul\":15334:15343   */\n      dup3\n        /* \"#utility.yul\":15330:15348   */\n      add\n        /* \"#utility.yul\":15322:15348   */\n      swap1\n      pop\n        /* \"#utility.yul\":15394:15403   */\n      dup2\n        /* \"#utility.yul\":15388:15392   */\n      dup2\n        /* \"#utility.yul\":15384:15404   */\n      sub\n        /* \"#utility.yul\":15380:15381   */\n      0x00\n        /* \"#utility.yul\":15369:15378   */\n      dup4\n        /* \"#utility.yul\":15365:15382   */\n      add\n        /* \"#utility.yul\":15358:15405   */\n      mstore\n        /* \"#utility.yul\":15422:15553   */\n      tag_341\n        /* \"#utility.yul\":15548:15552   */\n      dup2\n        /* \"#utility.yul\":15422:15553   */\n      tag_159\n      jump\t// in\n    tag_341:\n        /* \"#utility.yul\":15414:15553   */\n      swap1\n      pop\n        /* \"#utility.yul\":15141:15560   */\n      swap2\n      swap1\n      pop\n      jump\t// out\n        /* \"#utility.yul\":15566:15743   */\n    tag_160:\n        /* \"#utility.yul\":15706:15735   */\n      0x596f752063616e6e6f74206163636573732074686973206974656d0000000000\n        /* \"#utility.yul\":15702:15703   */\n      0x00\n        /* \"#utility.yul\":15694:15700   */\n      dup3\n        /* \"#utility.yul\":15690:15704   */\n      add\n        /* \"#utility.yul\":15683:15736   */\n      mstore\n        /* \"#utility.yul\":15566:15743   */\n      pop\n      jump\t// out\n        /* \"#utility.yul\":15749:16115   */\n    tag_161:\n        /* \"#utility.yul\":15891:15894   */\n      0x00\n        /* \"#utility.yul\":15912:15979   */\n      tag_344\n        /* \"#utility.yul\":15976:15978   */\n      0x1b\n        /* \"#utility.yul\":15971:15974   */\n      dup4\n        /* \"#utility.yul\":15912:15979   */\n      tag_136\n      jump\t// in\n    tag_344:\n        /* \"#utility.yul\":15905:15979   */\n      swap2\n      pop\n        /* \"#utility.yul\":15988:16081   */\n      tag_345\n        /* \"#utility.yul\":16077:16080   */\n      dup3\n        /* \"#utility.yul\":15988:16081   */\n      tag_160\n      jump\t// in\n    tag_345:\n        /* \"#utility.yul\":16106:16108   */\n      0x20\n        /* \"#utility.yul\":16101:16104   */\n      dup3\n        /* \"#utility.yul\":16097:16109   */\n      add\n        /* \"#utility.yul\":16090:16109   */\n      swap1\n      pop\n        /* \"#utility.yul\":15749:16115   */\n      swap2\n      swap1\n      pop\n      jump\t// out\n        /* \"#utility.yul\":16121:16540   */\n    tag_61:\n        /* \"#utility.yul\":16287:16291   */\n      0x00\n        /* \"#utility.yul\":16325:16327   */\n      0x20\n        /* \"#utility.yul\":16314:16323   */\n      dup3\n        /* \"#utility.yul\":16310:16328   */\n      add\n        /* \"#utility.yul\":16302:16328   */\n      swap1\n      pop\n        /* \"#utility.yul\":16374:16383   */\n      dup2\n        /* \"#utility.yul\":16368:16372   */\n      dup2\n        /* \"#utility.yul\":16364:16384   */\n      sub\n        /* \"#utility.yul\":16360:16361   */\n      0x00\n        /* \"#utility.yul\":16349:16358   */\n      dup4\n        /* \"#utility.yul\":16345:16362   */\n      add\n        /* \"#utility.yul\":16338:16385   */\n      mstore\n        /* \"#utility.yul\":16402:16533   */\n      tag_347\n        /* \"#utility.yul\":16528:16532   */\n      dup2\n        /* \"#utility.yul\":16402:16533   */\n      tag_161\n      jump\t// in\n    tag_347:\n        /* \"#utility.yul\":16394:16533   */\n      swap1\n      pop\n        /* \"#utility.yul\":16121:16540   */\n      swap2\n      swap1\n      pop\n      jump\t// out\n        /* \"#utility.yul\":16546:16709   */\n    tag_162:\n        /* \"#utility.yul\":16686:16701   */\n      0x496e76616c696420507269636500000000000000000000000000000000000000\n        /* \"#utility.yul\":16682:16683   */\n      0x00\n        /* \"#utility.yul\":16674:16680   */\n      dup3\n        /* \"#utility.yul\":16670:16684   */\n      add\n        /* \"#utility.yul\":16663:16702   */\n      mstore\n        /* \"#utility.yul\":16546:16709   */\n      pop\n      jump\t// out\n        /* \"#utility.yul\":16715:17081   */\n    tag_163:\n        /* \"#utility.yul\":16857:16860   */\n      0x00\n        /* \"#utility.yul\":16878:16945   */\n      tag_350\n        /* \"#utility.yul\":16942:16944   */\n      0x0d\n        /* \"#utility.yul\":16937:16940   */\n      dup4\n        /* \"#utility.yul\":16878:16945   */\n      tag_136\n      jump\t// in\n    tag_350:\n        /* \"#utility.yul\":16871:16945   */\n      swap2\n      pop\n        /* \"#utility.yul\":16954:17047   */\n      tag_351\n        /* \"#utility.yul\":17043:17046   */\n      dup3\n        /* \"#utility.yul\":16954:17047   */\n      tag_162\n      jump\t// in\n    tag_351:\n        /* \"#utility.yul\":17072:17074   */\n      0x20\n        /* \"#utility.yul\":17067:17070   */\n      dup3\n        /* \"#utility.yul\":17063:17075   */\n      add\n        /* \"#utility.yul\":17056:17075   */\n      swap1\n      pop\n        /* \"#utility.yul\":16715:17081   */\n      swap2\n      swap1\n      pop\n      jump\t// out\n        /* \"#utility.yul\":17087:17506   */\n    tag_70:\n        /* \"#utility.yul\":17253:17257   */\n      0x00\n        /* \"#utility.yul\":17291:17293   */\n      0x20\n        /* \"#utility.yul\":17280:17289   */\n      dup3\n        /* \"#utility.yul\":17276:17294   */\n      add\n        /* \"#utility.yul\":17268:17294   */\n      swap1\n      pop\n        /* \"#utility.yul\":17340:17349   */\n      dup2\n        /* \"#utility.yul\":17334:17338   */\n      dup2\n        /* \"#utility.yul\":17330:17350   */\n      sub\n        /* \"#utility.yul\":17326:17327   */\n      0x00\n        /* \"#utility.yul\":17315:17324   */\n      dup4\n        /* \"#utility.yul\":17311:17328   */\n      add\n        /* \"#utility.yul\":17304:17351   */\n      mstore\n        /* \"#utility.yul\":17368:17499   */\n      tag_353\n        /* \"#utility.yul\":17494:17498   */\n      dup2\n        /* \"#utility.yul\":17368:17499   */\n      tag_163\n      jump\t// in\n    tag_353:\n        /* \"#utility.yul\":17360:17499   */\n      swap1\n      pop\n        /* \"#utility.yul\":17087:17506   */\n      swap2\n      swap1\n      pop\n      jump\t// out\n        /* \"#utility.yul\":17512:17679   */\n    tag_164:\n        /* \"#utility.yul\":17652:17671   */\n      0x4974656d20616c726561647920736f6c64000000000000000000000000000000\n        /* \"#utility.yul\":17648:17649   */\n      0x00\n        /* \"#utility.yul\":17640:17646   */\n      dup3\n        /* \"#utility.yul\":17636:17650   */\n      add\n        /* \"#utility.yul\":17629:17672   */\n      mstore\n        /* \"#utility.yul\":17512:17679   */\n      pop\n      jump\t// out\n        /* \"#utility.yul\":17685:18051   */\n    tag_165:\n        /* \"#utility.yul\":17827:17830   */\n      0x00\n        /* \"#utility.yul\":17848:17915   */\n      tag_356\n        /* \"#utility.yul\":17912:17914   */\n      0x11\n        /* \"#utility.yul\":17907:17910   */\n      dup4\n        /* \"#utility.yul\":17848:17915   */\n      tag_136\n      jump\t// in\n    tag_356:\n        /* \"#utility.yul\":17841:17915   */\n      swap2\n      pop\n        /* \"#utility.yul\":17924:18017   */\n      tag_357\n        /* \"#utility.yul\":18013:18016   */\n      dup3\n        /* \"#utility.yul\":17924:18017   */\n      tag_164\n      jump\t// in\n    tag_357:\n        /* \"#utility.yul\":18042:18044   */\n      0x20\n        /* \"#utility.yul\":18037:18040   */\n      dup3\n        /* \"#utility.yul\":18033:18045   */\n      add\n        /* \"#utility.yul\":18026:18045   */\n      swap1\n      pop\n        /* \"#utility.yul\":17685:18051   */\n      swap2\n      swap1\n      pop\n      jump\t// out\n        /* \"#utility.yul\":18057:18476   */\n    tag_73:\n        /* \"#utility.yul\":18223:18227   */\n      0x00\n        /* \"#utility.yul\":18261:18263   */\n      0x20\n        /* \"#utility.yul\":18250:18259   */\n      dup3\n        /* \"#utility.yul\":18246:18264   */\n      add\n        /* \"#utility.yul\":18238:18264   */\n      swap1\n      pop\n        /* \"#utility.yul\":18310:18319   */\n      dup2\n        /* \"#utility.yul\":18304:18308   */\n      dup2\n        /* \"#utility.yul\":18300:18320   */\n      sub\n        /* \"#utility.yul\":18296:18297   */\n      0x00\n        /* \"#utility.yul\":18285:18294   */\n      dup4\n        /* \"#utility.yul\":18281:18298   */\n      add\n        /* \"#utility.yul\":18274:18321   */\n      mstore\n        /* \"#utility.yul\":18338:18469   */\n      tag_359\n        /* \"#utility.yul\":18464:18468   */\n      dup2\n        /* \"#utility.yul\":18338:18469   */\n      tag_165\n      jump\t// in\n    tag_359:\n        /* \"#utility.yul\":18330:18469   */\n      swap1\n      pop\n        /* \"#utility.yul\":18057:18476   */\n      swap2\n      swap1\n      pop\n      jump\t// out\n        /* \"#utility.yul\":18482:18704   */\n    tag_166:\n        /* \"#utility.yul\":18622:18656   */\n      0x53656c6c65722063616e6e6f7420627579207468656972206f776e2070726f64\n        /* \"#utility.yul\":18618:18619   */\n      0x00\n        /* \"#utility.yul\":18610:18616   */\n      dup3\n        /* \"#utility.yul\":18606:18620   */\n      add\n        /* \"#utility.yul\":18599:18657   */\n      mstore\n        /* \"#utility.yul\":18691:18696   */\n      0x7563740000000000000000000000000000000000000000000000000000000000\n        /* \"#utility.yul\":18686:18688   */\n      0x20\n        /* \"#utility.yul\":18678:18684   */\n      dup3\n        /* \"#utility.yul\":18674:18689   */\n      add\n        /* \"#utility.yul\":18667:18697   */\n      mstore\n        /* \"#utility.yul\":18482:18704   */\n      pop\n      jump\t// out\n        /* \"#utility.yul\":18710:19076   */\n    tag_167:\n        /* \"#utility.yul\":18852:18855   */\n      0x00\n        /* \"#utility.yul\":18873:18940   */\n      tag_362\n        /* \"#utility.yul\":18937:18939   */\n      0x23\n        /* \"#utility.yul\":18932:18935   */\n      dup4\n        /* \"#utility.yul\":18873:18940   */\n      tag_136\n      jump\t// in\n    tag_362:\n        /* \"#utility.yul\":18866:18940   */\n      swap2\n      pop\n        /* \"#utility.yul\":18949:19042   */\n      tag_363\n        /* \"#utility.yul\":19038:19041   */\n      dup3\n        /* \"#utility.yul\":18949:19042   */\n      tag_166\n      jump\t// in\n    tag_363:\n        /* \"#utility.yul\":19067:19069   */\n      0x40\n        /* \"#utility.yul\":19062:19065   */\n      dup3\n        /* \"#utility.yul\":19058:19070   */\n      add\n        /* \"#utility.yul\":19051:19070   */\n      swap1\n      pop\n        /* \"#utility.yul\":18710:19076   */\n      swap2\n      swap1\n      pop\n      jump\t// out\n        /* \"#utility.yul\":19082:19501   */\n    tag_76:\n        /* \"#utility.yul\":19248:19252   */\n      0x00\n        /* \"#utility.yul\":19286:19288   */\n      0x20\n        /* \"#utility.yul\":19275:19284   */\n      dup3\n        /* \"#utility.yul\":19271:19289   */\n      add\n        /* \"#utility.yul\":19263:19289   */\n      swap1\n      pop\n        /* \"#utility.yul\":19335:19344   */\n      dup2\n        /* \"#utility.yul\":19329:19333   */\n      dup2\n        /* \"#utility.yul\":19325:19345   */\n      sub\n        /* \"#utility.yul\":19321:19322   */\n      0x00\n        /* \"#utility.yul\":19310:19319   */\n      dup4\n        /* \"#utility.yul\":19306:19323   */\n      add\n        /* \"#utility.yul\":19299:19346   */\n      mstore\n        /* \"#utility.yul\":19363:19494   */\n      tag_365\n        /* \"#utility.yul\":19489:19493   */\n      dup2\n        /* \"#utility.yul\":19363:19494   */\n      tag_167\n      jump\t// in\n    tag_365:\n        /* \"#utility.yul\":19355:19494   */\n      swap1\n      pop\n        /* \"#utility.yul\":19082:19501   */\n      swap2\n      swap1\n      pop\n      jump\t// out\n        /* \"#utility.yul\":19507:19654   */\n    tag_168:\n        /* \"#utility.yul\":19608:19619   */\n      0x00\n        /* \"#utility.yul\":19645:19648   */\n      dup2\n        /* \"#utility.yul\":19630:19648   */\n      swap1\n      pop\n        /* \"#utility.yul\":19507:19654   */\n      swap3\n      swap2\n      pop\n      pop\n      jump\t// out\n        /* \"#utility.yul\":19660:19774   */\n    tag_169:\n      pop\n      jump\t// out\n        /* \"#utility.yul\":19780:20178   */\n    tag_170:\n        /* \"#utility.yul\":19939:19942   */\n      0x00\n        /* \"#utility.yul\":19960:20043   */\n      tag_369\n        /* \"#utility.yul\":20041:20042   */\n      0x00\n        /* \"#utility.yul\":20036:20039   */\n      dup4\n        /* \"#utility.yul\":19960:20043   */\n      tag_168\n      jump\t// in\n    tag_369:\n        /* \"#utility.yul\":19953:20043   */\n      swap2\n      pop\n        /* \"#utility.yul\":20052:20145   */\n      tag_370\n        /* \"#utility.yul\":20141:20144   */\n      dup3\n        /* \"#utility.yul\":20052:20145   */\n      tag_169\n      jump\t// in\n    tag_370:\n        /* \"#utility.yul\":20170:20171   */\n      0x00\n        /* \"#utility.yul\":20165:20168   */\n      dup3\n        /* \"#utility.yul\":20161:20172   */\n      add\n        /* \"#utility.yul\":20154:20172   */\n      swap1\n      pop\n        /* \"#utility.yul\":19780:20178   */\n      swap2\n      swap1\n      pop\n      jump\t// out\n        /* \"#utility.yul\":20184:20563   */\n    tag_79:\n        /* \"#utility.yul\":20368:20371   */\n      0x00\n        /* \"#utility.yul\":20390:20537   */\n      tag_372\n        /* \"#utility.yul\":20533:20536   */\n      dup3\n        /* \"#utility.yul\":20390:20537   */\n      tag_170\n      jump\t// in\n    tag_372:\n        /* \"#utility.yul\":20383:20537   */\n      swap2\n      pop\n        /* \"#utility.yul\":20554:20557   */\n      dup2\n        /* \"#utility.yul\":20547:20557   */\n      swap1\n      pop\n        /* \"#utility.yul\":20184:20563   */\n      swap2\n      swap1\n      pop\n      jump\t// out\n        /* \"#utility.yul\":20569:20734   */\n    tag_171:\n        /* \"#utility.yul\":20709:20726   */\n      0x5472616e73666572206661696c65640000000000000000000000000000000000\n        /* \"#utility.yul\":20705:20706   */\n      0x00\n        /* \"#utility.yul\":20697:20703   */\n      dup3\n        /* \"#utility.yul\":20693:20707   */\n      add\n        /* \"#utility.yul\":20686:20727   */\n      mstore\n        /* \"#utility.yul\":20569:20734   */\n      pop\n      jump\t// out\n        /* \"#utility.yul\":20740:21106   */\n    tag_172:\n        /* \"#utility.yul\":20882:20885   */\n      0x00\n        /* \"#utility.yul\":20903:20970   */\n      tag_375\n        /* \"#utility.yul\":20967:20969   */\n      0x0f\n        /* \"#utility.yul\":20962:20965   */\n      dup4\n        /* \"#utility.yul\":20903:20970   */\n      tag_136\n      jump\t// in\n    tag_375:\n        /* \"#utility.yul\":20896:20970   */\n      swap2\n      pop\n        /* \"#utility.yul\":20979:21072   */\n      tag_376\n        /* \"#utility.yul\":21068:21071   */\n      dup3\n        /* \"#utility.yul\":20979:21072   */\n      tag_171\n      jump\t// in\n    tag_376:\n        /* \"#utility.yul\":21097:21099   */\n      0x20\n        /* \"#utility.yul\":21092:21095   */\n      dup3\n        /* \"#utility.yul\":21088:21100   */\n      add\n        /* \"#utility.yul\":21081:21100   */\n      swap1\n      pop\n        /* \"#utility.yul\":20740:21106   */\n      swap2\n      swap1\n      pop\n      jump\t// out\n        /* \"#utility.yul\":21112:21531   */\n    tag_85:\n        /* \"#utility.yul\":21278:21282   */\n      0x00\n        /* \"#utility.yul\":21316:21318   */\n      0x20\n        /* \"#utility.yul\":21305:21314   */\n      dup3\n        /* \"#utility.yul\":21301:21319   */\n      add\n        /* \"#utility.yul\":21293:21319   */\n      swap1\n      pop\n        /* \"#utility.yul\":21365:21374   */\n      dup2\n        /* \"#utility.yul\":21359:21363   */\n      dup2\n        /* \"#utility.yul\":21355:21375   */\n      sub\n        /* \"#utility.yul\":21351:21352   */\n      0x00\n        /* \"#utility.yul\":21340:21349   */\n      dup4\n        /* \"#utility.yul\":21336:21353   */\n      add\n        /* \"#utility.yul\":21329:21376   */\n      mstore\n        /* \"#utility.yul\":21393:21524   */\n      tag_378\n        /* \"#utility.yul\":21519:21523   */\n      dup2\n        /* \"#utility.yul\":21393:21524   */\n      tag_172\n      jump\t// in\n    tag_378:\n        /* \"#utility.yul\":21385:21524   */\n      swap1\n      pop\n        /* \"#utility.yul\":21112:21531   */\n      swap2\n      swap1\n      pop\n      jump\t// out\n        /* \"#utility.yul\":21537:21717   */\n    tag_92:\n        /* \"#utility.yul\":21585:21662   */\n      0x4e487b7100000000000000000000000000000000000000000000000000000000\n        /* \"#utility.yul\":21582:21583   */\n      0x00\n        /* \"#utility.yul\":21575:21663   */\n      mstore\n        /* \"#utility.yul\":21682:21686   */\n      0x32\n        /* \"#utility.yul\":21679:21680   */\n      0x04\n        /* \"#utility.yul\":21672:21687   */\n      mstore\n        /* \"#utility.yul\":21706:21710   */\n      0x24\n        /* \"#utility.yul\":21703:21704   */\n      0x00\n        /* \"#utility.yul\":21696:21711   */\n      revert\n        /* \"#utility.yul\":21723:21917   */\n    tag_96:\n        /* \"#utility.yul\":21763:21767   */\n      0x00\n        /* \"#utility.yul\":21783:21803   */\n      tag_381\n        /* \"#utility.yul\":21801:21802   */\n      dup3\n        /* \"#utility.yul\":21783:21803   */\n      tag_118\n      jump\t// in\n    tag_381:\n        /* \"#utility.yul\":21778:21803   */\n      swap2\n      pop\n        /* \"#utility.yul\":21817:21837   */\n      tag_382\n        /* \"#utility.yul\":21835:21836   */\n      dup4\n        /* \"#utility.yul\":21817:21837   */\n      tag_118\n      jump\t// in\n    tag_382:\n        /* \"#utility.yul\":21812:21837   */\n      swap3\n      pop\n        /* \"#utility.yul\":21861:21862   */\n      dup3\n        /* \"#utility.yul\":21858:21859   */\n      dup3\n        /* \"#utility.yul\":21854:21863   */\n      sub\n        /* \"#utility.yul\":21846:21863   */\n      swap1\n      pop\n        /* \"#utility.yul\":21885:21886   */\n      dup2\n        /* \"#utility.yul\":21879:21883   */\n      dup2\n        /* \"#utility.yul\":21876:21887   */\n      gt\n        /* \"#utility.yul\":21873:21910   */\n      iszero\n      tag_383\n      jumpi\n        /* \"#utility.yul\":21890:21908   */\n      tag_384\n      tag_139\n      jump\t// in\n    tag_384:\n        /* \"#utility.yul\":21873:21910   */\n    tag_383:\n        /* \"#utility.yul\":21723:21917   */\n      swap3\n      swap2\n      pop\n      pop\n      jump\t// out\n        /* \"#utility.yul\":21923:22103   */\n    tag_105:\n        /* \"#utility.yul\":21971:22048   */\n      0x4e487b7100000000000000000000000000000000000000000000000000000000\n        /* \"#utility.yul\":21968:21969   */\n      0x00\n        /* \"#utility.yul\":21961:22049   */\n      mstore\n        /* \"#utility.yul\":22068:22072   */\n      0x31\n        /* \"#utility.yul\":22065:22066   */\n      0x04\n        /* \"#utility.yul\":22058:22073   */\n      mstore\n        /* \"#utility.yul\":22092:22096   */\n      0x24\n        /* \"#utility.yul\":22089:22090   */\n      0x00\n        /* \"#utility.yul\":22082:22097   */\n      revert\n\n    auxdata: 0xa264697066735822122025cb5b5cc8c61e4ad046f98c871ea23848ea308a3129ffa681941b15f210512364736f6c634300081a0033\n}\n",
				"bytecode": {
					"linkReferences": {},
					"object": "60806040525f80553480156011575f80fd5b506114ce8061001f5f395ff3fe608060405260043610610054575f3560e01c80632c67a8e51461005857806342846534146100945780636bfb0d01146100d05780638511c937146100fa578063a422910114610122578063e7fb74c71461014a575b5f80fd5b348015610063575f80fd5b5061007e600480360381019061007991906109db565b610166565b60405161008b9190610ac6565b60405180910390f35b34801561009f575f80fd5b506100ba60048036038101906100b59190610b10565b6101f9565b6040516100c79190610b5d565b60405180910390f35b3480156100db575f80fd5b506100e4610224565b6040516100f19190610b5d565b60405180910390f35b348015610105575f80fd5b50610120600480360381019061011b9190610cb2565b610229565b005b34801561012d575f80fd5b5061014860048036038101906101439190610d0c565b61042a565b005b610164600480360381019061015f9190610d4a565b61052e565b005b606060025f8373ffffffffffffffffffffffffffffffffffffffff1673ffffffffffffffffffffffffffffffffffffffff1681526020019081526020015f208054806020026020016040519081016040528092919081815260200182805480156101ed57602002820191905f5260205f20905b8154815260200190600101908083116101d9575b50505050509050919050565b6002602052815f5260405f208181548110610212575f80fd5b905f5260205f20015f91509150505481565b5f5481565b5f811161026b576040517f08c379a000000000000000000000000000000000000000000000000000000000815260040161026290610dcf565b60405180910390fd5b5f80815461027890610e1a565b919050819055506040518060c001604052805f5481526020018381526020018281526020013373ffffffffffffffffffffffffffffffffffffffff1681526020013373ffffffffffffffffffffffffffffffffffffffff1681526020015f151581525060015f805481526020019081526020015f205f820151815f0155602082015181600101908161030a9190611065565b50604082015181600201556060820151816003015f6101000a81548173ffffffffffffffffffffffffffffffffffffffff021916908373ffffffffffffffffffffffffffffffffffffffff1602179055506080820151816004015f6101000a81548173ffffffffffffffffffffffffffffffffffffffff021916908373ffffffffffffffffffffffffffffffffffffffff16021790555060a08201518160040160146101000a81548160ff02191690831515021790555090505060025f3373ffffffffffffffffffffffffffffffffffffffff1673ffffffffffffffffffffffffffffffffffffffff1681526020019081526020015f205f54908060018154018082558091505060019003905f5260205f20015f90919091909150555050565b5f60015f8481526020019081526020015f2090505f8311801561044e57505f548311155b61048d576040517f08c379a00000000000000000000000000000000000000000000000000000000081526004016104849061117e565b60405180910390fd5b806004015f9054906101000a900473ffffffffffffffffffffffffffffffffffffffff1673ffffffffffffffffffffffffffffffffffffffff163373ffffffffffffffffffffffffffffffffffffffff161461051e576040517f08c379a0000000000000000000000000000000000000000000000000000000008152600401610515906111e6565b60405180910390fd5b6105298333846107c0565b505050565b5f60015f8381526020019081526020015f2090505f8211801561055257505f548211155b610591576040517f08c379a00000000000000000000000000000000000000000000000000000000081526004016105889061117e565b60405180910390fd5b806002015434146105d7576040517f08c379a00000000000000000000000000000000000000000000000000000000081526004016105ce9061124e565b60405180910390fd5b8060040160149054906101000a900460ff1615610629576040517f08c379a0000000000000000000000000000000000000000000000000000000008152600401610620906112b6565b60405180910390fd5b806003015f9054906101000a900473ffffffffffffffffffffffffffffffffffffffff1673ffffffffffffffffffffffffffffffffffffffff163373ffffffffffffffffffffffffffffffffffffffff16036106ba576040517f08c379a00000000000000000000000000000000000000000000000000000000081526004016106b190611344565b60405180910390fd5b60018160040160146101000a81548160ff0219169083151502179055505f816003015f9054906101000a900473ffffffffffffffffffffffffffffffffffffffff1690505f826002015490506107118483336107c0565b5f8273ffffffffffffffffffffffffffffffffffffffff16826040516107369061138f565b5f6040518083038185875af1925050503d805f8114610770576040519150601f19603f3d011682016040523d82523d5f602084013e610775565b606091505b50509050806107b9576040517f08c379a00000000000000000000000000000000000000000000000000000000081526004016107b0906113ed565b60405180910390fd5b5050505050565b5f60015f8581526020019081526020015f20905081816004015f6101000a81548173ffffffffffffffffffffffffffffffffffffffff021916908373ffffffffffffffffffffffffffffffffffffffff1602179055505f60025f8573ffffffffffffffffffffffffffffffffffffffff1673ffffffffffffffffffffffffffffffffffffffff1681526020019081526020015f2090505f5b818054905081101561090757858282815481106108785761087761140b565b5b905f5260205f200154036108fa5781600183805490506108989190611438565b815481106108a9576108a861140b565b5b905f5260205f2001548282815481106108c5576108c461140b565b5b905f5260205f200181905550818054806108e2576108e161146b565b5b600190038181905f5260205f20015f90559055610907565b8080600101915050610858565b5060025f8473ffffffffffffffffffffffffffffffffffffffff1673ffffffffffffffffffffffffffffffffffffffff1681526020019081526020015f2085908060018154018082558091505060019003905f5260205f20015f90919091909150555050505050565b5f604051905090565b5f80fd5b5f80fd5b5f73ffffffffffffffffffffffffffffffffffffffff82169050919050565b5f6109aa82610981565b9050919050565b6109ba816109a0565b81146109c4575f80fd5b50565b5f813590506109d5816109b1565b92915050565b5f602082840312156109f0576109ef610979565b5b5f6109fd848285016109c7565b91505092915050565b5f81519050919050565b5f82825260208201905092915050565b5f819050602082019050919050565b5f819050919050565b610a4181610a2f565b82525050565b5f610a528383610a38565b60208301905092915050565b5f602082019050919050565b5f610a7482610a06565b610a7e8185610a10565b9350610a8983610a20565b805f5b83811015610ab9578151610aa08882610a47565b9750610aab83610a5e565b925050600181019050610a8c565b5085935050505092915050565b5f6020820190508181035f830152610ade8184610a6a565b905092915050565b610aef81610a2f565b8114610af9575f80fd5b50565b5f81359050610b0a81610ae6565b92915050565b5f8060408385031215610b2657610b25610979565b5b5f610b33858286016109c7565b9250506020610b4485828601610afc565b9150509250929050565b610b5781610a2f565b82525050565b5f602082019050610b705f830184610b4e565b92915050565b5f80fd5b5f80fd5b5f601f19601f8301169050919050565b7f4e487b71000000000000000000000000000000000000000000000000000000005f52604160045260245ffd5b610bc482610b7e565b810181811067ffffffffffffffff82111715610be357610be2610b8e565b5b80604052505050565b5f610bf5610970565b9050610c018282610bbb565b919050565b5f67ffffffffffffffff821115610c2057610c1f610b8e565b5b610c2982610b7e565b9050602081019050919050565b828183375f83830152505050565b5f610c56610c5184610c06565b610bec565b905082815260208101848484011115610c7257610c71610b7a565b5b610c7d848285610c36565b509392505050565b5f82601f830112610c9957610c98610b76565b5b8135610ca9848260208601610c44565b91505092915050565b5f8060408385031215610cc857610cc7610979565b5b5f83013567ffffffffffffffff811115610ce557610ce461097d565b5b610cf185828601610c85565b9250506020610d0285828601610afc565b9150509250929050565b5f8060408385031215610d2257610d21610979565b5b5f610d2f85828601610afc565b9250506020610d40858286016109c7565b9150509250929050565b5f60208284031215610d5f57610d5e610979565b5b5f610d6c84828501610afc565b91505092915050565b5f82825260208201905092915050565b7f50726963652063616e2774206265207a65726f000000000000000000000000005f82015250565b5f610db9601383610d75565b9150610dc482610d85565b602082019050919050565b5f6020820190508181035f830152610de681610dad565b9050919050565b7f4e487b71000000000000000000000000000000000000000000000000000000005f52601160045260245ffd5b5f610e2482610a2f565b91507fffffffffffffffffffffffffffffffffffffffffffffffffffffffffffffffff8203610e5657610e55610ded565b5b600182019050919050565b5f81519050919050565b7f4e487b71000000000000000000000000000000000000000000000000000000005f52602260045260245ffd5b5f6002820490506001821680610eaf57607f821691505b602082108103610ec257610ec1610e6b565b5b50919050565b5f819050815f5260205f209050919050565b5f6020601f8301049050919050565b5f82821b905092915050565b5f60088302610f247fffffffffffffffffffffffffffffffffffffffffffffffffffffffffffffffff82610ee9565b610f2e8683610ee9565b95508019841693508086168417925050509392505050565b5f819050919050565b5f610f69610f64610f5f84610a2f565b610f46565b610a2f565b9050919050565b5f819050919050565b610f8283610f4f565b610f96610f8e82610f70565b848454610ef5565b825550505050565b5f90565b610faa610f9e565b610fb5818484610f79565b505050565b5b81811015610fd857610fcd5f82610fa2565b600181019050610fbb565b5050565b601f82111561101d57610fee81610ec8565b610ff784610eda565b81016020851015611006578190505b61101a61101285610eda565b830182610fba565b50505b505050565b5f82821c905092915050565b5f61103d5f1984600802611022565b1980831691505092915050565b5f611055838361102e565b9150826002028217905092915050565b61106e82610e61565b67ffffffffffffffff81111561108757611086610b8e565b5b6110918254610e98565b61109c828285610fdc565b5f60209050601f8311600181146110cd575f84156110bb578287015190505b6110c5858261104a565b86555061112c565b601f1984166110db86610ec8565b5f5b82811015611102578489015182556001820191506020850194506020810190506110dd565b8683101561111f578489015161111b601f89168261102e565b8355505b6001600288020188555050505b505050505050565b7f496e76616c6964204964000000000000000000000000000000000000000000005f82015250565b5f611168600a83610d75565b915061117382611134565b602082019050919050565b5f6020820190508181035f8301526111958161115c565b9050919050565b7f596f752063616e6e6f74206163636573732074686973206974656d00000000005f82015250565b5f6111d0601b83610d75565b91506111db8261119c565b602082019050919050565b5f6020820190508181035f8301526111fd816111c4565b9050919050565b7f496e76616c6964205072696365000000000000000000000000000000000000005f82015250565b5f611238600d83610d75565b915061124382611204565b602082019050919050565b5f6020820190508181035f8301526112658161122c565b9050919050565b7f4974656d20616c726561647920736f6c640000000000000000000000000000005f82015250565b5f6112a0601183610d75565b91506112ab8261126c565b602082019050919050565b5f6020820190508181035f8301526112cd81611294565b9050919050565b7f53656c6c65722063616e6e6f7420627579207468656972206f776e2070726f645f8201527f7563740000000000000000000000000000000000000000000000000000000000602082015250565b5f61132e602383610d75565b9150611339826112d4565b604082019050919050565b5f6020820190508181035f83015261135b81611322565b9050919050565b5f81905092915050565b50565b5f61137a5f83611362565b91506113858261136c565b5f82019050919050565b5f6113998261136f565b9150819050919050565b7f5472616e73666572206661696c656400000000000000000000000000000000005f82015250565b5f6113d7600f83610d75565b91506113e2826113a3565b602082019050919050565b5f6020820190508181035f830152611404816113cb565b9050919050565b7f4e487b71000000000000000000000000000000000000000000000000000000005f52603260045260245ffd5b5f61144282610a2f565b915061144d83610a2f565b925082820390508181111561146557611464610ded565b5b92915050565b7f4e487b71000000000000000000000000000000000000000000000000000000005f52603160045260245ffdfea264697066735822122025cb5b5cc8c61e4ad046f98c871ea23848ea308a3129ffa681941b15f210512364736f6c634300081a0033",
					"opcodes": "PUSH1 0x80 PUSH1 0x40 MSTORE PUSH0 DUP1 SSTORE CALLVALUE DUP1 ISZERO PUSH1 0x11 JUMPI PUSH0 DUP1 REVERT JUMPDEST POP PUSH2 0x14CE DUP1 PUSH2 0x1F PUSH0 CODECOPY PUSH0 RETURN INVALID PUSH1 0x80 PUSH1 0x40 MSTORE PUSH1 0x4 CALLDATASIZE LT PUSH2 0x54 JUMPI PUSH0 CALLDATALOAD PUSH1 0xE0 SHR DUP1 PUSH4 0x2C67A8E5 EQ PUSH2 0x58 JUMPI DUP1 PUSH4 0x42846534 EQ PUSH2 0x94 JUMPI DUP1 PUSH4 0x6BFB0D01 EQ PUSH2 0xD0 JUMPI DUP1 PUSH4 0x8511C937 EQ PUSH2 0xFA JUMPI DUP1 PUSH4 0xA4229101 EQ PUSH2 0x122 JUMPI DUP1 PUSH4 0xE7FB74C7 EQ PUSH2 0x14A JUMPI JUMPDEST PUSH0 DUP1 REVERT JUMPDEST CALLVALUE DUP1 ISZERO PUSH2 0x63 JUMPI PUSH0 DUP1 REVERT JUMPDEST POP PUSH2 0x7E PUSH1 0x4 DUP1 CALLDATASIZE SUB DUP2 ADD SWAP1 PUSH2 0x79 SWAP2 SWAP1 PUSH2 0x9DB JUMP JUMPDEST PUSH2 0x166 JUMP JUMPDEST PUSH1 0x40 MLOAD PUSH2 0x8B SWAP2 SWAP1 PUSH2 0xAC6 JUMP JUMPDEST PUSH1 0x40 MLOAD DUP1 SWAP2 SUB SWAP1 RETURN JUMPDEST CALLVALUE DUP1 ISZERO PUSH2 0x9F JUMPI PUSH0 DUP1 REVERT JUMPDEST POP PUSH2 0xBA PUSH1 0x4 DUP1 CALLDATASIZE SUB DUP2 ADD SWAP1 PUSH2 0xB5 SWAP2 SWAP1 PUSH2 0xB10 JUMP JUMPDEST PUSH2 0x1F9 JUMP JUMPDEST PUSH1 0x40 MLOAD PUSH2 0xC7 SWAP2 SWAP1 PUSH2 0xB5D JUMP JUMPDEST PUSH1 0x40 MLOAD DUP1 SWAP2 SUB SWAP1 RETURN JUMPDEST CALLVALUE DUP1 ISZERO PUSH2 0xDB JUMPI PUSH0 DUP1 REVERT JUMPDEST POP PUSH2 0xE4 PUSH2 0x224 JUMP JUMPDEST PUSH1 0x40 MLOAD PUSH2 0xF1 SWAP2 SWAP1 PUSH2 0xB5D JUMP JUMPDEST PUSH1 0x40 MLOAD DUP1 SWAP2 SUB SWAP1 RETURN JUMPDEST CALLVALUE DUP1 ISZERO PUSH2 0x105 JUMPI PUSH0 DUP1 REVERT JUMPDEST POP PUSH2 0x120 PUSH1 0x4 DUP1 CALLDATASIZE SUB DUP2 ADD SWAP1 PUSH2 0x11B SWAP2 SWAP1 PUSH2 0xCB2 JUMP JUMPDEST PUSH2 0x229 JUMP JUMPDEST STOP JUMPDEST CALLVALUE DUP1 ISZERO PUSH2 0x12D JUMPI PUSH0 DUP1 REVERT JUMPDEST POP PUSH2 0x148 PUSH1 0x4 DUP1 CALLDATASIZE SUB DUP2 ADD SWAP1 PUSH2 0x143 SWAP2 SWAP1 PUSH2 0xD0C JUMP JUMPDEST PUSH2 0x42A JUMP JUMPDEST STOP JUMPDEST PUSH2 0x164 PUSH1 0x4 DUP1 CALLDATASIZE SUB DUP2 ADD SWAP1 PUSH2 0x15F SWAP2 SWAP1 PUSH2 0xD4A JUMP JUMPDEST PUSH2 0x52E JUMP JUMPDEST STOP JUMPDEST PUSH1 0x60 PUSH1 0x2 PUSH0 DUP4 PUSH20 0xFFFFFFFFFFFFFFFFFFFFFFFFFFFFFFFFFFFFFFFF AND PUSH20 0xFFFFFFFFFFFFFFFFFFFFFFFFFFFFFFFFFFFFFFFF AND DUP2 MSTORE PUSH1 0x20 ADD SWAP1 DUP2 MSTORE PUSH1 0x20 ADD PUSH0 KECCAK256 DUP1 SLOAD DUP1 PUSH1 0x20 MUL PUSH1 0x20 ADD PUSH1 0x40 MLOAD SWAP1 DUP2 ADD PUSH1 0x40 MSTORE DUP1 SWAP3 SWAP2 SWAP1 DUP2 DUP2 MSTORE PUSH1 0x20 ADD DUP3 DUP1 SLOAD DUP1 ISZERO PUSH2 0x1ED JUMPI PUSH1 0x20 MUL DUP3 ADD SWAP2 SWAP1 PUSH0 MSTORE PUSH1 0x20 PUSH0 KECCAK256 SWAP1 JUMPDEST DUP2 SLOAD DUP2 MSTORE PUSH1 0x20 ADD SWAP1 PUSH1 0x1 ADD SWAP1 DUP1 DUP4 GT PUSH2 0x1D9 JUMPI JUMPDEST POP POP POP POP POP SWAP1 POP SWAP2 SWAP1 POP JUMP JUMPDEST PUSH1 0x2 PUSH1 0x20 MSTORE DUP2 PUSH0 MSTORE PUSH1 0x40 PUSH0 KECCAK256 DUP2 DUP2 SLOAD DUP2 LT PUSH2 0x212 JUMPI PUSH0 DUP1 REVERT JUMPDEST SWAP1 PUSH0 MSTORE PUSH1 0x20 PUSH0 KECCAK256 ADD PUSH0 SWAP2 POP SWAP2 POP POP SLOAD DUP2 JUMP JUMPDEST PUSH0 SLOAD DUP2 JUMP JUMPDEST PUSH0 DUP2 GT PUSH2 0x26B JUMPI PUSH1 0x40 MLOAD PUSH32 0x8C379A000000000000000000000000000000000000000000000000000000000 DUP2 MSTORE PUSH1 0x4 ADD PUSH2 0x262 SWAP1 PUSH2 0xDCF JUMP JUMPDEST PUSH1 0x40 MLOAD DUP1 SWAP2 SUB SWAP1 REVERT JUMPDEST PUSH0 DUP1 DUP2 SLOAD PUSH2 0x278 SWAP1 PUSH2 0xE1A JUMP JUMPDEST SWAP2 SWAP1 POP DUP2 SWAP1 SSTORE POP PUSH1 0x40 MLOAD DUP1 PUSH1 0xC0 ADD PUSH1 0x40 MSTORE DUP1 PUSH0 SLOAD DUP2 MSTORE PUSH1 0x20 ADD DUP4 DUP2 MSTORE PUSH1 0x20 ADD DUP3 DUP2 MSTORE PUSH1 0x20 ADD CALLER PUSH20 0xFFFFFFFFFFFFFFFFFFFFFFFFFFFFFFFFFFFFFFFF AND DUP2 MSTORE PUSH1 0x20 ADD CALLER PUSH20 0xFFFFFFFFFFFFFFFFFFFFFFFFFFFFFFFFFFFFFFFF AND DUP2 MSTORE PUSH1 0x20 ADD PUSH0 ISZERO ISZERO DUP2 MSTORE POP PUSH1 0x1 PUSH0 DUP1 SLOAD DUP2 MSTORE PUSH1 0x20 ADD SWAP1 DUP2 MSTORE PUSH1 0x20 ADD PUSH0 KECCAK256 PUSH0 DUP3 ADD MLOAD DUP2 PUSH0 ADD SSTORE PUSH1 0x20 DUP3 ADD MLOAD DUP2 PUSH1 0x1 ADD SWAP1 DUP2 PUSH2 0x30A SWAP2 SWAP1 PUSH2 0x1065 JUMP JUMPDEST POP PUSH1 0x40 DUP3 ADD MLOAD DUP2 PUSH1 0x2 ADD SSTORE PUSH1 0x60 DUP3 ADD MLOAD DUP2 PUSH1 0x3 ADD PUSH0 PUSH2 0x100 EXP DUP2 SLOAD DUP2 PUSH20 0xFFFFFFFFFFFFFFFFFFFFFFFFFFFFFFFFFFFFFFFF MUL NOT AND SWAP1 DUP4 PUSH20 0xFFFFFFFFFFFFFFFFFFFFFFFFFFFFFFFFFFFFFFFF AND MUL OR SWAP1 SSTORE POP PUSH1 0x80 DUP3 ADD MLOAD DUP2 PUSH1 0x4 ADD PUSH0 PUSH2 0x100 EXP DUP2 SLOAD DUP2 PUSH20 0xFFFFFFFFFFFFFFFFFFFFFFFFFFFFFFFFFFFFFFFF MUL NOT AND SWAP1 DUP4 PUSH20 0xFFFFFFFFFFFFFFFFFFFFFFFFFFFFFFFFFFFFFFFF AND MUL OR SWAP1 SSTORE POP PUSH1 0xA0 DUP3 ADD MLOAD DUP2 PUSH1 0x4 ADD PUSH1 0x14 PUSH2 0x100 EXP DUP2 SLOAD DUP2 PUSH1 0xFF MUL NOT AND SWAP1 DUP4 ISZERO ISZERO MUL OR SWAP1 SSTORE POP SWAP1 POP POP PUSH1 0x2 PUSH0 CALLER PUSH20 0xFFFFFFFFFFFFFFFFFFFFFFFFFFFFFFFFFFFFFFFF AND PUSH20 0xFFFFFFFFFFFFFFFFFFFFFFFFFFFFFFFFFFFFFFFF AND DUP2 MSTORE PUSH1 0x20 ADD SWAP1 DUP2 MSTORE PUSH1 0x20 ADD PUSH0 KECCAK256 PUSH0 SLOAD SWAP1 DUP1 PUSH1 0x1 DUP2 SLOAD ADD DUP1 DUP3 SSTORE DUP1 SWAP2 POP POP PUSH1 0x1 SWAP1 SUB SWAP1 PUSH0 MSTORE PUSH1 0x20 PUSH0 KECCAK256 ADD PUSH0 SWAP1 SWAP2 SWAP1 SWAP2 SWAP1 SWAP2 POP SSTORE POP POP JUMP JUMPDEST PUSH0 PUSH1 0x1 PUSH0 DUP5 DUP2 MSTORE PUSH1 0x20 ADD SWAP1 DUP2 MSTORE PUSH1 0x20 ADD PUSH0 KECCAK256 SWAP1 POP PUSH0 DUP4 GT DUP1 ISZERO PUSH2 0x44E JUMPI POP PUSH0 SLOAD DUP4 GT ISZERO JUMPDEST PUSH2 0x48D JUMPI PUSH1 0x40 MLOAD PUSH32 0x8C379A000000000000000000000000000000000000000000000000000000000 DUP2 MSTORE PUSH1 0x4 ADD PUSH2 0x484 SWAP1 PUSH2 0x117E JUMP JUMPDEST PUSH1 0x40 MLOAD DUP1 SWAP2 SUB SWAP1 REVERT JUMPDEST DUP1 PUSH1 0x4 ADD PUSH0 SWAP1 SLOAD SWAP1 PUSH2 0x100 EXP SWAP1 DIV PUSH20 0xFFFFFFFFFFFFFFFFFFFFFFFFFFFFFFFFFFFFFFFF AND PUSH20 0xFFFFFFFFFFFFFFFFFFFFFFFFFFFFFFFFFFFFFFFF AND CALLER PUSH20 0xFFFFFFFFFFFFFFFFFFFFFFFFFFFFFFFFFFFFFFFF AND EQ PUSH2 0x51E JUMPI PUSH1 0x40 MLOAD PUSH32 0x8C379A000000000000000000000000000000000000000000000000000000000 DUP2 MSTORE PUSH1 0x4 ADD PUSH2 0x515 SWAP1 PUSH2 0x11E6 JUMP JUMPDEST PUSH1 0x40 MLOAD DUP1 SWAP2 SUB SWAP1 REVERT JUMPDEST PUSH2 0x529 DUP4 CALLER DUP5 PUSH2 0x7C0 JUMP JUMPDEST POP POP POP JUMP JUMPDEST PUSH0 PUSH1 0x1 PUSH0 DUP4 DUP2 MSTORE PUSH1 0x20 ADD SWAP1 DUP2 MSTORE PUSH1 0x20 ADD PUSH0 KECCAK256 SWAP1 POP PUSH0 DUP3 GT DUP1 ISZERO PUSH2 0x552 JUMPI POP PUSH0 SLOAD DUP3 GT ISZERO JUMPDEST PUSH2 0x591 JUMPI PUSH1 0x40 MLOAD PUSH32 0x8C379A000000000000000000000000000000000000000000000000000000000 DUP2 MSTORE PUSH1 0x4 ADD PUSH2 0x588 SWAP1 PUSH2 0x117E JUMP JUMPDEST PUSH1 0x40 MLOAD DUP1 SWAP2 SUB SWAP1 REVERT JUMPDEST DUP1 PUSH1 0x2 ADD SLOAD CALLVALUE EQ PUSH2 0x5D7 JUMPI PUSH1 0x40 MLOAD PUSH32 0x8C379A000000000000000000000000000000000000000000000000000000000 DUP2 MSTORE PUSH1 0x4 ADD PUSH2 0x5CE SWAP1 PUSH2 0x124E JUMP JUMPDEST PUSH1 0x40 MLOAD DUP1 SWAP2 SUB SWAP1 REVERT JUMPDEST DUP1 PUSH1 0x4 ADD PUSH1 0x14 SWAP1 SLOAD SWAP1 PUSH2 0x100 EXP SWAP1 DIV PUSH1 0xFF AND ISZERO PUSH2 0x629 JUMPI PUSH1 0x40 MLOAD PUSH32 0x8C379A000000000000000000000000000000000000000000000000000000000 DUP2 MSTORE PUSH1 0x4 ADD PUSH2 0x620 SWAP1 PUSH2 0x12B6 JUMP JUMPDEST PUSH1 0x40 MLOAD DUP1 SWAP2 SUB SWAP1 REVERT JUMPDEST DUP1 PUSH1 0x3 ADD PUSH0 SWAP1 SLOAD SWAP1 PUSH2 0x100 EXP SWAP1 DIV PUSH20 0xFFFFFFFFFFFFFFFFFFFFFFFFFFFFFFFFFFFFFFFF AND PUSH20 0xFFFFFFFFFFFFFFFFFFFFFFFFFFFFFFFFFFFFFFFF AND CALLER PUSH20 0xFFFFFFFFFFFFFFFFFFFFFFFFFFFFFFFFFFFFFFFF AND SUB PUSH2 0x6BA JUMPI PUSH1 0x40 MLOAD PUSH32 0x8C379A000000000000000000000000000000000000000000000000000000000 DUP2 MSTORE PUSH1 0x4 ADD PUSH2 0x6B1 SWAP1 PUSH2 0x1344 JUMP JUMPDEST PUSH1 0x40 MLOAD DUP1 SWAP2 SUB SWAP1 REVERT JUMPDEST PUSH1 0x1 DUP2 PUSH1 0x4 ADD PUSH1 0x14 PUSH2 0x100 EXP DUP2 SLOAD DUP2 PUSH1 0xFF MUL NOT AND SWAP1 DUP4 ISZERO ISZERO MUL OR SWAP1 SSTORE POP PUSH0 DUP2 PUSH1 0x3 ADD PUSH0 SWAP1 SLOAD SWAP1 PUSH2 0x100 EXP SWAP1 DIV PUSH20 0xFFFFFFFFFFFFFFFFFFFFFFFFFFFFFFFFFFFFFFFF AND SWAP1 POP PUSH0 DUP3 PUSH1 0x2 ADD SLOAD SWAP1 POP PUSH2 0x711 DUP5 DUP4 CALLER PUSH2 0x7C0 JUMP JUMPDEST PUSH0 DUP3 PUSH20 0xFFFFFFFFFFFFFFFFFFFFFFFFFFFFFFFFFFFFFFFF AND DUP3 PUSH1 0x40 MLOAD PUSH2 0x736 SWAP1 PUSH2 0x138F JUMP JUMPDEST PUSH0 PUSH1 0x40 MLOAD DUP1 DUP4 SUB DUP2 DUP6 DUP8 GAS CALL SWAP3 POP POP POP RETURNDATASIZE DUP1 PUSH0 DUP2 EQ PUSH2 0x770 JUMPI PUSH1 0x40 MLOAD SWAP2 POP PUSH1 0x1F NOT PUSH1 0x3F RETURNDATASIZE ADD AND DUP3 ADD PUSH1 0x40 MSTORE RETURNDATASIZE DUP3 MSTORE RETURNDATASIZE PUSH0 PUSH1 0x20 DUP5 ADD RETURNDATACOPY PUSH2 0x775 JUMP JUMPDEST PUSH1 0x60 SWAP2 POP JUMPDEST POP POP SWAP1 POP DUP1 PUSH2 0x7B9 JUMPI PUSH1 0x40 MLOAD PUSH32 0x8C379A000000000000000000000000000000000000000000000000000000000 DUP2 MSTORE PUSH1 0x4 ADD PUSH2 0x7B0 SWAP1 PUSH2 0x13ED JUMP JUMPDEST PUSH1 0x40 MLOAD DUP1 SWAP2 SUB SWAP1 REVERT JUMPDEST POP POP POP POP POP JUMP JUMPDEST PUSH0 PUSH1 0x1 PUSH0 DUP6 DUP2 MSTORE PUSH1 0x20 ADD SWAP1 DUP2 MSTORE PUSH1 0x20 ADD PUSH0 KECCAK256 SWAP1 POP DUP2 DUP2 PUSH1 0x4 ADD PUSH0 PUSH2 0x100 EXP DUP2 SLOAD DUP2 PUSH20 0xFFFFFFFFFFFFFFFFFFFFFFFFFFFFFFFFFFFFFFFF MUL NOT AND SWAP1 DUP4 PUSH20 0xFFFFFFFFFFFFFFFFFFFFFFFFFFFFFFFFFFFFFFFF AND MUL OR SWAP1 SSTORE POP PUSH0 PUSH1 0x2 PUSH0 DUP6 PUSH20 0xFFFFFFFFFFFFFFFFFFFFFFFFFFFFFFFFFFFFFFFF AND PUSH20 0xFFFFFFFFFFFFFFFFFFFFFFFFFFFFFFFFFFFFFFFF AND DUP2 MSTORE PUSH1 0x20 ADD SWAP1 DUP2 MSTORE PUSH1 0x20 ADD PUSH0 KECCAK256 SWAP1 POP PUSH0 JUMPDEST DUP2 DUP1 SLOAD SWAP1 POP DUP2 LT ISZERO PUSH2 0x907 JUMPI DUP6 DUP3 DUP3 DUP2 SLOAD DUP2 LT PUSH2 0x878 JUMPI PUSH2 0x877 PUSH2 0x140B JUMP JUMPDEST JUMPDEST SWAP1 PUSH0 MSTORE PUSH1 0x20 PUSH0 KECCAK256 ADD SLOAD SUB PUSH2 0x8FA JUMPI DUP2 PUSH1 0x1 DUP4 DUP1 SLOAD SWAP1 POP PUSH2 0x898 SWAP2 SWAP1 PUSH2 0x1438 JUMP JUMPDEST DUP2 SLOAD DUP2 LT PUSH2 0x8A9 JUMPI PUSH2 0x8A8 PUSH2 0x140B JUMP JUMPDEST JUMPDEST SWAP1 PUSH0 MSTORE PUSH1 0x20 PUSH0 KECCAK256 ADD SLOAD DUP3 DUP3 DUP2 SLOAD DUP2 LT PUSH2 0x8C5 JUMPI PUSH2 0x8C4 PUSH2 0x140B JUMP JUMPDEST JUMPDEST SWAP1 PUSH0 MSTORE PUSH1 0x20 PUSH0 KECCAK256 ADD DUP2 SWAP1 SSTORE POP DUP2 DUP1 SLOAD DUP1 PUSH2 0x8E2 JUMPI PUSH2 0x8E1 PUSH2 0x146B JUMP JUMPDEST JUMPDEST PUSH1 0x1 SWAP1 SUB DUP2 DUP2 SWAP1 PUSH0 MSTORE PUSH1 0x20 PUSH0 KECCAK256 ADD PUSH0 SWAP1 SSTORE SWAP1 SSTORE PUSH2 0x907 JUMP JUMPDEST DUP1 DUP1 PUSH1 0x1 ADD SWAP2 POP POP PUSH2 0x858 JUMP JUMPDEST POP PUSH1 0x2 PUSH0 DUP5 PUSH20 0xFFFFFFFFFFFFFFFFFFFFFFFFFFFFFFFFFFFFFFFF AND PUSH20 0xFFFFFFFFFFFFFFFFFFFFFFFFFFFFFFFFFFFFFFFF AND DUP2 MSTORE PUSH1 0x20 ADD SWAP1 DUP2 MSTORE PUSH1 0x20 ADD PUSH0 KECCAK256 DUP6 SWAP1 DUP1 PUSH1 0x1 DUP2 SLOAD ADD DUP1 DUP3 SSTORE DUP1 SWAP2 POP POP PUSH1 0x1 SWAP1 SUB SWAP1 PUSH0 MSTORE PUSH1 0x20 PUSH0 KECCAK256 ADD PUSH0 SWAP1 SWAP2 SWAP1 SWAP2 SWAP1 SWAP2 POP SSTORE POP POP POP POP POP JUMP JUMPDEST PUSH0 PUSH1 0x40 MLOAD SWAP1 POP SWAP1 JUMP JUMPDEST PUSH0 DUP1 REVERT JUMPDEST PUSH0 DUP1 REVERT JUMPDEST PUSH0 PUSH20 0xFFFFFFFFFFFFFFFFFFFFFFFFFFFFFFFFFFFFFFFF DUP3 AND SWAP1 POP SWAP2 SWAP1 POP JUMP JUMPDEST PUSH0 PUSH2 0x9AA DUP3 PUSH2 0x981 JUMP JUMPDEST SWAP1 POP SWAP2 SWAP1 POP JUMP JUMPDEST PUSH2 0x9BA DUP2 PUSH2 0x9A0 JUMP JUMPDEST DUP2 EQ PUSH2 0x9C4 JUMPI PUSH0 DUP1 REVERT JUMPDEST POP JUMP JUMPDEST PUSH0 DUP2 CALLDATALOAD SWAP1 POP PUSH2 0x9D5 DUP2 PUSH2 0x9B1 JUMP JUMPDEST SWAP3 SWAP2 POP POP JUMP JUMPDEST PUSH0 PUSH1 0x20 DUP3 DUP5 SUB SLT ISZERO PUSH2 0x9F0 JUMPI PUSH2 0x9EF PUSH2 0x979 JUMP JUMPDEST JUMPDEST PUSH0 PUSH2 0x9FD DUP5 DUP3 DUP6 ADD PUSH2 0x9C7 JUMP JUMPDEST SWAP2 POP POP SWAP3 SWAP2 POP POP JUMP JUMPDEST PUSH0 DUP2 MLOAD SWAP1 POP SWAP2 SWAP1 POP JUMP JUMPDEST PUSH0 DUP3 DUP3 MSTORE PUSH1 0x20 DUP3 ADD SWAP1 POP SWAP3 SWAP2 POP POP JUMP JUMPDEST PUSH0 DUP2 SWAP1 POP PUSH1 0x20 DUP3 ADD SWAP1 POP SWAP2 SWAP1 POP JUMP JUMPDEST PUSH0 DUP2 SWAP1 POP SWAP2 SWAP1 POP JUMP JUMPDEST PUSH2 0xA41 DUP2 PUSH2 0xA2F JUMP JUMPDEST DUP3 MSTORE POP POP JUMP JUMPDEST PUSH0 PUSH2 0xA52 DUP4 DUP4 PUSH2 0xA38 JUMP JUMPDEST PUSH1 0x20 DUP4 ADD SWAP1 POP SWAP3 SWAP2 POP POP JUMP JUMPDEST PUSH0 PUSH1 0x20 DUP3 ADD SWAP1 POP SWAP2 SWAP1 POP JUMP JUMPDEST PUSH0 PUSH2 0xA74 DUP3 PUSH2 0xA06 JUMP JUMPDEST PUSH2 0xA7E DUP2 DUP6 PUSH2 0xA10 JUMP JUMPDEST SWAP4 POP PUSH2 0xA89 DUP4 PUSH2 0xA20 JUMP JUMPDEST DUP1 PUSH0 JUMPDEST DUP4 DUP2 LT ISZERO PUSH2 0xAB9 JUMPI DUP2 MLOAD PUSH2 0xAA0 DUP9 DUP3 PUSH2 0xA47 JUMP JUMPDEST SWAP8 POP PUSH2 0xAAB DUP4 PUSH2 0xA5E JUMP JUMPDEST SWAP3 POP POP PUSH1 0x1 DUP2 ADD SWAP1 POP PUSH2 0xA8C JUMP JUMPDEST POP DUP6 SWAP4 POP POP POP POP SWAP3 SWAP2 POP POP JUMP JUMPDEST PUSH0 PUSH1 0x20 DUP3 ADD SWAP1 POP DUP2 DUP2 SUB PUSH0 DUP4 ADD MSTORE PUSH2 0xADE DUP2 DUP5 PUSH2 0xA6A JUMP JUMPDEST SWAP1 POP SWAP3 SWAP2 POP POP JUMP JUMPDEST PUSH2 0xAEF DUP2 PUSH2 0xA2F JUMP JUMPDEST DUP2 EQ PUSH2 0xAF9 JUMPI PUSH0 DUP1 REVERT JUMPDEST POP JUMP JUMPDEST PUSH0 DUP2 CALLDATALOAD SWAP1 POP PUSH2 0xB0A DUP2 PUSH2 0xAE6 JUMP JUMPDEST SWAP3 SWAP2 POP POP JUMP JUMPDEST PUSH0 DUP1 PUSH1 0x40 DUP4 DUP6 SUB SLT ISZERO PUSH2 0xB26 JUMPI PUSH2 0xB25 PUSH2 0x979 JUMP JUMPDEST JUMPDEST PUSH0 PUSH2 0xB33 DUP6 DUP3 DUP7 ADD PUSH2 0x9C7 JUMP JUMPDEST SWAP3 POP POP PUSH1 0x20 PUSH2 0xB44 DUP6 DUP3 DUP7 ADD PUSH2 0xAFC JUMP JUMPDEST SWAP2 POP POP SWAP3 POP SWAP3 SWAP1 POP JUMP JUMPDEST PUSH2 0xB57 DUP2 PUSH2 0xA2F JUMP JUMPDEST DUP3 MSTORE POP POP JUMP JUMPDEST PUSH0 PUSH1 0x20 DUP3 ADD SWAP1 POP PUSH2 0xB70 PUSH0 DUP4 ADD DUP5 PUSH2 0xB4E JUMP JUMPDEST SWAP3 SWAP2 POP POP JUMP JUMPDEST PUSH0 DUP1 REVERT JUMPDEST PUSH0 DUP1 REVERT JUMPDEST PUSH0 PUSH1 0x1F NOT PUSH1 0x1F DUP4 ADD AND SWAP1 POP SWAP2 SWAP1 POP JUMP JUMPDEST PUSH32 0x4E487B7100000000000000000000000000000000000000000000000000000000 PUSH0 MSTORE PUSH1 0x41 PUSH1 0x4 MSTORE PUSH1 0x24 PUSH0 REVERT JUMPDEST PUSH2 0xBC4 DUP3 PUSH2 0xB7E JUMP JUMPDEST DUP2 ADD DUP2 DUP2 LT PUSH8 0xFFFFFFFFFFFFFFFF DUP3 GT OR ISZERO PUSH2 0xBE3 JUMPI PUSH2 0xBE2 PUSH2 0xB8E JUMP JUMPDEST JUMPDEST DUP1 PUSH1 0x40 MSTORE POP POP POP JUMP JUMPDEST PUSH0 PUSH2 0xBF5 PUSH2 0x970 JUMP JUMPDEST SWAP1 POP PUSH2 0xC01 DUP3 DUP3 PUSH2 0xBBB JUMP JUMPDEST SWAP2 SWAP1 POP JUMP JUMPDEST PUSH0 PUSH8 0xFFFFFFFFFFFFFFFF DUP3 GT ISZERO PUSH2 0xC20 JUMPI PUSH2 0xC1F PUSH2 0xB8E JUMP JUMPDEST JUMPDEST PUSH2 0xC29 DUP3 PUSH2 0xB7E JUMP JUMPDEST SWAP1 POP PUSH1 0x20 DUP2 ADD SWAP1 POP SWAP2 SWAP1 POP JUMP JUMPDEST DUP3 DUP2 DUP4 CALLDATACOPY PUSH0 DUP4 DUP4 ADD MSTORE POP POP POP JUMP JUMPDEST PUSH0 PUSH2 0xC56 PUSH2 0xC51 DUP5 PUSH2 0xC06 JUMP JUMPDEST PUSH2 0xBEC JUMP JUMPDEST SWAP1 POP DUP3 DUP2 MSTORE PUSH1 0x20 DUP2 ADD DUP5 DUP5 DUP5 ADD GT ISZERO PUSH2 0xC72 JUMPI PUSH2 0xC71 PUSH2 0xB7A JUMP JUMPDEST JUMPDEST PUSH2 0xC7D DUP5 DUP3 DUP6 PUSH2 0xC36 JUMP JUMPDEST POP SWAP4 SWAP3 POP POP POP JUMP JUMPDEST PUSH0 DUP3 PUSH1 0x1F DUP4 ADD SLT PUSH2 0xC99 JUMPI PUSH2 0xC98 PUSH2 0xB76 JUMP JUMPDEST JUMPDEST DUP2 CALLDATALOAD PUSH2 0xCA9 DUP5 DUP3 PUSH1 0x20 DUP7 ADD PUSH2 0xC44 JUMP JUMPDEST SWAP2 POP POP SWAP3 SWAP2 POP POP JUMP JUMPDEST PUSH0 DUP1 PUSH1 0x40 DUP4 DUP6 SUB SLT ISZERO PUSH2 0xCC8 JUMPI PUSH2 0xCC7 PUSH2 0x979 JUMP JUMPDEST JUMPDEST PUSH0 DUP4 ADD CALLDATALOAD PUSH8 0xFFFFFFFFFFFFFFFF DUP2 GT ISZERO PUSH2 0xCE5 JUMPI PUSH2 0xCE4 PUSH2 0x97D JUMP JUMPDEST JUMPDEST PUSH2 0xCF1 DUP6 DUP3 DUP7 ADD PUSH2 0xC85 JUMP JUMPDEST SWAP3 POP POP PUSH1 0x20 PUSH2 0xD02 DUP6 DUP3 DUP7 ADD PUSH2 0xAFC JUMP JUMPDEST SWAP2 POP POP SWAP3 POP SWAP3 SWAP1 POP JUMP JUMPDEST PUSH0 DUP1 PUSH1 0x40 DUP4 DUP6 SUB SLT ISZERO PUSH2 0xD22 JUMPI PUSH2 0xD21 PUSH2 0x979 JUMP JUMPDEST JUMPDEST PUSH0 PUSH2 0xD2F DUP6 DUP3 DUP7 ADD PUSH2 0xAFC JUMP JUMPDEST SWAP3 POP POP PUSH1 0x20 PUSH2 0xD40 DUP6 DUP3 DUP7 ADD PUSH2 0x9C7 JUMP JUMPDEST SWAP2 POP POP SWAP3 POP SWAP3 SWAP1 POP JUMP JUMPDEST PUSH0 PUSH1 0x20 DUP3 DUP5 SUB SLT ISZERO PUSH2 0xD5F JUMPI PUSH2 0xD5E PUSH2 0x979 JUMP JUMPDEST JUMPDEST PUSH0 PUSH2 0xD6C DUP5 DUP3 DUP6 ADD PUSH2 0xAFC JUMP JUMPDEST SWAP2 POP POP SWAP3 SWAP2 POP POP JUMP JUMPDEST PUSH0 DUP3 DUP3 MSTORE PUSH1 0x20 DUP3 ADD SWAP1 POP SWAP3 SWAP2 POP POP JUMP JUMPDEST PUSH32 0x50726963652063616E2774206265207A65726F00000000000000000000000000 PUSH0 DUP3 ADD MSTORE POP JUMP JUMPDEST PUSH0 PUSH2 0xDB9 PUSH1 0x13 DUP4 PUSH2 0xD75 JUMP JUMPDEST SWAP2 POP PUSH2 0xDC4 DUP3 PUSH2 0xD85 JUMP JUMPDEST PUSH1 0x20 DUP3 ADD SWAP1 POP SWAP2 SWAP1 POP JUMP JUMPDEST PUSH0 PUSH1 0x20 DUP3 ADD SWAP1 POP DUP2 DUP2 SUB PUSH0 DUP4 ADD MSTORE PUSH2 0xDE6 DUP2 PUSH2 0xDAD JUMP JUMPDEST SWAP1 POP SWAP2 SWAP1 POP JUMP JUMPDEST PUSH32 0x4E487B7100000000000000000000000000000000000000000000000000000000 PUSH0 MSTORE PUSH1 0x11 PUSH1 0x4 MSTORE PUSH1 0x24 PUSH0 REVERT JUMPDEST PUSH0 PUSH2 0xE24 DUP3 PUSH2 0xA2F JUMP JUMPDEST SWAP2 POP PUSH32 0xFFFFFFFFFFFFFFFFFFFFFFFFFFFFFFFFFFFFFFFFFFFFFFFFFFFFFFFFFFFFFFFF DUP3 SUB PUSH2 0xE56 JUMPI PUSH2 0xE55 PUSH2 0xDED JUMP JUMPDEST JUMPDEST PUSH1 0x1 DUP3 ADD SWAP1 POP SWAP2 SWAP1 POP JUMP JUMPDEST PUSH0 DUP2 MLOAD SWAP1 POP SWAP2 SWAP1 POP JUMP JUMPDEST PUSH32 0x4E487B7100000000000000000000000000000000000000000000000000000000 PUSH0 MSTORE PUSH1 0x22 PUSH1 0x4 MSTORE PUSH1 0x24 PUSH0 REVERT JUMPDEST PUSH0 PUSH1 0x2 DUP3 DIV SWAP1 POP PUSH1 0x1 DUP3 AND DUP1 PUSH2 0xEAF JUMPI PUSH1 0x7F DUP3 AND SWAP2 POP JUMPDEST PUSH1 0x20 DUP3 LT DUP2 SUB PUSH2 0xEC2 JUMPI PUSH2 0xEC1 PUSH2 0xE6B JUMP JUMPDEST JUMPDEST POP SWAP2 SWAP1 POP JUMP JUMPDEST PUSH0 DUP2 SWAP1 POP DUP2 PUSH0 MSTORE PUSH1 0x20 PUSH0 KECCAK256 SWAP1 POP SWAP2 SWAP1 POP JUMP JUMPDEST PUSH0 PUSH1 0x20 PUSH1 0x1F DUP4 ADD DIV SWAP1 POP SWAP2 SWAP1 POP JUMP JUMPDEST PUSH0 DUP3 DUP3 SHL SWAP1 POP SWAP3 SWAP2 POP POP JUMP JUMPDEST PUSH0 PUSH1 0x8 DUP4 MUL PUSH2 0xF24 PUSH32 0xFFFFFFFFFFFFFFFFFFFFFFFFFFFFFFFFFFFFFFFFFFFFFFFFFFFFFFFFFFFFFFFF DUP3 PUSH2 0xEE9 JUMP JUMPDEST PUSH2 0xF2E DUP7 DUP4 PUSH2 0xEE9 JUMP JUMPDEST SWAP6 POP DUP1 NOT DUP5 AND SWAP4 POP DUP1 DUP7 AND DUP5 OR SWAP3 POP POP POP SWAP4 SWAP3 POP POP POP JUMP JUMPDEST PUSH0 DUP2 SWAP1 POP SWAP2 SWAP1 POP JUMP JUMPDEST PUSH0 PUSH2 0xF69 PUSH2 0xF64 PUSH2 0xF5F DUP5 PUSH2 0xA2F JUMP JUMPDEST PUSH2 0xF46 JUMP JUMPDEST PUSH2 0xA2F JUMP JUMPDEST SWAP1 POP SWAP2 SWAP1 POP JUMP JUMPDEST PUSH0 DUP2 SWAP1 POP SWAP2 SWAP1 POP JUMP JUMPDEST PUSH2 0xF82 DUP4 PUSH2 0xF4F JUMP JUMPDEST PUSH2 0xF96 PUSH2 0xF8E DUP3 PUSH2 0xF70 JUMP JUMPDEST DUP5 DUP5 SLOAD PUSH2 0xEF5 JUMP JUMPDEST DUP3 SSTORE POP POP POP POP JUMP JUMPDEST PUSH0 SWAP1 JUMP JUMPDEST PUSH2 0xFAA PUSH2 0xF9E JUMP JUMPDEST PUSH2 0xFB5 DUP2 DUP5 DUP5 PUSH2 0xF79 JUMP JUMPDEST POP POP POP JUMP JUMPDEST JUMPDEST DUP2 DUP2 LT ISZERO PUSH2 0xFD8 JUMPI PUSH2 0xFCD PUSH0 DUP3 PUSH2 0xFA2 JUMP JUMPDEST PUSH1 0x1 DUP2 ADD SWAP1 POP PUSH2 0xFBB JUMP JUMPDEST POP POP JUMP JUMPDEST PUSH1 0x1F DUP3 GT ISZERO PUSH2 0x101D JUMPI PUSH2 0xFEE DUP2 PUSH2 0xEC8 JUMP JUMPDEST PUSH2 0xFF7 DUP5 PUSH2 0xEDA JUMP JUMPDEST DUP2 ADD PUSH1 0x20 DUP6 LT ISZERO PUSH2 0x1006 JUMPI DUP2 SWAP1 POP JUMPDEST PUSH2 0x101A PUSH2 0x1012 DUP6 PUSH2 0xEDA JUMP JUMPDEST DUP4 ADD DUP3 PUSH2 0xFBA JUMP JUMPDEST POP POP JUMPDEST POP POP POP JUMP JUMPDEST PUSH0 DUP3 DUP3 SHR SWAP1 POP SWAP3 SWAP2 POP POP JUMP JUMPDEST PUSH0 PUSH2 0x103D PUSH0 NOT DUP5 PUSH1 0x8 MUL PUSH2 0x1022 JUMP JUMPDEST NOT DUP1 DUP4 AND SWAP2 POP POP SWAP3 SWAP2 POP POP JUMP JUMPDEST PUSH0 PUSH2 0x1055 DUP4 DUP4 PUSH2 0x102E JUMP JUMPDEST SWAP2 POP DUP3 PUSH1 0x2 MUL DUP3 OR SWAP1 POP SWAP3 SWAP2 POP POP JUMP JUMPDEST PUSH2 0x106E DUP3 PUSH2 0xE61 JUMP JUMPDEST PUSH8 0xFFFFFFFFFFFFFFFF DUP2 GT ISZERO PUSH2 0x1087 JUMPI PUSH2 0x1086 PUSH2 0xB8E JUMP JUMPDEST JUMPDEST PUSH2 0x1091 DUP3 SLOAD PUSH2 0xE98 JUMP JUMPDEST PUSH2 0x109C DUP3 DUP3 DUP6 PUSH2 0xFDC JUMP JUMPDEST PUSH0 PUSH1 0x20 SWAP1 POP PUSH1 0x1F DUP4 GT PUSH1 0x1 DUP2 EQ PUSH2 0x10CD JUMPI PUSH0 DUP5 ISZERO PUSH2 0x10BB JUMPI DUP3 DUP8 ADD MLOAD SWAP1 POP JUMPDEST PUSH2 0x10C5 DUP6 DUP3 PUSH2 0x104A JUMP JUMPDEST DUP7 SSTORE POP PUSH2 0x112C JUMP JUMPDEST PUSH1 0x1F NOT DUP5 AND PUSH2 0x10DB DUP7 PUSH2 0xEC8 JUMP JUMPDEST PUSH0 JUMPDEST DUP3 DUP2 LT ISZERO PUSH2 0x1102 JUMPI DUP5 DUP10 ADD MLOAD DUP3 SSTORE PUSH1 0x1 DUP3 ADD SWAP2 POP PUSH1 0x20 DUP6 ADD SWAP5 POP PUSH1 0x20 DUP2 ADD SWAP1 POP PUSH2 0x10DD JUMP JUMPDEST DUP7 DUP4 LT ISZERO PUSH2 0x111F JUMPI DUP5 DUP10 ADD MLOAD PUSH2 0x111B PUSH1 0x1F DUP10 AND DUP3 PUSH2 0x102E JUMP JUMPDEST DUP4 SSTORE POP JUMPDEST PUSH1 0x1 PUSH1 0x2 DUP9 MUL ADD DUP9 SSTORE POP POP POP JUMPDEST POP POP POP POP POP POP JUMP JUMPDEST PUSH32 0x496E76616C696420496400000000000000000000000000000000000000000000 PUSH0 DUP3 ADD MSTORE POP JUMP JUMPDEST PUSH0 PUSH2 0x1168 PUSH1 0xA DUP4 PUSH2 0xD75 JUMP JUMPDEST SWAP2 POP PUSH2 0x1173 DUP3 PUSH2 0x1134 JUMP JUMPDEST PUSH1 0x20 DUP3 ADD SWAP1 POP SWAP2 SWAP1 POP JUMP JUMPDEST PUSH0 PUSH1 0x20 DUP3 ADD SWAP1 POP DUP2 DUP2 SUB PUSH0 DUP4 ADD MSTORE PUSH2 0x1195 DUP2 PUSH2 0x115C JUMP JUMPDEST SWAP1 POP SWAP2 SWAP1 POP JUMP JUMPDEST PUSH32 0x596F752063616E6E6F74206163636573732074686973206974656D0000000000 PUSH0 DUP3 ADD MSTORE POP JUMP JUMPDEST PUSH0 PUSH2 0x11D0 PUSH1 0x1B DUP4 PUSH2 0xD75 JUMP JUMPDEST SWAP2 POP PUSH2 0x11DB DUP3 PUSH2 0x119C JUMP JUMPDEST PUSH1 0x20 DUP3 ADD SWAP1 POP SWAP2 SWAP1 POP JUMP JUMPDEST PUSH0 PUSH1 0x20 DUP3 ADD SWAP1 POP DUP2 DUP2 SUB PUSH0 DUP4 ADD MSTORE PUSH2 0x11FD DUP2 PUSH2 0x11C4 JUMP JUMPDEST SWAP1 POP SWAP2 SWAP1 POP JUMP JUMPDEST PUSH32 0x496E76616C696420507269636500000000000000000000000000000000000000 PUSH0 DUP3 ADD MSTORE POP JUMP JUMPDEST PUSH0 PUSH2 0x1238 PUSH1 0xD DUP4 PUSH2 0xD75 JUMP JUMPDEST SWAP2 POP PUSH2 0x1243 DUP3 PUSH2 0x1204 JUMP JUMPDEST PUSH1 0x20 DUP3 ADD SWAP1 POP SWAP2 SWAP1 POP JUMP JUMPDEST PUSH0 PUSH1 0x20 DUP3 ADD SWAP1 POP DUP2 DUP2 SUB PUSH0 DUP4 ADD MSTORE PUSH2 0x1265 DUP2 PUSH2 0x122C JUMP JUMPDEST SWAP1 POP SWAP2 SWAP1 POP JUMP JUMPDEST PUSH32 0x4974656D20616C726561647920736F6C64000000000000000000000000000000 PUSH0 DUP3 ADD MSTORE POP JUMP JUMPDEST PUSH0 PUSH2 0x12A0 PUSH1 0x11 DUP4 PUSH2 0xD75 JUMP JUMPDEST SWAP2 POP PUSH2 0x12AB DUP3 PUSH2 0x126C JUMP JUMPDEST PUSH1 0x20 DUP3 ADD SWAP1 POP SWAP2 SWAP1 POP JUMP JUMPDEST PUSH0 PUSH1 0x20 DUP3 ADD SWAP1 POP DUP2 DUP2 SUB PUSH0 DUP4 ADD MSTORE PUSH2 0x12CD DUP2 PUSH2 0x1294 JUMP JUMPDEST SWAP1 POP SWAP2 SWAP1 POP JUMP JUMPDEST PUSH32 0x53656C6C65722063616E6E6F7420627579207468656972206F776E2070726F64 PUSH0 DUP3 ADD MSTORE PUSH32 0x7563740000000000000000000000000000000000000000000000000000000000 PUSH1 0x20 DUP3 ADD MSTORE POP JUMP JUMPDEST PUSH0 PUSH2 0x132E PUSH1 0x23 DUP4 PUSH2 0xD75 JUMP JUMPDEST SWAP2 POP PUSH2 0x1339 DUP3 PUSH2 0x12D4 JUMP JUMPDEST PUSH1 0x40 DUP3 ADD SWAP1 POP SWAP2 SWAP1 POP JUMP JUMPDEST PUSH0 PUSH1 0x20 DUP3 ADD SWAP1 POP DUP2 DUP2 SUB PUSH0 DUP4 ADD MSTORE PUSH2 0x135B DUP2 PUSH2 0x1322 JUMP JUMPDEST SWAP1 POP SWAP2 SWAP1 POP JUMP JUMPDEST PUSH0 DUP2 SWAP1 POP SWAP3 SWAP2 POP POP JUMP JUMPDEST POP JUMP JUMPDEST PUSH0 PUSH2 0x137A PUSH0 DUP4 PUSH2 0x1362 JUMP JUMPDEST SWAP2 POP PUSH2 0x1385 DUP3 PUSH2 0x136C JUMP JUMPDEST PUSH0 DUP3 ADD SWAP1 POP SWAP2 SWAP1 POP JUMP JUMPDEST PUSH0 PUSH2 0x1399 DUP3 PUSH2 0x136F JUMP JUMPDEST SWAP2 POP DUP2 SWAP1 POP SWAP2 SWAP1 POP JUMP JUMPDEST PUSH32 0x5472616E73666572206661696C65640000000000000000000000000000000000 PUSH0 DUP3 ADD MSTORE POP JUMP JUMPDEST PUSH0 PUSH2 0x13D7 PUSH1 0xF DUP4 PUSH2 0xD75 JUMP JUMPDEST SWAP2 POP PUSH2 0x13E2 DUP3 PUSH2 0x13A3 JUMP JUMPDEST PUSH1 0x20 DUP3 ADD SWAP1 POP SWAP2 SWAP1 POP JUMP JUMPDEST PUSH0 PUSH1 0x20 DUP3 ADD SWAP1 POP DUP2 DUP2 SUB PUSH0 DUP4 ADD MSTORE PUSH2 0x1404 DUP2 PUSH2 0x13CB JUMP JUMPDEST SWAP1 POP SWAP2 SWAP1 POP JUMP JUMPDEST PUSH32 0x4E487B7100000000000000000000000000000000000000000000000000000000 PUSH0 MSTORE PUSH1 0x32 PUSH1 0x4 MSTORE PUSH1 0x24 PUSH0 REVERT JUMPDEST PUSH0 PUSH2 0x1442 DUP3 PUSH2 0xA2F JUMP JUMPDEST SWAP2 POP PUSH2 0x144D DUP4 PUSH2 0xA2F JUMP JUMPDEST SWAP3 POP DUP3 DUP3 SUB SWAP1 POP DUP2 DUP2 GT ISZERO PUSH2 0x1465 JUMPI PUSH2 0x1464 PUSH2 0xDED JUMP JUMPDEST JUMPDEST SWAP3 SWAP2 POP POP JUMP JUMPDEST PUSH32 0x4E487B7100000000000000000000000000000000000000000000000000000000 PUSH0 MSTORE PUSH1 0x31 PUSH1 0x4 MSTORE PUSH1 0x24 PUSH0 REVERT INVALID LOG2 PUSH5 0x6970667358 0x22 SLT KECCAK256 0x25 0xCB JUMPDEST TLOAD 0xC8 0xC6 0x1E BLOBBASEFEE 0xD0 CHAINID 0xF9 DUP13 DUP8 0x1E LOG2 CODESIZE BASEFEE 0xEA ADDRESS DUP11 BALANCE 0x29 SELFDESTRUCT 0xA6 DUP2 SWAP5 SHL ISZERO CALLCODE LT MLOAD 0x23 PUSH5 0x736F6C6343 STOP ADDMOD BYTE STOP CALLER "
				},
				"gasEstimates": {
					"creation": {
						"codeDepositCost": "1065200",
						"executionCost": "6110",
						"totalCost": "1071310"
					},
					"external": {
						"buyItem(uint256)": "infinite",
						"getItemsByOwner(address)": "infinite",
						"itemCount()": "2446",
						"listItem(string,uint256)": "infinite",
						"ownedItems(address,uint256)": "infinite",
						"transferItem(uint256,address)": "infinite"
					},
					"internal": {
						"_transferOwnership(uint256,address,address)": "infinite"
					}
				},
				"methodIdentifiers": {
					"buyItem(uint256)": "e7fb74c7",
					"getItemsByOwner(address)": "2c67a8e5",
					"itemCount()": "6bfb0d01",
					"listItem(string,uint256)": "8511c937",
					"ownedItems(address,uint256)": "42846534",
					"transferItem(uint256,address)": "a4229101"
				}
			},
			"storageLayout": {
				"storage": [
					{
						"astId": 17,
						"contract": "contracts/Marketplace.sol:Marketplace",
						"label": "itemCount",
						"offset": 0,
						"slot": "0",
						"type": "t_uint256"
					},
					{
						"astId": 22,
						"contract": "contracts/Marketplace.sol:Marketplace",
						"label": "items",
						"offset": 0,
						"slot": "1",
						"type": "t_mapping(t_uint256,t_struct(Item)14_storage)"
					},
					{
						"astId": 27,
						"contract": "contracts/Marketplace.sol:Marketplace",
						"label": "ownedItems",
						"offset": 0,
						"slot": "2",
						"type": "t_mapping(t_address,t_array(t_uint256)dyn_storage)"
					}
				],
				"types": {
					"t_address": {
						"encoding": "inplace",
						"label": "address",
						"numberOfBytes": "20"
					},
					"t_address_payable": {
						"encoding": "inplace",
						"label": "address payable",
						"numberOfBytes": "20"
					},
					"t_array(t_uint256)dyn_storage": {
						"base": "t_uint256",
						"encoding": "dynamic_array",
						"label": "uint256[]",
						"numberOfBytes": "32"
					},
					"t_bool": {
						"encoding": "inplace",
						"label": "bool",
						"numberOfBytes": "1"
					},
					"t_mapping(t_address,t_array(t_uint256)dyn_storage)": {
						"encoding": "mapping",
						"key": "t_address",
						"label": "mapping(address => uint256[])",
						"numberOfBytes": "32",
						"value": "t_array(t_uint256)dyn_storage"
					},
					"t_mapping(t_uint256,t_struct(Item)14_storage)": {
						"encoding": "mapping",
						"key": "t_uint256",
						"label": "mapping(uint256 => struct Marketplace.Item)",
						"numberOfBytes": "32",
						"value": "t_struct(Item)14_storage"
					},
					"t_string_storage": {
						"encoding": "bytes",
						"label": "string",
						"numberOfBytes": "32"
					},
					"t_struct(Item)14_storage": {
						"encoding": "inplace",
						"label": "struct Marketplace.Item",
						"members": [
							{
								"astId": 3,
								"contract": "contracts/Marketplace.sol:Marketplace",
								"label": "id",
								"offset": 0,
								"slot": "0",
								"type": "t_uint256"
							},
							{
								"astId": 5,
								"contract": "contracts/Marketplace.sol:Marketplace",
								"label": "name",
								"offset": 0,
								"slot": "1",
								"type": "t_string_storage"
							},
							{
								"astId": 7,
								"contract": "contracts/Marketplace.sol:Marketplace",
								"label": "itemPrice",
								"offset": 0,
								"slot": "2",
								"type": "t_uint256"
							},
							{
								"astId": 9,
								"contract": "contracts/Marketplace.sol:Marketplace",
								"label": "seller",
								"offset": 0,
								"slot": "3",
								"type": "t_address_payable"
							},
							{
								"astId": 11,
								"contract": "contracts/Marketplace.sol:Marketplace",
								"label": "owner",
								"offset": 0,
								"slot": "4",
								"type": "t_address"
							},
							{
								"astId": 13,
								"contract": "contracts/Marketplace.sol:Marketplace",
								"label": "isSold",
								"offset": 20,
								"slot": "4",
								"type": "t_bool"
							}
						],
						"numberOfBytes": "160"
					},
					"t_uint256": {
						"encoding": "inplace",
						"label": "uint256",
						"numberOfBytes": "32"
					}
				}
			},
			"userdoc": {
				"kind": "user",
				"methods": {},
				"version": 1
			}
		}
	}
}