{
	"security/Access Control & Role Management/TimeBasedAccess.sol": {
		"TimedAccess": {
			"abi": [
				{
					"inputs": [],
					"name": "accessTime",
					"outputs": [
						{
							"internalType": "uint256",
							"name": "",
							"type": "uint256"
						}
					],
					"stateMutability": "view",
					"type": "function"
				},
				{
					"inputs": [
						{
							"internalType": "uint256",
							"name": "_extension",
							"type": "uint256"
						}
					],
					"name": "extendAccess",
					"outputs": [],
					"stateMutability": "nonpayable",
					"type": "function"
				},
				{
					"inputs": [],
					"name": "owner",
					"outputs": [
						{
							"internalType": "address",
							"name": "",
							"type": "address"
						}
					],
					"stateMutability": "view",
					"type": "function"
				}
			],
			"devdoc": {
				"kind": "dev",
				"methods": {},
				"version": 1
			},
			"evm": {
				"assembly": "    /* \"security/Access Control & Role Management/TimeBasedAccess.sol\":61:493  contract TimedAccess{... */\n  mstore(0x40, 0x80)\n  callvalue\n  dup1\n  iszero\n  tag_1\n  jumpi\n  0x00\n  dup1\n  revert\ntag_1:\n  pop\n  dataSize(sub_0)\n  dup1\n  dataOffset(sub_0)\n  0x00\n  codecopy\n  0x00\n  return\nstop\n\nsub_0: assembly {\n        /* \"security/Access Control & Role Management/TimeBasedAccess.sol\":61:493  contract TimedAccess{... */\n      mstore(0x40, 0x80)\n      callvalue\n      dup1\n      iszero\n      tag_1\n      jumpi\n      0x00\n      dup1\n      revert\n    tag_1:\n      pop\n      jumpi(tag_2, lt(calldatasize, 0x04))\n      shr(0xe0, calldataload(0x00))\n      dup1\n      0x091f351c\n      eq\n      tag_3\n      jumpi\n      dup1\n      0x61779089\n      eq\n      tag_4\n      jumpi\n      dup1\n      0x8da5cb5b\n      eq\n      tag_5\n      jumpi\n    tag_2:\n      0x00\n      dup1\n      revert\n        /* \"security/Access Control & Role Management/TimeBasedAccess.sol\":372:490  function extendAccess(uint256 _extension) public onlyOwner{... */\n    tag_3:\n      tag_6\n      0x04\n      dup1\n      calldatasize\n      sub\n      dup2\n      add\n      swap1\n      tag_7\n      swap2\n      swap1\n      tag_8\n      jump\t// in\n    tag_7:\n      tag_9\n      jump\t// in\n    tag_6:\n      stop\n        /* \"security/Access Control & Role Management/TimeBasedAccess.sol\":88:113  uint256 public accessTime */\n    tag_4:\n      tag_10\n      tag_11\n      jump\t// in\n    tag_10:\n      mload(0x40)\n      tag_12\n      swap2\n      swap1\n      tag_13\n      jump\t// in\n    tag_12:\n      mload(0x40)\n      dup1\n      swap2\n      sub\n      swap1\n      return\n        /* \"security/Access Control & Role Management/TimeBasedAccess.sol\":120:140  address public owner */\n    tag_5:\n      tag_14\n      tag_15\n      jump\t// in\n    tag_14:\n      mload(0x40)\n      tag_16\n      swap2\n      swap1\n      tag_17\n      jump\t// in\n    tag_16:\n      mload(0x40)\n      dup1\n      swap2\n      sub\n      swap1\n      return\n        /* \"security/Access Control & Role Management/TimeBasedAccess.sol\":372:490  function extendAccess(uint256 _extension) public onlyOwner{... */\n    tag_9:\n        /* \"security/Access Control & Role Management/TimeBasedAccess.sol\":203:208  owner */\n      0x01\n      0x00\n      swap1\n      sload\n      swap1\n      0x0100\n      exp\n      swap1\n      div\n      0xffffffffffffffffffffffffffffffffffffffff\n      and\n        /* \"security/Access Control & Role Management/TimeBasedAccess.sol\":189:208  msg.sender == owner */\n      0xffffffffffffffffffffffffffffffffffffffff\n      and\n        /* \"security/Access Control & Role Management/TimeBasedAccess.sol\":189:199  msg.sender */\n      caller\n        /* \"security/Access Control & Role Management/TimeBasedAccess.sol\":189:208  msg.sender == owner */\n      0xffffffffffffffffffffffffffffffffffffffff\n      and\n      eq\n        /* \"security/Access Control & Role Management/TimeBasedAccess.sol\":181:226  require(msg.sender == owner, \"not the owner\") */\n      tag_19\n      jumpi\n      mload(0x40)\n      0x08c379a000000000000000000000000000000000000000000000000000000000\n      dup2\n      mstore\n      0x04\n      add\n      tag_20\n      swap1\n      tag_21\n      jump\t// in\n    tag_20:\n      mload(0x40)\n      dup1\n      swap2\n      sub\n      swap1\n      revert\n    tag_19:\n        /* \"security/Access Control & Role Management/TimeBasedAccess.sol\":472:482  _extension */\n      dup1\n        /* \"security/Access Control & Role Management/TimeBasedAccess.sol\":454:469  block.timestamp */\n      timestamp\n        /* \"security/Access Control & Role Management/TimeBasedAccess.sol\":454:482  block.timestamp + _extension */\n      tag_23\n      swap2\n      swap1\n      tag_24\n      jump\t// in\n    tag_23:\n        /* \"security/Access Control & Role Management/TimeBasedAccess.sol\":441:451  accessTime */\n      0x00\n        /* \"security/Access Control & Role Management/TimeBasedAccess.sol\":441:482  accessTime = block.timestamp + _extension */\n      dup2\n      swap1\n      sstore\n      pop\n        /* \"security/Access Control & Role Management/TimeBasedAccess.sol\":372:490  function extendAccess(uint256 _extension) public onlyOwner{... */\n      pop\n      jump\t// out\n        /* \"security/Access Control & Role Management/TimeBasedAccess.sol\":88:113  uint256 public accessTime */\n    tag_11:\n      sload(0x00)\n      dup2\n      jump\t// out\n        /* \"security/Access Control & Role Management/TimeBasedAccess.sol\":120:140  address public owner */\n    tag_15:\n      0x01\n      0x00\n      swap1\n      sload\n      swap1\n      0x0100\n      exp\n      swap1\n      div\n      0xffffffffffffffffffffffffffffffffffffffff\n      and\n      dup2\n      jump\t// out\n        /* \"#utility.yul\":88:205   */\n    tag_26:\n        /* \"#utility.yul\":197:198   */\n      0x00\n        /* \"#utility.yul\":194:195   */\n      dup1\n        /* \"#utility.yul\":187:199   */\n      revert\n        /* \"#utility.yul\":334:411   */\n    tag_28:\n        /* \"#utility.yul\":371:378   */\n      0x00\n        /* \"#utility.yul\":400:405   */\n      dup2\n        /* \"#utility.yul\":389:405   */\n      swap1\n      pop\n        /* \"#utility.yul\":334:411   */\n      swap2\n      swap1\n      pop\n      jump\t// out\n        /* \"#utility.yul\":417:539   */\n    tag_29:\n        /* \"#utility.yul\":490:514   */\n      tag_45\n        /* \"#utility.yul\":508:513   */\n      dup2\n        /* \"#utility.yul\":490:514   */\n      tag_28\n      jump\t// in\n    tag_45:\n        /* \"#utility.yul\":483:488   */\n      dup2\n        /* \"#utility.yul\":480:515   */\n      eq\n        /* \"#utility.yul\":470:533   */\n      tag_46\n      jumpi\n        /* \"#utility.yul\":529:530   */\n      0x00\n        /* \"#utility.yul\":526:527   */\n      dup1\n        /* \"#utility.yul\":519:531   */\n      revert\n        /* \"#utility.yul\":470:533   */\n    tag_46:\n        /* \"#utility.yul\":417:539   */\n      pop\n      jump\t// out\n        /* \"#utility.yul\":545:684   */\n    tag_30:\n        /* \"#utility.yul\":591:596   */\n      0x00\n        /* \"#utility.yul\":629:635   */\n      dup2\n        /* \"#utility.yul\":616:636   */\n      calldataload\n        /* \"#utility.yul\":607:636   */\n      swap1\n      pop\n        /* \"#utility.yul\":645:678   */\n      tag_48\n        /* \"#utility.yul\":672:677   */\n      dup2\n        /* \"#utility.yul\":645:678   */\n      tag_29\n      jump\t// in\n    tag_48:\n        /* \"#utility.yul\":545:684   */\n      swap3\n      swap2\n      pop\n      pop\n      jump\t// out\n        /* \"#utility.yul\":690:1019   */\n    tag_8:\n        /* \"#utility.yul\":749:755   */\n      0x00\n        /* \"#utility.yul\":798:800   */\n      0x20\n        /* \"#utility.yul\":786:795   */\n      dup3\n        /* \"#utility.yul\":777:784   */\n      dup5\n        /* \"#utility.yul\":773:796   */\n      sub\n        /* \"#utility.yul\":769:801   */\n      slt\n        /* \"#utility.yul\":766:885   */\n      iszero\n      tag_50\n      jumpi\n        /* \"#utility.yul\":804:883   */\n      tag_51\n      tag_26\n      jump\t// in\n    tag_51:\n        /* \"#utility.yul\":766:885   */\n    tag_50:\n        /* \"#utility.yul\":924:925   */\n      0x00\n        /* \"#utility.yul\":949:1002   */\n      tag_52\n        /* \"#utility.yul\":994:1001   */\n      dup5\n        /* \"#utility.yul\":985:991   */\n      dup3\n        /* \"#utility.yul\":974:983   */\n      dup6\n        /* \"#utility.yul\":970:992   */\n      add\n        /* \"#utility.yul\":949:1002   */\n      tag_30\n      jump\t// in\n    tag_52:\n        /* \"#utility.yul\":939:1002   */\n      swap2\n      pop\n        /* \"#utility.yul\":895:1012   */\n      pop\n        /* \"#utility.yul\":690:1019   */\n      swap3\n      swap2\n      pop\n      pop\n      jump\t// out\n        /* \"#utility.yul\":1025:1143   */\n    tag_31:\n        /* \"#utility.yul\":1112:1136   */\n      tag_54\n        /* \"#utility.yul\":1130:1135   */\n      dup2\n        /* \"#utility.yul\":1112:1136   */\n      tag_28\n      jump\t// in\n    tag_54:\n        /* \"#utility.yul\":1107:1110   */\n      dup3\n        /* \"#utility.yul\":1100:1137   */\n      mstore\n        /* \"#utility.yul\":1025:1143   */\n      pop\n      pop\n      jump\t// out\n        /* \"#utility.yul\":1149:1371   */\n    tag_13:\n        /* \"#utility.yul\":1242:1246   */\n      0x00\n        /* \"#utility.yul\":1280:1282   */\n      0x20\n        /* \"#utility.yul\":1269:1278   */\n      dup3\n        /* \"#utility.yul\":1265:1283   */\n      add\n        /* \"#utility.yul\":1257:1283   */\n      swap1\n      pop\n        /* \"#utility.yul\":1293:1364   */\n      tag_56\n        /* \"#utility.yul\":1361:1362   */\n      0x00\n        /* \"#utility.yul\":1350:1359   */\n      dup4\n        /* \"#utility.yul\":1346:1363   */\n      add\n        /* \"#utility.yul\":1337:1343   */\n      dup5\n        /* \"#utility.yul\":1293:1364   */\n      tag_31\n      jump\t// in\n    tag_56:\n        /* \"#utility.yul\":1149:1371   */\n      swap3\n      swap2\n      pop\n      pop\n      jump\t// out\n        /* \"#utility.yul\":1377:1503   */\n    tag_32:\n        /* \"#utility.yul\":1414:1421   */\n      0x00\n        /* \"#utility.yul\":1454:1496   */\n      0xffffffffffffffffffffffffffffffffffffffff\n        /* \"#utility.yul\":1447:1452   */\n      dup3\n        /* \"#utility.yul\":1443:1497   */\n      and\n        /* \"#utility.yul\":1432:1497   */\n      swap1\n      pop\n        /* \"#utility.yul\":1377:1503   */\n      swap2\n      swap1\n      pop\n      jump\t// out\n        /* \"#utility.yul\":1509:1605   */\n    tag_33:\n        /* \"#utility.yul\":1546:1553   */\n      0x00\n        /* \"#utility.yul\":1575:1599   */\n      tag_59\n        /* \"#utility.yul\":1593:1598   */\n      dup3\n        /* \"#utility.yul\":1575:1599   */\n      tag_32\n      jump\t// in\n    tag_59:\n        /* \"#utility.yul\":1564:1599   */\n      swap1\n      pop\n        /* \"#utility.yul\":1509:1605   */\n      swap2\n      swap1\n      pop\n      jump\t// out\n        /* \"#utility.yul\":1611:1729   */\n    tag_34:\n        /* \"#utility.yul\":1698:1722   */\n      tag_61\n        /* \"#utility.yul\":1716:1721   */\n      dup2\n        /* \"#utility.yul\":1698:1722   */\n      tag_33\n      jump\t// in\n    tag_61:\n        /* \"#utility.yul\":1693:1696   */\n      dup3\n        /* \"#utility.yul\":1686:1723   */\n      mstore\n        /* \"#utility.yul\":1611:1729   */\n      pop\n      pop\n      jump\t// out\n        /* \"#utility.yul\":1735:1957   */\n    tag_17:\n        /* \"#utility.yul\":1828:1832   */\n      0x00\n        /* \"#utility.yul\":1866:1868   */\n      0x20\n        /* \"#utility.yul\":1855:1864   */\n      dup3\n        /* \"#utility.yul\":1851:1869   */\n      add\n        /* \"#utility.yul\":1843:1869   */\n      swap1\n      pop\n        /* \"#utility.yul\":1879:1950   */\n      tag_63\n        /* \"#utility.yul\":1947:1948   */\n      0x00\n        /* \"#utility.yul\":1936:1945   */\n      dup4\n        /* \"#utility.yul\":1932:1949   */\n      add\n        /* \"#utility.yul\":1923:1929   */\n      dup5\n        /* \"#utility.yul\":1879:1950   */\n      tag_34\n      jump\t// in\n    tag_63:\n        /* \"#utility.yul\":1735:1957   */\n      swap3\n      swap2\n      pop\n      pop\n      jump\t// out\n        /* \"#utility.yul\":1963:2132   */\n    tag_35:\n        /* \"#utility.yul\":2047:2058   */\n      0x00\n        /* \"#utility.yul\":2081:2087   */\n      dup3\n        /* \"#utility.yul\":2076:2079   */\n      dup3\n        /* \"#utility.yul\":2069:2088   */\n      mstore\n        /* \"#utility.yul\":2121:2125   */\n      0x20\n        /* \"#utility.yul\":2116:2119   */\n      dup3\n        /* \"#utility.yul\":2112:2126   */\n      add\n        /* \"#utility.yul\":2097:2126   */\n      swap1\n      pop\n        /* \"#utility.yul\":1963:2132   */\n      swap3\n      swap2\n      pop\n      pop\n      jump\t// out\n        /* \"#utility.yul\":2138:2301   */\n    tag_36:\n        /* \"#utility.yul\":2278:2293   */\n      0x6e6f7420746865206f776e657200000000000000000000000000000000000000\n        /* \"#utility.yul\":2274:2275   */\n      0x00\n        /* \"#utility.yul\":2266:2272   */\n      dup3\n        /* \"#utility.yul\":2262:2276   */\n      add\n        /* \"#utility.yul\":2255:2294   */\n      mstore\n        /* \"#utility.yul\":2138:2301   */\n      pop\n      jump\t// out\n        /* \"#utility.yul\":2307:2673   */\n    tag_37:\n        /* \"#utility.yul\":2449:2452   */\n      0x00\n        /* \"#utility.yul\":2470:2537   */\n      tag_67\n        /* \"#utility.yul\":2534:2536   */\n      0x0d\n        /* \"#utility.yul\":2529:2532   */\n      dup4\n        /* \"#utility.yul\":2470:2537   */\n      tag_35\n      jump\t// in\n    tag_67:\n        /* \"#utility.yul\":2463:2537   */\n      swap2\n      pop\n        /* \"#utility.yul\":2546:2639   */\n      tag_68\n        /* \"#utility.yul\":2635:2638   */\n      dup3\n        /* \"#utility.yul\":2546:2639   */\n      tag_36\n      jump\t// in\n    tag_68:\n        /* \"#utility.yul\":2664:2666   */\n      0x20\n        /* \"#utility.yul\":2659:2662   */\n      dup3\n        /* \"#utility.yul\":2655:2667   */\n      add\n        /* \"#utility.yul\":2648:2667   */\n      swap1\n      pop\n        /* \"#utility.yul\":2307:2673   */\n      swap2\n      swap1\n      pop\n      jump\t// out\n        /* \"#utility.yul\":2679:3098   */\n    tag_21:\n        /* \"#utility.yul\":2845:2849   */\n      0x00\n        /* \"#utility.yul\":2883:2885   */\n      0x20\n        /* \"#utility.yul\":2872:2881   */\n      dup3\n        /* \"#utility.yul\":2868:2886   */\n      add\n        /* \"#utility.yul\":2860:2886   */\n      swap1\n      pop\n        /* \"#utility.yul\":2932:2941   */\n      dup2\n        /* \"#utility.yul\":2926:2930   */\n      dup2\n        /* \"#utility.yul\":2922:2942   */\n      sub\n        /* \"#utility.yul\":2918:2919   */\n      0x00\n        /* \"#utility.yul\":2907:2916   */\n      dup4\n        /* \"#utility.yul\":2903:2920   */\n      add\n        /* \"#utility.yul\":2896:2943   */\n      mstore\n        /* \"#utility.yul\":2960:3091   */\n      tag_70\n        /* \"#utility.yul\":3086:3090   */\n      dup2\n        /* \"#utility.yul\":2960:3091   */\n      tag_37\n      jump\t// in\n    tag_70:\n        /* \"#utility.yul\":2952:3091   */\n      swap1\n      pop\n        /* \"#utility.yul\":2679:3098   */\n      swap2\n      swap1\n      pop\n      jump\t// out\n        /* \"#utility.yul\":3104:3284   */\n    tag_38:\n        /* \"#utility.yul\":3152:3229   */\n      0x4e487b7100000000000000000000000000000000000000000000000000000000\n        /* \"#utility.yul\":3149:3150   */\n      0x00\n        /* \"#utility.yul\":3142:3230   */\n      mstore\n        /* \"#utility.yul\":3249:3253   */\n      0x11\n        /* \"#utility.yul\":3246:3247   */\n      0x04\n        /* \"#utility.yul\":3239:3254   */\n      mstore\n        /* \"#utility.yul\":3273:3277   */\n      0x24\n        /* \"#utility.yul\":3270:3271   */\n      0x00\n        /* \"#utility.yul\":3263:3278   */\n      revert\n        /* \"#utility.yul\":3290:3481   */\n    tag_24:\n        /* \"#utility.yul\":3330:3333   */\n      0x00\n        /* \"#utility.yul\":3349:3369   */\n      tag_73\n        /* \"#utility.yul\":3367:3368   */\n      dup3\n        /* \"#utility.yul\":3349:3369   */\n      tag_28\n      jump\t// in\n    tag_73:\n        /* \"#utility.yul\":3344:3369   */\n      swap2\n      pop\n        /* \"#utility.yul\":3383:3403   */\n      tag_74\n        /* \"#utility.yul\":3401:3402   */\n      dup4\n        /* \"#utility.yul\":3383:3403   */\n      tag_28\n      jump\t// in\n    tag_74:\n        /* \"#utility.yul\":3378:3403   */\n      swap3\n      pop\n        /* \"#utility.yul\":3426:3427   */\n      dup3\n        /* \"#utility.yul\":3423:3424   */\n      dup3\n        /* \"#utility.yul\":3419:3428   */\n      add\n        /* \"#utility.yul\":3412:3428   */\n      swap1\n      pop\n        /* \"#utility.yul\":3447:3450   */\n      dup1\n        /* \"#utility.yul\":3444:3445   */\n      dup3\n        /* \"#utility.yul\":3441:3451   */\n      gt\n        /* \"#utility.yul\":3438:3474   */\n      iszero\n      tag_75\n      jumpi\n        /* \"#utility.yul\":3454:3472   */\n      tag_76\n      tag_38\n      jump\t// in\n    tag_76:\n        /* \"#utility.yul\":3438:3474   */\n    tag_75:\n        /* \"#utility.yul\":3290:3481   */\n      swap3\n      swap2\n      pop\n      pop\n      jump\t// out\n\n    auxdata: 0xa2646970667358221220b6be8bd058719050d894bd2c238cb633c9822cec6f316a2bf8bdb8b2094e098464736f6c634300081a0033\n}\n",
				"bytecode": {
					"linkReferences": {},
					"object": "6080604052348015600e575f80fd5b506103588061001c5f395ff3fe608060405234801561000f575f80fd5b506004361061003f575f3560e01c8063091f351c14610043578063617790891461005f5780638da5cb5b1461007d575b5f80fd5b61005d6004803603810190610058919061019f565b61009b565b005b61006761013e565b60405161007491906101d9565b60405180910390f35b610085610143565b6040516100929190610231565b60405180910390f35b60015f9054906101000a900473ffffffffffffffffffffffffffffffffffffffff1673ffffffffffffffffffffffffffffffffffffffff163373ffffffffffffffffffffffffffffffffffffffff161461012a576040517f08c379a0000000000000000000000000000000000000000000000000000000008152600401610121906102a4565b60405180910390fd5b804261013691906102ef565b5f8190555050565b5f5481565b60015f9054906101000a900473ffffffffffffffffffffffffffffffffffffffff1681565b5f80fd5b5f819050919050565b61017e8161016c565b8114610188575f80fd5b50565b5f8135905061019981610175565b92915050565b5f602082840312156101b4576101b3610168565b5b5f6101c18482850161018b565b91505092915050565b6101d38161016c565b82525050565b5f6020820190506101ec5f8301846101ca565b92915050565b5f73ffffffffffffffffffffffffffffffffffffffff82169050919050565b5f61021b826101f2565b9050919050565b61022b81610211565b82525050565b5f6020820190506102445f830184610222565b92915050565b5f82825260208201905092915050565b7f6e6f7420746865206f776e6572000000000000000000000000000000000000005f82015250565b5f61028e600d8361024a565b91506102998261025a565b602082019050919050565b5f6020820190508181035f8301526102bb81610282565b9050919050565b7f4e487b71000000000000000000000000000000000000000000000000000000005f52601160045260245ffd5b5f6102f98261016c565b91506103048361016c565b925082820190508082111561031c5761031b6102c2565b5b9291505056fea2646970667358221220b6be8bd058719050d894bd2c238cb633c9822cec6f316a2bf8bdb8b2094e098464736f6c634300081a0033",
					"opcodes": "PUSH1 0x80 PUSH1 0x40 MSTORE CALLVALUE DUP1 ISZERO PUSH1 0xE JUMPI PUSH0 DUP1 REVERT JUMPDEST POP PUSH2 0x358 DUP1 PUSH2 0x1C PUSH0 CODECOPY PUSH0 RETURN INVALID PUSH1 0x80 PUSH1 0x40 MSTORE CALLVALUE DUP1 ISZERO PUSH2 0xF JUMPI PUSH0 DUP1 REVERT JUMPDEST POP PUSH1 0x4 CALLDATASIZE LT PUSH2 0x3F JUMPI PUSH0 CALLDATALOAD PUSH1 0xE0 SHR DUP1 PUSH4 0x91F351C EQ PUSH2 0x43 JUMPI DUP1 PUSH4 0x61779089 EQ PUSH2 0x5F JUMPI DUP1 PUSH4 0x8DA5CB5B EQ PUSH2 0x7D JUMPI JUMPDEST PUSH0 DUP1 REVERT JUMPDEST PUSH2 0x5D PUSH1 0x4 DUP1 CALLDATASIZE SUB DUP2 ADD SWAP1 PUSH2 0x58 SWAP2 SWAP1 PUSH2 0x19F JUMP JUMPDEST PUSH2 0x9B JUMP JUMPDEST STOP JUMPDEST PUSH2 0x67 PUSH2 0x13E JUMP JUMPDEST PUSH1 0x40 MLOAD PUSH2 0x74 SWAP2 SWAP1 PUSH2 0x1D9 JUMP JUMPDEST PUSH1 0x40 MLOAD DUP1 SWAP2 SUB SWAP1 RETURN JUMPDEST PUSH2 0x85 PUSH2 0x143 JUMP JUMPDEST PUSH1 0x40 MLOAD PUSH2 0x92 SWAP2 SWAP1 PUSH2 0x231 JUMP JUMPDEST PUSH1 0x40 MLOAD DUP1 SWAP2 SUB SWAP1 RETURN JUMPDEST PUSH1 0x1 PUSH0 SWAP1 SLOAD SWAP1 PUSH2 0x100 EXP SWAP1 DIV PUSH20 0xFFFFFFFFFFFFFFFFFFFFFFFFFFFFFFFFFFFFFFFF AND PUSH20 0xFFFFFFFFFFFFFFFFFFFFFFFFFFFFFFFFFFFFFFFF AND CALLER PUSH20 0xFFFFFFFFFFFFFFFFFFFFFFFFFFFFFFFFFFFFFFFF AND EQ PUSH2 0x12A JUMPI PUSH1 0x40 MLOAD PUSH32 0x8C379A000000000000000000000000000000000000000000000000000000000 DUP2 MSTORE PUSH1 0x4 ADD PUSH2 0x121 SWAP1 PUSH2 0x2A4 JUMP JUMPDEST PUSH1 0x40 MLOAD DUP1 SWAP2 SUB SWAP1 REVERT JUMPDEST DUP1 TIMESTAMP PUSH2 0x136 SWAP2 SWAP1 PUSH2 0x2EF JUMP JUMPDEST PUSH0 DUP2 SWAP1 SSTORE POP POP JUMP JUMPDEST PUSH0 SLOAD DUP2 JUMP JUMPDEST PUSH1 0x1 PUSH0 SWAP1 SLOAD SWAP1 PUSH2 0x100 EXP SWAP1 DIV PUSH20 0xFFFFFFFFFFFFFFFFFFFFFFFFFFFFFFFFFFFFFFFF AND DUP2 JUMP JUMPDEST PUSH0 DUP1 REVERT JUMPDEST PUSH0 DUP2 SWAP1 POP SWAP2 SWAP1 POP JUMP JUMPDEST PUSH2 0x17E DUP2 PUSH2 0x16C JUMP JUMPDEST DUP2 EQ PUSH2 0x188 JUMPI PUSH0 DUP1 REVERT JUMPDEST POP JUMP JUMPDEST PUSH0 DUP2 CALLDATALOAD SWAP1 POP PUSH2 0x199 DUP2 PUSH2 0x175 JUMP JUMPDEST SWAP3 SWAP2 POP POP JUMP JUMPDEST PUSH0 PUSH1 0x20 DUP3 DUP5 SUB SLT ISZERO PUSH2 0x1B4 JUMPI PUSH2 0x1B3 PUSH2 0x168 JUMP JUMPDEST JUMPDEST PUSH0 PUSH2 0x1C1 DUP5 DUP3 DUP6 ADD PUSH2 0x18B JUMP JUMPDEST SWAP2 POP POP SWAP3 SWAP2 POP POP JUMP JUMPDEST PUSH2 0x1D3 DUP2 PUSH2 0x16C JUMP JUMPDEST DUP3 MSTORE POP POP JUMP JUMPDEST PUSH0 PUSH1 0x20 DUP3 ADD SWAP1 POP PUSH2 0x1EC PUSH0 DUP4 ADD DUP5 PUSH2 0x1CA JUMP JUMPDEST SWAP3 SWAP2 POP POP JUMP JUMPDEST PUSH0 PUSH20 0xFFFFFFFFFFFFFFFFFFFFFFFFFFFFFFFFFFFFFFFF DUP3 AND SWAP1 POP SWAP2 SWAP1 POP JUMP JUMPDEST PUSH0 PUSH2 0x21B DUP3 PUSH2 0x1F2 JUMP JUMPDEST SWAP1 POP SWAP2 SWAP1 POP JUMP JUMPDEST PUSH2 0x22B DUP2 PUSH2 0x211 JUMP JUMPDEST DUP3 MSTORE POP POP JUMP JUMPDEST PUSH0 PUSH1 0x20 DUP3 ADD SWAP1 POP PUSH2 0x244 PUSH0 DUP4 ADD DUP5 PUSH2 0x222 JUMP JUMPDEST SWAP3 SWAP2 POP POP JUMP JUMPDEST PUSH0 DUP3 DUP3 MSTORE PUSH1 0x20 DUP3 ADD SWAP1 POP SWAP3 SWAP2 POP POP JUMP JUMPDEST PUSH32 0x6E6F7420746865206F776E657200000000000000000000000000000000000000 PUSH0 DUP3 ADD MSTORE POP JUMP JUMPDEST PUSH0 PUSH2 0x28E PUSH1 0xD DUP4 PUSH2 0x24A JUMP JUMPDEST SWAP2 POP PUSH2 0x299 DUP3 PUSH2 0x25A JUMP JUMPDEST PUSH1 0x20 DUP3 ADD SWAP1 POP SWAP2 SWAP1 POP JUMP JUMPDEST PUSH0 PUSH1 0x20 DUP3 ADD SWAP1 POP DUP2 DUP2 SUB PUSH0 DUP4 ADD MSTORE PUSH2 0x2BB DUP2 PUSH2 0x282 JUMP JUMPDEST SWAP1 POP SWAP2 SWAP1 POP JUMP JUMPDEST PUSH32 0x4E487B7100000000000000000000000000000000000000000000000000000000 PUSH0 MSTORE PUSH1 0x11 PUSH1 0x4 MSTORE PUSH1 0x24 PUSH0 REVERT JUMPDEST PUSH0 PUSH2 0x2F9 DUP3 PUSH2 0x16C JUMP JUMPDEST SWAP2 POP PUSH2 0x304 DUP4 PUSH2 0x16C JUMP JUMPDEST SWAP3 POP DUP3 DUP3 ADD SWAP1 POP DUP1 DUP3 GT ISZERO PUSH2 0x31C JUMPI PUSH2 0x31B PUSH2 0x2C2 JUMP JUMPDEST JUMPDEST SWAP3 SWAP2 POP POP JUMP INVALID LOG2 PUSH5 0x6970667358 0x22 SLT KECCAK256 0xB6 0xBE DUP12 0xD0 PC PUSH18 0x9050D894BD2C238CB633C9822CEC6F316A2B 0xF8 0xBD 0xB8 0xB2 MULMOD 0x4E MULMOD DUP5 PUSH5 0x736F6C6343 STOP ADDMOD BYTE STOP CALLER "
				},
				"gasEstimates": {
					"creation": {
						"codeDepositCost": "171200",
						"executionCost": "212",
						"totalCost": "171412"
					},
					"external": {
						"accessTime()": "2424",
						"extendAccess(uint256)": "infinite",
						"owner()": "2530"
					}
				},
				"methodIdentifiers": {
					"accessTime()": "61779089",
					"extendAccess(uint256)": "091f351c",
					"owner()": "8da5cb5b"
				}
			},
			"storageLayout": {
				"storage": [
					{
						"astId": 3,
						"contract": "security/Access Control & Role Management/TimeBasedAccess.sol:TimedAccess",
						"label": "accessTime",
						"offset": 0,
						"slot": "0",
						"type": "t_uint256"
					},
					{
						"astId": 5,
						"contract": "security/Access Control & Role Management/TimeBasedAccess.sol:TimedAccess",
						"label": "owner",
						"offset": 0,
						"slot": "1",
						"type": "t_address"
					}
				],
				"types": {
					"t_address": {
						"encoding": "inplace",
						"label": "address",
						"numberOfBytes": "20"
					},
					"t_uint256": {
						"encoding": "inplace",
						"label": "uint256",
						"numberOfBytes": "32"
					}
				}
			},
			"userdoc": {
				"kind": "user",
				"methods": {},
				"version": 1
			}
		}
	}
}