{
	"data": {
		"bytecode": {
			"linkReferences": {},
			"object": "6080604052348015600e575f80fd5b50610b0a8061001c5f395ff3fe608060405234801561000f575f80fd5b5060043610610034575f3560e01c80630c53c51c146100385780637ecebe0014610068575b5f80fd5b610052600480360381019061004d9190610588565b610098565b60405161005f919061067b565b60405180910390f35b610082600480360381019061007d919061069b565b610281565b60405161008f91906106de565b60405180910390f35b60605f60405180606001604052805f808a73ffffffffffffffffffffffffffffffffffffffff1673ffffffffffffffffffffffffffffffffffffffff1681526020019081526020015f205481526020018873ffffffffffffffffffffffffffffffffffffffff1681526020018781525090506101178782878787610295565b610156576040517f08c379a000000000000000000000000000000000000000000000000000000000815260040161014d90610751565b60405180910390fd5b5f808873ffffffffffffffffffffffffffffffffffffffff1673ffffffffffffffffffffffffffffffffffffffff1681526020019081526020015f205f8154809291906101a29061079c565b91905055505f803073ffffffffffffffffffffffffffffffffffffffff16888a6040516020016101d3929190610862565b6040516020818303038152906040526040516101ef9190610889565b5f604051808303815f865af19150503d805f8114610228576040519150601f19603f3d011682016040523d82523d5f602084013e61022d565b606091505b509150915081610272576040517f08c379a0000000000000000000000000000000000000000000000000000000008152600401610269906108e9565b60405180910390fd5b80935050505095945050505050565b5f602052805f5260405f205f915090505481565b5f60016102c7866040516020016102ac91906109ba565b60405160208183030381529060405280519060200120610349565b8386866040515f81526020016040526040516102e694939291906109f8565b6020604051602081039080840390855afa158015610306573d5f803e3d5ffd5b5050506020604051035173ffffffffffffffffffffffffffffffffffffffff168673ffffffffffffffffffffffffffffffffffffffff1614905095945050505050565b5f8160405160200161035b9190610aaf565b604051602081830303815290604052805190602001209050919050565b5f604051905090565b5f80fd5b5f80fd5b5f73ffffffffffffffffffffffffffffffffffffffff82169050919050565b5f6103b282610389565b9050919050565b6103c2816103a8565b81146103cc575f80fd5b50565b5f813590506103dd816103b9565b92915050565b5f80fd5b5f80fd5b5f601f19601f8301169050919050565b7f4e487b71000000000000000000000000000000000000000000000000000000005f52604160045260245ffd5b610431826103eb565b810181811067ffffffffffffffff821117156104505761044f6103fb565b5b80604052505050565b5f610462610378565b905061046e8282610428565b919050565b5f67ffffffffffffffff82111561048d5761048c6103fb565b5b610496826103eb565b9050602081019050919050565b828183375f83830152505050565b5f6104c36104be84610473565b610459565b9050828152602081018484840111156104df576104de6103e7565b5b6104ea8482856104a3565b509392505050565b5f82601f830112610506576105056103e3565b5b81356105168482602086016104b1565b91505092915050565b5f819050919050565b6105318161051f565b811461053b575f80fd5b50565b5f8135905061054c81610528565b92915050565b5f60ff82169050919050565b61056781610552565b8114610571575f80fd5b50565b5f813590506105828161055e565b92915050565b5f805f805f60a086880312156105a1576105a0610381565b5b5f6105ae888289016103cf565b955050602086013567ffffffffffffffff8111156105cf576105ce610385565b5b6105db888289016104f2565b94505060406105ec8882890161053e565b93505060606105fd8882890161053e565b925050608061060e88828901610574565b9150509295509295909350565b5f81519050919050565b5f82825260208201905092915050565b8281835e5f83830152505050565b5f61064d8261061b565b6106578185610625565b9350610667818560208601610635565b610670816103eb565b840191505092915050565b5f6020820190508181035f8301526106938184610643565b905092915050565b5f602082840312156106b0576106af610381565b5b5f6106bd848285016103cf565b91505092915050565b5f819050919050565b6106d8816106c6565b82525050565b5f6020820190506106f15f8301846106cf565b92915050565b5f82825260208201905092915050565b7f5369676e6174757265206e6f742076616c6964000000000000000000000000005f82015250565b5f61073b6013836106f7565b915061074682610707565b602082019050919050565b5f6020820190508181035f8301526107688161072f565b9050919050565b7f4e487b71000000000000000000000000000000000000000000000000000000005f52601160045260245ffd5b5f6107a6826106c6565b91507fffffffffffffffffffffffffffffffffffffffffffffffffffffffffffffffff82036107d8576107d761076f565b5b600182019050919050565b5f81905092915050565b5f6107f78261061b565b61080181856107e3565b9350610811818560208601610635565b80840191505092915050565b5f8160601b9050919050565b5f6108338261081d565b9050919050565b5f61084482610829565b9050919050565b61085c610857826103a8565b61083a565b82525050565b5f61086d82856107ed565b9150610879828461084b565b6014820191508190509392505050565b5f61089482846107ed565b915081905092915050565b7f46756e6374696f6e2063616c6c206661696c65640000000000000000000000005f82015250565b5f6108d36014836106f7565b91506108de8261089f565b602082019050919050565b5f6020820190508181035f830152610900816108c7565b9050919050565b610910816106c6565b82525050565b61091f816103a8565b82525050565b5f82825260208201905092915050565b5f61093f8261061b565b6109498185610925565b9350610959818560208601610635565b610962816103eb565b840191505092915050565b5f606083015f8301516109825f860182610907565b5060208301516109956020860182610916565b50604083015184820360408601526109ad8282610935565b9150508091505092915050565b5f6020820190508181035f8301526109d2818461096d565b905092915050565b6109e38161051f565b82525050565b6109f281610552565b82525050565b5f608082019050610a0b5f8301876109da565b610a1860208301866109e9565b610a2560408301856109da565b610a3260608301846109da565b95945050505050565b5f81905092915050565b7f19457468657265756d205369676e6564204d6573736167653a0a3332000000005f82015250565b5f610a79601c83610a3b565b9150610a8482610a45565b601c82019050919050565b5f819050919050565b610aa9610aa48261051f565b610a8f565b82525050565b5f610ab982610a6d565b9150610ac58284610a98565b6020820191508190509291505056fea26469706673582212200622d1bc34a6dc1442aa7298aec224e56f478a5db363b4179aafecd93fe4f3dc64736f6c634300081a0033",
			"opcodes": "PUSH1 0x80 PUSH1 0x40 MSTORE CALLVALUE DUP1 ISZERO PUSH1 0xE JUMPI PUSH0 DUP1 REVERT JUMPDEST POP PUSH2 0xB0A DUP1 PUSH2 0x1C PUSH0 CODECOPY PUSH0 RETURN INVALID PUSH1 0x80 PUSH1 0x40 MSTORE CALLVALUE DUP1 ISZERO PUSH2 0xF JUMPI PUSH0 DUP1 REVERT JUMPDEST POP PUSH1 0x4 CALLDATASIZE LT PUSH2 0x34 JUMPI PUSH0 CALLDATALOAD PUSH1 0xE0 SHR DUP1 PUSH4 0xC53C51C EQ PUSH2 0x38 JUMPI DUP1 PUSH4 0x7ECEBE00 EQ PUSH2 0x68 JUMPI JUMPDEST PUSH0 DUP1 REVERT JUMPDEST PUSH2 0x52 PUSH1 0x4 DUP1 CALLDATASIZE SUB DUP2 ADD SWAP1 PUSH2 0x4D SWAP2 SWAP1 PUSH2 0x588 JUMP JUMPDEST PUSH2 0x98 JUMP JUMPDEST PUSH1 0x40 MLOAD PUSH2 0x5F SWAP2 SWAP1 PUSH2 0x67B JUMP JUMPDEST PUSH1 0x40 MLOAD DUP1 SWAP2 SUB SWAP1 RETURN JUMPDEST PUSH2 0x82 PUSH1 0x4 DUP1 CALLDATASIZE SUB DUP2 ADD SWAP1 PUSH2 0x7D SWAP2 SWAP1 PUSH2 0x69B JUMP JUMPDEST PUSH2 0x281 JUMP JUMPDEST PUSH1 0x40 MLOAD PUSH2 0x8F SWAP2 SWAP1 PUSH2 0x6DE JUMP JUMPDEST PUSH1 0x40 MLOAD DUP1 SWAP2 SUB SWAP1 RETURN JUMPDEST PUSH1 0x60 PUSH0 PUSH1 0x40 MLOAD DUP1 PUSH1 0x60 ADD PUSH1 0x40 MSTORE DUP1 PUSH0 DUP1 DUP11 PUSH20 0xFFFFFFFFFFFFFFFFFFFFFFFFFFFFFFFFFFFFFFFF AND PUSH20 0xFFFFFFFFFFFFFFFFFFFFFFFFFFFFFFFFFFFFFFFF AND DUP2 MSTORE PUSH1 0x20 ADD SWAP1 DUP2 MSTORE PUSH1 0x20 ADD PUSH0 KECCAK256 SLOAD DUP2 MSTORE PUSH1 0x20 ADD DUP9 PUSH20 0xFFFFFFFFFFFFFFFFFFFFFFFFFFFFFFFFFFFFFFFF AND DUP2 MSTORE PUSH1 0x20 ADD DUP8 DUP2 MSTORE POP SWAP1 POP PUSH2 0x117 DUP8 DUP3 DUP8 DUP8 DUP8 PUSH2 0x295 JUMP JUMPDEST PUSH2 0x156 JUMPI PUSH1 0x40 MLOAD PUSH32 0x8C379A000000000000000000000000000000000000000000000000000000000 DUP2 MSTORE PUSH1 0x4 ADD PUSH2 0x14D SWAP1 PUSH2 0x751 JUMP JUMPDEST PUSH1 0x40 MLOAD DUP1 SWAP2 SUB SWAP1 REVERT JUMPDEST PUSH0 DUP1 DUP9 PUSH20 0xFFFFFFFFFFFFFFFFFFFFFFFFFFFFFFFFFFFFFFFF AND PUSH20 0xFFFFFFFFFFFFFFFFFFFFFFFFFFFFFFFFFFFFFFFF AND DUP2 MSTORE PUSH1 0x20 ADD SWAP1 DUP2 MSTORE PUSH1 0x20 ADD PUSH0 KECCAK256 PUSH0 DUP2 SLOAD DUP1 SWAP3 SWAP2 SWAP1 PUSH2 0x1A2 SWAP1 PUSH2 0x79C JUMP JUMPDEST SWAP2 SWAP1 POP SSTORE POP PUSH0 DUP1 ADDRESS PUSH20 0xFFFFFFFFFFFFFFFFFFFFFFFFFFFFFFFFFFFFFFFF AND DUP9 DUP11 PUSH1 0x40 MLOAD PUSH1 0x20 ADD PUSH2 0x1D3 SWAP3 SWAP2 SWAP1 PUSH2 0x862 JUMP JUMPDEST PUSH1 0x40 MLOAD PUSH1 0x20 DUP2 DUP4 SUB SUB DUP2 MSTORE SWAP1 PUSH1 0x40 MSTORE PUSH1 0x40 MLOAD PUSH2 0x1EF SWAP2 SWAP1 PUSH2 0x889 JUMP JUMPDEST PUSH0 PUSH1 0x40 MLOAD DUP1 DUP4 SUB DUP2 PUSH0 DUP7 GAS CALL SWAP2 POP POP RETURNDATASIZE DUP1 PUSH0 DUP2 EQ PUSH2 0x228 JUMPI PUSH1 0x40 MLOAD SWAP2 POP PUSH1 0x1F NOT PUSH1 0x3F RETURNDATASIZE ADD AND DUP3 ADD PUSH1 0x40 MSTORE RETURNDATASIZE DUP3 MSTORE RETURNDATASIZE PUSH0 PUSH1 0x20 DUP5 ADD RETURNDATACOPY PUSH2 0x22D JUMP JUMPDEST PUSH1 0x60 SWAP2 POP JUMPDEST POP SWAP2 POP SWAP2 POP DUP2 PUSH2 0x272 JUMPI PUSH1 0x40 MLOAD PUSH32 0x8C379A000000000000000000000000000000000000000000000000000000000 DUP2 MSTORE PUSH1 0x4 ADD PUSH2 0x269 SWAP1 PUSH2 0x8E9 JUMP JUMPDEST PUSH1 0x40 MLOAD DUP1 SWAP2 SUB SWAP1 REVERT JUMPDEST DUP1 SWAP4 POP POP POP POP SWAP6 SWAP5 POP POP POP POP POP JUMP JUMPDEST PUSH0 PUSH1 0x20 MSTORE DUP1 PUSH0 MSTORE PUSH1 0x40 PUSH0 KECCAK256 PUSH0 SWAP2 POP SWAP1 POP SLOAD DUP2 JUMP JUMPDEST PUSH0 PUSH1 0x1 PUSH2 0x2C7 DUP7 PUSH1 0x40 MLOAD PUSH1 0x20 ADD PUSH2 0x2AC SWAP2 SWAP1 PUSH2 0x9BA JUMP JUMPDEST PUSH1 0x40 MLOAD PUSH1 0x20 DUP2 DUP4 SUB SUB DUP2 MSTORE SWAP1 PUSH1 0x40 MSTORE DUP1 MLOAD SWAP1 PUSH1 0x20 ADD KECCAK256 PUSH2 0x349 JUMP JUMPDEST DUP4 DUP7 DUP7 PUSH1 0x40 MLOAD PUSH0 DUP2 MSTORE PUSH1 0x20 ADD PUSH1 0x40 MSTORE PUSH1 0x40 MLOAD PUSH2 0x2E6 SWAP5 SWAP4 SWAP3 SWAP2 SWAP1 PUSH2 0x9F8 JUMP JUMPDEST PUSH1 0x20 PUSH1 0x40 MLOAD PUSH1 0x20 DUP2 SUB SWAP1 DUP1 DUP5 SUB SWAP1 DUP6 GAS STATICCALL ISZERO DUP1 ISZERO PUSH2 0x306 JUMPI RETURNDATASIZE PUSH0 DUP1 RETURNDATACOPY RETURNDATASIZE PUSH0 REVERT JUMPDEST POP POP POP PUSH1 0x20 PUSH1 0x40 MLOAD SUB MLOAD PUSH20 0xFFFFFFFFFFFFFFFFFFFFFFFFFFFFFFFFFFFFFFFF AND DUP7 PUSH20 0xFFFFFFFFFFFFFFFFFFFFFFFFFFFFFFFFFFFFFFFF AND EQ SWAP1 POP SWAP6 SWAP5 POP POP POP POP POP JUMP JUMPDEST PUSH0 DUP2 PUSH1 0x40 MLOAD PUSH1 0x20 ADD PUSH2 0x35B SWAP2 SWAP1 PUSH2 0xAAF JUMP JUMPDEST PUSH1 0x40 MLOAD PUSH1 0x20 DUP2 DUP4 SUB SUB DUP2 MSTORE SWAP1 PUSH1 0x40 MSTORE DUP1 MLOAD SWAP1 PUSH1 0x20 ADD KECCAK256 SWAP1 POP SWAP2 SWAP1 POP JUMP JUMPDEST PUSH0 PUSH1 0x40 MLOAD SWAP1 POP SWAP1 JUMP JUMPDEST PUSH0 DUP1 REVERT JUMPDEST PUSH0 DUP1 REVERT JUMPDEST PUSH0 PUSH20 0xFFFFFFFFFFFFFFFFFFFFFFFFFFFFFFFFFFFFFFFF DUP3 AND SWAP1 POP SWAP2 SWAP1 POP JUMP JUMPDEST PUSH0 PUSH2 0x3B2 DUP3 PUSH2 0x389 JUMP JUMPDEST SWAP1 POP SWAP2 SWAP1 POP JUMP JUMPDEST PUSH2 0x3C2 DUP2 PUSH2 0x3A8 JUMP JUMPDEST DUP2 EQ PUSH2 0x3CC JUMPI PUSH0 DUP1 REVERT JUMPDEST POP JUMP JUMPDEST PUSH0 DUP2 CALLDATALOAD SWAP1 POP PUSH2 0x3DD DUP2 PUSH2 0x3B9 JUMP JUMPDEST SWAP3 SWAP2 POP POP JUMP JUMPDEST PUSH0 DUP1 REVERT JUMPDEST PUSH0 DUP1 REVERT JUMPDEST PUSH0 PUSH1 0x1F NOT PUSH1 0x1F DUP4 ADD AND SWAP1 POP SWAP2 SWAP1 POP JUMP JUMPDEST PUSH32 0x4E487B7100000000000000000000000000000000000000000000000000000000 PUSH0 MSTORE PUSH1 0x41 PUSH1 0x4 MSTORE PUSH1 0x24 PUSH0 REVERT JUMPDEST PUSH2 0x431 DUP3 PUSH2 0x3EB JUMP JUMPDEST DUP2 ADD DUP2 DUP2 LT PUSH8 0xFFFFFFFFFFFFFFFF DUP3 GT OR ISZERO PUSH2 0x450 JUMPI PUSH2 0x44F PUSH2 0x3FB JUMP JUMPDEST JUMPDEST DUP1 PUSH1 0x40 MSTORE POP POP POP JUMP JUMPDEST PUSH0 PUSH2 0x462 PUSH2 0x378 JUMP JUMPDEST SWAP1 POP PUSH2 0x46E DUP3 DUP3 PUSH2 0x428 JUMP JUMPDEST SWAP2 SWAP1 POP JUMP JUMPDEST PUSH0 PUSH8 0xFFFFFFFFFFFFFFFF DUP3 GT ISZERO PUSH2 0x48D JUMPI PUSH2 0x48C PUSH2 0x3FB JUMP JUMPDEST JUMPDEST PUSH2 0x496 DUP3 PUSH2 0x3EB JUMP JUMPDEST SWAP1 POP PUSH1 0x20 DUP2 ADD SWAP1 POP SWAP2 SWAP1 POP JUMP JUMPDEST DUP3 DUP2 DUP4 CALLDATACOPY PUSH0 DUP4 DUP4 ADD MSTORE POP POP POP JUMP JUMPDEST PUSH0 PUSH2 0x4C3 PUSH2 0x4BE DUP5 PUSH2 0x473 JUMP JUMPDEST PUSH2 0x459 JUMP JUMPDEST SWAP1 POP DUP3 DUP2 MSTORE PUSH1 0x20 DUP2 ADD DUP5 DUP5 DUP5 ADD GT ISZERO PUSH2 0x4DF JUMPI PUSH2 0x4DE PUSH2 0x3E7 JUMP JUMPDEST JUMPDEST PUSH2 0x4EA DUP5 DUP3 DUP6 PUSH2 0x4A3 JUMP JUMPDEST POP SWAP4 SWAP3 POP POP POP JUMP JUMPDEST PUSH0 DUP3 PUSH1 0x1F DUP4 ADD SLT PUSH2 0x506 JUMPI PUSH2 0x505 PUSH2 0x3E3 JUMP JUMPDEST JUMPDEST DUP2 CALLDATALOAD PUSH2 0x516 DUP5 DUP3 PUSH1 0x20 DUP7 ADD PUSH2 0x4B1 JUMP JUMPDEST SWAP2 POP POP SWAP3 SWAP2 POP POP JUMP JUMPDEST PUSH0 DUP2 SWAP1 POP SWAP2 SWAP1 POP JUMP JUMPDEST PUSH2 0x531 DUP2 PUSH2 0x51F JUMP JUMPDEST DUP2 EQ PUSH2 0x53B JUMPI PUSH0 DUP1 REVERT JUMPDEST POP JUMP JUMPDEST PUSH0 DUP2 CALLDATALOAD SWAP1 POP PUSH2 0x54C DUP2 PUSH2 0x528 JUMP JUMPDEST SWAP3 SWAP2 POP POP JUMP JUMPDEST PUSH0 PUSH1 0xFF DUP3 AND SWAP1 POP SWAP2 SWAP1 POP JUMP JUMPDEST PUSH2 0x567 DUP2 PUSH2 0x552 JUMP JUMPDEST DUP2 EQ PUSH2 0x571 JUMPI PUSH0 DUP1 REVERT JUMPDEST POP JUMP JUMPDEST PUSH0 DUP2 CALLDATALOAD SWAP1 POP PUSH2 0x582 DUP2 PUSH2 0x55E JUMP JUMPDEST SWAP3 SWAP2 POP POP JUMP JUMPDEST PUSH0 DUP1 PUSH0 DUP1 PUSH0 PUSH1 0xA0 DUP7 DUP9 SUB SLT ISZERO PUSH2 0x5A1 JUMPI PUSH2 0x5A0 PUSH2 0x381 JUMP JUMPDEST JUMPDEST PUSH0 PUSH2 0x5AE DUP9 DUP3 DUP10 ADD PUSH2 0x3CF JUMP JUMPDEST SWAP6 POP POP PUSH1 0x20 DUP7 ADD CALLDATALOAD PUSH8 0xFFFFFFFFFFFFFFFF DUP2 GT ISZERO PUSH2 0x5CF JUMPI PUSH2 0x5CE PUSH2 0x385 JUMP JUMPDEST JUMPDEST PUSH2 0x5DB DUP9 DUP3 DUP10 ADD PUSH2 0x4F2 JUMP JUMPDEST SWAP5 POP POP PUSH1 0x40 PUSH2 0x5EC DUP9 DUP3 DUP10 ADD PUSH2 0x53E JUMP JUMPDEST SWAP4 POP POP PUSH1 0x60 PUSH2 0x5FD DUP9 DUP3 DUP10 ADD PUSH2 0x53E JUMP JUMPDEST SWAP3 POP POP PUSH1 0x80 PUSH2 0x60E DUP9 DUP3 DUP10 ADD PUSH2 0x574 JUMP JUMPDEST SWAP2 POP POP SWAP3 SWAP6 POP SWAP3 SWAP6 SWAP1 SWAP4 POP JUMP JUMPDEST PUSH0 DUP2 MLOAD SWAP1 POP SWAP2 SWAP1 POP JUMP JUMPDEST PUSH0 DUP3 DUP3 MSTORE PUSH1 0x20 DUP3 ADD SWAP1 POP SWAP3 SWAP2 POP POP JUMP JUMPDEST DUP3 DUP2 DUP4 MCOPY PUSH0 DUP4 DUP4 ADD MSTORE POP POP POP JUMP JUMPDEST PUSH0 PUSH2 0x64D DUP3 PUSH2 0x61B JUMP JUMPDEST PUSH2 0x657 DUP2 DUP6 PUSH2 0x625 JUMP JUMPDEST SWAP4 POP PUSH2 0x667 DUP2 DUP6 PUSH1 0x20 DUP7 ADD PUSH2 0x635 JUMP JUMPDEST PUSH2 0x670 DUP2 PUSH2 0x3EB JUMP JUMPDEST DUP5 ADD SWAP2 POP POP SWAP3 SWAP2 POP POP JUMP JUMPDEST PUSH0 PUSH1 0x20 DUP3 ADD SWAP1 POP DUP2 DUP2 SUB PUSH0 DUP4 ADD MSTORE PUSH2 0x693 DUP2 DUP5 PUSH2 0x643 JUMP JUMPDEST SWAP1 POP SWAP3 SWAP2 POP POP JUMP JUMPDEST PUSH0 PUSH1 0x20 DUP3 DUP5 SUB SLT ISZERO PUSH2 0x6B0 JUMPI PUSH2 0x6AF PUSH2 0x381 JUMP JUMPDEST JUMPDEST PUSH0 PUSH2 0x6BD DUP5 DUP3 DUP6 ADD PUSH2 0x3CF JUMP JUMPDEST SWAP2 POP POP SWAP3 SWAP2 POP POP JUMP JUMPDEST PUSH0 DUP2 SWAP1 POP SWAP2 SWAP1 POP JUMP JUMPDEST PUSH2 0x6D8 DUP2 PUSH2 0x6C6 JUMP JUMPDEST DUP3 MSTORE POP POP JUMP JUMPDEST PUSH0 PUSH1 0x20 DUP3 ADD SWAP1 POP PUSH2 0x6F1 PUSH0 DUP4 ADD DUP5 PUSH2 0x6CF JUMP JUMPDEST SWAP3 SWAP2 POP POP JUMP JUMPDEST PUSH0 DUP3 DUP3 MSTORE PUSH1 0x20 DUP3 ADD SWAP1 POP SWAP3 SWAP2 POP POP JUMP JUMPDEST PUSH32 0x5369676E6174757265206E6F742076616C696400000000000000000000000000 PUSH0 DUP3 ADD MSTORE POP JUMP JUMPDEST PUSH0 PUSH2 0x73B PUSH1 0x13 DUP4 PUSH2 0x6F7 JUMP JUMPDEST SWAP2 POP PUSH2 0x746 DUP3 PUSH2 0x707 JUMP JUMPDEST PUSH1 0x20 DUP3 ADD SWAP1 POP SWAP2 SWAP1 POP JUMP JUMPDEST PUSH0 PUSH1 0x20 DUP3 ADD SWAP1 POP DUP2 DUP2 SUB PUSH0 DUP4 ADD MSTORE PUSH2 0x768 DUP2 PUSH2 0x72F JUMP JUMPDEST SWAP1 POP SWAP2 SWAP1 POP JUMP JUMPDEST PUSH32 0x4E487B7100000000000000000000000000000000000000000000000000000000 PUSH0 MSTORE PUSH1 0x11 PUSH1 0x4 MSTORE PUSH1 0x24 PUSH0 REVERT JUMPDEST PUSH0 PUSH2 0x7A6 DUP3 PUSH2 0x6C6 JUMP JUMPDEST SWAP2 POP PUSH32 0xFFFFFFFFFFFFFFFFFFFFFFFFFFFFFFFFFFFFFFFFFFFFFFFFFFFFFFFFFFFFFFFF DUP3 SUB PUSH2 0x7D8 JUMPI PUSH2 0x7D7 PUSH2 0x76F JUMP JUMPDEST JUMPDEST PUSH1 0x1 DUP3 ADD SWAP1 POP SWAP2 SWAP1 POP JUMP JUMPDEST PUSH0 DUP2 SWAP1 POP SWAP3 SWAP2 POP POP JUMP JUMPDEST PUSH0 PUSH2 0x7F7 DUP3 PUSH2 0x61B JUMP JUMPDEST PUSH2 0x801 DUP2 DUP6 PUSH2 0x7E3 JUMP JUMPDEST SWAP4 POP PUSH2 0x811 DUP2 DUP6 PUSH1 0x20 DUP7 ADD PUSH2 0x635 JUMP JUMPDEST DUP1 DUP5 ADD SWAP2 POP POP SWAP3 SWAP2 POP POP JUMP JUMPDEST PUSH0 DUP2 PUSH1 0x60 SHL SWAP1 POP SWAP2 SWAP1 POP JUMP JUMPDEST PUSH0 PUSH2 0x833 DUP3 PUSH2 0x81D JUMP JUMPDEST SWAP1 POP SWAP2 SWAP1 POP JUMP JUMPDEST PUSH0 PUSH2 0x844 DUP3 PUSH2 0x829 JUMP JUMPDEST SWAP1 POP SWAP2 SWAP1 POP JUMP JUMPDEST PUSH2 0x85C PUSH2 0x857 DUP3 PUSH2 0x3A8 JUMP JUMPDEST PUSH2 0x83A JUMP JUMPDEST DUP3 MSTORE POP POP JUMP JUMPDEST PUSH0 PUSH2 0x86D DUP3 DUP6 PUSH2 0x7ED JUMP JUMPDEST SWAP2 POP PUSH2 0x879 DUP3 DUP5 PUSH2 0x84B JUMP JUMPDEST PUSH1 0x14 DUP3 ADD SWAP2 POP DUP2 SWAP1 POP SWAP4 SWAP3 POP POP POP JUMP JUMPDEST PUSH0 PUSH2 0x894 DUP3 DUP5 PUSH2 0x7ED JUMP JUMPDEST SWAP2 POP DUP2 SWAP1 POP SWAP3 SWAP2 POP POP JUMP JUMPDEST PUSH32 0x46756E6374696F6E2063616C6C206661696C6564000000000000000000000000 PUSH0 DUP3 ADD MSTORE POP JUMP JUMPDEST PUSH0 PUSH2 0x8D3 PUSH1 0x14 DUP4 PUSH2 0x6F7 JUMP JUMPDEST SWAP2 POP PUSH2 0x8DE DUP3 PUSH2 0x89F JUMP JUMPDEST PUSH1 0x20 DUP3 ADD SWAP1 POP SWAP2 SWAP1 POP JUMP JUMPDEST PUSH0 PUSH1 0x20 DUP3 ADD SWAP1 POP DUP2 DUP2 SUB PUSH0 DUP4 ADD MSTORE PUSH2 0x900 DUP2 PUSH2 0x8C7 JUMP JUMPDEST SWAP1 POP SWAP2 SWAP1 POP JUMP JUMPDEST PUSH2 0x910 DUP2 PUSH2 0x6C6 JUMP JUMPDEST DUP3 MSTORE POP POP JUMP JUMPDEST PUSH2 0x91F DUP2 PUSH2 0x3A8 JUMP JUMPDEST DUP3 MSTORE POP POP JUMP JUMPDEST PUSH0 DUP3 DUP3 MSTORE PUSH1 0x20 DUP3 ADD SWAP1 POP SWAP3 SWAP2 POP POP JUMP JUMPDEST PUSH0 PUSH2 0x93F DUP3 PUSH2 0x61B JUMP JUMPDEST PUSH2 0x949 DUP2 DUP6 PUSH2 0x925 JUMP JUMPDEST SWAP4 POP PUSH2 0x959 DUP2 DUP6 PUSH1 0x20 DUP7 ADD PUSH2 0x635 JUMP JUMPDEST PUSH2 0x962 DUP2 PUSH2 0x3EB JUMP JUMPDEST DUP5 ADD SWAP2 POP POP SWAP3 SWAP2 POP POP JUMP JUMPDEST PUSH0 PUSH1 0x60 DUP4 ADD PUSH0 DUP4 ADD MLOAD PUSH2 0x982 PUSH0 DUP7 ADD DUP3 PUSH2 0x907 JUMP JUMPDEST POP PUSH1 0x20 DUP4 ADD MLOAD PUSH2 0x995 PUSH1 0x20 DUP7 ADD DUP3 PUSH2 0x916 JUMP JUMPDEST POP PUSH1 0x40 DUP4 ADD MLOAD DUP5 DUP3 SUB PUSH1 0x40 DUP7 ADD MSTORE PUSH2 0x9AD DUP3 DUP3 PUSH2 0x935 JUMP JUMPDEST SWAP2 POP POP DUP1 SWAP2 POP POP SWAP3 SWAP2 POP POP JUMP JUMPDEST PUSH0 PUSH1 0x20 DUP3 ADD SWAP1 POP DUP2 DUP2 SUB PUSH0 DUP4 ADD MSTORE PUSH2 0x9D2 DUP2 DUP5 PUSH2 0x96D JUMP JUMPDEST SWAP1 POP SWAP3 SWAP2 POP POP JUMP JUMPDEST PUSH2 0x9E3 DUP2 PUSH2 0x51F JUMP JUMPDEST DUP3 MSTORE POP POP JUMP JUMPDEST PUSH2 0x9F2 DUP2 PUSH2 0x552 JUMP JUMPDEST DUP3 MSTORE POP POP JUMP JUMPDEST PUSH0 PUSH1 0x80 DUP3 ADD SWAP1 POP PUSH2 0xA0B PUSH0 DUP4 ADD DUP8 PUSH2 0x9DA JUMP JUMPDEST PUSH2 0xA18 PUSH1 0x20 DUP4 ADD DUP7 PUSH2 0x9E9 JUMP JUMPDEST PUSH2 0xA25 PUSH1 0x40 DUP4 ADD DUP6 PUSH2 0x9DA JUMP JUMPDEST PUSH2 0xA32 PUSH1 0x60 DUP4 ADD DUP5 PUSH2 0x9DA JUMP JUMPDEST SWAP6 SWAP5 POP POP POP POP POP JUMP JUMPDEST PUSH0 DUP2 SWAP1 POP SWAP3 SWAP2 POP POP JUMP JUMPDEST PUSH32 0x19457468657265756D205369676E6564204D6573736167653A0A333200000000 PUSH0 DUP3 ADD MSTORE POP JUMP JUMPDEST PUSH0 PUSH2 0xA79 PUSH1 0x1C DUP4 PUSH2 0xA3B JUMP JUMPDEST SWAP2 POP PUSH2 0xA84 DUP3 PUSH2 0xA45 JUMP JUMPDEST PUSH1 0x1C DUP3 ADD SWAP1 POP SWAP2 SWAP1 POP JUMP JUMPDEST PUSH0 DUP2 SWAP1 POP SWAP2 SWAP1 POP JUMP JUMPDEST PUSH2 0xAA9 PUSH2 0xAA4 DUP3 PUSH2 0x51F JUMP JUMPDEST PUSH2 0xA8F JUMP JUMPDEST DUP3 MSTORE POP POP JUMP JUMPDEST PUSH0 PUSH2 0xAB9 DUP3 PUSH2 0xA6D JUMP JUMPDEST SWAP2 POP PUSH2 0xAC5 DUP3 DUP5 PUSH2 0xA98 JUMP JUMPDEST PUSH1 0x20 DUP3 ADD SWAP2 POP DUP2 SWAP1 POP SWAP3 SWAP2 POP POP JUMP INVALID LOG2 PUSH5 0x6970667358 0x22 SLT KECCAK256 MOD 0x22 0xD1 0xBC CALLVALUE 0xA6 0xDC EQ TIMESTAMP 0xAA PUSH19 0x98AEC224E56F478A5DB363B4179AAFECD93FE4 RETURN 0xDC PUSH5 0x736F6C6343 STOP ADDMOD BYTE STOP CALLER "
		},
		"gasEstimates": {
			"creation": {
				"codeDepositCost": "565200",
				"executionCost": "598",
				"totalCost": "565798"
			},
			"external": {
				"executeMetaTransaction(address,bytes,bytes32,bytes32,uint8)": "infinite",
				"nonces(address)": "2801"
			},
			"internal": {
				"toEthSignedMessageHash(bytes32)": "infinite",
				"verify(address,struct MetaTransaction.MetaData memory,bytes32,bytes32,uint8)": "infinite"
			}
		},
		"methodIdentifiers": {
			"executeMetaTransaction(address,bytes,bytes32,bytes32,uint8)": "0c53c51c",
			"nonces(address)": "7ecebe00"
		}
	},
	"abi": [
		{
			"inputs": [
				{
					"internalType": "address",
					"name": "userAddress",
					"type": "address"
				},
				{
					"internalType": "bytes",
					"name": "functionSignature",
					"type": "bytes"
				},
				{
					"internalType": "bytes32",
					"name": "sigR",
					"type": "bytes32"
				},
				{
					"internalType": "bytes32",
					"name": "sigS",
					"type": "bytes32"
				},
				{
					"internalType": "uint8",
					"name": "sigV",
					"type": "uint8"
				}
			],
			"name": "executeMetaTransaction",
			"outputs": [
				{
					"internalType": "bytes",
					"name": "",
					"type": "bytes"
				}
			],
			"stateMutability": "nonpayable",
			"type": "function"
		},
		{
			"inputs": [
				{
					"internalType": "address",
					"name": "",
					"type": "address"
				}
			],
			"name": "nonces",
			"outputs": [
				{
					"internalType": "uint256",
					"name": "",
					"type": "uint256"
				}
			],
			"stateMutability": "view",
			"type": "function"
		}
	]
}