{
	"security/Upgradeability/ProxyPatttern.sol": {
		"Proxy": {
			"abi": [
				{
					"inputs": [
						{
							"internalType": "address",
							"name": "_implementation",
							"type": "address"
						}
					],
					"stateMutability": "nonpayable",
					"type": "constructor"
				},
				{
					"stateMutability": "nonpayable",
					"type": "fallback"
				},
				{
					"inputs": [],
					"name": "admin",
					"outputs": [
						{
							"internalType": "address",
							"name": "",
							"type": "address"
						}
					],
					"stateMutability": "view",
					"type": "function"
				},
				{
					"inputs": [],
					"name": "implementation",
					"outputs": [
						{
							"internalType": "address",
							"name": "",
							"type": "address"
						}
					],
					"stateMutability": "view",
					"type": "function"
				},
				{
					"inputs": [
						{
							"internalType": "address",
							"name": "newImplementation",
							"type": "address"
						}
					],
					"name": "upgradeContract",
					"outputs": [],
					"stateMutability": "nonpayable",
					"type": "function"
				}
			],
			"devdoc": {
				"kind": "dev",
				"methods": {},
				"version": 1
			},
			"evm": {
				"assembly": "    /* \"security/Upgradeability/ProxyPatttern.sol\":61:871  contract Proxy{... */\n  mstore(0x40, 0x80)\n    /* \"security/Upgradeability/ProxyPatttern.sol\":147:263  constructor(address _implementation){... */\n  callvalue\n  dup1\n  iszero\n  tag_1\n  jumpi\n  0x00\n  dup1\n  revert\ntag_1:\n  pop\n  mload(0x40)\n  sub(codesize, bytecodeSize)\n  dup1\n  bytecodeSize\n  dup4\n  codecopy\n  dup2\n  dup2\n  add\n  0x40\n  mstore\n  dup2\n  add\n  swap1\n  tag_2\n  swap2\n  swap1\n  tag_3\n  jump\t// in\ntag_2:\n    /* \"security/Upgradeability/ProxyPatttern.sol\":211:226  _implementation */\n  dup1\n    /* \"security/Upgradeability/ProxyPatttern.sol\":194:208  implementation */\n  0x00\n  dup1\n    /* \"security/Upgradeability/ProxyPatttern.sol\":194:226  implementation = _implementation */\n  0x0100\n  exp\n  dup2\n  sload\n  dup2\n  0xffffffffffffffffffffffffffffffffffffffff\n  mul\n  not\n  and\n  swap1\n  dup4\n  0xffffffffffffffffffffffffffffffffffffffff\n  and\n  mul\n  or\n  swap1\n  sstore\n  pop\n    /* \"security/Upgradeability/ProxyPatttern.sol\":245:255  msg.sender */\n  caller\n    /* \"security/Upgradeability/ProxyPatttern.sol\":237:242  admin */\n  0x01\n  0x00\n    /* \"security/Upgradeability/ProxyPatttern.sol\":237:255  admin = msg.sender */\n  0x0100\n  exp\n  dup2\n  sload\n  dup2\n  0xffffffffffffffffffffffffffffffffffffffff\n  mul\n  not\n  and\n  swap1\n  dup4\n  0xffffffffffffffffffffffffffffffffffffffff\n  and\n  mul\n  or\n  swap1\n  sstore\n  pop\n    /* \"security/Upgradeability/ProxyPatttern.sol\":147:263  constructor(address _implementation){... */\n  pop\n    /* \"security/Upgradeability/ProxyPatttern.sol\":61:871  contract Proxy{... */\n  jump(tag_6)\n    /* \"#utility.yul\":88:205   */\ntag_8:\n    /* \"#utility.yul\":197:198   */\n  0x00\n    /* \"#utility.yul\":194:195   */\n  dup1\n    /* \"#utility.yul\":187:199   */\n  revert\n    /* \"#utility.yul\":334:460   */\ntag_10:\n    /* \"#utility.yul\":371:378   */\n  0x00\n    /* \"#utility.yul\":411:453   */\n  0xffffffffffffffffffffffffffffffffffffffff\n    /* \"#utility.yul\":404:409   */\n  dup3\n    /* \"#utility.yul\":400:454   */\n  and\n    /* \"#utility.yul\":389:454   */\n  swap1\n  pop\n    /* \"#utility.yul\":334:460   */\n  swap2\n  swap1\n  pop\n  jump\t// out\n    /* \"#utility.yul\":466:562   */\ntag_11:\n    /* \"#utility.yul\":503:510   */\n  0x00\n    /* \"#utility.yul\":532:556   */\n  tag_20\n    /* \"#utility.yul\":550:555   */\n  dup3\n    /* \"#utility.yul\":532:556   */\n  tag_10\n  jump\t// in\ntag_20:\n    /* \"#utility.yul\":521:556   */\n  swap1\n  pop\n    /* \"#utility.yul\":466:562   */\n  swap2\n  swap1\n  pop\n  jump\t// out\n    /* \"#utility.yul\":568:690   */\ntag_12:\n    /* \"#utility.yul\":641:665   */\n  tag_22\n    /* \"#utility.yul\":659:664   */\n  dup2\n    /* \"#utility.yul\":641:665   */\n  tag_11\n  jump\t// in\ntag_22:\n    /* \"#utility.yul\":634:639   */\n  dup2\n    /* \"#utility.yul\":631:666   */\n  eq\n    /* \"#utility.yul\":621:684   */\n  tag_23\n  jumpi\n    /* \"#utility.yul\":680:681   */\n  0x00\n    /* \"#utility.yul\":677:678   */\n  dup1\n    /* \"#utility.yul\":670:682   */\n  revert\n    /* \"#utility.yul\":621:684   */\ntag_23:\n    /* \"#utility.yul\":568:690   */\n  pop\n  jump\t// out\n    /* \"#utility.yul\":696:839   */\ntag_13:\n    /* \"#utility.yul\":753:758   */\n  0x00\n    /* \"#utility.yul\":784:790   */\n  dup2\n    /* \"#utility.yul\":778:791   */\n  mload\n    /* \"#utility.yul\":769:791   */\n  swap1\n  pop\n    /* \"#utility.yul\":800:833   */\n  tag_25\n    /* \"#utility.yul\":827:832   */\n  dup2\n    /* \"#utility.yul\":800:833   */\n  tag_12\n  jump\t// in\ntag_25:\n    /* \"#utility.yul\":696:839   */\n  swap3\n  swap2\n  pop\n  pop\n  jump\t// out\n    /* \"#utility.yul\":845:1196   */\ntag_3:\n    /* \"#utility.yul\":915:921   */\n  0x00\n    /* \"#utility.yul\":964:966   */\n  0x20\n    /* \"#utility.yul\":952:961   */\n  dup3\n    /* \"#utility.yul\":943:950   */\n  dup5\n    /* \"#utility.yul\":939:962   */\n  sub\n    /* \"#utility.yul\":935:967   */\n  slt\n    /* \"#utility.yul\":932:1051   */\n  iszero\n  tag_27\n  jumpi\n    /* \"#utility.yul\":970:1049   */\n  tag_28\n  tag_8\n  jump\t// in\ntag_28:\n    /* \"#utility.yul\":932:1051   */\ntag_27:\n    /* \"#utility.yul\":1090:1091   */\n  0x00\n    /* \"#utility.yul\":1115:1179   */\n  tag_29\n    /* \"#utility.yul\":1171:1178   */\n  dup5\n    /* \"#utility.yul\":1162:1168   */\n  dup3\n    /* \"#utility.yul\":1151:1160   */\n  dup6\n    /* \"#utility.yul\":1147:1169   */\n  add\n    /* \"#utility.yul\":1115:1179   */\n  tag_13\n  jump\t// in\ntag_29:\n    /* \"#utility.yul\":1105:1179   */\n  swap2\n  pop\n    /* \"#utility.yul\":1061:1189   */\n  pop\n    /* \"#utility.yul\":845:1196   */\n  swap3\n  swap2\n  pop\n  pop\n  jump\t// out\n    /* \"security/Upgradeability/ProxyPatttern.sol\":61:871  contract Proxy{... */\ntag_6:\n  dataSize(sub_0)\n  dup1\n  dataOffset(sub_0)\n  0x00\n  codecopy\n  0x00\n  return\nstop\n\nsub_0: assembly {\n        /* \"security/Upgradeability/ProxyPatttern.sol\":61:871  contract Proxy{... */\n      mstore(0x40, 0x80)\n      callvalue\n      dup1\n      iszero\n      tag_1\n      jumpi\n      0x00\n      dup1\n      revert\n    tag_1:\n      pop\n      jumpi(tag_2, lt(calldatasize, 0x04))\n      shr(0xe0, calldataload(0x00))\n      dup1\n      0x5c60da1b\n      eq\n      tag_4\n      jumpi\n      dup1\n      0xeb2c0223\n      eq\n      tag_5\n      jumpi\n      dup1\n      0xf851a440\n      eq\n      tag_6\n      jumpi\n      jump(tag_3)\n    tag_2:\n    tag_3:\n        /* \"security/Upgradeability/ProxyPatttern.sol\":491:503  address _imp */\n      0x00\n        /* \"security/Upgradeability/ProxyPatttern.sol\":506:520  implementation */\n      dup1\n      0x00\n      swap1\n      sload\n      swap1\n      0x0100\n      exp\n      swap1\n      div\n      0xffffffffffffffffffffffffffffffffffffffff\n      and\n        /* \"security/Upgradeability/ProxyPatttern.sol\":491:520  address _imp = implementation */\n      swap1\n      pop\n        /* \"security/Upgradeability/ProxyPatttern.sol\":573:587  calldatasize() */\n      calldatasize\n        /* \"security/Upgradeability/ProxyPatttern.sol\":570:571  0 */\n      0x00\n        /* \"security/Upgradeability/ProxyPatttern.sol\":567:568  0 */\n      dup1\n        /* \"security/Upgradeability/ProxyPatttern.sol\":554:588  calldatacopy(0, 0, calldatasize()) */\n      calldatacopy\n        /* \"security/Upgradeability/ProxyPatttern.sol\":663:664  0 */\n      0x00\n        /* \"security/Upgradeability/ProxyPatttern.sol\":660:661  0 */\n      dup1\n        /* \"security/Upgradeability/ProxyPatttern.sol\":644:658  calldatasize() */\n      calldatasize\n        /* \"security/Upgradeability/ProxyPatttern.sol\":641:642  0 */\n      0x00\n        /* \"security/Upgradeability/ProxyPatttern.sol\":635:639  _imp */\n      dup5\n        /* \"security/Upgradeability/ProxyPatttern.sol\":629:634  gas() */\n      gas\n        /* \"security/Upgradeability/ProxyPatttern.sol\":616:665  delegatecall(gas(),_imp, 0, calldatasize(), 0, 0) */\n      delegatecall\n        /* \"security/Upgradeability/ProxyPatttern.sol\":700:716  returndatasize() */\n      returndatasize\n        /* \"security/Upgradeability/ProxyPatttern.sol\":697:698  0 */\n      0x00\n        /* \"security/Upgradeability/ProxyPatttern.sol\":694:695  0 */\n      dup1\n        /* \"security/Upgradeability/ProxyPatttern.sol\":679:717  returndatacopy(0, 0, returndatasize()) */\n      returndatacopy\n        /* \"security/Upgradeability/ProxyPatttern.sol\":738:744  result */\n      dup1\n        /* \"security/Upgradeability/ProxyPatttern.sol\":765:766  0 */\n      0x00\n        /* \"security/Upgradeability/ProxyPatttern.sol\":760:798  case 0 { revert (0, returndatasize())} */\n      dup2\n      eq\n      tag_10\n      jumpi\n        /* \"security/Upgradeability/ProxyPatttern.sol\":832:848  returndatasize() */\n      returndatasize\n        /* \"security/Upgradeability/ProxyPatttern.sol\":829:830  0 */\n      0x00\n        /* \"security/Upgradeability/ProxyPatttern.sol\":821:849  return (0, returndatasize()) */\n      return\n        /* \"security/Upgradeability/ProxyPatttern.sol\":760:798  case 0 { revert (0, returndatasize())} */\n    tag_10:\n        /* \"security/Upgradeability/ProxyPatttern.sol\":780:796  returndatasize() */\n      returndatasize\n        /* \"security/Upgradeability/ProxyPatttern.sol\":777:778  0 */\n      0x00\n        /* \"security/Upgradeability/ProxyPatttern.sol\":769:797  revert (0, returndatasize()) */\n      revert\n        /* \"security/Upgradeability/ProxyPatttern.sol\":82:111  address public implementation */\n    tag_4:\n      tag_11\n      tag_12\n      jump\t// in\n    tag_11:\n      mload(0x40)\n      tag_13\n      swap2\n      swap1\n      tag_14\n      jump\t// in\n    tag_13:\n      mload(0x40)\n      dup1\n      swap2\n      sub\n      swap1\n      return\n        /* \"security/Upgradeability/ProxyPatttern.sol\":271:451  function upgradeContract(address newImplementation) external{... */\n    tag_5:\n      tag_15\n      0x04\n      dup1\n      calldatasize\n      sub\n      dup2\n      add\n      swap1\n      tag_16\n      swap2\n      swap1\n      tag_17\n      jump\t// in\n    tag_16:\n      tag_18\n      jump\t// in\n    tag_15:\n      stop\n        /* \"security/Upgradeability/ProxyPatttern.sol\":118:138  address public admin */\n    tag_6:\n      tag_19\n      tag_20\n      jump\t// in\n    tag_19:\n      mload(0x40)\n      tag_21\n      swap2\n      swap1\n      tag_14\n      jump\t// in\n    tag_21:\n      mload(0x40)\n      dup1\n      swap2\n      sub\n      swap1\n      return\n        /* \"security/Upgradeability/ProxyPatttern.sol\":82:111  address public implementation */\n    tag_12:\n      0x00\n      dup1\n      sload\n      swap1\n      0x0100\n      exp\n      swap1\n      div\n      0xffffffffffffffffffffffffffffffffffffffff\n      and\n      dup2\n      jump\t// out\n        /* \"security/Upgradeability/ProxyPatttern.sol\":271:451  function upgradeContract(address newImplementation) external{... */\n    tag_18:\n        /* \"security/Upgradeability/ProxyPatttern.sol\":359:369  msg.sender */\n      caller\n        /* \"security/Upgradeability/ProxyPatttern.sol\":350:369  admin == msg.sender */\n      0xffffffffffffffffffffffffffffffffffffffff\n      and\n        /* \"security/Upgradeability/ProxyPatttern.sol\":350:355  admin */\n      0x01\n      0x00\n      swap1\n      sload\n      swap1\n      0x0100\n      exp\n      swap1\n      div\n      0xffffffffffffffffffffffffffffffffffffffff\n      and\n        /* \"security/Upgradeability/ProxyPatttern.sol\":350:369  admin == msg.sender */\n      0xffffffffffffffffffffffffffffffffffffffff\n      and\n      eq\n        /* \"security/Upgradeability/ProxyPatttern.sol\":342:396  require(admin == msg.sender, \"only admin can do this\") */\n      tag_23\n      jumpi\n      mload(0x40)\n      0x08c379a000000000000000000000000000000000000000000000000000000000\n      dup2\n      mstore\n      0x04\n      add\n      tag_24\n      swap1\n      tag_25\n      jump\t// in\n    tag_24:\n      mload(0x40)\n      dup1\n      swap2\n      sub\n      swap1\n      revert\n    tag_23:\n        /* \"security/Upgradeability/ProxyPatttern.sol\":426:443  newImplementation */\n      dup1\n        /* \"security/Upgradeability/ProxyPatttern.sol\":409:423  implementation */\n      0x00\n      dup1\n        /* \"security/Upgradeability/ProxyPatttern.sol\":409:443  implementation = newImplementation */\n      0x0100\n      exp\n      dup2\n      sload\n      dup2\n      0xffffffffffffffffffffffffffffffffffffffff\n      mul\n      not\n      and\n      swap1\n      dup4\n      0xffffffffffffffffffffffffffffffffffffffff\n      and\n      mul\n      or\n      swap1\n      sstore\n      pop\n        /* \"security/Upgradeability/ProxyPatttern.sol\":271:451  function upgradeContract(address newImplementation) external{... */\n      pop\n      jump\t// out\n        /* \"security/Upgradeability/ProxyPatttern.sol\":118:138  address public admin */\n    tag_20:\n      0x01\n      0x00\n      swap1\n      sload\n      swap1\n      0x0100\n      exp\n      swap1\n      div\n      0xffffffffffffffffffffffffffffffffffffffff\n      and\n      dup2\n      jump\t// out\n        /* \"#utility.yul\":7:133   */\n    tag_26:\n        /* \"#utility.yul\":44:51   */\n      0x00\n        /* \"#utility.yul\":84:126   */\n      0xffffffffffffffffffffffffffffffffffffffff\n        /* \"#utility.yul\":77:82   */\n      dup3\n        /* \"#utility.yul\":73:127   */\n      and\n        /* \"#utility.yul\":62:127   */\n      swap1\n      pop\n        /* \"#utility.yul\":7:133   */\n      swap2\n      swap1\n      pop\n      jump\t// out\n        /* \"#utility.yul\":139:235   */\n    tag_27:\n        /* \"#utility.yul\":176:183   */\n      0x00\n        /* \"#utility.yul\":205:229   */\n      tag_40\n        /* \"#utility.yul\":223:228   */\n      dup3\n        /* \"#utility.yul\":205:229   */\n      tag_26\n      jump\t// in\n    tag_40:\n        /* \"#utility.yul\":194:229   */\n      swap1\n      pop\n        /* \"#utility.yul\":139:235   */\n      swap2\n      swap1\n      pop\n      jump\t// out\n        /* \"#utility.yul\":241:359   */\n    tag_28:\n        /* \"#utility.yul\":328:352   */\n      tag_42\n        /* \"#utility.yul\":346:351   */\n      dup2\n        /* \"#utility.yul\":328:352   */\n      tag_27\n      jump\t// in\n    tag_42:\n        /* \"#utility.yul\":323:326   */\n      dup3\n        /* \"#utility.yul\":316:353   */\n      mstore\n        /* \"#utility.yul\":241:359   */\n      pop\n      pop\n      jump\t// out\n        /* \"#utility.yul\":365:587   */\n    tag_14:\n        /* \"#utility.yul\":458:462   */\n      0x00\n        /* \"#utility.yul\":496:498   */\n      0x20\n        /* \"#utility.yul\":485:494   */\n      dup3\n        /* \"#utility.yul\":481:499   */\n      add\n        /* \"#utility.yul\":473:499   */\n      swap1\n      pop\n        /* \"#utility.yul\":509:580   */\n      tag_44\n        /* \"#utility.yul\":577:578   */\n      0x00\n        /* \"#utility.yul\":566:575   */\n      dup4\n        /* \"#utility.yul\":562:579   */\n      add\n        /* \"#utility.yul\":553:559   */\n      dup5\n        /* \"#utility.yul\":509:580   */\n      tag_28\n      jump\t// in\n    tag_44:\n        /* \"#utility.yul\":365:587   */\n      swap3\n      swap2\n      pop\n      pop\n      jump\t// out\n        /* \"#utility.yul\":674:791   */\n    tag_30:\n        /* \"#utility.yul\":783:784   */\n      0x00\n        /* \"#utility.yul\":780:781   */\n      dup1\n        /* \"#utility.yul\":773:785   */\n      revert\n        /* \"#utility.yul\":920:1042   */\n    tag_32:\n        /* \"#utility.yul\":993:1017   */\n      tag_49\n        /* \"#utility.yul\":1011:1016   */\n      dup2\n        /* \"#utility.yul\":993:1017   */\n      tag_27\n      jump\t// in\n    tag_49:\n        /* \"#utility.yul\":986:991   */\n      dup2\n        /* \"#utility.yul\":983:1018   */\n      eq\n        /* \"#utility.yul\":973:1036   */\n      tag_50\n      jumpi\n        /* \"#utility.yul\":1032:1033   */\n      0x00\n        /* \"#utility.yul\":1029:1030   */\n      dup1\n        /* \"#utility.yul\":1022:1034   */\n      revert\n        /* \"#utility.yul\":973:1036   */\n    tag_50:\n        /* \"#utility.yul\":920:1042   */\n      pop\n      jump\t// out\n        /* \"#utility.yul\":1048:1187   */\n    tag_33:\n        /* \"#utility.yul\":1094:1099   */\n      0x00\n        /* \"#utility.yul\":1132:1138   */\n      dup2\n        /* \"#utility.yul\":1119:1139   */\n      calldataload\n        /* \"#utility.yul\":1110:1139   */\n      swap1\n      pop\n        /* \"#utility.yul\":1148:1181   */\n      tag_52\n        /* \"#utility.yul\":1175:1180   */\n      dup2\n        /* \"#utility.yul\":1148:1181   */\n      tag_32\n      jump\t// in\n    tag_52:\n        /* \"#utility.yul\":1048:1187   */\n      swap3\n      swap2\n      pop\n      pop\n      jump\t// out\n        /* \"#utility.yul\":1193:1522   */\n    tag_17:\n        /* \"#utility.yul\":1252:1258   */\n      0x00\n        /* \"#utility.yul\":1301:1303   */\n      0x20\n        /* \"#utility.yul\":1289:1298   */\n      dup3\n        /* \"#utility.yul\":1280:1287   */\n      dup5\n        /* \"#utility.yul\":1276:1299   */\n      sub\n        /* \"#utility.yul\":1272:1304   */\n      slt\n        /* \"#utility.yul\":1269:1388   */\n      iszero\n      tag_54\n      jumpi\n        /* \"#utility.yul\":1307:1386   */\n      tag_55\n      tag_30\n      jump\t// in\n    tag_55:\n        /* \"#utility.yul\":1269:1388   */\n    tag_54:\n        /* \"#utility.yul\":1427:1428   */\n      0x00\n        /* \"#utility.yul\":1452:1505   */\n      tag_56\n        /* \"#utility.yul\":1497:1504   */\n      dup5\n        /* \"#utility.yul\":1488:1494   */\n      dup3\n        /* \"#utility.yul\":1477:1486   */\n      dup6\n        /* \"#utility.yul\":1473:1495   */\n      add\n        /* \"#utility.yul\":1452:1505   */\n      tag_33\n      jump\t// in\n    tag_56:\n        /* \"#utility.yul\":1442:1505   */\n      swap2\n      pop\n        /* \"#utility.yul\":1398:1515   */\n      pop\n        /* \"#utility.yul\":1193:1522   */\n      swap3\n      swap2\n      pop\n      pop\n      jump\t// out\n        /* \"#utility.yul\":1528:1697   */\n    tag_34:\n        /* \"#utility.yul\":1612:1623   */\n      0x00\n        /* \"#utility.yul\":1646:1652   */\n      dup3\n        /* \"#utility.yul\":1641:1644   */\n      dup3\n        /* \"#utility.yul\":1634:1653   */\n      mstore\n        /* \"#utility.yul\":1686:1690   */\n      0x20\n        /* \"#utility.yul\":1681:1684   */\n      dup3\n        /* \"#utility.yul\":1677:1691   */\n      add\n        /* \"#utility.yul\":1662:1691   */\n      swap1\n      pop\n        /* \"#utility.yul\":1528:1697   */\n      swap3\n      swap2\n      pop\n      pop\n      jump\t// out\n        /* \"#utility.yul\":1703:1875   */\n    tag_35:\n        /* \"#utility.yul\":1843:1867   */\n      0x6f6e6c792061646d696e2063616e20646f207468697300000000000000000000\n        /* \"#utility.yul\":1839:1840   */\n      0x00\n        /* \"#utility.yul\":1831:1837   */\n      dup3\n        /* \"#utility.yul\":1827:1841   */\n      add\n        /* \"#utility.yul\":1820:1868   */\n      mstore\n        /* \"#utility.yul\":1703:1875   */\n      pop\n      jump\t// out\n        /* \"#utility.yul\":1881:2247   */\n    tag_36:\n        /* \"#utility.yul\":2023:2026   */\n      0x00\n        /* \"#utility.yul\":2044:2111   */\n      tag_60\n        /* \"#utility.yul\":2108:2110   */\n      0x16\n        /* \"#utility.yul\":2103:2106   */\n      dup4\n        /* \"#utility.yul\":2044:2111   */\n      tag_34\n      jump\t// in\n    tag_60:\n        /* \"#utility.yul\":2037:2111   */\n      swap2\n      pop\n        /* \"#utility.yul\":2120:2213   */\n      tag_61\n        /* \"#utility.yul\":2209:2212   */\n      dup3\n        /* \"#utility.yul\":2120:2213   */\n      tag_35\n      jump\t// in\n    tag_61:\n        /* \"#utility.yul\":2238:2240   */\n      0x20\n        /* \"#utility.yul\":2233:2236   */\n      dup3\n        /* \"#utility.yul\":2229:2241   */\n      add\n        /* \"#utility.yul\":2222:2241   */\n      swap1\n      pop\n        /* \"#utility.yul\":1881:2247   */\n      swap2\n      swap1\n      pop\n      jump\t// out\n        /* \"#utility.yul\":2253:2672   */\n    tag_25:\n        /* \"#utility.yul\":2419:2423   */\n      0x00\n        /* \"#utility.yul\":2457:2459   */\n      0x20\n        /* \"#utility.yul\":2446:2455   */\n      dup3\n        /* \"#utility.yul\":2442:2460   */\n      add\n        /* \"#utility.yul\":2434:2460   */\n      swap1\n      pop\n        /* \"#utility.yul\":2506:2515   */\n      dup2\n        /* \"#utility.yul\":2500:2504   */\n      dup2\n        /* \"#utility.yul\":2496:2516   */\n      sub\n        /* \"#utility.yul\":2492:2493   */\n      0x00\n        /* \"#utility.yul\":2481:2490   */\n      dup4\n        /* \"#utility.yul\":2477:2494   */\n      add\n        /* \"#utility.yul\":2470:2517   */\n      mstore\n        /* \"#utility.yul\":2534:2665   */\n      tag_63\n        /* \"#utility.yul\":2660:2664   */\n      dup2\n        /* \"#utility.yul\":2534:2665   */\n      tag_36\n      jump\t// in\n    tag_63:\n        /* \"#utility.yul\":2526:2665   */\n      swap1\n      pop\n        /* \"#utility.yul\":2253:2672   */\n      swap2\n      swap1\n      pop\n      jump\t// out\n\n    auxdata: 0xa2646970667358221220e7f2e03ca684561e8f5b4ecb4d738328f776502d81c8144b7969bdad39124d6c64736f6c634300081a0033\n}\n",
				"bytecode": {
					"linkReferences": {},
					"object": "608060405234801561000f575f80fd5b506040516104a33803806104a383398181016040528101906100319190610114565b805f806101000a81548173ffffffffffffffffffffffffffffffffffffffff021916908373ffffffffffffffffffffffffffffffffffffffff1602179055503360015f6101000a81548173ffffffffffffffffffffffffffffffffffffffff021916908373ffffffffffffffffffffffffffffffffffffffff1602179055505061013f565b5f80fd5b5f73ffffffffffffffffffffffffffffffffffffffff82169050919050565b5f6100e3826100ba565b9050919050565b6100f3816100d9565b81146100fd575f80fd5b50565b5f8151905061010e816100ea565b92915050565b5f60208284031215610129576101286100b6565b5b5f61013684828501610100565b91505092915050565b6103578061014c5f395ff3fe608060405234801561000f575f80fd5b5060043610610043575f3560e01c80635c60da1b14610087578063eb2c0223146100a5578063f851a440146100c157610044565b5b5f805f9054906101000a900473ffffffffffffffffffffffffffffffffffffffff169050365f80375f80365f845af43d5f803e805f8114610083573d5ff35b3d5ffd5b61008f6100df565b60405161009c9190610237565b60405180910390f35b6100bf60048036038101906100ba919061027e565b610102565b005b6100c96101d3565b6040516100d69190610237565b60405180910390f35b5f8054906101000a900473ffffffffffffffffffffffffffffffffffffffff1681565b3373ffffffffffffffffffffffffffffffffffffffff1660015f9054906101000a900473ffffffffffffffffffffffffffffffffffffffff1673ffffffffffffffffffffffffffffffffffffffff1614610191576040517f08c379a000000000000000000000000000000000000000000000000000000000815260040161018890610303565b60405180910390fd5b805f806101000a81548173ffffffffffffffffffffffffffffffffffffffff021916908373ffffffffffffffffffffffffffffffffffffffff16021790555050565b60015f9054906101000a900473ffffffffffffffffffffffffffffffffffffffff1681565b5f73ffffffffffffffffffffffffffffffffffffffff82169050919050565b5f610221826101f8565b9050919050565b61023181610217565b82525050565b5f60208201905061024a5f830184610228565b92915050565b5f80fd5b61025d81610217565b8114610267575f80fd5b50565b5f8135905061027881610254565b92915050565b5f6020828403121561029357610292610250565b5b5f6102a08482850161026a565b91505092915050565b5f82825260208201905092915050565b7f6f6e6c792061646d696e2063616e20646f2074686973000000000000000000005f82015250565b5f6102ed6016836102a9565b91506102f8826102b9565b602082019050919050565b5f6020820190508181035f83015261031a816102e1565b905091905056fea2646970667358221220e7f2e03ca684561e8f5b4ecb4d738328f776502d81c8144b7969bdad39124d6c64736f6c634300081a0033",
					"opcodes": "PUSH1 0x80 PUSH1 0x40 MSTORE CALLVALUE DUP1 ISZERO PUSH2 0xF JUMPI PUSH0 DUP1 REVERT JUMPDEST POP PUSH1 0x40 MLOAD PUSH2 0x4A3 CODESIZE SUB DUP1 PUSH2 0x4A3 DUP4 CODECOPY DUP2 DUP2 ADD PUSH1 0x40 MSTORE DUP2 ADD SWAP1 PUSH2 0x31 SWAP2 SWAP1 PUSH2 0x114 JUMP JUMPDEST DUP1 PUSH0 DUP1 PUSH2 0x100 EXP DUP2 SLOAD DUP2 PUSH20 0xFFFFFFFFFFFFFFFFFFFFFFFFFFFFFFFFFFFFFFFF MUL NOT AND SWAP1 DUP4 PUSH20 0xFFFFFFFFFFFFFFFFFFFFFFFFFFFFFFFFFFFFFFFF AND MUL OR SWAP1 SSTORE POP CALLER PUSH1 0x1 PUSH0 PUSH2 0x100 EXP DUP2 SLOAD DUP2 PUSH20 0xFFFFFFFFFFFFFFFFFFFFFFFFFFFFFFFFFFFFFFFF MUL NOT AND SWAP1 DUP4 PUSH20 0xFFFFFFFFFFFFFFFFFFFFFFFFFFFFFFFFFFFFFFFF AND MUL OR SWAP1 SSTORE POP POP PUSH2 0x13F JUMP JUMPDEST PUSH0 DUP1 REVERT JUMPDEST PUSH0 PUSH20 0xFFFFFFFFFFFFFFFFFFFFFFFFFFFFFFFFFFFFFFFF DUP3 AND SWAP1 POP SWAP2 SWAP1 POP JUMP JUMPDEST PUSH0 PUSH2 0xE3 DUP3 PUSH2 0xBA JUMP JUMPDEST SWAP1 POP SWAP2 SWAP1 POP JUMP JUMPDEST PUSH2 0xF3 DUP2 PUSH2 0xD9 JUMP JUMPDEST DUP2 EQ PUSH2 0xFD JUMPI PUSH0 DUP1 REVERT JUMPDEST POP JUMP JUMPDEST PUSH0 DUP2 MLOAD SWAP1 POP PUSH2 0x10E DUP2 PUSH2 0xEA JUMP JUMPDEST SWAP3 SWAP2 POP POP JUMP JUMPDEST PUSH0 PUSH1 0x20 DUP3 DUP5 SUB SLT ISZERO PUSH2 0x129 JUMPI PUSH2 0x128 PUSH2 0xB6 JUMP JUMPDEST JUMPDEST PUSH0 PUSH2 0x136 DUP5 DUP3 DUP6 ADD PUSH2 0x100 JUMP JUMPDEST SWAP2 POP POP SWAP3 SWAP2 POP POP JUMP JUMPDEST PUSH2 0x357 DUP1 PUSH2 0x14C PUSH0 CODECOPY PUSH0 RETURN INVALID PUSH1 0x80 PUSH1 0x40 MSTORE CALLVALUE DUP1 ISZERO PUSH2 0xF JUMPI PUSH0 DUP1 REVERT JUMPDEST POP PUSH1 0x4 CALLDATASIZE LT PUSH2 0x43 JUMPI PUSH0 CALLDATALOAD PUSH1 0xE0 SHR DUP1 PUSH4 0x5C60DA1B EQ PUSH2 0x87 JUMPI DUP1 PUSH4 0xEB2C0223 EQ PUSH2 0xA5 JUMPI DUP1 PUSH4 0xF851A440 EQ PUSH2 0xC1 JUMPI PUSH2 0x44 JUMP JUMPDEST JUMPDEST PUSH0 DUP1 PUSH0 SWAP1 SLOAD SWAP1 PUSH2 0x100 EXP SWAP1 DIV PUSH20 0xFFFFFFFFFFFFFFFFFFFFFFFFFFFFFFFFFFFFFFFF AND SWAP1 POP CALLDATASIZE PUSH0 DUP1 CALLDATACOPY PUSH0 DUP1 CALLDATASIZE PUSH0 DUP5 GAS DELEGATECALL RETURNDATASIZE PUSH0 DUP1 RETURNDATACOPY DUP1 PUSH0 DUP2 EQ PUSH2 0x83 JUMPI RETURNDATASIZE PUSH0 RETURN JUMPDEST RETURNDATASIZE PUSH0 REVERT JUMPDEST PUSH2 0x8F PUSH2 0xDF JUMP JUMPDEST PUSH1 0x40 MLOAD PUSH2 0x9C SWAP2 SWAP1 PUSH2 0x237 JUMP JUMPDEST PUSH1 0x40 MLOAD DUP1 SWAP2 SUB SWAP1 RETURN JUMPDEST PUSH2 0xBF PUSH1 0x4 DUP1 CALLDATASIZE SUB DUP2 ADD SWAP1 PUSH2 0xBA SWAP2 SWAP1 PUSH2 0x27E JUMP JUMPDEST PUSH2 0x102 JUMP JUMPDEST STOP JUMPDEST PUSH2 0xC9 PUSH2 0x1D3 JUMP JUMPDEST PUSH1 0x40 MLOAD PUSH2 0xD6 SWAP2 SWAP1 PUSH2 0x237 JUMP JUMPDEST PUSH1 0x40 MLOAD DUP1 SWAP2 SUB SWAP1 RETURN JUMPDEST PUSH0 DUP1 SLOAD SWAP1 PUSH2 0x100 EXP SWAP1 DIV PUSH20 0xFFFFFFFFFFFFFFFFFFFFFFFFFFFFFFFFFFFFFFFF AND DUP2 JUMP JUMPDEST CALLER PUSH20 0xFFFFFFFFFFFFFFFFFFFFFFFFFFFFFFFFFFFFFFFF AND PUSH1 0x1 PUSH0 SWAP1 SLOAD SWAP1 PUSH2 0x100 EXP SWAP1 DIV PUSH20 0xFFFFFFFFFFFFFFFFFFFFFFFFFFFFFFFFFFFFFFFF AND PUSH20 0xFFFFFFFFFFFFFFFFFFFFFFFFFFFFFFFFFFFFFFFF AND EQ PUSH2 0x191 JUMPI PUSH1 0x40 MLOAD PUSH32 0x8C379A000000000000000000000000000000000000000000000000000000000 DUP2 MSTORE PUSH1 0x4 ADD PUSH2 0x188 SWAP1 PUSH2 0x303 JUMP JUMPDEST PUSH1 0x40 MLOAD DUP1 SWAP2 SUB SWAP1 REVERT JUMPDEST DUP1 PUSH0 DUP1 PUSH2 0x100 EXP DUP2 SLOAD DUP2 PUSH20 0xFFFFFFFFFFFFFFFFFFFFFFFFFFFFFFFFFFFFFFFF MUL NOT AND SWAP1 DUP4 PUSH20 0xFFFFFFFFFFFFFFFFFFFFFFFFFFFFFFFFFFFFFFFF AND MUL OR SWAP1 SSTORE POP POP JUMP JUMPDEST PUSH1 0x1 PUSH0 SWAP1 SLOAD SWAP1 PUSH2 0x100 EXP SWAP1 DIV PUSH20 0xFFFFFFFFFFFFFFFFFFFFFFFFFFFFFFFFFFFFFFFF AND DUP2 JUMP JUMPDEST PUSH0 PUSH20 0xFFFFFFFFFFFFFFFFFFFFFFFFFFFFFFFFFFFFFFFF DUP3 AND SWAP1 POP SWAP2 SWAP1 POP JUMP JUMPDEST PUSH0 PUSH2 0x221 DUP3 PUSH2 0x1F8 JUMP JUMPDEST SWAP1 POP SWAP2 SWAP1 POP JUMP JUMPDEST PUSH2 0x231 DUP2 PUSH2 0x217 JUMP JUMPDEST DUP3 MSTORE POP POP JUMP JUMPDEST PUSH0 PUSH1 0x20 DUP3 ADD SWAP1 POP PUSH2 0x24A PUSH0 DUP4 ADD DUP5 PUSH2 0x228 JUMP JUMPDEST SWAP3 SWAP2 POP POP JUMP JUMPDEST PUSH0 DUP1 REVERT JUMPDEST PUSH2 0x25D DUP2 PUSH2 0x217 JUMP JUMPDEST DUP2 EQ PUSH2 0x267 JUMPI PUSH0 DUP1 REVERT JUMPDEST POP JUMP JUMPDEST PUSH0 DUP2 CALLDATALOAD SWAP1 POP PUSH2 0x278 DUP2 PUSH2 0x254 JUMP JUMPDEST SWAP3 SWAP2 POP POP JUMP JUMPDEST PUSH0 PUSH1 0x20 DUP3 DUP5 SUB SLT ISZERO PUSH2 0x293 JUMPI PUSH2 0x292 PUSH2 0x250 JUMP JUMPDEST JUMPDEST PUSH0 PUSH2 0x2A0 DUP5 DUP3 DUP6 ADD PUSH2 0x26A JUMP JUMPDEST SWAP2 POP POP SWAP3 SWAP2 POP POP JUMP JUMPDEST PUSH0 DUP3 DUP3 MSTORE PUSH1 0x20 DUP3 ADD SWAP1 POP SWAP3 SWAP2 POP POP JUMP JUMPDEST PUSH32 0x6F6E6C792061646D696E2063616E20646F207468697300000000000000000000 PUSH0 DUP3 ADD MSTORE POP JUMP JUMPDEST PUSH0 PUSH2 0x2ED PUSH1 0x16 DUP4 PUSH2 0x2A9 JUMP JUMPDEST SWAP2 POP PUSH2 0x2F8 DUP3 PUSH2 0x2B9 JUMP JUMPDEST PUSH1 0x20 DUP3 ADD SWAP1 POP SWAP2 SWAP1 POP JUMP JUMPDEST PUSH0 PUSH1 0x20 DUP3 ADD SWAP1 POP DUP2 DUP2 SUB PUSH0 DUP4 ADD MSTORE PUSH2 0x31A DUP2 PUSH2 0x2E1 JUMP JUMPDEST SWAP1 POP SWAP2 SWAP1 POP JUMP INVALID LOG2 PUSH5 0x6970667358 0x22 SLT KECCAK256 0xE7 CALLCODE 0xE0 EXTCODECOPY 0xA6 DUP5 JUMP 0x1E DUP16 JUMPDEST 0x4E 0xCB 0x4D PUSH20 0x8328F776502D81C8144B7969BDAD39124D6C6473 PUSH16 0x6C634300081A00330000000000000000 "
				},
				"gasEstimates": {
					"creation": {
						"codeDepositCost": "171000",
						"executionCost": "infinite",
						"totalCost": "infinite"
					},
					"external": {
						"": "infinite",
						"admin()": "2530",
						"implementation()": "2483",
						"upgradeContract(address)": "26884"
					}
				},
				"methodIdentifiers": {
					"admin()": "f851a440",
					"implementation()": "5c60da1b",
					"upgradeContract(address)": "eb2c0223"
				}
			},
			"storageLayout": {
				"storage": [
					{
						"astId": 3,
						"contract": "security/Upgradeability/ProxyPatttern.sol:Proxy",
						"label": "implementation",
						"offset": 0,
						"slot": "0",
						"type": "t_address"
					},
					{
						"astId": 5,
						"contract": "security/Upgradeability/ProxyPatttern.sol:Proxy",
						"label": "admin",
						"offset": 0,
						"slot": "1",
						"type": "t_address"
					}
				],
				"types": {
					"t_address": {
						"encoding": "inplace",
						"label": "address",
						"numberOfBytes": "20"
					}
				}
			},
			"userdoc": {
				"kind": "user",
				"methods": {},
				"version": 1
			}
		}
	}
}