{
	"data": {
		"bytecode": {
			"linkReferences": {},
			"object": "608060405234801561000f575f80fd5b506104458061001d5f395ff3fe608060405234801561000f575f80fd5b5060043610610034575f3560e01c806327e235e3146100385780633ccfd60b14610068575b5f80fd5b610052600480360381019061004d9190610292565b610072565b60405161005f91906102d5565b60405180910390f35b610070610086565b005b5f602052805f5260405f205f915090505481565b60015f9054906101000a900460ff16156100d5576040517f08c379a00000000000000000000000000000000000000000000000000000000081526004016100cc90610348565b60405180910390fd5b6001805f6101000a81548160ff0219169083151502179055505f805f3373ffffffffffffffffffffffffffffffffffffffff1673ffffffffffffffffffffffffffffffffffffffff1681526020019081526020015f205490505f805f3373ffffffffffffffffffffffffffffffffffffffff1673ffffffffffffffffffffffffffffffffffffffff1681526020019081526020015f20819055505f3373ffffffffffffffffffffffffffffffffffffffff168260405161019490610393565b5f6040518083038185875af1925050503d805f81146101ce576040519150601f19603f3d011682016040523d82523d5f602084013e6101d3565b606091505b5050905080610217576040517f08c379a000000000000000000000000000000000000000000000000000000000815260040161020e906103f1565b60405180910390fd5b50505f60015f6101000a81548160ff021916908315150217905550565b5f80fd5b5f73ffffffffffffffffffffffffffffffffffffffff82169050919050565b5f61026182610238565b9050919050565b61027181610257565b811461027b575f80fd5b50565b5f8135905061028c81610268565b92915050565b5f602082840312156102a7576102a6610234565b5b5f6102b48482850161027e565b91505092915050565b5f819050919050565b6102cf816102bd565b82525050565b5f6020820190506102e85f8301846102c6565b92915050565b5f82825260208201905092915050565b7f4e6f205265656e7472616e6379000000000000000000000000000000000000005f82015250565b5f610332600d836102ee565b915061033d826102fe565b602082019050919050565b5f6020820190508181035f83015261035f81610326565b9050919050565b5f81905092915050565b50565b5f61037e5f83610366565b915061038982610370565b5f82019050919050565b5f61039d82610373565b9150819050919050565b7f5472616e73666572206661696c656400000000000000000000000000000000005f82015250565b5f6103db600f836102ee565b91506103e6826103a7565b602082019050919050565b5f6020820190508181035f830152610408816103cf565b905091905056fea2646970667358221220f62f6bd96e1505c4b7bee7b705f4d1e95e52dce498d62638dc8f085634ac0a3464736f6c63430008180033",
			"opcodes": "PUSH1 0x80 PUSH1 0x40 MSTORE CALLVALUE DUP1 ISZERO PUSH2 0xF JUMPI PUSH0 DUP1 REVERT JUMPDEST POP PUSH2 0x445 DUP1 PUSH2 0x1D PUSH0 CODECOPY PUSH0 RETURN INVALID PUSH1 0x80 PUSH1 0x40 MSTORE CALLVALUE DUP1 ISZERO PUSH2 0xF JUMPI PUSH0 DUP1 REVERT JUMPDEST POP PUSH1 0x4 CALLDATASIZE LT PUSH2 0x34 JUMPI PUSH0 CALLDATALOAD PUSH1 0xE0 SHR DUP1 PUSH4 0x27E235E3 EQ PUSH2 0x38 JUMPI DUP1 PUSH4 0x3CCFD60B EQ PUSH2 0x68 JUMPI JUMPDEST PUSH0 DUP1 REVERT JUMPDEST PUSH2 0x52 PUSH1 0x4 DUP1 CALLDATASIZE SUB DUP2 ADD SWAP1 PUSH2 0x4D SWAP2 SWAP1 PUSH2 0x292 JUMP JUMPDEST PUSH2 0x72 JUMP JUMPDEST PUSH1 0x40 MLOAD PUSH2 0x5F SWAP2 SWAP1 PUSH2 0x2D5 JUMP JUMPDEST PUSH1 0x40 MLOAD DUP1 SWAP2 SUB SWAP1 RETURN JUMPDEST PUSH2 0x70 PUSH2 0x86 JUMP JUMPDEST STOP JUMPDEST PUSH0 PUSH1 0x20 MSTORE DUP1 PUSH0 MSTORE PUSH1 0x40 PUSH0 KECCAK256 PUSH0 SWAP2 POP SWAP1 POP SLOAD DUP2 JUMP JUMPDEST PUSH1 0x1 PUSH0 SWAP1 SLOAD SWAP1 PUSH2 0x100 EXP SWAP1 DIV PUSH1 0xFF AND ISZERO PUSH2 0xD5 JUMPI PUSH1 0x40 MLOAD PUSH32 0x8C379A000000000000000000000000000000000000000000000000000000000 DUP2 MSTORE PUSH1 0x4 ADD PUSH2 0xCC SWAP1 PUSH2 0x348 JUMP JUMPDEST PUSH1 0x40 MLOAD DUP1 SWAP2 SUB SWAP1 REVERT JUMPDEST PUSH1 0x1 DUP1 PUSH0 PUSH2 0x100 EXP DUP2 SLOAD DUP2 PUSH1 0xFF MUL NOT AND SWAP1 DUP4 ISZERO ISZERO MUL OR SWAP1 SSTORE POP PUSH0 DUP1 PUSH0 CALLER PUSH20 0xFFFFFFFFFFFFFFFFFFFFFFFFFFFFFFFFFFFFFFFF AND PUSH20 0xFFFFFFFFFFFFFFFFFFFFFFFFFFFFFFFFFFFFFFFF AND DUP2 MSTORE PUSH1 0x20 ADD SWAP1 DUP2 MSTORE PUSH1 0x20 ADD PUSH0 KECCAK256 SLOAD SWAP1 POP PUSH0 DUP1 PUSH0 CALLER PUSH20 0xFFFFFFFFFFFFFFFFFFFFFFFFFFFFFFFFFFFFFFFF AND PUSH20 0xFFFFFFFFFFFFFFFFFFFFFFFFFFFFFFFFFFFFFFFF AND DUP2 MSTORE PUSH1 0x20 ADD SWAP1 DUP2 MSTORE PUSH1 0x20 ADD PUSH0 KECCAK256 DUP2 SWAP1 SSTORE POP PUSH0 CALLER PUSH20 0xFFFFFFFFFFFFFFFFFFFFFFFFFFFFFFFFFFFFFFFF AND DUP3 PUSH1 0x40 MLOAD PUSH2 0x194 SWAP1 PUSH2 0x393 JUMP JUMPDEST PUSH0 PUSH1 0x40 MLOAD DUP1 DUP4 SUB DUP2 DUP6 DUP8 GAS CALL SWAP3 POP POP POP RETURNDATASIZE DUP1 PUSH0 DUP2 EQ PUSH2 0x1CE JUMPI PUSH1 0x40 MLOAD SWAP2 POP PUSH1 0x1F NOT PUSH1 0x3F RETURNDATASIZE ADD AND DUP3 ADD PUSH1 0x40 MSTORE RETURNDATASIZE DUP3 MSTORE RETURNDATASIZE PUSH0 PUSH1 0x20 DUP5 ADD RETURNDATACOPY PUSH2 0x1D3 JUMP JUMPDEST PUSH1 0x60 SWAP2 POP JUMPDEST POP POP SWAP1 POP DUP1 PUSH2 0x217 JUMPI PUSH1 0x40 MLOAD PUSH32 0x8C379A000000000000000000000000000000000000000000000000000000000 DUP2 MSTORE PUSH1 0x4 ADD PUSH2 0x20E SWAP1 PUSH2 0x3F1 JUMP JUMPDEST PUSH1 0x40 MLOAD DUP1 SWAP2 SUB SWAP1 REVERT JUMPDEST POP POP PUSH0 PUSH1 0x1 PUSH0 PUSH2 0x100 EXP DUP2 SLOAD DUP2 PUSH1 0xFF MUL NOT AND SWAP1 DUP4 ISZERO ISZERO MUL OR SWAP1 SSTORE POP JUMP JUMPDEST PUSH0 DUP1 REVERT JUMPDEST PUSH0 PUSH20 0xFFFFFFFFFFFFFFFFFFFFFFFFFFFFFFFFFFFFFFFF DUP3 AND SWAP1 POP SWAP2 SWAP1 POP JUMP JUMPDEST PUSH0 PUSH2 0x261 DUP3 PUSH2 0x238 JUMP JUMPDEST SWAP1 POP SWAP2 SWAP1 POP JUMP JUMPDEST PUSH2 0x271 DUP2 PUSH2 0x257 JUMP JUMPDEST DUP2 EQ PUSH2 0x27B JUMPI PUSH0 DUP1 REVERT JUMPDEST POP JUMP JUMPDEST PUSH0 DUP2 CALLDATALOAD SWAP1 POP PUSH2 0x28C DUP2 PUSH2 0x268 JUMP JUMPDEST SWAP3 SWAP2 POP POP JUMP JUMPDEST PUSH0 PUSH1 0x20 DUP3 DUP5 SUB SLT ISZERO PUSH2 0x2A7 JUMPI PUSH2 0x2A6 PUSH2 0x234 JUMP JUMPDEST JUMPDEST PUSH0 PUSH2 0x2B4 DUP5 DUP3 DUP6 ADD PUSH2 0x27E JUMP JUMPDEST SWAP2 POP POP SWAP3 SWAP2 POP POP JUMP JUMPDEST PUSH0 DUP2 SWAP1 POP SWAP2 SWAP1 POP JUMP JUMPDEST PUSH2 0x2CF DUP2 PUSH2 0x2BD JUMP JUMPDEST DUP3 MSTORE POP POP JUMP JUMPDEST PUSH0 PUSH1 0x20 DUP3 ADD SWAP1 POP PUSH2 0x2E8 PUSH0 DUP4 ADD DUP5 PUSH2 0x2C6 JUMP JUMPDEST SWAP3 SWAP2 POP POP JUMP JUMPDEST PUSH0 DUP3 DUP3 MSTORE PUSH1 0x20 DUP3 ADD SWAP1 POP SWAP3 SWAP2 POP POP JUMP JUMPDEST PUSH32 0x4E6F205265656E7472616E637900000000000000000000000000000000000000 PUSH0 DUP3 ADD MSTORE POP JUMP JUMPDEST PUSH0 PUSH2 0x332 PUSH1 0xD DUP4 PUSH2 0x2EE JUMP JUMPDEST SWAP2 POP PUSH2 0x33D DUP3 PUSH2 0x2FE JUMP JUMPDEST PUSH1 0x20 DUP3 ADD SWAP1 POP SWAP2 SWAP1 POP JUMP JUMPDEST PUSH0 PUSH1 0x20 DUP3 ADD SWAP1 POP DUP2 DUP2 SUB PUSH0 DUP4 ADD MSTORE PUSH2 0x35F DUP2 PUSH2 0x326 JUMP JUMPDEST SWAP1 POP SWAP2 SWAP1 POP JUMP JUMPDEST PUSH0 DUP2 SWAP1 POP SWAP3 SWAP2 POP POP JUMP JUMPDEST POP JUMP JUMPDEST PUSH0 PUSH2 0x37E PUSH0 DUP4 PUSH2 0x366 JUMP JUMPDEST SWAP2 POP PUSH2 0x389 DUP3 PUSH2 0x370 JUMP JUMPDEST PUSH0 DUP3 ADD SWAP1 POP SWAP2 SWAP1 POP JUMP JUMPDEST PUSH0 PUSH2 0x39D DUP3 PUSH2 0x373 JUMP JUMPDEST SWAP2 POP DUP2 SWAP1 POP SWAP2 SWAP1 POP JUMP JUMPDEST PUSH32 0x5472616E73666572206661696C65640000000000000000000000000000000000 PUSH0 DUP3 ADD MSTORE POP JUMP JUMPDEST PUSH0 PUSH2 0x3DB PUSH1 0xF DUP4 PUSH2 0x2EE JUMP JUMPDEST SWAP2 POP PUSH2 0x3E6 DUP3 PUSH2 0x3A7 JUMP JUMPDEST PUSH1 0x20 DUP3 ADD SWAP1 POP SWAP2 SWAP1 POP JUMP JUMPDEST PUSH0 PUSH1 0x20 DUP3 ADD SWAP1 POP DUP2 DUP2 SUB PUSH0 DUP4 ADD MSTORE PUSH2 0x408 DUP2 PUSH2 0x3CF JUMP JUMPDEST SWAP1 POP SWAP2 SWAP1 POP JUMP INVALID LOG2 PUSH5 0x6970667358 0x22 SLT KECCAK256 0xF6 0x2F PUSH12 0xD96E1505C4B7BEE7B705F4D1 0xE9 MCOPY MSTORE 0xDC 0xE4 SWAP9 0xD6 0x26 CODESIZE 0xDC DUP16 ADDMOD JUMP CALLVALUE 0xAC EXP CALLVALUE PUSH5 0x736F6C6343 STOP ADDMOD XOR STOP CALLER "
		},
		"gasEstimates": {
			"creation": {
				"codeDepositCost": "218600",
				"executionCost": "261",
				"totalCost": "218861"
			},
			"external": {
				"balances(address)": "2779",
				"withdraw()": "infinite"
			}
		},
		"methodIdentifiers": {
			"balances(address)": "27e235e3",
			"withdraw()": "3ccfd60b"
		}
	},
	"abi": [
		{
			"inputs": [
				{
					"internalType": "address",
					"name": "",
					"type": "address"
				}
			],
			"name": "balances",
			"outputs": [
				{
					"internalType": "uint256",
					"name": "",
					"type": "uint256"
				}
			],
			"stateMutability": "view",
			"type": "function"
		},
		{
			"inputs": [],
			"name": "withdraw",
			"outputs": [],
			"stateMutability": "nonpayable",
			"type": "function"
		}
	]
}