{
	"data": {
		"bytecode": {
			"linkReferences": {},
			"object": "6080604052348015600e575f80fd5b506101898061001c5f395ff3fe608060405260043610610028575f3560e01c80631998aeef1461002c578063f7fb844514610036575b5f80fd5b610034610060565b005b348015610041575f80fd5b5061004a6100a5565b60405161005791906100c2565b60405180910390f35b5f5442106100a3576040517f08c379a000000000000000000000000000000000000000000000000000000000815260040161009a90610135565b60405180910390fd5b565b5f5481565b5f819050919050565b6100bc816100aa565b82525050565b5f6020820190506100d55f8301846100b3565b92915050565b5f82825260208201905092915050565b7f4e6f7420616c6c6f7765640000000000000000000000000000000000000000005f82015250565b5f61011f600b836100db565b915061012a826100eb565b602082019050919050565b5f6020820190508181035f83015261014c81610113565b905091905056fea26469706673582212206535742ae7e00e5c264b42a6e5aa75efbbd94ffe6dd083c0c97a060deede931364736f6c634300081a0033",
			"opcodes": "PUSH1 0x80 PUSH1 0x40 MSTORE CALLVALUE DUP1 ISZERO PUSH1 0xE JUMPI PUSH0 DUP1 REVERT JUMPDEST POP PUSH2 0x189 DUP1 PUSH2 0x1C PUSH0 CODECOPY PUSH0 RETURN INVALID PUSH1 0x80 PUSH1 0x40 MSTORE PUSH1 0x4 CALLDATASIZE LT PUSH2 0x28 JUMPI PUSH0 CALLDATALOAD PUSH1 0xE0 SHR DUP1 PUSH4 0x1998AEEF EQ PUSH2 0x2C JUMPI DUP1 PUSH4 0xF7FB8445 EQ PUSH2 0x36 JUMPI JUMPDEST PUSH0 DUP1 REVERT JUMPDEST PUSH2 0x34 PUSH2 0x60 JUMP JUMPDEST STOP JUMPDEST CALLVALUE DUP1 ISZERO PUSH2 0x41 JUMPI PUSH0 DUP1 REVERT JUMPDEST POP PUSH2 0x4A PUSH2 0xA5 JUMP JUMPDEST PUSH1 0x40 MLOAD PUSH2 0x57 SWAP2 SWAP1 PUSH2 0xC2 JUMP JUMPDEST PUSH1 0x40 MLOAD DUP1 SWAP2 SUB SWAP1 RETURN JUMPDEST PUSH0 SLOAD TIMESTAMP LT PUSH2 0xA3 JUMPI PUSH1 0x40 MLOAD PUSH32 0x8C379A000000000000000000000000000000000000000000000000000000000 DUP2 MSTORE PUSH1 0x4 ADD PUSH2 0x9A SWAP1 PUSH2 0x135 JUMP JUMPDEST PUSH1 0x40 MLOAD DUP1 SWAP2 SUB SWAP1 REVERT JUMPDEST JUMP JUMPDEST PUSH0 SLOAD DUP2 JUMP JUMPDEST PUSH0 DUP2 SWAP1 POP SWAP2 SWAP1 POP JUMP JUMPDEST PUSH2 0xBC DUP2 PUSH2 0xAA JUMP JUMPDEST DUP3 MSTORE POP POP JUMP JUMPDEST PUSH0 PUSH1 0x20 DUP3 ADD SWAP1 POP PUSH2 0xD5 PUSH0 DUP4 ADD DUP5 PUSH2 0xB3 JUMP JUMPDEST SWAP3 SWAP2 POP POP JUMP JUMPDEST PUSH0 DUP3 DUP3 MSTORE PUSH1 0x20 DUP3 ADD SWAP1 POP SWAP3 SWAP2 POP POP JUMP JUMPDEST PUSH32 0x4E6F7420616C6C6F776564000000000000000000000000000000000000000000 PUSH0 DUP3 ADD MSTORE POP JUMP JUMPDEST PUSH0 PUSH2 0x11F PUSH1 0xB DUP4 PUSH2 0xDB JUMP JUMPDEST SWAP2 POP PUSH2 0x12A DUP3 PUSH2 0xEB JUMP JUMPDEST PUSH1 0x20 DUP3 ADD SWAP1 POP SWAP2 SWAP1 POP JUMP JUMPDEST PUSH0 PUSH1 0x20 DUP3 ADD SWAP1 POP DUP2 DUP2 SUB PUSH0 DUP4 ADD MSTORE PUSH2 0x14C DUP2 PUSH2 0x113 JUMP JUMPDEST SWAP1 POP SWAP2 SWAP1 POP JUMP INVALID LOG2 PUSH5 0x6970667358 0x22 SLT KECCAK256 PUSH6 0x35742AE7E00E TLOAD 0x26 0x4B TIMESTAMP 0xA6 0xE5 0xAA PUSH22 0xEFBBD94FFE6DD083C0C97A060DEEDE931364736F6C63 NUMBER STOP ADDMOD BYTE STOP CALLER "
		},
		"gasEstimates": {
			"creation": {
				"codeDepositCost": "78600",
				"executionCost": "127",
				"totalCost": "78727"
			},
			"external": {
				"autionTime()": "2424",
				"bid()": "2502"
			}
		},
		"methodIdentifiers": {
			"autionTime()": "f7fb8445",
			"bid()": "1998aeef"
		}
	},
	"abi": [
		{
			"inputs": [],
			"name": "autionTime",
			"outputs": [
				{
					"internalType": "uint256",
					"name": "",
					"type": "uint256"
				}
			],
			"stateMutability": "view",
			"type": "function"
		},
		{
			"inputs": [],
			"name": "bid",
			"outputs": [],
			"stateMutability": "payable",
			"type": "function"
		}
	]
}